:10000000000C0020B50F0000491300005113000040
:100010005113000051130000511300005113000050
:100020005113000051130000511300005113000040
:100030005113000051130000511300005113000030
:100040005113000051130000511300005113000020
:100050005113000051130000511300005113000010
:100060005113000051130000511300005113000000
:100070005113000051130000511300001D12000025
:1000800051130000AD1C000051130000511300007B
:1000900051130000511300005113000051130000D0
:1000A00051130000511300005113000051130000C0
:1000B00051130000511300005113000051130000B0
:10040000FFFFFFFFFFFFFFFFFFFFFFFF7EFBFFFF81
:1004100010B5064C2378002B07D1054B002B02D0DA
:10042000044800E000BF0123237010BD84FCFF1FBF
:10043000000000008C1E000008B5084B002B03D004
:100440000748084900E000BF07480368002B03D0B5
:10045000064B002B00D0984708BDC04600000000A6
:100460008C1E000088FCFF1F84FCFF1F00000000A2
:10047000164B002B00D1144B9D46402292029A1A33
:10048000924600218B460F461348144A121A01F077
:10049000CAFC0F4B002B00D098470E4B002B00D00E
:1004A00098470020002104000D000D48002802D0CC
:1004B0000C4800E000BF01F087FC2000290000F09C
:1004C000C1FC01F06BFCC04600000800000C0020DD
:1004D000000000000000000084FCFF1F3C0400201E
:1004E0000000000000000000002941D010B4041CEE
:1004F0004C40A44601230022002900D5494200288F
:1005000000D5404288422CD301242407A14204D2C2
:10051000814202D209011B01F8E7E400A14204D2A2
:10052000814202D249005B00F8E7884201D3401AB9
:100530001A434C08A04202D3001B5C0822438C08DB
:10054000A04202D3001B9C082243CC08A04202D345
:10055000001BDC082243002803D01B0901D0090935
:10056000E3E7101C6446002C00D5404210BC7047E5
:10057000002806D003DB0020C043400801E08020B3
:10058000000607B4024802A14018029003BDC0460D
:10059000190000000029EBD003B5FFF7A7FF0EBC40
:1005A0004243891A1847C0467047C04680B500AF1D
:1005B00072B6024A024B0349D150FEE700E000E068
:1005C0000C0D00000400FA050A4B70B5151C0A4A10
:1005D0000E1CC118041C002091420AD8201C01F0F6
:1005E00005F8301C211C2A1C01F02EF8002800D030
:1005F0001B2070BD00E0FFFFFF5F000010B58024EE
:10060000A401201C00F0F2FF002807D18023DB00AA
:10061000E41880231B029C42F3D100E01B2010BD94
:10062000024B18694005C00F7047C04640F00F40AC
:1006300037B50023084C0193019DFFF7F1FF013C02
:1006400045190195002CF7D1019BFA2040009842F2
:10065000804140423EBDC046102700000E4A0F4B6D
:10066000C021D058C900014310B5D1500C4B0D4AE0
:1006700059690A405A610C4B0422FF329A620B4BB3
:100680001C68FFF7D5FF631E033303D8012801D18F
:1006900072B6A04710BDC04600700440381000007C
:1006A00040F00F40FFFBFFFF00A0044004200000CB
:1006B00010B5C0438A1891420ED00B7858400823D9
:1006C000012404404008002C01D0044C6040013B50
:1006D000002BF5D10131EEE7C04310BD783BF68227
:1006E000114B70B51968072461430918C9101960C6
:1006F0000E4A0F4B15681E68654374436D186118E8
:10070000ED10C91015601960A84200DA1060884227
:1007100000DD186019681368C9184910411A0548A6
:1007200000F0D4F970BDC04608FCFF1F00FCFF1F9D
:1007300004FCFF1F84FDFF1F08B5024800F0B4F958
:1007400008BDC04684FDFF1F411808788B7800065D
:100750001B02C018CB78C0184B781B04C018704718
:1007600030B50023934205DAC55CCC5CA54203D1C9
:100770000133F7E7012000E0002030BDB34BF7B5AF
:10078000161C1A680C1C3C321A60B14A00215156E2
:10079000002900DD58E18B2C01DD00F08FF9AD4D13
:1007A000AB490122631C2E550A702C1C0C2B00D166
:1007B00096E0882B03D0082B00D042E147E0281CAC
:1007C000A5490322FFF7CCFF002800D139E103251A
:1007D0006557072D37D8A14F3E68002E33D104212D
:1007E000201CFFF7B1FF211C01900831301C802232
:1007F000FFF75EFF019B83421DD1E901A219984BCF
:10080000127ACB189A550136802EF7D1954B0122DA
:100810005A55954AFF201368013313605843934B90
:100820001968C900FFF760FEC0B200F09FFA904B54
:1008300086490B6007E08B4B02225A5501223A6031
:100840008C4B8B4A1A608C4800F038F9F9E0281C70
:100850008A490422FFF784FF00280ED0281C0421B7
:10086000FFF772FF864B984204D1FFF7C7FE7B4B20
:1008700002221A60804800F021F9201C81490422DC
:10088000FFF76EFF002805D0744B1B68002B01D1C9
:10089000FFF78CFE201C7C490422FFF761FF002833
:1008A00000D1CEE0794B00221A606E4900235354E8
:1008B0000132082AF9D1764A00259D540133182BBC
:1008C000F9D1201C0421FFF73FFF684B1860714BE2
:1008D0001D60624B1D60644B1D6000F04DFAB0E07E
:1008E000281C6D490422FFF73BFF00281AD0287905
:1008F0006B79AE7A00021818A979EC792B7A6A7AAA
:10090000ED7A3602AD1980B2ADB2A8421FD109020C
:100910001B026118D31889B29BB2994217D100F01B
:1009200004FA8EE0281C5D490422FFF719FF041E1B
:1009300016D02879AA7A6B79EC7A0002120218187C
:10094000A21880B292B2E9796B7A904202D000F09C
:1009500023FA76E0C9B29942F9D100F068F970E063
:10096000281C4F490422FFF7FBFE002869D0281CF1
:100970000421FFF7E9FE0821061C281CFFF7E4FE0E
:10098000374D80220190291C201CD200FFF790FED9
:100990002F1C231C334AA15C01344A1E51424A4198
:1009A0009B18082CF6D12D4C394D082B2DD1019BCD
:1009B00098422AD12168002927D180229201B018BB
:1009C0008022391CD200FFF7FFFDB60A1B280BD18D
:1009D00000F0E2F92D4B1A6801321A6023680133E6
:1009E00023600223AB550EE02A4A136801331360DB
:1009F0001E4A12689A4201D1FFF7D8FD0123AB5578
:100A00001249284B0B6000220CE0204BB60A1A68F2
:100A100001321A602368013323600223AB5500F0D2
:100A2000BBF9F0E70F4900238B540132082AF9D1B2
:100A3000FA180021117001338022D2009342F7D1BD
:100A400001E7034A00231370F7BDC046C0FCFF1F37
:100A5000D4FCFF1FA0FDFF1F3C1E0000CCFCFF1FAD
:100A60002CFEFF1FA0FCFF1FD8FCFF1FD0FCFF1FA8
:100A7000204E0000C4FCFF1F84FDFF1F401E00002D
:100A800039050000451E00004A1E0000DCFCFF1F67
:100A9000A8FCFF1FC8FCFF1F4F1E0000541E0000D3
:100AA000591E000050C3000000230360436007226A
:100AB0000361C36002238260436170470723836040
:100AC0000023036102234361704700004268C8238A
:100AD000013270B55B00041C0E1C42609A4201DDBD
:100AE000022343612368002B73DC002E71DD012A91
:100AF0006DDD01231F2A00DC00236269022A04D075
:100B0000032A13D0012A62D13BE0E2685100FF22A0
:100B10000A40002B00D00132E260E368022B56D17C
:100B20000322A36100236261A36050E0E2685100E8
:100B3000FF220A40002B00D00132E260A268264B5F
:100B40000132134004D50822013B524213430133C2
:100B5000A360002B3BD1A269E368022A02D1991E4F
:100B600001290CD9002B08DD591C8A4205D1012B23
:100B700005D100226361226101E002226261A3616A
:100B800025E0E2685100FF220A40002B00D001322C
:100B9000A568114B0135E2601D4004D50823013DD5
:100BA0005B421D430135A560002D10D1227B201C26
:100BB0002169FFF7E3FD2369013323618B2B01DCFE
:100BC000A56004E00723A36002232561636100237D
:100BD0006360266070BDC0460700008070477047A4
:100BE000704708B5002000F01DFA08BD13B56C462B
:100BF0000634201C00F02CFA094A208813680949A1
:100C00009C006050084901330B4004D54021013B52
:100C100049420B4301331360FFF762FD13BDC04629
:100C2000E0FCFF1F2C0300203F000080704708B548
:100C300000F042FC08BD0000044B20211A680A4362
:100C40001A60C046C046C046C046704700F00F401C
:100C5000054B20211A688A431A60C046C046C04628
:100C6000C046C0467047C04600F00F40044B01210B
:100C70001A680A431A60C046C046C046C04670475C
:100C800040F00F40044B01211A688A431A60C046A5
:100C9000C046C046C046704740F00F40044B80211C
:100CA0001A680A431A60C046C046C046C04670472C
:100CB00000F00F40044B80211A688A431A60C04636
:100CC000C046C046C046704700F00F40084A802327
:100CD0005B005361D361074AA0211360064B5A6938
:100CE0000A435A61054B01215A690A435A61704708
:100CF0000090044000A0044000F00F4040F00F407E
:100D000038B5051C0724FFF7BDFF0123A3402A1CAB
:100D10001A409A4202D1FFF7C1FF01E0FFF7CAFF74
:100D2000FFF7A4FF013CEED238BD38B50005C02561
:100D3000000DAD0105430C1CFFF78AFF280AFFF7E1
:100D4000DFFFE8B2FFF7DCFF2405FFF775FFB023F4
:100D50001B02240D1C43FFF77BFF200AFFF7D0FF87
:100D6000E0B2FFF7CDFFFFF767FF38BD014B18700A
:100D70007047C046FDFCFF1F044A00231370044A5D
:100D80001370044B01221A707047C046FDFCFF1F10
:100D9000FCFCFF1FFBFCFF1F024B1A7801321A708C
:100DA0007047C046FCFCFF1F024B20211A680A4313
:100DB0001A60704740F00F40024B20211A688A43A6
:100DC0001A60704740F00F40024B40211A680A43F6
:100DD0001A60704740F00F40024B40211A688A4366
:100DE0001A60704740F00F40024B80211A680A4396
:100DF0001A60704740F00F40024B80211A688A4306
:100E00001A60704740F00F4010B5FFF7D5FF00247F
:100E10000A4B0B4AE35CD35C002B02D0FFF7E4FFE4
:100E200001E0FFF7E9FF0134FFF7D6FFFFF7CCFF42
:100E3000172CEDD1FFF7B8FF10BDC0460CFCFF1F0B
:100E4000E4FCFF1FF8B5FFF709FC00F0D9FA334BBB
:100E5000802252005A619A61DA61314BE0215A696D
:100E600000250A435A61FFF731FFFFF765FC0135A2
:100E700000232C4C00261E550133172BF9D12A4B89
:100E80002A4F5B690122FB18DB7CE254284BFA21D4
:100E900098590901FFF728FB0D210830FFF77AFB6D
:100EA00022480122435C0436E254802393409E4250
:100EB000ECD1204B1B7893422DD100220023A35468
:100EC0000132102AFAD11C4A1278934208DA0D2115
:100ED000594316480912415C012060541B18F4E77D
:100EE000164B1B78002B16D0C821281C4900FFF791
:100EF000FBFA0123061C1E400DD1281CC821FFF758
:100F0000F3FA3F78331C19180122114200D1E2553F
:100F10000133102BF7D1FFF777FFA8E700A00440BB
:100F200040F00F40E4FCFF1F84FDFF1F0CFCFF1F7F
:100F30002C030020FBFCFF1FFDFCFF1FFCFCFF1F20
:100F400010B588421BD0002A19D0031C0B439C0704
:100F500005D1032A03D908C9043A08C0F3E7DC071E
:100F600007D4012A05D90B88023A038002310230E6
:100F7000E9E70B78013A037001310130E3E710BD76
:100F800010B50024094AA3181968002906D01219BF
:100F900050689268FFF7D4FF0C34F3E758680028D4
:100FA000F5D19B68002BF2D110BDC046381F000060
:100FB000704770470B4B181C002805D0854681B040
:100FC0000020C043009001B0FFF7F2FF00F0C2F92B
:100FD000054B002B01D0FFF7D3FFFFF7EAFFFFF728
:100FE00047FAFEE7000C0020381F000010B5094B3F
:100FF0001B78002B0CD0084A084C094900231370B9
:101000000B702068012200F0C5F8206800F0AAF8F3
:1010100010BDC04600FDFF1FFEFCFF1F3004002076
:10102000FFFCFF1F70B5094C061C25780820EDB2A7
:10103000002D0AD101232370FFF7D8FF281C002EB2
:1010400003D02378012BFCD0002070BD00FDFF1FD2
:10105000054B1A780923002A04D0044B1B881B0176
:1010600003800023181C7047FEFCFF1F2C04002087
:1010700010B50C4C0C4B22781868042A06D100F0ED
:10108000B1F800232370FFF7D1FD09E0074900F014
:1010900097F8074B01221A70FFF7A8FD0023237071
:1010A00010BDC04600FDFF1F300400202C040020AE
:1010B000FEFCFF1F08B5054B00201870044B18708C
:1010C00000F00AF8034B186008BDC046FEFCFF1F85
:1010D00000FDFF1F30040020194B1A4A30B50021D3
:1010E000586013601848194A1970997085588024FF
:1010F00024052C438450164AC320800015588024B0
:101100002D022D0A24062C4314501468802000025E
:10111000204310600F4A1048546B204050630F4A20
:1011200017209060D0680F24A04301242043D06092
:101130001162402151620A4A181C136030BDC0463A
:1011400008FDFF1F04FDFF1F007004403C1000005D
:1011500000E100E000A00440FFF8FFFE00B0034003
:1011600054FDFF1F0A4B8022196A10B51140082256
:1011700000290AD15A6A4824A2435A621A6A4024B2
:10118000A2431A6242781A600A1C101C10BDC046A5
:1011900000B0034030B59623012A0CD1074B1C6ADE
:1011A0000823250607D402700A788223002A02D178
:1011B00050234370131C181C30BDC04600B00340C0
:1011C00010B5002302789A4208D91C1D044AA400D5
:1011D000A4585A0001335452DBB2F3E7002010BD8B
:1011E00000B003400C4B4022596A10B50A401B2046
:1011F000002A10D1D96C986C4018596C4018196CA1
:101200004018D96B9C6B40180019802140080902D6
:101210000143D962101C10BD00B0034008B5054B56
:1012200001221B689A705868FFF722FF024B1B6966
:1012300008BDC04604FDFF1F00B00340F7B50B1CFE
:10124000041C161C002901D131803AE01E4D1A1CE5
:101250002868211C002300F02BFC082801D10C2059
:1012600030E00024271C286800F036FB286800F0D6
:101270006DFC00280ED1286800F070FC874204D075
:10128000286800F06BFC114C071C0134104BA4B211
:101290009C42E8D9286800F061FC308028686D46DF
:1012A0000635291C00F092FC2B88002B05D0082065
:1012B000034207D115205A0704D4FA23DB009C42CD
:1012C000CDD00020FEBDC04634040020FFFF00004A
:1012D000CF07000037B50E4B20219A78FA248A43B5
:1012E0009A709A7810218A439A70E400094B6D46EF
:1012F00007351868291C00F06FFC2B78012B05D0EE
:10130000013CA4B2002CF1D10C2000E000203EBD35
:10131000006006403404002008B5054B7F221B689E
:1013200002400021181C00F01BFCC0B208BDC046E2
:101330003404002008B5002000F078FB014B186051
:1013400008BDC0463404002008B5FFF749FC08BDBD
:10135000FFBE70471F4B204A204910B5D150204B8B
:1013600088220021520199501E48C02292021A5030
:101370001D4AC0219C58C900214399501B4A08218D
:1013800094780C4202D094782143917080225202CA
:101390001A50174A174998580140802040040143C9
:1013A0009950154B06221A70597840220A405A70FB
:1013B000D9781F220A40A0210A43DA700F4A8021FF
:1013C00011709A79D106FCD599790C221142FBD182
:1013D00010BDC046080D000000E000E00000000065
:1013E00000700440441000003810000000D0074096
:1013F00004100000FFFFFFFC0040064000500640C4
:1014000010B5244B1F215A7900248A435A711A7946
:1014100007218A431A71204B73211A788A4350217D
:101420000A431A705A7863218A4340210A435A704A
:101430009A7819218A439A70184BC7221C70184B4E
:101440009200995889B29950164A1749D06A0140BA
:1014500002200143D162154A154950680140C0205D
:10146000800001435160C122920098581149014007
:101470009950FFF71FFE201C00F030FC00F0A2F88E
:1014800000F0B4FB00F0BCFBFFF754FF00F059F88C
:1014900062B610BD00F0074000D0074000E00740F2
:1014A00000E100E000A00440FDFFFFFE00900440CA
:1014B000FFF8FFFEFFFF00FFF7B5061C40055023B5
:1014C000400F18430F1C00F020F8051E09D101AC95
:1014D0002A1C201C02212670677000F01FF8051ED0
:1014E00003D000F019F8281C0EE0FF23237005201C
:1014F00000F046FC201C01210022642300F022F8A9
:101500000028F4D100F008F8FEBD08B5FFF704FF8D
:10151000002800D01B2008BD0020704737B5151CDF
:101520006A460632FFF78AFE041E02D0FFF7D2FE9B
:1015300005E002239D4302D1FFF7CCFE041C201CD2
:101540003EBD704737B5151C6A460632FFF776FE7A
:10155000041E02D0FFF7BEFE04E0002D02D1FFF70B
:10156000B9FE041C201C3EBDF7B5124C84462778FA
:101570000191131C251C0820002F1AD10E4A0521A9
:101580000E4E11600122227030686146019A00F00F
:10159000A3F8002808D1306800F0E2F82B78002B7F
:1015A000F9D1074B187803E02770892800D1022071
:1015B000C0B2FEBD18FDFF1F14FDFF1F1CFDFF1F65
:1015C00010FDFF1F08B5002000F06AF8044B002250
:1015D0001860044B1A70044B01221A7008BDC046F3
:1015E0001CFDFF1F18FDFF1F11FDFF1FF8B5124C5A
:1015F000011C2578261C0820002D1CD10F4B02222F
:101600000F4F1A60890A8022012389023868D200AC
:10161000237000F07FF8002808D1386800F0A0F8A7
:101620003378002BF9D1074B187803E0257089280F
:1016300000D10220C0B2F8BD18FDFF1F14FDFF1F2E
:101640001CFDFF1F10FDFF1F08B5FFF78DFF08BD34
:10165000024A00231370024A1370704710FDFF1FE7
:1016600018FDFF1F1FB50A4A00231370094A694677
:101670001360094B186800F01BF969468A78074B1C
:10168000D10601D5162200E003221A7005B000BD74
:1016900018FDFF1F14FDFF1F1CFDFF1F10FDFF1F86
:1016A000094B022210B55A700022DA701A70DA6003
:1016B0000649074A58618858012420438850054A42
:1016C000181CD36010BDC04620FDFF1F00700440F1
:1016D0003C10000054FDFF1F70B54578041C082025
:1016E000022D14D80A4D5E1E8920AE420FD88025E7
:1016F0002D02ED1AAA420AD8022020700420607040
:101700000620A0700020A360E1602261606070BDCF
:10171000FF7F000030B54478031C0820022C1BD842
:101720000E4C551E8920A54216D880242402A41AE6
:10173000A14211D80C1C1443A405A40D0CD19A602D
:1017400080220320D20018705A60042009225870A9
:10175000DC6019619A70201C30BDC046FF7F00001C
:10176000F0B5012391B05B420393002304934578C5
:10177000EA1E022A00D992E04A490C780A1C64B297
:101780009C4200DB8BE07024042D02D10C70C370EE
:1017900013E00978C57821402943C17004D0437013
:1017A0004069FFF75FFF7AE08168002905D10223D5
:1017B00043704069FFF74CFF71E00378991E0129DF
:1017C0006DD8147870210C4269D14178042902D176
:1017D0000521417009E0056941686C1804615C1ECF
:1017E000012C02D8C6687118C160022B06D0032BE9
:1017F00035D1876841687B1A836032E00369856868
:101800000093009C032323400424E41AE4B2A5427D
:1018100000D2ECB20021CEB2A6420AD2C76803AE13
:101820007F5CF618775404AEF618FF277754013121
:10183000F1E70099039ECF1A3968049FC9433740E6
:10184000394204D0C37804221343C37027E04460B4
:101850002C1B8460144C71400391216002E0012B29
:101860001DD000238178D1710469E11AC9B21171C8
:10187000056905ACE91A090AC9B251710169201C50
:10188000CB1A1B0CDBB293710849282200F0C2FA74
:10189000FFF7A4F901231C43A047FFF7A0F911B0FB
:1018A000F0BDC04600000240080002405E1E00007D
:1018B00038B5051C0C1CFFF791F92B782370AB7819
:1018C0006370EB78A3702B696360EB686D68A3604D
:1018D000E560FFF784F938BDF0B5534B0227D9789E
:1018E0001A1C394200D19EE0DE78D9781224A14337
:1018F000F6B23143D9709D78202425401021002D67
:1019000000D180E09D780D4256D001252E420FD0A7
:101910009A78A2439A709A788A439A700023038235
:10192000038103780622AB4313430370082377E057
:1019300006783E423AD0078A002F0AD0428A013FF9
:101940000132428242690782511C416112781A7148
:1019500069E00789002F1BD004210E420ED0082316
:101960009178012F01D10B4301E099430B1C937037
:10197000937810218B439370137954E09A780A433B
:101980009A70C27915431D710378194301704AE0BA
:101990008278AE430670012A05D19A78A2439A70E4
:1019A0009A788A439A704378012229E082791A71E1
:1019B00003781F43077036E003894189013B9BB2DE
:1019C000013103814181002B05D0012B0ED1937889
:1019D00008210B4309E0037801218B4303709378BE
:1019E0000821A343937093788B439370C368591C69
:1019F000C16012791A700389002B14D14378022236
:101A0000134343700FE00E420DD00478012294433B
:101A100005820581827004709A788A439A70042343
:101A2000828813438380F0BD00600640194B20225A
:101A300070B51A7010229A71012298619A70164836
:101A4000002216495A70445840252C435A811A8165
:101A50005A821A829A804450114950208A708871A3
:101A60000220C8700F48104D066980242E40A40043
:101A700026430661C66835402C43C4604A718A71AA
:101A80003A224A708878802202438A70074A181CDA
:101A9000136170BD38FDFF1F00700440341000005A
:101AA0000060064000A00440FFF8FFFE54FDFF1F49
:101AB000F0B5002A01D1002443E08578012D0BD137
:101AC000214CE6780824B7063BD406782E4238D15C
:101AD000048A002C34D104E005780824EE0730D4C1
:101AE000F6E70578012683703543174B4161057091
:101AF000448202829A7810210A439A7099782022AF
:101B0000114202D09A78042100E099780A439A7031
:101B10000278970604D506210A430270827906E00E
:101B20001021114005D006218A430270C2791A7132
:101B300007E01507BFD502252A430270197100E09E
:101B40000824201CF0BDC0460060064042780123F6
:101B5000111C99434170101C18407047408A70470F
:101B600030B50478012525400823002D2AD101290C
:101B700014D0002906D0022923D1302294432343D4
:101B800003701CE089237F2A1CD818239C43202340
:101B90001C435200827104700B1C13E00A49892314
:101BA0008A420FD806238271D2091A4010235B4261
:101BB0001A4328239C4310231C43C27104702B1C1E
:101BC00000E08D23181C30BDFF0300008288031C39
:101BD00000200A8098807047034B0020DA780123A8
:101BE000520993430B70704700600640024B034A52
:101BF00059690A405A61704700F00F40FFEFFFFF3C
:101C0000024B034A59690A405A61704740F00F403D
:101C1000FFD7FFFF08B5FEF7E4FF08BD70B51A4C0B
:101C20006368002B2AD1194A01211171184990606B
:101C30000A6018481849802546586D0435434550B8
:101C40001649C4200B604B60CB604B61144B800085
:101C50008B6080235B001360124B134D1E58354080
:101C60008026360235431D501D688020800228439F
:101C7000186048230B606260131C03E01A799860B7
:101C800001321A71181C70BD54FDFF1F6CFDFF1F3F
:101C900068FDFF1F007004403C10000000800340FE
:101CA0005E09000000E100E0FF00FFFF094B80211A
:101CB0001A68094B10B518680840441EA041146802
:101CC0000002044205D0186801431960906800F0D2
:101CD0001BF810BD68FDFF1F0080034038B5084C9D
:101CE000084DA060012300202371AC60FFF796FF30
:101CF0002060002801D1A86000E0201C38BDC0464B
:101D000078FDFF1F54FDFF1F08B5034B9B689868C3
:101D1000FFF780FF08BDC04654FDFF1FC046C04608
:101D2000C04670470020C046C046C046C046C046B8
:101D300001300928F7D9C046704710B5041C642C3F
:101D400004D9643CFFF7EEFFA4B2F8E70A2C04D9EB
:101D50000A3CFFF7E3FFA4B2F8E710BD10B5041C7E
:101D60000548844204D9FFF7E8FF044BE418F7E77D
:101D7000A0B2FFF7E2FF10BD60EA0000A015FFFF70
:101D800010B5041C002C05D00348013CFFF7E6FF0A
:101D9000A4B2F7E710BDC04664BB0000084B10B505
:101DA000041C002B02D0002100E000BF054B186886
:101DB000836A002B00D09847201C00F03DF8C046F5
:101DC00000000000881E000070B50E4B0E4D002470
:101DD000ED1AAD101E1CAC4204D0A300F358984776
:101DE0000134F8E700F052F8084B094D0024ED1AD1
:101DF000AD101E1CAC4204D0A300F3589847013428
:101E0000F8E770BDAC1E0000AC1E0000AC1E000068
:101E1000B01E000010B50023934203D0CC5CC45424
:101E20000133F9E710BD031C8218934202D01970E8
:101E30000133FAE770470000FEE7C046424C4F000E
:101E40004B494C4C00424F4F5400444F49540044BE
:101E5000414353004545505200464C41530007B49E
:101E600007498020087008780006FCD505490A68F3
:101E7000D2204002104308600A6007BC704700008F
:101E800002400C3000F0430024FCFF1FF8B5C046B0
:101E9000F8BC08BC9E467047F8B5C046F8BC08BC04
:101EA0009E467047CCE5FF7F01000000390400002A
:101EB000110400002823000028230000282300002C
:101EC0000C11100F0E0D120405060708090A0B135A
:101ED00014150302010016000000000000000000BD
:101EE00000000000000000000000000000000000F2
:101EF0000000000000000000861E0000000000003E
:101F000000000000000000000000000000000000D1
:101F100000000000000000000000000000000000C1
:101F200000000000000000000000000000000000B1
:101F30000000000000000000B41E000000FCFF1FB5
:101F4000840000000000000000000000000000000D
:10200000000C00201D4E0000195A0000255A000047
:10201000255A0000255A0000255A0000255A0000C4
:10202000255A0000255A0000255A0000255A0000B4
:10203000255A0000255A0000255A0000255A0000A4
:10204000255A0000255A0000255A0000255A000094
:10205000255A0000255A0000255A0000255A000084
:10206000255A0000255A0000255A0000255A000074
:10207000255A0000255A0000255A0000CD540000C2
:10208000255A00009D6D0000255A0000255A0000C9
:10209000255A0000255A0000255A0000255A000044
:1020A000255A0000255A0000255A0000255A000034
:1020B000255A0000255A0000255A00000D5A00003C
:1024100010B5064C2378002B07D1054B002B02D0BA
:10242000044800E000BF0123237010BD04FCFF1F1F
:1024300000000000AC6F000008B5084B002B03D073
:102440000748084900E000BF07480368002B03D095
:10245000064B002B00D0984708BDC0460000000086
:10246000AC6F000008FCFF1F04FCFF1F0000000011
:10247000002934D00123002210B488422CD3012437
:102480002407A14204D2814202D209011B01F8E7CC
:10249000E400A14204D2814202D249005B00F8E785
:1024A000884201D3401A1A434C08A04202D3001BB1
:1024B0005C0822438C08A04202D3001B9C082243E4
:1024C000CC08A04202D3001BDC082243002803D022
:1024D0001B0901D00909E3E7101C10BC7047002854
:1024E00001D00020C04307B4024802A14018029066
:1024F00003BDC046D90000000029F0D003B5FFF7A6
:10250000B9FF0EBC4243891A1847C046002941D082
:1025100010B4041C4C40A44601230022002900D51D
:102520004942002800D5404288422CD30124240788
:10253000A14204D2814202D209011B01F8E7E40062
:10254000A14204D2814202D249005B00F8E78842EE
:1025500001D3401A1A434C08A04202D3001B5C0866
:1025600022438C08A04202D3001B9C082243CC08C3
:10257000A04202D3001BDC082243002803D01B0921
:1025800001D00909E3E7101C6446002C00D5404245
:1025900010BC7047002806D003DB0020C043400871
:1025A00001E08020000607B4024802A14018029012
:1025B00003BDC046190000000029EBD003B5FFF7AA
:1025C000A7FF0EBC4243891A1847C0467047C04651
:1025D0001C2101231B04984201D3000C10391B0A53
:1025E000984201D3000A08391B09984201D3000917
:1025F000043902A2105C40187047C046040302026E
:102600000101010100000000000000009C460304DD
:10261000F0B51B0C17043F0C150C1E1C041C000C01
:102620007E436B4347434543FB18300C18188742E1
:1026300002D980235B02ED18030CED1863465C435E
:102640004A433604360CA118000480194919F0BD1C
:1026500080B584B000AF78607B6800229A727B6896
:1026600000221A617B680022DA617B6800225A61CD
:102670007B6800221A667B6800225A667B6800220B
:10268000DA637B6800225A647B6800225A657B68A3
:102690000022DA657B6800221A657B6800221A64D2
:1026A0007B6800229A647B6800225A657B6800225E
:1026B0009A657B680022DA657B680022DA667B68AF
:1026C00000221A677B6800225A677B6800229A61A1
:1026D0007B680022DA677B6800229A670023FB6030
:1026E00008E07B68FA68223292000021D150FB6832
:1026F0000133FB60FB68072BF3DD0023BB6009E0BF
:1027000079682023BA688A18D31800221A70BB6827
:102710000133BB60BB68032BF2DDBD4604B080BD56
:1027200080B582B000AF78607A687B68101C191C95
:1027300001F0BAF9031C7A68101C191C01F0B4F9F5
:10274000031C181CBD4602B080BDC04690B59DB0AC
:1027500000AFF860B9607A601A1CBB1C1A807B68F5
:102760005B045B0C7B60BA68FB68D31ABB667B4B6F
:102770007B6683233B667B6E181CFFF7D1FF031C2F
:10278000FB653B6E181CFFF7CBFF031CBB65BB6DE5
:102790005B427B65FA6DBB6D101C191C01F062F980
:1027A000031C80225202101C191C01F089FA031C20
:1027B0003B657B685B0080225202101C191C01F0F3
:1027C00051F9041C3A6E7B6E101C191C01F04AF979
:1027D000031C201C191C01F067F9021C7B6E101CE5
:1027E000191C01F003F9031CFB64FB6C181CFFF7B8
:1027F00097FF021C7B6D101C191C01F0F7F8021CDE
:102800003B6D101C191C01F04FF9031CBB64544BA9
:102810007B6400233B643B6C181CFFF781FF031CA7
:10282000FB637B6C181CFFF77BFF031CBB63BB6B5C
:102830005B427B63FA6BBB6B101C191C01F012F935
:10284000031C80225202101C191C01F039FA031CCF
:102850003B637B685B0080225202101C191C01F054
:1028600001F9041C7A6C3B6C101C191C01F0FAF87D
:10287000031C201C191C01F017F9021C3B6C101CD6
:10288000191C01F0B3F8031CFB62FB6A181CFFF76C
:1028900047FF021C7B6B101C191C01F0A7F8021CDF
:1028A0003B6B101C191C01F0FFF8031CBB623B1CA6
:1028B0001C33BA6C1A607B685B001A1C3B1C1C330F
:1028C0005A607B685B001A1C3B1C14331A603B1C6B
:1028D0001433BA6A5A60BB6CFB668022D219136843
:1028E0001B78012B0DD18022D21913685B783A1C1A
:1028F0001C32101C01211A1C00F0FCFF031CFB669B
:102900001BE08022D21913681B78022B0DD1802284
:10291000D21913685B783A1C1432101C01211A1C5E
:1029200000F0E8FF031CFB6607E08022D219136861
:102930001B78022B01D9BB6AFB66BB6EFA6E534350
:10294000002B00DA01335B107B627B6ADA0BFB68D9
:10295000D318181CBD461DB090BDC046CCCC00009D
:1029600070FD000090B58FB002AFF860B9607A607A
:102970001A1CBB1C1A80F868B9687A68BB1C1B88D3
:102980003C6C00947C6C0194FFF7E0FE031C8022F9
:102990001202D31AFB623B6C1B78002B3FD17B6881
:1029A000BB623B6C5B78FF22D31A7B627A6ABB6A9C
:1029B0005343BB62BB6A181C3021FFF759FD031C4F
:1029C000BB62F868B968BA6ABB1C1B883C6C00948F
:1029D0007C6C0194FFF7BAFE031C80221202D31A0A
:1029E0003B623B6AFA6A53433B623B6ADB0B3B62E6
:1029F0003B1C1433FA6A1A603B1C14333A6A5A605F
:102A00003B6C5B78FF22D31A3A1C1432101C012154
:102A10001A1C00F0ADFF031CFB61FB6900E0FB6AC0
:102A2000181CBD460DB090BD90B591B002AFF860D6
:102A3000B9607A601A1CBB1C1A80F868B9687A6899
:102A4000BB1C1B88BC6C0094FC6C0194FFF77EFEE1
:102A5000031C7B637B68DA43F868B968BB1C1B887E
:102A6000BC6C0094FC6C0194FFF770FE031C3B638C
:102A7000BB6C1B78002B52D17B68FB62FB6A802207
:102A80001202D31AFB62BB6C5B78FF22D31ABB62C3
:102A9000BA6AFB6A5343FB62FB6A181C3021FFF7DA
:102AA000E7FC031CFB62FB6A5B045B0C80221202E6
:102AB000D31AFB6280231902FA6ABB1C1B88B86C0C
:102AC0000090F86C01900020FFF740FE031C7B6231
:102AD0007B6B80221202D31A3B627B6A3A6A5343B1
:102AE0007B627B6ADB0B7B627A6A7B6BD3187B62CF
:102AF0003B1C14337A6B1A603B1C14337A6A5A609D
:102B0000BB6C5B78FF22D31A3A1C1432101C0121D3
:102B10001A1C00F02DFF031CFB61FB6900E07B6BBE
:102B2000181CBD460FB090BD90B58FB002AFF860D5
:102B3000B9607A601A1CBB1C1A80F868B9687A6898
:102B4000BB1C1B883C6C00947C6C0194FFF7FEFD61
:102B5000031CBB628023D9017A68BB1C1B88386CBC
:102B60000090786C01900020FFF7F0FD031C7B6261
:102B70003B6C1B78022B51D97B683B623B6C5B78CA
:102B8000FB623B6C1B78032B02D980235B00FB624A
:102B90003B6A80221202D31A3B62FA6A3B6A5343B1
:102BA0003B623B6A181C3021FFF762FC031C3B624E
:102BB0003B6A5B045B0C80221202D31A3B62F8680A
:102BC000B9683A6ABB1C1B883C6C00947C6C01940D
:102BD000FFF7BCFD031CFB61FB697A6A5343FB6191
:102BE000FB699B0BFB613B1C1033BA6A1A603B1CF0
:102BF0001033FA695A603B6C1B78032B0CD13B6C89
:102C00005B783A1C1032101C01211A1C00F0B0FE37
:102C1000031CBB61BB6902E0FB6900E0BB6A181CD6
:102C2000BD460DB090BDC04680B582B000AF7860A3
:102C300039607B68DB69022B16D002DC012B0ED0D9
:102C40001CE0032B02D0042B13D017E07A682F234B
:102C50000021D1547A6830230021D1540EE07A68E3
:102C600023231E21D15409E07A6822231E21D15446
:102C700004E07A6820231E21D154C0467B683A685C
:102C8000DA617B68DB69042B78D89A003D4BD31856
:102C90001B689F467B6800225A657B6800229A6504
:102CA0007B680022DA6569E07B68802212025A653F
:102CB0007B68802212029A657B680022DA657B6855
:102CC0001A6E7B68DA647B685A6E7B681A657A686C
:102CD00021231E21D1547B680022DA664EE07B68F6
:102CE000802212025A657B6800229A657B68002266
:102CF000DA657B681A6E7B685A647B685A6E7B68FB
:102D00009A647B6800225A6738E07B6800225A6523
:102D10007B6800229A657B680022DA657B681A6E00
:102D20007B68DA637B685A6E7B681A647B68002272
:102D30001A677B68DA6F7B689A677B68DA6B802337
:102D40001B029A4205D17B68181C0221FFF76CFF19
:102D500014E013E07B68802212025A657B688022AF
:102D600012029A657B680022DA657A682F23FF21B8
:102D7000D1547A683023FF21D154C046BD4602B0F9
:102D800080BDC046746F000080B582B000AF78602F
:102D90007B689B7A012B08D17B68181C0121FFF707
:102DA00043FF7A6884230721D150BD4602B080BD1D
:102DB00080B584B000AFF8607A603B1C0B330A1C0E
:102DC0001A703B1C0B331B78002B10D0FB689B7ACE
:102DD000002B20D1FB68181C0121FFF725FFFB68A1
:102DE00001229A72FA6884230721D15013E07B688C
:102DF0001B78002B0CD0FB68DB69002B08D0FB682C
:102E0000DB69042B04D0FB68181C0421FFF70CFFBE
:102E1000FB6800229A72BD4604B080BD80B582B0C6
:102E200000AF786039603B6800229A70BD4602B0FE
:102E300080BDC04680B582B000AF7860BD4602B0AC
:102E400080BDC04680B582B000AF786039603B6815
:102E5000002B01D0C82301E0FA23DB007A681212AC
:102E600053431B120133181CBD4602B080BDC0463F
:102E700080B582B000AF78607B681B12DB031B1249
:102E8000181CBD4602B080BDF0B59BB002AFF86023
:102E9000B9607A60FB681A893B1C1033101C04214E
:102EA0001A1C00F043FCFA688423D358002B2CDD55
:102EB000FA688423D358591EFA688423D150FA68DB
:102EC0008423D258FB689B89191CFB68223292002C
:102ED000D1500023FB650CE0FB68DA6FFB68F96DED
:102EE00022318900CB58D218FB68DA67FB6D0133B9
:102EF000FB65FB6D072BEFDDFB68DB6F002B00DA5A
:102F00000733DB101A1CFB68DA670023BB6518E087
:102F1000F9682023BA6D8A18D3181B78002B0DD0BE
:102F2000F9682023BA6D8A18D3181B78013BDAB2EE
:102F3000F8682023B96D4118CB181A70BB6D0133A6
:102F4000BB65BB6D032BE3DDBB689B78002B30D0EA
:102F500000237B6509E0F96820237A6D8A18D3186D
:102F600000221A707B6D01337B657B6D032BF2DDD4
:102F7000FB68DB69022B0DD002DC012B05D018E0C9
:102F8000032B0CD0042B0FD013E0FA68232301216C
:102F9000D1540EE0FA6822230121D15409E0FA68E5
:102FA00021230121D15404E0FA6820230121D154C6
:102FB000C046FB68DB69042B00D9CDE19A00E14BE8
:102FC000D3181B689F46FB68802212029A66FB6832
:102FD0001B881A1CBB685B78101C191CFFF732FF9A
:102FE000031C7B6480231802796CFFF78FFA031CA3
:102FF0003B64FB681A6E3B6CD218FB681A66FB6870
:103000001A6EFB68DB6BD31ADA03FB68DB6B80217B
:103010000902CB1A101C191CFFF778FA031C1A1CA2
:10302000FB685A65FB681B6C1C1CFB68196CFB6811
:103030005B6D80221202D31A1A1CFB681D89FB6883
:10304000186E80231B023E1C103600960190081C4F
:10305000191C2B1CFFF786FC031CE3181A1CFB68C9
:103060005A66FB685A6DFB68D96FFB689B6FCB1A79
:103070005343002B01DAB44A9B18DB131A1CFB687C
:103080009B6FD118FA688023D150FB681A6EAE4B43
:103090009A420DDDFB68181C0221FFF7C5FDFB6895
:1030A000802212021A66FB68802212025A6653E1DD
:1030B00052E1FB689B88181CFFF7DAFE031CFB63D8
:1030C000FB68FA6B9A66FB685B881A1CBB685B78C6
:1030D000101C191CFFF7B6FE031CBB63FB6B9B4A5D
:1030E0009B18181CB96BFFF711FA031C7B63FB6874
:1030F0001A6E7B6BD218FB681A66FB685A6CFB6B06
:103100009A421DDDFB681A6EFB6BD31A3B63FB68AA
:103110001A6EFB6BD31ADA03FB6B80210902CB1A00
:10312000101C191CFFF7F2F9031C1A1CFB689A65A6
:10313000FB689B6D80221202D21AFB689A6506E03A
:10314000FB68802212029A65FB68FA6B1A66FB68BC
:103150005B6F5A1CFB685A67FB685B6FDB03181CCC
:10316000B96BFFF7D3F9031C1A1CFB689A65FB685F
:103170009B6D80221202D31A1A1CFB681C89FB6803
:10318000186EF96B80231B023D1C103500950190D1
:10319000081C191C231CFFF747FC031C1A1CFB68A6
:1031A0005A66FB681A6EFB6B9A4204DDFB685A6F25
:1031B000BB6B9A422DDBFB68FA6B1A66FB68FA6BF5
:1031C0005A66BB681B78002B03D0BB681B78022BA8
:1031D0000FD1FB68181C0421FFF726FDFB68DB6993
:1031E000002B05D1FB68181C0121FFF71DFD10E025
:1031F0000FE0FB681B6E002B05D1FB68181C00213B
:10320000FFF712FD05E0FB68181C0321FFF70CFD1A
:10321000A2E0A1E0FB689B88181CFFF729FE031CB5
:10322000FB62FB68FA6A9A66FB689B88181CFFF7CA
:103230001FFE021CFB681B6ED31A181C0521FFF72A
:1032400065F9031CBB62FB681A6EBB6AD218FB6887
:103250001A66FB681A6EFB685A667DE0FB680022FE
:103260009A66FB68DB881A1CBB685B78101C191C0B
:10327000FFF7E8FD031C7B62FB68DB6C5B42181CFC
:10328000796AFFF743F9031C3B62FB681A6E3B6ADD
:10329000D218FB681A66FB68DB6E5A1CFB68DA669C
:1032A000FB681B6E002B02DAFB6800221A66FB68C3
:1032B000DB6EDB03181C796AFFF728F9031C1A1C64
:1032C000FB68DA65FB681B6D002B18DDFB68196D68
:1032D000FB68DB6D80221202D31A1A1CFB681C8962
:1032E000FB681B6E381C1030009001930020231CDB
:1032F000FFF71AFC031C1A1CFB685A6602E0FB6805
:1033000000225A66FB68DA6E7B6A9A4219DBFB6818
:1033100000221A66FB6800225A66BB681B78022BE3
:1033200009D1FB689B7A002B05D0FB68181C012192
:10333000FFF77AFC05E0FB68181C0021FFF774FC1E
:103340000AE009E0886F0000FF7F00000080FFFFB7
:10335000FB6800229A66C04600233B6509E0F968D5
:1033600028233A6D8A18D31800221A703B6D013356
:103370003B653B6D0C2BF2DDFB68DB69002B00D15C
:1033800095E00023FB64FB68DB69022B10D002DCB4
:10339000012B05D025E0032B15D0042B17D020E0FE
:1033A000FB685A6D131C5B009B18DB11FB6418E073
:1033B000FB689A6D131C5B009B18DB11C022920006
:1033C0009B18FB640DE0C023DB00FB6409E0FB6895
:1033D000DA6D131C5B009B18DB11714A9B18FB64B0
:1033E000C046FB689B6B1B12FB61FB6C1B12BB6135
:1033F000FA69BB699A4210D0FB69BB6409E0F968BD
:103400002823BA6C8A18D318FF221A70BB6C0133B8
:10341000BB64BA6CBB699A42F1DDFB689B6BDAB2A4
:10342000F8682823F9694118CB181A70F96828231D
:10343000FA698A18D3181B78DB43DAB2F8682823B4
:10344000F9694118CB181A70BA69FB699A4209D018
:10345000BB69591CFB6CDAB2F86828234118CB18F9
:103460001A700EE0FB69591CF8682823FA69821863
:10347000D3181B78DB43DAB2F86828234118CB183D
:103480001A70FA682E23D15CFA682F23D154FA6897
:103490002E23D15CFA683023D154FA682E23D15CF4
:1034A000FA683123D154FB68FA6C9A6302E0FB6836
:1034B00000229A633B4B1B68002B10D0FB689A6973
:1034C000131C9B009A18FB685B6ED318181C06210E
:1034D000FFF71CF8031C1A1CFB689A6103E0FB68E9
:1034E0005A6EFB689A61FA688023D258131C1B033A
:1034F0009B1A01D52C4A9B181B147B61FB681A6E22
:103500007B681B687969CB1A5343002B01DA274A81
:103510009B18DB131A1CFB681A61FB689A697B68AD
:103520005B687969CB1A5343002B01DA1F4A9B1859
:10353000DB131A1CFB685A61FB681A697B681B68FD
:10354000D218FB681A61FB685A697B685B68D218FD
:10355000FB685A61FB681B69002B03DAFB680022D9
:103560001A6107E0FB681A69114B9A4202DDFB6899
:103570000F4A1A61FB685B69002B03DAFB680022C3
:103580005A6107E0FB685A69094B9A4202DDFB6801
:10359000074A5A61FB681B69181CBD4619B0F0BD8B
:1035A000FF09000020FCFF1FFFFF0000FF7F00005D
:1035B000FF0F000080B500AFBD4680BD80B500AFF5
:1035C00000F06CFFBD4680BD80B582B000AF002327
:1035D0007B6010E07B68DAB2BB1C101C191C01F088
:1035E000CDFCBB1C1B88191C074B7A689200D1507C
:1035F0007B6801337B607B68052BEBDD034B01228D
:103600001A60BD4602B080BD58FEFF1F24FCFF1F9C
:1036100080B500AFBD4680BD80B582B000AF786098
:10362000054B1B69181C02F0DFF9031C181C01F084
:10363000F5F8BD4602B080BD40FDFF1F80B584B0E7
:1036400000AF78603B1C0F3300221A707B689AB27F
:103650003B1C0F33101C191C02F026FC3B1C0F33C3
:103660001B78181CBD4604B080BDC04680B582B032
:1036700000AF0A1CBB1D011C19807B1D1A70BB1DED
:103680001A887B1D1B78101C191C02F099FBBD4683
:1036900002B080BD90B587B000AFB9607A603B1CC6
:1036A0000E33021C1A8000237B6111E07B69BA682B
:1036B000D4183B1C0E331B883A1C0E32591C118047
:1036C000181CFFF7BBFF031C23707B6901337B6170
:1036D0007A697B689A42E9DBBD4607B090BDC04677
:1036E00080B586B000AFB9607A603B1C0E33021C17
:1036F0001A8000237B6111E03B1C0E331B883A1CAF
:103700000E32591C11807A69B9688A181278181C0F
:10371000111CFFF7ABFF7B6901337B617A697B6822
:103720009A42E9DBBD4606B080BDC04680B588B090
:1037300000AF3A60BB1D021C1A807B1D0A1C1A7068
:10374000BB1D1B887A1D12785343002B00DAFF3310
:103750001B12FB61FB694033FB61FB69FF22934352
:10376000BB61BB697B61BB69FA69D31A5A00BB694B
:10377000D318013BFF3B3B617A693B69934200DA16
:10378000131CFB60FB681B12DAB23B681A70FB6803
:10379000DAB23B685A70BD4608B080BD80B582B0D1
:1037A00000AF78607B68DA68084B9A4209DD7B6875
:1037B000DB68002B05DB7B6801225242DA600123C3
:1037C00000E00023181CBD4602B080BDCF070000FA
:1037D00080B582B000AF78607B681B7A1B071B0F37
:1037E000DBB2012B06D17B681A7A0F218A431A7249
:1037F000012300E00023181CBD4602B080BDC04676
:1038000080B582B000AF78607B681B7A1B061B0F07
:10381000DBB2012B06D17B68197A0F220A401A729B
:10382000012300E00023181CBD4602B080BDC04645
:1038300080B582B000AF786039607B68002B05D01E
:103840003B681B685A1C3B681A6004E03B681B68B5
:103850005A1E3B681A603B681B68012B11DC3B68F1
:103860001B69022B06D13B681A7A0F218A4301217A
:103870000A431A723B6801221A603B6801225A60AF
:1038800014E03B681B681E2B10DD3B681B691E2B78
:1038900006D13B68197A0F220A4010210A431A7296
:1038A0003B681F221A603B6800225A603B685B68D5
:1038B000002B09DD3B68DB68002B08DB3B68DB681D
:1038C0005A1C3B68DA6002E03B680022DA603B6821
:1038D0001A683B681A613B68DA68054B9A4203DD57
:1038E0003B68FA22D200DA60BD4602B080BDC04615
:1038F000CF07000080B588B000AFF860B9607A608B
:103900007B68BA685343BB613B1C1F33BA691A70AA
:103910003B1C1F331B78002B0BD03B1C1F331B7829
:10392000FF2B06D03B1C1F333A1C1F32127801328A
:103930001A70BB691B127B617B699B00FA68D31804
:103940001B681B123A1C1F321278FF218A1A5A4335
:103950007B6901339B00F968CB181B681B12391C6B
:103960001F3109784B43D318181CBD4608B080BDE1
:1039700080B588B000AFF860B9607A607B68BA68DB
:103980005343BB613B1C1F33BA691A703B1C1F3386
:103990001B78002B0BD03B1C1F331B78FF2B06D052
:1039A0003B1C1F333A1C1F32127801321A70BB695C
:1039B0001B127B617B699B00FA68D3181B681B0A8A
:1039C0003A1C1F321278FF218A1A5A437B6901334D
:1039D0009B00F968CB181B681B0A391C1F3109783A
:1039E0004B43D318181CBD4608B080BD80B586B0C7
:1039F00000AF786039607B687B613B683B617A69C6
:103A00003B69D318FB607A693B69534006D47A69F5
:103A1000FB68534002D580231B0600E0FB68181C9E
:103A2000BD4606B080BDC04680B586B000AF7860A8
:103A300039607B687B613B683B617A693B69D31A7B
:103A4000FB607A693B69534006D57A69FB6853404D
:103A500002D580231B0600E0FB68181CBD4606B09B
:103A600080BDC04680B584B000AF786039607A68A8
:103A70003B68101C191CFFF7D7FF031CFB60802359
:103A80001B06FA689A4207D17B68002B01DB054BC5
:103A900001E080231B0600E0FB68181CBD4604B053
:103AA00080BDC046FFFFFF7FF0B591B000AFF86268
:103AB000B962FB6A3B62DB177B62BB6ABB61DB17E7
:103AC000FB61386A796ABA69FB69FEF79FFD031CDE
:103AD0000C1CBB63FC63FB6BDB133B61FB6BDB17F9
:103AE0007B613B697B63FB6B002B0FDA7B6B0133E4
:103AF00002D080231B0633E0B96BFA6B01235B42D3
:103B0000DC175B185441BB63FC6305E07B6B002B47
:103B100002D080231B0623E0FB6B1B04BA6B120C44
:103B2000BA60B9681943B960FB6B1B14FB60BB68D2
:103B30003B63BA6B80231B02111C19403960FA6B7E
:103B40000023111C194079607A6853043968CD0B41
:103B50001D437A68D6132A1C3B6BD3183B633B6B1F
:103B6000181CBD4611B0F0BDB0B58EB000AF786185
:103B700039613B69002B02D180231B069CE07B69E5
:103B8000D9175B184B407B633B69DA179B1853408E
:103B90003B630023FB621123BB623B6B1B0D1B05C8
:103BA00022D03B6B5B0C0133FB61786BF969FEF74C
:103BB0005FFC031CFB62FB6ABB600023FB603B6B8A
:103BC0003B6000237B60B868F9683A687B68FEF761
:103BD0001DFD021C0B1CD903540C0C435D0C231C53
:103BE0007A6BD31A7B6306E005E03B6B1B093B63F2
:103BF000BB6A043BBB623A6B0F23134002D1BB6A22
:103C0000032BF2DC3CE0786BFEF7E2FC031C7B62EA
:103C10007A6ABB6A9A4201DDBB6A7B627A6B7B6A15
:103C2000111C99400B1C7B63BA6A7B6AD31ABB6276
:103C3000786B396BFEF71CFC031CBB617B6B181C9B
:103C4000396BFEF759FC0B1C7B63BA69BB6A111C0C
:103C500099400B1CFA6AD318FB6201235A42BB6AD3
:103C6000111CD9400B1CDB43BA69134002D08023DE
:103C70001B0621E07B6B5B007B63BB6A013BBB6285
:103C80007B6B002B02D0BB6A002BBCDAFB6A0133D2
:103C9000FB62FB6A5B083B627A693B6953400AD569
:103CA00080231B063A6A9A4202D180231B0603E056
:103CB0003B6A5B423B623B6A181CBD460EB0B0BD1E
:103CC00080B584B000AF786039607A683B68101CBA
:103CD000191CFFF749FF031CFB6080231B06FA68D1
:103CE0009A420FD17B68DB0FDAB23B68DB43DB0F14
:103CF000DBB25340DBB2002B01D0054B03E0802345
:103D00001B0600E0FB68181CBD4604B080BDC04621
:103D1000FFFFFF7F80B500AF002002F05BFE031CB9
:103D20001A1C124B101C191CFFF782FD002002F018
:103D30008DFF031C1A1C0E4B101C191CFFF778FD7D
:103D4000002002F007FF031C1A1C0A4B101C191C50
:103D5000FFF76EFD002002F03BFF031C1A1C064B10
:103D6000101C191CFFF764FDBD4680BD64FCFF1FDD
:103D700050FCFF1F3CFCFF1F28FCFF1F80B500AF5D
:103D8000E24B1B780933DAB2E04B1A70E04B9B69C7
:103D9000181C02F063FEDF4B1A7BDC4B1B789A4247
:103DA00005D9DB4BDB69181C01F0FEFF04E0D84BA2
:103DB000DB69181C01F0ECFFD54B1B6A181C01F0E5
:103DC00091FDD34B1B6A181C01F098FDD14B5A7C16
:103DD000CE4B1B789A4205D9CD4BDB69181C01F0FC
:103DE000E3FF04E0CA4BDB69181C01F0D1FFC84BAC
:103DF0001B6A181C01F076FDC54B1B6A181C01F0EC
:103E00007DFDC44B1A7CC14B1B789A4205D9C04B2F
:103E1000DB69181C01F0C8FF04E0BD4BDB69181C0E
:103E200001F0B6FFBA4B1B6A181C01F05BFDB84BE2
:103E30001B6A181C01F062FDB64BDA7BB34B1B7892
:103E40009A4205D9B24BDB69181C01F0ADFF04E0C2
:103E5000AF4BDB69181C01F09BFFAD4B1B6A181CB4
:103E600001F040FDAA4B1B6A181C01F047FDA94B4D
:103E70009A7BA64B1B789A4205D9A54BDB69181C87
:103E800001F092FF04E0A24BDB69181C01F080FFF7
:103E90009F4B1B6A181C01F025FD9D4B1B6A181CCB
:103EA00001F02CFD9B4B5A7B984B1B789A4205D90D
:103EB000974BDB69181C01F077FF04E0944BDB693A
:103EC000181C01F065FF924B1B6A181C01F00AFDDB
:103ED0008F4B1B6A181C01F011FD8E4B9A7C8B4B8B
:103EE0001B789A4205D98A4BDB69181C01F05CFFEC
:103EF00004E0874BDB69181C01F04AFF844B1B6A06
:103F0000181C01F0EFFC824B1B6A181C01F0F6FC38
:103F1000804B1A797D4B1B789A4205D97C4BDB6923
:103F2000181C01F041FF04E0794BDB69181C01F01B
:103F30002FFF774B1B6A181C01F0D4FC744B1B6AD3
:103F4000181C01F0DBFC734B5A79704B1B789A42BA
:103F500005D96F4BDB69181C01F026FF04E06C4BA0
:103F6000DB69181C01F014FF694B1B6A181C01F077
:103F7000B9FC674B1B6A181C01F0C0FC654B9A79B1
:103F8000624B1B789A4205D9614BDB69181C01F022
:103F90000BFF04E05E4BDB69181C01F0F9FE5C4B83
:103FA0001B6A181C01F09EFC594B1B6A181C01F07F
:103FB000A5FC584BDA79554B1B789A4205D9544BDE
:103FC000DB69181C01F0F0FE04E0514BDB69181CA2
:103FD00001F0DEFE4E4B1B6A181C01F083FC4C4BBB
:103FE0001B6A181C01F08AFC4A4B1A7A474B1B7853
:103FF0009A4205D9464BDB69181C01F0D5FE04E056
:10400000434BDB69181C01F0C3FE414B1B6A181CB3
:1040100001F068FC3E4B1B6A181C01F06FFC3D4B25
:104020005A7A3A4B1B789A4205D9394BDB69181CEE
:1040300001F0BAFE04E0364BDB69181C01F0A8FE63
:10404000334B1B6A181C01F04DFC314B1B6A181CCA
:1040500001F054FC2F4B9A7A2C4B1B789A4205D9CD
:104060002B4BDB69181C01F09FFE04E0284BDB6939
:10407000181C01F08DFE264B1B6A181C01F032FC47
:10408000234B1B6A181C01F039FC224BDA7A1F4BB8
:104090001B789A4205D91E4BDB69181C01F084FE7F
:1040A00004E01B4BDB69181C01F072FE184B1B6A05
:1040B000181C01F017FC164B1B6A181C01F01EFCA3
:1040C000154A2223D35C002B05D0114BDB69181C49
:1040D00001F05EFE04E00E4BDB69181C01F064FE8B
:1040E0000B4B1B6A181C01F0FDFB094B1B6A181CCB
:1040F00001F004FC084A2123D35C002B0ED0044BB2
:10410000DB69181C01F044FE0DE0C04600FCFF1FF7
:1041100040FDFF1F7CFCFF1FA4FDFF1F5A4BDB6906
:10412000181C01F041FE584B1B6A181C01F0DAFB09
:10413000554B1B6A181C01F0E1FB544A2023D35C49
:10414000002B05D0504BDB69181C01F021FE04E068
:104150004D4BDB69181C01F027FE4B4B1B6A181CEA
:1041600001F0C0FB484B1B6A181C01F0C7FB484B11
:10417000DA78484B1B789A4205D9434BDB69181C07
:1041800001F012FE04E0404BDB69181C01F000FE58
:104190003D4B1B6A181C01F0A5FB3B4B1B6A181C0E
:1041A00001F0ACFB3A4B9A783A4B1B789A4205D90E
:1041B000354BDB69181C01F0F7FD04E0324BDB697D
:1041C000181C01F0E5FD304B1B6A181C01F08AFB3E
:1041D0002D4B1B6A181C01F091FB2D4B5A782D4B6F
:1041E0001B789A4205D9284BDB69181C01F0DCFDCD
:1041F00004E0254BDB69181C01F0CAFD224B1B6A49
:10420000181C01F06FFB204B1B6A181C01F076FB99
:104210001F4B1A781F4B1B789A4205D91A4BDB6942
:10422000181C01F0C1FD04E0174BDB69181C01F0FC
:10423000AFFD154B1B6A181C01F054FB124B1B6A97
:10424000181C01F05BFB114A2323D35C002B05D023
:104250000D4BDB69181C01F09BFD04E00A4BDB6988
:10426000181C01F0A1FD084B1B6A181C01F03AFB59
:10427000054B1B6A181C01F041FB034B9B69181C82
:1042800002F0F8FBBD4680BD40FDFF1FA4FDFF1FEF
:104290007CFCFF1F00FCFF1F80B500AF034B034AEF
:1042A000126880210A431A60BD4680BD00F00F40AD
:1042B00080B500AF034B034A126880218A431A601D
:1042C000BD4680BD00F00F4080B500AF034B034AF0
:1042D000126801210A431A60BD4680BD40F00F40BC
:1042E00080B500AF034B034A126801218A431A606C
:1042F000BD4680BD40F00F4080B500AF0A4B802224
:104300005200DA61094B802252001A60084B084AB9
:10431000526980210A435A61064B064A52690121BB
:104320000A435A61BD4680BD0090044000A004408D
:1043300000F00F4040F00F4080B584B000AF021C89
:10434000FB1D1A703B1C0F3380221A701BE0FB1DF3
:104350003A1C0F321B7812781340DBB23A1C0F3232
:1043600012789A4202D1FFF797FF01E0FFF7A0FF12
:10437000FFF7AAFFFFF7B4FF3B1C0F333A1C0F32C5
:10438000127852081A703B1C0F331B78002BDED1B9
:10439000BD4604B080BDC04680B588B000AF78602F
:1043A0003960002001F0ACFC0023FB610023BB61FD
:1043B00000237B6100233B617B68012B27D1002315
:1043C000FB60FB69002B01D0002301E080235B012F
:1043D000FA681343FB60BB69002B01D0002301E0A6
:1043E00080239B01FA681343FB603B681B051B0D90
:1043F000FA681343FB60FB681B0ADAB23B1C083304
:104400001A70FB68DAB23B1C08335A7027E080232D
:104410001B02FB607B69002B01D0002301E080239D
:104420005B01FA681343FB603B69002B01D000235A
:1044300001E080239B01FA681343FB603B681B0586
:104440001B0DFA681343FB60FB681B0ADAB23B1CC6
:1044500008331A70FB68DAB23B1C08335A703B1CF5
:1044600008331B78181CFFF767FF3B1C08335B7889
:10447000181CFFF761FF002001F04EFC002002F045
:10448000A9FA031C1A1C044B101C191CFFF7D0F9C5
:10449000BD4608B080BDC04664FCFF1F80B582B039
:1044A00000AFFFF737FC4E4B1B685A1C4C4B1A6091
:1044B0004C4B1B685A1C4B4B1A604A4B1A68012321
:1044C000134003D0012B00D17AE084E0464B181C46
:1044D000FFF77EF9031C002B06D0444B01221A6023
:1044E000434B181CFEF750FC4149424A424B081C02
:1044F000111C1A1CFEF7C8FC3D4B1A693F4B1A6091
:104500003E4B1B680020191CFFF746FF00237B6011
:1045100020E0374928237A688A18D3181A7838494E
:104520007B68CB181A70374A7B68D3181A783449DD
:104530007B68CB181B789A4209D22D4928237A68C8
:104540008A18D3181A782F497B68CB181A707B68A1
:1045500001337B607B680C2BDBDD00233B602BE0B1
:10456000274A3B68D3181A7826493B68CB181B7832
:104570009A420AD9234A3B68D3181B780133DAB22E
:1045800020493B68CB181A7013E01D4A3B68D318CA
:104590001A781C493B68CB181B789A4209D2194AF1
:1045A0003B68D3181B78013BDAB216493B68CB183D
:1045B0001A703B6801333B603B68132BD0DD0AE087
:1045C0000B4B5A69104B1A600F4B1B680120191CCA
:1045D000FFF7E2FEC046FFF7D1FBBD4602B080BD4B
:1045E000A4FCFF1F78FCFF1F64FCFF1FB0FCFF1F33
:1045F000A4FDFF1FA0FDFF1F50FEFF1FA8FCFF1F13
:1046000090FCFF1F7CFCFF1FACFCFF1F80B582B03D
:1046100000AF78607B68012B0DD0022B15D0002BEA
:104620001DD1104B0022DA730E4B00229A730D4BF2
:10463000FF225A7313E00B4B0022DA73094BFF225F
:104640009A73084B00225A7309E0064BFF22DA7373
:10465000044B00229A73034B00225A73C046BD4696
:1046600002B080BD90FCFF1F80B582B000AF7860C3
:104670007B68002B04D0012B09D001330ED014E04D
:104680000B4BFF221A740A4B00225A740DE0084BA0
:1046900000221A74064BFF225A7406E0044B0022D3
:1046A0001A74034B00225A74C046BD4602B080BD46
:1046B00090FCFF1F80B582B000AF78607B68002B54
:1046C0000BD0012B02D001330ED014E00B4BFF2294
:1046D0001A740A4B00225A740DE0084B00221A7417
:1046E000064BFF225A7406E0044B00221A74034B57
:1046F00000225A74C046BD4602B080BD90FCFF1F28
:1047000080B582B000AF00201021FEF7AFFF032379
:104710007B60054A7B680120111C1A1CFEF7E0FF34
:10472000BD4602B080BDC046A0FDFF1F80B584B06D
:1047300000AF2020FEF782FF031CFB60FB68102BFC
:104740000BD10823BB60094ABB682120111C1A1C2D
:10475000FEF7A0FF054B7B6005E0044B72225A6018
:10476000024B86221A60BD4604B080BD50FEFF1F7A
:1047700090B583B000AFFC1D0020FEF75FFF031C67
:104780002370FB1D1B78102B0DD103233B60084ABF
:104790003B680120111C1A1CFEF77CFF044B181CFF
:1047A000FEF748FB01E0FFF7ABFFBD4603B090BD4D
:1047B000A0FDFF1F80B500AF154B1B68002B04D177
:1047C000144B5B78181CFFF775FF114B1B68012B0E
:1047D00017D1114B1B68181CFA239900FDF78CFEAA
:1047E0000B1C1A1C9023FF339A4205D8094B9B7867
:1047F000181CFFF739FF04E001235B42181CFFF788
:1048000033FF044B1B78181CFFF700FFBD4680BD2B
:10481000B8FCFF1FA0FDFF1F78FCFF1F80B582B012
:1048200000AF78600B4B1B68012B00D10FE07B6859
:104830005A1E1343DB0FDBB21A1C0749074B081C37
:10484000111C1A1CFEF7B4FA054B01221A60BD4672
:1048500002B080BDBCFCFF1FA4FDFF1FA0FDFF1F19
:10486000B4FCFF1F80B588B000AF01F05FF9FFF71F
:1048700043FDBF4B181CFDF7EBFEBE4ABE4B101CA0
:10488000191CFEF7CBFAFFF751FFFFF771FF00236A
:10489000FB6107E0B94AFB69D318FF221A70FB6974
:1048A0000133FB61FB69112BF4DDB54B5B68181C10
:1048B00002F0CAFA012000F091FB002000F03AFB60
:1048C0000023BB611DE000237B6111E0BA697B69B5
:1048D0009A4205D1AB4A7B69D318FF221A7004E0D3
:1048E000A84A7B69D31800221A707B6901337B6167
:1048F0007B690C2BEADD282002F020FBBB69013329
:10490000BB61BB690C2BDEDD00233B6107E09B4AEA
:104910003B69D31800221A703B6901333B613B6944
:10492000112BF4DD8C2002F009FBFFF727FA01239D
:104930007B60FFF73FFFFFF721FA3B1C0F3300229C
:104940001A70914B181CFEF743FF031C002B11D06B
:1049500001237B60884B1B780133181C0321FDF772
:104960002BFE0B1CDAB2844B1A703B1C0F33012256
:104970001A7025E0844B181CFEF710FF031C002B57
:104980001ED07D4B1B780233181C0321FDF714FE4B
:104990000B1CDAB2784B1A703B1C0F3301221A70D1
:1049A00001237B60794B1B68002B05D0012B07D1BD
:1049B000764B00221A6003E0744B01221A60C04655
:1049C000734B181CFEF704FF031C002B2AD0012395
:1049D0007B606E4B1B68002B02D0012B0FD01DE0BB
:1049E000654B5B785A1C6B4B134004D5013B02228C
:1049F000524213430133DAB25F4B5A700EE05E4B02
:104A00009B785A1C634B134004D5013B022252424F
:104A100013430133DAB2584B9A70C0463B1C0F3334
:104A200001221A705C4B181CFEF7D2FE031C002BEF
:104A30000CD05A4B01221A604D4A4F4B101C0121D9
:104A40001A1CFEF7B5F9564B01221A60524B181C7E
:104A5000FEF7D6FE031C002B09D0504B00221A6033
:104A6000434A454B101C00211A1CFEF7A1F90023F4
:104A7000BB604A4B1B68002B01DD8023BB60484BA9
:104A80001B68002B01DDFF23BB60464B1B68002B1E
:104A900005DD424B1B68002B01D0FF23BB60414B5F
:104AA00000221A603E4B00221A60BB68DAB2334B18
:104AB0009A74324B9A7C334B9B7C9A4203D92F4B8E
:104AC0009A7C304B9A74384B1B68012B05D1364BBE
:104AD00000221A60002000F02DFA344B1B689BB2B4
:104AE000DB439AB2224B1A80304B5B689BB2DB43AC
:104AF0009AB21F4B5A802D4B9B689BB2DB439AB2F4
:104B00001B4B9A80294BDB689BB2DB439AB2184B54
:104B1000DA80264B1B699BB2DB439AB2144B1A8195
:104B2000224B5B699BB2DB439AB2114B9A81FFF730
:104B300041FE002001F04EFF031C1A1C1C4B101CF0
:104B4000191CFEF775FE3B1C0F331B78012B0DD192
:104B5000184B1B68092B09DDFFF7D2FD3B1C0F33F7
:104B600000221A70134B00221A60EAE6E9E6C046FA
:104B7000A4FDFF1F70FEFF1FA0FDFF1F90FCFF1F85
:104B800040FDFF1F7CFCFF1F3CFCFF1FB8FCFF1F0C
:104B900028FCFF1F0100008050FCFF1FBCFCFF1F12
:104BA000B4FCFF1FB0FCFF1F24FCFF1F58FEFF1FBB
:104BB00064FCFF1FA4FCFF1F80B582B000AF7860CB
:104BC0003960BD4602B080BD80B58AB000AFF860E4
:104BD000B9607A607B687B6204233B620323FB61DC
:104BE0000223BB6101237B6101233B61FA68BB683F
:104BF0009A4202D07B68002B00D14DE049E0FB696E
:104C0000BA68134018D1FB69FA68134014D13A6AA4
:104C10007B6A9A4210D8FB68BA6812681A603B6ACD
:104C2000FA68D318FB603B6ABA68D318BB603B6A6A
:104C30007A6AD31A7B622CE07B69BA68134018D178
:104C40007B69FA68134014D1BA697B6A9A4210D81A
:104C5000FB68BA6812881A80BB69FA68D318FB60CF
:104C6000BB69BA68D318BB60BB697A6AD31A7B6226
:104C70000FE0FB68BA6812781A703B69FA68D318BB
:104C8000FB603B69BA68D318BB603B697A6AD31A88
:104C90007B627B6A002BB2D1BD460AB080BDC046A4
:104CA00090B583B000AF2D4B002B00D153E0002313
:104CB0007B6032E029497A68131C5B009B189B00DB
:104CC000CB18586825497A68131C5B009B189B0019
:104CD0005958224C7A68131C5B009B189B00E31800
:104CE00008331B681A1CFFF76FFF1C497A68131CF6
:104CF0005B009B189B00CB18596818487A68131CF6
:104D00005B009B189B00C31808331B68081C191C08
:104D1000FFF752FF7B6801337B6010497A68131CF0
:104D20005B009B189B005B58002BC3D10B497A6832
:104D3000131C5B009B189B00CB185B68002BB9D140
:104D400006497A68131C5B009B189B00CB1808333C
:104D50001B68002BAED1BD4603B090BDD06F0000E4
:104D600080B588B000AF274A274BD31AFB61264B8A
:104D7000BB6104237B6103233B610223FB600123AE
:104D8000BB6001237B60FB69002B00D136E032E081
:104D90003B69BA6913400FD17A69FB699A420BD813
:104DA000BB6900221A607B69BA69D318BB617B6951
:104DB000FA69D31AFB611EE0BB68BA6913400FD1D0
:104DC000FA68FB699A420BD8BB6900221A80FB681B
:104DD000BA69D318BB61FB68FA69D31AFB610AE0B0
:104DE000BB6900221A707B68BA69D318BB617B6803
:104DF000FA69D31AFB61FB69002BC9D1BD4608B023
:104E000080BDC046ACFEFF1F04FCFF1F80B500AF95
:104E1000BD4680BD80B500AFBD4680BD80B582B0C7
:104E200000AF0E4B7B60FFF7F1FF00F001FE7B68E7
:104E3000181C002805D0854681B00020C043009092
:104E400001B0FFF78DFFFFF72BFFFFF7E3FF044BE8
:104E50000020191CFFF706FDFEE7C046000C0020ED
:104E6000C0FCFF1F80B500AF094B00221A80084B21
:104E700000225A80064B00229A80054B0022DA80DD
:104E8000034B00221A81024B00225A81BD4680BD8D
:104E900094FEFF1F80B500AF1F4B1B78DBB2002BC9
:104EA00038D01D4B1B78DBB2032B0BD01B4B0022E1
:104EB0001A701B4B00221A70FFF7D4FF194B002207
:104EC0001A701AE0164B1B78DBB2174AD35CDB432F
:104ED000DBB2124A1278D2B21340DAB20F4B1A7018
:104EE0000F4B1B78DBB21A1C104B52000021D15221
:104EF0000B4B1B78DAB20B4B1A700D4B1A68094B2F
:104F0000101C191C012200F0DDF9094B1B68181C4C
:104F100000F0B6F9BD4680BDE9FCFF1FF4FCFF1FA1
:104F2000E8FCFF1FECFCFF1F9C6F000094FEFF1FBE
:104F3000A0FEFF1F80B582B000AF021CFB1D1A70DF
:104F40000D4B1B78DBB2002B01D008230FE00A4B7E
:104F500001221A70FFF79EFFFB1D1B78002B05D066
:104F6000C046054B1B78DBB2012BFAD00023181C7E
:104F7000BD4602B080BDC046E9FCFF1F80B582B0CF
:104F800000AF021C3960FB1D1A70FB1D1B78052B3E
:104F900001D9022317E0FB1D1B780D4AD35C0D4A93
:104FA0001278D2B21340DBB2002B01D109230AE000
:104FB000FB1D1A78084B5200D35A9BB21B019AB2C0
:104FC0003B681A800023181CBD4602B080BDC04655
:104FD0009C6F0000F4FCFF1F94FEFF1F80B582B0A1
:104FE00000AF021CFB1D1A701A4B1B78DBB2002BA2
:104FF00001D0082329E0174B04221A70164B1B68B6
:10500000181C00F0C5F9144B1B68181C00F002FABC
:10501000FB1D1B78002B01D1002316E0C0460E4B70
:105020001B68181C00F0B4F9031C002BF7D00A4BC6
:105030001B68181C00F012FA031C002B04D0054B4F
:1050400000221A701B2300E00023181CBD4602B08A
:1050500080BDC046E9FCFF1FA0FEFF1F80B582B0E7
:1050600000AF7860354B1B78DBB2042B0AD1344B90
:105070001B68181C00F0F2F9304B00221A70FEF782
:10508000C7FA58E02D4B1B78DBB2032B36D02C4BE4
:105090001A682C4B1B78DBB259002B4BCB18101C19
:1050A000191C00F045F9274B1B78DBB20133DAB24B
:1050B000244B1A70234B1B78DBB2062B0BD1214BF0
:1050C00000221A70214B3F221A70FEF77DFA1B4B0B
:1050D00000221A702FE01B4B1B78DAB21C4B1A709F
:1050E000174B1A681A4B101C191C012200F0EAF821
:1050F000134B1B68181C00F0C3F81CE0104B1A6817
:10510000104B1B78DBB259000F4BCB18101C191C2D
:1051100000F00EF90B4B1B78DBB20E4AD25C0B4B46
:105120001B78DBB21343DAB2084B1A70FEF74CFA65
:10513000024B00221A70BD4602B080BDE9FCFF1F81
:10514000A0FEFF1FE8FCFF1F94FEFF1FF4FCFF1FE3
:10515000ECFCFF1F9C6F000080B500AF064B0022E7
:105160001A70064B00221A70002000F00BF8021C87
:10517000034B1A60BD4680BDF4FCFF1FE9FCFF1F16
:10518000A0FEFF1F80B584B000AF7860324BFB609B
:10519000FB687A685A60314BFA681A60FB68002233
:1051A0001A70FB6800229A702D4A2D492D4BCB585E
:1051B0008021090519432B4BD1502B4A2A49C3237F
:1051C0009B00CB581B021B0A802109061943C323ED
:1051D0009B00D150244B244A1268802109020A43C3
:1051E0001A60224B214A516B214A0A405A631F4BD5
:1051F0001E4A91681E4A0A409A601E4B1D4A116A57
:105200001B4A0A401A621B4B1A4A516A184A0A4042
:105210005A62164B154AD16A154A0A40DA62154B92
:10522000144A116B124A0A401A63134B57229A60B0
:10523000114B114AD2680F218A43DA600E4B0022CB
:105240001A620D4B40225A620C4BFA689A60FB6856
:10525000181CBD4604B080BDF8FCFF1F00FDFF1FF9
:10526000007004403C10000000E100E000A0044099
:10527000FFF8FFFE0090044000B0034040FDFF1F18
:1052800080B582B000AF78600D4B1A6A802313405E
:1052900001D0082310E00A4B094A526A48218A4388
:1052A0005A62074B064A126A40218A431A62044B2B
:1052B0007A6852781A600023181CBD4602B080BD7F
:1052C00000B0034080B586B000AFF860B960FB1D48
:1052D0001A70FB687B61FB1D1B78012B03D8FB1D3B
:1052E0001B78002B01D196231AE00F4B1A6A8023FA
:1052F000134001D0082313E07B69FA1D12781A705D
:10530000BB681B78052B01D9822309E0BB681B7899
:10531000064AD35C40221343DAB27B695A700023F9
:10532000181CBD4606B080BD00B00340A46F00004D
:1053300080B584B000AF786039603B68BB603B1CCF
:105340000F3300221A7015E03B1C0F331B785B00F3
:10535000BA68D3180D4A391C0F3109780431890015
:105360008A5892B21A803B1C0F331A783B1C0F33B9
:1053700001321A707B681B783A1C0F3212789A42FD
:10538000E2D30023181CBD4604B080BD00B003402A
:1053900080B584B000AF78607B68FB603B1C0A334B
:1053A000EFF3108072B61870184B1B78DBB2013324
:1053B000DBB2164A191C1170012B04D13B1C0A33B5
:1053C0001A78134B1A703B1C0B33FA6892781A70D8
:1053D000FB6800229A700D4B1B78DBB2013BDBB2FD
:1053E0000A4A191C1170002B03D1094B187880F35D
:1053F00010883B1C0B331B78002B01D0012300E0ED
:105400000023181CBD4604B080BDC04610FDFF1F20
:10541000AAFEFF1F80B582B000AF78600E4B1A6AFB
:105420008023134001D0082311E00B4B0A4A126A73
:1054300040218A431A62084B5F221A60064B064AD3
:10544000526AC0218A4380210A435A620023181CF1
:10545000BD4602B080BDC04600B0034080B584B0F8
:1054600000AF7860184B5A6A4023134001D01B23C9
:1054700025E0154BDB6CFB60134B9B6CFA68D31873
:10548000FB60114B5B6CFA68D318FB600E4B1B6C16
:10549000FA68D318FB600C4BDB6BFA68D318FB601F
:1054A000094B9B6BFA68D318FB60FB685B08802292
:1054B00012021343FB60044BFA68DA620023181CE3
:1054C000BD4604B080BDC04600B0034080B582B088
:1054D00000AF084B1B687B607B6801229A707B6879
:1054E0005B68181CFFF7BAFD034B1B69BD4602B091
:1054F00080BDC04600FDFF1F00B0034090B587B0DF
:1055000000AFF8607A603B1C0A330A1C1A803B1C0F
:10551000163300221A803B1C0A331B88002B04D14F
:105520007B6800221A80002381E0434B19683C1CF1
:105530001234FA683B1C0A331B88081C111C1A1C05
:10554000002300F0CFFF031C23803B1C12331B8879
:10555000082B01D10C236AE03B1C143300221A8073
:105560002DE0354B1B68181C00F0D6FD324B1B6834
:10557000181C01F061F8031C002B00D025E02E4B15
:105580001B68181C01F072F8031C3A1C16321288B2
:105590009A420DD03B1C1433012252421A80264BF2
:1055A0001B683C1C1634181C01F060F8031C238097
:1055B0003B1C14331A883B1C143301321A803B1CE9
:1055C00014331A881D4B9A42CBD91B4B1B68181CED
:1055D00001F04CF8031C1A1C7B681A80164B1A68E1
:1055E0003B1C1033101C191C01F09CF93B1C1033A0
:1055F0001B88002B11D03B1C10331B881A1C08235E
:10560000134001D0082312E03B1C10331B881A1CE6
:105610000423134001D0152309E03B1C14331A88DE
:10562000FA23DB009A4201D10C2300E00023181C6E
:10563000BD4607B090BDC046A4FEFF1FCF070000C7
:1056400090B589B000AFF8607A603B1C0A330A1C41
:105650001A803B1C1E3300221A803B1C0A331B8815
:10566000002B04D17B6800221A800023A2E0534B58
:1056700019683C1C1A34FA683B1C0A331B88081C46
:10568000111C1A1C012300F0FBFF031C23803B1C90
:105690001A331B88082B01D10C238BE03B1C1C33D5
:1056A00000221A802DE0454B1B68181C00F034FDC9
:1056B000424B1B68181C01F08DF8031C002B00D016
:1056C00025E03E4B1B68181C01F0A2F8031C3A1C95
:1056D0001E3212889A420DD03B1C1C3301225242CA
:1056E0001A80364B1B683C1C1E34181C01F090F8C5
:1056F000031C23803B1C1C331A883B1C1C330132C7
:105700001A803B1C1C331A882D4B9A42CBD92B4B49
:105710001B68181C01F07CF8031C1A1C7B681A809B
:10572000264B1A683B1C1833101C191C01F0FAF8A0
:105730003B1C18331B88002B11D03B1C18331B88D3
:105740001A1C0823134001D0082333E03B1C1833F4
:105750001B881A1C0423134001D015232AE03B1C8C
:105760001C331A88FA23DB009A4201D10C2321E072
:105770003B1C1C3300221A8015E0104B1A683B1C9E
:105780001733101C191C01F0E1F83B1C17331B7870
:10579000012B01D100230DE03B1C1C331A883B1C5C
:1057A0001C3301321A803B1C1C331A88044B9A426A
:1057B000E3D90C23181CBD4609B090BDA4FEFF1F01
:1057C000CF07000080B582B000AF184B174A92781F
:1057D000D2B220218A43D2B29A70144B134A9278E3
:1057E000D2B210218A43D2B29A70BB1DFA22D200E3
:1057F0001A8011E00E4B1A687B1D101C191C01F059
:10580000A5F87B1D1B78012B01D1002309E0BB1DEE
:105810001A88BB1D013A1A80BB1D1B88002BE9D1D9
:105820000C23181CBD4602B080BDC0460060064077
:10583000A4FEFF1F80B582B000AF021CFB1D1A70D2
:10584000094B1A68FB1D1B7899B27F230B409BB252
:10585000101C00211A1C00F0E5FF031CDBB2181C11
:10586000BD4602B080BDC046A4FEFF1F80B500AF9C
:10587000002000F0C5FD021C014B1A60BD4680BD32
:10588000A4FEFF1F80B584B000AF7860104BFB60B2
:10589000FB687A681A600F4B0E4A526940210A432E
:1058A0005A610C4B0B4A126840218A431A600A4B1A
:1058B000094A9169094A0A40802149000A439A61CC
:1058C000074BFA681A62FB68181CBD4604B080BD1D
:1058D00004FDFF1F40F00F4000A00440FFF8FFFE52
:1058E00040FDFF1F80B582B000AF7860024B4022C0
:1058F0009A60BD4602B080BD40F00FF880B582B01E
:1059000000AF7860024B40225A60BD4602B080BDB5
:1059100040F00FF880B584B000AF78601A4BFB60A0
:10592000FB687A681A60194BFA681A60184B184AB3
:105930005168184A0A40802149000A435A60144BB2
:10594000134A5168144A0A4014490A435A60144AD7
:105950001349C7239B00CB581B021B0A8021090651
:105960001943C7239B00D1500D4B0D4A126880216B
:1059700009060A431A600B4BFA681A61FB68181C87
:10598000BD4604B080BDC04608FDFF1F0CFDFF1FD3
:1059900000A00440FFF8FFFEFFFFF0FE00000B0137
:1059A00000E100E040FDFF1F80B582B000AF0C4B6E
:1059B0001B687B600B4B5A6880235B0413400BD041
:1059C000084B084A5268802149040A435A607B68A0
:1059D0001B68181CFDF720FEBD4602B080BDC04606
:1059E0000CFDFF1F00A0044080B582B000AF7860BE
:1059F000054B1A690223134001D0012300E0002364
:105A0000181CBD4602B080BD40F00F4080B500AF0D
:105A1000FFF7CAFFBD4680BD80B500AFFDF7CAFDE8
:105A2000BD4680BD80B500AFFFBEBD4680BDC0464F
:105A300080B500AF324A3349334BD150334A8823C3
:105A40005B010021D150314A314BC0218902D15034
:105A50002E4A2E492F4BCB58C021C90019432D4B3C
:105A6000D1502D4B9B78DBB21A1C0823134007D072
:105A7000294B294A9278D2B208210A43D2B29A70AD
:105A8000224A234B80214902D150204A1F49234BEF
:105A9000C958234B0B408021490419431F4BD15057
:105AA000204B06221A701F4B1E4A5278D1B2402258
:105AB0000A40D2B25A701B4B1A4AD278D2B2D2B232
:105AC000111C1F220A40D2B2602149420A43D2B2BD
:105AD000D2B2DA70144B80221A70C046114B9B79F7
:105AE000DBB21A1C10231340F8D0C0460D4B9B7933
:105AF000DBB21A1C0C231340F8D1BD4680BDC04652
:105B000000E000E000200000080D000000700440EC
:105B1000441000003810000000D0074004100000BE
:105B2000FFFFFFFC004006400050064080B500AF7C
:105B3000514B514A5279D2B21F218A43D2B25A7183
:105B40004D4B4D4A1279D2B207218A43D2B21A7113
:105B50004A4B4A4A1278D2B2D2B273218A43D2B2A5
:105B600050210A43D2B2D2B21A70444B434A5278FF
:105B7000D2B2D2B263218A43D2B240210A43D2B216
:105B8000D2B25A703D4B3D4A9278D2B219218A4323
:105B9000D2B29A703A4B00221A703A4B394AD16805
:105BA000394A0A4002210A43DA60364B354A116904
:105BB000354A0A4002210A431A61324B314A116BBD
:105BC000314A0A4002210A431A63304A2F49C72347
:105BD0009B00CB581B04190CC7239B00D1502C4BA6
:105BE0002B4A526902218A435A612A4B294A916AF7
:105BF000254A0A4002210A439A62224B214A5168EF
:105C0000254A0A40C02189000A435A601F4A1F4999
:105C1000C1239B00C958214B1940C1239B00D1507F
:105C2000002001F0E9F8FFF797FA00F02FFF0020BD
:105C300000F036F80020FFF76DFE002000F05EFF58
:105C4000002000F0DBFE002000F072F80020FFF7DB
:105C500019FE002000F0D0FF002000F08FFF00F0C0
:105C60002FFF002000F08CFEFFF700FE00F00CFA82
:105C700062B6BD4680BDC04600F0074000D0074078
:105C800000E0074000900440FDFFFFFE00E100E05F
:105C900040F00F4000A00440FFF8FFFEFFFF00FFB0
:105CA00080B584B000AF7860104BFB60FB687A6809
:105CB0001A600F4B0E4A526920210A435A610C4B5D
:105CC0000B4A126820210A431A600A4B094A51699B
:105CD000094A0A40802149000A435A61074BFA6881
:105CE000DA60FB68181CBD4604B080BD14FDFF1FC0
:105CF00000F00F4000900440FFF8FFFE40FDFF1F42
:105D000080B582B000AF7860024B20229A60BD4619
:105D100002B080BD00F00FF880B582B000AF7860AF
:105D2000024B20225A60BD4602B080BD00F00FF841
:105D300080B584B000AF7860104BFB60FB687A6878
:105D40001A600F4B0E4A526980210A435A610C4B6C
:105D50000B4A126880218A431A600A4B094AD169AA
:105D6000094A0A40802149000A43DA61074BFA6870
:105D7000DA61FB68181CBD4604B080BD18FDFF1F2A
:105D800040F00F4000A00440FFF8FFFE40FDFF1F61
:105D900080B582B000AF7860024B80229A60BD4629
:105DA00002B080BD40F00FF880B582B000AF7860DF
:105DB000024B80225A60BD4602B080BD40F00FF811
:105DC00090B585B000AF0A1CBB1D011C19807B1D5E
:105DD0001A70BB1D1B881B0A9BB2DBB21A1C07235F
:105DE0001340DBB250221343DBB2DBB23C1C0F3456
:105DF000181C00F0B7F8031C23703B1C0F331B78F2
:105E0000002B05D000F0C4F83B1C0F331B7846E094
:105E1000BB1D1B88DAB23B1C0C331A703B1C0C33C5
:105E20007A1D12785A703C1C0F343B1C0C33181C22
:105E30000221002200F0EAF8031C23703B1C0F3300
:105E40001B78002B05D000F0A3F83B1C0F331B7808
:105E500025E03B1C0C33FF221A70002001F06EF885
:105E60003C1C0F343B1C0C33181C01210022642302
:105E700000F00EF9031C23703B1C0F331B78002B22
:105E8000EBD13B1C0F331B78002B05D000F080F8C2
:105E90003B1C0F331B7802E000F07AF8031C181C3F
:105EA000BD4605B090BDC04690B585B000AF021CA0
:105EB0003960BB1D1A80BB1D1B88DAB23B1C0E3338
:105EC0001A70BB1D1B881B0A9BB2DBB21A1C07236E
:105ED0001340DBB250221343DBB2DBB23C1C0F3465
:105EE000181C00F03FF8031C23703B1C0F331B7879
:105EF000002B05D000F04CF83B1C0F331B782DE035
:105F00003C1C0F343B1C0E33181C0121012200F0F5
:105F10007DF8031C23703B1C0F331B78002B05D02E
:105F200000F036F83B1C0F331B7817E03C1C0F3495
:105F30003B68181C0121002200F030F8031C23707C
:105F40003B1C0F331B78002B05D000F021F83B1CC5
:105F50000F331B7802E000F01BF8031C181CBD4631
:105F600005B090BD80B582B000AF021CFB1D1A7059
:105F7000FB1D1B78181CFFF75DFC031C002B01D0D8
:105F80001B2300E00023181CBD4602B080BDC046A4
:105F900080B500AF0023181CBD4680BD90B585B00C
:105FA00000AF7860BB1C19807B1C1A703B1C0F3340
:105FB00000221A703C1C0F347968BB1C1A883B1CE9
:105FC0000C33081C111C1A1CFFF73AFB031C23702E
:105FD0003B1C0F331B78002B00D010E07B1C1B7880
:105FE000002B0BD13C1C0F34FFF7ECFB031C237080
:105FF0003B1C0F331B78002B00D000E0C0463B1C3D
:106000000F331B78181CBD4605B090BD90B585B008
:1060100000AF7860BB1C19807B1C1A703B1C0F33CF
:1060200000221A703C1C0F347968BB1C1A883B1C78
:106030000C33081C111C1A1CFFF760FA031C237098
:106040003B1C0F331B78002B02D0FFF7BBFB14E087
:106050007B1C1B78002B03D07B1C1B78022B0BD1E5
:106060003C1C0F34FFF7AEFB031C23703B1C0F33AB
:106070001B78002B00D000E0C0463B1C0F331B7880
:10608000181CBD4605B090BD80B500AFBD4680BDB3
:1060900090B587B000AFF860081C111C1A1C3B1C9F
:1060A0000A3318803B1C09331970BB1D1A803B1C36
:1060B000173300221A703C1C1734F9683B1C0A3352
:1060C0001A883B1C1433081C111C1A1CFFF716FA03
:1060D000031C23703B1C17331B78002B02D0FFF7E7
:1060E00071FB11E03B1C09331B78002B0BD13C1CCE
:1060F0001734FFF767FB031C23703B1C17331B7817
:10610000002B00D000E0C0463B1C17331B78181C46
:10611000BD4607B090BDC04690B585B000AF786071
:106120007B68BB603B1C0E3300221A80B34BDB78CC
:10613000DBB21A1C0223134000D15BE1AF4BDB78CA
:10614000DCB2AE4BAD4AD278D2B2D2B212218A437F
:10615000D1B2E2B20A43D2B2D2B2DA70A74B9B7884
:10616000DBB21A1C2023134000D111E1A34B9B7812
:10617000DBB21A1C1023134000D1C0E0221C012303
:1061800013402CD09D4B9D4A9278D2B220218A4355
:10619000D2B29A70994B994A9278D2B210218A431E
:1061A000D2B29A70BB6800221A82BB6800221A81A0
:1061B000BB681B7801229343DAB2BB681A70BB68D4
:1061C0001B7806221343DAB2BB681A703B1C0E33ED
:1061D0003A1C0E32128808210A431A80FCE0BB6880
:1061E0001B781A1C0223134000D17CE0BB681B8A79
:1061F000002B14D0BB681B8A013B9AB2BB681A8281
:10620000BB685B8A01339AB2BB685A827B49BB6820
:106210005B69581CBA6850611B780B71DCE0BB6885
