:10000000000C0020B50F0000491300005113000040
:100010005113000051130000511300005113000050
:100020005113000051130000511300005113000040
:100030005113000051130000511300005113000030
:100040005113000051130000511300005113000020
:100050005113000051130000511300005113000010
:100060005113000051130000511300005113000000
:100070005113000051130000511300001D12000025
:1000800051130000AD1C000051130000511300007B
:1000900051130000511300005113000051130000D0
:1000A00051130000511300005113000051130000C0
:1000B00051130000511300005113000051130000B0
:10040000FFFFFFFFFFFFFFFFFFFFFFFF7EFBFFFF81
:1004100010B5064C2378002B07D1054B002B02D0DA
:10042000044800E000BF0123237010BD84FCFF1FBF
:10043000000000008C1E000008B5084B002B03D004
:100440000748084900E000BF07480368002B03D0B5
:10045000064B002B00D0984708BDC04600000000A6
:100460008C1E000088FCFF1F84FCFF1F00000000A2
:10047000164B002B00D1144B9D46402292029A1A33
:10048000924600218B460F461348144A121A01F077
:10049000CAFC0F4B002B00D098470E4B002B00D00E
:1004A00098470020002104000D000D48002802D0CC
:1004B0000C4800E000BF01F087FC2000290000F09C
:1004C000C1FC01F06BFCC04600000800000C0020DD
:1004D000000000000000000084FCFF1F3C0400201E
:1004E0000000000000000000002941D010B4041CEE
:1004F0004C40A44601230022002900D5494200288F
:1005000000D5404288422CD301242407A14204D2C2
:10051000814202D209011B01F8E7E400A14204D2A2
:10052000814202D249005B00F8E7884201D3401AB9
:100530001A434C08A04202D3001B5C0822438C08DB
:10054000A04202D3001B9C082243CC08A04202D345
:10055000001BDC082243002803D01B0901D0090935
:10056000E3E7101C6446002C00D5404210BC7047E5
:10057000002806D003DB0020C043400801E08020B3
:10058000000607B4024802A14018029003BDC0460D
:10059000190000000029EBD003B5FFF7A7FF0EBC40
:1005A0004243891A1847C0467047C04680B500AF1D
:1005B00072B6024A024B0349D150FEE700E000E068
:1005C0000C0D00000400FA050A4B70B5151C0A4A10
:1005D0000E1CC118041C002091420AD8201C01F0F6
:1005E00005F8301C211C2A1C01F02EF8002800D030
:1005F0001B2070BD00E0FFFFFF5F000010B58024EE
:10060000A401201C00F0F2FF002807D18023DB00AA
:10061000E41880231B029C42F3D100E01B2010BD94
:10062000024B18694005C00F7047C04640F00F40AC
:1006300037B50023084C0193019DFFF7F1FF013C02
:1006400045190195002CF7D1019BFA2040009842F2
:10065000804140423EBDC046102700000E4A0F4B6D
:10066000C021D058C900014310B5D1500C4B0D4AE0
:1006700059690A405A610C4B0422FF329A620B4BB3
:100680001C68FFF7D5FF631E033303D8012801D18F
:1006900072B6A04710BDC04600700440381000007C
:1006A00040F00F40FFFBFFFF00A0044004200000CB
:1006B00010B5C0438A1891420ED00B7858400823D9
:1006C000012404404008002C01D0044C6040013B50
:1006D000002BF5D10131EEE7C04310BD783BF68227
:1006E000114B70B51968072461430918C9101960C6
:1006F0000E4A0F4B15681E68654374436D186118E8
:10070000ED10C91015601960A84200DA1060884227
:1007100000DD186019681368C9184910411A0548A6
:1007200000F0D4F970BDC04608FCFF1F00FCFF1F9D
:1007300004FCFF1F84FDFF1F08B5024800F0B4F958
:1007400008BDC04684FDFF1F411808788B7800065D
:100750001B02C018CB78C0184B781B04C018704718
:1007600030B50023934205DAC55CCC5CA54203D1C9
:100770000133F7E7012000E0002030BDB34BF7B5AF
:10078000161C1A680C1C3C321A60B14A00215156E2
:10079000002900DD58E18B2C01DD00F08FF9AD4D13
:1007A000AB490122631C2E550A702C1C0C2B00D166
:1007B00096E0882B03D0082B00D042E147E0281CAC
:1007C000A5490322FFF7CCFF002800D139E103251A
:1007D0006557072D37D8A14F3E68002E33D104212D
:1007E000201CFFF7B1FF211C01900831301C802232
:1007F000FFF75EFF019B83421DD1E901A219984BCF
:10080000127ACB189A550136802EF7D1954B0122DA
:100810005A55954AFF201368013313605843934B90
:100820001968C900FFF760FEC0B200F09FFA904B54
:1008300086490B6007E08B4B02225A5501223A6031
:100840008C4B8B4A1A608C4800F038F9F9E0281C70
:100850008A490422FFF784FF00280ED0281C0421B7
:10086000FFF772FF864B984204D1FFF7C7FE7B4B20
:1008700002221A60804800F021F9201C81490422DC
:10088000FFF76EFF002805D0744B1B68002B01D1C9
:10089000FFF78CFE201C7C490422FFF761FF002833
:1008A00000D1CEE0794B00221A606E4900235354E8
:1008B0000132082AF9D1764A00259D540133182BBC
:1008C000F9D1201C0421FFF73FFF684B1860714BE2
:1008D0001D60624B1D60644B1D6000F04DFAB0E07E
:1008E000281C6D490422FFF73BFF00281AD0287905
:1008F0006B79AE7A00021818A979EC792B7A6A7AAA
:10090000ED7A3602AD1980B2ADB2A8421FD109020C
:100910001B026118D31889B29BB2994217D100F01B
:1009200004FA8EE0281C5D490422FFF719FF041E1B
:1009300016D02879AA7A6B79EC7A0002120218187C
:10094000A21880B292B2E9796B7A904202D000F09C
:1009500023FA76E0C9B29942F9D100F068F970E063
:10096000281C4F490422FFF7FBFE002869D0281CF1
:100970000421FFF7E9FE0821061C281CFFF7E4FE0E
:10098000374D80220190291C201CD200FFF790FED9
:100990002F1C231C334AA15C01344A1E51424A4198
:1009A0009B18082CF6D12D4C394D082B2DD1019BCD
:1009B00098422AD12168002927D180229201B018BB
:1009C0008022391CD200FFF7FFFDB60A1B280BD18D
:1009D00000F0E2F92D4B1A6801321A6023680133E6
:1009E00023600223AB550EE02A4A136801331360DB
:1009F0001E4A12689A4201D1FFF7D8FD0123AB5578
:100A00001249284B0B6000220CE0204BB60A1A68F2
:100A100001321A602368013323600223AB5500F0D2
:100A2000BBF9F0E70F4900238B540132082AF9D1B2
:100A3000FA180021117001338022D2009342F7D1BD
:100A400001E7034A00231370F7BDC046C0FCFF1F37
:100A5000D4FCFF1FA0FDFF1F3C1E0000CCFCFF1FAD
:100A60002CFEFF1FA0FCFF1FD8FCFF1FD0FCFF1FA8
:100A7000204E0000C4FCFF1F84FDFF1F401E00002D
:100A800039050000451E00004A1E0000DCFCFF1F67
:100A9000A8FCFF1FC8FCFF1F4F1E0000541E0000D3
:100AA000591E000050C3000000230360436007226A
:100AB0000361C36002238260436170470723836040
:100AC0000023036102234361704700004268C8238A
:100AD000013270B55B00041C0E1C42609A4201DDBD
:100AE000022343612368002B73DC002E71DD012A91
:100AF0006DDD01231F2A00DC00236269022A04D075
:100B0000032A13D0012A62D13BE0E2685100FF22A0
:100B10000A40002B00D00132E260E368022B56D17C
:100B20000322A36100236261A36050E0E2685100E8
:100B3000FF220A40002B00D00132E260A268264B5F
:100B40000132134004D50822013B524213430133C2
:100B5000A360002B3BD1A269E368022A02D1991E4F
:100B600001290CD9002B08DD591C8A4205D1012B23
:100B700005D100226361226101E002226261A3616A
:100B800025E0E2685100FF220A40002B00D001322C
:100B9000A568114B0135E2601D4004D50823013DD5
:100BA0005B421D430135A560002D10D1227B201C26
:100BB0002169FFF7E3FD2369013323618B2B01DCFE
:100BC000A56004E00723A36002232561636100237D
:100BD0006360266070BDC0460700008070477047A4
:100BE000704708B5002000F01DFA08BD13B56C462B
:100BF0000634201C00F02CFA094A208813680949A1
:100C00009C006050084901330B4004D54021013B52
:100C100049420B4301331360FFF762FD13BDC04629
:100C2000E0FCFF1F2C0300203F000080704708B548
:100C300000F042FC08BD0000044B20211A680A4362
:100C40001A60C046C046C046C046704700F00F401C
:100C5000054B20211A688A431A60C046C046C04628
:100C6000C046C0467047C04600F00F40044B01210B
:100C70001A680A431A60C046C046C046C04670475C
:100C800040F00F40044B01211A688A431A60C046A5
:100C9000C046C046C046704740F00F40044B80211C
:100CA0001A680A431A60C046C046C046C04670472C
:100CB00000F00F40044B80211A688A431A60C04636
:100CC000C046C046C046704700F00F40084A802327
:100CD0005B005361D361074AA0211360064B5A6938
:100CE0000A435A61054B01215A690A435A61704708
:100CF0000090044000A0044000F00F4040F00F407E
:100D000038B5051C0724FFF7BDFF0123A3402A1CAB
:100D10001A409A4202D1FFF7C1FF01E0FFF7CAFF74
:100D2000FFF7A4FF013CEED238BD38B50005C02561
:100D3000000DAD0105430C1CFFF78AFF280AFFF7E1
:100D4000DFFFE8B2FFF7DCFF2405FFF775FFB023F4
:100D50001B02240D1C43FFF77BFF200AFFF7D0FF87
:100D6000E0B2FFF7CDFFFFF767FF38BD014B18700A
:100D70007047C046FDFCFF1F044A00231370044A5D
:100D80001370044B01221A707047C046FDFCFF1F10
:100D9000FCFCFF1FFBFCFF1F024B1A7801321A708C
:100DA0007047C046FCFCFF1F024B20211A680A4313
:100DB0001A60704740F00F40024B20211A688A43A6
:100DC0001A60704740F00F40024B40211A680A43F6
:100DD0001A60704740F00F40024B40211A688A4366
:100DE0001A60704740F00F40024B80211A680A4396
:100DF0001A60704740F00F40024B80211A688A4306
:100E00001A60704740F00F4010B5FFF7D5FF00247F
:100E10000A4B0B4AE35CD35C002B02D0FFF7E4FFE4
:100E200001E0FFF7E9FF0134FFF7D6FFFFF7CCFF42
:100E3000172CEDD1FFF7B8FF10BDC0460CFCFF1F0B
:100E4000E4FCFF1FF8B5FFF709FC00F0D9FA334BBB
:100E5000802252005A619A61DA61314BE0215A696D
:100E600000250A435A61FFF731FFFFF765FC0135A2
:100E700000232C4C00261E550133172BF9D12A4B89
:100E80002A4F5B690122FB18DB7CE254284BFA21D4
:100E900098590901FFF728FB0D210830FFF77AFB6D
:100EA00022480122435C0436E254802393409E4250
:100EB000ECD1204B1B7893422DD100220023A35468
:100EC0000132102AFAD11C4A1278934208DA0D2115
:100ED000594316480912415C012060541B18F4E77D
:100EE000164B1B78002B16D0C821281C4900FFF791
:100EF000FBFA0123061C1E400DD1281CC821FFF758
:100F0000F3FA3F78331C19180122114200D1E2553F
:100F10000133102BF7D1FFF777FFA8E700A00440BB
:100F200040F00F40E4FCFF1F84FDFF1F0CFCFF1F7F
:100F30002C030020FBFCFF1FFDFCFF1FFCFCFF1F20
:100F400010B588421BD0002A19D0031C0B439C0704
:100F500005D1032A03D908C9043A08C0F3E7DC071E
:100F600007D4012A05D90B88023A038002310230E6
:100F7000E9E70B78013A037001310130E3E710BD76
:100F800010B50024094AA3181968002906D01219BF
:100F900050689268FFF7D4FF0C34F3E758680028D4
:100FA000F5D19B68002BF2D110BDC046381F000060
:100FB000704770470B4B181C002805D0854681B040
:100FC0000020C043009001B0FFF7F2FF00F0C2F92B
:100FD000054B002B01D0FFF7D3FFFFF7EAFFFFF728
:100FE00047FAFEE7000C0020381F000010B5094B3F
:100FF0001B78002B0CD0084A084C094900231370B9
:101000000B702068012200F0C5F8206800F0AAF8F3
:1010100010BDC04600FDFF1FFEFCFF1F3004002076
:10102000FFFCFF1F70B5094C061C25780820EDB2A7
:10103000002D0AD101232370FFF7D8FF281C002EB2
:1010400003D02378012BFCD0002070BD00FDFF1FD2
:10105000054B1A780923002A04D0044B1B881B0176
:1010600003800023181C7047FEFCFF1F2C04002087
:1010700010B50C4C0C4B22781868042A06D100F0ED
:10108000B1F800232370FFF7D1FD09E0074900F014
:1010900097F8074B01221A70FFF7A8FD0023237071
:1010A00010BDC04600FDFF1F300400202C040020AE
:1010B000FEFCFF1F08B5054B00201870044B18708C
:1010C00000F00AF8034B186008BDC046FEFCFF1F85
:1010D00000FDFF1F30040020194B1A4A30B50021D3
:1010E000586013601848194A1970997085588024FF
:1010F00024052C438450164AC320800015588024B0
:101100002D022D0A24062C4314501468802000025E
:10111000204310600F4A1048546B204050630F4A20
:1011200017209060D0680F24A04301242043D06092
:101130001162402151620A4A181C136030BDC0463A
:1011400008FDFF1F04FDFF1F007004403C1000005D
:1011500000E100E000A00440FFF8FFFE00B0034003
:1011600054FDFF1F0A4B8022196A10B51140082256
:1011700000290AD15A6A4824A2435A621A6A4024B2
:10118000A2431A6242781A600A1C101C10BDC046A5
:1011900000B0034030B59623012A0CD1074B1C6ADE
:1011A0000823250607D402700A788223002A02D178
:1011B00050234370131C181C30BDC04600B00340C0
:1011C00010B5002302789A4208D91C1D044AA400D5
:1011D000A4585A0001335452DBB2F3E7002010BD8B
:1011E00000B003400C4B4022596A10B50A401B2046
:1011F000002A10D1D96C986C4018596C4018196CA1
:101200004018D96B9C6B40180019802140080902D6
:101210000143D962101C10BD00B0034008B5054B56
:1012200001221B689A705868FFF722FF024B1B6966
:1012300008BDC04604FDFF1F00B00340F7B50B1CFE
:10124000041C161C002901D131803AE01E4D1A1CE5
:101250002868211C002300F02BFC082801D10C2059
:1012600030E00024271C286800F036FB286800F0D6
:101270006DFC00280ED1286800F070FC874204D075
:10128000286800F06BFC114C071C0134104BA4B211
:101290009C42E8D9286800F061FC308028686D46DF
:1012A0000635291C00F092FC2B88002B05D0082065
:1012B000034207D115205A0704D4FA23DB009C42CD
:1012C000CDD00020FEBDC04634040020FFFF00004A
:1012D000CF07000037B50E4B20219A78FA248A43B5
:1012E0009A709A7810218A439A70E400094B6D46EF
:1012F00007351868291C00F06FFC2B78012B05D0EE
:10130000013CA4B2002CF1D10C2000E000203EBD35
:10131000006006403404002008B5054B7F221B689E
:1013200002400021181C00F01BFCC0B208BDC046E2
:101330003404002008B5002000F078FB014B186051
:1013400008BDC0463404002008B5FFF749FC08BDBD
:10135000FFBE70471F4B204A204910B5D150204B8B
:1013600088220021520199501E48C02292021A5030
:101370001D4AC0219C58C900214399501B4A08218D
:1013800094780C4202D094782143917080225202CA
:101390001A50174A174998580140802040040143C9
:1013A0009950154B06221A70597840220A405A70FB
:1013B000D9781F220A40A0210A43DA700F4A8021FF
:1013C00011709A79D106FCD599790C221142FBD182
:1013D00010BDC046080D000000E000E00000000065
:1013E00000700440441000003810000000D0074096
:1013F00004100000FFFFFFFC0040064000500640C4
:1014000010B5244B1F215A7900248A435A711A7946
:1014100007218A431A71204B73211A788A4350217D
:101420000A431A705A7863218A4340210A435A704A
:101430009A7819218A439A70184BC7221C70184B4E
:101440009200995889B29950164A1749D06A0140BA
:1014500002200143D162154A154950680140C0205D
:10146000800001435160C122920098581149014007
:101470009950FFF71FFE201C00F030FC00F0A2F88E
:1014800000F0B4FB00F0BCFBFFF754FF00F059F88C
:1014900062B610BD00F0074000D0074000E00740F2
:1014A00000E100E000A00440FDFFFFFE00900440CA
:1014B000FFF8FFFEFFFF00FFF7B5061C40055023B5
:1014C000400F18430F1C00F020F8051E09D101AC95
:1014D0002A1C201C02212670677000F01FF8051ED0
:1014E00003D000F019F8281C0EE0FF23237005201C
:1014F00000F046FC201C01210022642300F022F8A9
:101500000028F4D100F008F8FEBD08B5FFF704FF8D
:10151000002800D01B2008BD0020704737B5151CDF
:101520006A460632FFF78AFE041E02D0FFF7D2FE9B
:1015300005E002239D4302D1FFF7CCFE041C201CD2
:101540003EBD704737B5151C6A460632FFF776FE7A
:10155000041E02D0FFF7BEFE04E0002D02D1FFF70B
:10156000B9FE041C201C3EBDF7B5124C84462778FA
:101570000191131C251C0820002F1AD10E4A0521A9
:101580000E4E11600122227030686146019A00F00F
:10159000A3F8002808D1306800F0E2F82B78002B7F
:1015A000F9D1074B187803E02770892800D1022071
:1015B000C0B2FEBD18FDFF1F14FDFF1F1CFDFF1F65
:1015C00010FDFF1F08B5002000F06AF8044B002250
:1015D0001860044B1A70044B01221A7008BDC046F3
:1015E0001CFDFF1F18FDFF1F11FDFF1FF8B5124C5A
:1015F000011C2578261C0820002D1CD10F4B02222F
:101600000F4F1A60890A8022012389023868D200AC
:10161000237000F07FF8002808D1386800F0A0F8A7
:101620003378002BF9D1074B187803E0257089280F
:1016300000D10220C0B2F8BD18FDFF1F14FDFF1F2E
:101640001CFDFF1F10FDFF1F08B5FFF78DFF08BD34
:10165000024A00231370024A1370704710FDFF1FE7
:1016600018FDFF1F1FB50A4A00231370094A694677
:101670001360094B186800F01BF969468A78074B1C
:10168000D10601D5162200E003221A7005B000BD74
:1016900018FDFF1F14FDFF1F1CFDFF1F10FDFF1F86
:1016A000094B022210B55A700022DA701A70DA6003
:1016B0000649074A58618858012420438850054A42
:1016C000181CD36010BDC04620FDFF1F00700440F1
:1016D0003C10000054FDFF1F70B54578041C082025
:1016E000022D14D80A4D5E1E8920AE420FD88025E7
:1016F0002D02ED1AAA420AD8022020700420607040
:101700000620A0700020A360E1602261606070BDCF
:10171000FF7F000030B54478031C0820022C1BD842
:101720000E4C551E8920A54216D880242402A41AE6
:10173000A14211D80C1C1443A405A40D0CD19A602D
:1017400080220320D20018705A60042009225870A9
:10175000DC6019619A70201C30BDC046FF7F00001C
:10176000F0B5012391B05B420393002304934578C5
:10177000EA1E022A00D992E04A490C780A1C64B297
:101780009C4200DB8BE07024042D02D10C70C370EE
:1017900013E00978C57821402943C17004D0437013
:1017A0004069FFF75FFF7AE08168002905D10223D5
:1017B00043704069FFF74CFF71E00378991E0129DF
:1017C0006DD8147870210C4269D14178042902D176
:1017D0000521417009E0056941686C1804615C1ECF
:1017E000012C02D8C6687118C160022B06D0032BE9
:1017F00035D1876841687B1A836032E00369856868
:101800000093009C032323400424E41AE4B2A5427D
:1018100000D2ECB20021CEB2A6420AD2C76803AE13
:101820007F5CF618775404AEF618FF277754013121
:10183000F1E70099039ECF1A3968049FC9433740E6
:10184000394204D0C37804221343C37027E04460B4
:101850002C1B8460144C71400391216002E0012B29
:101860001DD000238178D1710469E11AC9B21171C8
:10187000056905ACE91A090AC9B251710169201C50
:10188000CB1A1B0CDBB293710849282200F0C2FA74
:10189000FFF7A4F901231C43A047FFF7A0F911B0FB
:1018A000F0BDC04600000240080002405E1E00007D
:1018B00038B5051C0C1CFFF791F92B782370AB7819
:1018C0006370EB78A3702B696360EB686D68A3604D
:1018D000E560FFF784F938BDF0B5534B0227D9789E
:1018E0001A1C394200D19EE0DE78D9781224A14337
:1018F000F6B23143D9709D78202425401021002D67
:1019000000D180E09D780D4256D001252E420FD0A7
:101910009A78A2439A709A788A439A700023038235
:10192000038103780622AB4313430370082377E057
:1019300006783E423AD0078A002F0AD0428A013FF9
:101940000132428242690782511C416112781A7148
:1019500069E00789002F1BD004210E420ED0082316
:101960009178012F01D10B4301E099430B1C937037
:10197000937810218B439370137954E09A780A433B
:101980009A70C27915431D710378194301704AE0BA
:101990008278AE430670012A05D19A78A2439A70E4
:1019A0009A788A439A704378012229E082791A71E1
:1019B00003781F43077036E003894189013B9BB2DE
:1019C000013103814181002B05D0012B0ED1937889
:1019D00008210B4309E0037801218B4303709378BE
:1019E0000821A343937093788B439370C368591C69
:1019F000C16012791A700389002B14D14378022236
:101A0000134343700FE00E420DD00478012294433B
:101A100005820581827004709A788A439A70042343
:101A2000828813438380F0BD00600640194B20225A
:101A300070B51A7010229A71012298619A70164836
:101A4000002216495A70445840252C435A811A8165
:101A50005A821A829A804450114950208A708871A3
:101A60000220C8700F48104D066980242E40A40043
:101A700026430661C66835402C43C4604A718A71AA
:101A80003A224A708878802202438A70074A181CDA
:101A9000136170BD38FDFF1F00700440341000005A
:101AA0000060064000A00440FFF8FFFE54FDFF1F49
:101AB000F0B5002A01D1002443E08578012D0BD137
:101AC000214CE6780824B7063BD406782E4238D15C
:101AD000048A002C34D104E005780824EE0730D4C1
:101AE000F6E70578012683703543174B4161057091
:101AF000448202829A7810210A439A7099782022AF
:101B0000114202D09A78042100E099780A439A7031
:101B10000278970604D506210A430270827906E00E
:101B20001021114005D006218A430270C2791A7132
:101B300007E01507BFD502252A430270197100E09E
:101B40000824201CF0BDC0460060064042780123F6
:101B5000111C99434170101C18407047408A70470F
:101B600030B50478012525400823002D2AD101290C
:101B700014D0002906D0022923D1302294432343D4
:101B800003701CE089237F2A1CD818239C43202340
:101B90001C435200827104700B1C13E00A49892314
:101BA0008A420FD806238271D2091A4010235B4261
:101BB0001A4328239C4310231C43C27104702B1C1E
:101BC00000E08D23181C30BDFF0300008288031C39
:101BD00000200A8098807047034B0020DA780123A8
:101BE000520993430B70704700600640024B034A52
:101BF00059690A405A61704700F00F40FFEFFFFF3C
:101C0000024B034A59690A405A61704740F00F403D
:101C1000FFD7FFFF08B5FEF7E4FF08BD70B51A4C0B
:101C20006368002B2AD1194A01211171184990606B
:101C30000A6018481849802546586D0435434550B8
:101C40001649C4200B604B60CB604B61144B800085
:101C50008B6080235B001360124B134D1E58354080
:101C60008026360235431D501D688020800228439F
:101C7000186048230B606260131C03E01A799860B7
:101C800001321A71181C70BD54FDFF1F6CFDFF1F3F
:101C900068FDFF1F007004403C10000000800340FE
:101CA0005E09000000E100E0FF00FFFF094B80211A
:101CB0001A68094B10B518680840441EA041146802
:101CC0000002044205D0186801431960906800F0D2
:101CD0001BF810BD68FDFF1F0080034038B5084C9D
:101CE000084DA060012300202371AC60FFF796FF30
:101CF0002060002801D1A86000E0201C38BDC0464B
:101D000078FDFF1F54FDFF1F08B5034B9B689868C3
:101D1000FFF780FF08BDC04654FDFF1FC046C04608
:101D2000C04670470020C046C046C046C046C046B8
:101D300001300928F7D9C046704710B5041C642C3F
:101D400004D9643CFFF7EEFFA4B2F8E70A2C04D9EB
:101D50000A3CFFF7E3FFA4B2F8E710BD10B5041C7E
:101D60000548844204D9FFF7E8FF044BE418F7E77D
:101D7000A0B2FFF7E2FF10BD60EA0000A015FFFF70
:101D800010B5041C002C05D00348013CFFF7E6FF0A
:101D9000A4B2F7E710BDC04664BB0000084B10B505
:101DA000041C002B02D0002100E000BF054B186886
:101DB000836A002B00D09847201C00F03DF8C046F5
:101DC00000000000881E000070B50E4B0E4D002470
:101DD000ED1AAD101E1CAC4204D0A300F358984776
:101DE0000134F8E700F052F8084B094D0024ED1AD1
:101DF000AD101E1CAC4204D0A300F3589847013428
:101E0000F8E770BDAC1E0000AC1E0000AC1E000068
:101E1000B01E000010B50023934203D0CC5CC45424
:101E20000133F9E710BD031C8218934202D01970E8
:101E30000133FAE770470000FEE7C046424C4F000E
:101E40004B494C4C00424F4F5400444F49540044BE
:101E5000414353004545505200464C41530007B49E
:101E600007498020087008780006FCD505490A68F3
:101E7000D2204002104308600A6007BC704700008F
:101E800002400C3000F0430024FCFF1FF8B5C046B0
:101E9000F8BC08BC9E467047F8B5C046F8BC08BC04
:041EA0009E467047A3
:081EA400CCE5FF7F0100000006
:041EAC0039040000F5
:041EB0001104000019
:101EB4002823000028230000282300000C11100F01
:101EC4000E0D120405060708090A0B131415030264
:101ED40001001600000000000000000000000000E7
:101EE40000000000000000000000000000000000EE
:101EF40000000000861E000000000000000000003A
:101F040000000000000000000000000000000000CD
:101F140000000000000000000000000000000000BD
:101F240000000000000000000000000000000000AD
:041F340000000000A9
:101F3800B41E000000FCFF1F840000000000000029
:081F4800000000000000000091
:0400000300000FB535
:00000001FF
