:10000000000C0020E90F0000751300007D130000B4
:100010007D1300007D1300007D1300007D130000A0
:100020007D1300007D1300007D1300007D13000090
:100030007D1300007D1300007D1300007D13000080
:100040007D1300007D1300007D1300007D13000070
:100050007D1300007D1300007D1300007D13000060
:100060007D1300007D1300007D1300007D13000050
:100070007D1300007D1300007D1300004912000075
:100080007D130000D91C00007D1300007D130000CB
:100090007D1300007D1300007D1300007D13000020
:1000A0007D1300007D1300007D1300007D13000010
:1000B0007D1300007D1300007D1300007D13000000
:10040000FFFFFFFFFFFFFFFFFFFFFFFF7EFBFFFF81
:1004100010B5064C2378002B07D1054B002B02D0DA
:10042000044800E000BF0123237010BD6CFCFF1FD7
:1004300000000000CC1E000008B5084B002B03D0C4
:100440000748084900E000BF07480368002B03D0B5
:10045000064B002B00D0984708BDC04600000000A6
:10046000CC1E000070FCFF1F6CFCFF1F0000000092
:10047000164B002B00D1144B9D46402292029A1A33
:10048000924600218B460F461348144A121A01F077
:10049000E0FC0F4B002B00D098470E4B002B00D0F8
:1004A00098470020002104000D000D48002802D0CC
:1004B0000C4800E000BF01F09DFC2000290000F086
:1004C00083FC01F081FCC04600000800000C002005
:1004D00000000000000000006CFCFF1F280400204A
:1004E0000000000000000000002941D010B4041CEE
:1004F0004C40A44601230022002900D5494200288F
:1005000000D5404288422CD301242407A14204D2C2
:10051000814202D209011B01F8E7E400A14204D2A2
:10052000814202D249005B00F8E7884201D3401AB9
:100530001A434C08A04202D3001B5C0822438C08DB
:10054000A04202D3001B9C082243CC08A04202D345
:10055000001BDC082243002803D01B0901D0090935
:10056000E3E7101C6446002C00D5404210BC7047E5
:10057000002806D003DB0020C043400801E08020B3
:10058000000607B4024802A14018029003BDC0460D
:10059000190000000029EBD003B5FFF7A7FF0EBC40
:1005A0004243891A1847C0467047C04680B500AF1D
:1005B00072B6024A024B0349D150FEE700E000E068
:1005C0000C0D00000400FA050A4B70B5151C0A4A10
:1005D0000E1CC118041C002091420AD8201C01F0F6
:1005E0001BF8301C211C2A1C01F044F8002800D004
:1005F0001B2070BD00E0FFFFFF5F000010B58024EE
:10060000A401201C01F008F8002807D18023DB009A
:10061000E41880231B029C42F3D100E01B2010BD94
:10062000024B1869C004C00F7047C04600F00F406D
:1006300037B500230A4C0193019DFFF7F1FF4519DF
:100640000120019501F0B2FB019AFA235B009A4266
:1006500004D8013C002CEFD1201C00E001203EBD5D
:10066000B80B00000E4A0F4BC021D058C9000143FF
:1006700010B5D1500C4B0D4A59690A405A610C4BC8
:100680000422FF321A630B4B1C68FFF7D1FF631E75
:10069000033303D8012801D172B6A04710BDC0466C
:1006A000007004403810000000F00F40FFEFFFFF23
:1006B000009004400420000010B5C0438A18914205
:1006C0000ED00B7858400823012404404008002C29
:1006D00001D0044C6040013B002BF5D10131EEE725
:1006E000C04310BD783BF682114B70B519680724E2
:1006F00061430918C91019600E4A0F4B15681E682E
:10070000654374436D186118ED10C91015601960C8
:10071000A84200DA1060884200DD1860196813688A
:10072000C9184910411A054800F0D4F970BDC046F7
:1007300008FCFF1F00FCFF1F04FCFF1F70FDFF1FD4
:1007400008B5024800F0B4F908BDC04670FDFF1FAF
:10075000411808788B7800061B02C018CB78C018A7
:100760004B781B04C018704730B50023934205DA5C
:10077000C55CCC5CA54203D10133F7E7012000E062
:10078000002030BDB34BF7B5161C1A680C1C3C3268
:100790001A60B14A00215156002900DD58E18B2C26
:1007A00001DD00F08FF9AD4DAB490122631C2E55E0
:1007B0000A702C1C0C2B00D196E0882B03D0082B40
:1007C00000D042E147E0281CA5490322FFF7CCFFF7
:1007D000002800D139E103256557072D37D8A14FEF
:1007E0003E68002E33D10421201CFFF7B1FF211CED
:1007F00001900831301C8022FFF75EFF019B83428D
:100800001DD1E901A219984B127ACB189A550136DD
:10081000802EF7D1954B01225A55954AFF20136837
:10082000013313605843934B1968C900FFF75CFE0E
:10083000C0B200F09FFA904B86490B6007E08B4BEB
:1008400002225A5501223A608C4B8B4A1A608C481E
:1008500000F038F9F9E0281C8A490422FFF784FFE8
:1008600000280ED0281C0421FFF772FF864B984207
:1008700004D1FFF7C3FE7B4B02221A60804800F0D0
:1008800021F9201C81490422FFF76EFF002805D0C2
:10089000744B1B68002B01D1FFF788FE201C7C499C
:1008A0000422FFF761FF002800D1CEE0794B00223F
:1008B0001A606E49002353540132082AF9D1764A4E
:1008C00000259D540133182BF9D1201C0421FFF77A
:1008D0003FFF684B1860714B1D60624B1D60644B9D
:1008E0001D6000F04DFAB0E0281C6D490422FFF7AE
:1008F0003BFF00281AD028796B79AE7A00021818CD
:10090000A979EC792B7A6A7AED7A3602AD1980B240
:10091000ADB2A8421FD109021B026118D31889B2D7
:100920009BB2994217D100F004FA8EE0281C5D4971
:100930000422FFF719FF041E16D02879AA7A6B79D2
:10094000EC7A000212021818A21880B292B2E97969
:100950006B7A904202D000F023FA76E0C9B2994255
:10096000F9D100F068F970E0281C4F490422FFF724
:10097000FBFE002869D0281C0421FFF7E9FE0821AE
:10098000061C281CFFF7E4FE374D80220190291C2D
:10099000201CD200FFF790FE2F1C231C334AA15CC1
:1009A00001344A1E51424A419B18082CF6D12D4C65
:1009B000394D082B2DD1019B98422AD1216800295D
:1009C00027D180229201B0188022391CD200FFF773
:1009D000FBFDB60A1B280BD100F0E2F92D4B1A687B
:1009E00001321A602368013323600223AB550EE005
:1009F0002A4A1368013313601E4A12689A4201D1D1
:100A0000FFF7D4FD0123AB551249284B0B600022A0
:100A10000CE0204BB60A1A6801321A6023680133D1
:100A200023600223AB5500F0BBF9F0E70F49002328
:100A30008B540132082AF9D1FA18002111700133C0
:100A40008022D2009342F7D101E7034A00231370BA
:100A5000F7BDC046A8FCFF1FBCFCFF1F8CFDFF1F9D
:100A6000681E0000B4FCFF1F18FEFF1F88FCFF1F5C
:100A7000C0FCFF1FB8FCFF1F204E0000ACFCFF1F96
:100A800070FDFF1F6C1E000039050000711E000084
:100A9000761E0000C4FCFF1F90FCFF1FB0FCFF1F70
:100AA0007B1E0000801E0000851E000050C3000059
:100AB00000230360436007220361C3600223826056
:100AC000436170470723836000230361022343616E
:100AD000704700004268C823013270B55B00041CF7
:100AE0000E1C42609A4201DD022343612368002B01
:100AF00073DC002E71DD012A6DDD01231F2A00DC6D
:100B000000236269022A04D0032A13D0012A62D189
:100B10003BE0E2685100FF220A40002B00D0013286
:100B2000E260E368022B56D10322A36100236261D5
:100B3000A36050E0E2685100FF220A40002B00D081
:100B40000132E260A268264B0132134004D508222C
:100B5000013B524213430133A360002B3BD1A269F6
:100B6000E368022A02D1991E01290CD9002B08DD65
:100B7000591C8A4205D1012B05D1002263612261F3
:100B800001E002226261A36125E0E2685100FF22D8
:100B90000A40002B00D00132A568114B0135E260FC
:100BA0001D4004D50823013D5B421D430135A5606E
:100BB000002D10D1227B201C2169FFF7E3FD236962
:100BC000013323618B2B01DCA56004E00723A360C4
:100BD00002232561636100236360266070BDC04607
:100BE0000700008070477047704708B5002000F08C
:100BF0002FFA08BD13B56C460634201C00F03EFAEF
:100C0000094A2088136809499C006050084901334B
:100C10000B4004D54021013B49420B430133136093
:100C2000FFF762FD13BDC046C8FCFF1F180300207C
:100C30003F000080704708B500F054FC08BD00007C
:100C4000044B20211A680A431A60C046C046C046B9
:100C5000C046704700F00F40054B20211A688A43B8
:100C60001A60C046C046C046C046C0467047C0462F
:100C700000F00F40044B01211A680A431A60C04675
:100C8000C046C046C046704740F00F40044B0121AB
:100C90001A688A431A60C046C046C046C0467047BC
:100CA00040F00F40044B80211A680A431A60C04686
:100CB000C046C046C046704700F00F40044B80213C
:100CC0001A688A431A60C046C046C046C04670478C
:100CD00000F00F40084A80235B005361D361074A4C
:100CE000A0211360064B5A690A435A61054B012142
:100CF0005A690A435A6170470090044000A00440BA
:100D000000F00F4040F00F4038B5051C0724FFF7F6
:100D1000BDFF0123A3402A1C1A409A4202D1FFF7CB
:100D2000C1FF01E0FFF7CAFFFFF7A4FF013CEED2CD
:100D300038BD38B50005C025000DAD0105430C1CBC
:100D4000FFF78AFF280AFFF7DFFFE8B2FFF7DCFFB3
:100D50002405FFF775FFB0231B02240D1C43FFF78A
:100D60007BFF200AFFF7D0FFE0B2FFF7CDFFFFF7D0
:100D700067FF38BD014B18707047C046EBFCFF1F82
:100D8000044A00231370044A1370044B01221A70A2
:100D90007047C046EBFCFF1FE9FCFF1FE8FCFF1F8C
:100DA000024B1A7801321A707047C046E9FCFF1FE7
:100DB000034B044A1B5CD05C0918D1547047C046F1
:100DC0008A1E0000CCFCFF1FF7B5FFF74BFC00F0BC
:100DD0002DFB5C4B802252005B4D5A619A61DA61B7
:100DE0006B69E02213436B61FFF774FFFFF7A8FC08
:100DF000564E0023306801303060554C00271F5597
:100E00000133182BF9D1FA21C900FFF76DFB03213B
:100E10000190FFF7BFFB4B424B415B4263724B1E9D
:100E20005A4253415B420239A3724B4259414942F3
:100E3000E172484BFA21D8594900FFF755FB0921C7
:100E4000FFF7A8FB444BFF22585C591A497C8023CA
:100E5000043722545B0062549F42EAD13F4B1B7817
:100E6000012B0AD03E4B202218781030C0B21870E7
:100E70002B6893432B60002346E0019FBB435B42FA
:100E80006372384B1F4004D50223013F5B421F436E
:100E90000137013F7B425F417F42FF23FFB2E37591
:100EA0002370A772E77200232B4F0133FA5C0027EF
:100EB000A754102BF8D12C4B1B789F4206DA38111F
:100EC00001303F21FFF774FF0137F4E7274B1B7810
:100ED000002BC7D03768C821381C4900FFF704FB36
:100EE0000123061C1E40BDD1381CC821FFF7FCFAA7
:100EF0000136194F3118BB5D0022CF0700D4E25CE8
:100F0000E254102EF4D1ADE7E15C8022002904D038
:100F1000814202D329680A4302E0296891430A1CEE
:100F20002A602E6840218E432E602E6801333143A3
:100F3000054A2960182BE7D1136820210B43136061
:100F400056E7C04600A0044040F00F40E4FCFF1FFD
:100F5000CCFCFF1F180300208A1E0000E8FCFF1FC6
:100F6000EAFCFF1F01000080EBFCFF1FE9FCFF1FF4
:100F700010B588421BD0002A19D00B1C03439C07D4
:100F800005D1032A03D908C9043A08C0F3E7DC07EE
:100F900007D4012A05D90B88023A038002310230B6
:100FA000E9E70B78013A037001310130E3E710BD46
:100FB00038B50B4D0024002D10D02B1919680029CD
:100FC00006D02B1958689A68FFF7D2FF0C34F4E763
:100FD0005A68002AF5D19B68002BF2D138BDC04673
:100FE000601F0000704770470A4B181C002805D08E
:100FF000854681B00020C043009001B0FFF7F2FFAA
:1010000000F0BEF9FFF7D4FFFFF7EDFFFFF730FA6E
:10101000FEE7C046000C002010B5094B1B78002BE2
:101020000CD0084A084C0949002313700B70206843
:10103000012200F0C5F8206800F0AAF810BDC046F3
:10104000EEFCFF1FECFCFF1F1C040020EDFCFF1F4B
:1010500070B5094C061C25780820EDB2002D0AD188
:1010600001232370FFF7D8FF281C002E03D023781C
:10107000012BFCD0002070BDEEFCFF1F054B1A7841
:101080000923002A04D0044B1B881B010380002382
:10109000181C7047ECFCFF1F1804002010B50C4C06
:1010A0000C4B22781868042A06D100F0B1F800230E
:1010B0002370FFF7BFFD09E0074900F097F8074BE1
:1010C00001221A70FFF796FD0023237010BDC04661
:1010D000EEFCFF1F1C04002018040020ECFCFF1F86
:1010E00008B5054B00201870044B187000F00AF882
:1010F000034B186008BDC046ECFCFF1FEEFCFF1F51
:101100001C040020194B1A4A30B5002158601360A6
:101110001848194A197099708558802424052C4361
:101120008450164AC3208000155880242D022D0AB1
:1011300024062C43145014688020000220431060C1
:101140000F4A1048546B204050630F4A172090609C
:10115000D0680F24A04301242043D06011624021B5
:1011600051620A4A181C136030BDC046F4FCFF1FD0
:10117000F0FCFF1F007004403C10000000E100E0A4
:1011800000A00440FFF8FFFE00B0034040FDFF1F39
:101190000A4B8022196A10B51140082200290AD191
:1011A0005A6A4824A2435A621A6A4024A2431A6225
:1011B00042781A600A1C101C10BDC04600B00340E3
:1011C00030B59623012A0CD1074B1C6A082325064B
:1011D00007D402700A788223002A02D15023437078
:1011E000131C181C30BDC04600B0034010B50023CE
:1011F00002789A4208D91C1D044AA400A4585A0037
:1012000001335452DBB2F3E7002010BD00B00340BD
:101210000C4B4022596A10B50A401B20002A10D1FD
:10122000D96C986C4018596C4018196C4018D96BDF
:101230009C6B401800198021400809020143D962C3
:10124000101C10BD00B0034008B5054B01221B68FF
:101250009A705868FFF722FF024B1B6908BDC04611
:10126000F0FCFF1F00B00340F7B50B1C041C161C5C
:10127000002901D131803AE01E4D1A1C2868211C3A
:10128000002300F02BFC082801D10C2030E00024C2
:10129000271C286800F036FB286800F06DFC002849
:1012A0000ED1286800F070FC874204D0286800F056
:1012B0006BFC114C071C0134104BA4B29C42E8D9C2
:1012C000286800F061FC308028686D460635291CCE
:1012D00000F092FC2B88002B05D00820034207D198
:1012E00015205A0704D4FA23DB009C42CDD00020FD
:1012F000FEBDC04620040020FFFF0000CF07000015
:1013000037B50E4B20219A78FA248A439A709A783E
:1013100010218A439A70E400094B6D46073518681E
:10132000291C00F06FFC2B78012B05D0013CA4B2E6
:10133000002CF1D10C2000E000203EBD00600640F2
:101340002004002008B5054B7F221B6802400021C5
:10135000181C00F01BFCC0B208BDC04620040020D1
:1013600008B5002000F078FB014B186008BDC046AE
:101370002004002008B5FFF737FC08BDFFBE70470A
:101380001F4B204A204910B5D150204B8822002104
:10139000520199501E48C02292021A501D4AC02183
:1013A0009C58C900214399501B4A082194780C424B
:1013B00002D0947821439170802252021A50174A29
:1013C0001749985801408020400401439950154B1B
:1013D00006221A70597840220A405A70D9781F2282
:1013E0000A40A0210A43DA700F4A802111709A79CD
:1013F000D106FCD599790C221142FBD110BDC04613
:10140000080D000000E000E0000000000070044053
:10141000441000003810000000D007400410000005
:10142000FFFFFFFC004006400050064010B5244B73
:101430001F215A7900248A435A711A7907218A4355
:101440001A71204B73211A788A4350210A431A706B
:101450005A7863218A4340210A435A709A781921A5
:101460008A439A70184BC7221C70184B92009958E7
:1014700089B29950164A1749D06A014002200143A7
:10148000D162154A154950680140C02080000143CF
:101490005160C12292009858114901409950FFF7BC
:1014A0001FFE201C00F030FC00F0A2F800F0B4FB9E
:1014B00000F0BCFBFFF754FF00F059F862B610BD16
:1014C00000F0074000D0074000E0074000E100E0E6
:1014D00000A00440FDFFFFFE00900440FFF8FFFE67
:1014E000FFFF00FFF7B5061C40055023400F1843CF
:1014F0000F1C00F020F8051E09D101AC2A1C201C8D
:1015000002212670677000F01FF8051E03D000F05E
:1015100019F8281C0EE0FF232370052000F046FC7C
:10152000201C01210022642300F022F80028F4D1BD
:1015300000F008F8FEBD08B5FFF704FF002800D052
:101540001B2008BD0020704737B5151C6A460632BF
:10155000FFF78AFE041E02D0FFF7D2FE05E0022349
:101560009D4302D1FFF7CCFE041C201C3EBD7047FA
:1015700037B5151C6A460632FFF776FE041E02D008
:10158000FFF7BEFE04E0002D02D1FFF7B9FE041CF8
:10159000201C3EBDF7B5124C844627780191131CE0
:1015A000251C0820002F1AD10E4A05210E4E11606D
:1015B0000122227030686146019A00F0A3F80028E9
:1015C00008D1306800F0E2F82B78002BF9D1074BF6
:1015D000187803E02770892800D10220C0B2FEBD30
:1015E00004FDFF1F00FDFF1F08FDFF1FFCFCFF1F88
:1015F00008B5002000F06AF8044B00221860044B84
:101600001A70044B01221A7008BDC04608FDFF1F66
:1016100004FDFF1FFDFCFF1FF8B5124C011C2578CF
:10162000261C0820002D1CD10F4B02220F4F1A60E0
:10163000890A8022012389023868D200237000F0D1
:101640007FF8002808D1386800F0A0F83378002B24
:10165000F9D1074B187803E02570892800D10220C2
:10166000C0B2F8BD04FDFF1F00FDFF1F08FDFF1FF6
:10167000FCFCFF1F08B5FFF78DFF08BD024A0023E1
:101680001370024A13707047FCFCFF1F04FDFF1F1C
:101690001FB50A4A00231370094A69461360094BB3
:1016A000186800F01BF969468A78074BD10601D506
:1016B000162200E003221A7005B000BD04FDFF1FD2
:1016C00000FDFF1F08FDFF1FFCFCFF1F094B02224E
:1016D00010B55A700022DA701A70DA600649074AAB
:1016E00058618858012420438850054A181CD3604B
:1016F00010BDC0460CFDFF1F007004403C100000F0
:1017000040FDFF1F70B54578041C0820022D14D839
:101710000A4D5E1E8920AE420FD880252D02ED1A9B
:10172000AA420AD802202070042060700620A0700F
:101730000020A360E1602261606070BDFF7F000057
:1017400030B54478031C0820022C1BD80E4C551EC3
:101750008920A54216D880242402A41AA14211D8B7
:101760000C1C1443A405A40D0CD19A608022032004
:10177000D20018705A60042009225870DC60196188
:101780009A70201C30BDC046FF7F0000F0B50123D9
:1017900091B05B420393002304934578EA1E022A2A
:1017A00000D992E04A490C780A1C64B29C4200DBE2
:1017B0008BE07024042D02D10C70C37013E0097803
:1017C000C57821402943C17004D043704069FFF7B8
:1017D0005FFF7AE08168002905D1022343704069E8
:1017E000FFF74CFF71E00378991E01296DD814783A
:1017F00070210C4269D14178042902D10521417040
:1018000009E0056941686C1804615C1E012C02D86E
:10181000C6687118C160022B06D0032B35D18768CA
:1018200041687B1A836032E0036985680093009CFD
:10183000032323400424E41AE4B2A54200D2ECB20C
:101840000021CEB2A6420AD2C76803AE7F5CF6186A
:10185000775404AEF618FF2777540131F1E7009969
:10186000039ECF1A3968049FC9433740394204D0D8
:10187000C37804221343C37027E044602C1B8460A8
:10188000144C71400391216002E0012B1DD0002314
:101890008178D1710469E11AC9B21171056905AC89
:1018A000E91A090AC9B251710169201CCB1A1B0C33
:1018B000DBB293710849282200F0C2FAFFF792F9CF
:1018C00001231C43A047FFF78EF911B0F0BDC046BD
:1018D00000000240080002409C1E000038B5051CB4
:1018E0000C1CFFF77FF92B782370AB786370EB78D3
:1018F000A3702B696360EB686D68A360E560FFF718
:1019000072F938BDF0B5534B0227D9781A1C394209
:1019100000D19EE0DE78D9781224A143F6B231439B
:10192000D9709D78202425401021002D00D180E021
:101930009D780D4256D001252E420FD09A78A243B1
:101940009A709A788A439A700023038203810378FD
:101950000622AB4313430370082377E006783E4228
:101960003AD0078A002F0AD0428A013F01324282D0
:1019700042690782511C416112781A7169E0078936
:10198000002F1BD004210E420ED008239178012F86
:1019900001D10B4301E099430B1C93709378102104
:1019A0008B439370137954E09A780A439A70C27902
:1019B00015431D710378194301704AE08278AE43E4
:1019C0000670012A05D19A78A2439A709A788A43C0
:1019D0009A704378012229E082791A7103781F43B3
:1019E000077036E003894189013B9BB201310381D5
:1019F0004181002B05D0012B0ED1937808210B4398
:101A000009E0037801218B43037093780821A343F5
:101A1000937093788B439370C368591CC16012799B
:101A20001A700389002B14D14378022213434370A8
:101A30000FE00E420DD00478012294430582058107
:101A4000827004709A788A439A70042382881343C0
:101A50008380F0BD00600640194B202270B51A70DB
:101A600010229A71012298619A7016480022164934
:101A70005A70445840252C435A811A815A821A823E
:101A80009A804450114950208A7088710220C87091
:101A90000F48104D066980242E40A400264306619D
:101AA000C66835402C43C4604A718A713A224A7034
:101AB0008878802202438A70074A181C136170BD1F
:101AC00024FDFF1F00700440341000000060064039
:101AD00000A00440FFF8FFFE40FDFF1FF0B5002A04
:101AE00001D1002443E08578012D0BD1214CE6780B
:101AF0000824B7063BD406782E4238D1048A002C3D
:101B000034D104E005780824EE0730D4F6E70578F0
:101B1000012683703543174B416105704482028270
:101B20009A7810210A439A7099782022114202D0A3
:101B30009A78042100E099780A439A70027897060F
:101B400004D506210A430270827906E01021114073
:101B500005D006218A430270C2791A7107E0150781
:101B6000BFD502252A430270197100E00824201C09
:101B7000F0BDC0460060064042780123111C994325
:101B80004170101C18407047408A704730B5047887
:101B9000012525400823002D2AD1012914D0002930
:101BA00006D0022923D130229443234303701CE042
:101BB00089237F2A1CD818239C4320231C435200CE
:101BC000827104700B1C13E00A4989238A420FD8E2
:101BD00006238271D2091A4010235B421A4328233C
:101BE0009C4310231C43C27104702B1C00E08D2306
:101BF000181C30BDFF0300008288031C00200A80EF
:101C000098807047034B0020DA78012352099343F0
:101C10000B70704700600640024B034A59690A4046
:101C20005A61704700F00F40FFEFFFFF024B034A7D
:101C300059690A405A61704740F00F40FFD7FFFFD3
:101C400008B5FEF7D2FF08BD70B51A4C6368002BCB
:101C50002AD1194A01211171184990600A60184867
:101C60001849802546586D04354345501649C4200F
:101C70000B604B60CB604B61144B80008B6080230A
:101C80005B001360124B134D1E5835408026360200
:101C900035431D501D68802080022843186048236A
:101CA0000B606260131C03E01A79986001321A71AC
:101CB000181C70BD40FDFF1F58FDFF1F54FDFF1F86
:101CC000007004403C100000008003405E090000EA
:101CD00000E100E0FF00FFFF094B80211A68094B7B
:101CE00010B518680840441EA04114680002044260
:101CF00005D0186801431960906800F01BF810BD0A
:101D000054FDFF1F0080034038B5084C084DA0600B
:101D1000012300202371AC60FFF796FF20600028AC
:101D200001D1A86000E0201C38BDC04664FDFF1F43
:101D300040FDFF1F08B5034B9B689868FFF780FFC5
:101D400008BDC04640FDFF1FC046C046C0467047A4
:101D50000020C046C046C046C046C04601300928E3
:101D6000F7D9C046704710B5041C642C04D9643CF4
:101D7000FFF7EEFFA4B2F8E70A2C04D90A3CFFF7FC
:101D8000E3FFA4B2F8E710BD10B5041C0548844277
:101D900004D9FFF7E8FF044BE418F7E7A0B2FFF718
:101DA000E2FF10BD60EA0000A015FFFF10B5041CA3
:101DB000002C05D00348013CFFF7E6FFA4B2F7E78B
:101DC00010BDC04664BB0000084B10B5041C002BBE
:101DD00002D0002100E000BF054B1868836A002B89
:101DE00000D09847201C00F03DF8C04600000000DD
:101DF000C81E000070B50E4B0E4D0024ED1AAD103C
:101E00001E1CAC4204D0A300F35898470134F8E7F5
:101E100000F05CF8084B094D0024ED1AAD101E1CB3
:101E2000AC4204D0A300F35898470134F8E770BDE2
:101E3000EC1E0000EC1E0000EC1E0000F01E000076
:101E400010B50023934203D0CC5CC4540133F9E7AE
:101E500010BD031C8218934202D019700133FAE7B7
:101E600070470000FEE7C046424C4F004B494C4CC7
:101E700000424F4F5400444F4954004441435300E3
:101E80004545505200464C41530017161514131285
:101E900011100C08070605040302010007B40749E6
:101EA0008020087008780006FCD505490A68D22011
:101EB0004002104308600A6007BC704700000240FF
:101EC0000C3000F0430000000CFCFF1FF8B5C046CA
:101ED000F8BC08BC9E467047F8B5C046F8BC08BCC4
:101EE0009E4670478CE5FF7F01000000390400002A
:101EF00011040000282300002823000028230000EC
:101F000000000000000000000000000000000000D1
:101F100000000000000000000000000000000000C1
:101F2000C41E0000000000000000000000000000CF
:101F300000000000000000000000000000000000A1
:101F40000000000000000000000000000000000091
:101F50000000000000000000000000000000000081
:101F6000F41E000000FCFF1F6C00000000000000D9
:081F7000000000000000000069
:10200000000C0020C9480000955000009D500000C1
:102010009D5000009D5000009D5000009D5000000C
:102020009D5000009D5000009D5000009D500000FC
:102030009D5000009D5000009D5000009D500000EC
:102040009D5000009D5000009D5000009D500000DC
:102050009D5000009D5000009D5000009D500000CC
:102060009D5000009D500000995A00009D500000B6
:102070009D5000009D5000009D500000B94D000093
:102080009D5000006D5C00009D5000009D500000C0
:102090009D5000009D5000009D5000009D5000008C
:1020A0009D5000009D5000009D5000009D5000007C
:1020B0009D5000009D500000855000008D50000094
:1020C00010B5064C2378002B07D1054B002B02D00E
:1020D000044800E000BF0123237010BDB8FCFF1FBF
:1020E000000000006061000008B5084B002B03D021
:1020F0000748084900E000BF07480368002B03D0E9
:10210000064B002B00D0984708BDC04600000000D9
:1021100060610000BCFCFF1FB8FCFF1F0000000056
:10212000002934D00123002210B488422CD301248A
:102130002407A14204D2814202D209011B01F8E71F
:10214000E400A14204D2814202D249005B00F8E7D8
:10215000884201D3401A1A434C08A04202D3001B04
:102160005C0822438C08A04202D3001B9C08224337
:10217000CC08A04202D3001BDC082243002803D075
:102180001B0901D00909E3E7101C10BC70470028A7
:1021900001D00020C04307B4024802A140180290B9
:1021A00003BDC046D90000000029F0D003B5FFF7F9
:1021B000B9FF0EBC4243891A1847C046002941D0D6
:1021C00010B4041C4C40A44601230022002900D571
:1021D0004942002800D5404288422CD301242407DC
:1021E000A14204D2814202D209011B01F8E7E400B6
:1021F000A14204D2814202D249005B00F8E7884242
:1022000001D3401A1A434C08A04202D3001B5C08B9
:1022100022438C08A04202D3001B9C082243CC0816
:10222000A04202D3001BDC082243002803D01B0974
:1022300001D00909E3E7101C6446002C00D5404298
:1022400010BC7047002806D003DB0020C0434008C4
:1022500001E08020000607B4024802A14018029065
:1022600003BDC046190000000029EBD003B5FFF7FD
:10227000A7FF0EBC4243891A1847C0467047C046A4
:102280001C2101231B04984201D3000C10391B0AA6
:10229000984201D3000A08391B09984201D300096A
:1022A000043902A2105C40187047C04604030202C1
:1022B0000101010100000000000000009C46030431
:1022C000F0B51B0C17043F0C150C1E1C041C000C55
:1022D0007E436B4347434543FB18300C1818874235
:1022E00002D980235B02ED18030CED1863465C43B2
:1022F0004A433604360CA118000480194919F0BD70
:102300007047C04608B500F081FF08BD7047C04661
:1023100008B501F099FD08BD70B50B4E82B0336869
:10232000022B0ED0094D0024E0B2694602F0A0FB5A
:1023300069460A88A3000134EA50062CF4D101232F
:10234000336002B070BDC046D4FCFF1F00FEFF1F0B
:102350007047C04608B5034B186A03F03FFB01F015
:102360009BFF08BD6CFDFF1F08B5012001F08CFF2D
:1023700008BDC046F0B51B4E4746041C80B4301C57
:102380000F1C194901F04CF8002525606560E064D8
:102390008046F8881021000401F042F8011C4046F4
:1023A00001F018F86565A565206538880121494266
:1023B000000401F035F88021071C8902301C01F06F
:1023C0002FF8061C311C381C01F0F4F8311CE065B4
:1023D000002001F0EFF8012325672066636704BC45
:1023E0009046F0BD3F24030000C0FFFF38B5041C39
:1023F0000D1C8888002101F013F8011C124800F020
:10240000E9FF60662B89E8880121C01A01F008F80D
:10241000011CE06D00F0DEFFE06529880B4800F04C
:1024200029F9011C412000F0D5FF011C084800F0EB
:10243000F7FF80235B0223616361A360E360802375
:102440009B02A061E36138BDDFFF000000FCFF1FBD
:10245000504C0000F0B55F4656464D464446F0B439
:10246000036D8DB09B46C36C041C0B915846191C20
:10247000019300F0B9FF59462062019800F0B4FFC3
:10248000061C6062019801F09BF881466063584623
:1024900001F096F80490A063301C01F09BF9051C34
:1024A000291CA06200F0BCFF8246E062301C01F0F3
:1024B00087F8236E05902063191C181C069300F002
:1024C000AFFFE36D061C2064191C181C079300F075
:1024D000A7FF2369011CE063181C029300F0A0FF12
:1024E0006369071C6064311C181C089300F098FF96
:1024F000291C8046A064049800F092FFE6690390CE
:102500004946301C00F08CFF011C039800F06CFF62
:10251000A369011C181C039300F082FF291C099079
:10252000381C00F07DFF011C404600F053FF059968
:1025300000F076FF51460A90301C00F055FF8246AD
:102540005146029800F06CFF291C0290484600F0AA
:1025500067FF049900F048FF011C039800F060FF3A
:10256000011C301C00F05CFF291C8146404600F035
:1025700057FF311C051C381C00F052FF291C00F0CD
:1025800029FF059900F04CFF5146051C089800F002
:1025900047FF0A99061C099800F026FF029900F0EF
:1025A00085FF0B9B291C1F17C7196765484600F05C
:1025B00011FF311C00F07AFF666E051CA065311C0E
:1025C000079800F02DFF311C8046069800F028FF88
:1025D000802636028146311C381C00F021FF011C88
:1025E000404600F0F7FE311C071CE065281C00F097
:1025F00017FF011C484600F0EDFE311C051C20664B
:10260000381C00F00DFF011C019800F0E3FE311CA6
:10261000071C281C00F004FF011C584600F0DAFEDD
:102620003B04DB1B2360114E03041B1A6360051C73
:10263000311C381C00F0BEFF311C071CE064281C54
:1026400000F0B8FF0A4D061C2065291C381C00F05C
:10265000E7FE291CA066301C00F0E2FEE0660DB02B
:102660003CBC90469946A246AB46F0BD3F240300D1
:10267000800D7D514A11920010B58418FF236468C3
:102680008058C9001940000A5B1A240A4C4343438E
:10269000E01810BD38B5EA235B00C5580022041CC1
:1026A000C250092D2DDD1A4B9D422BDCEE2252002B
:1026B000835801338350022B20DDE2204000215853
:1026C000E0235B00E150E4235B00E3582350C9188A
:1026D0000220A05058180321FFF770FDE6235B008D
:1026E000E050011C01204042FFF71AFDE8235B0087
:1026F000E050EC235B000122E250022370339B0088
:102700001D5138BDEE235B00C2500023F6E7C046E2
:102710003075000038B50025D22345630563056197
:102720004561D022C55408238354D12283543823D1
:10273000C562C5543923C5549023C5500222942341
:10274000C250031C9433DD609D600A230380EE2396
:102750005B000581C5508C235B00C5508E235B0058
:10276000C55090235B00C55092235B00C550942355
:102770005B00C55096235B00C55098235B00C55095
:102780009A235B00C5509C235B00C5509E235B00D1
:10279000C550A0235B00C550A2235B00C550A423F5
:1027A000041C5B00C018211CFFF7E4FD8A235B00BA
:1027B000201CE55000214022D43003F0C1FA9923B7
:1027C0009B00E5509A2306229B00E25038BDC0468C
:1027D00008B5031C00290ED1FF20892298541A1C29
:1027E000943219615961D9629160A42252009818FB
:1027F000191CFFF7BFFD08BD00230B604B600B7277
:10280000037070477047C046F0B54D4644465F467A
:102810005646F0B487B0059324230D1CC15C041CFC
:10282000520F914200D1D3E0C2542623C25C1F2133
:1028300001320A40C254876E6C4B6D497B435B1872
:10284000836614325B009B0C520013524360D80A1B
:102850006849C0059B46FFF763FC109BE0605A0F78
:102860002523E15C0490914200D1BCE0E254262390
:10287000E25CEB8820325B0AD21AD317DB0ED21847
:102880001F210A40D31A14335B001D5B5949E80A23
:10289000A560C005FFF744FC2061276F059E5946DF
:1028A00033883E148F02E16E7A1A3704BF1BD71BA0
:1028B00067673F145F43216FCA192267DA00D21A93
:1028C0004D4F52031214D21992B25A431214564366
:1028D000E16E8E19E6660296E66FA9023714A66FBE
:1028E0008E1B3904C91B711A8026A15109140E1CB4
:1028F0005E43E16F57438E19E667A66FF719A76726
:1029000003978427B8464146271C66588437796860
:10291000B146049E09140191B6024946761A0199FE
:10292000B2460E04711A5646761ABE6036145E43DD
:102930007968B4468C440199664651438C46CC4430
:102940007E60414666466650261C90369027E159C7
:10295000776889463F14019781024F46C91B884614
:102960000199019F0904C91B47467F1AB7603F14AC
:102970007B437168059FCB187360019B90265A4377
:102980004A44A25102997B88BE8889125F467743E8
:1029900059437918039F090A6161B9125943754374
:1029A0006D182D0AA5616746049DB91292127543F0
:1029B0005943704353436918C318090A1B0AE1615C
:1029C000236207B03CBC90469946A246AB46F0BD98
:1029D000109B41685A0F25238B46C668E15C04961C
:1029E000914200D042E7A568206956E7FD43030005
:1029F000C39E2600FC0D0000CC0C0000074A08B561
:102A0000031C0020934207D9054A06499B18180465
:102A1000C01AFFF785FB80B208BDC0468F020000D8
:102A200071FDFFFF70FD0000F8B58C23C1584F46C3
:102A300089460121894446464A46041CC0B4002107
:102A4000C25024223C3003F07BF9201C24220021B8
:102A5000603003F075F9616B0825CB001E13301C44
:102A6000370309300921DF1BFFF7FEFB6B1A0E331A
:102A70003F11FF229B00E3189046301CD21B5A6086
:102A80000A300921FFF7F0FB6B1A0E33226B9B0013
:102A9000E3185F60D3001E13301C3703093009218F
:102AA000DF1BFFF7E1FB6B1A17333F1141469B0019
:102AB000CA1BE318301C5A600A300921FFF7D4FB07
:102AC0006B1A17339B00E3185F6084220023A35422
:102AD0008522A3548622A3548722A3548822A35478
:102AE000F0235B00E35C5A1E032A0FD8E221FF317A
:102AF000615CA0188030CD430571032A02DCE31825
:102B0000803319710CBC90469946F8BD9621484611
:102B10004900002B0DD1FFF703FBFF23C20705D5AA
:102B2000E223FF33E35C5B08803BDBB28422A354E7
:102B3000E8E7052B08DDFFF7F3FA8023C20700D48E
:102B4000FF238822A354DDE7FFF7EAFAFF23C1073A
:102B5000F7D5E223FF33E35C5B08DB43DBB2F0E74E
:102B6000F0B500234E4645465746E0B4041C0E1C03
:102B7000C3600D127F2D14DC844900257143491375
:102B800049008B310027A368012B1AD0022B00D1FA
:102B9000C7E0002B00D174E01CBC90469946A246C9
:102BA000F0BD7B4A794F8B185F437F130237F52DB9
:102BB00064DD784BF53D5D43A368C5607649012B24
:102BC000E4D17648FFF7ACFA2368181AA84200DC73
:102BD000ACE02060051C724B9E4200DDB5E0760043
:102BE000301C704900F038FC011C6F4800F0FCFB01
:102BF0006E49071C301C00F02FFC4642391C381C63
:102C000000F00EFC011C381C00F00AFC311C81464F
:102C1000301C00F005FC011C301C00F001FC80465B
:102C20004146484600F0EAFB011C8020400200F0CB
:102C3000B1FC2B1281468020191C400200F0DEFB03
:102C4000391C8246301C00F0D9FB011C504600F0B4
:102C5000E7FB391C00F0BEFB061C311C00F0E0FB5A
:102C6000011C301C00F0DCFB4246514200F0B2FB7C
:102C7000494600F0D5FB6060281C8DE700254649D9
:102C800081E74B48011C00F0CBFB011C484800F0D9
:102C9000C7FB8321051C832000F0C2FB011C83209D
:102CA00000F0BEFB4342011C281C994600F0A6FB25
:102CB000011C8020400200F06DFC8046002F3CD0BB
:102CC0003648391CFFF72CFA2268344B85189D4290
:102CD00058DD80256D04012380212560A360490211
:102CE0008020400200F08AFB3149061C832000F05E
:102CF00085FB011C301C00F093FB2D4900F06AFBA2
:102D0000061C311C00F08CFB011C301C00F088FB01
:102D1000494600F05FFB414600F082FB6060281CE2
:102D20003AE7256800236360281C35E72560002DFD
:102D300000D050E70223A3604DE7802501236D04F6
:102D40008021A36025604902CAE78020154940021E
:102D500000F082FB011C144800F046FB071C802099
:102D60001249400200F078FB094A8046B61871000B
:102D70000D4800F071FB4346011C584200F034FB43
:102D8000061C3BE725602912AAE7C046C4090000DB
:102D90000080FFFF9999190011270000FFFFFF0035
:102DA000FF7F0000C2B5000066E60000A33000000F
:102DB000CCCC0000F0B5EA256D0043594F4646469D
:102DC000C0B40133041C4351A4204000271883B031
:102DD000381C211CFFF70AFB6259E54B9A4200DDC3
:102DE000DFE1EE235B00E358002B00D1D9E138236B
:102DF000E25C002A01D0013AE2543923E25C002A65
:102E000001D0013AE2548923E25C002A01D0013A60
:102E1000E254201CA1889430FFF7A2FEEC235B0053
:102E2000E358002B00D1C8E163899900C918C9098A
:102E30004031FF230A1C9A43531E891AFF3B490065
:102E40005B18934200DAC9E11812FF21C94D08400E
:102E500080002A582818D617360EB2184068DE436C
:102E60001212F6B25643C217120E101800120B407F
:102E70004343E8225200F318A658360C5E432169FA
:102E800062697318B1098918E2886161120598189E
:102E90002062A06989189A1A2361E1616262834203
:102EA00002D214213922A154A361A38897211B0ABD
:102EB000890065181A1C3F21AF48984600F0CEF9EA
:102EC00097239B00E05042463F21AC4800F0C6F9F2
:102ED0006860A18881239B00E218090A2B1C6069A5
:102EE00000F0D2F989239B00E050A18885239B0044
:102EF000E218090A2B1CE06900F0C6F990239B0038
:102F0000E050A188F2235B00E218090A2B1C20691B
:102F100000F0BAF98A239B00E0509946A188FA2371
:102F20005B00E218090A2B1C206A00F0ADF991231E
:102F30009B00E0509846E38880201902C91A40029D
:102F400000F048FA011C301C00F06AFAE16A2269BC
:102F50008E1BA1883018E062090A80182A1C00F034
:102F6000E5F949466358E26AC018C30F18188B2365
:102F700040109B00E050A188236A090AD0182A1C3F
:102F800000F0D4F9414663589825C018C30F1818AB
:102F900092239B004010E050206900F041F96259F3
:102FA000001450438C239B00E050206A00F038F955
:102FB00063590014584393239B00E050F2235B00B5
:102FC000E158381CFFF746FAD8225200A15863593D
:102FD000091459438D229200A150DA225200A258BE
:102FE000261C1214534394229200A350A588A436A1
:102FF0002D0A312D00D8F6E00023FF207080B38029
:10300000281C192D00D21920C043F523C0B2584303
:10301000FF21FFF7D3F87F21021C594800F01EF969
:10302000A423000CE052606A211C0090201C22693D
:10303000331CAC30FFF7E8FBC023E258E02109065F
:1030400012048E2352189B00E250C423E2589523A9
:10305000120452189B00E250C823E2588F23120436
:1030600052189B00E250CC23E258962312049B0096
:103070005218E250FA235B00E358002B03DDA26AEA
:10308000002A00DCB9E0A36263885900C918C909A5
:103090004031FF230A1C9A43531E891AFF3B490003
:1030A0005B18934200DA131CF0204000F0221D123E
:1030B00021185200FF278920A5548000DAB23D4034
:1030C0004A70AD0021181F404B59D243D2B2D817D5
:1030D0009146000E2A1D9046C0188A584B46001291
:1030E0005843D3171B0E9A1812127A432549801899
:1030F000FFF764F86063061C9020800021184B598C
:103100004A46D817000EC018001243465043CA580A
:103110001C49D3171B0E9A1812125743C019FFF7F8
:103120004DF80E21635E80215843C3179B0C1B187A
:103130000C22A05E992246439200F017A258800C00
:10314000090186195218B01380189A229200A258C9
:103150009B1352189B180C4A60632363904226DC31
:10316000002823DB084A934225DC002B38DB0DE0E6
:103170003075000084FCFF1F50600000505D0000AF
:10318000505E0000FCFF0300FF0F0000201CFFF753
:103190004BFCE388606B238103B00CBC90469946DE
:1031A000F0BDEC2300225B00E25020E600226263C7
:1031B000144A9342D9DD2263E8E723881248591163
:1031C000890045186E68FF22DB0041581340360A1B
:1031D0005E43090AD31A4B43F61850E6131C33E634
:1031E00000232363D2E72802401B3221FEF7E6FFCB
:1031F000FF2380B21B1A9BB200E714213822A1548E
:1032000041E7C046FF0F000040FCFF1F08B500204B
:1032100002F058F8014B01221A7008BDB4FCFF1FE0
:103220000B4A400C83189B049B145B43094A1B13F5
:103230005A43094992138A1A534380221B1452019C
:103240004004D31A002800DA5B4258047047C04695
:1032500000E0FFFFBC0D0000BC4D00004A43D3B2AC
:10326000591EC9B210B5FD2901D80133DBB21212C3
:1032700092008158801840680C12FF21C91A001270
:1032800061434343C81810BDF8B5234E440CA5193B
:10329000AD04AD146D43214E2D136E43204FB61374
:1032A000BE1B754380262D1476016404751B002C0B
:1032B00000DA6D426D04841015605460002823DB31
:1032C000C02424060019401090601648D0604800C1
:1032D0004118CCB2601EC0B2FD2801D80134E4B25E
:1032E00009128900565852185268FF203512001BE7
:1032F00012126843544359681A680019801A091554
:10330000FEF75CFF8002F8BD074C201A4010906069
:10331000E0200006DAE7C04600E0FFFFBC0D000039
:10332000BC4D0000FFFFFF1FFFFFFFBF70B5244D26
:10333000430C5C19A404A4146443224D2413654374
:10334000214EAD13751B6C43802524146D0184B090
:103350005B042C1B002B00DA64426404831000948D
:103360000193002825DBC0231B06C0184010174B13
:10337000029003934B005918CBB2581EC0B2FD28DF
:1033800001D80133DBB2091289006D466C58FF2069
:103390002412C01A604301AC615809124B435168B2
:1033A000C01813680915C01AFEF708FF800204B0A0
:1033B00070BD074B181A4010E02302901B06D8E797
:1033C00000E0FFFFBC0D0000BC4D0000FFFFFF1F31
:1033D000FFFFFFBF4318414001D4584001D4181CDF
:1033E000704780200006FBE7431A414001D4181CB7
:1033F00070475840FBD580200006F9E7031C401AAF
:10340000594004D480221206904203D07047021C17
:103410005A40F7D5D80F014BC018F7E7FFFFFF7FE1
:103420000A1C08B5C117D317FEF748FFCB130029B4
:103430000DDA01330DD101225242D31780185941C0
:1034400003040A04000CDB0F1043181808BD002BFE
:10345000F6D080200006F9E7D0B50F1CFB17C11786
:103460003A1C061CFEF72AFFCB13002909DA0133A8
:1034700014D0FC437440E40F63425C410A4BE018F3
:10348000D0BD002BF5D10304040C0A04DB0F144358
:10349000181980231B069842F2D1EAE70122524212
:1034A000D31780185941EEE7FFFFFF7FF8B5564666
:1034B0004D465F464446F0B48246894600293DD0D9
:1034C000CB17C217CE1885185E405540330D002724
:1034D000002B44D10F23334257D1360933424ED10A
:1034E000360933424DD1360933424CD136090124D5
:1034F000002D2BD001235B42984605E04D00013C96
:10350000002D23D0002C21DB281CFEF7B9FE231E42
:10351000834200DD031C9D40311C281CE41AFEF789
:10352000FFFD311C8346281CFEF73EFE5B46A34090
:10353000FF184346E3405A469A43DFD080200006F6
:103540003CBC90469946A246AB46F8BD01374B4677
:10355000524653407808002BF2DA4042F0E7710CF3
:103560000131281CFEF7DCFD0021321C0023071C62
:10357000FEF7A4FEC903400C08432D1AAAE70D2448
:10358000B6E70924B4E70524B2E7002DDED0112404
:10359000B0E7C04638B5041C0D1CFFF787FF80223A
:1035A0001206904200D038BD6C40FCD40048FAE7C7
:1035B000FFFFFF7F08B5FEF757FE081C08BDC04699
:1035C000F0B5474680B47849FEF74EFE774B0E1EA5
:1035D0009E4200DCBDE0764BCE18F417231C301C55
:1035E000211C321CFEF76AFECB13002900DBA4E08D
:1035F000013300D1D2E080231B06984601235F42AD
:103600003B1C301C211C4246FEF758FECB13002900
:1036100000DB81E0013300D1A8E08022012365486E
:1036200012065B423618391C4046FEF747FECB13A4
:10363000002962DA013300D19EE0802201235E4836
:1036400012065B423618391C4046FEF737FECB1394
:10365000002943DA013300D194E080220123574846
:1036600012065B423618391C4046FEF727FECB1384
:10367000002924DA013300D18AE080220123504856
:1036800012065B423618391C4046FEF717FE021C34
:103690000B1C3520C913002B05DA013160D030181E
:1036A00004BC9046F0BD0029F9D110041B04120C93
:1036B0001A43C00F80184349FEF780FDEFE7002B47
:1036C000DBD10B040404000C1843E40F2418201C65
:1036D0003D49FEF773FD221CE317D3E7002BBCD155
:1036E0000B040404000C1843E40F2418201C374971
:1036F000FEF764FD221CE317B4E7002B9DD10B04F9
:103700000404000C1843E40F2418201C7821FEF751
:1037100055FD221CE31795E7002B00D07DE70B0435
:103720000204040CD20F1C4314190621201C494228
:10373000FEF744FD221CE31774E7002B00D05AE784
:1037400003040A04000CDB0F10431B189846DF1714
:1037500056E71F4B994200DB3FE7134BCE183CE77F
:1037600001246442E51712196B419EE7012252427F
:10377000D31780185941D2E701246442E517001994
:103780006941BCE701246442E51700196941A7E7D4
:1037900001225242D3178018594192E70122524226
:1037A000D31780185941CBE77E4806003F24030019
:1037B00082B7F9FF55555515EFEEEEFE688006000D
:1037C000E3E8FFFF00EB9EFD8089050050ECFFFF62
:1037D000C1DBFCFFF0B57A4B4746C01880B479498D
:1037E000FEF742FD784B0E1E9E4200DCBDE0774B9B
:1037F000CE18F417231C301C211C321CFEF75EFD72
:10380000CB13002900DBA4E0013300D1D2E08023F8
:103810001B06984601235F423B1C301C211C42467C
:10382000FEF74CFDCB13002900DB81E0013300D112
:10383000A8E080220123664812065B423618391C34
:103840004046FEF73BFDCB13002962DA013300D17D
:103850009EE0802201235F4812065B423618391C25
:103860004046FEF72BFDCB13002943DA013300D18C
:1038700094E080220123584812065B423618391C16
:103880004046FEF71BFDCB13002924DA013300D19B
:103890008AE080220123514812065B423618391C07
:1038A0004046FEF70BFD021C0B1C3520C913002BF4
:1038B00005DA013160D0301804BC9046F0BD002913
:1038C000F9D110041B04120C1A43C00F801844498C
:1038D000FEF774FCEFE7002BDBD10B040404000CB3
:1038E0001843E40F2418201C3E49FEF767FC221CF5
:1038F000E317D3E7002BBCD10B040404000C1843DE
:10390000E40F2418201C3849FEF758FC221CE3174A
:10391000B4E7002B9DD10B040404000C1843E40F02
:103920002418201C7821FEF749FC221CE31795E798
:10393000002B00D07DE70B040204040CD20F1C43C3
:1039400014190621201C4942FEF738FC221CE317FB
:1039500074E7002B00D05AE703040A04000CDB0FC5
:1039600010431B189846DF1756E7204B994200DB9F
:103970003FE7144BCE183CE701246442E5171219C7
:103980006B419EE701225242D31780185941D2E77A
:1039900001246442E51700196941BCE7012464422F
:1039A000E51700196941A7E701225242D317801891
:1039B000594192E701225242D31780185941CBE76F
:1039C0001F9201007E4806003F24030082B7F9FFE2
:1039D00055555515EFEEEEFE68800600E3E8FFFF53
:1039E00000EB9EFD8089050050ECFFFFC1DBFCFF72
:1039F000DC4B70B51A68DC4D01321A602B68DB4C69
:103A0000FF220833134060692B6001F067FFD84E36
:103A10008023F3582A68A069934200DCBDE101F0DD
:103A20007DFCE06901F0F6FAE06901F0F9FAF36F64
:103A30002A68A069934200DC00E201F06FFCE069B3
:103A400001F0E8FAE06901F0EBFAB36F2A68A069C7
:103A5000934200DCEFE101F061FCE06901F0DAFA89
:103A6000E06901F0DDFA736F2A68A069934200DC17
:103A7000DEE101F053FCE06901F0CCFAE06901F00D
:103A8000CFFA336F2A68A069934200DCCDE101F0E0
:103A900045FCE06901F0BEFAE06901F0C1FAF36E9D
:103AA0002A68A069934200DCBCE101F037FCE069C0
:103AB00001F0B0FAE06901F0B3FAB36E2A68A069C8
:103AC000934200DCABE101F029FCE06901F0A2FACD
:103AD000E06901F0A5FA736E2A68A069934200DCE0
:103AE0009AE101F01BFCE06901F094FAE06901F051
:103AF00097FA336E2A68A069934200DC89E101F0ED
:103B00000DFCE06901F086FAE06901F089FA892389
:103B1000F35C2A68A069934200DC77E101F0FEFBC8
:103B2000E06901F077FAE06901F07AFA3823F35C92
:103B3000A069002B00D166E101F0EAFBE06901F029
:103B400069FAE06901F06CFA3923F35CA069002B93
:103B500000D155E101F0DCFBE06901F05BFAE069BE
:103B600001F05EFAF36B2A68A069934200DC44E13D
:103B700001F0D4FBE06901F04DFAE06901F050FA80
:103B80008423F35C2A68A069934200DC32E101F0EF
:103B9000C5FBE06901F03EFAE06901F041FA8523D6
:103BA000F35C2A68A069934200DC20E101F0B6FBD7
:103BB000E06901F02FFAE06901F032FA8623F35C44
:103BC0002A68A069934200DC0EE101F0A7FBE069DE
:103BD00001F020FAE06901F023FA336C2A68A06949
:103BE000934200DCFDE001F099FBE06901F012FA7C
:103BF000E06901F015FA736C2A68A069934200DC51
:103C0000ECE001F08BFBE06901F004FAE06901F0FF
:103C100007FAB36C2A68A069934200DCDBE001F08C
:103C20007DFBE06901F0F6F9E06901F0F9F9F36C68
:103C30002A68A069934200DCCAE001F06FFBE069EA
:103C400001F0E8F9E06901F0EBF9336D2A68A06949
:103C5000934200DCB9E001F061FBE06901F0DAF9C0
:103C6000E06901F0DDF9736D2A68A069934200DC18
:103C7000A8E001F053FBE06901F0CCF9E06901F044
:103C8000CFF9B36D2A68A069934200DC97E001F098
:103C900045FBE06901F0BEF9E06901F0C1F9F36D9F
:103CA0002A68A069934200DC86E001F037FBE069F6
:103CB00001F0B0F9E06901F0B3F9E06A01F054FBFA
:103CC000A06A01F0D3F9A06A01F0D6F9E06A01F028
:103CD0004BFBA06A01F0CAF9A06A01F0CDF9882374
:103CE000F35C2A68E06A934263DD01F043FBA06A5B
:103CF00001F0BCF9A06A01F0BFF98723F35C2A68E0
:103D0000E06A934252DD01F035FBA06A01F0AEF9A2
:103D1000A06A01F0B1F98623F35C2A68E06A934255
:103D200041DD01F027FBA06A01F0A0F9A06A01F0D3
:103D3000A3F98523F35C2A68E06A934230DD01F041
:103D400019FBA06A01F092F9A06A01F095F98423A9
:103D5000F25C2B68E06A9A4200DD72E001F004FB3D
:103D600008E0C046F0FCFF1FB0FCFF1F6CFDFF1F0A
:103D70001CFEFF1FA06A01F079F9A06A01F07CF92E
:103D8000E06A01F0F1FAA06A01F070F9A06A01F0AE
:103D900073F9606901F0A8FD70BD01F0B9FA40E661
:103DA00001F0E2FACDE701F0DFFABCE701F0DCFA5E
:103DB000ABE701F0D9FA9AE701F0AAFA77E701F048
:103DC000A7FA66E701F0A4FA55E701F0A1FA44E783
:103DD00001F09EFA33E701F09BFA22E701F098FA2E
:103DE00011E701F095FA00E701F092FAEFE601F031
:103DF0008FFADDE601F08CFACBE601F089FAB9E63C
:103E000001F08CFAA8E601F089FA97E601F080FA51
:103E100086E601F07DFA74E601F07AFA63E601F0D5
:103E200077FA52E601F074FA41E601F071FA30E6F1
:103E300001F06EFA1FE601F06BFA0EE601F068FA87
:103E4000FDE501F097FA95E770B5E24C2368013380
:103E50002360FFF7CDFD2268012A00DC11E1DE4B73
:103E600000261A68266001321A60DC4B01241D68A6
:103E700001351D602540012D00D103E1D84DD94900
:103E8000281CFEF797FF6A6BD74B2D6B1A60D74B38
:103E900000201D6001F010FAD54BD64A1E70136841
:103EA000802083431360D44B2D051E68C021264318
:103EB0001E601E682D0DA6431E601668890186438C
:103EC00016601E68294326431E601E680D0AA6431D
:103ED0001E601668C9B2064316601E6826431E603F
:103EE0001E68A6431E601668064316601E682643B9
:103EF0001E601E68A6431E602B0700D584E1136870
:103F000083431360BC4B0122186810431860186883
:103F100090431860B74B6A0700D51CE11A688020EF
:103F200082431A60B44B0122186810431860186865
:103F300090431860AB0700D560E1AE4B80201A6853
:103F400082431A60AC4B012218681043186018684D
:103F500090431860A74B2A4200D0F7E01A688020EF
:103F600082431A60A44B0122186810431860186835
:103F7000904318600A1C7F239A43131E802B00D1A4
:103F80000DE19C4B80201A6882431A609A4B0122F3
:103F90001868104318601868904318604B0600D5E5
:103FA000F7E0944B80201A6882431A60924B0122FA
:103FB0001868104318601868904318608D4B8A0683
:103FC00000D5F7E01A68802082431A608A4B0122EC
:103FD000186810431860186890431860CB0600D525
:103FE000E2E0844B80201A6882431A60824B0122EF
:103FF0001868104318601868904318607D4B0A07D2
:1040000000D5C1E01A68802082431A607A4B0122F1
:104010001868104318601868904318604B0700D563
:10402000ACE0744B80201A6882431A60724B012204
:104030001868104318601868904318606D4B8A0721
:1040400000D596E01A68802082431A606A4B0122EC
:10405000186810431860186890431860654B0A424E
:1040600000D081E01A6880218A431A60624B0122E5
:10407000196800201143196019689143196001F013
:1040800021F970BD584B00201C6801F015F9584B00
:10409000584A1E701368802003431360564B240552
:1040A0001E68B0212E431E601E68240DAE431E60A4
:1040B00016680902864316601E6821432E431E605F
:1040C0001E680C0AAE431E601668C9B2064316602D
:1040D0001E682E431E601E68AE431E6016680643AF
:1040E00016601E682E431E601E68AE431E602307C6
:1040F00036D41368834313603F4B01221868104382
:1041000018601868904318603A4B62075DD41A68CB
:10411000802082431A60384B0122186810431860CF
:10412000186890431860A30749D4324B80201A685E
:1041300082431A60304B01221868104318601868D7
:10414000904318602B4B224200D107E71868802269
:1041500002431A6006E71868802202431A60E1E60B
:10416000136818431060C7E7196880220A431A6071
:104170007CE71868802202431A6067E71D4B8022A3
:10418000186802431A6051E71868802202431A60D7
:104190003CE7184B8022186802431A6006E7154A6C
:1041A000106803431360F1E6124B80221868024343
:1041B0001A601BE71868802202431A6006E70D4B5D
:1041C0008022186802431A60B4E71868802202430C
:1041D0001A60A0E7E8FCFF1FDCFCFF1FE0FCFF1FEC
:1041E0001CFEFF1FF0FDFF1FECFCFF1FE4FCFF1F88
:1041F000B4FCFF1F00F00F4040F00F40044B802242
:10420000186802431A609DE613681843106079E647
:1042100000F00F4070B582B000236A460020694666
:10422000137001F0D9F86A461378154A1370102BF1
:1042300010D00020102101F0A3F8124D01242B19F9
:10424000013BA0B21978013401F09AF80D2CF6D197
:1042500002B070BD0B4D012400266B46A0B269462A
:104260001E7001F0B9F86B461A782B19013B013426
:104270001A700D2CF1D1281CFEF7C4FAE8E7C046ED
:10428000D8FCFF1FF0FDFF1F08B50248FEF702FA39
:1042900008BDC0461CFEFF1F08B5C1B2024A034854
:1042A000FEF796FA08BDC046F0FDFF1F1CFEFF1F7B
:1042B000F0B5454657464E46E0B400F04BFF904EF1
:1042C0000025301CFEF726FA8E4C8F48211CFEF785
:1042D00093FA8E4B802252041A605A609A60DA6018
:1042E0001A615A61C82196228900120159831A83E2
:1042F000D9839A83FFF78EFF216899239B00F150A1
:1043000062689A239B00F250814A80235B00D3614C
:10431000804A01201360804B8022596900240A439F
:104320005A617E4B01225969FF270A435A6100F006
:10433000B9FB00F007FB002000F04CFB8022904608
:1043400030E0F4633466012D00D1D3E03464746648
:10435000022D00D1BEE07464B466032D00D1B0E03C
:10436000B464F466042D00D1A2E0F4643467052D32
:1043700026D034657467062D00D1B6E07465B46745
:10438000072D00D188E0B465F467082D1FD043469F
:10439000F450F4650135FFF72BFB142001F0B8FC55
:1043A000092D1DD0002DCCD1F763376635647566B5
:1043B0007564B566B464F466F4643467052DD8D1C9
:1043C000376577677465B467B465F46766E0FF23A3
:1043D0008022B350F365FFF70BFB142001F098FC2B
:1043E000072180228846082791460024FF2534E0D3
:1043F000F4633466012F00D111E234647466022F35
:1044000000D105E27464B466032F00D1F9E1B4640D
:10441000F466042F2DD0F4643467052F00D1E9E150
:1044200034657467062F00D1DFE17465B467072F28
:1044300000D1D7E1B465F467082F24D04A46B450C0
:10444000F465FFF7D5FA142001F062FC434601330E
:1044500066D001214942013F8844002FC8D1F5634D
:104460003566376477667764B766B464F466042F9C
:10447000D1D1F5643567346574677465B467B46524
:10448000F467082FDAD14B46F550F565FFF7B0FA1F
:10449000142001F03DFCDCE7B765F7674246B450F5
:1044A000F465FFF7A5FA142001F032FC013579E735
:1044B000F7643767346574677465B467B465F46727
:1044C00065E7B764F766F4643467346574677465E8
:1044D000B46758E77764B766B464F466F464346725
:1044E00034657467062D00D048E77765B767B46513
:1044F000F467D3E7376477667464B4665AE7C046F6
:104500001CFEFF1FF0FDFF1F18FEFF1FA000002074
:104510000090044000A0044000F00F4040F00F4025
:1045200088210024872700258846002C00D151E1EE
:104530008423F554012C00D145E18523F554022C48
:1045400000D13BE18623F554032C00D12BE1F55536
:10455000042C00D11EE14246B5540134FFF748FA5D
:10456000142001F0D5FB052CDFD1032288239046CF
:104570000424994600258727002C00D102E18423DA
:10458000F554012C00D1F6E08523F554022C00D11E
:10459000ECE08623F554032C00D1E4E0F555042C1F
:1045A00000D1D3E049467554FFF722FA142001F0F8
:1045B000AFFB4246013200D0D0E0FFF719FA9B4B27
:1045C000986801F07FFBFFF713FA99490023994C93
:1045D000994F9A4D984689462368012BFCD13B6838
:1045E0000F2B00D880E0FA221202934200D99CE0FF
:1045F000103B1804C01A9249FDF792FD2860C04391
:1046000080B282467B680F2B75D9FA221202934240
:1046100000D987E0103B1804C01A8949FDF780FDD6
:104620006860BB680F2B6BD9FA221202934200D943
:1046300083E0103B1804C01A8149FDF771FDA860A2
:10464000FB680F2B61D9FA221202934272D8103BF9
:104650001804C01A7A49FDF763FDE8603B690F2B27
:1046600058D9FA22120293426DD8103B1804C01A8E
:104670007349FDF755FD28617B690F2B4FD9FA224D
:10468000120293425CD8103B1804C01A6C49FDF723
:1046900047FD68615046FEF7B1F96A68A968B080C5
:1046A000D043CB4380B27380FEF7A8F9EB6849464C
:1046B000CA1AD21132802A696249DB4373815310CE
:1046C0006A695B18B38153105B18A4210009490083
:1046D000F080F38170184346311C2360FDF786FE9D
:1046E000002000F077F977E7514A7B68414629605E
:1046F00092460F2B89D8BB68414669600F2B93D82F
:104700004346AB60FB680F2B9DD83B694246EA608D
:104710000F2BA6D87B69414629610F2BAFD84346A2
:104720006B61B7E74B466B607BE74A4600232A6024
:104730009A4667E74946E96090E74A46AA607FE7FC
:104740004A466A61A6E74B462B6195E7FF23494637
:104750007354FFF74DF9142001F0DAFA01235B429C
:10476000013C984408E7FF23F3551BE7FF2286230B
:10477000F254F55516E78523FF22F2548623F554AB
:10478000F5550FE78423FF22F2548523F454862342
:10479000F45403E7FF228823F254FFF729F9142089
:1047A00001F0B6FAE1E6FF23F3554346F554FFF76F
:1047B0001FF9142001F0ACFA0134B6E6FF2286237B
:1047C000F254F555F1E78523FF22F2548623F55480
:1047D000F555C0E68423FF22F2548523F454862342
:1047E000F454F5E7B565F56728E67565B567B46512
:1047F000F46723E6356575677465B467B465F46777
:104800001CE6B564F566F4643467346574670CE6D9
:104810007564B566B464F466F464346700E63564C0
:1048200075667464B466B464F466F4E56CFDFF1FE9
:10483000FFFF0000D4FCFF1F00FEFF1F88000020C8
:10484000F0F9000000C0FFFF1C4BF0B5002B00D1B9
:10485000F0BD002703250126D81902684168002A07
:1048600026D1002904D18268002AF1D00C37F3E761
:1048700080680028FAD0141C0C43254208D1032874
:1048800006D910CA043810C10028F4D10C37E3E768
:10489000264207D1012805D9148802380C8002323B
:1048A0000231E6E7147801380C7001320131E0E79B
:1048B00080688A42DDD10C37CEE7C04638620000FE
:1048C0007047C0467047C04638B5FFF7F9FF00F0A3
:1048D000E7FB184B181C002805D0854681B0002046
:1048E000C043009001B0144B144AD21A08D1FFF70C
:1048F000ABFFFFF7E7FF00201149FFF7D9FCFEE708
:10490000032501240020291C194006D1032A04D9BB
:1049100002C3043A002AF6D1E9E7211C194005D167
:10492000012A03D91980023A0233F3E71870013AD9
:104930000133EFE7000C0020B8FCFF1FD800002077
:10494000F4FCFF1F38B51C4B08201A78D2B2002A9D
:1049500000D038BD02211970197800200029F8D044
:104960001B78032B17D0154B15491A70154B1A706D
:10497000154B1A805A809A80DA801A815A81002356
:104980000B70124C0122206800F08CF9206800F0B6
:1049900073F90020DDE70B4B08491C780C4D0878B3
:1049A0002C5DA043087018780749400042521B78DC
:1049B00003490B70E5E7C0461EFDFF1F1CFDFF1FEE
:1049C00020FDFF1F1DFDFF1FC0000020CC000020A8
:1049D00050610000F8B51F4C051C23780820DBB29D
:1049E000002B00D0F8BD012222702278002A07D1C6
:1049F0000020002DF6D02378012BFCD00020F1E719
:104A00002278032A15D0144A14491370144A0B70E3
:104A10001370144A138053809380D3801381538181
:104A2000114E0122306800F03DF9306800F024F9A1
:104A3000DEE70B4A084916780C4F0878BE5DB04394
:104A400008701078074940004352137803490B70EF
:104A5000E6E7C0461EFDFF1F1CFDFF1F20FDFF1FD8
:104A60001DFDFF1FC0000020CC0000205061000091
:104A700010B50223052801D9181C10BD064B1A7861
:104A8000064B1C5C09231442F6D0054B4000C35A68
:104A90001B010B800023EFE71CFDFF1F506100008E
:104AA000C000002070B5114C061C22780820002A96
:104AB00000D070BD0E4D04232868237000F022F949
:104AC000286800F049F9002E0DD0286800F01AF986
:104AD0000028FAD0286800F055F9002803D00023F8
:104AE00023701B20E5E70020E3E7C0461EFDFF1F03
:104AF000CC000020F8B5254D2B78042B3CD02B782A
:104B0000234C2178032B24D0224B234E4900C91873
:104B1000306800F0E3F823780133DBB223702378A8
:104B2000062B0AD023781D4930680B70012200F053
:104B3000B9F8306800F0A0F8F8BD194B3F22002703
:104B400027701A70FDF7E8FB2B78012BEAD12F7044
:104B5000F2E7114B490018680E4BC91800F0BEF877
:104B600022780F4B0F481978825C0A431A70FDF7C0
:104B7000D3FB00232B70DFE7074B186800F002F926
:104B800000232B70FDF7E4FBD6E7C0461EFDFF1F98
:104B90001DFDFF1FC0000020CC00002020FDFF1FD6
:104BA0001CFDFF1F50610000054A08B5002313706B
:104BB000044A0020137000F009F8034B186008BD88
:104BC0001CFDFF1F1EFDFF1FCC000020204A214BB3
:104BD00030B521491A600024204B14709470CD58D0
:104BE0005060802000052843C8501D4BC321890018
:104BF0005D5880202D022D0A000628435850186861
:104C00008021090201431960164B1749586B08406F
:104C10005863D86A0840D8621448056A0D40056296
:104C2000456A0D404562986A08409862986801405C
:104C300099600F4B57219960D9680F208143D96043
:104C400040211C6259620B4B101CDA6030BDC0461B
:104C50002CFDFF1F28FDFF1F007004403C100000CA
:104C600000E100E000A00440FFF8FFFE00900440D7
:104C700000B003406CFDFF1F094B10B5196A0822F4
:104C80000C0601D5101C10BD5A6A48218A435A628D
:104C90001A6A40218A431A6242781A600022F1E7B8
:104CA00000B0034030B59623012A01D0181C30BD56
:104CB000084B1C6A08232506F8D402700A78822360
:104CC000052AF3D8044B9A5C402313434370002316
:104CD000ECE7C04600B003405861000030B50278F0
:104CE0000023002A0AD0064D1A1D920054595A007A
:104CF000545201330278DBB29A42F5D8002030BD1D
:104D000000B00340124B82B06946021CEFF31080E2
:104D100072B6087019780131C9B21970012911D021
:104D20000020917890701A78013AD2B21A70002A55
:104D300003D1084B187880F310884B1E9941C8B2F4
:104D400002B070476946087802490870E8E7C04633
:104D50003CFDFF1FD6000020094B8022196A082065
:104D60000A4200D07047196A4020814319625F21CE
:104D70001960596AC02081430A435A620020F1E752
:104D800000B003400B4B1B205A6A510600D57047F8
:104D9000DA6C996C002089185A6C89181A6C891879
:104DA000DA6B89189A6B89188022490812020A4323
:104DB000DA62ECE700B0034008B5054B01221B683E
:104DC0009A705868FFF796FE024B1B6908BDC046F3
:104DD00028FDFF1F00B00340F0B5474680B4051C16
:104DE00082B00B1C171C002905D13980002002B0AD
:104DF00004BC9046F0BD234C1A1C2068291C0023DB
:104E000000F04AFC082834D01F4A002500269046AE
:104E1000206800F049FB206800F090FC002811D1C8
:104E2000206800F093FCB0421ED0206800F08EFC99
:104E3000061C206800F038FB2068002500F07EFC8E
:104E40000028EDD0206800F081FC69463880206899
:104E500000F012FD6A461388002B0CD1FA23DB0008
:104E60009D4206D00020C2E70135ADB24545CFD9FD
:104E7000E8E70C20BBE708201A07B8D415205A072A
:104E8000B5D4EBE7D0000020CF070000F0B54746CF
:104E900080B4051C84B00B1C171C002905D1398077
:104EA000002004B004BC9046F0BD2A4C1A1C2068B7
:104EB000291C012300F04CFC082842D0264A00257A
:104EC00000269046206800F0EFFA206800F092FC7F
:104ED000002811D1206800F095FCB0422CD0206849
:104EE00000F090FC061C206800F0DEFA2068002527
:104EF00000F080FC0028EDD0206800F083FC02AEBA
:104F00003880311C206800F0B7FC3388002B1AD1A0
:104F1000FA23DB009D4214D01D1C03E0013DADB21D
:104F2000002D0ED02068694600F0ACFC6A4613786C
:104F3000012BF3D10020B4E70135ADB24545C1D90D
:104F4000DAE70C20ADE708201A07AAD415205A0783
:104F5000A7D4DDE7D0000020CF07000030B50F4B0D
:104F600020219A78FA248A439A709A7810218A43E9
:104F700083B09A70E4000A4D03E0013CA4B2002C17
:104F80000AD02868694600F07DFC6A461378012B38
:104F9000F3D1002003B030BD0C20FBE700600640D9
:104FA000D000002008B5054B7F221B68024000217D
:104FB000181C00F029FCC0B208BDC046D00000207B
:104FC00008B5002000F024FB014B186008BDC04666
:104FD000D00000200A4B0B4A40211060586908435A
:104FE0005861186888431860074B08499869014060
:104FF0008020400001439961054B101CDA61704725
:1050000040F00F4034FDFF1F00A00440FFF8FFFEFA
:105010006CFDFF1F014B40229A60704740F00FF873
:10502000014B40225A60704740F00FF80A4B0B4A80
:105030001021106058690843586118688843186047
:10504000074B08491869014080204000014319615D
:10505000054B101C9A62704700F00F4038FDFF1F8F
:1050600000900440FFF8FFFE6CFDFF1F014B102273
:105070009A60704700F00FF8014B10225A60704799
:1050800000F00FF808B500F095FC08BD08B500F079
:1050900081FD08BD08B5FDF733F908BDFFBE7047B7
:1050A000214B224A2249D150224B88220021520111
:1050B0009950214AC02189029950204AC02198580C
:1050C000C900014399501E4B9A78110704D599786D
:1050D00008220A43D2B29A70164B174A802149021D
:1050E0009950184A184998580140802040040143BB
:1050F0009950164906230B704B78402213404B7091
:10510000CB781F221340A0221343CB70104B802278
:105110001A7010228B791A42FCD00C490C228B7920
:105120001A42FCD17047C046080D000000E000E0C4
:1051300000200000007004404410000038100000FF
:1051400000D0074004100000FFFFFFFC00400640B5
:105150000050064070B53C4B1F215A793B488A43AA
:105160005A711A7907218A431A71394B73211A78B7
:10517000C7248A4350210A431A705A7863218A430C
:1051800040210A435A709A7819218A439A70314B08
:1051900000221A70304B0222D968A400014011434A
:1051A000D9601969014011431961196B014011431C
:1051B00019632A490D592D042D0C0D51284C294DE8
:1051C000666935406561284CA56A28401043A06295
:1051D00026484469944344615868254A0240C020E7
:1051E000800002435A60C1239B00C858214A0240F4
:1051F000CA50002000F0FAFB002000F04DFDFFF740
:10520000D3FC00F077FB002000F036F8002000F01F
:1052100045FB002000F05CF80020FFF7DBFE0020DB
:1052200000F090FB00F078FBFFF7CAFE00F026F9D3
:105230000020FFF7FBFE002000F076F8002000F0D1
:1052400075FC62B670BDC04600F00740FDFFFFFE72
:1052500000D0074000E007400090044000E100E07B
:1052600000F00F40FFEFFFFF00A0044040F00F40B0
:10527000FFF8FFFEFFFF00FF0A4B0B4A20211060E2
:10528000586908435861186801431960074B084979
:10529000586901408020400001435961054B101CB2
:1052A0001A61704700F00F4040FDFF1F009004405E
:1052B000FFF8FFFE6CFDFF1F014B20229A60704734
:1052C00000F00FF8014B20225A60704700F00FF8F1
:1052D0000A4B0B4A802110605869084358611868CE
:1052E00088431860074B0849D86901408020400076
:1052F0000143D961054B101C9A61704740F00F4083
:1053000044FDFF1F00A00440FFF8FFFE6CFDFF1FDF
:10531000014B80229A60704740F00FF8014B8022C9
:105320005A60704740F00FF80A4B0B4A0821106092
:10533000586908435861186888431860074B084942
:10534000D8680140802040000143D960054B101C03
:10535000DA62704700F00F4048FDFF1F00900440E4
:10536000FFF8FFFE6CFDFF1F014B08229A6070479B
:1053700000F00FF8014B08225A60704700F00FF858
:1053800070B5041C40055023400F82B018430E1C1A
:1053900000F046F8051E1AD16A4614705670684629
:1053A0000221002200F056F8051E10D1FF236A46A4
:1053B0001370002000F0ACFC684601210022642339
:1053C00000F05EF80028F4D100F032F802E000F0BE
:1053D0002FF8281C02B070BD30B583B06B46187032
:1053E0004305580F502318430D1C00F019F8041EF4
:1053F00010D168460121012200F02CF8041E09D1C9
:10540000281C0121002200F015F8041E02D100F032
:105410000FF802E000F00CF8201C03B030BDC046CD
:1054200008B5FFF7BFFD002800D01B2008BDC0460F
:105430000020704710B582B0141C6A46FFF726FDA5
:10544000002801D1002C01D002B010BDFFF786FD6D
:10545000FAE7C04630B583B0151C6A46FFF7BCFCBE
:10546000041E08D102239D4302D1FFF777FD041CDF
:10547000201C03B030BDFFF771FDF9E77047C0464F
:1054800030B583B0151C6A46FFF7A6FC041E08D190
:10549000002D02D0201C03B030BDFFF75FFD041CBF
:1054A000F8E7FFF75BFDF5E770B5584B0222D978B6
:1054B0000A4226D0D978DC781225AC43C9B20C4315
:1054C000DC709C7820252C401CD09E78102434421F
:1054D00027D102894189013A92B201310281418189
:1054E000002A34D0012A56D0C3685A1CC260474AE9
:1054F00012791A700389002B03D1427802231343D7
:10550000437070BD10220A42FBD0048204810478EB
:1055100001218C4381700470997891439970042221
:1055200011E001260E421ED09A78AA439A709A780A
:10553000A2439A7000230382038103780622B343B7
:10554000134303700822838813438380D9E70278CA
:1055500001218A4302709A780821AA439A709A78A6
:105560008A439A70C0E701780A420DD0028A002A65
:1055700016D0013A0282428A013242824269511CAB
:10558000416112781A71BCE782791A71027802239C
:1055900013430370B5E7997808220A439A70A3E78A
:1055A0000289002A0FD004244D0716D5012A28D0DD
:1055B0009A7808218A439A70144B10219A788A436A
:1055C0009A701B799DE78278B1430170012A11D04E
:1055D000427801231343437093E79A782243D2B26F
:1055E0009A70C17901220A43D2B21A7103781C431E
:1055F000047086E79A78AA439A709A78A2439A70C0
:10560000E6E7997808220A439A70D5E700600640D9
:105610001A4B202270B51A7010229A7101229A70CA
:10562000002298615A811A815A821A829A80002136
:105630001348144A5970855840242C438450124A08
:105640005020917090710220D0701048104D066962
:1056500080242E40A40026430661C66835402C43B2
:10566000C460517191712C21517090788021014357
:105670009170084A181C536270BDC0464CFDFF1F54
:1056800000700440341000000060064000A0044098
:10569000FFF8FFFE6CFDFF1FF0B5002A35D08578BE
:1056A000012D05D006780824F50709D5201CF0BD8A
:1056B000214CE6780824B706F8D406783542F5D1AF
:1056C000058A002DF2D101244161837000211A4B1B
:1056D0002643028206704182997810220A439A700A
:1056E0009A789978970612D420220A43D2B29A70F7
:1056F000037899060FD410221A4014D11D0704D53F
:1057000002210B4303700C4B1A710024CEE70422D4
:105710000A439A70ECE70622134303708279064B22
:1057200000241A71C2E7062293430370C279024B28
:1057300000241A71BAE7C04600600640437801228F
:10574000191C91434170101C18407047408A7047E3
:10575000F0B5041C002A12D08120002B00D1F0BD2E
:10576000257809202E07FAD4A678012E09D0082022
:10577000EE07F4D4208900280DD00820EFE70020A0
:10578000EDE71B48C078844667460820BF06E6D48C
:105790002E42E4D1EEE70126A3703543144B22815B
:1057A0002570E1606081997810220A439A709A7896
:1057B000997897060ED504220A439A7023789906A1
:1057C0000DD4DA06DBD5062293432370E279084B29
:1057D0001A71C4E720220A43D2B29A70EEE7062279
:1057E0001343A279237001231A43014B1A71B6E7C0
:1057F0000060064043780222191C91439B074170C8
:10580000D80F70474089704730B504780823E50702
:1058100001D5181C30BD012916D0002908D0022955
:1058200025D130239C4308231C4304700023F0E758
:1058300089237F2AEDD818239C4320231C43520040
:10584000827104700023E4E70A4989238A42E0D880
:1058500006238271D2091A4010235B421A4328237F
:105860009C4310231C43C27104700023D1E78D2395
:10587000CFE7C046FF03000083880B8000238380AE
:1058800000207047044B0122DB7800205B09534065
:10589000012213400B707047006006400A4B0B4A10
:1058A00020211060586908435861186888431860BF
:1058B000074B084958690140802040000143596165
:1058C000054B101C5A61704740F00F4068FDFF1FE8
:1058D00000A00440FFF8FFFE6CFDFF1F014B2022DB
:1058E0009A60704740F00FF8014B20225A607047D1
:1058F00040F00FF8064B0822596811435960996827
:10590000914399605969034A0A405A617047C046F9
:1059100000F00F40E7EFFFFF074B80225968D200ED
:105920000A435A609968054A0A409A605969044ACC
:105930000A405A617047C04640F00F40FFFBFFFF2E
:10594000FBFBFFFF124B134A10B51360124A18609D
:105950001249106B01408020400001431163106B1D
:105960000F4901400F48014311630F4AC7218900C5
:1059700054580E482040802424042043505010687E
:105980008021C90501431160094A181C136210BD2A
:10599000A4FDFF1FA0FDFF1F00900440FFF8FFFEC5
:1059A000FFFFF0FE00000B0100E100E0FFFF00FF41
:1059B0006CFDFF1F08B5074B80221868064B520488
:1059C000196B114205D0196B00680A431A63FCF782
:1059D000C1FC08BDA0FDFF1F00900440024B1869E8
:1059E000C004C00F7047C04600F00F401F4B204A54
:1059F00030B5136000221A6098619A809A819A608B
:105A0000DA819A821A6100211A481B4A99758558D1
:105A10008024E4032C438450184AC2208000155887
:105A2000174C2C4080252D042C43145014688020E2
:105A3000C00020431060134A134CD569C020254094
:105A400080000543D561114A15682C402043106041
:105A50000F4A1E2010701020507091701078402155
:105A6000014311700B4A181C136030BDACFDFF1FC1
:105A7000A8FDFF1F007004403410000000E100E0AA
:105A8000FFFF00FF00900440FFF8FFFE00A004406D
:105A9000006007406CFDFF1F38B5224B1C68224B8D
:105AA000DD78EDB26AB2002A19DB20232B4210D038
:105AB000E189A28A91420DD223695A1C22611A7887
:105AC000194B5A71E389A28A01339BB2E3819A424E
:105AD0001ED038BD144A117899431170F9E7A28994
:105AE000002AE2D0A268511CA16059791170A288E5
:105AF000A189013292B2A2809142D6D11A787F2137
:105B00000A401A700023A381A069FCF7FFFBCCE7D1
:105B1000A27D0023A38201231343A375A069FCF790
:105B2000F1FBD6E7A8FDFF1F00600740124B134AA8
:105B300010B51360124A1860124950680140802065
:105B400040000143516050680F49014085204004E6
:105B500001435160C7200D4A80001458802124025F
:105B60000906240A0C431450106801431160084AC6
:105B7000181C136310BDC046CCFDFF1FC8FDFF1FDE
:105B800000A00440FFF8FFFEFFFFF0FE00E100E090
:105B90006CFDFF1F08B5074B80221868064B5204A6
:105BA0005968114205D0596800680A435A60FCF7E9
:105BB000DBFB08BDC8FDFF1F00A0044008B5FCF7D3
:105BC000A7FB08BD1A4A70B55368002B05D01A7A96
:105BD000D86001321A72181C70BD1649164CC86084
:105BE0000120087215488025016015486D0426586B
:105BF000354325501348C42403604360C3604361A8
:105C0000114BA400836080235B000B6008234B6072
:105C10000E4B0F4D1E5935401D511D688024A402A6
:105C20002C431C604023036051600B1CD3E7C0462B
:105C30006CFDFF1FD4FDFF1F00700440D0FDFF1F4F
:105C40003C10000000800340BC12000000E100E0B6
:105C5000FF00FFFF044B98211A688A434168002027
:105C60000A431A607047C0460080034008B5084BDD
:105C700080221868074B19680A4208D00168C905D4
:105C800005D51968C0680A431A6000F027F808BDF6
:105C9000D0FDFF1F0080034038B5084C084DA060C0
:105CA000002300202371AC60FFF78CFF20600028E8
:105CB00001D0201C38BDA860FCE7C046E4FDFF1FF2
:105CC0006CFDFF1F08B50379002B04D1012303717C
:105CD0000068FFF7BFFF002008BDC04608B5034BB2
:105CE0009B689868FFF76AFF08BDC0466CFDFF1F00
:105CF000C046C046C04670470020C046C046C046A9
:105D0000C046C04601300928F7D9C0467047C04692
:105D100038B5051E12D0E024FF34013CA4B2FFF7D1
:105D2000EBFF002CF9D10724013CA4B2FFF7E0FF00
:105D3000002CF9D1013DADB2002DECD138BDC046EB
:105D4000031C8218934202D019700133FAE770479E
:105D50000000C03FB828253E0A62AC3CD689383BDB
:105D6000510FCA395438623872C20337F525AF353E
:105D70006A2F67348D882F33993F0C32F4FE03313C
:105D8000FDCB1F305F476F2F9E080B2F0F1F252F56
:105D900001884630D8C23B335FA73636F3BA313973
:105DA00087CE2C3C1BE2273F97A6693DFF196D3A31
:105DB000678D7037CF007434377477319FE77A2E50
:105DC000075B7E2B526C7F2B0E4DFF2CCA2D7F2E36
:105DD000860EFF2F42EF7E31FECFFE32BAB07E3408
:105DE0007691FE3532727E37EE52FE38AA337E3A15
:105DF0006614FE3B22F57D3DDED5FD3E63D1BD3F01
:105E000027ECBD3FEB06BE3FAF21BE3F733CBE3F1C
:105E10003757BE3FFB71BE3FBF8CBE3F83A7BE3F1F
:105E200047C2BE3F0BDDBE3FCFF7BE3F9312BF3F21
:105E3000572DBF3F1B48BF3FDF62BF3FA37DBF3F22
:105E40006798BF3F2BB3BF3FEFCDBF3FB3E8BF3F26
:105E500070D3F003F33B110401AF32042135550434
:105E600033D778044A9E9D04DB93C30496C1EA04A9
:105E70008431130501EE3C05B9016805BD77940531
:105E80005F5BC20562B8F105EB9A22067A0F5506F0
:105E9000FE228906C9E2BE06995CF6069E9E2F0781
