:10040000FFFFFFFFFFFFFFFFFFFFFFFF7EFBFFFF81
:10200000000C002075470000054F00000D4F000038
:102010000D4F00000D4F00000D4F00000D4F000050
:102020000D4F00000D4F00000D4F00000D4F000040
:102030000D4F00000D4F00000D4F00000D4F000030
:102040000D4F00000D4F00000D4F00000D4F000020
:102050000D4F00000D4F00000D4F00000D4F000010
:10206000195300000D4F00006D5900000D4F000086
:102070000D4F00000D4F00000D4F0000654C00009B
:102080000D4F0000415B00000D4F00000D4F0000A0
:102090000D4F00000D4F00000D4F00000D4F0000D0
:1020A0000D4F00000D4F00000D4F00000D4F0000C0
:1020B0000D4F00000D4F0000F54E0000FD4E0000DA
:1020C00010B5064C2378002B07D1054B002B02D00E
:1020D000044800E000BF0123237010BDB8FCFF1FBF
:1020E000000000003460000008B5084B002B03D04E
:1020F0000748084900E000BF07480368002B03D0E9
:10210000064B002B00D0984708BDC04600000000D9
:1021100034600000BCFCFF1FB8FCFF1F0000000083
:10212000002934D00123002210B488422CD301248A
:102130002407A14204D2814202D209011B01F8E71F
:10214000E400A14204D2814202D249005B00F8E7D8
:10215000884201D3401A1A434C08A04202D3001B04
:102160005C0822438C08A04202D3001B9C08224337
:10217000CC08A04202D3001BDC082243002803D075
:102180001B0901D00909E3E7101C10BC70470028A7
:1021900001D00020C04307B4024802A140180290B9
:1021A00003BDC046D90000000029F0D003B5FFF7F9
:1021B000B9FF0EBC4243891A1847C046002941D0D6
:1021C00010B4041C4C40A44601230022002900D571
:1021D0004942002800D5404288422CD301242407DC
:1021E000A14204D2814202D209011B01F8E7E400B6
:1021F000A14204D2814202D249005B00F8E7884242
:1022000001D3401A1A434C08A04202D3001B5C08B9
:1022100022438C08A04202D3001B9C082243CC0816
:10222000A04202D3001BDC082243002803D01B0974
:1022300001D00909E3E7101C6446002C00D5404298
:1022400010BC7047002806D003DB0020C0434008C4
:1022500001E08020000607B4024802A14018029065
:1022600003BDC046190000000029EBD003B5FFF7FD
:10227000A7FF0EBC4243891A1847C0467047C046A4
:102280001C2101231B04984201D3000C10391B0AA6
:10229000984201D3000A08391B09984201D300096A
:1022A000043902A2105C40187047C04604030202C1
:1022B0000101010100000000000000009C46030431
:1022C000F0B51B0C17043F0C150C1E1C041C000C55
:1022D0007E436B4347434543FB18300C1818874235
:1022E00002D980235B02ED18030CED1863465C43B2
:1022F0004A433604360CA118000480194919F0BD70
:102300007047C04608B500F073FF08BD7047C0466F
:1023100008B501F08BFD08BD70B50B4E82B0336877
:10232000022B0ED0094D0024E0B2694602F0F6FA05
:1023300069460A88A3000134EA50062CF4D101232F
:10234000336002B070BDC046D4FCFF1F00FEFF1F0B
:102350007047C04608B5034B186A03F0A9FA01F0AC
:1023600089FF08BD6CFDFF1F7047C0467047C0461F
:1023700008B5012001F076FF08BDC046F0B51B4E40
:102380004746041C80B4301C0F1C194901F03AF870
:10239000002525606560E0648046F888102100040F
:1023A00001F030F8011C404601F006F86565A565AE
:1023B0002065388801214942000401F023F880217A
:1023C000071C8902301C01F01DF8061C311C381C4A
:1023D00001F0E2F8311CE065002001F0DDF8012396
:1023E00025672066636704BC9046F0BD3F24030068
:1023F00000C0FFFF38B5041C0D1C8888002101F0C7
:1024000001F8011C124800F0D7FF60662B89E888AC
:102410000121C01A00F0F6FF011CE06D00F0CCFFB6
:10242000E06529880B4800F029F9011C412000F0E3
:10243000C3FF011C084800F0E5FF80235B02236115
:102440006361A360E36080239B02A061E36138BD08
:10245000DFFF000000FCFF1F504C0000F0B55F469E
:1024600056464D464446F0B4036D8DB09B46C36C52
:10247000041C0B915846191C019300F0A7FF594604
:102480002062019800F0A2FF061C6062019801F032
:1024900089F881466063584601F084F80490A0638F
:1024A000301C01F089F9051C291CA06200F0AAFF6C
:1024B0008246E062301C01F075F8236E05902063BF
:1024C000191C181C069300F09DFFE36D061C206488
:1024D000191C181C079300F095FF2369011CE06389
:1024E000181C029300F08EFF6369071C6064311CA6
:1024F000181C089300F086FF291C8046A0640498ED
:1025000000F080FFE66903904946301C00F07AFF36
:10251000011C039800F05AFFA369011C181C0393C7
:1025200000F070FF291C0990381C00F06BFF011CA3
:10253000404600F041FF059900F064FF51460A90C3
:10254000301C00F043FF82465146029800F05AFFCB
:10255000291C0290484600F055FF049900F036FF10
:10256000011C039800F04EFF011C301C00F04AFFD4
:10257000291C8146404600F045FF311C051C381CD3
:1025800000F040FF291C00F017FF059900F03AFF0A
:102590005146051C089800F035FF0A99061C099859
:1025A00000F014FF029900F073FF0B9B291C1F170A
:1025B000C7196765484600F0FFFE311C00F068FF50
:1025C000666E051CA065311C079800F01BFF311CCE
:1025D0008046069800F016FF802636028146311CA0
:1025E000381C00F00FFF011C404600F0E5FE311CD6
:1025F000071CE065281C00F005FF011C484600F0A0
:10260000DBFE311C051C2066381C00F0FBFE011CA3
:10261000019800F0D1FE311C071C281C00F0F2FECE
:10262000011C584600F0C8FE3B04DB1B2360114E22
:1026300003041B1A6360051C311C381C00F0ACFF3E
:10264000311C071CE064281C00F0A6FF0A4D061C84
:102650002065291C381C00F0D5FE291CA066301C02
:1026600000F0D0FEE0660DB03CBC90469946A24614
:10267000AB46F0BD3F240300800D7D514A1192000E
:1026800010B58418FF2364688058C9001940000AF7
:102690005B1A240A4C434343E01810BD38B5EA23C3
:1026A0005B00C5580022041CC250092D2DDD1A4BB9
:1026B0009D422BDCEE225200835801338350022BC3
:1026C00020DDE22040002158E0235B00E150E423BC
:1026D0005B00E3582350C9180220A050581803216A
:1026E000FFF76CFDE6235B00E050011C0120404237
:1026F000FFF716FDE8235B00E050EC235B000122AE
:10270000E250022370339B001D5138BDEE235B0065
:10271000C2500023F6E7C0463075000038B50025EA
:10272000D2234563056305614561D022C554082362
:102730008354D12283543823C562C5543923C554E8
:102740009023C55002229423C250031C9433DD60B1
:102750009D600A230380EE235B000581C5508C2316
:102760005B00C5508E235B00C55090235B00C550B5
:1027700092235B00C55094235B00C55096235B00F9
:10278000C55098235B00C5509A235B00C5509C231D
:102790005B00C5509E235B00C550A0235B00C55065
:1027A000A2235B00C550A423041C5B00C018211C9D
:1027B000FFF7E4FD8A235B00201CE5500021402246
:1027C000D43003F027FA99239B00E5509A23062280
:1027D0009B00E25038BDC04608B5031C00290ED14D
:1027E000FF20892298541A1C943219615961D962C8
:1027F0009160A42252009818191CFFF7BFFD08BD74
:1028000000230B604B600B72037070477047C0462B
:10281000F0B54D4644465F465646F0B487B0059342
:1028200024230D1CC15C041C520F914200D1D3E043
:10283000C2542623C25C1F2101320A40C254876E53
:102840006C4B6D497B435B18836614325B009B0CB9
:10285000520013524360D80A6849C0059B46FFF7EF
:102860005FFC109BE0605A0F2523E15C04909142CD
:1028700000D1BCE0E2542623E25CEB8820325B0A04
:10288000D21AD317DB0ED2181F210A40D31A1433E1
:102890005B001D5B5949E80AA560C005FFF740FCD5
:1028A0002061276F059E594633883E148F02E16EE2
:1028B0007A1A3704BF1BD71B67673F145F43216F2A
:1028C000CA192267DA00D21A4D4F52031214D219D4
:1028D00092B25A4312145643E16E8E19E66602967E
:1028E000E66FA9023714A66F8E1B3904C91B711A33
:1028F0008026A15109140E1C5E43E16F57438E19C7
:10290000E667A66FF719A76703978427B84641467D
:10291000271C665884377968B146049E09140191D2
:10292000B6024946761A0199B2460E04711A564605
:10293000761ABE6036145E437968B4468C440199B9
:10294000664651438C46CC447E604146664666509E
:10295000261C90369027E159776889463F140197E5
:1029600081024F46C91B88460199019F0904C91B72
:1029700047467F1AB7603F147B437168059FCB18A9
:102980007360019B90265A434A44A25102997B8866
:10299000BE8889125F46774359437918039F090A15
:1029A0006161B912594375436D182D0AA5616746D7
:1029B000049DB912921275435943704353436918E9
:1029C000C318090A1B0AE161236207B03CBC9046A8
:1029D0009946A246AB46F0BD109B41685A0F25238D
:1029E0008B46C668E15C0496914200D042E7A56838
:1029F000206956E7FD430300C39E2600FC0D00003E
:102A0000CC0C0000F8B58C23C1584F4689460121F3
:102A1000894446464A46041CC0B40021C2502422C0
:102A20003C3003F0F7F8201C24220021603003F032
:102A3000F1F8616B0825CB001E13301C37030930F9
:102A40000921DF1BFFF710FC6B1A0E333F11FF2229
:102A50009B00E3189046301CD21B5A600A300921B3
:102A6000FFF702FC6B1A0E33226B9B00E3185F60CA
:102A7000D3001E13301C370309300921DF1BFFF779
:102A8000F3FB6B1A17333F1141469B00CA1BE31837
:102A9000301C5A600A300921FFF7E6FB6B1A173326
:102AA0009B00E3185F6084220023A3548522A35473
:102AB0008622A3548722A3548822A354F0235B00C8
:102AC000E35C5A1E032A0FD8E221FF31615CA01893
:102AD0008030CD430571032A02DCE318803319717D
:102AE0000CBC90469946F8BD962148464900002BFB
:102AF0000DD1FFF715FBFF23C20705D5E223FF33F6
:102B0000E35C5B08803BDBB28422A354E8E7052B3F
:102B100008DDFFF705FB8023C20700D4FF238822CE
:102B2000A354DDE7FFF7FCFAFF23C107F7D5E22343
:102B3000FF33E35C5B08DB43DBB2F0E7F0B5002377
:102B40004E4645465746E0B4041C0E1CC3600D12A9
:102B50007F2D14DC844900257143491349008B31D2
:102B60000027A368012B1AD0022B00D1C7E0002B4D
:102B700000D174E01CBC90469946A246F0BD7B4A49
:102B8000794F8B185F437F130237F52D64DD784B47
:102B9000F53D5D43A368C5607649012BE4D17648D5
:102BA000FFF7BEFA2368181AA84200DCACE02060E8
:102BB000051C724B9E4200DDB5E07600301C70496A
:102BC00000F03CFC011C6F4800F000FC6E49071C43
:102BD000301C00F033FC4642391C381C00F012FC5B
:102BE000011C381C00F00EFC311C8146301C00F02A
:102BF00009FC011C301C00F005FC8046414648469B
:102C000000F0EEFB011C8020400200F0B5FC2B120E
:102C100081468020191C400200F0E2FB391C8246EC
:102C2000301C00F0DDFB011C504600F0EBFB391CB2
:102C300000F0C2FB061C311C00F0E4FB011C301C40
:102C400000F0E0FB4246514200F0B6FB494600F07E
:102C5000D9FB6060281C8DE70025464981E74B4879
:102C6000011C00F0CFFB011C484800F0CBFB832186
:102C7000051C832000F0C6FB011C832000F0C2FB72
:102C80004342011C281C994600F0AAFB011C80202D
:102C9000400200F071FC8046002F3CD03648391CC1
:102CA000FFF73EFA2268344B85189D4258DD802597
:102CB0006D04012380212560A36049028020400229
:102CC00000F08EFB3149061C832000F089FB011CBB
:102CD000301C00F097FB2D4900F06EFB061C311CE8
:102CE00000F090FB011C301C00F08CFB494600F00A
:102CF00063FB414600F086FB6060281C3AE72568CC
:102D000000236360281C35E72560002D00D050E7C4
:102D10000223A3604DE7802501236D048021A36079
:102D200025604902CAE780201549400200F086FB71
:102D3000011C144800F04AFB071C80201249400285
:102D400000F07CFB094A8046B61871000D4800F07F
:102D500075FB4346011C584200F038FB061C3BE75C
:102D600025602912AAE7C046C40900000080FFFFC1
:102D70009999190011270000FFFFFF00FF7F000055
:102D8000C2B5000066E60000A3300000CCCC000015
:102D9000F0B5EA256D0043594F464646C0B40133AD
:102DA000041C4351A4204000271883B0381C211C68
:102DB000FFF720FB6259E74B9A4200DDE3E1EE2387
:102DC0005B00E358002B00D1DDE13823E25C002AF0
:102DD00001D0013AE2543923E25C002A01D0013AE1
:102DE000E2548923E25C002A01D0013AE254201C1B
:102DF000A1889430FFF7A2FEEC235B00E358002B80
:102E000000D1CCE163899900C9184900C918091299
:102E10004031FF230A1C9A43531E891AFF3B490085
:102E20005B18934200DACBE11812FF21CA4D08402B
:102E300080002A582818D617360EB2184068DE438C
:102E40001212F6B25643C217120E101800120B409F
:102E50004343E8225200F318A658360C5E4321691A
:102E600062697318B1098918E288616112059818BE
:102E70002062A06989189A1A2361E1616262834223
:102E800002D264213922A154A361A38897211B0A8D
:102E9000890065181A1C3F21B048984600F0D0F907
:102EA00097239B00E05042463F21AD4800F0C8F90F
:102EB0006860A18881239B00E218090A2B1C6069C5
:102EC00000F0D4F989239B00E050A18885239B0062
:102ED000E218090A2B1CE06900F0C8F990239B0056
:102EE000E050A188F2235B00E218090A2B1C20693C
:102EF00000F0BCF98A239B00E0509946A188FA2390
:102F00005B00E218090A2B1C206A00F0AFF991233C
:102F10009B00E0509846E38880201902C91A4002BD
:102F200000F04AFA011C301C00F06CFAE16A2269D8
:102F30008E1BA1883018E062090A80182A1C00F054
:102F4000E7F949466358E26AC018C30F18188B2383
:102F500040109B00E050A188236A090AD0182A1C5F
:102F600000F0D6F9414663582269C018C30F1818FB
:102F700092239B004010E050900000F043F9982508
:102F8000635900145843216A8C239B00E050880049
:102F900000F038F962590014504393239B00E0502D
:102FA000F2235B00E158381CFFF758FAD822520090
:102FB000A1586359091459438D229200A150DA2275
:102FC0005200A258261C1214534394229200A3507C
:102FD000A588A4362D0A312D00D8F6E00023FF2065
:102FE0007080B380281C192D00D21920C043F5230E
:102FF000C0B25843FF21FFF7E1F87F21021C594876
:1030000000F01EF9A423000CE052636A201C009318
:10301000AC302269331C211CFFF7FAFBC023E258B5
:10302000E020000612048E2312189B00E250C423F5
:10303000E2589523120412189B00E250C823E2586C
:103040008F23120412189B00E250CC23E2589623DF
:1030500012049B001218E250FA235B00E358002B85
:1030600003DDA16A002900DCB9E0A362638859008E
:10307000C918C9094031FF230A1C9A43531E891AF3
:10308000FF3B49005B18934200DA131CF02040001C
:10309000F0221D1221185200FF278920A55480001C
:1030A000DAB23D404A70AD0021181F404B59D2435F
:1030B000D2B2D8179146000E2A1D9046C0188A58E1
:1030C0004B4600125843D3171B0E9A1812127A431C
:1030D00025498018FFF772F86063061C9020800075
:1030E00021184B594A46D817000EC0180012434603
:1030F0005043CA581C49D3171B0E9A181212574333
:10310000C019FFF75BF80E21635E80215843C31797
:103110009B0C1B180C22A05E992246439200F017CC
:10312000A258800C090186195218B01380189A22EF
:103130009200A2589B1352189B180C4A6063236399
:10314000904226DC002823DB084A934225DC002B32
:1031500038DB0DE03075000084FCFF1F245F0000A9
:10316000245C0000245D0000FCFF0300FF0F000052
:10317000201CFFF747FCE388606B238103B00CBC85
:1031800090469946F0BDEC2300225B00E2501CE61D
:1031900000226263144A9342D9DD2263E8E7238860
:1031A00012485911890045186E68FF22DB0041580A
:1031B0001340360A5E43090AD31A4B43F6184EE60B
:1031C000131C31E600232363D2E72802401B32217F
:1031D000FEF7F4FFFF2380B21B1A9BB200E76421C5
:1031E0003822A15441E7C046FF0F000040FCFF1FFA
:1031F00008B5002001F09EFF014B01221A7008BDA6
:10320000B4FCFF1F0B4A400C83189B049B145B43C8
:10321000094A1B135A43094992138A1A53438022BD
:103220001B1452014004D31A002800DA5B425804F0
:103230007047C04600E0FFFFBC0D0000BC4D000021
:103240004A43D3B2591EC9B210B5FD2901D8013382
:10325000DBB2121292008158801840680C12FF21D4
:10326000C91A001261434343C81810BDF8B5234E74
:10327000440CA519AD04AD146D43214E2D136E43BE
:10328000204FB613BE1B754380262D1476016404AF
:10329000751B002C00DA6D426D04841015605460BB
:1032A000002823DBC0242406001940109060164833
:1032B000D06048004118CCB2601EC0B2FD2801D8D1
:1032C0000134E4B209128900565852185268FF209E
:1032D0003512001B12126843544359681A680019CA
:1032E000801A0915FEF76AFF8002F8BD074C201A04
:1032F00040109060E0200006DAE7C04600E0FFFFE3
:10330000BC0D0000BC4D0000FFFFFF1FFFFFFFBF13
:1033100070B5244D430C5C19A404A4146443224DDD
:1033200024136543214EAD13751B6C438025241473
:103330006D0184B05B042C1B002B00DA6442640432
:10334000831000940193002825DBC0231B06C018BE
:103350004010174B029003934B005918CBB2581EE4
:10336000C0B2FD2801D80133DBB2091289006D46D5
:103370006C58FF202412C01A604301AC6158091236
:103380004B435168C01813680915C01AFEF716FFA1
:10339000800204B070BD074B181A4010E023029061
:1033A0001B06D8E700E0FFFFBC0D0000BC4D00008D
:1033B000FFFFFF1FFFFFFFBF4318414001D45840EC
:1033C00001D4181C704780200006FBE7431A4140D7
:1033D00001D4181C70475840FBD580200006F9E73F
:1033E000031C401A594004D480221206904203D094
:1033F0007047021C5A40F7D5D80F014BC018F7E7A9
:10340000FFFFFF7F0A1C08B5C117D317FEF756FF51
:10341000CB1300290DDA01330DD101225242D3170B
:103420008018594103040A04000CDB0F10431818DC
:1034300008BD002BF6D080200006F9E7D0B50F1CA0
:10344000FB17C1173A1C061CFEF738FFCB130029E7
:1034500009DA013314D0FC437440E40F63425C4149
:103460000A4BE018D0BD002BF5D10304040C0A046C
:10347000DB0F1443181980231B069842F2D1EAE7A8
:1034800001225242D31780185941EEE7FFFFFF7F18
:10349000F8B556464D465F464446F0B482468946E6
:1034A00000293DD0CB17C217CE1885185E40554075
:1034B000330D0027002B44D10F23334257D1360957
:1034C00033424ED1360933424DD1360933424CD1C5
:1034D00036090124002D2BD001235B42984605E0DC
:1034E0004D00013C002D23D0002C21DB281CFEF7D1
:1034F000C7FE231E834200DD031C9D40311C281C97
:10350000E41AFEF70DFE311C8346281CFEF74CFE24
:103510005B46A340FF184346E3405A469A43DFD038
:10352000802000063CBC90469946A246AB46F8BDBA
:1035300001374B46524653407808002BF2DA40429E
:10354000F0E7710C0131281CFEF7EAFD0021321C66
:103550000023071CFEF7B2FEC903400C08432D1AD6
:10356000AAE70D24B6E70924B4E70524B2E7002D45
:10357000DED01124B0E7C04638B5041C0D1CFFF79F
:1035800087FF80221206904200D038BD6C40FCD4E8
:103590000048FAE7FFFFFF7F08B5FEF765FE081C4D
:1035A00008BDC046F0B5474680B47849FEF75CFEDA
:1035B000774B0E1E9E4200DCBDE0764BCE18F41712
:1035C000231C301C211C321CFEF778FECB13002973
:1035D00000DBA4E0013300D1D2E080231B06984633
:1035E00001235F423B1C301C211C4246FEF766FE55
:1035F000CB13002900DB81E0013300D1A8E0802259
:103600000123654812065B423618391C4046FEF716
:1036100055FECB13002962DA013300D19EE08022EF
:1036200001235E4812065B423618391C4046FEF7FD
:1036300045FECB13002943DA013300D194E0802208
:103640000123574812065B423618391C4046FEF7E4
:1036500035FECB13002924DA013300D18AE0802221
:103660000123504812065B423618391C4046FEF7CB
:1036700025FE021C0B1C3520C913002B05DA013175
:1036800060D0301804BC9046F0BD0029F9D1100478
:103690001B04120C1A43C00F80184349FEF78EFD1D
:1036A000EFE7002BDBD10B040404000C1843E40FFC
:1036B0002418201C3D49FEF781FD221CE317D3E7A7
:1036C000002BBCD10B040404000C1843E40F241895
:1036D000201C3749FEF772FD221CE317B4E7002BCC
:1036E0009DD10B040404000C1843E40F2418201C83
:1036F0007821FEF763FD221CE31795E7002B00D02D
:103700007DE70B040204040CD20F1C43141906219C
:10371000201C4942FEF752FD221CE31774E7002BE0
:1037200000D05AE703040A04000CDB0F10431B18F7
:103730009846DF1756E71F4B994200DB3FE7134BD4
:10374000CE183CE701246442E51712196B419EE74D
:1037500001225242D31780185941D2E70124644212
:10376000E51700196941BCE701246442E517001917
:103770006941A7E701225242D3178018594192E7C5
:1037800001225242D31780185941CBE77E480600E8
:103790003F24030082B7F9FF55555515EFEEEEFEB5
:1037A00068800600E3E8FFFF00EB9EFD80890500CE
:1037B00050ECFFFFC1DBFCFFF0B57A4B4746C01869
:1037C00080B47949FEF750FD784B0E1E9E4200DC16
:1037D000BDE0774BCE18F417231C301C211C321C83
:1037E000FEF76CFDCB13002900DBA4E0013300D110
:1037F000D2E080231B06984601235F423B1C301C0D
:10380000211C4246FEF75AFDCB13002900DB81E064
:10381000013300D1A8E080220123664812065B42F2
:103820003618391C4046FEF749FDCB13002962DAF1
:10383000013300D19EE0802201235F4812065B42E3
:103840003618391C4046FEF739FDCB13002943DA00
:10385000013300D194E080220123584812065B42D4
:103860003618391C4046FEF729FDCB13002924DA0F
:10387000013300D18AE080220123514812065B42C5
:103880003618391C4046FEF719FD021C0B1C35206A
:10389000C913002B05DA013160D0301804BC904602
:1038A000F0BD0029F9D110041B04120C1A43C00FFB
:1038B00080184449FEF782FCEFE7002BDBD10B04B4
:1038C0000404000C1843E40F2418201C3E49FEF7A2
:1038D00075FC221CE317D3E7002BBCD10B040404B6
:1038E000000C1843E40F2418201C3849FEF766FC2E
:1038F000221CE317B4E7002B9DD10B040404000C39
:103900001843E40F2418201C7821FEF757FC221CD2
:10391000E31795E7002B00D07DE70B040204040CAD
:10392000D20F1C4314190621201C4942FEF746FC05
:10393000221CE31774E7002B00D05AE703040A04A3
:10394000000CDB0F10431B189846DF1756E7204B7F
:10395000994200DB3FE7144BCE183CE70124644258
:10396000E51712196B419EE701225242D3178018C6
:103970005941D2E701246442E51700196941BCE7C7
:1039800001246442E51700196941A7E70122524268
:10399000D3178018594192E701225242D317801859
:1039A0005941CBE71F9201007E4806003F240300E7
:1039B00082B7F9FF55555515EFEEEEFE688006000B
:1039C000E3E8FFFF00EB9EFD8089050050ECFFFF60
:1039D000C1DBFCFFDC4B70B51A68DC4D01321A60AC
:1039E0002B68DB4CFF220833134060692B6001F029
:1039F000DFFED84E8023F3582A68A069934200DC8A
:103A0000BDE101F0C3FBE06901F03CFAE06901F0BF
:103A10003FFAF36F2A68A069934200DC00E201F0EC
:103A2000B5FBE06901F02EFAE06901F031FAB36FFD
:103A30002A68A069934200DCEFE101F0A7FBE0698E
:103A400001F020FAE06901F023FA736F2A68A06997
:103A5000934200DCDEE101F099FBE06901F012FA2B
:103A6000E06901F015FA336F2A68A069934200DC1F
:103A7000CDE101F08BFBE06901F004FAE06901F0AF
:103A800007FAF36E2A68A069934200DCBCE101F0FA
:103A90007DFBE06901F0F6F9E06901F0F9F9B36E38
:103AA0002A68A069934200DCABE101F06FFBE0699A
:103AB00001F0E8F9E06901F0EBF9736E2A68A0699A
:103AC000934200DC9AE101F061FBE06901F0DAF970
:103AD000E06901F0DDF9336E2A68A069934200DCE9
:103AE00089E101F053FBE06901F0CCF9E06901F0F4
:103AF000CFF98923F35C2A68A069934200DC77E15F
:103B000001F044FBE06901F0BDF9E06901F0C0F9A2
:103B10003823F35CA069002B00D166E101F030FB93
:103B2000E06901F0AFF9E06901F0B2F93923F35C23
:103B3000A069002B00D155E101F022FBE06901F002
:103B4000A1F9E06901F0A4F9F36B2A68A069934236
:103B500000DC44E101F01AFBE06901F093F9E0694F
:103B600001F096F98423F35C2A68A069934200DC93
:103B700032E101F00BFBE06901F084F9E06901F04A
:103B800087F98523F35C2A68A069934200DC20E171
:103B900001F0FCFAE06901F075F9E06901F078F9EB
:103BA0008623F35C2A68A069934200DC0EE101F0F1
:103BB000EDFAE06901F066F9E06901F069F9336C4A
:103BC0002A68A069934200DCFDE001F0DFFAE069B9
:103BD00001F058F9E06901F05BF9736C2A68A0699B
:103BE000934200DCECE001F0D1FAE06901F04AF91F
:103BF000E06901F04DF9B36C2A68A069934200DCDA
:103C0000DBE001F0C3FAE06901F03CF9E06901F0A2
:103C10003FF9F36C2A68A069934200DCCAE001F026
:103C2000B5FAE06901F02EF9E06901F031F9336D80
:103C30002A68A069934200DCB9E001F0A7FAE069C4
:103C400001F020F9E06901F023F9736D2A68A06999
:103C5000934200DCA8E001F099FAE06901F012F962
:103C6000E06901F015F9B36D2A68A069934200DCA0
:103C700097E001F08BFAE06901F004F9E06901F0E6
:103C800007F9F36D2A68A069934200DC86E001F031
:103C90007DFAE06901F0F6F8E06901F0F9F8E06A10
:103CA00001F09AFAA06A01F019F9A06A01F01CF972
:103CB000E06A01F091FAA06A01F010F9A06A01F03F
:103CC00013F98823F35C2A68E06A934263DD01F00C
:103CD00089FAA06A01F002F9A06A01F005F98723C8
:103CE000F35C2A68E06A934252DD01F07BFAA06A35
:103CF00001F0F4F8A06A01F0F7F88623F35C2A6873
:103D0000E06A934241DD01F06DFAA06A01F0E6F845
:103D1000A06A01F0E9F88523F35C2A68E06A93421F
:103D200030DD01F05FFAA06A01F0D8F8A06A01F076
:103D3000DBF88423F25C2B68E06A9A4200DD72E0D3
:103D400001F04AFA08E0C046ECFCFF1FB0FCFF1F80
:103D50006CFDFF1F1CFEFF1FA06A01F0BFF8A06AE8
:103D600001F0C2F8E06A01F037FAA06A01F0B6F893
:103D7000A06A01F0B9F8606901F020FD70BD01F0A2
:103D8000FFF940E601F028FACDE701F025FABCE79B
:103D900001F022FAABE701F01FFA9AE701F0F0F91F
:103DA00077E701F0EDF966E701F0EAF955E701F090
:103DB000E7F944E701F0E4F933E701F0E1F922E73C
:103DC00001F0DEF911E701F0DBF900E701F0D8F9C5
:103DD000EFE601F0D5F9DDE601F0D2F9CBE601F02E
:103DE000CFF9B9E601F0D2F9A8E601F0CFF997E6EC
:103DF00001F0C6F986E601F0C3F974E601F0C0F9F6
:103E000063E601F0BDF952E601F0BAF941E601F0CE
:103E1000B7F930E601F0B4F91FE601F0B1F90EE6AA
:103E200001F0AEF9FDE501F0DDF995E770B5E24C82
:103E3000236801332360FFF7CDFD2268012A00DCEF
:103E400011E1DE4B00261A68266001321A60DC4B55
:103E500001241D6801351D602540012D00D103E1BD
:103E6000D84DD949281CFEF793FF6A6BD74B2D6BB1
:103E70001A60D74B00201D6001F056F9D54BD64A89
:103E80001E701368802083431360D44B2D051E6879
:103E9000C02126431E601E682D0DA6431E601668B5
:103EA0008901864316601E68294326431E601E68EA
:103EB0000D0AA6431E601668C9B2064316601E6846
:103EC00026431E601E68A6431E60166806431660E1
:103ED0001E6826431E601E68A6431E602B0700D581
:103EE00084E1136883431360BC4B012218681043BC
:103EF0001860186890431860B74B6A0700D51CE13A
:103F00001A68802082431A60B44B0122186810435B
:103F10001860186890431860AB0700D560E1AE4B9D
:103F200080201A6882431A60AC4B01221868104343
:103F30001860186890431860A74B2A4200D0F7E039
:103F40001A68802082431A60A44B0122186810432B
:103F500018601868904318600A1C7F239A43131E48
:103F6000802B00D10DE19C4B80201A6882431A609F
:103F70009A4B012218681043186018689043186023
:103F80004B0600D5F7E0944B80201A6882431A60F4
:103F9000924B01221868104318601868904318600B
:103FA0008D4B8A0600D5F7E01A68802082431A609C
:103FB0008A4B0122186810431860186890431860F3
:103FC000CB0600D5E2E0844B80201A6882431A6059
:103FD000824B0122186810431860186890431860DB
:103FE0007D4B0A0700D5C1E01A68802082431A6021
:103FF0007A4B0122186810431860186890431860C3
:104000004B0700D5ACE0744B80201A6882431A60DD
:10401000724B0122186810431860186890431860AA
:104020006D4B8A0700D596E01A68802082431A609B
:104030006A4B012218681043186018689043186092
:10404000654B0A4200D081E01A6880218A431A60D9
:10405000624B0122196800201143196019689143CD
:10406000196001F067F870BD584B00201C6801F022
:104070005BF8584B584A1E70136880200343136046
:10408000564B24051E68B0212E431E601E68240D69
:10409000AE431E6016680902864316601E682143FF
:1040A0002E431E601E680C0AAE431E601668C9B21D
:1040B000064316601E682E431E601E68AE431E60D7
:1040C0001668064316601E682E431E601E68AE43C7
:1040D0001E60230736D41368834313603F4B0122CD
:1040E0001868104318601868904318603A4B6207CC
:1040F0005DD41A68802082431A60384B0122186808
:1041000010431860186890431860A30749D4324BD5
:1041100080201A6882431A60304B012218681043CD
:1041200018601868904318602B4B224200D107E7B3
:104130001868802202431A6006E71868802202434A
:104140001A60E1E6136818431060C7E71968802217
:104150000A431A607CE71868802202431A6067E706
:104160001D4B8022186802431A6051E718688022AC
:1041700002431A603CE7184B8022186802431A6019
:1041800006E7154A106803431360F1E6124B8022DC
:10419000186802431A601BE71868802202431A60FD
:1041A00006E70D4B8022186802431A60B4E71868CE
:1041B000802202431A60A0E7E4FCFF1FD8FCFF1F27
:1041C000DCFCFF1F1CFEFF1FF0FDFF1FE8FCFF1FB4
:1041D000E0FCFF1FB4FCFF1F00F00F4040F00F4059
:1041E000044B8022186802431A609DE61368184346
:1041F000106079E600F00F4070B582B000236A4687
:1042000000206946137001F01FF86A461378102BDE
:1042100010D00020102100F0EBFF114D01242B19CC
:10422000013BA0B21978013400F0E2FF0D2CF6D169
:1042300002B070BD0A4D012400266B46A0B269464B
:104240001E7001F001F86B461A782B19013B0134FE
:104250001A700D2CF1D1281CFEF7D8FAE8E7C046F9
:10426000F0FDFF1F08B50248FEF718FA08BDC0466A
:104270001CFEFF1F08B5C1B2024A0348FEF7ACFAA4
:1042800008BDC046F0FDFF1F1CFEFF1FF8B54646E7
:104290004F46C0B400F096FEDB4D0026281CFEF70A
:1042A0003DFADA4CDA48211CFEF7AAFAD94B8022F3
:1042B00052041A605A609A60DA601A615A61C82121
:1042C00096228900120159831A83D9839A83FFF7B2
:1042D00093FF216899239B00E95062689A239B0011
:1042E000EA50CD4A80235B00D361CC4A01201360A1
:1042F000CB4B8022596900240A435A61C94B0122E1
:104300005969FF270A435A6100F022FB00F070FA56
:10431000002000F0B5FA8022904630E0EC632C6675
:10432000012E00D1D3E02C646C66022E00D1BEE0D9
:104330006C64AC66032E00D1B0E0AC64EC66042E75
:1043400000D1A2E0EC642C67052E26D02C656C67AA
:10435000062E00D1B6E06C65AC67072E00D188E070
:10436000AC65EC67082E1FD04346EC50EC65013677
:10437000FFF730FB142001F035FC092E1DD0002E74
:10438000CCD1EF632F662E646E666E64AE66AC644D
:10439000EC66EC642C67052ED8D12F656F676C65D1
:1043A000AC67AC65EC6766E0FF238022AB50EB6541
:1043B000FFF710FB142001F015FC0723802198461D
:1043C000082789460024FF2634E0EC632C66012F81
:1043D00000D187E12C646C66022F00D17BE16C6414
:1043E000AC66032F00D16FE1AC64EC66042F2DD0D6
:1043F000EC642C67052F00D15FE12C656C67062FFC
:1044000000D155E16C65AC67072F00D14DE1AC657B
:10441000EC67082F24D04A46AC50EC65FFF7DAFA77
:10442000142001F0DFFB4346013355D001214942FE
:10443000013F8844002FC8D1EE632E662F646F665B
:104440006F64AF66AC64EC66042FD1D1EE642E6766
:104450002C656C676C65AC67AC65EC67082FDAD1CE
:104460004A46AE50EE65FFF7B5FA142001F0BAFBEC
:10447000DCE7AF65EF674246AC50EC65FFF7AAFAA0
:10448000142001F0AFFB013679E7EF642F672C654C
:104490006C676C65AC67AC65EC6765E7AF64EF664D
:1044A000EC642C672C656C676C65AC6758E76F64CF
:1044B000AF66AC64EC66EC642C672C656C67062E0A
:1044C00000D048E76F65AF67AC65EC67D3E72F6452
:1044D0006F666C64AC665AE7882100248727002643
:1044E0008846002C00D1D8E08423EE54012C00D162
:1044F000CCE08523EE54022C00D1C2E08623EE549A
:10450000032C00D1B2E0EE55042C00D1A5E04246C8
:10451000AE540134FFF75EFA142001F063FB052C62
:10452000DFD103218822884604249146002687276C
:10453000002C00D189E08423EE54012C00D17DE0D1
:104540008523EE54022C59D08623EE54032C52D0EE
:10455000EE55042C42D049466E54FFF73BFA142026
:1045600001F040FB4246013240D1FFF733FA2E4BB7
:10457000986801F011FBFFF72DFA2C4BA4220021C3
:1045800052002B4C2B4E99468846AF182368012BBE
:10459000FCD13168B268CB437168AB80D3436B8088
:1045A000CB439BB21B09EB80F3684946CA1AD21170
:1045B0002A8032692049DB436B81531072695B1892
:1045C000AB8153105B18EB81381C4346291C2360D8
:1045D000FDF710FF002000F053F9D7E7FF2349460D
:1045E0006B54FFF7F7F9142001F0FCFA01235B424A
:1045F000013C98449CE7FF23EB55ACE7FF22862360
:10460000EA54EE55A7E7C0461CFEFF1FF0FDFF1F52
:1046100018FEFF1F880000200090044000A0044006
:1046200000F00F4040F00F406CFDFF1FFFFF000047
:10463000D4FCFF1F00FEFF1F00C0FFFF8523FF22E9
:10464000EA548623EE54EE5585E78423FF22EA548C
:104650008523EC548623EC547AE7FF228823EA541E
:10466000FFF7B8F9142001F0BDFA5AE7FF23EB5524
:104670004346EE54FFF7AEF9142001F0B3FA0134CB
:104680002FE7FF228623EA54EE55F1E78523FF2228
:10469000EA548623EE54EE5539E78423FF22EA5488
:1046A0008523EC548623EC54F5E7AE65EE67B2E65D
:1046B0006E65AE67AC65EC67ADE62E656E676C65E2
:1046C000AC67AC65EC67A6E6AE64EE66EC642C679E
:1046D0002C656C6796E66E64AE66AC64EC66EC6462
:1046E0002C678AE62E646E666C64AC66AC64EC661D
:1046F0007EE6C0461C4BF0B5002B00D1F0BD002774
:1047000003250126D81902684168002A26D100290C
:1047100004D18268002AF1D00C37F3E780680028C2
:10472000FAD0141C0C43254208D1032806D910CA1C
:10473000043810C10028F4D10C37E3E7264207D132
:10474000012805D9148802380C8002320231E6E7CC
:10475000147801380C7001320131E0E780688A4238
:10476000DDD10C37CEE7C0460C6100007047C04673
:104770007047C04638B5FFF7F9FF00F0C9FB184B8A
:10478000181C002805D0854681B00020C043009049
:1047900001B0144B144AD21A08D1FFF7ABFFFFF750
:1047A000E7FF00201149FFF771FDFEE70325012413
:1047B0000020291C194006D1032A04D902C3043A57
:1047C000002AF6D1E9E7211C194005D1012A03D9B5
:1047D0001980023A0233F3E71870013A0133EFE728
:1047E000000C0020B8FCFF1FC0000020F0FCFF1FE1
:1047F00038B51C4B08201A78D2B2002A00D038BD38
:1048000002211970197800200029F8D01B78032B99
:1048100017D0154B15491A70154B1A70154B1A8085
:104820005A809A80DA801A815A8100230B70124CC8
:104830000122206800F08CF9206800F073F9002054
:10484000DDE70B4B08491C780C4D08782C5DA04324
:10485000087018780749400042521B7803490B70D2
:10486000E5E7C0461AFDFF1F18FDFF1F1CFDFF1FD7
:1048700019FDFF1FA8000020B400002024600000E4
:10488000F8B51F4C051C23780820DBB2002B00D0A4
:10489000F8BD012222702278002A07D10020002DC5
:1048A000F6D02378012BFCD00020F1E72278032AF0
:1048B00015D0144A14491370144A0B701370144A1B
:1048C000138053809380D38013815381114E012232
:1048D000306800F03DF9306800F024F9DEE70B4A5B
:1048E000084916780C4F0878BE5DB0430870107800
:1048F000074940004352137803490B70E6E7C0466E
:104900001AFDFF1F18FDFF1F1CFDFF1F19FDFF1FD4
:10491000A8000020B40000202460000010B502238D
:10492000052801D9181C10BD064B1A78064B1C5CD3
:1049300009231442F6D0054B4000C35A1B010B80DB
:104940000023EFE718FDFF1F24600000A8000020EF
:1049500070B5114C061C22780820002A00D070BDCA
:104960000E4D04232868237000F022F9286800F017
:1049700049F9002E0DD0286800F01AF90028FAD065
:10498000286800F055F9002803D0002323701B206D
:10499000E5E70020E3E7C0461AFDFF1FB400002052
:1049A000F8B5254D2B78042B3CD02B78234C21785F
:1049B000032B24D0224B234E4900C918306800F045
:1049C000E3F823780133DBB223702378062B0AD077
:1049D00023781D4930680B70012200F0B9F8306867
:1049E00000F0A0F8F8BD194B3F22002727701A707D
:1049F000FDF792FC2B78012BEAD12F70F2E7114BD7
:104A0000490018680E4BC91800F0BEF822780F4B09
:104A10000F481978825C0A431A70FDF77DFC002369
:104A20002B70DFE7074B186800F002F900232B70AA
:104A3000FDF78EFCD6E7C0461AFDFF1F19FDFF1FCC
:104A4000A8000020B40000201CFDFF1F18FDFF1F60
:104A500024600000054A08B500231370044A0020B2
:104A6000137000F009F8034B186008BD18FDFF1F14
:104A70001AFDFF1FB4000020204A214B30B5214908
:104A80001A600024204B14709470CD585060802020
:104A900000052843C8501D4BC32189005D58802064
:104AA0002D022D0A0006284358501868802109025B
:104AB00001431960164B1749586B08405863D86A70
:104AC0000840D8621448056A0D400562456A0D40E9
:104AD0004562986A084098629868014099600F4B57
:104AE00057219960D9680F208143D96040211C6209
:104AF00059620B4B101CDA6030BDC04628FDFF1F09
:104B000024FDFF1F007004403C10000000E100E0A5
:104B100000A00440FFF8FFFE0090044000B00340F6
:104B20006CFDFF1F094B10B5196A08220C0601D550
:104B3000101C10BD5A6A48218A435A621A6A4021E1
:104B40008A431A6242781A600022F1E700B00340FB
:104B500030B59623012A01D0181C30BD084B1C6AC1
:104B600008232506F8D402700A788223052AF3D890
:104B7000044B9A5C4023134343700023ECE7C04688
:104B800000B003402C60000030B502780023002AFA
:104B90000AD0064D1A1D920054595A00545201333E
:104BA0000278DBB29A42F5D8002030BD00B0034055
:104BB000124B82B06946021CEFF3108072B6087087
:104BC00019780131C9B21970012911D000209178EA
:104BD00090701A78013AD2B21A70002A03D1084BA9
:104BE000187880F310884B1E9941C8B202B0704704
:104BF0006946087802490870E8E7C0463CFDFF1F97
:104C0000BE000020094B8022196A08200A4200D009
:104C10007047196A4020814319625F211960596AFF
:104C2000C02081430A435A620020F1E700B00340EC
:104C30000B4B1B205A6A510600D57047DA6C996CF1
:104C4000002089185A6C89181A6C8918DA6B89182F
:104C50009A6B89188022490812020A43DA62ECE74B
:104C600000B0034008B5054B01221B689A705868D4
:104C7000FFF796FE024B1B6908BDC04624FDFF1FCF
:104C800000B00340F0B5071C83B00C1C161C0029B3
:104C900025D01E4D6B46EFF3108072B618702B783E
:104CA0000133DBB22B70012B2AD0194B391C186849
:104CB000221C002300F038FC082815D0154B2022B8
:104CC0001C80154B19780A431A702B78013BDBB214
:104CD0002B70002B03D1114B187880F3108834808F
:104CE0000023181C03B0F0BD2A780C23013AD2B27D
:104CF0002A70002AF5D1094A107880F31088F0E76D
:104D00006B461A78054B1A70CFE7C0463CFDFF1F73
:104D1000B800002030FDFF1F32FDFF1FBE00002045
:104D2000F0B5071C83B00C1C161C002923D01D4DA8
:104D30006B46EFF3108072B618702B780133DBB23C
:104D40002B70012B28D0184B391C1868221C01230A
:104D500000F060FC082813D0144B202219780A4375
:104D60001A702B78013BDBB22B70002B03D1104B58
:104D7000187880F3108834800023181C03B0F0BD2D
:104D80002A780C23013AD2B22A70002AF5D1084AB7
:104D9000107880F31088F0E76B461A78044B1A708D
:104DA000D1E7C0463CFDFF1FB800002032FDFF1FC9
:104DB000BE000020074A20231078184001D00C20A4
:104DC0007047054A917899439170937810218B43ED
:104DD0009370F5E732FDFF1F0060064008B5054BF4
:104DE0007F221B6802400021181C00F089FCC0B221
:104DF00008BDC046B800002008B5044B00220020C2
:104E00001A8000F037FB024B186008BD30FDFF1F11
:104E1000B800002008B5044B20211A788A431A7084
:104E2000FDF7A4FA08BDC04632FDFF1F08B5044BCC
:104E300020211A788A431A70FDF796FA08BDC046F9
:104E400032FDFF1F0A4B0B4A40211060586908438E
:104E50005861186888431860074B084998690140F1
:104E60008020400001439961054B101CDA617047B6
:104E700040F00F4034FDFF1F00A00440FFF8FFFE8C
:104E80006CFDFF1F014B40229A60704740F00FF805
:104E9000014B40225A60704740F00FF80A4B0B4A12
:104EA00010211060586908435861186888431860D9
:104EB000074B0849186901408020400001431961EF
:104EC000054B101C9A62704700F00F4038FDFF1F21
:104ED00000900440FFF8FFFE6CFDFF1F014B102205
:104EE0009A60704700F00FF8014B10225A6070472B
:104EF00000F00FF808B500F0C7FC08BD08B500F0D9
:104F0000B3FD08BD08B5FDF7FBF908BDFFBE70474E
:104F1000214B224A2249D150224B882200215201A2
:104F20009950214AC02189029950204AC02198589D
:104F3000C900014399501E4B9A78110704D59978FE
:104F400008220A43D2B29A70164B174A80214902AE
:104F50009950184A1849985801408020400401434C
:104F60009950164906230B704B78402213404B7022
:104F7000CB781F221340A0221343CB70104B80220A
:104F80001A7010228B791A42FCD00C490C228B79B2
:104F90001A42FCD17047C046080D000000E000E056
:104FA0000020000000700440441000003810000091
:104FB00000D0074004100000FFFFFFFC0040064047
:104FC0000050064070B53C4B1F215A793B488A433C
:104FD0005A711A7907218A431A71394B73211A7849
:104FE000C7248A4350210A431A705A7863218A439E
:104FF00040210A435A709A7819218A439A70314B9A
:1050000000221A70304B0222D968A40001401143DB
:10501000D9601969014011431961196B01401143AD
:1050200019632A490D592D042D0C0D51284C294D79
:10503000666935406561284CA56A28401043A06226
:1050400026484469944344615868254A0240C02078
:10505000800002435A60C1239B00C858214A024085
:10506000CA50002000F02CFC002000F07FFDFFF76C
:10507000F1FC00F0A9FB002000F036F8002000F061
:1050800077FB002000F05CF80020FFF7DBFE00203B
:1050900000F0C2FB00F0AAFBFFF7AEFE00F026F91D
:1050A0000020FFF7FBFE002000F076F8002000F063
:1050B000A7FC62B670BDC04600F00740FDFFFFFED2
:1050C00000D0074000E007400090044000E100E00D
:1050D00000F00F40FFEFFFFF00A0044040F00F4042
:1050E000FFF8FFFEFFFF00FF0A4B0B4A2021106074
:1050F000586908435861186801431960074B08490B
:10510000586901408020400001435961054B101C43
:105110001A61704700F00F4040FDFF1F00900440EF
:10512000FFF8FFFE6CFDFF1F014B20229A607047C5
:1051300000F00FF8014B20225A60704700F00FF882
:105140000A4B0B4A8021106058690843586118685F
:1051500088431860074B0849D86901408020400007
:105160000143D961054B101C9A61704740F00F4014
:1051700044FDFF1F00A00440FFF8FFFE6CFDFF1F71
:10518000014B80229A60704740F00FF8014B80225B
:105190005A60704740F00FF80A4B0B4A0821106024
:1051A000586908435861186888431860074B0849D4
:1051B000D8680140802040000143D960054B101C95
:1051C000DA62704700F00F4048FDFF1F0090044076
:1051D000FFF8FFFE6CFDFF1F014B08229A6070472D
:1051E00000F00FF8014B08225A60704700F00FF8EA
:1051F00070B5041C40055023400F82B018430E1CAC
:1052000000F046F8051E1AD16A46147056706846BA
:105210000221002200F056F8051E10D1FF236A4635
:105220001370002000F0DEFC684601210022642398
:1052300000F05EF80028F4D100F032F802E000F04F
:105240002FF8281C02B070BD30B583B06B461870C3
:105250004305580F502318430D1C00F019F8041E85
:1052600010D168460121012200F02CF8041E09D15A
:10527000281C0121002200F015F8041E02D100F0C4
:105280000FF802E000F00CF8201C03B030BDC0465F
:1052900008B5FFF7A3FD002800D01B2008BDC046BD
:1052A0000020704710B582B0141C6A46FFF738FD25
:1052B000002801D1002C01D002B010BDFFF77AFD0B
:1052C000FAE7C04630B583B0151C6A46FFF7DAFC32
:1052D000041E08D102239D4302D1FFF76BFD041C7D
:1052E000201C03B030BDFFF765FDF9E77047C046ED
:1052F00030B583B0151C6A46FFF7C4FC041E08D104
:10530000002D02D0201C03B030BDFFF753FD041C5C
:10531000F8E7FFF74FFDF5E770B5544B12241A6814
:10532000534BD978D878C9B2A0430843D87098783D
:105330002024204022D09D78102028422CD0012506
:105340000D4251D111788E075DD59689002E00D07F
:105350006FE09688002E5DD004204C0700D473E0E7
:10536000012E00D17DE09A7808218A439A70404B43
:1053700010219A788A439A701B7970BD10240C42D0
:10538000FBD090819080107801218843517010707B
:105390009A78A2439A70F0E79188D088013989B24F
:1053A00001309180D080002917D1117801208143EC
:1053B000117099780820A143997099788143997068
:1053C0009368591C91602A49097919709388002BB8
:1053D000D3D15069FFF72AFDCFE70129F0D19878A2
:1053E000082101439970EBE79978A1439970997866
:1053F0008143997000239381938013780621AB43F6
:105400000B431370B9E791781971117802230B439C
:105410001370B2E7A94311705178012905D1997829
:10542000A14399709978814399705069FFF7F2FC14
:10543000A3E7D189013E0131D18111699681481CD0
:1054400010610A781A7198E799780143C9B2997086
:10545000D47801212143C9B219711378184310700F
:105460008BE7997808220A439A7080E74CFDFF1F6A
:1054700000600640234B244A70B5136020221A7046
:1054800010229A7001225A700022DA809A80DA8102
:105490009A811E491E4A40248D5858612C438C50D5
:1054A0001C4A00205021907091710221D1701A493C
:1054B0001A4D0E6980242E40A40026430E61CE684A
:1054C00035402C43CC601649C224A4000D59FF2658
:1054D000B543802635430D510D68802464002C436C
:1054E0000C602C2150719071517090788021014393
:1054F000917090784021014391700A4A181C5362C0
:1055000070BDC04650FDFF1F4CFDFF1F00700440E2
:10551000341000000060064000A00440FFF8FFFEC9
:1055200000E100E06CFDFF1FF0B5041C83B0002A11
:1055300009D04078012808D020780825C6070CD566
:10554000281C03B0F0BD0025FAE72F4DEE780825A2
:10555000B706F5D426783042F2D1A589002D01D0C6
:105560000825EDE76F46EFF3108072B638702748D4
:1055700006780136F6B20670012E2ED02778012665
:10558000216163700021204B3E43A2812670E1819E
:10559000997810220A439A709A78910618D49978CB
:1055A00020220A43D2B29A7023789A0619D506228D
:1055B00013432370A278144B1A710378013BDBB2BA
:1055C0000370002BBFD1124B187880F31088B7E717
:1055D000997804220A439A70E6E73F780C4E3770B8
:1055E000CCE710221A4006D0062293432370E278BB
:1055F000054B1A71E1E71E07DFD502210B4323702B
:10560000014B1A71D9E7C046006006403CFDFF1F00
:10561000BE000020F0B5051C83B0002A14D0812400
:10562000002B02D1201C03B0F0BD0078092406072E
:10563000F8D46E78012E09D00824C607F2D4AC88BD
:10564000002C0DD00824EDE70024EBE7294CE4788A
:10565000A44667460824BF06E4D40642E2D1EEE73A
:105660006F46EFF3108072B6387023480678013623
:10567000F6B20670012E39D02F780126A9606B7022
:1056800000211C4B3E43AA802E70E980997810229D
:105690000A439A709A78910619D5997804220A4398
:1056A0009A702B789A0618D506221343AA782B7085
:1056B00001231A430F4B1A710378013BDBB20370CD
:1056C000002BC1D10D4B187880F31088AAE7997888
:1056D00020220A43D2B29A70E3E7DE06ECD5062216
:1056E00093432B70EA78034B1A71E5E73F78034E3A
:1056F0003770C1E7006006403CFDFF1FBE00002080
:1057000030B504780823E50701D5181C30BD012900
:1057100016D0002908D0022925D130239C43082324
:105720001C4304700023F0E789237F2AEDD8182357
:105730009C4320231C435200827004700023E4E742
:105740000A4989238A42E0D806238270D2091A4086
:1057500010235B421A4328239C4310231C43C2702E
:1057600004700023D1E78D23CFE7C046FF0300007C
:105770000A4B0B4A20211060586908435861186889
:1057800088431860074B0849586901408020400051
:1057900001435961054B101C5A61704740F00F409E
:1057A00068FDFF1F00A00440FFF8FFFE6CFDFF1F17
:1057B000014B20229A60704740F00FF8014B2022E5
:1057C0005A60704740F00FF8064B082259681143A1
:1057D00059609968914399605969034A0A405A612E
:1057E0007047C04600F00F40E7EFFFFF074B8022F5
:1057F0005968D2000A435A609968054A0A409A607B
:105800005969044A0A405A617047C04640F00F4047
:10581000FFFBFFFFFBFBFFFF124B134A10B51360AA
:10582000124A18601249106B014080204000014369
:105830001163106B0F4901400F48014311630F4A78
:10584000C721890054580E48204080242404204356
:10585000505010688021C90501431160094A181C85
:10586000136210BDA4FDFF1FA0FDFF1F00900440A8
:10587000FFF8FFFEFFFFF0FE00000B0100E100E07B
:10588000FFFF00FF6CFDFF1F08B5074B8022186863
:10589000064B5204196B114205D0196B00680A437C
:1058A0001A63FCF757FD08BDA0FDFF1F00900440E0
:1058B000024B1869C004C00F7047C04600F00F408B
:1058C0001F4B204A30B5136000221A6098619A80FD
:1058D0009A819A60DA819A821A6100211A481B4AD9
:1058E000997585588024E4032C438450184AC220BB
:1058F00080001558174C2C4080252D042C43145043
:1059000014688020C00020431060134A134CD569EE
:10591000C020254080000543D561114A15682C4000
:10592000204310600F4A1E2010701020507091709C
:1059300010784021014311700B4A181C136030BDD0
:10594000ACFDFF1FA8FDFF1F0070044034100000D5
:1059500000E100E0FFFF00FF00900440FFF8FFFEC1
:1059600000A00440006007406CFDFF1F38B5224BCB
:105970001C68224BDD78EDB26AB2002A19DB2023C5
:105980002B4210D0E189A28A91420DD223695A1C80
:1059900022611A78194B5A71E389A28A01339BB2AA
:1059A000E3819A421ED038BD144A11789943117090
:1059B000F9E7A289002AE2D0A268511CA1605979B6
:1059C0001170A288A189013292B2A2809142D6D1EF
:1059D0001A787F210A401A700023A381A069FCF77E
:1059E00095FCCCE7A27D0023A38201231343A3757A
:1059F000A069FCF787FCD6E7A8FDFF1F0060074001
:105A0000124B134A10B51360124A186012495068BD
:105A10000140802040000143516050680F4901401F
:105A20008520400401435160C7200D4A800014586E
:105A3000802124020906240A0C43145010680143F3
:105A40001160084A181C136310BDC046CCFDFF1F2F
:105A5000C8FDFF1F00A00440FFF8FFFEFFFFF0FE9F
:105A600000E100E06CFDFF1F08B5074B80221868BD
:105A7000064B52045968114205D0596800680A4320
:105A80005A60FCF775FC08BDC8FDFF1F00A004406C
:105A900008B5FCF73DFC08BD1A4A70B55368002BE9
:105AA00005D01A7AD86001321A72181C70BD1649D6
:105AB000164CC86001200872154880250160154801
:105AC0006D042658354325501348C42403604360B1
:105AD000C3604361114BA400836080235B000B60B3
:105AE00008234B600E4B0F4D1E5935401D511D684C
:105AF0008024A4022C431C604023036051600B1CD3
:105B0000D3E7C0466CFDFF1FD4FDFF1F00700440AB
:105B1000D0FDFF1F3C10000000800340BC120000BD
:105B200000E100E0FF00FFFF044B98211A688A4360
:105B3000416800200A431A607047C0460080034055
:105B400008B5084B80221868074B19680A4208D02C
:105B50000168C90505D51968C0680A431A6000F0D4
:105B600027F808BDD0FDFF1F0080034038B5084C62
:105B7000084DA060002300202371AC60FFF78CFF6C
:105B80002060002801D0201C38BDA860FCE7C0467A
:105B9000E4FDFF1F6CFDFF1F08B50379002B04D146
:105BA000012303710068FFF7BFFF002008BDC04656
:105BB00008B5034B9B689868FFF76AFF08BDC046AD
:105BC0006CFDFF1FC046C046C04670470020C0465F
:105BD000C046C046C046C04601300928F7D9C04675
:105BE0007047C04638B5051E12D0E024FF34013C92
:105BF000A4B2FFF7EBFF002CF9D10724013CA4B2BB
:105C0000FFF7E0FF002CF9D1013DADB2002DECD142
:105C100038BDC046031C8218934202D0197001336C
:105C2000FAE770470000C03FB828253E0A62AC3C46
:105C3000D689383B510FCA395438623872C203379B
:105C4000F525AF356A2F67348D882F33993F0C3295
:105C5000F4FE0331FDCB1F305F476F2F9E080B2FE3
:105C60000F1F252F01884630D8C23B335FA7363639
:105C7000F3BA313987CE2C3C1BE2273F97A6693D0A
:105C8000FF196D3A678D7037CF00743437747731F0
:105C90009FE77A2E075B7E2B526C7F2B0E4DFF2CDD
:105CA000CA2D7F2E860EFF2F42EF7E31FECFFE32B1
:105CB000BAB07E347691FE3532727E37EE52FE38BF
:105CC000AA337E3A6614FE3B22F57D3DDED5FD3ECD
:105CD00063D1BD3F27ECBD3FEB06BE3FAF21BE3FCA
:105CE000733CBE3F3757BE3FFB71BE3FBF8CBE3FCC
:105CF00083A7BE3F47C2BE3F0BDDBE3FCFF7BE3FCF
:105D00009312BF3F572DBF3F1B48BF3FDF62BF3FCE
:105D1000A37DBF3F6798BF3F2BB3BF3FEFCDBF3FD2
:105D2000B3E8BF3F70D3F003F33B110401AF32047B
:105D30002135550433D778044A9E9D04DB93C30470
:105D400096C1EA048431130501EE3C05B9016805EA
:105D5000BD7794055F5BC20562B8F105EB9A220638
:105D60007A0F5506FE228906C9E2BE06995CF60640
:105D70009E9E2F0787B76A077CB6A70709ABE60781
:105D80005AA5270809B66A083CEEAF08B85FF708BD
:105D9000BC1C410926388D097EC5DB09D7D82C0AE1
:105DA000EF86800A39E5D60ACF09300B830B8C0BBE
:105DB000D801EB0B2E054D0C852EB20CCD971A0D8C
:105DC000D15B860DFE95F50DFF62680E0DE0DE0ECF
:105DD0008A2B590FCC64D70F2AAC5910D722E01068
:105DE00071EB6A114529FA1135018E12FD982613BF
:105DF000AB17C41391A56614516C0E15BC96BB1558
:105E000059516E16F1C926178A2FE517E6B2A9185F
:105E100053867419DADD451AE9EE1D1BFAF0FC1BF6
:105E2000141DE31C1FAED01DBAE0C51E04F4C21F32
:105E30005F28C820FAC0D521BB02EC22E4340B2431
:105E4000E4A03325AA9265267E58A1272843E72897
:105E500068A6372ADCD7922B9630F92C740C6B2E5F
:105E6000D7C9E82F8DCA7231D6730933722DAD347C
:105E700091625E36C2821D38C4FFEA390850C73BC2
:105E8000BCEDB23D3156AE3FB50BBA410994D64395
:105E90009B7904468B4B4448099D964AF305FC4C7C
:105EA0007A23754F1D9802521A0AA554E2265D57AF
:105EB00094A02B5AEE2E115DF18F0E603B87246368
:105EC0004BDF5366E2689D695DFA016D7D738270F8
:105ED0009FB91F7464B8DA776B65B47B91BCAD7FF2
:105EE000D7C1C7839B8203885D14628C5A95E49066
:105EF000932C8C95050B5A9A4F6C4F9FD1946DA49F
:105F000089D3B5A9558329AFB509CAB426D698BA9D
:105F1000E76597C0B742C7C655002ACDBD42C1D379
:105F2000F0B78EDA00000000B4A20000CBFDFFFF46
:105F3000141B00005DFBFFFF8B2E0000D609000044
:105F4000BD170000A52300002A1F0000EFFCFFFF83
:105F50006F1200009D0A000048280000E82D000094
:105F6000422A0000A62D0000C1640200F0A6040031
:105F7000A60007005C5A090012B40B00BDC92A0133
:105F8000950BA9026D4D2704458FA5051DD123074B
:105F9000F512A208CD54200AB4C71F0AE2D25F0945
:105FA00010DE9F083EE9DF076CF41F079AFF5F06CB
:105FB000C80AA005F615E00424212004522C600331
:105FC0008037A002AE42E001DC4D20010A5960009A
:105FD000C35C000049580000CF530000554F00003B
:105FE000DB4A000061460000E74100006D3D000013
:105FF000F338000079340000FF2F0000852B0000EB
:106000000B27000091220000171E00009D190000C0
:1060100023150000A91000002F0C0000B507000098
:106020003B0300000102040810200000504B4342D3
:106030004C440000F8B5C046F8BC08BC9E4670470A
:0C604000F8B5C046F8BC08BC9E4670478E
:04604C00E920000047
:04605000C12000006B
:106054000000000000000000020000000A00000030
:106064002100000050000000A700000036010000DD
:1060740012020000510300000E0500006707000033
:106084007C0A0000710E00006D13000099190000D5
:10609400169F02003F90030012D80400B295060038
:1060A40077F30800EB2A0C00498A1000E77B1600FE
:1060B40053901E000C8C29002F7A3800D4C54C0054
:1060C4008F5C680055DD8D0036D8C00001250601BF
:1060D4001259640100200000AA2A000000400000B8
:1060E400555500000080000000000100000002007F
:1060F4000000030000000400000006000000080087
:0861040003000000010000008F
:10610C005460000000FCFF1FB800000000000000FD
:08611C0000000000000000007B
:04000003000047753D
:00000001FF
