:10000000000C0020BD2A0000B9360000C5360000F3
:10001000C5360000C5360000C5360000C5360000F4
:10002000C5360000C5360000C5360000C5360000E4
:10003000C5360000C5360000C5360000C5360000D4
:10004000C5360000C5360000C5360000C5360000C4
:10005000C5360000C5360000C5360000C5360000B4
:10006000C5360000C53600004D490000C536000009
:10007000C5360000C5360000C53600006D310000F1
:10008000C5360000D94C0000C5360000C53600005A
:10009000C5360000C5360000C5360000C536000074
:1000A000C5360000C5360000C5360000C536000064
:1000B000C5360000C5360000C5360000AD3600006C
:10040000FFFFFFFFFFFFFFFFFFFFFFFF7EFBFFFF81
:1004100010B5064C2378002B07D1054B002B02D0DA
:10042000044800E000BF0123237010BD04FCFF1F3F
:10043000000000007C4F000008B5084B002B03D0E3
:100440000748084900E000BF07480368002B03D0B5
:10045000064B002B00D0984708BDC04600000000A6
:100460007C4F000008FCFF1F04FCFF1F0000000081
:10047000002941D010B4041C4C40A44601230022A2
:10048000002900D54942002800D5404288422CD39B
:1004900001242407A14204D2814202D209011B0196
:1004A000F8E7E400A14204D2814202D249005B0095
:1004B000F8E7884201D3401A1A434C08A04202D3FD
:1004C000001B5C0822438C08A04202D3001B9C083E
:1004D0002243CC08A04202D3001BDC0822430028A0
:1004E00003D01B0901D00909E3E7101C6446002C66
:1004F00000D5404210BC7047002806D003DB002026
:10050000C043400801E08020000607B4024802A171
:100510004018029003BDC046190000000029EBD02E
:1005200003B5FFF7A7FF0EBC4243891A1847C04620
:100530007047C046F0B5564644465F464D46F0B457
:100540001F1C0B031B0B98464B0087B0041C8146F5
:100550005B0DC80F161C9A460090002B51D06A4BB9
:100560009A4531D08022414652030A43630FD2009C
:100570001A43664B90460025E20091469A440024B7
:1005800002953B031B0B9B46FD0F7B00311C5B0D53
:10059000019560D05C4A934254D08021584649036B
:1005A0000143720FC9001143584A8B469B18F10052
:1005B0000020009A04436A4003920F2C00D9ADE05A
:1005C000534EA4003459A746404604436ED100213F
:1005D00002250824884689460295D2E7009C0298A5
:1005E000C34649460194022864D0032800D1ABE2F7
:1005F000012800D038E2019A002402400025A146DB
:1006000060E0434623434AD04046002800D1C0E181
:1006100000F004FE031E272B00DDB3E128210D1A94
:10062000211C083B4246E9409A400D1C1543221C00
:100630009A40A8469146374B00251B1A9A4600243B
:1006400002959EE75A4616430320002EB1D1B346C9
:1006500000210220ADE75A4632431BD05B46002BF7
:1006600000D18AE1584600F0D9FD272800DD7DE160
:100670002822171A011C321C08395B46FA408B40AD
:10068000171C1F43331C8B40BB46191C214B1B1AE4
:1006900000208EE70027BB460021012089E70020CB
:1006A000012504248046814602956AE703250C242F
:1006B000029566E7019C0394039D01222A400024D1
:1006C000114DA146002000212403260B0C0D24050A
:1006D000114B34432D0523402B435B005B08D207AD
:1006E000191C4846114307B03CBC90469946A246A7
:1006F000AB46F0BD0022802424039146024DE1E781
:1007000000240025A146DDE7FF07000001FCFFFFF4
:10071000B04E00000DFCFFFFFFFF0F805546ED1AA5
:100720000495D84500D953E100D14EE1049C002541
:10073000013C4E4604944746A946584603020C0E17
:100740001C430902250C23041B0C0091381C291C96
:10075000019300F015FD019983464143381C8A46F8
:10076000291C00F051FD330C090419438A450CD9AA
:100770005B460919013B8C4200D947E18A4500D804
:1007800044E102225242934409195346CB1A181CE1
:10079000291C984600F0F4FC071C0198291C78439A
:1007A0008246404600F030FD36040B04360C3343DD
:1007B0009A4509D91B197A1E9C4200D924E19A4511
:1007C00000D821E1023F1B195E4632041743380C62
:1007D000BB46009E009F51463F0C32045B1A5946AF
:1007E000BA46120C0F043F0C904651467A434F43D1
:1007F0004146414356467043CF19160CBE19B142CB
:1008000002D980277F02C019310C12043604120C61
:100810004018B618834200D2C4E000D1BEE0191AD5
:100820004846861BB145BF417F42CF1BA74200D13E
:1008300013E1291C381C00F0A3FC019902904143EC
:10084000381C8946291C00F0DFFC330C09041943CD
:1008500089450CD9029B0919013B8C4200D9FFE064
:10086000894500D8FCE0029F0919023F02974F46D4
:10087000CF1B381C291C059700F082FC071C01982F
:10088000291C78438146059800F0BEFC3604090413
:10089000360C0E43B14509D936197B1EB44200D936
:1008A000E0E0B14500D8DDE0023F3619029D49463F
:1008B000761A290439430B0457460A0C1B0C404690
:1008C0004546584355437B437A43EB18070CDB19E5
:1008D0009D4202D980256D0252191D0C00041B0493
:1008E000000C52191B18964235D300D1FCE00123AD
:1008F0001943049E994FF519002D00DCA1E048072B
:1009000009D00F230B40042B05D00B1D8B428941CE
:1009100049428B44191C5A46D20107D5904B5C467C
:10092000049E80271C40FF00A346F5198D4B9D4275
:100930007ADD039C0122224000248B4DA146C1E6B2
:1009400080242403474627424CD13C432403240BF4
:10095000009A854DB6E63619481EB4425ED9011C90
:100960009642C4D1009E9E42C1D1C2E7031C283BDF
:10097000311C99408B46002188E6301C00F04EFC6B
:10098000203072E6283B211C99400022884691467F
:1009900051E6201C00F042FC20303BE60021B1452E
:1009A00000D33DE7009F5A46B944B945BF417F4255
:1009B0003F19FB18013A9C421ED2984200D97EE0B2
:1009C00000D1B5E0191A93462AE7894500D8ADE66B
:1009D0004846464642467708D3074608C0071E43A6
:1009E0008146AAE65846204212D1044324032A1C19
:1009F000240B89465C4D65E6A342E3D1009F4F4539
:100A0000DBD9211A93460BE7171CDDE69B46BCE6B3
:100A10003C432403240B009A534D53E6B24259D869
:100A200000D18AE0011C62E75F46C9087B07039E8C
:100A30000B437C026D0501229946240B6D0D32405B
:100A400040E64A4B049FDB1B382B10DD039C012240
:100A5000224000240025A14634E60121494248E70E
:100A6000029304E71F1C21E7019C039441E71F2B1D
:100A700040DC3F48049F0C1C3A1858469140DC402B
:100A8000904020430A1C511E8A41011C11435A46C2
:100A9000DA40131C480709D00F220A40042A05D067
:100AA0000A1D8A42894149425B18111C1A0234D539
:100AB000039C0122224000240125A14602E6009F5A
:100AC00002214942B9448B44B94589414942091937
:100AD000CB18A4E6009D881E6900A942AD416D4275
:100AE0002C19361900913AE7002B00D033E7002487
:100AF000009437E71F4A049C5D46121BD5402A1C10
:100B0000202B1FD01C4E5F46A3199F403B1C19434E
:100B10004B1E994111430023BCE75A07C9080A43F9
:100B2000039F91465B0201221C0B3A400025C9E558
:100B30004E45C4D89346002172E6009F9F42C9D318
:100B4000011C0FE70023E2E7802424035F463C43B7
:100B50002403240B019A8946034DB3E5FF030000EB
:100B6000FFFFFFFEFE070000FF07000002FCFFFF83
:100B70001E040000E2FBFFFF3E040000F0B55646F5
:100B800044465F464D46F0B41F1C0B031B0B9A46B0
:100B90004B0087B0041C80465B0DC80F161C0293E7
:100BA0008146002B68D0694B0299994232D080224D
:100BB000534652031A43D200630F1A439246644AC3
:100BC000E000891880460291002400253B031B0B9E
:100BD0009B467800FB0F321C400D039300D175E05B
:100BE0005A4B984269D08022594652030A43730FE8
:100BF000D2001A43564B9346C018F20000230399C3
:100C00004E4671401C430F2C00D9A9E0514EA40060
:100C10003459A74653461C4300D087E00025AA4616
:100C2000A84608240225D1E74946022D6CD0032DA1
:100C300000D117E2012D00D058E10D40EDB20024A3
:100C4000A9460023A0460020002125030A0D1C050B
:100C50002D0B1205404B2A43134023435B004C46A7
:100C60005B08E207191C4046114307B03CBC9046A4
:100C70009946A246AB46F0BD5346234350D0534657
:100C8000002B00D184E1504600F0C8FA031E272B48
:100C900000DD76E128210D1A211C083B5246E9406F
:100CA0009A400D1C1543221C9A40AA4690462B4B95
:100CB00000241B1A0293002588E75B461E4303238A
:100CC000002E9CD1B3460022022398E75B463343B3
:100CD00021D05846002800D14EE100F09FFA272885
:100CE00000DD42E128210F1A021C311C083A5B4644
:100CF000F94093400F1C1F43331C9340BB461A1C02
:100D0000164B181A00237AE701230B40002499465A
:100D1000A0460E4B97E70027BB46002201236EE753
:100D2000002104248A46884601254FE70C24032528
:100D30004CE700258024A9462403A846034B82E7FC
:100D4000DA46904603991D1C6FE7C046FF07000076
:100D500001FCFFFFF04E0000FFFF0F800DFCFFFFC6
:100D6000029F160C381804904046070C0004000C33
:100D70001204120C031C5343041C3D1C74435543C2
:100D800098463B1C73436419A44644460293230CC3
:100D900063449D4204D9029D802464022D1902956A
:100DA0001D0C039545462C041B04240C1C190594AA
:100DB0005C46230C051C58432404240C8446381C30
:100DC000604365435F438146CC44280C6044BB4686
:100DD000814502D980277F02BB442D04070C2D0CCE
:100DE000000440195546BC462F04E3448446280CB1
:100DF0003D0C2F1C5743B8462F1C77434243B9463E
:100E000047463F0C9144BA46D14446434A4502D92D
:100E100080225202B6184F463A0CB6183A0447469A
:100E20003F043F0CB8462F1C67435D43444358437F
:100E300065190190380C2D184244B846AC4204D9CB
:100E4000019880235B02C0180190039C029F201C24
:100E50006044C0196045A44147466442A4462B043F
:100E60003C049946240C4C44A046D8448018C24601
:100E7000E24490429241574652429146F219E2456D
:100E8000BF417F424B46BC46D845BF41D4187F4244
:100E900063461F432D0C7F19B24292414C45AD4130
:100EA00052426D421543019E7D19AB19E20D5B0262
:100EB000059F134342023A439A46531E9A41C30D7B
:100EC000101C18436402204380465046C0010DD5D3
:100ED000454601225646049C6B082A401A43F307F4
:100EE00001341A43760804949046B246049E634F38
:100EF000F319002B61DD404640070BD00F2244461A
:100F00002240042A06D042460432424580414042F3
:100F1000824490465546ED0107D5594B5646049FED
:100F200080201E40C000B2463B18564A934200DD66
:100F3000EAE644465546E2086807104301226C027F
:100F40005B050A408046240B5B0D91467BE6DA4642
:100F500090461D1C69E680242403574627421CD175
:100F60003C432403240B484B6DE6031C283B311CF7
:100F700099408B460022C3E6301C00F04FF9203028
:100F8000ADE6283B211C994000228A4690468EE619
:100F9000201C00F043F9203078E65846204207D163
:100FA000044303992403240B89469046364B4AE6B2
:100FB0003C432403240B344B45E6344B049E9B1BDB
:100FC000382B06DD01230B4000249946A046002360
:100FD00039E61F2B25DC049C2D4D464660195246F0
:100FE00044468640DC4082405746301C2243DF4066
:100FF000441EA04102433B1C540709D00F2010405F
:10100000042805D0101D9042924152429B18021CA8
:101010001D021AD501230B4000249946A046012346
:1010200011E61C48049C5546001BC540281C202B7B
:1010300016D0194E5746A21997403A1C43461A43F8
:10104000531E9A4102430023D6E758075B02D20899
:101050001C0B01230B401043994680460023F2E508
:101060000022EBE780242403504601230443194067
:101070002403240B8946044BE5E5C046FF0300002A
:10108000FFFFFFFEFE070000FF07000002FCFFFF5E
:101090001E040000E2FBFFFF3E04000070B50B1CC5
:1010A000124C09030E0B5900021C490DDD0F0020E4
:1010B000A14211DD0E4881420FDC8020400306432F
:1010C0000C48401A1F280BDD0B4A521AD640321C1E
:1010D0005042002D00D1101C70BD084BE818FBE7F2
:1010E000074BC240C9188E403243F1E7FE030000AF
:1010F0001D0400003304000013040000FFFFFF7F05
:10110000EDFBFFFFF8B5041E31D0C70F00D04442FD
:10111000201C00F083F8184D2D1A0A2819DD0B3811
:10112000844024036D05240B6D0D3A1C002600201D
:1011300000210B0D2403240B1B0523430F4C2D050D
:101140001C402C4364006408D307211C301C194345
:10115000F8BD061C1536231CB3401E1C0B23181AA1
:10116000C44024036D05240B6D0D3A1CDFE70022FB
:10117000002500240026DAE71E040000FFFF0F8090
:10118000002934D00123002210B488422CD301243A
:101190002407A14204D2814202D209011B01F8E7CF
:1011A000E400A14204D2814202D249005B00F8E788
:1011B000884201D3401A1A434C08A04202D3001BB4
:1011C0005C0822438C08A04202D3001B9C082243E7
:1011D000CC08A04202D3001BDC082243002803D025
:1011E0001B0901D00909E3E7101C10BC7047002857
:1011F00001D00020C04307B4024802A14018029069
:1012000003BDC0462DF3FFFF0029F0D003B5FFF763
:10121000B9FF0EBC4243891A1847C0461C2101235E
:101220001B04984201D3000C10391B0A984201D3C9
:10123000000A08391B09984201D30009043902A2A7
:10124000105C40187047C04604030202010101010E
:10125000000000000000000080B584B000AF78609E
:101260007B6800225A717B6800229A607B680022AA
:101270001A617B680022DA607B6800229A647B68CE
:101280000022DA637B6800221A647B6800225A64B9
:101290000023FB6008E07A68FB68D3181033002253
:1012A0001A71FB680133FB60FB68032BF3DDBD465D
:1012B00004B080BD80B582B000AF786039607B68D3
:1012C0001B69022B15D002DC012B0ED019E0032B79
:1012D00002D0042B11D014E07A6823230021D154CA
:1012E0007A6824230021D1540BE07B681E22DA7532
:1012F00007E07B681E229A7503E07B681E221A7540
:10130000C0467B683A681A617B681B69042B52D817
:101310009A002A4BD3181B689F467B680022DA6329
:101320007B6800221A647B6800225A6443E07B6871
:1013300080221202DA637B68802212021A647B68C0
:1013400000225A647B689A6C7B689A637B681E22D1
:101350005A7530E07B6880221202DA637B680022D3
:101360001A647B6800225A647B689A6C7B685A63B3
:1013700021E07B680022DA637B6800221A647B68C4
:1013800000225A647B689A6C7B681A6313E07B685E
:1013900080221202DA637B68802212021A647B6860
:1013A00000225A647A682323FF21D1547A682423C7
:1013B000FF21D154C046BD4602B080BD304F000071
:1013C00080B584B000AFF8607A603B1C0B330A1C18
:1013D0001A703B1C0B331B78002B0CD0FB685B791D
:1013E000002B1CD1FB68181C0121FFF763FFFB6871
:1013F00001225A7113E07B681B78002B0CD0FB682C
:101400001B69002B08D0FB681B69042B04D0FB6808
:10141000181C0421FFF74EFFFB6800225A71BD46DD
:1014200004B080BD80B582B000AF78603960BD4641
:1014300002B080BD80B582B000AF7860BD4602B01A
:1014400080BDC04680B582B000AF786039603B682F
:10145000002B01D0C82301E0FA23DB007A68534354
:101460001B120133181CBD4602B080BD80B582B08E
:1014700000AF78607B68DB031B12181CBD4602B00E
:1014800080BDC04600000000F0B595B000AF7860A8
:1014900039600023FB6415E07A68FB6CD3181033C5
:1014A0001B79002B0BD07A68FB6CD31810331B7997
:1014B000013BDAB27968FB6CCB1810331A71FB6C04
:1014C0000133FB64FB6C032BE6DD7B681B69042B9B
:1014D00000D923E19A00D24BD3181B689F467B6842
:1014E00080221202DA647B681B781A1C3B685B78E6
:1014F000101C191CFFF7A6FF031CFB6380231802B6
:10150000F96BFEF7B5FF031CBB637B689A6CBB6B82
:10151000D2187B689A647B689B6CDA037B681B6BD0
:1015200080210902CB1A101C191CFEF7A1FF031C15
:101530001A1C7B68DA637B689A6CBA4B9A4209DDA5
:101540007B68802212029A647B68181C0221FFF7D4
:10155000B1FEE3E0E2E07B689B78181CFFF786FFB2
:10156000031C7B637B687A6BDA647B6BAE4A9C18E6
:101570007B685B781A1C3B685B78101C191CFFF7B2
:1015800061FF031C201C191CFEF772FF031C3B6348
:101590007B689A6C3B6BD2187B689A647B685A6B49
:1015A0007B6B9A421DDD7B689A6C7B6BD31AFB6266
:1015B0007B689A6C7B6BD31ADA037B6B8021090200
:1015C000CB1A101C191CFEF753FF031C1A1C7B6856
:1015D0001A647B681B6C80221202D21A7B681A6420
:1015E00006E07B68802212021A647B687A6B9A6438
:1015F0007B689A6C7B6B9A4220DC7B687A6B9A647E
:101600003B681B78002B03D03B681B78022B05D16D
:101610007B68181C0421FFF74DFE0FE07B689B6C74
:10162000002B05D17B68181C0021FFF743FE05E065
:101630007B68181C0321FFF73DFE6FE06EE07B68BE
:101640009B78181CFFF712FF031CBB627B68BA6A09
:10165000DA647B689B78181CFFF708FF021C7B6824
:101660009B6CD31A181C0521FEF702FF031C7B623A
:101670007B689A6C7B6AD2187B689A644EE07B68C0
:101680000022DA647B689B6B5C427B68DB781A1C07
:101690003B685B78101C191CFFF7D4FE031C201C50
:1016A000191CFEF7E5FE031C3B627B689A6C3B6AE3
:1016B000D2187B689A647B689A6B7B689B6CD31AA0
:1016C000DA037B689B6B101C191CFEF7D1FE031C10
:1016D0001A1C7B685A647B689B6C002B02DD3B6A9A
:1016E000002B16D17B6800229A643B681B78022B82
:1016F00009D17B685B79002B05D07B68181C012120
:10170000FFF7D8FD05E07B68181C0021FFF7D2FD2C
:1017100004E003E07B680022DA64C0467B681B6952
:10172000042B00D9BBE09A00404BD3181B689F469E
:101730007B68DA6C7B68DB68D31A181CFFF7E2FC65
:10174000051C0E1C7B681B780133181CFFF7DAFCA4
:10175000031C0C1C181C211C2E4B2D4AFEF7EAFE04
:10176000031C0C1C2C482D491A1C231CFEF7E2FEFE
:10177000031C0C1C281C311C1A1C231CFFF7FEF92F
:10178000031C0C1C181C211CFFF788FC031CFB61AC
:101790007B68DA68FB69D2187B68DA607FE07B6877
:1017A000DA6C7B68DB68D31A181CFFF7ABFC051CEE
:1017B0000E1C7B685B780133181CFFF7A3FC031C2D
:1017C0000C1C181C211C134B114AFEF7B3FE031C02
:1017D0000C1C114811491A1C231CFEF7ABFE031CFC
:1017E0000C1C281C311C1A1C231CFFF7C7F9031CF6
:1017F0000C1C181C211CFFF751FC031CBB617B68EF
:10180000DA68BB69D2187B68DA6048E0C046C04637
:101810000000000000E06F40FCA9F1D24D62703F73
:10182000444F0000FF7F00000080FFFF584F000082
:101830007B68DA6C7B68DB68D31A181CFFF762FCE4
:10184000051C0E1C7B68DB780133181CFFF75AFC63
:10185000031C0C1C181C211C604B5F4AFEF76AFE1F
:10186000031C0C1C5E485F491A1C231CFEF762FE19
:10187000031C0C1C281C311C1A1C231CFFF77EF9AE
:10188000031C0C1C181C211CFFF708FC031C7B61AB
:101890007B68DA687B69D2187B68DA60C04600230F
:1018A000BB6408E07A68BB6CD318183300221A7145
:1018B000BB6C0133BB64BB6C0C2BF3DD7B681B6919
:1018C000002B65D000237B647B68DA6B131C5B0004
:1018D0009B180133FF33DB117A6CD3187B647B6870
:1018E0001A6C131C5B009B18DB117A6CD3187B6499
:1018F0007B681B69032B02D13B4B7B640AE07B684E
:101900001B69042B06D17B685B6C9B00DB11374A9B
:101910009B187B647B68DA6A7B6C9A4202DD7B6889
:101920000022DA627B68DB6A1B123B617B6C1B1254
:10193000FB603B693B6408E07A683B6CD318183362
:10194000FF221A713B6C01333B643A6CFB689A428C
:10195000F2DB7B68DB6ADAB279683B69CB18183353
:101960001A717B6CDAB27968FB68CB1818331A717C
:101970007A682423D15C7A682223D1547A6824239C
:10198000D15C7A682323D1547B687A6CDA6202E0F6
:101990007B680022DA627B689A6C131C1B039B1A1B
:1019A00001D5134A9B18DB131A1C7B689A607B686D
:1019B0009A6C131C1B039B1A01D50D4A9B18DB1351
:1019C0001A1C7B68DA607B689B68181CBD4615B0E2
:1019D000F0BDC046C046C0460000000000E06F40B9
:1019E000FCA9F1D24D62703FFF080000FF09000022
:1019F000FF7F0000C046C04680B500AFBD4680BD39
:101A000080B582B000AF786000F04CF8BD4602B0FF
:101A100080BDC04680B582B000AF7860BD4602B0E0
:101A200080BDC04680B500AF00F088FCBD4680BDDB
:101A300080B582B000AF00237B6010E07B68DAB233
:101A4000BB1C101C191C01F0E9F8BB1C1B88191CDD
:101A5000074B7A689200D1507B6801337B607B68CA
:101A6000052BEBDD034B01221A60BD4602B080BDA1
:101A70000CFEFF1F20FCFF1F80B500AFBD4680BDE0
:101A800080B582B000AF7860054B5B69181C01F02F
:101A9000FBFD031C181C00F083FDBD4602B080BD99
:101AA00030FDFF1F80B500AF002001F087FF024B23
:101AB00001221A70BD4680BD00FCFF1F80B584B0B6
:101AC00000AF78603960384B1B78DBB2002B00D157
:101AD00067E0002001F066FF7B68012B30D1002316
:101AE000FB600023002B01D0002301E080235B0179
:101AF000FA681343FB600023002B01D0002301E0B0
:101B000080239B01FA681343FB603B681B051B0D98
:101B1000FA681343FB60FB681B0ADAB2234B1A70A6
:101B2000FB68DAB2214B5A701F4B00221A70204B0F
:101B30001A681E4B101C191C022202F0B3FE30E082
:101B400080231B02FB600023002B01D0002301E057
:101B500080235B01FA681343FB600023002B01D054
:101B6000002301E080239B01FA681343FB603B687C
:101B70001B051B0DFA681343FB60FB681B0ADAB2F6
:101B80000A4B1A70FB68DAB2084B5A70064B0022F7
:101B90001A70074B1A68054B101C191C022202F020
:101BA00081FEBD4604B080BD00FCFF1FB8FDFF1FD5
:101BB00030FDFF1F80B584B000AF78603B1C0F3351
:101BC00000221A707B689AB23B1C0F33101C191C40
:101BD00001F0BCFF3B1C0F331B78181CBD4604B042
:101BE00080BDC04680B582B000AF0A1CBB1D011C81
:101BF00019807B1D1A70BB1D1A887B1D1B78101C59
:101C0000191C01F02FFFBD4602B080BD90B587B012
:101C100000AFB9607A603B1C0E33021C1A800023AF
:101C20007B6111E07B69BA68D4183B1C0E331B88BA
:101C30003A1C0E32591C1180181CFFF7BBFF031C05
:101C400023707B6901337B617A697B689A42E9DBA7
:101C5000BD4607B090BDC04680B586B000AFB96044
:101C60007A603B1C0E33021C1A8000237B6111E05A
:101C70003B1C0E331B883A1C0E32591C11807A69AA
:101C8000B9688A181278181C111CFFF7ABFF7B6922
:101C900001337B617A697B689A42E9DBBD4606B015
:101CA00080BDC04680B582B000AF78607B681B7A8B
:101CB0001B071B0FDBB2012B06D17B681A7A0F21A1
:101CC0008A431A72012300E00023181CBD4602B0AB
:101CD00080BDC04680B582B000AF78607B681B7A5B
:101CE0001B061B0FDBB2012B06D17B68197A0F2272
:101CF0000A401A72012300E00023181CBD4602B0FE
:101D000080BDC04680B582B000AF786039607B6826
:101D1000002B05D03B681B685A1C3B681A6004E026
:101D20003B681B685A1E3B681A603B681B68012BA6
:101D300011DC3B681B69022B06D13B681A7A0F2124
:101D40008A4301210A431A723B6801221A603B68E8
:101D500001225A6014E03B681B681E2B10DD3B68B3
:101D60001B691E2B06D13B68197A0F220A401021ED
:101D70000A431A723B681F221A603B6800225A60AD
:101D80003B685B68002B05DD3B68DB685A1C3B68E1
:101D9000DA6002E03B680022DA603B681A683B6860
:101DA0001A613B68DA68054B9A4203DD3B68FA2208
:101DB000D200DA60BD4602B080BDC046CF07000049
:101DC00080B500AF002002F057FC031C1A1C124B18
:101DD000101C191CFFF796FF002002F0D5FE031C13
:101DE0001A1C0E4B101C191CFFF78CFF002002F070
:101DF0004FFE031C1A1C0A4B101C191CFFF782FF14
:101E0000002002F083FE031C1A1C064B101C191C38
:101E1000FFF778FFBD4680BD60FCFF1F4CFCFF1F35
:101E200038FCFF1F24FCFF1F80B500AFE14B1B787F
:101E30000933DAB2DF4B1A70DF4BDB69181C02F092
:101E40005FFCDE4B1A7BDB4B1B789A4205D9DA4BE1
:101E50001B6A181C01F0FAFD04E0D74B1B6A181C22
:101E600001F0E8FDD44B5B6A181C01F08BFBD24BF0
:101E70005B6A181C01F092FBD04B5A7CCD4B1B784F
:101E80009A4205D9CC4B1B6A181C01F0DFFD04E017
:101E9000C94B1B6A181C01F0CDFDC74B5B6A181CAF
:101EA00001F070FBC44B5B6A181C01F077FBC34B5D
:101EB0001A7CC04B1B789A4205D9BF4B1B6A181C71
:101EC00001F0C4FD04E0BC4B1B6A181C01F0B2FD1C
:101ED000B94B5B6A181C01F055FBB74B5B6A181CC9
:101EE00001F05CFBB54BDA7BB24B1B789A4205D90B
:101EF000B14B1B6A181C01F0A9FD04E0AE4B1B6A34
:101F0000181C01F097FDAC4B5B6A181C01F03AFB02
:101F1000A94B5B6A181C01F041FBA84B9A7BA54BAF
:101F20001B789A4205D9A44B1B6A181C01F08EFD40
:101F300004E0A14B1B6A181C01F07CFD9E4B5B6A00
:101F4000181C01F01FFB9C4B5B6A181C01F026FB60
:101F50009A4B5A7B974B1B789A4205D9964B1B6A32
:101F6000181C01F073FD04E0934B1B6A181C01F070
:101F700061FD914B5B6A181C01F004FB8E4B5B6AA0
:101F8000181C01F00BFB8D4B9A7C8A4B1B789A42F4
:101F900005D9894B1B6A181C01F058FD04E0864BDB
:101FA0001B6A181C01F046FD834B5B6A181C01F08C
:101FB000E9FA814B5B6A181C01F0F0FA7F4B1A7941
:101FC0007C4B1B789A4205D97B4B1B6A181C01F08D
:101FD0003DFD04E0784B1B6A181C01F02BFD764B8D
:101FE0005B6A181C01F0CEFA734B5B6A181C01F097
:101FF000D5FA724B5A796F4B1B789A4205D96E4BC2
:102000001B6A181C01F022FD04E06B4B1B6A181CB4
:1020100001F010FD684B5B6A181C01F0B3FA664BC7
:102020005B6A181C01F0BAFA644B9A79614B1B7811
:102030009A4205D9604B1B6A181C01F007FD04E0A9
:102040005D4B1B6A181C01F0F5FC5B4B5B6A181CAE
:1020500001F098FA584B5B6A181C01F09FFA574B35
:10206000DA79544B1B789A4205D9534B1B6A181CDA
:1020700001F0ECFC04E0504B1B6A181C01F0DAFC88
:102080004D4B5B6A181C01F07DFA4B4B5B6A181CC8
:1020900001F084FA494B1A7A464B1B789A4205D9CB
:1020A000454B1B6A181C01F0D1FC04E0424B1B6A33
:1020B000181C01F0BFFC404B5B6A181C01F062FA6F
:1020C0003D4B5B6A181C01F069FA3C4B5A7A394B5C
:1020D0001B789A4205D9384B1B6A181C01F0B6FCD4
:1020E00004E0354B1B6A181C01F0A4FC324B5B6A00
:1020F000181C01F047FA304B5B6A181C01F04EFACD
:102100002E4B9A7A2B4B1B789A4205D92A4B1B6A85
:10211000181C01F09BFC04E0274B1B6A181C01F003
:1021200089FC254B5B6A181C01F02CFA224B5B6A78
:10213000181C01F033FA214BDA7A1E4B1B789A42B5
:1021400005D91D4B1B6A181C01F080FC04E01A4BDA
:102150001B6A181C01F06EFC174B5B6A181C01F01F
:1021600011FA154B5B6A181C01F018FA144B9B7D91
:10217000002B05D0104B1B6A181C01F05BFC04E01F
:102180000D4B1B6A181C01F061FC0B4B5B6A181CA1
:1021900001F0F8F9084B5B6A181C01F0FFF9084BD5
:1021A0005B7D002B0ED0044B1B6A181C01F042FC17
:1021B0000DE0C04601FCFF1F30FDFF1F78FCFF1F34
:1021C000BCFDFF1F594B1B6A181C01F03FFC574B0D
:1021D0005B6A181C01F0D6F9544B5B6A181C01F0BD
:1021E000DDF9534B1B7D002B05D0504B1B6A181C8F
:1021F00001F020FC04E04D4B1B6A181C01F026FC8A
:102200004A4B5B6A181C01F0BDF9484B5B6A181C0D
:1022100001F0C4F9474BDA78474B1B789A4205D94D
:10222000424B1B6A181C01F011FC04E03F4B1B6A77
:10223000181C01F0FFFB3D4B5B6A181C01F0A2F972
:102240003A4B5B6A181C01F0A9F93A4B9A783A4B61
:102250001B789A4205D9354B1B6A181C01F0F6FB16
:1022600004E0324B1B6A181C01F0E4FB2F4B5B6A45
:10227000181C01F087F92D4B5B6A181C01F08EF9D0
:102280002C4B5A782C4B1B789A4205D9274B1B6A4A
:10229000181C01F0DBFB04E0244B1B6A181C01F046
:1022A000C9FB224B5B6A181C01F06CF91F4B5B6A7F
:1022B000181C01F073F91F4B1A781F4B1B789A42B8
:1022C00005D91A4B1B6A181C01F0C0FB04E0174B20
:1022D0001B6A181C01F0AEFB144B5B6A181C01F062
:1022E00051F9124B5B6A181C01F058F9104BDB7D59
:1022F000002B05D00D4B1B6A181C01F09BFB04E062
:102300000A4B1B6A181C01F0A1FB084B5B6A181CE6
:1023100001F038F9054B5B6A181C01F03FF9034BDB
:10232000DB69181C02F0F8F9BD4680BD30FDFF1FC7
:10233000BCFDFF1F78FCFF1F01FCFF1F80B582B0B2
:1023400000AFFFF73DFD454B1B685A1C434B1A601D
:10235000434B1B685A1C424B1A60414B1A680123BD
:10236000134002D0012B68D072E03E4A3E4B101C55
:10237000191CFFF789F83B4B9A683C4B1A603B4BA2
:102380001B680020191CFFF799FB00237B601EE0EF
:10239000344A7B68D31818331A7935497B68CB18CF
:1023A0001A70344A7B68D3181A7831497B68CB1885
:1023B0001B789A4208D22B4A7B68D31818331A79B3
:1023C0002C497B68CB181A707B6801337B607B6873
:1023D0000C2BDDDD00233B602BE0254A3B68D31846
:1023E0001A7824493B68CB181B789A420AD9214AAB
:1023F0003B68D3181B780133DAB21E493B68CB180F
:102400001A7013E01A4A3B68D3181A7819493B68C6
:10241000CB181B789A4209D2164A3B68D3181B780E
:10242000013BDAB213493B68CB181A703B680133A1
:102430003B603B68132BD0DD0AE00A4BDA680E4B99
:102440001A600D4B1B680120191CFFF737FBC046B3
:10245000FFF7EAFCBD4602B080BDC046A0FCFF1FEE
:1024600074FCFF1FBCFDFF1FB4FDFF1FA4FCFF1F7A
:102470008CFCFF1F78FCFF1FA8FCFF1F80B582B0FB
:1024800000AF78607B68012B0DD0022B15D0002B9C
:102490001DD1104B0022DA730E4B00229A730D4BA4
:1024A000FF225A7313E00B4B0022DA73094BFF2211
:1024B0009A73084B00225A7309E0064BFF22DA7325
:1024C000044B00229A73034B00225A73C046BD4648
:1024D00002B080BD8CFCFF1F80B582B000AF786079
:1024E0007B68002B08D0012B0DD1084BFF221A74FA
:1024F000064B00225A7406E0044B00221A74034B68
:10250000FF225A74C046BD4602B080BD8CFCFF1F3E
:1025100080B582B000AF00201021FFF763FB0223DB
:102520007B60054A7B680120111C1A1CFFF794FB95
:10253000BD4602B080BDC046B4FDFF1F90B583B05C
:1025400000AFFC1D0020FFF735FB031C2370FB1DB3
:102550001B78102B0DD102233B60084A3B680120F9
:10256000111C1A1CFFF752FB044B181CFEF762FFEC
:1025700001E0FFF7CDFFBD4603B090BDB4FDFF1FE6
:1025800080B500AF054B5B78181CFFF7A5FF034B28
:102590001B78181CFFF772FFBD4680BDB4FDFF1FFE
:1025A00080B582B000AF78600D4B1B68012B00D165
:1025B00012E07B685A1E1343DB0FDBB21A1C094979
:1025C000094B081C111C1A1CFEF7FAFE7B68002B35
:1025D00002D1064BFF229A74BD4602B080BDC046B0
:1025E000ACFCFF1FBCFDFF1FB4FDFF1F78FCFF1FED
:1025F00080B586B000AF01F0E9F8894B181CFEF7F2
:102600002BFE884A884B101C191CFEF70BFFFFF7A6
:1026100095FF00237B6107E0844A7B69D318FF2282
:102620001A707B6901337B617B69112BF4DD804B70
:102630009B68181C02F0A6FB012000F01FFB002085
:1026400000F0C8FA00233B611DE00023FB6011E0AD
:102650003A69FB689A4205D1764AFB68D318FF2293
:102660001A7004E0734AFB68D31800221A70FB68E2
:102670000133FB60FB680C2BEADD282002F0FCFB39
:102680003B6901333B613B690C2BDEDD0023BB6002
:1026900007E0664ABB68D31800221A70BB68013392
:1026A000BB60BB68112BF4DD8C2002F0E5FBFFF76B
:1026B000BBFB01237B60FFF763FFFFF7B5FBFB1C50
:1026C00000221A705C4B181CFFF7ECFA031C002B5D
:1026D0000FD001237B60544B1B780133181C03215E
:1026E000FDF71CFF0B1CDAB24F4B1A70FB1C0122CA
:1026F0001A70524B181CFFF7D5FA031C002B12D08E
:1027000001237B60484B5B785A1C4D4B134004D52A
:10271000013B0222524213430133DAB2424B5A7058
:10272000FB1C01221A70474B181CFFF7BBFA031C55
:10273000002B0FD0444B01221A60394A3A4B101C2F
:1027400001211A1CFEF73CFE384BFF229A74394BCC
:10275000FF229A743B4B181CFFF7BCFA031C002B9A
:102760000CD0394B00221A60304B00229A742C4A4C
:102770002D4B101C00211A1CFEF722FE334B1B6848
:10278000012B05D1314B00221A60002000F022FA03
:102790002F4B1B681B12DBB2DB43DAB2204B1A70E3
:1027A0002B4B5B681B12DBB2DB43DAB21C4B5A705B
:1027B000274B9B681B12DBB2DB43DAB2184B9A70D3
:1027C000234BDB681B12DBB2DB43DAB2144BDA704B
:1027D0001F4B1B691B12DBB2DB43DAB2104B1A71C1
:1027E0001B4B5B691B12DBB2DB43DAB20C4B9A71F9
:1027F0007B68012B01D1FFF7C3FEFB1C1B78012B6B
:102800000CD1144B1B68092B08DDFFF781FEFB1C64
:1028100000221A700F4B00221A6053E752E7C0469D
:10282000BCFDFF1F24FEFF1FB4FDFF1F8CFCFF1F1C
:1028300030FDFF1F78FCFF1F38FCFF1F24FCFF1F2B
:10284000010000804CFCFF1FACFCFF1F20FCFF1FA1
:102850000CFEFF1FA0FCFF1F80B582B000AF7860A8
:102860003960BD4602B080BD80B58AB000AFF86067
:10287000B9607A607B687B6204233B620323FB615F
:102880000223BB6101237B6101233B61FA68BB68C2
:102890009A4202D07B68002B00D14DE049E0FB69F1
:1028A000BA68134018D1FB69FA68134014D13A6A28
:1028B0007B6A9A4210D8FB68BA6812681A603B6A51
:1028C000FA68D318FB603B6ABA68D318BB603B6AEE
:1028D0007A6AD31A7B622CE07B69BA68134018D1FC
:1028E0007B69FA68134014D1BA697B6A9A4210D89E
:1028F000FB68BA6812881A80BB69FA68D318FB6053
:10290000BB69BA68D318BB60BB697A6AD31A7B62A9
:102910000FE0FB68BA6812781A703B69FA68D3183E
:10292000FB603B69BA68D318BB603B697A6AD31A0B
:102930007B627B6A002BB2D1BD460AB080BDC04627
:1029400090B583B000AF2D4B002B00D153E0002396
:102950007B6032E029497A68131C5B009B189B005E
:10296000CB18586825497A68131C5B009B189B009C
:102970005958224C7A68131C5B009B189B00E31883
:1029800008331B681A1CFFF76FFF1C497A68131C79
:102990005B009B189B00CB18596818487A68131C79
:1029A0005B009B189B00C31808331B68081C191C8C
:1029B000FFF752FF7B6801337B6010497A68131C74
:1029C0005B009B189B005B58002BC3D10B497A68B6
:1029D000131C5B009B189B00CB185B68002BB9D1C4
:1029E00006497A68131C5B009B189B00CB180833C0
:1029F0001B68002BAED1BD4603B090BDA04F0000B8
:102A000080B588B000AF274A274BD31AFB61264B0D
:102A1000BB6104237B6103233B610223FB60012331
:102A2000BB6001237B60FB69002B00D136E032E004
:102A30003B69BA6913400FD17A69FB699A420BD896
:102A4000BB6900221A607B69BA69D318BB617B69D4
:102A5000FA69D31AFB611EE0BB68BA6913400FD153
:102A6000FA68FB699A420BD8BB6900221A80FB689E
:102A7000BA69D318BB61FB68FA69D31AFB610AE033
:102A8000BB6900221A707B68BA69D318BB617B6886
:102A9000FA69D31AFB61FB69002BC9D1BD4608B0A6
:102AA00080BDC04660FEFF1F04FCFF1F80B500AF65
:102AB000BD4680BD80B500AFBD4680BD80B582B04B
:102AC00000AF0E4B7B60FFF7F1FF00F001FE7B686B
:102AD000181C002805D0854681B00020C043009016
:102AE00001B0FFF78DFFFFF72BFFFFF7E3FF044B6C
:102AF0000020191CFFF77CFDFEE7C046000C0020FB
:102B0000B0FCFF1F80B500AF094B00221A80084BB4
:102B100000225A80064B00229A80054B0022DA8060
:102B2000034B00221A81024B00225A81BD4680BD10
:102B300048FEFF1F80B500AF1F4B1B78DBB2002B98
:102B400038D01D4B1B78DBB2032B0BD01B4B002264
:102B50001A701B4B00221A70FFF7D4FF194B00228A
:102B60001A701AE0164B1B78DBB2174AD35CDB43B2
:102B7000DBB2124A1278D2B21340DAB20F4B1A709B
:102B80000F4B1B78DBB21A1C104B52000021D152A4
:102B90000B4B1B78DAB20B4B1A700D4B1A68094BB2
:102BA000101C191C012200F0DDF9094B1B68181CD0
:102BB00000F0B6F9BD4680BDD9FCFF1FE4FCFF1F45
:102BC000D8FCFF1FDCFCFF1F6C4F000048FEFF1FFE
:102BD00054FEFF1F80B582B000AF021CFB1D1A70AF
:102BE0000D4B1B78DBB2002B01D008230FE00A4B02
:102BF00001221A70FFF79EFFFB1D1B78002B05D0EA
:102C0000C046054B1B78DBB2012BFAD00023181C01
:102C1000BD4602B080BDC046D9FCFF1F80B582B062
:102C200000AF021C3960FB1D1A70FB1D1B78052BC1
:102C300001D9022317E0FB1D1B780D4AD35C0D4A16
:102C40001278D2B21340DBB2002B01D109230AE083
:102C5000FB1D1A78084B5200D35A9BB21B019AB243
:102C60003B681A800023181CBD4602B080BDC046D8
:102C70006C4F0000E4FCFF1F48FEFF1F80B582B0D0
:102C800000AF021CFB1D1A701A4B1B78DBB2002B25
:102C900001D0082329E0174B04221A70164B1B6839
:102CA000181C00F0C5F9144B1B68181C00F002FA40
:102CB000FB1D1B78002B01D1002316E0C0460E4BF4
:102CC0001B68181C00F0B4F9031C002BF7D00A4B4A
:102CD0001B68181C00F012FA031C002B04D0054BD3
:102CE00000221A701B2300E00023181CBD4602B00E
:102CF00080BDC046D9FCFF1F54FEFF1F80B582B0C7
:102D000000AF7860354B1B78DBB2042B0AD1344B13
:102D10001B68181C00F0F2F9304B00221A70FEF705
:102D2000ABFE58E02D4B1B78DBB2032B36D02C4B7F
:102D30001A682C4B1B78DBB259002B4BCB18101C9C
:102D4000191C00F045F9274B1B78DBB20133DAB2CE
:102D5000244B1A70234B1B78DBB2062B0BD1214B73
:102D600000221A70214B3F221A70FEF761FE1B4BA6
:102D700000221A702FE01B4B1B78DAB21C4B1A7022
:102D8000174B1A681A4B101C191C012200F0EAF8A4
:102D9000134B1B68181C00F0C3F81CE0104B1A689A
:102DA000104B1B78DBB259000F4BCB18101C191CB1
:102DB00000F00EF90B4B1B78DBB20E4AD25C0B4BCA
:102DC0001B78DBB21343DAB2084B1A70FEF730FE01
:102DD000024B00221A70BD4602B080BDD9FCFF1F15
:102DE00054FEFF1FD8FCFF1F48FEFF1FE4FCFF1F1F
:102DF000DCFCFF1F6C4F000080B500AF064B0022CB
:102E00001A70064B00221A70002000F00BF8021C0A
:102E1000034B1A60BD4680BDE4FCFF1FD9FCFF1FB9
:102E200054FEFF1F80B584B000AF7860324BFB606A
:102E3000FB687A685A60314BFA681A60FB680022B6
:102E40001A70FB6800229A702D4A2D492D4BCB58E1
:102E50008021090519432B4BD1502B4A2A49C32302
:102E60009B00CB581B021B0A802109061943C32370
:102E70009B00D150244B244A1268802109020A4346
:102E80001A60224B214A516B214A0A405A631F4B58
:102E90001E4A91681E4A0A409A601E4B1D4A116ADA
:102EA0001B4A0A401A621B4B1A4A516A184A0A40C6
:102EB0005A62164B154AD16A154A0A40DA62154B16
:102EC000144A116B124A0A401A63134B57229A6034
:102ED000114B114AD2680F218A43DA600E4B00224F
:102EE0001A620D4B40225A620C4BFA68DA60FB689A
:102EF000181CBD4604B080BDE8FCFF1FF0FCFF1F9E
:102F0000007004403C10000000E100E000A004401C
:102F1000FFF8FFFE0090044000B0034030FDFF1FAB
:102F200080B582B000AF78600D4B1A6A80231340E1
:102F300001D0082310E00A4B094A526A48218A430B
:102F40005A62074B064A126A40218A431A62044BAE
:102F50007A6852781A600023181CBD4602B080BD02
:102F600000B0034080B586B000AFF860B960FB1DCB
:102F70001A70FB687B61FB1D1B78012B03D8FB1DBE
:102F80001B78002B01D196231AE00F4B1A6A80237D
:102F9000134001D0082313E07B69FA1D12781A70E0
:102FA000BB681B78052B01D9822309E0BB681B781D
:102FB000064AD35C40221343DAB27B695A7000237D
:102FC000181CBD4606B080BD00B00340744F000021
:102FD00080B584B000AF786039603B68BB603B1C53
:102FE0000F3300221A7015E03B1C0F331B785B0077
:102FF000BA68D3180D4A391C0F3109780431890099
:103000008A5892B21A803B1C0F331A783B1C0F333C
:1030100001321A707B681B783A1C0F3212789A4280
:10302000E2D30023181CBD4604B080BD00B00340AD
:1030300080B584B000AF78607B68FB603B1C0A33CE
:10304000EFF3108072B61870184B1B78DBB20133A7
:10305000DBB2164A191C1170012B04D13B1C0A3338
:103060001A78134B1A703B1C0B33FA6892781A705B
:10307000FB6800229A700D4B1B78DBB2013BDBB280
:103080000A4A191C1170002B03D1094B187880F3E0
:1030900010883B1C0B331B78002B01D0012300E070
:1030A0000023181CBD4604B080BDC04600FDFF1FB4
:1030B0005EFEFF1F80B582B000AF78600E4B1A6ACB
:1030C0008023134001D0082311E00B4B0A4A126AF7
:1030D00040218A431A62084B5F221A60064B064A57
:1030E000526AC0218A4380210A435A620023181C75
:1030F000BD4602B080BDC04600B0034080B584B07C
:1031000000AF7860184B5A6A4023134001D01B234C
:1031100025E0154BDB6CFB60134B9B6CFA68D318F6
:10312000FB60114B5B6CFA68D318FB600E4B1B6C99
:10313000FA68D318FB600C4BDB6BFA68D318FB60A2
:10314000094B9B6BFA68D318FB60FB685B08802215
:1031500012021343FB60044BFA68DA620023181C66
:10316000BD4604B080BDC04600B0034080B582B00B
:1031700000AF084B1B687B607B6801229A707B68FC
:103180005B68181CFFF7BAFD034B1B69BD4602B014
:1031900080BDC046F0FCFF1F00B0034090B587B073
:1031A00000AFF8607A603B1C0A330A1C1A803B1C93
:1031B000163300221A803B1C0A331B88002B04D1D3
:1031C0007B6800221A80002381E0434B19683C1C75
:1031D0001234FA683B1C0A331B88081C111C1A1C89
:1031E000002300F0D1FF031C23803B1C12331B88FB
:1031F000082B01D10C236AE03B1C143300221A80F7
:103200002DE0354B1B68181C00F0D8FD324B1B68B5
:10321000181C01F063F8031C002B00D025E02E4B96
:103220001B68181C01F074F8031C3A1C1632128833
:103230009A420DD03B1C1433012252421A80264B75
:103240001B683C1C1634181C01F062F8031C238018
:103250003B1C14331A883B1C143301321A803B1C6C
:1032600014331A881D4B9A42CBD91B4B1B68181C70
:1032700001F04EF8031C1A1C7B681A80164B1A6862
:103280003B1C1033101C191C01F09EF93B1C103321
:103290001B88002B11D03B1C10331B881A1C0823E1
:1032A000134001D0082312E03B1C10331B881A1C6A
:1032B0000423134001D0152309E03B1C14331A8862
:1032C000FA23DB009A4201D10C2300E00023181CF2
:1032D000BD4607B090BDC04658FEFF1FCF07000097
:1032E00090B589B000AFF8607A603B1C0A330A1CC5
:1032F0001A803B1C1E3300221A803B1C0A331B8899
:10330000002B04D17B6800221A800023A2E0534BDB
:1033100019683C1C1A34FA683B1C0A331B88081CC9
:10332000111C1A1C012300F0FDFF031C23803B1C11
:103330001A331B88082B01D10C238BE03B1C1C3358
:1033400000221A802DE0454B1B68181C00F036FD4A
:10335000424B1B68181C01F08FF8031C002B00D097
:1033600025E03E4B1B68181C01F0A4F8031C3A1C16
:103370001E3212889A420DD03B1C1C33012252424D
:103380001A80364B1B683C1C1E34181C01F092F846
:10339000031C23803B1C1C331A883B1C1C3301324A
:1033A0001A803B1C1C331A882D4B9A42CBD92B4BCD
:1033B0001B68181C01F07EF8031C1A1C7B681A801D
:1033C000264B1A683B1C1833101C191C01F0FCF822
:1033D0003B1C18331B88002B11D03B1C18331B8857
:1033E0001A1C0823134001D0082333E03B1C183378
:1033F0001B881A1C0423134001D015232AE03B1C10
:103400001C331A88FA23DB009A4201D10C2321E0F5
:103410003B1C1C3300221A8015E0104B1A683B1C21
:103420001733101C191C01F0E3F83B1C17331B78F1
:10343000012B01D100230DE03B1C1C331A883B1CDF
:103440001C3301321A803B1C1C331A88044B9A42ED
:10345000E3D90C23181CBD4609B090BD58FEFF1FD0
:10346000CF07000080B582B000AF184B174A9278A2
:10347000D2B220218A43D2B29A70144B134A927866
:10348000D2B210218A43D2B29A70BB1DFA22D20066
:103490001A8011E00E4B1A687B1D101C191C01F0DC
:1034A000A7F87B1D1B78012B01D1002309E0BB1D70
:1034B0001A88BB1D013A1A80BB1D1B88002BE9D15D
:1034C0000C23181CBD4602B080BDC04600600640FB
:1034D00058FEFF1F80B582B000AF021CFB1D1A70A2
:1034E000094B1A68FB1D1B7899B27F230B409BB2D6
:1034F000101C00211A1C00F0E7FF031CDBB2181C93
:10350000BD4602B080BDC04658FEFF1F80B500AF6B
:10351000002000F0C7FD021C014B1A60BD4680BDB3
:1035200058FEFF1F80B584B000AF7860104BFB6081
:10353000FB687A681A600F4B0E4A526940210A43B1
:103540005A610C4B0B4A126840218A431A600A4B9D
:10355000094A9169094A0A40802149000A439A614F
:10356000074BFA685A62FB68181CBD4604B080BD60
:10357000F4FCFF1F40F00F4000A00440FFF8FFFEE6
:1035800030FDFF1F80B582B000AF7860024B402253
:103590009A60BD4602B080BD40F00FF880B582B0A1
:1035A00000AF7860024B40225A60BD4602B080BD39
:1035B00040F00FF880B584B000AF78601A4BFB6024
:1035C000FB687A681A60194BFA681A60184B184A37
:1035D0005168184A0A40802149000A435A60144B36
:1035E000134A5168144A0A4014490A435A60144A5B
:1035F0001349C7239B00CB581B021B0A80210906D5
:103600001943C7239B00D1500D4B0D4A12688021EE
:1036100009060A431A600B4BFA685A61FB68181CCA
:10362000BD4604B080BDC046F8FCFF1FFCFCFF1F78
:1036300000A00440FFF8FFFEFFFFF0FE00000B01BA
:1036400000E100E030FDFF1F80B582B000AF0C4B01
:103650001B687B600B4B5A6880235B0413400BD0C4
:10366000084B084A5268802149040A435A607B6823
:103670001B68181CFEF704FABD4602B080BDC046A8
:10368000FCFCFF1F00A0044080B582B000AF786052
:10369000054B1A690223134001D0012300E00023E7
:1036A000181CBD4602B080BD40F00F4080B500AF91
:1036B000FFF7CAFFBD4680BD80B500AFFEF79CF99D
:1036C000BD4680BD80B500AFFFBEBD4680BDC046D3
:1036D00080B500AF324A3349334BD150334A882347
:1036E0005B010021D150314A314BC0218902D150B8
:1036F0002E4A2E492F4BCB58C021C90019432D4BC0
:10370000D1502D4B9B78DBB21A1C0823134007D0F5
:10371000294B294A9278D2B208210A43D2B29A7030
:10372000224A234B80214902D150204A1F49234B72
:10373000C958234B0B408021490419431F4BD150DA
:10374000204B06221A701F4B1E4A5278D1B24022DB
:103750000A40D2B25A701B4B1A4AD278D2B2D2B2B5
:10376000111C1F220A40D2B2602149420A43D2B240
:10377000D2B2DA70144B80221A70C046114B9B797A
:10378000DBB21A1C10231340F8D0C0460D4B9B79B6
:10379000DBB21A1C0C231340F8D1BD4680BDC046D5
:1037A00000E000E000000000080D00000070044090
:1037B000441000003810000000D007400410000042
:1037C000FFFFFFFC004006400050064080B500AF00
:1037D000524B524A5279D2B21F218A43D2B25A7105
:1037E0004E4B4E4A1279D2B207218A43D2B21A7195
:1037F0004B4B4B4A1278D2B2D2B273218A43D2B227
:1038000050210A43D2B2D2B21A70454B444A527880
:10381000D2B2D2B263218A43D2B240210A43D2B299
:10382000D2B25A703E4B3E4A9278D2B219218A43A4
:10383000D2B29A703B4B00221A703B4B3A4AD16885
:103840003A4A0A4002210A43DA60374B364A116984
:10385000364A0A4002210A431A61334B324A116B3D
:10386000324A0A4002210A431A63314A3049C723C7
:103870009B00CB581B04190CC7239B00D1502D4B28
:103880002C4A526902218A435A612B4B2A4A916A77
:10389000264A0A4002210A439A62234B224A51686F
:1038A000264A0A40C02189000A435A60204A20491A
:1038B000C1239B00C958224B1940C1239B00D15002
:1038C000002000F06DFF002001F034FAFFF794FAB9
:1038D00000F02EFF002000F035F80020FFF76AFE10
:1038E000002001F0A9F8002000F0DAFE002000F02E
:1038F00071F80020FFF716FE002001F01BF90020F0
:1039000001F0DAF800F02EFFFFF700FE00F00EFAEB
:10391000002000F087FE62B6BD4680BD00F0074083
:1039200000D0074000E0074000900440FDFFFFFE8C
:1039300000E100E040F00F4000A00440FFF8FFFE6F
:10394000FFFF00FF80B584B000AF7860104BFB60D4
:10395000FB687A681A600F4B0E4A526920210A43AD
:103960005A610C4B0B4A126820210A431A600A4B19
:10397000094A5169094A0A40802149000A435A61AB
:10398000074BFA681A61FB68181CBD4604B080BD7D
:1039900004FDFF1F00F00F4000900440FFF8FFFE01
:1039A00030FDFF1F80B582B000AF7860024B20224F
:1039B0009A60BD4602B080BD00F00FF880B582B0BD
:1039C00000AF7860024B20225A60BD4602B080BD35
:1039D00000F00FF880B584B000AF7860104BFB604A
:1039E000FB687A681A600F4B0E4A526980210A43BD
:1039F0005A610C4B0B4A126880218A431A600A4BA9
:103A0000094AD169094A0A40802149000A43DA611A
:103A1000074BFA681A62FB68181CBD4604B080BDEB
:103A200008FDFF1F40F00F4000A00440FFF8FFFE1C
:103A300030FDFF1F80B582B000AF7860024B80225E
:103A40009A60BD4602B080BD40F00FF880B582B0EC
:103A500000AF7860024B80225A60BD4602B080BD44
:103A600040F00FF890B585B000AF0A1CBB1D011CDB
:103A700019807B1D1A70BB1D1B881B0A9BB2DBB211
:103A80001A1C07231340DBB250221343DBB2DBB214
:103A90003C1C0F34181C00F0B7F8031C23703B1CAF
:103AA0000F331B78002B05D000F0C4F83B1C0F33FC
:103AB0001B7846E0BB1D1B88DAB23B1C0C331A7026
:103AC0003B1C0C337A1D12785A703C1C0F343B1C83
:103AD0000C33181C0221002200F0EAF8031C2370AA
:103AE0003B1C0F331B78002B05D000F0A3F83B1CC8
:103AF0000F331B7825E03B1C0C33FF221A7000208B
:103B000001F0BAF93C1C0F343B1C0C33181C01218A
:103B10000022642300F00EF9031C23703B1C0F33BA
:103B20001B78002BEBD13B1C0F331B78002B05D0EF
:103B300000F080F83B1C0F331B7802E000F07AF8AD
:103B4000031C181CBD4605B090BDC04690B585B09D
:103B500000AF021C3960BB1D1A80BB1D1B88DAB286
:103B60003B1C0E331A70BB1D1B881B0A9BB2DBB2B9
:103B70001A1C07231340DBB250221343DBB2DBB223
:103B80003C1C0F34181C00F03FF8031C23703B1C36
:103B90000F331B78002B05D000F04CF83B1C0F3383
:103BA0001B782DE03C1C0F343B1C0E33181C0121EC
:103BB000012200F07DF8031C23703B1C0F331B789F
:103BC000002B05D000F036F83B1C0F331B7817E0B4
:103BD0003C1C0F343B68181C0121002200F030F817
:103BE000031C23703B1C0F331B78002B05D000F007
:103BF00021F83B1C0F331B7802E000F01BF8031C7C
:103C0000181CBD4605B090BD80B582B000AF021C47
:103C1000FB1D1A70FB1D1B78181CFFF75BFC031CB7
:103C2000002B01D01B2300E00023181CBD4602B06E
:103C300080BDC04680B500AF0023181CBD4680BDC6
:103C400090B585B000AF7860BB1C19807B1C1A70E2
:103C50003B1C0F3300221A703C1C0F347968BB1CCC
:103C60001A883B1C0C33081C111C1A1CFFF738FB6C
:103C7000031C23703B1C0F331B78002B00D010E07B
:103C80007B1C1B78002B0BD13C1C0F34FFF7EAFB8D
:103C9000031C23703B1C0F331B78002B00D000E06B
:103CA000C0463B1C0F331B78181CBD4605B090BDA9
:103CB00090B585B000AF7860BB1C19807B1C1A7072
:103CC0003B1C0F3300221A703C1C0F347968BB1C5C
:103CD0001A883B1C0C33081C111C1A1CFFF75EFAD7
:103CE000031C23703B1C0F331B78002B02D0FFF703
:103CF000B9FB14E07B1C1B78002B03D07B1C1B78CA
:103D0000022B0BD13C1C0F34FFF7ACFB031C2370C0
:103D10003B1C0F331B78002B00D000E0C0463B1C3F
:103D20000F331B78181CBD4605B090BD80B500AFA1
:103D3000BD4680BD90B587B000AFF860081C111C6F
:103D40001A1C3B1C0A3318803B1C09331970BB1D1D
:103D50001A803B1C173300221A703C1C1734F96878
:103D60003B1C0A331A883B1C1433081C111C1A1CF8
:103D7000FFF714FA031C23703B1C17331B78002B2E
:103D800002D0FFF76FFB11E03B1C09331B78002BBF
:103D90000BD13C1C1734FFF765FB031C23703B1C45
:103DA00017331B78002B00D000E0C0463B1C1733B4
:103DB0001B78181CBD4607B090BDC04690B585B0B5
:103DC00000AF78607B68BB603B1C0E3300221A801A
:103DD000B34BDB78DBB21A1C0223134000D15BE14A
:103DE000AF4BDB78DCB2AE4BAD4AD278D2B2D2B2B6
:103DF00012218A43D1B2E2B20A43D2B2D2B2DA700D
:103E0000A74B9B78DBB21A1C2023134000D111E191
:103E1000A34B9B78DBB21A1C1023134000D1C0E0E7
:103E2000221C012313402CD09D4B9D4A9278D2B284
:103E300020218A43D2B29A70994B994A9278D2B291
:103E400010218A43D2B29A70BB6800221A82BB68E2
:103E500000221A81BB681B7801229343DAB2BB6847
:103E60001A70BB681B7806221343DAB2BB681A705B
:103E70003B1C0E333A1C0E32128808210A431A806A
:103E8000FCE0BB681B781A1C0223134000D17CE0C5
:103E9000BB681B8A002B14D0BB681B8A013B9AB2FB
:103EA000BB681A82BB685B8A01339AB2BB685A82CC
:103EB0007B49BB685B69581CBA6850611B780B7101
:103EC000DCE0BB681B89002B3CD0BB681B781A1C4C
:103ED000042313401FD0BB681B89012B08D1704BF2
:103EE0006F4A9278D2B208210A43D2B29A7007E0A0
:103EF0006B4B6B4A9278D2B208218A43D2B29A7045
:103F0000674B674A9278D2B210218A43D2B29A7034
:103F1000634B1B79B2E0624B614A9278D2B20421C2
:103F20000A43D2B29A705E4BBA68D27901210A4331
:103F3000D2B21A71BB681B7804221343DAB2BB6891
:103F40001A709BE0BB681B7801229343DAB2BB680E
:103F50001A70BB689B78012B0FD1514B504A927855
:103F6000D2B220218A43D2B29A704D4B4C4A9278F9
:103F7000D2B210218A43D2B29A70BB685B78012218
:103F80001343DAB2BB685A7078E0454BBA6892794D
:103F90001A71BB681B7802221343DAB2BB681A702D
:103FA0006CE0BB681B89013B9AB2BB681A81BB6895
:103FB0005B8901339AB2BB685A81BB681B89002BAD
:103FC0000CD0BB681B89012B1FD1354B344A92782A
:103FD000D2B208210A43D2B29A7016E0BB681B78AD
:103FE00001229343DAB2BB681A702D4B2C4A9278A7
:103FF000D2B220218A43D2B29A70294B284A9278B1
:10400000D2B208218A43D2B29A70BB68DB68591CCD
:10401000BA68D160224A1279D2B21A70BB681B8981
:10402000002B2BD1BB685B7802221343DAB2BB684A
:104030005A7023E0221C102313401FD0BB680022BB
:104040001A82BB6800221A81BB6801229A70BB6881
:104050001B7801229343DAB2BB681A70104B104AE6
:104060009278D2B210218A43D2B29A703B1C0E339E
:104070003A1C0E32128804210A431A803B1C0E336C
:104080001B88002B08D0BB689A883B1C0E331B880A
:1040900013439AB2BB689A80BD4605B090BDC04636
:1040A0000060064080B584B000AF78602F4BFB60A5
:1040B000FB687A689A61FB6820221A70FB681022FC
:1040C0009A71FB6801229A70FB6800225A81FB6892
:1040D00000221A81FB6800225A82FB6800221A82A1
:1040E000FB6800225A70FB6800229A80204A20490F
:1040F000204BCB58402119431E4BD1501E4B002260
:104100009A701D4B50229A711B4B0222DA701B4B86
:104110001A4A11691A4A0A40802189000A431A6121
:10412000164B164AD168164A0A40802189000A4374
:10413000DA60114B00225A710F4B00229A710E4B1C
:104140002D225A700C4B0C4A9278D2B2D2B28021F6
:1041500049420A43D2B2D2B29A700A4BFA681A6341
:10416000FB68181CBD4604B080BDC0460CFDFF1F97
:1041700000700440341000000060064000A00440BD
:10418000FFF8FFFE30FDFF1F80B586B000AFF8607E
:10419000B960111C1A1CBB1D19807B1D1A70FB68AD
:1041A0007B61BB1D1B88002B01D1002390E07B6944
:1041B0009B78012B12D1484BDB78DBB21A1C2023F1
:1041C000134009D17B691B781A1C0123134003D1CA
:1041D0007B691B8A002B0DD0082379E07B691B7853
:1041E0001A1C0123134003D17B691B8A002B01D0C9
:1041F00008236DE07B691B7801221343DAB27B69E7
:104200001A707B69BA685A617B6900225A827B699D
:10421000BA1D12881A827B697A1D12789A702E4B09
:104220002D4A9278D2B2D2B210210A43D2B2D2B27F
:104230009A70294B9B78DBB21A1C2023134008D0BC
:10424000254B254A9278D2B204210A43D2B29A7001
:1042500009E0214B204A9278D2B2D2B220210A43FF
:10426000D2B2D2B29A707B691B781A1C20231340F9
:104270000BD07B691B7806221343DAB27B691A7074
:10428000154B7A6992791A7121E07B691B781A1CA7
:10429000102313400BD07B691B7806229343DAB2BC
:1042A0007B691A700C4B7A69D2791A710FE07B69BD
:1042B0001B781A1C0823134009D07B691B78022243
:1042C0001343DAB27B691A70034B00221A71002380
:1042D000181CBD4606B080BD0060064080B584B0A5
:1042E00000AF78603B1C0F337A6852781A707B6895
:1042F0005B7801229343DAB27B685A703B1C0F3320
:104300001A7801231340DBB2181CBD4604B080BDEF
:1043100080B582B000AF78607B685B8A181CBD46B0
:1043200002B080BD80B586B000AFF860B960111CE6
:104330001A1CBB1D19807B1D1A70FB687B61BB1D9D
:104340001B88002B01D1002390E07B1D1B78002BE4
:1043500001D181238AE07B691B781A1C0823134052
:1043600001D0092382E07B699B78012B12D1414B5C
:10437000DB78DBB21A1C2023134009D17B691B7840
:104380001A1C0123134003D17B691B89002B0DD01C
:1043900008236BE07B691B781A1C0123134003D1AF
:1043A0007B691B89002B01D008235FE07B691B78A8
:1043B00001221343DAB27B691A707B69BA68DA604A
:1043C0007B6900225A817B69BA1D12881A817B6938
:1043D0007A1D12789A70274B264A9278D2B2D2B2BE
:1043E00010210A43D2B2D2B29A70224B9B78DBB230
:1043F0001A1C2023134008D01E4B1E4A9278D2B2BA
:1044000004210A43D2B29A7009E01A4B194A9278F1
:10441000D2B2D2B220210A43D2B2D2B29A707B6910
:104420001B781A1C202313400ED07B691B780622B0
:104430001343DAB27B691A700E4B7A6992790121C3
:104440000A43D2B21A7110E07B691B781A1C102340
:1044500013400AD07B691B7806229343DAB27B694A
:104460001A70044B7A69D2791A710023181CBD4660
:1044700006B080BD0060064080B584B000AF7860B3
:104480003B1C0F337A6852781A707B685B78022283
:104490009343DAB27B685A703B1C0F331A780223BD
:1044A000134001D0012300E00023181CBD4604B0D6
:1044B00080BDC04680B582B000AF78607B685B8904
:1044C000181CBD4602B080BD80B584B000AF7860D6
:1044D000FB1C19703B1C1A807B68FB60FB681B7817
:1044E0001A1C0123134001D0082366E0FB1C1B7833
:1044F000012B1FD0022B4ED0002B5BD13B1C1B8805
:104500007F2B01D9892358E03B1C1B88DBB2DB18C9
:10451000DAB2FB689A71FB681B7818229343DAB20F
:10452000FB681A70FB681B7820221343DAB2FB6821
:104530001A7041E03B1C1A88224B9A4201D9892308
:104540003BE03B1C1B88DAB2FB689A713B1C1B8862
:10455000DB099BB2DAB2FB68DA71FB68DA79062311
:104560001340DAB2FB68DA71FB68DB791022524241
:104570001343DAB2FB68DA71FB681B782822934395
:10458000DAB2FB681A70FB681B7810221343DAB2A8
:10459000FB681A7010E0FB681B7830229343DAB294
:1045A000FB681A70FB681B7808221343DAB2FB68B9
:1045B0001A7001E08D2300E00023181CBD4604B0F2
:1045C00080BDC046FF03000080B584B000AF7860B6
:1045D00039607B68FB60FB689A883B681A80FB68DF
:1045E00000229A800023181CBD4604B080BDC0463E
:1045F00080B584B000AF786039607B68FB60084BA1
:10460000DB78DBB21A1C202313405A425341DBB241
:10461000DAB23B681A700023181CBD4604B080BD96
:104620000060064080B584B000AF78600D4BFB6041
:10463000FB687A681A600C4B0B4A526940218A4326
:104640005A610A4B094A9169094A0A408021490086
:104650000A439A61074BFA685A63FB68181CBD4607
:1046600004B080BD28FDFF1F00F00F400090044003
:10467000FFF8FFFE30FDFF1F80B584B000AF78600B
:10468000064B1A6940231340FB60FB685A1E934196
:10469000DBB2181CBD4604B080BDC04600F00FF868
:1046A00080B584B000AF7860104BFB60FB687A681F
:1046B0001A600F4B0E4A526920210A435A610C4B73
:1046C0000B4A126820218A431A600A4B094A516931
:1046D000094A0A40802149000A435A61074BFA6897
:1046E000DA61FB68181CBD4604B080BD2CFDFF1FBD
:1046F00040F00F4000A00440FFF8FFFE30FDFF1F18
:1047000080B582B000AF7860024B20229A60BD462F
:1047100002B080BD40F00FF880B582B000AF786085
:10472000024B20225A60BD4602B080BD40F00FF817
:1047300080B500AF094B094A526808210A435A6004
:10474000064B064A926808218A439A60034B034A43
:104750005169034A0A405A61BD4680BD00F00F40CE
:10476000E7ECFFFF80B500AF0A4B0A4A5268802190
:10477000C9000A435A60074B064A9168064A0A4034
:104780009A60044B034A5169044A0A405A61BD4683
:1047900080BDC04640F00F40FFFBFFFFFBD3FFFF93
:1047A00080B584B000AF7860334BFB60FB687A68FB
:1047B0009A61324BFA681A60FB6800221A60FB6843
:1047C00000229A80FB6800229A81FB6800229A608E
:1047D000FB680022DA81FB6800229A82FB680022D3
:1047E0001A61FB6800229A75254A2549254BCB584A
:1047F0008021C9031943234BD150234A2249C223A4
:104800009B00C958214B0B40802109041943C22346
:104810009B00D1501C4B1C4A12688021C9000A43DE
:104820001A601B4B1A4AD1691A4A0A40C0218900F2
:104830000A43DA61184B184A1168164A0A40C02127
:1048400089000A431A60154B1E221A70134B10225E
:104850005A70124B02229A70104B104A1278D2B240
:1048600040210A43D2B21A700D4BFA681A60FB68F5
:10487000181CBD4604B080BD68FDFF1F84FDFF1FEE
:10488000007004403410000000E100E0FFFF00FF72
:1048900000900440FFF8FFFE00A0044000600740C5
:1048A00030FDFF1F80B586B000AFF860B960BB1D5A
:1048B0001A80FB689B8A002B01D008233CE03B1C3C
:1048C0001733EFF3108072B618701D4B1B78DBB2F4
:1048D0000133DBB21A4A191C1170012B04D13B1CA5
:1048E00017331A78174B1A70FB68BA681A61FB689D
:1048F000BA1D12889A82FB680022DA81FB689B7DD0
:1049000001229343DAB2FB689A750F4B0E4A127874
:10491000D2B220210A43D2B21A70094B1B78DBB203
:10492000013BDBB2064A191C1170002B03D1054B69
:10493000187880F310880023181CBD4606B080BD8F
:1049400000FDFF1F5EFEFF1F0060074080B582B0C4
:1049500000AF374B1B687B60364AFB1CD2781A705D
:10496000FB1C1B785BB2002B28DA7B689B89002B31
:1049700024D07B689B68591C7A6891602D4A5279D3
:10498000D2B21A707B689B8801339AB27B689A8096
:104990007B689A887B689B899A420FD1254B254A70
:1049A0001278D1B27F220A40D2B21A707B680022FC
:1049B0009A817B689B69181CFDF72CF8FB1C1A7800
:1049C0002023134031D07B68DA897B689B8A9A4226
:1049D00023D218497B681B69581C7A6810611B78C0
:1049E0004B717B68DB8901339AB27B68DA817B6823
:1049F000DA897B689B8A9A4217D17B6800229A8267
:104A00007B689B7D01221343DAB27B689A757B68D1
:104A10009B69181CFCF7F4FF07E0064B054A127867
:104A2000D2B220218A43D2B21A70BD4602B080BDF4
:104A300084FDFF1F0060074080B584B000AF786040
:104A40000D4BFB60FB687A681A600C4B0B4A51698E
:104A50000B4A0A405A610B4B0A4A916A0A4A0A40B9
:104A6000802149000A439A62084BFA689A61FB6800
:104A7000181CBD4604B080BD88FDFF1F40F00F40EC
:104A8000FFFBFFFF00A00440FFF8FFFE30FDFF1F0B
:104A900080B584B000AF7860064B1A698023DB00D4
:104AA0001340FB60FB685A1E9341DBB2181CBD46E5
:104AB00004B080BD40F00FF880B584B000AF7860DE
:104AC0000D4BFB60FB687A681A600C4B0B4A52690D
:104AD00010218A435A610A4B094A1169094A0A405E
:104AE000802149000A431A61074BFA68DA62FB68C1
:104AF000181CBD4604B080BD8CFDFF1F00F00F40A8
:104B000000900440FFF8FFFE30FDFF1F80B584B029
:104B100000AF7860064B1A6910231340FB60FB68F6
:104B20005A1E9341DBB2181CBD4604B080BDC0467E
:104B300000F00FF880B584B000AF78600D4BFB60DB
:104B4000FB687A681A600C4B0B4A526908218A4349
:104B50005A610A4B094AD168094A0A408021490032
:104B60000A43DA60074BFA689A62FB68181CBD4674
:104B700004B080BD90FDFF1F00F00F400090044086
:104B8000FFF8FFFE30FDFF1F80B584B000AF7860F6
:104B9000064B1A6908231340FB60FB685A1E9341B9
:104BA000DBB2181CBD4604B080BDC04600F00FF853
:104BB00080B582B000AF7860FCF734FFBD4602B02C
:104BC00080BDC04680B584B000AF78602D4B5B6877
:104BD000002B45D12C4BFB60FB687A68DA60FB68E0
:104BE00001221A72294BFA681A60294A2849294B6E
:104BF000CB58802149041943264BD150264B002223
:104C00001A60254B00225A60234B0022DA60224BA7
:104C100000225A61204B214A9A60FB688022520090
:104C20001A60FB6808225A601D4A1D49C4239B0074
:104C3000C9581C4B0B40802109021943C4239B0017
:104C4000D150174B164A1268802189020A431A6014
:104C5000114B40221A600B4BFA685A60FB680CE05B
:104C6000084B5B68FB60FB687A68DA60FB681B7A5C
:104C70000133DAB2FB681A72FB68181CBD4604B037
:104C800080BDC04630FDFF1F94FDFF1FA4FDFF1F28
:104C9000007004403C10000000800340B15D000043
:104CA00000E100E0FF00FFFF80B584B000AF786056
:104CB0007B68FB60074B074A12689821101C8843E9
:104CC000011CFA6852680A431A600023181CBD468A
:104CD00004B080BD0080034080B582B000AF134BAC
:104CE0001B683B6000237B60114B1A6880231340D4
:104CF00004D07B688022520013437B603B681A68B3
:104D00007B6813407B607A6880235B0013400AD085
:104D1000074B074A126880210A431A603B68DB6828
:104D2000181C00F047F8BD4602B080BDA4FDFF1F6F
:104D30000080034080B584B000AF78600F4BFB600B
:104D4000FB687A689A60FB6800221A710C4BFA685B
:104D50009A600020FFF736FF021CFB681A60FB68B0
:104D60001B68002B04D1064B00229A60002300E050
:104D7000FB68181CBD4604B080BDC046A8FDFF1FDF
:104D800030FDFF1F80B584B000AF78607B68FB60AA
:104D9000FB681B79002B07D1FB6801221A71FB68A5
:104DA0001B68181CFFF780FF0023181CBD4604B0C9
:104DB00080BDC04680B584B000AF7860054B9B686D
:104DC000FB60FB689B68181CFFF7F2FEBD4604B051
:104DD00080BDC04630FDFF1FC046C046C04670477C
:104DE0000020C046C046C046C046C0460130092823
:104DF000F7D9C0467047C04680B582B000AF021CEC
:104E0000BB1D1A8006E0FFF7EBFFBB1DBA1D128821
:104E1000643A1A80BB1D1B88642BF4D806E0FFF7A8
:104E2000DBFFBB1DBA1D12880A3A1A80BB1D1B8806
:104E30000A2BF4D8BD4602B080BDC04680B582B012
:104E400000AF786007E00A4B181CFFF7D5FF7B68BE
:104E5000084A9B187B607A68054B9A42F3D87B68B6
:104E60009BB2181CFFF7C8FFBD4602B080BDC0460C
:104E700060EA0000A015FFFF80B584B000AF021CFF
:104E8000BB1D1A80094BFB6008E0FB68181CFFF78C
:104E9000D5FFBB1D1A88BB1D013A1A80BB1D1B889C
:104EA000002BF2D1BD4604B080BDC04664BB0000FB
:104EB0001C070000B806000000070000E60500001F
:104EC00000070000F406000000070000E6050000EF
:104ED000B8060000B8060000F4060000E605000071
:104EE000DC050000DC050000DC05000040090000D6
:104EF000600D00004E0F00004E0F0000400D00003E
:104F00002A0C00002A0C0000320D0000400D0000A9
:104F10002A0C0000320D00002A0C0000400D000099
:104F2000280C0000280C0000280C0000560F000080
:104F30001A13000072130000541300008E130000B7
:104F40002E13000014170000DE1400005615000098
:104F50003E1600007E1600003018000030170000DA
:104F60009E1700009E170000301800000102040880
:104F700010200000504443424B400000F8B5C046AA
:104F8000F8BC08BC9E467047F8B5C046F8BC08BCE3
:044F90009E46704782
:044F940039040000DC
:044F98001104000000
:044F9C00010300000D
:104FA0009C4F000000FCFF1F0400000000000000F8
:084FB0000000000000000000F9
:0400000300002ABD12
:00000001FF
