:10040000FFFFFFFFFFFFFFFFFFFFFFFF7EFBFFFF81
:10200000000C00206D640000096B0000116B0000E3
:10201000116B0000116B0000116B0000116B0000D0
:10202000116B0000116B0000116B0000116B0000C0
:10203000116B0000116B0000116B0000116B0000B0
:10204000116B0000116B0000116B0000116B0000A0
:10205000116B0000116B0000116B0000116B000090
:10206000116B0000116B00001D750000116B00006A
:10207000116B0000116B0000116B0000E5670000A0
:10208000116B00009D770000116B0000116B0000C8
:10209000116B0000116B0000116B0000116B000050
:1020A000116B0000116B0000116B0000116B000040
:1020B000116B0000116B0000116B0000FD6A000045
:1020C00010B5064C2378002B07D1054B002B02D00E
:1020D000044800E000BF0123237010BD08FCFF1F6F
:1020E000000000009C7B000008B5084B002B03D0CB
:1020F0000748084900E000BF07480368002B03D0E9
:10210000064B002B00D0984708BDC04600000000D9
:102110009C7B00000CFCFF1F08FCFF1F0000000060
:10212000002934D00123002210B488422CD301248A
:102130002407A14204D2814202D209011B01F8E71F
:10214000E400A14204D2814202D249005B00F8E7D8
:10215000884201D3401A1A434C08A04202D3001B04
:102160005C0822438C08A04202D3001B9C08224337
:10217000CC08A04202D3001BDC082243002803D075
:102180001B0901D00909E3E7101C10BC70470028A7
:1021900001D00020C04307B4024802A140180290B9
:1021A00003BDC046D90000000029F0D003B5FFF7F9
:1021B000B9FF0EBC4243891A1847C046002941D0D6
:1021C00010B4041C4C40A44601230022002900D571
:1021D0004942002800D5404288422CD301242407DC
:1021E000A14204D2814202D209011B01F8E7E400B6
:1021F000A14204D2814202D249005B00F8E7884242
:1022000001D3401A1A434C08A04202D3001B5C08B9
:1022100022438C08A04202D3001B9C082243CC0816
:10222000A04202D3001BDC082243002803D01B0974
:1022300001D00909E3E7101C6446002C00D5404298
:1022400010BC7047002806D003DB0020C0434008C4
:1022500001E08020000607B4024802A14018029065
:1022600003BDC046190000000029EBD003B5FFF7FD
:10227000A7FF0EBC4243891A1847C0467047C046A4
:102280009C460304F0B51B0C17043F0C150C1E1CD8
:10229000041C000C7E436B4347434543FB18300C42
:1022A0001818874202D980235B02ED18030CED1841
:1022B00063465C434A433604360CA1180004801977
:1022C0004919F0BD016070470268044B5343044A4A
:1022D0009B1803605B00580C7047C046FD43030029
:1022E000C39E260008B5FFF7EFFFC011C0B208BDBE
:1022F00008B5FFF7E9FF8004C00F08BD10B50C1C3E
:10230000FFF7E2FF83041B0ED817E20FA3425041F0
:10231000C0B210BDF0B54D465F4656464446F0B4D7
:10232000416899460B1C87B064333BD092780F24E8
:102330004A44127B006814406500120993462A192A
:10234000920012194A441832AA46127A002906DA73
:1023500001388918FCD48A4203DC891A01308A4288
:10236000FBDD114F02AE3A1CB046A8CAA8C61268DF
:10237000534632601E19B60034194D462B190130F0
:1023800059185E4643001818097DB300474680007F
:10239000DB590818C01807B03CBC90469946A246C5
:1023A000AB46F0BD081CF6E7947800007047C046C5
:1023B00008B502F0C7FB08BD7047C04608B503F07A
:1023C00097F808BD70B582B06D46094E00240635F9
:1023D000E0B2291C04F0D4F82A88A3000134F2509A
:1023E000042CF5D1034B01221A6002B070BDC04627
:1023F0008405002024FCFF1F7047C04608B5034B2E
:10240000586904F073FB02F07FFC08BDF4FCFF1F69
:1024100008B5044B586B04F0E9FF002801D102F025
:102420006BFC08BDF4FCFF1F7047C0467047C046F8
:10243000DC2210B5815C029BC9091970DD21445C66
:10244000E4099C70415C4900D97000219980825C4C
:102450005207920F5A7010BD7047C04638B5DC2342
:10246000051CC05C8B780F21D3181B7B049C0B4090
:102470005900C9188900CB18D2181832137A55217F
:102480005843FFF79BFE0130C0B22071DD23EB5CA7
:10249000FF215843FFF792FE607138BD7047C04678
:1024A0007047C0467047C046F0B5474680B4181C18
:1024B000069E1D1CFFF708FF072420403080281CC3
:1024C000FFF702FF04407480341D8436B0460726AF
:1024D000271C1037281CFFF7F7FEC217520F801871
:1024E0003040821A2270281CFFF7EEFEC217520FEE
:1024F000811831408A1A62700234BC42EAD14445E4
:10250000E6D104BC9046F0BDF8B51D1CDD23C15CCE
:10251000069C071C8908281CFFF7D4FEDC23F95C05
:10252000261C84368908301CFFF7CCFE301CFFF7D0
:10253000CBFE0721FFF798FE002649002170667048
:10254000281CFFF7C1FE0321FFF78EFEC9B2A17060
:10255000E1802672281CFFF7B7FE0721FFF784FEF3
:10256000281CE170FFF7B0FE0521FFF77DFE217109
:10257000F8BDC046F8B51D1CDC23C15C069C071CD9
:10258000C908281CFFF79EFEDD23F95C261C843653
:10259000C908301CFFF796FE281CFFF795FE072799
:1025A00038402080281CFFF78FFE07406780301CD2
:1025B000FFF78AFE15231840A080062804DC044893
:1025C0000023A080E380F8BD0B3880B2F8E7C04656
:1025D000FCFF0000F8B5DD22815C051C8908181C91
:1025E000069CFFF76FFEDC23E95C201C8430890821
:1025F00000270D4EFFF766FE27600120A95D4042CF
:10260000FFF78EFD237C012293436060A760237453
:10261000A95D032905D989100448FFF781FDE06011
:10262000F8BD0248FBE7C046A5040000FFFFFFCF4E
:1026300038B5181C1D1C049CFFF746FE011C606089
:10264000201CFFF73FFE281CFFF73EFE0321FFF78B
:102650000BFE281C2172FFF745FE01231A1C0240C5
:10266000607A98431043607238BDC04670B5061C4E
:10267000181C1D1C049CFFF727FE011C6060201C19
:10268000FFF720FE281CFFF71FFE0321FFF7ECFDDC
:102690000231A172281CFFF717FE0521FFF7E4FDA8
:1026A000281C6172FFF710FE032318400130400020
:1026B0002072281CFFF71CFE0023002814D1E372AF
:1026C000002323736373281CFFF712FE00230028E6
:1026D00003D0281CFFF70CFE031CA373DC23F35C60
:1026E0009B090333E37370BD281CFFF701FE031C35
:1026F000E5E7C04638B5181C1D1C049CFFF7F8FD23
:102700002080281CFFF7F4FD6080281CFFF7F0FDF7
:10271000A080281CFFF7ECFDE08038BDF0B54746EF
:1027200080B41E1CDD238846C15C051C8908301C52
:10273000069C171CFFF7C6FDDC23E95C201C090979
:102740008430FFF7BFFD201C183002F02DFA301C3A
:10275000FFF7BAFD00230004E0602061636123609D
:1027600041464A78064BBF18EB5C397A0120594341
:102770004042FFF7D5FC606004BC9046F0BDC04607
:10278000A404000030B5054C0501054B28190124AF
:10279000016042608360047330BDC046C8FFFF1F04
:1027A000A5240000F0B55F46444656464D46F0B4B9
:1027B0003A4B83B0C35C071C0C9C052B00D9052346
:1027C00023713B1CDD331978201C89088430FFF706
:1027D00079FD3823C8215B42257900268946984631
:1027E000AE420CDA4846A3197043291C9A46FFF7FB
:1027F000E5FC4146081A534698710136F0E7DC378C
:1028000039782B1C0122022B02DD5A43013BFAE7E7
:102810005200101C4843FF21FFF7D0FC002833D0A2
:1028200000231A1CAB4203DA6E469A550133F9E7CE
:102830000022A11D01268B46131C9046B446AB42D4
:1028400022DA6946CF5C9F4219DA5E46F118664685
:10285000334204D1A7790E78A6710F7006E05F4469
:102860003E78B1460E783E704E460E7082420BD0D6
:102870006E46F15C01320131F1540023DFE7464638
:102880006946CE540133DAE70023637103B03CBCE0
:1028900090469946A246AB46F0BDC046A40400004F
:1028A00070B5181C1D1C069C049EFFF71BFD2070B4
:1028B000281CFFF71DFD031C581E8341A078012230
:1028C00090431843A070281CFFF7FEFCC3175B0F52
:1028D000C01807221040C01A072805D82A4A8300CA
:1028E000D3589F4600236370A378D9070CD50728D7
:1028F0000AD8264B80001B589F460C236370A37890
:10290000DA0701D5012363700022B35E002B0BD0E0
:10291000059B072B07DC63780333DBB2637002216E
:10292000725E002A08D170BD0222B35E002BFAD07D
:10293000059B072BF7DC6378053B6370F3E7F42313
:102940006370A378D907DFD5F4236370DCE7012334
:102950006370A378D907D7D500236370D4E7032326
:102960006370A378DA07CFD503236370CCE707231E
:102970006370A378D907C7D5F2236370C4E70D232A
:10298000E6E7FE236370BFE7B4780000D478000068
:1029900038B5181C1D1C069CFFF7A4FC2070281CD1
:1029A000FFF7A6FC031C581E8341A0780122904328
:1029B0001843A070281CFFF787FCC3175B0FC018D3
:1029C00007221040C31A072B0AD8274A9B00D35866
:1029D0009F460D236370A378D90701D50023637048
:1029E00004990023CB5E002B02D0059A082A0BDD48
:1029F00004990223CB5E002B05D0059A052A02DC40
:102A00006378033B637038BD637807336370EFE727
:102A10000C236370A378D907E2D501236370DFE745
:102A20000023D7E7F423A2786370D107D8D5637069
:102A3000D6E70F236370A378DA07D1D5FE2363703E
:102A4000CEE701236370A378DA07C9D50C2363703E
:102A5000C6E70323E7E707236370A378DA07BFD548
:102A6000F2236370BCE7C046F478000070B5054CF3
:102A700004AD06012D783019057301604260836052
:102A800070BDC046C8FFFF1F10B5E423CB5C032414
:102A90002340022B15D0032B0FD01278012B06D028
:102AA00089180A799523DB009200C25410BD891859
:102AB0000A799523DB00D200F7E79523DB0060223B
:102AC000F3E79523DB004022EFE7C046F0B55F4611
:102AD00056464D464446F0B4714F724E83B0051CC5
:102AE0000024201C391C0134321CFFF74BFE102C33
:102AF000F7D16D4C6D49221C0820FFF743FE0126DB
:102B0000221C6B490920FFF73DFE6A496A4A6B4B5C
:102B100000960520FFF7AAFF694B6A496A4A0096AA
:102B20000620FFF7A3FF6949694A0120FFF72AFE43
:102B30006849694A0020FFF725FE6849684A032072
:102B4000FFF720FE6749684A0220FFF71BFE67492E
:102B5000674A0420FFF716FE6649674A0720FFF719
:102B600011FE6649664A0A20FFF70CFE6549664A6F
:102B70000B20FFF707FE6549654A0C20FFF702FEB0
:102B80008820602181468C469420982183468A467D
:102B90009C2049466E5080469521A02081468C2479
:102BA0006046C9002E5101226854AC2100235242D4
:102BB0008C466827594680206B702B666B66EB66E7
:102BC0006B67AB672B67EA67EB532B506B50B821F1
:102BD0008B4651466B50BC218A4641466B50C02102
:102BE000884649466B50C4218946A424A8212B510C
:102BF0006B5061466B50C9218C46B0275946B420B2
:102C0000EB512B506B50CC218B4651466B50CD2154
:102C10008A4641466B509021884649466B500A21AE
:102C200000248946C8216C5461466C54CA27D821B7
:102C30008C46EC5551465F46CB202C54EC556C54D9
:102C400047464946E951D027EB516746EA51D4221D
:102C5000AB50281D0021182204F013FE281C00216F
:102C60001822203004F00DFE281C002110224C30C8
:102C700004F007FE281C002110223C3004F001FE65
:102C8000244F2548254BE0210922EE552C546C5445
:102C9000EA5003B03CBC90469946A246AB46F0BD14
:102CA000A12400009D240000F5260000A943000097
:102CB0003D3A000079370000312600002924000049
:102CC0002D240000DD3800006D260000BD3F00000F
:102CD00075250000393F0000312400001143000039
:102CE000A9240000713B000009250000714100008B
:102CF000D52500007D4500001D270000514600003D
:102D00005D240000C1460000A52700000145000029
:102D100059240000A6040000A7040000AC04000031
:102D2000F8B56822464688239046A022041C002558
:102D30009C464F4691464246C0B40123A552802787
:102D400062468C26AC216566A350E551A5516350BF
:102D50004B46E55000211822B03004F092FD231CB0
:102D60000022C833D020D4211A705A709A70DA70B9
:102D70001A715A71255065500CBC90469946F8BDA1
:102D8000F8B59423C358041C9026002B00DC94E073
:102D9000626E94200025A351DE212550635C002A39
:102DA00020DD013A934212DB6266E56F6E00711915
:102DB000E031611808790F1D904218DA002D09D111
:102DC0000A23E3600A2323610A236361F8BD636673
:102DD0001A1CEAE73D4B281CE15CFFF745FA002985
:102DE000F2D1EFE7E56F6E007719E719E43776194E
:102DF000A6196366E036B3793A78DB07DB0FDBB2FE
:102E0000D9015208CB1AD3181B016822A3520520FE
:102E10003056021C643208D16421002349426822E2
:102E20002166A3526360A360C8E70C218001FFF70D
:102E3000C5F9C823DB025843C117490C0818C11350
:102E4000002001F089FE00042067B9784907890F46
:102E500035D0E36E32256943C01AFFF7AFF96067DA
:102E6000BB785B079B0F5D43A567E56F05216E008F
:102E70007319E318E03359569022A25821669879C5
:102E8000134B4006000FE1585043FFF797F9636872
:102E9000002B19DD40420A23606023627619A619CF
:102EA000E036B379DA070CD5236AA06063627379E0
:102EB0005BB2643300D081E7AEE7012368E7E066E8
:102EC000D3E70023A360F2E76060E7E7A404000013
:102ED000AC04000038B59422A4238558041CC158C2
:102EE0009820205801350131A550E15001220028D9
:102EF00003D1FA20C00081425EDC23780133DBB2CB
:102F00002370D9072DD49521C900DF23605CE35CD1
:102F1000002A1BD1C82159430912013189104143AC
:102F2000002900DC92E04A48FFF748F98C23E25878
:102F3000051C013A904266DBE250002A68DDAC23B2
:102F4000E358012B64D0002001F0ECFEA36F002BAE
:102F500036DDE16E626F013B8A18A367E266002BE3
:102F60002ED06368002B30DD013B002263602262BB
:102F7000A368002B42DD013B0022A3606262E3688C
:102F8000002B36DD013B0022E360A2622369002BA7
:102F900025DD013B00222361E2626369002B19DD1C
:102FA000013B002263612263A369002B1CDD013B0E
:102FB0000022A361626338BD26490022E1509CE7EC
:102FC000236FE3666368002BCEDC226A002A2EDDC5
:102FD000013ACCE7226B002A35DD013AE3E7E26AE9
:102FE000002A2ADD013AD7E7626B002A22DD013A86
:102FF000E0E7A26A002A17DD013AC6E7626A002A02
:103000001EDD013ABAE7E050AC23E358012B9AD118
:10301000012001F087FE8C23AC220021A150E55055
:10302000A36F002B95DCCBE75B42E360AEE75B422E
:1030300063609DE75B42A361BDE75B422361ACE750
:103040005B42A3609BE75B426361ADE701216AE7F6
:1030500060EA0000B80B0000F0B5474680B4041CDD
:10306000012B04D00023836104BC9046F0BD0A23E9
:103070008361E423CB5C03200340022B6DD0032B40
:1030800065D01278012B2FD0891809799523DB00A0
:103090008900C9B2E154A023E5588D4234DA324A9E
:1030A0008023A05CE7588000304B47436843E65CD0
:1030B000FFF784F8311CC019FFF7D6F88820235891
:1030C0008422A150012B37D0E36F8B4212D1AC2365
:1030D000E358012B0ED09C23E15801310135A02289
:1030E0009C23A550E150BFE7891809799523DB009F
:1030F000C900CEE7E16701F0F3FDA023E558002207
:10310000AC23E2500121E9E717488022A558275C4B
:103110000135381C6843154E8446002080466046C1
:10312000A65D800084464046A550E050B44509DACB
:10313000BF006F430025BBE70021AC262150A15002
:10314000A351C1E7A050002500200027B0E7952338
:10315000DB006022E25460219DE79523DB004022E2
:10316000E254402197E7C046A4040000A5040000F3
:10317000F8B544465F4656464D46F0B4041CDF2081
:10318000255CA9481E1C9823E65088462B02171C74
:10319000052583420DD9A54A0425934209D9A44A9D
:1031A0000325934205D9A34A02259A429B415B42DB
:1031B000ED1AD823E258AA4206D02A1C2C329200DB
:1031C0001159A022E550A150E623FB5CB34244D044
:1031D000D423E258291C101C9046FFF745F800291B
:1031E00010D040460130291CFFF73EF8D423E150AF
:1031F000E623FB5CB34207D03CBC90469946A2460E
:10320000AB46F8BDA161ECE7C923E25C0132D2B262
:10321000E254012A00D1A5E0CA23E25C0132D2B215
:10322000E254022A00D191E0CB23E25C0132D2B217
:10323000E254032A7ED0CC23E25C0132D2B2E254C3
:10324000042A6BD0CD23E25C0132D2B2E254052ACB
:1032500058D0A4230022E250CEE7D023E058291C06
:103260008146FFF701F8002906D048460130291CA5
:10327000FEF7FAFFD023BAE70A23A361E423FB5C3D
:1032800003221340022B00D1C7E0032B76D0012B81
:1032900000D1BAE041460A789523BA181179DB00CB
:1032A0008900C9B2E154A023E0588046884279DA07
:1032B000614A8023A05CE258800042435F4B934602
:1032C00042465043E35C9A46FEF778FF5146584425
:1032D000FEF7CAFF882023588422A150012B00D179
:1032E00081E0E36F8B424FD1AC23E358012B4BD0ED
:1032F0009C23E058013041460131A0229C23A1507B
:10330000E050B2E7C42595226059D200A15C0022AA
:103310000130E254FEF7A8FF61519AE7C0259522DB
:103320006059D200A15C00220130E254FEF79CFFFC
:10333000615187E7BC2595226059D200A15C00222B
:103340000130E254FEF790FF615174E7B8259522F1
:103350006059D200A15C00220130E254FEF784FFE4
:10336000615161E7B42595226059D200A15C002229
:103370000130E254FEF778FF61514DE79523DB0001
:103380006022E25460218EE7E16701F0A9FCA022EF
:10339000D023A058E1580022AC2380468946E25051
:1033A0000120A8E7244880228446A0586246A25CF7
:1033B0009446421C60465043834620488246002083
:1033C00080465046205C824680202250584680002D
:1033D00083464046E050D3450FDA604683005343AE
:1033E00000209B4670E700218A46AC218C4651465E
:1033F0002150A1506246A35073E740468023E0501D
:1034000000220020804693465EE743461A789523C3
:10341000BA181179DB00C90043E79523DB0040228D
:10342000E25440213FE7C0463333000066660000A7
:1034300099990000CCCC0000A4040000A504000071
:1034400030B541788578C478027803231C40194050
:103450001A402B40C47041700270837030BDC0466A
:10346000F0B55F4656464D464446F0B43225022339
:103470000022AB460124CB700B704A708C70312651
:1034800003715B468374B246E62339259B46534657
:103490000374A946E52334269A464B464374B04646
:1034A00005250423AC46994620254346C374C572BE
:1034B0000321102663460827E425C37186724171F3
:1034C00047725E4641555146845583B042544A4640
:1034D00082710272031C1022072601900B20824683
:1034E00000201875022098750320D87504201876DE
:1034F000082505205876AC46062098761D1C6046A7
:1035000018772035504609270A21D8775C75DE7672
:103510005F7799772C700225A94603200525013A8B
:10352000AB460D3380460725002AD7D101980126E6
:1035300006734E4646735E4686730626C6734E462F
:103540004675464686755E46C6757C236646027598
:103550004676817605767D24C2544B460355042376
:103560007E2403557F265B4683558023C5548124E2
:1035700053468226075583558823C554BD24BE264D
:10358000042302558355BF23C554C0245346035515
:10359000C926042383552023C5543B2443463C2697
:1035A000025583553D23C5543E2447260423075521
:1035B00083559623C25497244B46035598265B4661
:1035C00083559923C5549A245B46A22607558355F3
:1035D000B023C254B12443460355B2265C468455F9
:1035E000B3230624C454B423C554B526BC23815543
:1035F000C4548A264B468924025583558B2443465E
:10360000035506238C2403558D268E2385558F2440
:10361000C75495262E23015585552F24C254434661
:10362000035530265B4683553123C55432245B460F
:103630003A26015583556F23C25470240123035544
:1036400071264C46845572234446C4540424732383
:10365000C45474265B468355752406230355772688
:1036600063467624055583557823C75479245346F9
:103670007A26015583550C247B23C454A3264B463C
:10368000A424825503555B46A5240355A626A724EA
:10369000855501554826AF240355825501244926F6
:1036A00084554A230426C6544C245E464B23C654F4
:1036B00005554D236446C4544E24015554265524C3
:1036C0008555562302550124C45444465723C454F7
:1036D00058265B46835559240623035563465A24CE
:1036E00003555B24612301556226C55463244B4670
:1036F0008255035543466424035565215C46445472
:1037000006236621435467246146015568265446C2
:1037100069238755C4546E23C15427218C46212127
:10372000425449462222815441462322815425266F
:1037300026245946242281542D2385556246075557
:1037400054468454C55403B03CBC90469946A246A6
:10375000AB46F0BD08B5FFF783FE08BD837878223D
:103760009343202213430C224270F82213408370AB
:10377000FF2303707047C046F0B55F465646444687
:103780004D46F0B483B00E9D88468346281C161C17
:103790001F1C0C9CFFF7E2FF424613780D98F318AC
:1037A0001979FEF761FD8A46002966D0607AC00764
:1037B000C00FC0B2012800D17FE0201C2021FEF7FD
:1037C0009DFD002803D0AA7801231343AB70201C71
:1037D0008021FEF793FD002840D1201CD021FEF768
:1037E0008DFD002821D064235B42019300230093C8
:1037F0004246331C59466846FEF78CFD6870381CFB
:10380000FEF770FD0222A35E0D9A40089F18C0B219
:103810000023002F00D17F231B182B7003B03CBC6A
:1038200090469946A246AB46F0BD53465A00237ACD
:103830000090D318201C0193FEF754FD0321FEF7DE
:10384000B3FC4A008A1852000F2304321A40AB78A6
:103850007821D2008B431343AB70C9E7201CFEF7DD
:1038600041FD0321FEF7A0FC032319404B00A9787A
:10387000062291431943A970AFE7AA7801231343A5
:10388000AB70201C6168FEF71DFD381C2021FEF77F
:1038900035FD00281AD1381CF021FEF72FFD002835
:1038A00000D183E7381CFEF71DFD627A01239A439D
:1038B0001840131C034363727CE742461378524658
:1038C000F3181B799B1A013B9A4676E7381CFEF7E2
:1038D000FBFC0321FEF7C8FC2172DCE7F0B556467D
:1038E0004D465F464446F0B485B0109D8346281C83
:1038F00001930E9C8A469146FFF730FF0023029306
:10390000267B002E3FD1E37B677B98469F4244D0C5
:10391000381C4146FEF748FCA37BC9B2002B02D0FD
:103920004346591A013900230293A37A01375943B8
:10393000637A6773C9180391E37A2373002B13D159
:103940009E192673594652464B4602A8FEF7E2FCE2
:103950006870201CFEF7C6FC287005B03CBC904681
:103960009946A246AB46F0BD01335A009B185B0056
:10397000023B0F221A40AB787821D2008B431343CD
:10398000AB70237BDCE7013E2673AB7801229343C7
:10399000AB7064235B420393D4E7237A6673013BE5
:1039A0002372AA7801231343AB700198C821FEF754
:1039B000A5FC061E0AD1237A002B10D0201C6168BA
:1039C000FEF780FCE37B677B9846A1E70198FEF752
:1039D0007BFC0321FEF748FC4E1CF6B2EBE7019896
:1039E000FEF772FC60600198FEF76EFC0321FEF7A3
:1039F0003BFC0231A1720198FEF766FC0521FEF73F
:103A000033FC01986172FEF75FFC0323184001301C
:103A1000400020720198FEF76BFC0028CED0019880
:103A2000FEF766FC0023002801D1A373C6E70198C6
:103A3000FEF75EFC031CA373C0E7C046F0B5574613
:103A40004E464546E0B482B00C9C1D1C80460023C7
:103A5000201C8946924600930193FFF77FFE281CA5
:103A6000FEF732FCC7177F0FC01907260640F61B6A
:103A7000072E06D83C4AB300D3589F460023019333
:103A80000093A378D9070CD5072E0AD8374BB60078
:103A90009B599F460123019300230093A378DA07E3
:103AA00057D4009B01330B9A062A0FDC0A99002297
:103AB0008A5E002A02D1019A013201920A990222F9
:103AC0008A5E002A02D1019A023A0192281C0093D0
:103AD000FEF708FC2070281CFEF70AFC01252B1CB1
:103AE0000340A0784146A8431843A0704A46684660
:103AF0005346FEF70FFC607002B01CBC904699461E
:103B0000A246F0BD00230193A378DA0701D5012373
:103B100001930223C7E700230193A378D9071BD49D
:103B20000023C0E702230193A378DA07EFD401232F
:103B3000B9E704230193A378D907F8D501235B42A1
:103B400001930123AFE7012301930093A378DA07E0
:103B5000A7D500230193DCE700230193F1E70123BC
:103B60005B420193D5E7C046147900003479000028
:103B7000F0B55F4656464D464446F0B487B0129DB8
:103B8000109C8346281C029103921E1CFFF7E6FD41
:103B90006778002F59D014235B427B436433DBB238
:103BA000019364235B420593002304938422322310
:103BB000013F04A912199946D84B6770884692466E
:103BC0000027E3802772039B40465946029AFEF77E
:103BD000A1FB68706378002B57D1301C4946FEF773
:103BE0008DFB002815D0301CFEF76EFBC217920F1C
:103BF0008018032303409B1A01335A009A1852007D
:103C00000F23023A1A40AB787821D2008B4313433A
:103C1000AB705046FEF758FBC3179B0F019A18185C
:103C20008010101828704946301CFEF767FB0123EE
:103C30001A1C0240A87898431043A87007B03CBCF7
:103C400090469946A246AB46F0BD23780F2B40D054
:103C5000842109198A46301C6421FEF74FFB002895
:103C600053D1301C6421FEF749FB002845D1301C9C
:103C70006421FEF743FB002837D123780D2B00D9B0
:103C80001BE1A74A9B00D3589F465A009A1852003E
:103C90000F23023A1A40AB787821D2008B431343AA
:103CA000AB709AE7301CFEF70FFBC30F0122C01860
:103CB0001040C31AE318DB780492227804A9013279
:103CC0002270322288460593914601276421019192
:103CD00077E784221219101C9246FEF7F5FA0721A5
:103CE000FEF7C2FA49002170B5E7301CFEF7ECFA86
:103CF0000521FEF7B9FA2171BFE7301CFEF7E4FA9F
:103D00000721FEF7B1FAE170B1E7301CFEF7DCFAEB
:103D10000321FEF7A9FAA170A3E796239946A37899
:103D200004A905935046002388460493FEF7E0FA61
:103D3000002800D0D4E004990F2342462370CFB26C
:103D40009388642201923CE7962399465046FEF7F9
:103D5000CFFA002800D0CDE00F232370A3780022F3
:103D600004A90492884605936422EBE73221894630
:103D7000ECE7A37804AA05935046002390460493E9
:103D8000FEF7B6FA002800D0CCE00F234146049A93
:103D900023708B889621D7B289466422D2E7A37814
:103DA000002204A904920B22227088460593322235
:103DB00091468BE70022A3780492072204A922707F
:103DC000962288460593914680E7301CFEF77CFAE0
:103DD000C30FC01801273840C31AE318DB7804AAC0
:103DE0009046059304975046FEF782FA00286ED15C
:103DF0000F234146049A23708B883221D7B289461B
:103E0000CBE732238AE7A37804AA0593301C00236A
:103E100090460493FEF758FA0321FEF725FAAB7893
:103E2000013103220A40062152008B431343AB7039
:103E30005046FEF75DFA0028DAD05046FEF744FA05
:103E4000C30FC01801221040C31A6370D0E704AB3F
:103E500098460621635E42465360237A5046049397
:103E6000FEF746FA00284FD1049A0F2341462370EB
:103E7000D7B28B880022322189460192A1E6301CFC
:103E8000FEF722FAC30FC01801273840C31AE318FF
:103E9000DB7804AA301C904605930497FEF714FAC9
:103EA0000321FEF7E1F9AB78013103220A40062134
:103EB00052008B431343AB7095E7E38804A91AB211
:103EC0000592277A884604979BB2322270E75046C3
:103ED000FEF7FAF9C30FC0180740FB1A637087E7B3
:103EE0005046FEF7F1F9C30FC01801221040C31A63
:103EF000637020E75046FEF7E7F9C30FC0180122B0
:103F00001040C31A637027E75046FEF7DDF9C30F70
:103F1000C01801221040C31A6370A5E79CFF00007F
:103F2000547900005046FEF7CFF9C30FC0180122A4
:103F30001040C31A637028E7F0B54E464546574611
:103F4000E0B482B00C9C0A9D8246201C89469046B3
:103F5000FFF704FC2E78002E29D0012E1FD06B789D
:103F600003221A40A378062152008B431343A37007
:103F700051464A4643466846FEF7CCF9A178607040
:103F8000AA78012399431A400B1C1343A370EB78C2
:103F9000237002B01CBC90469946A246F0BDAB8887
:103FA0001AB20192013300220092AB80D7E70B983E
:103FB00005210196FEF758F90091D0E7F0B5564675
:103FC0004D4644465F46F0B485B0109C0E9E824636
:103FD000201C894690461D1CFFF7C0FB0222B05EE4
:103FE0000F9B0321C018FEF73FF9012900D187E09C
:103FF000022900D172E0002944D0FF22019232232D
:10400000002264269B46009202AF5146381C4A4665
:104010004346FEF77FF959466070281CFEF76EF99B
:10402000002844D1281CFEF74FF9C30F1818009B35
:1040300040101818311C2070281CFEF75FF901266B
:10404000331C0340A0780199B0431843A070281C8A
:10405000FEF754F900280ED0281CFEF735F9C30FDF
:10406000C0180640F31A03261E40A37806227600E5
:1040700093433343A37005B03CBC90469946A24697
:10408000AB46F0BD371C8437381CFEF731F90128E8
:1040900047D00422B35E02AF7B6000230293FF236C
:1040A000019332220023642693460093ADE7281C37
:1040B000FEF70AF9C217920F8018032303409B1AD8
:1040C00001335A009A1852000F23023A1A40A3787B
:1040D0007821D2008B431343A370A3E70022B35E81
:1040E00002AF281C7B600291FEF702F901282AD05A
:1040F000C0220192B1237F22E3269B46009284E7EF
:104100000422B35E02AF281C7B600291FEF7F0F838
:104110000128C4D1281CFEF7D7F807231840708067
:10412000BDE7381CFEF7E4F80128B2D1381CFEF7D1
:10413000CBF815231840B080062812DD0B3880B26A
:1041400003B2B080A7E7281CFEF7BEF8C023000624
:10415000400F0193B1227F2330809346E3260093E2
:1041600053E7024804235B42B08094E7FCFF000061
:10417000F0B55F4656464D464446F0B483B00E9DBA
:104180000C9C061C281C1F1C8B469246FFF7E6FA67
:1041900021686268381C8B18A168E26823608B185C
:1041A000A360DD23F15CFEF7A9F8DC238146F15C16
:1041B00000282FD0A06800F0FDFC01230093237C91
:1041C000C0160190D90733D5227C012313435A46E8
:1041D000311C237468465346FEF79CF86870201C17
:1041E0008430FEF771F8C3179B0F181880102870E1
:1041F0003221381CFEF782F801231A1C0240A878ED
:1042000098431043A87003B03CBC90469946A24620
:10421000AB46F0BD206800F0CDFC237CC0164A46BA
:1042200001900092D90718D4237C01229343CEE752
:10423000381CC821FEF762F80028C5D0381CFEF7EC
:1042400043F80321FEF710F8032319404B00A97827
:10425000062291431943A970B6E7381CC821FEF71E
:104260004DF80028E0D0381CFEF72EF80321FDF7AA
:10427000FBFF032319404B00A97806229143194301
:10428000A970D1E738B5041C0D1C081C3221FEF7BB
:1042900035F8002815D0281CFEF716F81B4B0340F4
:1042A00004D50422013B5242134301330133062259
:1042B0005A430F21023AA3780A407821D2008B4357
:1042C00003E0A3787822934320221343A370281C91
:1042D000FEF70EF8002814D0281CFEF709F8002875
:1042E0000FD0281CFDF7F0FF0321FDF7BDFF0322CF
:1042F0004B1CA178134006225B0091431943A17027
:1043000003E0A37806229343A37038BD0300008026
:10431000F0B557464E464546E0B482B00C9C1D1C95
:104320008246201C0A9E90468946FFF717FA281CF1
:10433000FDF7DEFF73880022B15E1AB2C90089184A
:10434000421E50424241480080183018077933809D
:104350007780281C0197FDF7CBFF291C0090201CBB
:10436000FFF790FF4A46434651466846FDF7D2FFA5
:1043700064216070281CFDF7C1FF01231A1C024054
:10438000A07898431043A070281CFDF79DFFC30F31
:10439000181840102830207002B01CBC9046994676
:1043A000A246F0BD00000000F0B54F464646C0B43E
:1043B00085B00E9E0C1C8146301C1F1C151CFFF77F
:1043C000CDF9A37803211940884602295AD0032940
:1043D0004CD001291FD00C9B029600930D9B4846A0
:1043E0000193211C2A1C3B1CFEF75AFA73781833E0
:1043F000DBB27370381CFDF767FFC3179B0F1818EB
:1044000080103070391C301CFFF73CFF05B00CBC2D
:1044100090469946F0BD381CFDF764FF3070381C9B
:10442000FDF752FF334B324A4004400C0021FDF7A8
:1044300027FF0025C40F4A0A002312196B411A43B3
:10444000141C621E9441B27843469A431443B470DC
:10445000381CFDF739FF4004400F03283CD00728E3
:1044600038D00C230128C4D01823C2E70C9B029635
:1044700000930D9B48460193211C2A1C3B1CFEF710
:1044800087FAB3E7381CFDF72DFF3070381CFDF7B5
:104490001BFF184B164A4004400C0021FDF7F0FEAC
:1044A00000254C0AC20F002312196B411A43141C39
:1044B000621E9441B27801239A431443B470381CAD
:1044C000FDF702FF4004400F0728CDD80A4B8000BB
:1044D0001B589F4624238CE725238AE7222388E75D
:1044E000272386E71B2384E7162382E7C046C046BE
:1044F000F1197605000000008C790000C046C04626
:10450000F0B5474680B482B00A9C1D1C8046201C32
:10451000161C0F1CFFF722F9291C201CFFF7B2FE06
:10452000281CFDF7D1FEBB780F22F3181B7B13402C
:104530005A00D2189200D318F3181833197A490088
:10454000FDF792FE00233A1C019100934146331C73
:104550006846FDF7DFFE6070281CFDF7B5FE207091
:10456000281CFDF7C5FE01231A1C0240A0789843C1
:104570001043A07002B004BC9046F0BDF0B55F4699
:1045800056464D464446F0B485B0109D0E9C071C1F
:10459000281C8B4601921E1CFFF7E0F86168226818
:1045A0008B18A16823609B0F8B424FD0A360301CF7
:1045B000FDF78AFE8002E06022696369801A642147
:1045C0009A469046FDF7FAFD5246801A64239946B2
:1045D0005843DC23F95C19318900FDF7EFFD4A46A9
:1045E0005044606150434044C3172061C018584094
:1045F0008015002303900293391C5A46019B02A8A0
:10460000FDF788FEAB7806229343AB70311C6870CF
:10461000281CFFF737FE201C8430FDF755FEC3171A
:104620009B0F1818801028703221301CFDF766FE91
:1046300001231A1C0240A87898431043A87005B0C3
:104640003CBC90469946A246AB46F0BDE068B3E755
:10465000F0B557464E464546E0B482B00C9C0A9DE4
:104660008246201C894690461E1CFFF777F86B791E
:10467000301C019300230093FDF726FE2070301CB0
:10468000FDF736FE01273B1C0340A0784A46B8439D
:104690001843A070434651466846FDF73BFE311C67
:1046A0006070201CFFF7EEFD687929790130FDF775
:1046B000DBFD697102B01CBC90469946A246F0BD74
:1046C000F0B54F464646C0B483B00C9D0A9C061C0C
:1046D000281C1F1C89469046FFF740F86079217915
:1046E0000130FDF7C1FD194BC8B26071F35C834224
:1046F00001D800236371201CDC218430FDF7FEFD0E
:104700006379021CE418A379501E824132332B7066
:10471000381C002300920193FDF7EAFD0124AA78DA
:10472000231C0340101CA0431843391CA870281CEC
:10473000FFF7A8FD6846311C4A464346FDF7EAFDEF
:10474000687003B00CBC90469946F0BDA40400000C
:10475000F0B556464D4644465F46F0B48FB00B78F0
:1047600007910692069CD3184A781B79A218127AF0
:1047700082465A43C84B0992C2540B780621E3186B
:104780001A79C64BC254031CDC331A7801331B78E8
:10479000101C08401940D508DC08401049100028BA
:1047A00009D096090F36324003267243BC4EB21828
:1047B0001018013800780A90002909D09A090F32A0
:1047C000134003225343B64AD318591801390978C4
:1047D00064012C19B34D0B91281C211CFDF772FDAF
:1047E000281D611CFDF76EFD281C211C083020319E
:1047F000FDF768FD281C211C21310C30FDF762FDFE
:10480000079D069EEB780122F3181B7C0F251909E2
:1048100011400C91590911401D409B090D91A2496D
:10482000134203D0092357467B5002E0032350462E
:1048300043509E4B9B492D0122229D4FED18002491
:104840008B46904642466243D21900925E46A319B7
:1048500050460799069A6E680434B047102CF1D17F
:104860005446E434231CAE6850460799069AB04774
:104870002B7B0026012B03D00627B946A84654E11E
:10488000059603278B4EBB46059F0998874200DBA0
:104890004EE1882100278846A1464246814C7A4352
:1048A000BB001B19824C50461219009203227A4316
:1048B000059C9219029201940799069A2C68013777
:1048C000A047042FE9D1059F58460A990740F940AF
:1048D00001234C460897784A194232D0B178CF0765
:1048E000FF0F381C1840844690785F4698438046F6
:1048F0007078507030781070480838409840814681
:1049000067464046074306208743B846C9080F2735
:104910003940CF00844649464046084380464146D8
:10492000782081430F43317A9770CF07634AFF0F96
:104930001F40B84697789F43F379B9465370B379CF
:1049400031E07179CF07FF0F381C1840844690780A
:104950005F469843804630795070F0781070480870
:10496000384040008146674640460743062087435B
:10497000B846C9080F273940CF008446494640460B
:10498000084380464146782081430F43F17A97706F
:10499000CF074A4AFF0F1F40B84697789F43B37A24
:1049A000B9465370737A13705F464B083B405B0007
:1049B000474604934B463B436746BB439846C9086A
:1049C0000F27049B0F4041460B43FF0083433B43AB
:1049D0009370089A0B9BA178D340012213420FD009
:1049E000354B914398780327C007C00F0143A1704E
:1049F0005A7862701A7822709978490839400EE026
:104A00002E4B91439878C007C00F0143A1705A788C
:104A1000032062701A782270997849080140A278C0
:104A20000620490082430A43A2709A7878231A40EC
:104A3000A37878218B430C9F1343A370002F03D1DD
:104A4000A37806229343A3700D9F002F05D1A3786E
:104A50007822934320221343A370069BE5331B78EF
:104A60009846002B12D00127E7570C21381CFDF780
:104A7000A5FB414640B2FDF7F7FB0C235943381C18
:104A80008846191CFDF7F0FB41446170059F033413
:104A900001370597F8E6C046A5040000A40400000D
:104AA000AC790000B8FFFF1FAC040000C8FFFF1F77
:104AB00094FDFF1F88FDFF1FB4FFFF1FC8000020EB
:104AC0001F4D019600950294474650460799069A55
:104AD0005B463F68B8470C9D002D03D1A3784F4635
:104AE000BB43A3700D9D002D05D1A378782293437D
:104AF00020221343A370069BE5331D78002D12D0AE
:104B00000127E7570C21381CFDF758FB291C40B240
:104B1000FDF7AAFB0C231D1C4D43381C191CFDF787
:104B2000A3FB6D18657001360334099FBE42C7DBD5
:104B30000FB03CBC90469946A246AB46F0BDC0467D
:104B400094FDFF1F08B5002002F0F4F8014B01228C
:104B50001A7008BD00FCFF1F70B50630104B8200B4
:104B60009A180224155F0026945FA54205DBC8242D
:104B7000A4005480962424011480820098180225F1
:104B8000445F084E985E8919001B4843C821C9003C
:104B9000FDF714FB0019C343DB17184080B270BD4A
:104BA00080060020E0FCFFFF00238360C3600361F8
:104BB0007047C04630B5214C430C1A199204921428
:104BC00052431F4C121354431E4DA4132C1B62431B
:104BD00080241214640185B05B04A21A002B00DA51
:104BE0005242520483100092019300281EDBC0231E
:104BF0001B06C0184010144B029003934B00591829
:104C0000CBB25A1ED2B2FD2A01D80133DBB209124F
:104C100089006C466258FF201212C01A504301AA44
:104C2000525812125343C01805B030BD074B181A22
:104C30004010E02302901B06DFE7C04600E0FFFFC4
:104C4000BC0D0000BC4D0000FFFFFF1FFFFFFFBFBA
:104C5000F0B5474680B41E4E1E4C3378206A1033A0
:104C6000337002F047FB1C4D2B1F2F1C9846183742
:104C70000AE002F085F8A06A01F0E2FE0435A06ABD
:104C800001F0E4FEBD4206D02B68606A002BF0DC28
:104C900002F07CF8EFE74746104D4C370AE002F08F
:104CA00075F8A06A01F0CCFE0135A06A01F0CEFED5
:104CB000BD4207D02A783378606A9A42EFD802F072
:104CC0005FF8EEE7206A02F01BFB04BC9046F0BDE3
:104CD0007CFCFF1FF4FCFF1FD80000201001002007
:104CE00008B503480349FEF74BF8FFF7B1FF08BDCD
:104CF000D4000020CC00002008B50248FEF710F8D0
:104D000008BDC046D400002008B50349031C034A6F
:104D10000348FEF72DFA08BDCC00002094050020C2
:104D2000D400002008B50349031C034A0348FEF7DA
:104D300093F908BD94050020CC000020D400002089
:104D400070B5802082B000236A4640006946137027
:104D500002F04EF86A461378152B11D080204000DF
:104D6000152102F019F80F4D0024A01CFF30295D19
:104D700080B2013402F010F8E82CF6D102B070BD18
:104D8000084D00240026A01CFF306B4680B2694607
:104D90001E7002F02DF86A4613782B550134E82C6A
:104DA000F1D1EBE79405002070B582B0002368468E
:104DB000037080206946800002F01AF869460B787B
:104DC000132B11D080208000132101F0E5FF254D29
:104DD0000024254A295DA01880B2013401F0DCFFCF
:104DE000202CF6D102B070BD1E4D002400261E4BB3
:104DF0006A46E01880B26946167001F0F9FF68460D
:104E000003782B550134202CF1D11A216A5E182029
:104E10002B5E00219A4206DBC8239B006B839623FE
:104E20001B012B8301211E23EA5E1C202B5E9A426C
:104E300015DBC8239B00EB8396231B01AB838020EB
:104E40008000132101F0A8FF00240749601880B2F8
:104E5000295D013401F0A0FF202CF6D1C2E7002922
:104E6000C0D0ECE7800600200102000070B582B0DF
:104E700000236A4604206946137001F0B9FF6A46B0
:104E80001378152B0FD00420152101F085FF104D4C
:104E90000024601D295D80B2013401F07DFF042CE7
:104EA000F7D102B070BD0A4D00240026601D6B468C
:104EB00080B269461E7001F09BFF6A4613782B553D
:104EC0000134042CF2D1281CFEF7BAFAE9E7C046F7
:104ED000CC00002070B5041C0D1C1E1C002A0EDB2B
:104EE000101C0D21FDF7C0F90C2900D9F3E0834B0C
:104EF00089005B589F46FF22814B1202DA64002E24
:104F00000EDB301C0D21FDF7AFF90C2900D9B4E000
:104F10007C4B89005B589F46FF22794B12021A6531
:104F2000002D0EDB281C0D21FDF79EF90C2900D960
:104F300075E0754B89005B589F46FF22704B12024B
:104F40005A65002C0DDB201C0D21FDF78DF90C2975
:104F500037D86E4B89005B589F460122684B5242FE
:104F60009A6570BD6A4A664B9A65FAE7694A644B6E
:104F70009A65F6E7684A624B9A65F2E7674A604BC2
:104F80009A65EEE7664A5E4B9A65EAE7654A5C4BCE
:104F90009A65E6E7644A5A4B9A65E2E7634A584BDA
:104FA0009A65DEE7FF22564B12069A65D9E7FF2283
:104FB000534B12049A65D4E7FF22514B12029A65B3
:104FC000CFE74F4BFF229A65CBE7514A4C4B5A65CE
:104FD000B7E7504A4A4B5A65B3E74F4A484B5A65C0
:104FE000AFE74E4A464B5A65ABE74D4A444B5A65CC
:104FF000A7E74C4A424B5A65A3E74B4A404B5A65D8
:105000009FE74A4A3E4B5A659BE7FF223C4B1206FC
:105010005A6596E7FF223A4B12045A6591E7384BDE
:10502000FF225A658DE73A4A354B1A6578E7394AC7
:10503000334B1A6574E7384A314B1A6570E7374AC3
:105040002F4B1A656CE7364A2D4B1A6568E7354ACF
:105050002B4B1A6564E7344A294B1A6560E7334ADB
:10506000274B1A655CE7FF22254B12061A6557E7A6
:10507000FF22234B12041A6552E7214BFF221A65C7
:105080004EE7234A1E4BDA6439E7224A1C4BDA64A6
:1050900035E7214A1A4BDA6431E7204A184BDA64C3
:1050A0002DE71F4A164BDA6429E71E4A144BDA64CF
:1050B00025E71D4A124BDA6421E71C4A104BDA64DB
:1050C0001DE7FF220E4B1206DA6418E7FF220C4B95
:1050D0001204DA6413E70A4BFF22DA640FE70122B5
:1050E000074B52425A652CE70122054B52421A6582
:1050F00016E70122024B5242DA6400E7F47900001D
:10510000D4000020287A00005C7A0000907A000029
:1051100000FFFFFFFFFFFF00FFFF00FFFF00FFFF9B
:105120000000FFFF00FFFF00FFFF0000FF0000FF87
:1051300070B5C14CE023E35C022B00D16CE05ED97A
:10514000032B34D0042B19D10023E364236563655A
:10515000A365BA4BE622985C0125E5226D42995C75
:10516000E4229A5C2B1CFFF7B5FE5023E554FF2286
:105170005123E2545223E5545323E554B04B181CF9
:10518000103004E001321A70013383420ED0197CD2
:105190001A789142F6D8F7D2541EE4B2A14200D355
:1051A000A1E1023A1A7001338342F0D170BD0023AD
:1051B000E36423656365A365A24B1B68DA0545D4E8
:1051C00001267642E225655D012D00D16AE1002DC0
:1051D00000D157E1022D00D174E1032DCED1E3239C
:1051E000E35C964A281CD3181B79321C013B1840FB
:1051F00099101B1129402B40FFF76CFEBEE7012BD5
:10520000BCD1914D0D212878FDF72EF80C2947D8F7
:105210008E4B89005B589F460023E36423656365DA
:10522000A365E122A25C012A13D0002A1DD0022A24
:10523000A4D1A360012350226360FF23A354512211
:10524000A3545222A3545322A35497E7E323E65CCA
:10525000B8E7A26063604C22FF23A3544D22A354FD
:105260004E22A3544F22A35488E7764BA2601B68BA
:105270006260DB0500D5CBE0C02212069B185B10F4
:1052800019161B0E1802C318714A18041B18136054
:10529000CB43DBB21902CB1819045B1853606DE7DE
:1052A000FF23E36468780D21FCF7DEFF0C2900D9A9
:1052B00087E0684B89005B589F46674B2365A87859
:1052C0000D21FCF7D1FF0C2957D8644B89005B589E
:1052D0009F46614B6365E8780D21FCF7C5FF0C29FB
:1052E00027D85F4B89005B589F465B4BA36545E71A
:1052F0005C4BA36542E75C4BA3653FE75B4BA36553
:105300003CE75B4BA36539E75A4BA36536E75A4B3D
:10531000A36533E7594BA36530E7FF231B06A3655D
:105320002CE7FF231B04A36528E7FF231B02A365CB
:1053300024E7FF23A36521E74A4B6365CBE74A4B8C
:105340006365C8E7494B6365C5E7494B6365C2E7D9
:10535000484B6365BFE7484B6365BCE7474B6365F4
:10536000B9E7FF231B066365B5E7FF231B046365ED
:10537000B1E7FF231B026365ADE7FF236365AAE77F
:10538000384B23659BE7384B236598E7374B2365FC
:1053900095E7374B236592E7364B23658FE7364B0E
:1053A00023658CE7354B236589E7FF231B062365BF
:1053B00085E7FF231B04236581E7FF231B02236589
:1053C0007DE7FF2323657AE7FF231B06E36469E794
:1053D000FF231B04E36465E7FF231B02E36461E72B
:1053E0001D4BE3645EE71F4BE3645BE71E4BE36426
:1053F00058E71E4BE36455E71D4BE36452E71D4B32
:10540000E3644FE71C4BE3644CE71C4BE36449E760
:105410001B4AD31A5B1033E701235B42E36441E785
:1054200001235B4223654AE701235B42636552E740
:1054300001235B42A365A1E6D4000020940500206F
:10544000100100203CFCFF1FCC000020C47A0000AB
:1054500020010020F87A000000FFFFFF2C7B0000F5
:10546000607B0000FFFFFF00FFFF00FFFF00FFFF6A
:105470000000FFFF00FFFF00FFFF0000FF0000FF34
:10548000FFFFFFBFE323E35C184AD318187C032314
:105490001A1C4106024080100340490F301CFFF7E0
:1054A00019FD6BE6E323E35C104AD318197B032351
:1054B0001A1C08110A40891018400B40311CFFF7D4
:1054C00009FD5BE6E323E35C084AD3181A7A032359
:1054D000013A181C10409110121119401A40331C47
:1054E000FFF7F8FC4AE61C704EE6C0469405002023
:1054F000F0B5C74B47461A6880B4013200201A60E5
:1055000002F076F8C34B1A68002800D17FE0013220
:105510001A60012A00DC7FE01E2A00DD9DE05D6844
:10552000002D00DCA2E0D968002900DA7FE01E68C7
:10553000B94A0131D9601E61914202DDFA22D200DE
:10554000DA60002002F0A0F8B44B1A68002800D1FD
:1055500076E001321A60012A00DC76E01E2A00DCC7
:10556000E0E018691E2800D1E2E11F221A60002243
:105570005A601F220021D9601A61002002F05EF8F3
:10558000A74B1A68002800D1ABE001321A60012A4B
:1055900000DCABE01E2A00DCB0E01E691E2E00D14C
:1055A000B8E11F221A6000225A601F220021D96030
:1055B0001A61002002F090F89A4B1A68002800D176
:1055C00082E001321A60012A00DC82E01E2A00DC3F
:1055D000BCE01A691E2A00D195E11F221A60002240
:1055E0005A601F220021D9601A618F4CE023E35CCE
:1055F000022B00D1C3E0022B3CD8012B3CD02378F6
:10560000DF075ED5FFF724FB04BC9046F0BD013AEE
:105610001A60012A00DD7FE71869022800D148E1FD
:10562000D96801221A605A60002900DB7FE71A61FD
:10563000002002F029F8794B1A68002800D088E78A
:10564000013A1A60012A00DD88E71F69022F00D1A4
:1056500036E101221A605A6068E019691E2900D1FA
:105660005FE11F221A6000225A601F220021D960C8
:105670001A61DDE7042BC2D8201C6C49FDF72AFC17
:10568000237801251D4000D1F3E0694D6823E65AD7
:105690002B78002BB6D03605002001F045FB330DEA
:1056A000C026B6011E436349330A0B704E700023B7
:1056B0002B70614B0222186801F0F6FE2378DF0799
:1056C000A0D4FFF735FD9DE7013A1A60012A00DDFD
:1056D0007CE71969022900D1E4E001221A605A60CE
:1056E00038E0013A1A60012A00DD53E71D69022DF6
:1056F00000D1ECE001221A605A6003E05F68002FDD
:1057000000DC53E7D968002900DA51E71868424AFB
:105710000131D9601861914200DC4AE7FA22D200D7
:10572000DA6046E75968002900DC23E7D9680029D8
:1057300000DA21E71A6801311A61374AD9609142CB
:1057400000DC1AE7FA22D200DA6016E75D68002D65
:1057500000DC47E7D968002900DA45E71E682E4AD1
:105760000131D9601E61914200DC3EE7FA22D2008D
:105770002D4CDA60E023E35C022B00D03BE7E12311
:10578000E35C581E42425041DE22A25C632A57D895
:1057900006302A4982008A180227D65F0027D55F83
:1057A000AE4205DBC825AD00558096252D0115803C
:1057B0008000091802200A5ED543ED1715402278B3
:1057C0000132D2B22270012B00D199E0023B594242
:1057D0004B415B4200271D400126164000D07DE072
:1057E000134F3B78002B00D16BE700202D0501F013
:1057F0009BFA2B0DB0252D021D430E492B0A0B7071
:105800000D4B022218684D703E7001F04DFEF6E619
:105810003CFCFF1F54FCFF1FCF07000040FCFF1F94
:1058200028FCFF1F68FCFF1FD4000020CC000020D4
:1058300000FCFF1FD0000020F4FCFF1F80060020AA
:105840009C2A7CD90630574982008A180225565F67
:105850000027D55FAE4205DBC825AD0055809625F3
:105860002D01158080000D5EEA43D2171540227885
:10587000A6E74D4EE76E3378002B00D121E70020DC
:105880003F0101F051FA3B0DB0273F021F4347494A
:105890003B0A0B70464B022218684F70357001F0BE
:1058A00003FEACE61A7A0F218A4301210A431A72D9
:1058B00013E71A7A0F218A4301210A431A72AFE6CD
:1058C0001A7A0F218A4301210A431A72C1E61A7A11
:1058D0000F218A4301210A431A720BE7324D2B78BC
:1058E000002B00D18EE63F05002001F01DFA3B0D94
:1058F000C027BF011F432D493B0A0B704F70D6E6EE
:105900002F1C002568E71A7A0F210A4010210A434C
:105910001A7262E61A7A0F210A4010210A431A729B
:105920003FE61A7A0F210A4010210A431A7298E6BC
:105930001A7A0F210A4010210A431A7215E62278BA
:105940000630D50617D5174985004D190227EE5F99
:10595000B0460027EE5FB04505DBC826B6006E8076
:10596000962636012E80800009180220095ECD435C
:10597000ED170D4024E70B4985004D190227EE5F16
:10598000B0460027EE5FB04505DBC826B6006E8046
:10599000962636012E8080000D5EE943C9170D4022
:1059A0000EE7C0468006002000FCFF1FD00000204C
:1059B000F4FCFF1F70B51C4D1C49061C281CFDF78C
:1059C0004FFD80204000152101F0E6F90024A01CC5
:1059D000FF30295D80B2013401F0DEF9E82CF6D108
:1059E000012E00D070BD124D80235B042B606B60D4
:1059F000AB60EB602B616B61C822962392001B01A8
:105A000080206A832B83EA83AB838000132101F01B
:105A1000C3F90024074B295DE01880B2013401F07E
:105A2000BBF9202CF6D1DDE794050020CC00002046
:105A30008006002001020000F0B54E46574645465C
:105A4000E0B4CB4EE223F35C012B00D126E1002B26
:105A500000D1EAE0022B00D172E0032B00D0E1E09C
:105A6000C44A0024117AA0460807000F012800D17B
:105A700069E1C149D0680027884203DD012149421C
:105A8000D1600127BD4A0024117A0807000F0128C0
:105A900000D131E1BA4A0020117A0D072D0F012DF6
:105AA00000D124E1B74A117A0D072D0F012D00D145
:105AB0006FE000220025111C002C08D0FC241440AB
:105AC000A246511C032421408C46514661440028C3
:105AD00007D0901001300324F321204011408000B2
:105AE0000918002B5BD1002D07D0131101330720BB
:105AF0008F21034011401B01C918914216D0E323A6
:105B0000F35CA14DEB181974A04B802001224000DA
:105B10001521F25401F040F90024A01CFF30295D4A
:105B200080B2013401F038F9E82CF6D14546012D58
:105B30005FD0012F4DD01CBC90469946A246F0BDC7
:105B4000904A0024117AA0460807000F012800D1CE
:105B5000F3E08949D0680027884203DD01214942EA
:105B6000D1600127854A0024117A0807000F012817
:105B700000D10FE1824A0020117A0D072D0F012D6F
:105B800000D1F0E07B4A117A0D072D0F012D00D0D6
:105B90008FE70F25A9431172012500228BE7002D05
:105BA00007D0111101310324CF20214010400901F9
:105BB00041189142BAD0744D022B00D1F5E0032B6D
:105BC00000D1ECE0012B9FD1E323F35CEB181973B8
:105BD0009AE7E023F754E223F35C002B00D1EAE0DC
:105BE000012BA8D16A4B03219A7803320A409A709C
:105BF000A1E7E323F25C032101320A40F254E223DD
:105C0000F35C012B00D1DDE0002B00D1A1E0022BE1
:105C100000D1DAE0032B01D15D4B1A705B4B0122FE
:105C2000F25486E70022002745E7544A0024117AFF
:105C3000A0460807000F012868D04F49D068002708
:105C4000884203DD01214942D1600127E32249490D
:105C5000B25C4D4D087AAD182A7C05072D0F002443
:105C6000012D5FD047490D7A89462807000F8446E9
:105C70006146002001294FD041490D7A8A46290703
:105C8000AC46090F0025012900D014E70F25614615
:105C9000A9430D1C51460D7201250CE7384A00241A
:105CA000117AA0460807000F012840D03249D06879
:105CB0000027884203DD01214942D1600127E32208
:105CC0002C49B25C304D087AAD182A7B05072D0FA0
:105CD0000024012D15D02B490D7A89462807000F85
:105CE000844661460020012936D02449C5E70F20AB
:105CF000814311720120D5E60F20814311720124E6
:105D0000C8E60F24A04308720124E4E70F20814372
:105D100001251172A84690E70F2085434846057279
:105D20000120A9E70F24A043087201249AE70F205D
:105D3000814301251172A846B8E70F208143012550
:105D40001172A84605E70F20814301251172A8466C
:105D50008FE60F4BDA7061E70F20854348460572E6
:105D60000649012089E70F2081431172012009E7CC
:105D7000D400002068FCFF1FCF07000054FCFF1F69
:105D800040FCFF1F28FCFF1F94050020A604000014
:105D9000CC0000200F20814311720124EAE6E323A6
:105DA000F35C0131EB181971AEE6E323F35C0131CA
:105DB000EB181972A8E6064B0321DA7803320A4081
:105DC000DA70B8E6024B9A7028E7014B5A7025E763
:105DD000CC0000202C4A38B5117A0B071B0FD8B223
:105DE000012812D0294B1A7A1107090F01293CD03A
:105DF000274A117A0B071B0F012B2CD0254B1A7A3F
:105E00001107090F01291BD038BD0F208143224DF6
:105E100022481172E0228354291C214AFCF734FEE7
:105E200080204000152100F0B7FF0024A01CFF30A7
:105E3000295D80B2013400F0AFFFE82CF6D1E3E732
:105E40000F218A431A72144AE523D15C03200131E1
:105E50000140D154D8E70F20814311720E49E62248
:105E6000885C013003408B54C8E70F218A430A49FC
:105E70001A72E423CA5C032001320240CA54074864
:105E8000074AFCF701FEB3E728FCFF1F68FCFF1F71
:105E900054FCFF1F40FCFF1F94050020D40000208D
:105EA000CC000020534A70B5117A0B071B0FD8B2F3
:105EB000012800D16FE0504EE123F35C012B3AD072
:105EC000022B16D1DC21715CDD228039C817800FCE
:105ED000B25C4118C820494D891080000918803AE9
:105EE0006983D117890F8A189621921009015218D7
:105EF0002A83434A117A0807000F012838D0414904
:105F0000D068884204DD01214942D160022B5CD077
:105F10003D4B197A0A07120FD0B2012835D0394A01
:105F2000D968914206DD01225242DA60E123F25C37
:105F3000012A37D070BDDC21715CDD228039C817A1
:105F4000800FB25C4118C8202C4D800089100918C0
:105F5000803AE983D117890F8A1896210901921096
:105F60005218AA83264A117A0807000F0128C6D1C1
:105F70000F2399431172E1230222F254224B197A22
:105F80000A07120FD0B20128C9D10F20814319721C
:105F9000E123F254CEE70F20814311721649E0222B
:105FA0008B54C7E78020002280001321F25400F0B8
:105FB000F3FE124D0024154B295DE01880B2013428
:105FC00000F0EAFE202CF6D1B4E780200022E12385
:105FD00080001321F25400F0DFFE084D00240B4A2C
:105FE000295DA01880B2013400F0D6FE202CF6D135
:105FF0008EE7C04654FCFF1FD4000020800600201E
:1060000028FCFF1FCF07000068FCFF1F01020000F3
:106010005E4B10B5197A0A07120FD0B2012800D1D1
:10602000A4E05B4AD968914200DD74E0594B197ACB
:106030000A07120FD0B2012800D188E0544AD9686B
:1060400091423FDC544B197A0A07120FD0B2012853
:1060500052D04F4AD96891421BDC504B197A0A073B
:10606000120FD0B201281ED0494AD96891420FDDE3
:1060700001225242DA604A4B03211A7803320A4065
:106080001A70484B484A012199540421E02299543E
:1060900010BD01225242DA60404B197A0A07120FF2
:1060A000D0B20128E0D10F20814319723D4B3F4906
:1060B00003245A543A4908780130204008703A497C
:1060C0005A54E5E701225242DA60354B03229978AF
:1060D000354C033111409970324B01201855E224A0
:1060E0001855E3201954E0215A542B4B197A0A070A
:1060F000120FD0B20128ACD10F2081431972294B65
:106100002A4903245A5426494878013020404870CF
:1061100025495A54A1E701225242DA60204B03225A
:10612000D978214803311140D9701E4B01241C54E9
:10613000E22000241C54E3201954E0215A54154B4A
:10614000197A0A07120FD0B2012800D076E70F2083
:1061500081431972134B154903245A541049887806
:1061600001302040887010495A546BE70F2081435A
:1061700019720C4B0D4903245A540949C87801304F
:106180002040C87008495A5450E7C04654FCFF1FCD
:10619000CF07000040FCFF1F28FCFF1F68FCFF1F0B
:1061A000CC000020D4000020A7040000A6040000BA
:1061B000F0B544465F4656464D46F0B485B000F013
:1061C00003FD7A4C6D46201CFCF780FC7848794929
:1061D000FDF7C0FA784E79483168FCF773F8784BD0
:1061E000802252041A605A609A60DA601A615A6119
:1061F000C82196228900120159831A83D9839A8370
:10620000FEF734FEFEF79CFDFEF7CEFD201C68492C
:10621000684AFCF739FC6749654A201CFEF798FA82
:10622000684B0F35986801F0E5FA002000F05CF942
:1062300068466549102201F01BFB0120404268447A
:106240008046FF272B78013DE31848331F71FEF786
:10625000FFFC462001F0F4FA4545F3D10025E56442
:1062600025656565A565FEF7F3FC58490123E02225
:10627000A354C868564B984200DC88E001235B4277
:10628000CB600223A354E123E55402235149524A2F
:1062900052488946DC21924683468846DD2724E021
:1062A000032B6ED0042B01D1FFF794FD4A461368EF
:1062B000012B25D04146E55D635C2D0232685D19F6
:1062C00095423DD0464B0020E054291C3B48FBF74B
:1062D000F9FF201C3749364AFEF73AFA414B356040
:1062E000E35C012B34D0E023E35C022B4CD0D7D805
:1062F000012BDBD1FFF78CFE4A461368012BD9D165
:10630000002350461360006852465268031241460B
:1063100063541312E35553469B685046C0681A12E3
:10632000DE23E2540212DF230020E25400F0DCF806
:106330004146E55D635C2D0232685D199542C1D12D
:10634000274BE35C012BBDD0264BE35C012BCAD16C
:10635000594609680929C6DD0420152100F01CFDF5
:106360000025144A681D515D80B2013500F014FD0E
:10637000042DF6D11B4B002000215A46E054116039
:10638000B1E7FFF759FB91E7FFF78CFD8EE7164A5F
:10639000D068984205DD01235B420120D360FFF7FE
:1063A00009FBE0230122E25401236FE7D40000201F
:1063B00094050020CC00002004FCFF1FA006002054
:1063C00080060020F4FCFF1FA478000040FCFF1FA3
:1063D000CF07000024FCFF1F840500203CFCFF1FAA
:1063E000A6040000A704000028FCFF1F1C4BF0B50A
:1063F000002B00D1F0BD002703250126D819026823
:106400004168002A26D1002904D18268002AF1D0EF
:106410000C37F3E780680028FAD0141C0C4325429F
:1064200008D1032806D910CA043810C10028F4D1B5
:106430000C37E3E7264207D1012805D91488023832
:106440000C8002320231E6E7147801380C70013218
:106450000131E0E780688A42DDD10C37CEE7C046E3
:10646000C47B00007047C0467047C04638B5FFF790
:10647000F9FF00F04FFB184B181C002805D085468B
:1064800081B00020C043009001B0144B144AD21ACE
:1064900008D1FFF7ABFFFFF7E7FF00201149FFF737
:1064A00087FEFEE7032501240020291C194006D1A0
:1064B000032A04D902C3043A002AF6D1E9E7211CD1
:1064C000194005D1012A03D91980023A0233F3E7B2
:1064D0001870013A0133EFE7000C002008FCFF1FA1
:1064E000B806002080FCFF1FF8B51E4C051C227862
:1064F0000820D2B2002A00D0F8BD012323702378EF
:10650000002B07D10020002DF6D02378012BFCD0E2
:106510000020F1E72378032B14D0134B13491A7092
:10652000134B1A70134B1A805A809A80DA8000231A
:106530000B70114E0122306800F00AF9306800F04B
:10654000F1F8DFE70A4B08491E780C4F0878BE5D6A
:10655000B043087018780749400042521B7803493D
:106560000B70E6E7AAFCFF1FA8FCFF1FACFCFF1F97
:10657000A9FCFF1FA4060020AC060020947B0000AD
:1065800010B50223032801D9181C10BD064B1A7838
:10659000064B1C5C09231442F6D0054B4000C35A3D
:1065A0001B010B800023EFE7A8FCFF1F947B00007A
:1065B000A406002070B5234D2B78042B39D02B78FE
:1065C000214C2178032B18D0204B214E4900C918AB
:1065D000306800F0D9F823780133DBB223702378D8
:1065E000042B1DD023781B4930680B70012200F06A
:1065F000AFF8306800F096F870BD154B4900186888
:10660000124BC91800F0C0F82278134B13481978C0
:10661000825C0A431A70FBF7D5FE00232B70EBE770
:106620000D4B00260F2226701A70FBF7CBFE2E7042
:10663000E2E7074B186800F0BBF800232B70FBF76C
:10664000DBFED9E7AAFCFF1FA9FCFF1FA406002060
:10665000AC060020ACFCFF1FA8FCFF1F947B0000D1
:10666000054A08B500231370044A0020137000F097
:1066700009F8034B186008BDA8FCFF1FAAFCFF1F08
:10668000AC0600201D4B1E4A30B51E4958601360F1
:1066900000201D4A187098708D58802424052C43C2
:1066A0008C501A4AC3218900555880242D022D0A86
:1066B00024062C43545014688021090221431160A0
:1066C000134A1449146A0C401462546A0C40546210
:1066D000114A546B0C405463D46A2140D1620F4A72
:1066E00057219160D1680F24A143D16040211062ED
:1066F00051620B4A181CD36030BDC046B4FCFF1F6A
:10670000B0FCFF1F007004403C10000000E100E0FE
:1067100000900440FFF8FFFE00A0044000B00340DA
:10672000F4FCFF1F094B10B5196A08220C0601D5AD
:10673000101C10BD5A6A48218A435A621A6A4021C5
:106740008A431A6242781A600022F1E700B00340DF
:1067500030B59623012A01D0181C30BD084B1C6AA5
:1067600008232506F8D402700A788223032AF3D876
:10677000044B9A5C4023134343700023ECE7C0466C
:1067800000B00340987B000030B502780023002A57
:106790000AD0064D1A1D920054595A005452013322
:1067A0000278DBB29A42F5D8002030BD00B0034039
:1067B0000B4B1B205A6A510600D57047DA6C996C56
:1067C000002089185A6C89181A6C8918DA6B891894
:1067D0009A6B89188022490812020A43DA62ECE7B0
:1067E00000B0034008B5054B01221B689A70586839
:1067F000FFF7E0FE024B1B6908BDC046B0FCFF1F5F
:1068000000B00340F0B5474680B4051C82B00B1CB5
:10681000171C002905D13980002002B004BC904625
:10682000F0BD234C1A1C2068291C002300F040FCFA
:10683000082834D01F4A002500269046206800F022
:106840003FFB206800F086FC002811D1206800F092
:1068500089FCB0421ED0206800F084FC061C206831
:1068600000F02EFB2068002500F074FC0028EDD01D
:10687000206800F077FC69463880206800F008FD49
:106880006A461388002B0CD1FA23DB009D4206D008
:106890000020C2E70135ADB24545CFD9E8E70C206D
:1068A000BBE708201A07B8D415205A07B5D4EBE780
:1068B000B0060020CF070000F0B5474680B4051CA5
:1068C00084B00B1C171C002905D13980002004B0AE
:1068D00004BC9046F0BD2A4C1A1C2068291C0123D8
:1068E00000F042FC082842D0264A002500269046A7
:1068F000206800F0E5FA206800F088FC002811D13B
:10690000206800F08BFCB0422CD0206800F086FCA0
:10691000061C206800F0D4FA2068002500F076FC00
:106920000028EDD0206800F079FC02AE3880311CE0
:10693000206800F0ADFC3388002B1AD1FA23DB006D
:106940009D4214D01D1C03E0013DADB2002D0ED0C0
:106950002068694600F0A2FC6A461378012BF3D147
:106960000020B4E70135ADB24545C1D9DAE70C20C6
:10697000ADE708201A07AAD415205A07A7D4DDE7E7
:10698000B0060020CF07000030B50F4B20219A78C9
:10699000FA248A439A709A7810218A4383B09A70B5
:1069A000E4000A4D03E0013CA4B2002C0AD02868A0
:1069B000694600F073FC6A461378012BF3D100207E
:1069C00003B030BD0C20FBE700600640B00600209D
:1069D00008B5054B7F221B6802400021181C00F0FF
:1069E0001FFCC0B208BDC046B006002008B500209C
:1069F00000F01AFB014B186008BDC046B00600202D
:106A00000A4B0B4A402110605869084358611868C6
:106A100088431860074B084998690140802040006E
:106A200001439961054B101C9A62704740F00F407A
:106A3000BCFCFF1F00A00440FFF8FFFEF4FCFF1F9A
:106A4000014B40229A60704740F00FF8014B402202
:106A50005A60704740F00FF8124B134A10B513609C
:106A6000124A18601249906801408020400001439A
:106A7000916090680F4901400F48014391600F4AAF
:106A8000C7218900545880202402240AC0052043CD
:106A9000505010688021090601431160084A181CF3
:106AA000536110BDC4FCFF1FC0FCFF1F00A00440C9
:106AB000FFF8FFFEFFFFF0FE00000B0100E100E029
:106AC000F4FCFF1F08B5074B80221868064B5204E0
:106AD0009968114205D0996800680A439A60FBF7EB
:106AE0008DFC08BDC0FCFF1F00A00440024B1869CC
:106AF0004007C00F7047C04640F00F4008B5FFF791
:106B0000E1FF00F05FFC08BD08B5FBF74FFC08BDD6
:106B1000FFBE7047214B224A2249D150224B882286
:106B2000002152019950214AC02189029950204ADE
:106B3000C0219858C900014399501E4B9A781107FB
:106B400004D5997808220A43D2B29A70164B174A94
:106B5000802149029950184A1849985801408020CC
:106B6000400401439950164906230B704B7840228C
:106B700013404B70CB781F221340A0221343CB70DD
:106B8000104B80221A7010228B791A42FCD00C49CB
:106B90000C228B791A42FCD17047C046080D0000C8
:106BA00000E000E0002000000070044044100000FD
:106BB0003810000000D0074004100000FFFFFFFC69
:106BC000004006400050064070B53D4B1F215A79E9
:106BD0003C488A435A711A7907218A431A713A4B01
:106BE00073211A78C7248A4350210A431A705A78AD
:106BF00063218A4340210A435A709A7819218A43B3
:106C00009A70324B00221A70314B0221DA68A400CC
:106C100002400A43DA601A69062602400A431A61F2
:106C20001A6B02400A431A632A4A15592D042D0C87
:106C30001551294C6569B5436561284CA56A284002
:106C40000143A162586826490140C02080000143E9
:106C50005960C1239B00D05822490140D1500020E7
:106C600000F0CCFB002000F0AFFDFFF7F9FC00F0D6
:106C70004DFB002000F038F80020FFF7EDFE00206B
:106C800000F096FC002000F0E1FC002000F012FB78
:106C9000002000F055F80020FFF7B2FE002000F0C1
:106CA000FBFC002000F0ACFC002000F057FB00F0E3
:106CB0003FFBFFF79BFE00F0EDF862B670BDC046EB
:106CC00000F00740FDFFFFFE00D0074000E0074056
:106CD0000090044000E100E040F00F4000A00440BC
:106CE000FFF8FFFEFFFF00FF0A4B0B4A2021106058
:106CF000586908435861186801431960074B0849EF
:106D0000586901408020400001435961054B101C27
:106D10001A61704700F00F40CCFCFF1F0090044048
:106D2000FFF8FFFEF4FCFF1F014B20229A60704722
:106D300000F00FF8014B20225A60704700F00FF866
:106D40000A4B0B4A80211060586908435861186843
:106D500088431860074B0849D869014080204000EB
:106D60000143D961054B101C5A62704740F00F4037
:106D7000D0FCFF1F00A00440FFF8FFFEF4FCFF1F43
:106D8000014B80229A60704740F00FF8014B80223F
:106D90005A60704740F00FF870B5041C400550234E
:106DA000400F82B018430E1C00F046F8051E1AD1A1
:106DB0006A461470567068460221002200F056F8A8
:106DC000051E10D1FF236A461370002000F038FD25
:106DD000684601210022642300F05EF80028F4D107
:106DE00000F032F802E000F02FF8281C02B070BD6D
:106DF00030B583B06B4618704305580F50231843C5
:106E00000D1C00F019F8041E10D168460121012262
:106E100000F02CF8041E09D1281C0121002200F0EA
:106E200015F8041E02D100F00FF802E000F00CF893
:106E3000201C03B030BDC04608B5FFF7C9FD0028CF
:106E400000D01B2008BDC0460020704710B582B09E
:106E5000141C6A46FFF730FD002801D1002C01D038
:106E600002B010BDFFF790FDFAE7C04630B583B021
:106E7000151C6A46FFF7C6FC041E08D102239D4379
:106E800002D1FFF781FD041C201C03B030BDFFF7C9
:106E90007BFDF9E77047C04630B583B0151C6A46E4
:106EA000FFF7B0FC041E08D1002D02D0201C03B057
:106EB00030BDFFF769FD041CF8E7FFF765FDF5E756
:106EC00070B5584B0222D9780A4226D0D978DC789E
:106ED0001225AC43C9B20C43DC709C7820252C40B1
:106EE0001CD09E781024344227D102894189013A6E
:106EF00092B2013102814181002A34D0012A56D058
:106F0000C3685A1CC260474A12791A700389002B61
:106F100003D1427802231343437070BD10220A420A
:106F2000FBD004820481047801218C4381700470B9
:106F3000997891439970042211E001260E421ED0E7
:106F40009A78AA439A709A78A2439A70002303828F
:106F5000038103780622B343134303700822838816
:106F600013438380D9E7027801218A4302709A781B
:106F70000821AA439A709A788A439A70C0E70178E8
:106F80000A420DD0028A002A16D0013A0282428AB1
:106F9000013242824269511C416112781A71BCE788
:106FA00082791A710278022313430370B5E7997846
:106FB00008220A439A70A3E70289002A0FD004240A
:106FC0004D0716D5012A28D09A7808218A439A704D
:106FD000144B10219A788A439A701B799DE7827826
:106FE000B1430170012A11D0427801231343437049
:106FF00093E79A782243D2B29A70C17901220A4368
:10700000D2B21A7103781C43047086E79A78AA43B7
:107010009A709A78A2439A70E6E7997808220A4310
:107020009A70D5E7006006401A4B202270B51A709E
:1070300010229A7101229A70002298615A811A8155
:107040005A821A829A8000211348144A597085582E
:1070500040242C438450124A502091709071022099
:10706000D0701048104D066980242E40A40026439D
:107070000661C66835402C43C46051719171292165
:1070800051709078802101439170084A181C9363D5
:1070900070BDC046D4FCFF1F0070044034100000D7
:1070A0000060064000A00440FFF8FFFEF4FCFF1F54
:1070B000F0B5002A35D08578012D05D00678082452
:1070C000F50709D5201CF0BD214CE6780824B70649
:1070D000F8D406783542F5D1058A002DF2D1012485
:1070E0004161837000211A4B26430282067041825F
:1070F000997810220A439A709A789978970612D450
:1071000020220A43D2B29A70037899060FD4102233
:107110001A4014D11D0704D502210B4303700C4BF8
:107120001A710024CEE704220A439A70ECE7062283
:10713000134303708279064B00241A71C2E70622BA
:1071400093430370C279024B00241A71BAE7C04618
:107150000060064043780122191C91434170101CC5
:1071600018407047408A7047F0B5041C002A12D0BE
:107170008120002B00D1F0BD257809202E07FAD4FC
:10718000A678012E09D00820EE07F4D42089002823
:107190000DD00820EFE70020EDE71B48C0788446BB
:1071A00067460820BF06E6D42E42E4D1EEE701266A
:1071B000A3703543144B22812570E160608199787A
:1071C00010220A439A709A78997897060ED504226D
:1071D0000A439A70237899060DD4DA06DBD5062285
:1071E00093432370E279084B1A71C4E720220A43C3
:1071F000D2B29A70EEE706221343A27923700123DC
:107200001A43014B1A71B6E7006006404378022228
:10721000191C91439B074170D80F704740897047F4
:1072200030B504780823E50701D5181C30BD0129C5
:1072300016D0002908D0022925D130239C430823E9
:107240001C4304700023F0E789237F2AEDD818231C
:107250009C4320231C435200827104700023E4E706
:107260000A4989238A42E0D806238271D2091A404A
:1072700010235B421A4328239C4310231C43C271F2
:1072800004700023D1E78D23CFE7C046FF03000041
:1072900083880B800023838000207047044B0122E9
:1072A000DB7800205B095340012213400B707047CC
:1072B000006006400A4B0B4A2021106058690843C1
:1072C0005861186888431860074B0849586901409D
:1072D0008020400001435961054B101C1A62704721
:1072E00040F00F40F0FCFF1F00A00440FFF8FFFE3D
:1072F000F4FCFF1F014B20229A60704740F00FF80A
:10730000014B20225A60704740F00FF8064B0822CC
:107310005968114359609968914399605969034AC2
:107320000A405A617047C04600F00F40E7ECFFFF8B
:10733000074B80225968D2000A435A609968054A6F
:107340000A409A605969044A0A405A617047C04627
:1073500040F00F40FFFBFFFFFFD3FFFF114B124A2E
:1073600010B51360114A186011495068014080201F
:1073700040000143516050680E4901400E480143EE
:107380005160C7200D4A800014588021240209064C
:10739000240A0C431450106801431160084A181C59
:1073A000536310BD34FDFF1F30FDFF1F00A00440DC
:1073B000FFF8FFFEFFFFF0FE00000B0100E100E020
:1073C000F4FCFF1F08B5074B80221868064B5204D7
:1073D0005968114205D0596800680A435A60FBF7A2
:1073E00017F808BD30FDFF1F00A00440024B1869CC
:1073F0008007C00F7047C04640F00F401F4B204A27
:1074000030B5136000221A6098619A809A819A6060
:10741000DA819A821A6100211A481B4A99758558A7
:107420008024E4032C438450184AC220800015585D
:10743000174C2C4080252D042C43145014688020B8
:10744000C00020431060134A134CD569C02025406A
:1074500080000543D561114A15682C402043106017
:107460000F4A1E201070102050709170107840212B
:10747000014311700B4A181C136030BD3CFDFF1F07
:1074800038FDFF1F007004403410000000E100E0F0
:10749000FFFF00FF00900440FFF8FFFE00A0044043
:1074A00000600740F4FCFF1F70B5838A82B0041CA3
:1074B000002B03D00823181C02B070BD6D46EFF3FB
:1074C000108072B62870124805780135EDB205704B
:1074D000012D17D0A2820022E281A27D216101212B
:1074E0008A43A2750B4A2021147821431170027837
:1074F000013AD2B20270002ADDD1074A107880F337
:107500001088D8E76D462E78034D2E70E2E7C0460E
:10751000C8FCFF1F00600740B606002038B5224BAC
:107520001C68224BDD78EDB26AB2002A19DB2023F9
:107530002B4210D0E189A28A91420DD223695A1CB4
:1075400022611A78194B5A71E389A28A01339BB2DE
:10755000E3819A421ED038BD144A117899431170C4
:10756000F9E7A289002AE2D0A268511CA1605979EA
:107570001170A288A189013292B2A2809142D6D123
:107580001A787F210A401A700023A381A069FAF7B4
:1075900013FFCCE7A27D0023A38201231343A3752D
:1075A000A069FAF705FFD6E738FDFF1F0060074026
:1075B000094B0A4A18600A49506901405161094A59
:1075C0000949906A01408020400001439162074AC6
:1075D000181C93617047C04658FDFF1F40F00F40D4
:1075E000FFFBFFFF00A00440FFF8FFFEF4FCFF1FBD
:1075F000024B18694005C00F7047C04640F00FF8B5
:10760000094A0A4B51691860102081435161084AA8
:107610000849106901408020400001431161064A79
:10762000181C13637047C04600F00F405CFDFF1F3D
:1076300000900440FFF8FFFEF4FCFF1F024B1869A6
:10764000C006C00F7047C04600F00FF8094A0A4B49
:1076500051691860082081435161084A0849D0687F
:107660000140802040000143D160064A181CD361CC
:107670007047C04600F00F4060FDFF1F00900440BF
:10768000FFF8FFFEF4FCFF1F024B18690007C00F54
:107690007047C04600F00FF8094B0A4A18600A49C3
:1076A000506901405161094A0949106B014080202D
:1076B000400001431163074A181CD3627047C0465B
:1076C00064FDFF1F00F00F40FFEFFFFF009004403C
:1076D000FFF8FFFEF4FCFF1F024B1869C004C00F47
:1076E0007047C04600F00FF808B5FAF767FE08BD0E
:1076F0001B4A70B55368002B05D01A7AD860013246
:107700001A72181C70BD1749174CC8600120087206
:1077100016488025016016486D04265835432550CB
:107720001448C42403604360C3604361124BA40047
:10773000836080235B000B6008234B600F4B104D70
:107740001E5935408026360235431D511D68802460
:10775000A4022C431C604023036051600B1CD0E743
:10776000F4FCFF1F6CFDFF1F0070044068FDFF1F4D
:107770003C10000000800340B15D000000E100E02B
:10778000FF00FFFF044B98211A688A4341680020DC
:107790000A431A607047C0460080034008B5084B92
:1077A00080221868074B19680A4208D00168C90589
:1077B00005D51968C0680A431A6000F027F808BDAB
:1077C00068FDFF1F0080034038B5084C084DA060DD
:1077D000002300202371AC60FFF78AFF206000289F
:1077E00001D0201C38BDA860FCE7C0467CFDFF1F0F
:1077F000F4FCFF1F08B50379002B04D101230371AA
:107800000068FFF7BFFF002008BDC04608B5034B66
:107810009B689868FFF768FF08BDC046F4FCFF1F2F
:10782000C046C046C04670470020C046C046C0465D
:10783000C046C04601300928F7D9C0467047C04647
:1078400038B5051E12D0E024FF34013CA4B2FFF786
:10785000EBFF002CF9D10724013CA4B2FFF7E0FFB5
:10786000002CF9D1013DADB2002DECD138BDC046A0
:1078700010B50023934203D0CC5CC4540133F9E724
:1078800010BD031C8218934202D019700133FAE72D
:107890007047000000000000050000000700000025
:1078A0000C00000004090E03050A0F00060B0C0172
:1078B00007080D02E42800003E290000E42800002B
:1078C0004E2900005E2900006E290000FA28000001
:1078D0007E29000058290000482900008229000064
:1078E00058290000682900007829000004290000B8
:1078F00058290000202A0000242A0000322A000013
:10790000422A0000522A0000562A0000102A0000D5
:10791000D22900007C3A0000163B00007C3A0000AF
:10792000943A0000243B0000323B0000043B00007E
:10793000463B0000523B0000583B00005E3B00000D
:10794000523B00000E3B00003C3B00000E3B0000A1
:10795000523B00004E3E00004E3E0000483D0000FD
:107960006C3D00001A3D0000023E0000B43D0000E6
:10797000CA3D0000A43C0000723D00009E3D000096
:107980007E3E0000A43C0000063E0000684400006B
:1079900068440000E8440000E4440000E0440000C3
:1079A000DC44000068440000D444000001030701E7
:1079B000030B01050701050D01090B01090D020368
:1079C0000702030B02060702060E020A0B020A0E4A
:1079D00004050704050D04060704060E040C0D0437
:1079E0000C0E08090B08090D080A0B080A0E080CF2
:1079F0000D080C0ED6500000F64E0000CC500000D2
:107A0000C2500000BA500000B2500000AA5000005E
:107A1000A25000009A500000925000008A500000CE
:107A200082500000F25000007A500000184F000011
:107A300070500000665000005E500000565000007C
:107A40004E500000465000003E50000036500000EE
:107A50002E50000026500000E85000001E5000008C
:107A60003A4F0000145000000A500000025000007D
:107A7000FA4F0000F24F0000EA4F0000E24F000012
:107A8000DA4F0000D24F0000CA4F0000DE50000065
:107A9000C24F0000B84F0000AE4F0000A44F0000DE
:107AA0009C4F0000944F00008C4F0000844F00005A
:107AB0007C4F0000744F00006C4F0000644F0000CA
:107AC0005A4F0000A0520000D8530000D0530000CD
