:10040000FFFFFFFFFFFFFFFFFFFFFFFF7EFBFFFF81
:10200000000C0020856100002168000029680000A4
:10201000296800002968000029680000296800007C
:10202000296800002968000029680000296800006C
:10203000296800002968000029680000296800005C
:10204000296800002968000029680000296800004C
:10205000296800002968000029680000296800003C
:102060002968000029680000357200002968000016
:10207000296800002968000029680000FD6400004C
:1020800029680000B5740000296800002968000074
:1020900029680000296800002968000029680000FC
:1020A00029680000296800002968000029680000EC
:1020B00029680000296800002968000015680000F0
:1020C00010B5064C2378002B07D1054B002B02D00E
:1020D000044800E000BF0123237010BD08FCFF1F6F
:1020E00000000000B478000008B5084B002B03D0B6
:1020F0000748084900E000BF07480368002B03D0E9
:10210000064B002B00D0984708BDC04600000000D9
:10211000B47800000CFCFF1F08FCFF1F000000004B
:10212000002934D00123002210B488422CD301248A
:102130002407A14204D2814202D209011B01F8E71F
:10214000E400A14204D2814202D249005B00F8E7D8
:10215000884201D3401A1A434C08A04202D3001B04
:102160005C0822438C08A04202D3001B9C08224337
:10217000CC08A04202D3001BDC082243002803D075
:102180001B0901D00909E3E7101C10BC70470028A7
:1021900001D00020C04307B4024802A140180290B9
:1021A00003BDC046D90000000029F0D003B5FFF7F9
:1021B000B9FF0EBC4243891A1847C046002941D0D6
:1021C00010B4041C4C40A44601230022002900D571
:1021D0004942002800D5404288422CD301242407DC
:1021E000A14204D2814202D209011B01F8E7E400B6
:1021F000A14204D2814202D249005B00F8E7884242
:1022000001D3401A1A434C08A04202D3001B5C08B9
:1022100022438C08A04202D3001B9C082243CC0816
:10222000A04202D3001BDC082243002803D01B0974
:1022300001D00909E3E7101C6446002C00D5404298
:1022400010BC7047002806D003DB0020C0434008C4
:1022500001E08020000607B4024802A14018029065
:1022600003BDC046190000000029EBD003B5FFF7FD
:10227000A7FF0EBC4243891A1847C0467047C046A4
:102280009C460304F0B51B0C17043F0C150C1E1CD8
:10229000041C000C7E436B4347434543FB18300C42
:1022A0001818874202D980235B02ED18030CED1841
:1022B00063465C434A433604360CA1180004801977
:1022C0004919F0BD016070470268044B5343044A4A
:1022D0009B1803605B00580C7047C046FD43030029
:1022E000C39E260008B5FFF7EFFFC011C0B208BDBE
:1022F00008B5FFF7E9FF8004C00F08BD10B50C1C3E
:10230000FFF7E2FF83041B0ED817E20FA3425041F0
:10231000C0B210BDF0B54D465F4656464446F0B4D7
:10232000416899460B1C87B064333BD092780F24E8
:102330004A44127B006814406500120993462A192A
:10234000920012194A441832AA46127A002906DA73
:1023500001388918FCD48A4203DC891A01308A4288
:10236000FBDD114F02AE3A1CB046A8CAA8C61268DF
:10237000534632601E19B60034194D462B190130F0
:1023800059185E4643001818097DB300474680007F
:10239000DB590818C01807B03CBC90469946A246C5
:1023A000AB46F0BD081CF6E7AC7500007047C046B0
:1023B00008B503F0F3F808BD7047C04608B503F050
:1023C00031FA08BD70B582B06D46094E002406355D
:1023D000E0B2291C03F060FF2A88A3000134F25008
:1023E000042CF5D1034B01221A6002B070BDC04627
:1023F0008C05002078FCFF1F7047C04608B5034BD2
:10240000586904F0FFF903F0F1F908BDF4FCFF1F6F
:1024100008B5034B586B04F075FE03F0DBF908BDFB
:10242000F4FCFF1F7047C0467047C046DC2210B561
:10243000815C029BC9091970DD21445CE4099C7030
:10244000415C4900D97000219980825C5207920F4B
:102450005A7010BD7047C04638B5DC23051CC05CFF
:102460008B780F21D3181B7B049C0B405900C91893
:102470008900CB18D2181832137A55215843FFF728
:102480009DFE0130C0B22071DD23EB5CFF2158437B
:10249000FFF794FE607138BD7047C0467047C04674
:1024A0007047C046F0B5474680B4181C069E1D1CF8
:1024B000FFF70AFF072420403080281CFFF704FFA5
:1024C00004407480341D8436B0460726271C10371C
:1024D000281CFFF7F9FEC217520F80183040821AED
:1024E0002270281CFFF7F0FEC217520F81183140EE
:1024F0008A1A62700234BC42EAD14445E6D104BC77
:102500009046F0BDF8B51D1CDD23C15C069C071C80
:102510008908281CFFF7D6FEDC23F95C261C8436CC
:102520008908301CFFF7CEFE301CFFF7CDFE0721D7
:10253000FFF79AFE0026490021706670281CFFF7FD
:10254000C3FE0321FFF790FEC9B2A170E18026729D
:10255000281CFFF7B9FE0721FFF786FE281CE17053
:10256000FFF7B2FE0521FFF77FFE2171F8BDC046DF
:10257000F8B51D1CDC23C15C069C071CC908281C7F
:10258000FFF7A0FEDD23F95C261C8436C908301C49
:10259000FFF798FE281CFFF797FE0727384020809A
:1025A000281CFFF791FE07406780301CFFF78CFE68
:1025B00015231840A080062804DC04480023A080CE
:1025C000E380F8BD0B3880B2F8E7C046FCFF00009E
:1025D000F8B5DD22815C051C8908181C069CFFF7F4
:1025E00071FEDC23E95C201C8430890800270D4E35
:1025F000FFF768FE27600120A95D4042FFF790FDCC
:10260000237C012293436060A7602374A95D0329A2
:1026100005D989100448FFF783FDE060F8BD024842
:10262000FBE7C046A5040000FFFFFFCF38B5181C2C
:102630001D1C049CFFF748FE011C6060201CFFF776
:1026400041FE281CFFF740FE0321FFF70DFE281C6A
:102650002172FFF747FE01231A1C0240607A98435B
:102660001043607238BDC04670B5061C181C1D1C96
:10267000049CFFF729FE011C6060201CFFF722FE6E
:10268000281CFFF721FE0321FFF7EEFD0231A172A6
:10269000281CFFF719FE0521FFF7E6FD281C6172D3
:1026A000FFF712FE03231840013040002072281C5F
:1026B000FFF71EFE0023002814D1E37200232373CA
:1026C0006373281CFFF714FE0023002803D0281C86
:1026D000FFF70EFE031CA373DC23F35C9B0903339B
:1026E000E37370BD281CFFF703FE031CE5E7C0463B
:1026F00038B5181C1D1C049CFFF7FAFD2080281C0F
:10270000FFF7F6FD6080281CFFF7F2FDA080281C73
:10271000FFF7EEFDE08038BDF0B5474680B41E1CE3
:10272000DD238846C15C051C8908301C069C171CEB
:10273000FFF7C8FDDC23E95C201C09098430FFF7A2
:10274000C1FD201C183002F08FFF301CFFF7BCFDCC
:1027500000230004E06020616361236041464A7801
:10276000064BBF18EB5C397A012059434042FFF712
:10277000D7FC606004BC9046F0BDC046A4040000D5
:1027800030B5054C0501054B281901240160426054
:102790008360047330BDC046C8FFFF1FA124000042
:1027A000F0B55F46444656464D46F0B43A4B83B0CA
:1027B000C35C071C0C9C052B00D9052323713B1C13
:1027C000DD331978201C89088430FFF77BFD38231E
:1027D000C8215B422579002689469846AE420CDA2C
:1027E0004846A3197043291C9A46FFF7E7FC414667
:1027F000081A534698710136F0E7DC3739782B1CFC
:102800000122022B02DD5A43013BFAE75200101C61
:102810004843FF21FFF7D2FC002833D000231A1CC5
:10282000AB4203DA6E469A550133F9E70022A11D47
:1028300001268B46131C9046B446AB4222DA694609
:10284000CF5C9F4219DA5E46F1186646334204D1E6
:10285000A7790E78A6710F7006E05F443E78B14606
:102860000E783E704E460E7082420BD06E46F15C82
:1028700001320131F1540023DFE746466946CE5468
:102880000133DAE70023637103B03CBC90469946FC
:10289000A246AB46F0BDC046A404000070B5181CAB
:1028A0001D1C069C049EFFF71DFD2070281CFFF7D1
:1028B0001FFD031C581E8341A0780122904318433A
:1028C000A070281CFFF700FDC3175B0FC01807227C
:1028D0001040C01A072805D82A4A8300D3589F46BB
:1028E00000236370A378D9070CD507280AD8264B94
:1028F00080001B589F460C236370A378DA0701D52C
:10290000012363700022B35E002B0BD0059B072BC5
:1029100007DC63780333DBB263700221725E002A46
:1029200008D170BD0222B35E002BFAD0059B072BA5
:10293000F7DC6378053B6370F3E7F4236370A378F7
:10294000D907DFD5F4236370DCE701236370A37834
:10295000D907D7D500236370D4E703236370A37826
:10296000DA07CFD503236370CCE707236370A3781E
:10297000D907C7D5F2236370C4E70D23E6E7FE232A
:102980006370BFE7CC750000EC75000038B5181C0B
:102990001D1C069CFFF7A6FC2070281CFFF7A8FC56
:1029A000031C581E8341A078012290431843A07055
:1029B000281CFFF789FCC3175B0FC01807221040C3
:1029C000C31A072B0AD8274A9B00D3589F460D23CA
:1029D0006370A378D90701D500236370049900239D
:1029E000CB5E002B02D0059A082A0BDD0499022346
:1029F000CB5E002B05D0059A052A02DC6378033BE9
:102A0000637038BD637807336370EFE70C2363703E
:102A1000A378D907E2D501236370DFE70023D7E766
:102A2000F423A2786370D107D8D56370D6E70F235B
:102A30006370A378DA07D1D5FE236370CEE7012354
:102A40006370A378DA07C9D50C236370C6E7032344
:102A5000E7E707236370A378DA07BFD5F223637033
:102A6000BCE7C0460C76000070B5041C0D1C161C9B
:102A7000002B0DDB181C0D21FFF7F6FB0C2900D9EC
:102A8000CFE0694B89005B589F4601235B42E364BA
:102A9000049A002A0DDB101C0D21FFF7E5FB0C2921
:102AA00000D997E0614B89005B589F4601235B4248
:102AB0002365002E0CDB301C0D21FFF7D5FB0C2904
:102AC00061D85B4B89005B589F4601235B4263657D
:102AD000002D0CDB281C0D21FFF7C6FB0C292BD881
:102AE000544B89005B589F4601235B42A36570BD30
:102AF000514BA365FBE7514BA365F8E7504BA3652A
:102B0000F5E7504BA365F2E74F4BA365EFE74F4B5B
:102B1000A365ECE74E4BA365E9E74E4BA365E6E7FB
:102B2000FF231B06A365E2E7FF231B04A365DEE783
:102B3000FF231B02A365DAE7FF23A365D7E73E4B1C
:102B40006365C5E73D4B6365C2E73D4B6365BFE722
:102B50003C4B6365BCE73C4B6365B9E73B4B636546
:102B6000B6E73B4B6365B3E73A4B6365B0E7FF23DA
:102B70001B066365ACE7FF231B046365A8E7FF231F
:102B80001B026365A4E7FF236365A1E72A4B236566
:102B90008FE72A4B23658CE7294B236589E7294B6F
:102BA000236586E7284B236583E7284B236580E769
:102BB000274B23657DE7274B23657AE7FF231B0619
:102BC000236576E7FF231B04236572E7FF231B02BF
:102BD00023656EE7FF2323656BE7174BE36457E735
:102BE000164BE36454E7164BE36451E7154BE3647B
:102BF0004EE7154BE3644BE7144BE36448E7144B93
:102C0000E36445E7134BE36442E7FF231B06E364F9
:102C10003EE7FF231B04E3643AE7FF231B02E36460
:102C200036E7FF23E36433E72C760000607600008C
:102C300094760000C876000000FFFFFFFFFFFF0052
:102C4000FFFF00FFFF00FFFF0000FFFF00FFFF008E
:102C5000FFFF0000FF0000FFF0B556464D4644461A
:102C60005F46F0B4E023C35C83B0041C0D1C161C4B
:102C7000022B00D190E000D881E0032B4ED0042B32
:102C800038D1002110224C30012604F086FC764217
:102C9000E522E423AA5CEB5C311C201C0096FFF7C4
:102CA000E3FEE622A85C012318404042582160540C
:102CB000A85C59214008184040426054AA5C502149
:102CC000920813405B42894698465A225223944602
:102CD0009B4651224B46E654924643466246A354D5
:102CE00053275B200025FF215A465346A654E6553C
:102CF0002554E154201C3C300022017C0378994289
:102D000034D90133037001320130102AF5D103B0F8
:102D10003CBC90469946A246AB46F0BD4C300021E3
:102D2000102204F03AFCA44B1B68D90551D40126AB
:102D30007642E220205C012800D12FE1002800D15A
:102D40001EE1022800D10DE10328D3D1E323E35C87
:102D5000ED18297901390B1103408A100240014016
:102D60000093201C331CFFF77FFEC3E79942CAD2B1
:102D70005C1EE4B2023BA142C4D30470C3E7012B42
:102D8000B8D110780D21FFF76FFA0C2900D9DAE0DD
:102D90008A4B89005B589F46051C4C35281C002136
:102DA000102204F0FAFBE123E35C012B14D0002B8A
:102DB0001FD0022B9ED1FF23002701265025512032
:102DC00052215322A7606660635523546354A35471
:102DD00090E7E323E65CACE7FF2200274C264D2575
:102DE0004E204F21A3606760A25562552254625461
:102DF00080E7714AA36010686360C00502F03AFC86
:102E0000031C010E0422281C1D1604F0C6FBE94316
:102E1000201CC9B20422503004F0BFFB6AE7684BA3
:102E2000E36470780D21FFF71FFA0C2972D8654B07
:102E300089005B589F46624B2365B0780D21FFF7F0
:102E400013FA0C294DD8604B89005B589F465C4BA8
:102E50006365F0780D21FFF707FA0C2927D85B4B43
:102E600089005B589F46564BA36543E7584BA365C3
:102E700040E7584BA3653DE7574BA3653AE7574BEF
:102E8000A36537E7564BA36534E7564BA36531E797
:102E9000554BA3652EE7FF231B06A3652AE7FF23F7
:102EA0001B04A36526E7FF231B02A36522E7FF237C
:102EB000A3651FE7464BCBE7484BC9E7454BC7E740
:102EC000454BC5E7464BC3E7464BC1E7464BBFE71B
:102ED000FF231B06BCE7FF231B04B9E7FF231B02EC
:102EE000B6E7FF23B4E73A4BA6E73C4BA4E7394BE0
:102EF000A2E7394BA0E73A4B9EE73A4B9CE73A4BA7
:102F00009AE7FF231B0697E7FF231B0494E7FF23A1
:102F10001B0291E7FF238FE72D4B81E72F4B7FE7C4
:102F20002C4B7DE72C4B7BE72D4B79E72D4B77E73F
:102F30002D4B75E7FF231B0672E7FF231B046FE78A
:102F4000FF231B026CE7FF236AE701235B427FE755
:102F500001235B4270E701235B4261E701235B428F
:102F6000A365C7E6E323E35C0320ED18297A009606
:102F700001398A100B11024003400140201CF2E687
:102F8000E323E35C0321ED182B7C981008405A06DC
:102F900000900B40520F201C311CE4E6E323E35C5D
:102FA0000322ED182B7B981010401911114013408B
:102FB0000090321C201CD6E64CFCFF1FFC76000063
:102FC00000FFFFFF30770000647700009877000073
:102FD000FFFFFF00FF00FFFF0000FFFFFFFF00FFFC
:102FE00000FFFF00FFFF0000FF0000FF70B5054C71
:102FF00004AD06012D7830190573016042608360CD
:1030000070BDC046C8FFFF1F10B5E423CB5C03248E
:103010002340022B15D0032B0FD01278012B06D0A2
:1030200089180A799523DB009200C25410BD8918D3
:103030000A799523DB00D200F7E79523DB006022B5
:10304000F3E79523DB004022EFE7C046F0B55F468B
:1030500056464D464446F0B4714F724E83B0051C3F
:103060000024201C391C0134321CFFF789FB102C72
:10307000F7D16D4C6D49221C0820FFF781FB01261A
:10308000221C6B490920FFF77BFB6A496A4A6B4B9C
:1030900000960520FFF7AAFF694B6A496A4A009625
:1030A0000620FFF7A3FF6949694A0120FFF768FB83
:1030B0006849694A0020FFF763FB6849684A0320B2
:1030C000FFF75EFB6749684A0220FFF759FB674933
:1030D000674A0420FFF754FB6649674A0720FFF759
:1030E0004FFB6649664A0A20FFF74AFB6549664A74
:1030F0000B20FFF745FB6549654A0C20FFF740FBB5
:103100008820602181468C469420982183468A46F7
:103110009C2049466E5080469521A02081468C24F3
:103120006046C9002E5101226854AC21002352424E
:103130008C466827594680206B702B666B66EB6661
:103140006B67AB672B67EA67EB532B506B50B8216B
:103150008B4651466B50BC218A4641466B50C0217C
:10316000884649466B50C4218946A424A8212B5186
:103170006B5061466B50C9218C46B0275946B4202C
:10318000EB512B506B50CC218B4651466B50CD21CF
:103190008A4641466B509021884649466B500A2129
:1031A00000248946C8216C5461466C54CA27D82132
:1031B0008C46EC5551465F46CB202C54EC556C5454
:1031C00047464946E951D027EB516746EA51D42298
:1031D000AB50281D0021182204F0DFF9281C002123
:1031E0001822203004F0D9F9281C002110224C307C
:1031F00004F0D3F9281C002110223C3004F0CDF952
:10320000244F2548254BE0210922EE552C546C54BF
:10321000EA5003B03CBC90469946A246AB46F0BD8E
:103220009D24000099240000F1260000594D000063
:10323000F14300002D4100002D2600002524000050
:103240002924000091420000692600007149000015
:1032500071250000ED4800002D240000C54C000041
:10326000A52400002545000005250000254B000091
:10327000D12500002D4F000019270000015000004B
:103280005924000071500000A1270000B14E000039
:1032900055240000A6040000A7040000AC040000B0
:1032A000F8B54F464646C0B49623DB00C254E62329
:1032B000C95C0123041C19400120414019408A4285
:1032C00026D16822904680229446AC220025914661
:1032D0004246A552624665668821A5508C274A461B
:1032E000A026201CE551B030A5516350A350002109
:1032F000182204F052F9231C0022C833D020D42114
:103300001A705A709A70DA701A715A712550655095
:103310000CBC90469946F8BDF0B5444656465F460B
:103320004D46F0B4E226835D83B0041C88460192CA
:10333000012B00D1C8E0002B00D1AEE0022B52D00F
:10334000032B00D0A6E07F4F0025381C02F080F947
:103350008146381C02F06EF9071C7B4802F078F9B0
:1033600083467A4802F074F98246794802F070F98F
:10337000A35D844659462A1C002905D0FC21681CFF
:103380000322294002408A185146002907D0A9107B
:10339000032201311140F32289002A405218002BE8
:1033A00035D16346002B07D02B1107220133134080
:1033B0008F221B012A40D218AA4208D0E323E35CE3
:1033C00043441A74634B0122E25402F0A1FC4A46C2
:1033D000012A49D0012F37D003B03CBC9046994612
:1033E000A246AB46F0BD5A4F0025381C02F030F91A
:1033F0008146381C02F01EF9071C534802F028F9D8
:103400008346524802F024F982464E48AEE76146B0
:10341000002907D02911032201311140CF220901CF
:103420002A405218AA42D2D0022B72D0032B65D068
:10343000012BC7D1E323E35C43441A73454B0122BC
:10344000E25402F065FCC2E7E223E35CE022A75409
:10345000002B69D0012BBFD1019A019993780322E7
:10346000033313408B70B7E7E322A15CE223013101
:103470000320E35C0140A154012B5CD0002B3AD027
:10348000022B5BD0032B01D1019B1970314B012220
:10349000E2549FE7002500276CE72B4D281C02F023
:1034A000D7F88146281C02F0C5F8E323E35C071C2B
:1034B000434424481D7C02F0CBF88346244802F0A4
:1034C000C7F88246214851E7204D281C02F0C0F879
:1034D0008146281C02F0AEF8E323E35C071C43445A
:1034E00018481D7B02F0B4F88346194802F0B0F882
:1034F000824615483AE7019BD970C7E7E323E35CAE
:10350000013243441A71134B0122E25402F000FCD1
:103510005DE7E323E35C013243441A720D4B012261
:10352000E25402F0F5FB52E701990322CB78033312
:103530001340CB7050E7019A9170A7E7019A517040
:10354000A4E7C04664FCFF1F24FCFF1F50FCFF1FC4
:1035500038FCFF1FA60400003A4B70B5051C181C70
:103560000C1C161C02F074F800281BD1364802F01F
:103570006FF800282DD1354802F06AF8002805D0F0
:10358000E623E25C072101320A40E254304802F0AF
:103590005FF8002805D0E523E25C032101320A40F0
:1035A000E25470BDE0230122EA54E423E35C0322E9
:1035B0001340022B2AD0032B24D03278012B29D0A0
:1035C000A41822799523DB009200EA5402F0A0FBB4
:1035D000E7E7E422A35C032101330B40A354022B51
:1035E0001ED0032B28D03278012B1ED0A2181279BE
:1035F0009523DB009200EA54144802F029F80028D1
:10360000C4D0BDE79523DB006022DEE79523DB0015
:103610004022DAE7A41822799523DB00D200D4E710
:103620009523DB004022EA54E6E7A218127995239D
:10363000DB00D200EA54DFE79523DB006022EA5486
:10364000DAE7C04638FCFF1F64FCFF1F24FCFF1FA5
:1036500050FCFF1F244B70B5041C181C01F0F8FF30
:10366000E02300281CD1E123E35C012B1BD0022BBB
:1036700006D1DC22DD23A15CE25C002001F0C0FF6A
:103680001A4D281C01F0E4FF061E1FD0E123022280
:10369000E254174D281C01F0DBFF061E09D0E12380
:1036A0000122E25470BDDC22DD23A15C0120E25C3A
:1036B000E4E7281C01F0BEFF0028F3D0E123E25C20
:1036C000012AEFD1E65402F037FBEBE7281C01F0AA
:1036D000B1FF0028DDD0E123E25C022AD9D1E65413
:1036E00002F02AFBD5E7C04624FCFF1F38FCFF1F71
:1036F00064FCFF1FF8B5414E041C301C151C01F082
:10370000A7FF071E64D03E4A0123A354E978032093
:1037100001313C4A0140E970A3543B4E301C01F09A
:1037200097FF00283FD0364A0123A354A9780320ED
:103730000131344A0140A970A354344E301C01F0C9
:1037400087FF00282BD02E4A0123A3546978032039
:1037500001312C4A01406970A3542D4E301C01F0F8
:1037600077FF00280AD0264A0123A3542978032092
:103770000131244A01402970A354F8BD301C01F0E6
:1037800059FF0028F9D02E78032303361D491E4027
:103790000120E02304222E706054E254EDE7301C37
:1037A00001F048FFD9E7301C01F044FF0028C4D0E5
:1037B000A87803221349033010400123A8706354F2
:1037C000AE78E027E320E221E25526546354B4E7C3
:1037D000301C01F02FFF00289FD0E8780323094A0E
:1037E000033018400121E870A154E878E026E32175
:1037F000E222A3556054A7548FE7C04624FCFF1F64
:10380000A6040000A704000050FCFF1F38FCFF1FA7
:1038100064FCFF1FF8B59423C358041C9026002BAA
:1038200000DC94E0626E94200025A351DE21255037
:10383000635C002A20DD013A934212DB6266E56F89
:103840006E007119E031611808790F1D904218DA85
:10385000002D09D10A23E3600A2323610A2363614F
:10386000F8BD63661A1CEAE73D4B281CE15CFEF7D5
:10387000FBFC0029F2D1EFE7E56F6E007719E7193D
:10388000E4377619A6196366E036B3793A78DB0730
:10389000DB0FDBB2D9015208CB1AD3181B01682207
:1038A000A35205203056021C643208D16421002343
:1038B000494268222166A3526360A360C8E70C21D5
:1038C0008001FEF77BFCC823DB025843C117490C7B
:1038D0000818C113002001F06BFE00042067B978BE
:1038E0004907890F35D0E36E32256943C01AFEF7C8
:1038F00065FC6067BB785B079B0F5D43A567E56F61
:1039000005216E007319E318E03359569022A2582E
:1039100021669879134B4006000FE1585043FEF79B
:103920004DFC6368002B19DD40420A23606023626E
:103930007619A619E036B379DA070CD5236AA060A8
:10394000636273795BB2643300D081E7AEE7012331
:1039500068E7E066D3E70023A360F2E76060E7E78B
:10396000A4040000AC04000038B59422A4238558B8
:10397000041CC1589820205801350131A550E15050
:103980000122002803D1FA20C00081425EDC2378A6
:103990000133DBB22370D9072DD49521C900DF2371
:1039A000605CE35C002A1BD1C82159430912013134
:1039B00089104143002900DC92E04A48FEF7FEFBF3
:1039C0008C23E258051C013A904266DBE250002A43
:1039D00068DDAC23E358012B64D0002001F014FF14
:1039E000A36F002B36DDE16E626F013B8A18A3677F
:1039F000E266002B2ED06368002B30DD013B0022F5
:103A000063602262A368002B42DD013B0022A360B9
:103A10006262E368002B36DD013B0022E360A262B4
:103A20002369002B25DD013B00222361E2626369EB
:103A3000002B19DD013B002263612263A369002B87
:103A40001CDD013B0022A361626338BD26490022D0
:103A5000E1509CE7236FE3666368002BCEDC226AAB
:103A6000002A2EDD013ACCE7226B002A35DD013A2F
:103A7000E3E7E26A002A2ADD013AD7E7626B002A0F
:103A800022DD013AE0E7A26A002A17DD013AC6E723
:103A9000626A002A1EDD013ABAE7E050AC23E3581F
:103AA000012B9AD1012001F0AFFE8C23AC22002122
:103AB000A150E550A36F002B95DCCBE75B42E360A0
:103AC000AEE75B4263609DE75B42A361BDE75B429B
:103AD0002361ACE75B42A3609BE75B426361ADE7B8
:103AE00001216AE760EA0000B80B0000F0B5474624
:103AF00080B4041C012B04D00023A36104BC9046B5
:103B0000F0BDE620085C850714D40A23A361E423F2
:103B1000CB5C03200340022B1ED0032B7ED0012B55
:103B200075D01278952389180979DB008900C9B20C
:103B3000E15416E01840012696257040ED00034040
:103B4000655DDBB29D42D7D00A23A361E423CB5C41
:103B500003200340022BE0D19523DB004022E254F6
:103B60004021A023E5588D422EDA2F4A8023A05C05
:103B7000E75880002D4B47436843E65CFEF71EFB89
:103B8000311CC019FEF770FB882023588422A150F5
:103B9000012B31D0E36F8B420CD1AC23E358012BC6
:103BA00008D09C23E15801310135A0229C23A55067
:103BB000E150A3E7E16701F001FEA023E5580022F0
:103BC000AC23E2500121EFE7174D8022A058675D3A
:103BD00001303D1C4543154EAC460025A8466546C0
:103BE000A65DAD00AC464546A050E550B44509DAA7
:103BF000BF0047430020C1E70021AC262150A1505F
:103C0000A351C7E7A550002000250027B6E712788A
:103C1000952389180979DB00C90088E79523DB0023
:103C20006022E25460219CE7A4040000A504000087
:103C3000F0B5454657464E46E0B4041CDF20255CEF
:103C400069481E1C9823E65088462B02171C052540
:103C500083420DD9654A0425934209D9644A032554
:103C6000934205D9634A02259A429B415B42ED1A71
:103C7000D823E258AA4206D02A1C2C3292001159AD
:103C8000A022E550A150E623FB5C01229B08534093
:103C900013409E424ED0D423E258291C101C90465B
:103CA000FEF7E2FA002956D040460130291CFEF703
:103CB000DBFAD423E150E623FB5C01229B0853404E
:103CC00013409E4207D0A4230022E2501CBC904621
:103CD0009946A246F0BDC923E25C0132D2B2E25459
:103CE000012A50D0CA23E25C0132D2B2E254022A45
:103CF0005BD0CB23E25C0132D2B2E254032A66D01D
:103D0000CC23E25C0132D2B2E254042A2FD0CD237C
:103D1000E25C0132D2B2E254052AD4D1C425952204
:103D20006059D200A15C00220130E254FEF79CFAF7
:103D30006151C8E7D0229246A258291C101C914616
:103D4000FEF792FA002908D048460130291CFEF7F8
:103D50008BFAD023AEE7A161A6E742460123201CDF
:103D6000391CFFF7C3FE5346E2589146ECE7C025E5
:103D700095226059D200A15C00220130E254FEF786
:103D800073FA6151C3E7B42595226059D200A15C52
:103D90000022E2540130FEF767FACA236151E25C67
:103DA0000132D2B2E254022AA3D1B8259522605939
:103DB000D200A15C0022E2540130FEF755FACB2379
:103DC0006151E25C0132D2B2E254032A98D1BC259F
:103DD00095226059D200A15C00220130E254FEF726
:103DE00043FA61518CE7C046333300006666000039
:103DF00099990000CCCC000030B541788578C47822
:103E0000027803231C4019401A402B40C4704170B3
:103E10000270837030BDC046F0B55F4656464D46D1
:103E20004446F0B4322502230022AB4601248C70B4
:103E3000CB700B704A70312659468174B246E62128
:103E400039258B4651460174A9463426E521B046F2
:103E500005258A4649464174AC464146C174102640
:103E6000202561460371C17104238672C572032443
:103E70005E4683B00827E42551464471477201909D
:103E8000445583710372012483554254031C10224C
:103E900007260B2082460020187502209875032003
:103EA000D87504201876082505205876AC460620DB
:103EB00098761D1C604618772035504609270A2140
:103EC000D8775C75DE765F7799772C700225A946E6
:103ED00003200525013AAB460D3380460725002A0D
:103EE000D7D10198012646734E4686734646C6735F
:103EF0004E464675042686755E46C675BD235646F3
:103F000002730275867605764776BE24C254434610
:103F100003555B46BF240355C026C1238555C924DC
:103F2000C1545B4603552026622385556324C25441
:103F300004230355642653466524855503550423FD
:103F40006E24035521264B462224825503554346B1
:103F50002324035524265B4683552523C554262454
:103F60006346035527262D2381556F24C55470269B
:103F70004346025583557123C55472247B2604237E
:103F8000015583554823C25449244B4603554A26BC
:103F90005B4683554B23C5544C245B46542607553A
:103FA00083553B23C2543C24434603553D265C467F
:103FB00084553E230624C4543F23C554402647233A
:103FC0008155C4542F264B462E2402558355302448
:103FD00043460355062331240355322633238555A2
:103FE0003424C7543A265523015585555624C254C6
:103FF0000123035557264C46845558234446C45440
:1040000004245923C4545A265B4683555B24062353
:1040100003555D2663465C24055583555E23C754CE
:104020005F2453466026015583550C246123C454F4
:104030007C264B467D24825503555B467E240355E2
:104040007F2680248555015589268824035582556D
:1040500001248A2684558B230426C6548D245E466B
:104060008C23C65405558E236446C4548F240155B1
:10407000952696248555972302550124C454444619
:104080009823C45499265B4683559A2406230355E6
:1040900063469B2403559C24A2230155A326C554A3
:1040A000A4244B46825503554346A5240355A62117
:1040B0005C4644540623A7214354A8246146015575
:1040C000A9265446AA238755C454AF23C154B62108
:1040D0008C46B02142544946B12281544146B22215
:1040E0008154B426B5245946B3228154BC23855546
:1040F0006246075554468454C55403B03CBC9046B0
:104100009946A246AB46F0BD08B5FFF785FE08BD4F
:10411000837878229343202213430C224270F822A2
:1041200013408370FF2303707047C046F0B55F46AD
:10413000564644464D46F0B483B00E9D88468346AD
:10414000281C161C1F1C0C9CFFF7E2FF424613782C
:104150000D98F3181979FEF787F88A46002966D07A
:10416000607AC007C00FC0B2012800D17FE0201CD8
:104170002021FEF7C3F8002803D0AA7801231343B7
:10418000AB70201C8021FEF7B9F8002840D1201C1C
:10419000D021FEF7B3F8002821D064235B420193BD
:1041A000002300934246331C59466846FEF7B2F896
:1041B0006870381CFEF796F80222A35E0D9A40083C
:1041C0009F18C0B20023002F00D17F231B182B7033
:1041D00003B03CBC90469946A246AB46F0BD534660
:1041E0005A00237A0090D318201C0193FEF77AF826
:1041F0000321FDF7D9FF4A008A1852000F23043229
:104200001A40AB787821D2008B431343AB70C9E7D7
:10421000201CFEF767F80321FDF7C6FF03231940B2
:104220004B00A978062291431943A970AFE7AA78F9
:1042300001231343AB70201C6168FEF743F8381C60
:104240002021FEF75BF800281AD1381CF021FEF778
:1042500055F8002800D183E7381CFEF743F8627A4E
:1042600001239A431840131C034363727CE74246C0
:1042700013785246F3181B799B1A013B9A4676E74E
:10428000381CFEF721F80321FDF7EEFF2172DCE771
:10429000F0B556464D465F464446F0B485B0109D95
:1042A0008346281C01930E9C8A469146FFF730FFF7
:1042B00000230293267B002E3FD1E37B677B984649
:1042C0009F4244D0381C4146FDF76EFFA37BC9B224
:1042D000002B02D04346591A013900230293A37AD6
:1042E00001375943637A6773C9180391E37A2373DB
:1042F000002B13D19E192673594652464B4602A8ED
:10430000FEF708F86870201CFDF7ECFF287005B078
:104310003CBC90469946A246AB46F0BD01335A00DC
:104320009B185B00023B0F221A40AB787821D20029
:104330008B431343AB70237BDCE7013E2673AB78E2
:1043400001229343AB7064235B420393D4E7237A47
:104350006673013B2372AA7801231343AB70019863
:10436000C821FDF7CBFF061E0AD1237A002B10D0FF
:10437000201C6168FDF7A6FFE37B677B9846A1E7F9
:104380000198FDF7A1FF0321FDF76EFF4E1CF6B269
:10439000EBE70198FDF798FF60600198FDF794FF47
:1043A0000321FDF761FF0231A1720198FDF78CFF37
:1043B0000521FDF759FF01986172FDF785FF032381
:1043C00018400130400020720198FDF791FF00284D
:1043D000CED00198FDF78CFF0023002801D1A373F4
:1043E000C6E70198FDF784FF031CA373C0E7C0462E
:1043F000F0B557464E464546E0B482B00C9C1D1CB5
:1044000080460023201C8946924600930193FFF7C3
:104410007FFE281CFDF758FFC7177F0FC01907261E
:104420000640F61B072E06D83C4AB300D3589F46D9
:10443000002301930093A378D9070CD5072E0AD83F
:10444000374BB6009B599F460123019300230093ED
:10445000A378DA0757D4009B01330B9A062A0FDCA6
:104460000A9900228A5E002A02D1019A0132019241
:104470000A9902228A5E002A02D1019A023A019226
:10448000281C0093FDF72EFF2070281CFDF730FF3D
:1044900001252B1C0340A0784146A8431843A07077
:1044A0004A4668465346FDF735FF607002B01CBCB3
:1044B00090469946A246F0BD00230193A378DA07FF
:1044C00001D5012301930223C7E700230193A378B9
:1044D000D9071BD40023C0E702230193A378DA078E
:1044E000EFD40123B9E704230193A378D907F8D5C2
:1044F00001235B4201930123AFE701230193009362
:10450000A378DA07A7D500230193DCE70023019302
:10451000F1E701235B420193D5E7C046CC77000069
:10452000EC770000F0B55F4656464D464446F0B481
:1045300087B0129D109C8346281C029103921E1C7A
:10454000FFF7E6FD6778002F59D014235B427B43C9
:104550006433DBB2019364235B420593002304932D
:1045600084223223013F04A912199946D84B67705F
:10457000884692460027E3802772039B40465946AF
:10458000029AFDF7C7FE68706378002B57D1301C84
:104590004946FDF7B3FE002815D0301CFDF794FE08
:1045A000C217920F8018032303409B1A01335A004D
:1045B0009A1852000F23023A1A40AB787821D200A1
:1045C0008B431343AB705046FDF77EFEC3179B0F22
:1045D000019A18188010101828704946301CFDF7F1
:1045E0008DFE01231A1C0240A87898431043A8703E
:1045F00007B03CBC90469946A246AB46F0BD237836
:104600000F2B40D0842109198A46301C6421FDF704
:1046100075FE002853D1301C6421FDF76FFE002881
:1046200045D1301C6421FDF769FE002837D123787D
:104630000D2B00D91BE1A74A9B00D3589F465A0077
:104640009A1852000F23023A1A40AB787821D20010
:104650008B431343AB709AE7301CFDF735FEC30F55
:104660000122C0181040C31AE318DB7804922278A4
:1046700004A901322270322288460593914601270F
:104680006421019177E784221219101C9246FDF7EC
:104690001BFE0721FDF7E8FD49002170B5E7301C3E
:1046A000FDF712FE0521FDF7DFFD2171BFE7301C8C
:1046B000FDF70AFE0721FDF7D7FDE170B1E7301CD9
:1046C000FDF702FE0321FDF7CFFDA170A3E79623BE
:1046D0009946A37804A9059350460023884604937D
:1046E000FDF706FE002800D0D4E004990F234246CF
:1046F0002370CFB29388642201923CE796239946B7
:104700005046FDF7F5FD002800D0CDE00F232370C3
:10471000A378002204A90492884605936422EBE75B
:1047200032218946ECE7A37804AA0593504600237A
:1047300090460493FDF7DCFD002800D0CCE00F2369
:104740004146049A23708B889621D7B28946642209
:10475000D2E7A378002204A904920B222270884693
:104760000593322291468BE70022A3780492072218
:1047700004A92270962288460593914680E7301C52
:10478000FDF7A2FDC30FC01801273840C31AE31874
:10479000DB7804AA9046059304975046FDF7A8FDE0
:1047A00000286ED10F234146049A23708B88322152
:1047B000D7B28946CBE732238AE7A37804AA0593C8
:1047C000301C002390460493FDF77EFD0321FDF786
:1047D0004BFDAB78013103220A40062152008B4386
:1047E0001343AB705046FDF783FD0028DAD05046E6
:1047F000FDF76AFDC30FC01801221040C31A637091
:10480000D0E704AB98460621635E42465360237AA4
:1048100050460493FDF76CFD00284FD1049A0F23F6
:1048200041462370D7B28B880022322189460192FB
:10483000A1E6301CFDF748FDC30FC0180127384022
:10484000C31AE318DB7804AA301C9046059304973A
:10485000FDF73AFD0321FDF707FDAB780131032297
:104860000A40062152008B431343AB7095E7E3885F
:1048700004A91AB20592277A884604979BB232227D
:1048800070E75046FDF720FDC30FC0180740FB1A24
:10489000637087E75046FDF717FDC30FC01801226C
:1048A0001040C31A637020E75046FDF70DFDC30F9B
:1048B000C01801221040C31A637027E75046FDF765
:1048C00003FDC30FC01801221040C31A6370A5E78F
:1048D0009CFF00000C7800005046FDF7F5FCC30F6C
:1048E000C01801221040C31A637028E7F0B54E4685
:1048F00045465746E0B482B00C9C0A9D8246201C77
:1049000089469046FFF704FC2E78002E29D0012E10
:104910001FD06B7803221A40A378062152008B43E4
:104920001343A37051464A4643466846FDF7F2FCDE
:10493000A1786070AA78012399431A400B1C134395
:10494000A370EB78237002B01CBC90469946A24637
:10495000F0BDAB881AB20192013300220092AB8005
:10496000D7E70B9805210196FDF77EFC0091D0E773
:10497000F0B556464D4644465F46F0B485B0109CAF
:104980000E9E8246201C894690461D1CFFF7C0FBE8
:104990000222B05E0F9B0321C018FDF765FC0129C0
:1049A00000D187E0022900D172E0002944D0FF2223
:1049B00001923223002264269B46009202AF5146A8
:1049C000381C4A464346FDF7A5FC59466070281C32
:1049D000FDF794FC002844D1281CFDF775FCC30F9B
:1049E0001818009B40101818311C2070281CFDF767
:1049F00085FC0126331C0340A0780199B04318437D
:104A0000A070281CFDF77AFC00280ED0281CFDF7AA
:104A10005BFCC30FC0180640F31A03261E40A378A0
:104A20000622760093433343A37005B03CBC904606
:104A30009946A246AB46F0BD371C8437381CFDF7BB
:104A400057FC012847D00422B35E02AF7B600023ED
:104A50000293FF230193322200236426934600939E
:104A6000ADE7281CFDF730FCC217920F8018032316
:104A700003409B1A01335A009A1852000F23023A3E
:104A80001A40A3787821D2008B431343A370A3E785
:104A90000022B35E02AF281C7B600291FDF728FC68
:104AA00001282AD0C0220192B1237F22E3269B460F
:104AB000009284E70422B35E02AF281C7B6002915F
:104AC000FDF716FC0128C4D1281CFDF7FDFB0723C8
:104AD00018407080BDE7381CFDF70AFC0128B2D1F0
:104AE000381CFDF7F1FB15231840B080062812DDB5
:104AF0000B3880B203B2B080A7E7281CFDF7E4FBB7
:104B0000C0230006400F0193B1227F2330809346DB
:104B1000E326009353E7024804235B42B08094E706
:104B2000FCFF0000F0B55F4656464D464446F0B4E3
:104B300083B00E9D0C9C061C281C1F1C8B469246A5
:104B4000FFF7E6FA21686268381C8B18A168E268F2
:104B500023608B18A360DD23F15CFDF7CFFBDC2322
:104B60008146F15C00282FD0A06800F091FD012360
:104B70000093237CC0160190D90733D5227C0123F2
:104B800013435A46311C237468465346FDF7C2FB53
:104B90006870201C8430FDF797FBC3179B0F181813
:104BA000801028703221381CFDF7A8FB01231A1C45
:104BB0000240A87898431043A87003B03CBC9046CC
:104BC0009946A246AB46F0BD206800F061FD237C0B
:104BD000C0164A4601900092D90718D4237C0122BE
:104BE0009343CEE7381CC821FDF788FB0028C5D0C9
:104BF000381CFDF769FB0321FDF736FB0323194041
:104C00004B00A978062291431943A970B6E7381CD6
:104C1000C821FDF773FB0028E0D0381CFDF754FBDA
:104C20000321FDF721FB032319404B00A97806223D
:104C300091431943A970D1E738B5041C0D1C081C19
:104C40003221FDF75BFB002815D0281CFDF73CFB4B
:104C50001B4B034004D50422013B52421343013352
:104C6000013306225A430F21023AA3780A407821E1
:104C7000D2008B4303E0A37878229343202213438E
:104C8000A370281CFDF734FB002814D0281CFDF766
:104C90002FFB00280FD0281CFDF716FB0321FDF782
:104CA000E3FA03224B1CA178134006225B009143D8
:104CB0001943A17003E0A37806229343A37038BD83
:104CC00003000080F0B557464E464546E0B482B03A
:104CD0000C9C1D1C8246201C0A9E90468946FFF7AC
:104CE00017FA281CFDF704FB73880022B15E1AB284
:104CF000C9008918421E50424241480080183018AD
:104D0000077933807780281C0197FDF7F1FA291C79
:104D10000090201CFFF790FF4A46434651466846E4
:104D2000FDF7F8FA64216070281CFDF7E7FA01230B
:104D30001A1C0240A07898431043A070281CFDF76D
:104D4000C3FAC30F181840102830207002B01CBCE2
:104D500090469946A246F0BDF0B54F464646C0B4CF
:104D600085B00E9E0C1C8146301C1F1C151CFFF7C5
:104D7000CFF9A37803211940884602295AD0032984
:104D80004CD001291FD00C9B029600930D9B4846E6
:104D90000193211C2A1C3B1CFDF780FD73781833FE
:104DA000DBB27370381CFDF78FFAC3179B0F18180E
:104DB00080103070391C301CFFF73EFF05B00CBC72
:104DC00090469946F0BD381CFDF78CFA3070381CBF
:104DD000FDF77AFA334B324A4004400C0021FDF7CC
:104DE0004FFA0025C40F4A0A002312196B411A43D7
:104DF000141C621E9441B27843469A431443B47023
:104E0000381CFDF761FA4004400F03283CD0072806
:104E100038D00C230128C4D01823C2E70C9B02967B
:104E200000930D9B48460193211C2A1C3B1CFDF757
:104E3000ADFDB3E7381CFDF755FA3070381CFDF7AF
:104E400043FA184B164A4004400C0021FDF718FAAB
:104E500000254C0AC20F002312196B411A43141C7F
:104E6000621E9441B27801239A431443B470381CF3
:104E7000FDF72AFA4004400F0728CDD80A4B8000DE
:104E80001B589F4624238CE725238AE7222388E7A3
:104E9000272386E71B2384E7162382E7C046C04604
:104EA000F11976050000000044780000C046C046B5
:104EB000F0B5474680B482B00A9C1D1C8046201C79
:104EC000161C0F1CFFF724F9291C201CFFF7B4FE49
:104ED000281CFDF7F9F9BB780F22F3181B7B134050
:104EE0005A00D2189200D318F3181833197A4900CF
:104EF000FDF7BAF900233A1C019100934146331C97
:104F00006846FDF707FA6070281CFDF7DDF9207090
:104F1000281CFDF7EDF901231A1C0240A0789843E4
:104F20001043A07002B004BC9046F0BDF0B55F46DF
:104F300056464D464446F0B485B0109D0E9C071C65
:104F4000281C8B4601921E1CFFF7E2F8616822685C
:104F50008B18A16823609B0F8B424FD0A360301C3D
:104F6000FDF7B2F98002E06022696369801A64216A
:104F70009A469046FDF722F95246801A64239946D4
:104F80005843DC23F95C19318900FDF717F94A46CB
:104F90005044606150434044C3172061C0185840DA
:104FA0008015002303900293391C5A46019B02A8E6
:104FB000FDF7B0F9AB7806229343AB70311C6870F3
:104FC000281CFFF739FE201C8430FDF77DF9C3173C
:104FD0009B0F1818801028703221301CFDF78EF9B5
:104FE00001231A1C0240A87898431043A87005B00A
:104FF0003CBC90469946A246AB46F0BDE068B3E79C
:10500000F0B557464E464546E0B482B00C9C0A9D2A
:105010008246201C894690461E1CFFF779F86B7962
:10502000301C019300230093FDF74EF92070301CD3
:10503000FDF75EF901273B1C0340A0784A46B843C0
:105040001843A070434651466846FDF763F9311C8A
:105050006070201CFFF7F0FD687929790130FDF7B9
:1050600003F9697102B01CBC90469946A246F0BD96
:10507000F0B54F464646C0B483B00C9D0A9C061C52
:10508000281C1F1C89469046FFF742F86079217959
:105090000130FDF7E9F8194BC8B26071F35C834247
:1050A00001D800236371201CDC218430FDF726F930
:1050B0006379021CE418A379501E824132332B70AD
:1050C000381C002300920193FDF712F90124AA78FD
:1050D000231C0340101CA0431843391CA870281C33
:1050E000FFF7AAFD6846311C4A464346FDF712F910
:1050F000687003B00CBC90469946F0BDA404000053
:10510000F0B556464D4644465F46F0B48FB00B7836
:1051100007910692069CD3184A781B79A218127A36
:1051200082465A43C84B0992C2540B780621E318B1
:105130001A79C64BC254031CDC331A7801331B782E
:10514000101C08401940D508DC0840104910002800
:1051500009D096090F36324003267243BC4EB2186E
:105160001018013800780A90002909D09A090F32E6
:10517000134003225343B64AD3185918013909780A
:1051800064012C19B34D0B91281C211CFDF79AF8D2
:10519000281D611CFDF796F8281C211C08302031C1
:1051A000FDF790F8281C211C21310C30FDF78AF8FE
:1051B000079D069EEB780122F3181B7C0F25190929
:1051C00011400C91590911401D409B090D91A249B4
:1051D000134203D0092357467B5002E00323504675
:1051E00043509E4B9B492D0122229D4FED180024D8
:1051F0008B46904642466243D21900925E46A319FE
:1052000050460799069A6E680434B047102CF1D1C5
:105210005446E434231CAE6850460799069AB047BA
:105220002B7B0026012B03D00627B946A84654E164
:10523000059603278B4EBB46059F0998874200DBE6
:105240004EE1882100278846A1464246814C7A4398
:10525000BB001B19824C50461219009203227A435C
:10526000059C9219029201940799069A2C680137BD
:10527000A047042FE9D1059F58460A990740F940F5
:1052800001234C460897784A194232D0B178CF07AB
:10529000FF0F381C1840844690785F46984380463C
:1052A00070785070307810704808384098408146C7
:1052B00067464046074306208743B846C9080F277C
:1052C0003940CF008446494640460843804641461F
:1052D000782081430F43317A9770CF07634AFF0FDD
:1052E0001F40B84697789F43F379B9465370B37916
:1052F00031E07179CF07FF0F381C18408446907851
:105300005F469843804630795070F07810704808B6
:1053100038404000814667464046074306208743A1
:10532000B846C9080F273940CF0084464946404651
:10533000084380464146782081430F43F17A9770B5
:10534000CF074A4AFF0F1F40B84697789F43B37A6A
:10535000B9465370737A13705F464B083B405B004D
:10536000474604934B463B436746BB439846C908B0
:105370000F27049B0F4041460B43FF0083433B43F1
:105380009370089A0B9BA178D340012213420FD04F
:10539000354B914398780327C007C00F0143A17094
:1053A0005A7862701A7822709978490839400EE06C
:1053B0002E4B91439878C007C00F0143A1705A78D3
:1053C000032062701A782270997849080140A27807
:1053D0000620490082430A43A2709A7878231A4033
:1053E000A37878218B430C9F1343A370002F03D124
:1053F000A37806229343A3700D9F002F05D1A378B5
:105400007822934320221343A370069BE5331B7835
:105410009846002B12D00127E7570C21381CFCF7C7
:10542000CDFE414640B2FCF71FFF0C235943381C08
:105430008846191CFCF718FF41446170059F03342E
:1054400001370597F8E6C046A5040000A404000053
:1054500064780000B8FFFF1FAC040000C8FFFF1F06
:1054600094FDFF1F88FDFF1FB4FFFF1FC800002031
:105470001F4D019600950294474650460799069A9B
:105480005B463F68B8470C9D002D03D1A3784F467B
:10549000BB43A3700D9D002D05D1A37878229343C3
:1054A00020221343A370069BE5331D78002D12D0F4
:1054B0000127E7570C21381CFCF780FE291C40B25D
:1054C000FCF7D2FE0C231D1C4D43381C191CFCF7A5
:1054D000CBFE6D18657001360334099FBE42C7DBF1
:1054E0000FB03CBC90469946A246AB46F0BDC046C4
:1054F00094FDFF1FF0B5474680B4E023C35C041C55
:105500000F1C9046022B3BD030D9032B21D0042B0B
:1055100001D1FEF721F8DD23E55C1B4EDC23E25CC4
:105520002D02336855199D4225D0184B0022E254B4
:105530001748291CFCF7C6FE201C41463A1CFFF701
:10554000DFFD3560134D635D012B05D004BC904633
:10555000F0BDFDF7E1FEDEE70F4E3368092BF5DD08
:1055600000F0C4FB002363553360EFE7012BD2D179
:10557000FEF7C0F8CFE7054BE35C012BE2D1D4E79F
:10558000FEF768F8C7E7C04600FCFF1FA60400004E
:10559000CC000020A70400004CFCFF1F08B5002031
:1055A00001F054FA014B01221A7008BD04FCFF1FE0
:1055B00070B50630104B82009A180224155F002641
:1055C000945FA54205DBC824A400548096242401DE
:1055D0001480820098180225445F084E985E89194D
:1055E000001B4843C821C900FCF7E8FD0019C3436C
:1055F000DB17184080B270BD88060020E0FCFFFF7A
:10560000803910B5CC17A40F094B61180630C82497
:105610008000A40089100919803A1C186180D117F4
:10562000890F8A189621090192105218C25210BD92
:1056300088060020054AC1680023914203DD01234A
:105640005B42C3600123181C7047C046CF070000AF
:10565000027A00231107090F012903D10F239A436E
:1056600002720123181C704700238360C36003612A
:105670007047C046002804DBC0231B06C01840103A
:105680007047024B181A4010FAE7C046FFFFFFBFF1
:1056900030B5214C430C1A199204921452431F4CFA
:1056A000121354431E4DA4132C1B62438024121466
:1056B000640185B05B04A21A002B00DA5242520446
:1056C00083100092019300281EDBC0231B06C01824
:1056D0004010144B029003934B005918CBB25A1E42
:1056E000D2B2FD2A01D80133DBB2091289006C461F
:1056F0006258FF201212C01A504301AA52581212C7
:105700005343C01805B030BD074B181A4010E023B2
:1057100002901B06DFE7C04600E0FFFFBC0D000063
:10572000BC4D0000FFFFFF1FFFFFFFBFF0B5474666
:1057300080B41E4E1E4C3378206A1033337001F053
:1057400065FC1C4D2B1F2F1C984618370AE001F0F2
:10575000A3F9A06A01F000F80435A06A01F002F88C
:10576000BD4206D02B68606A002BF0DC01F09AF98C
:10577000EFE74746104D4C370AE001F093F9A06A75
:1057800000F0EAFF0135A06A00F0ECFFBD4207D04F
:105790002A783378606A9A42EFD801F07DF9EEE713
:1057A000206A01F039FC04BC9046F0BD7CFCFF1F70
:1057B000F4FCFF1FDC0000201401002008B50348A2
:1057C0000349FEF727F8FFF7B1FF08BDD800002016
:1057D000D000002008B5021C02490348FDF760FD17
:1057E00008BDC0469C050020D800002008B503492C
:1057F000031C034A0348FEF71BFA08BDD000002033
:105800009C050020D800002008B50349031C034A6A
:105810000348FEF76BF908BD9C050020D00000206E
:10582000D8000020F0B5CA4B47461A6880B4013250
:1058300000201A6001F068FDC64B1A68002800D1EC
:105840007FE001321A60012A00DC7FE01E2A00DDC1
:105850009DE05D68002D00DCA2E0D968002900DA37
:105860007FE01E68BC4A0131D9601E61914202DDB1
:10587000FA22D200DA60002001F092FDB74B1A68DC
:10588000002800D176E001321A60012A00DC76E0BF
:105890001E2A00DCE5E018691E2800D1E6E11F227F
:1058A0001A6000225A601F220021D9601A6100206C
:1058B00001F050FDAA4B1A68002800D1B0E0013277
:1058C0001A60012A00DCB0E01E2A00DCB5E01E6987
:1058D0001E2E00D1BCE11F221A6000225A601F2236
:1058E0000021D9601A61002001F082FD9D4B1A68E9
:1058F000002800D187E001321A60012A00DC87E02D
:105900001E2A00DCC1E01A691E2A00D199E11F227B
:105910001A6000225A601F220021D9601A61924C3D
:10592000E023E35C022B00D1C8E0022B3CD8012B22
:105930003CD02378DF075FD5FFF7F8FE04BC904624
:10594000F0BD013A1A60012A00DD7FE718690228DC
:1059500000D153E1D96801221A605A60002900DBA6
:105960007FE71A61002001F01BFD7C4B1A680028BC
:1059700000D088E7013A1A60012A00DD88E71F6934
:10598000022F00D12CE101221A605A606DE01969E2
:105990001E2900D163E11F221A6000225A601F22D3
:1059A0000021D9601A61DDE7042BC2D86F4D201C9D
:1059B000291CFDF7D9FF237801261E4000D1FAE00B
:1059C0006B4D6823E65A2B78002BB5D036050020A6
:1059D00001F036F8330DC026B6011E436549330A7F
:1059E0000B704E7000232B70634B0222186801F07D
:1059F000E7FB2378DF079FD45C4D201C5F492A1CFE
:105A0000FDF72AF998E7013A1A60012A00DD77E7E5
:105A10001969022900D1F8E001221A605A6038E0C1
:105A2000013A1A60012A00DD4EE71D69022D00D1FE
:105A3000DDE001221A605A6003E05F68002F00DC9D
:105A40004EE7D968002900DA4CE71868424A01316C
:105A5000D9601861914200DC45E7FA22D200DA6091
:105A600041E75968002900DC1EE7D968002900DAFF
:105A70001CE71A6801311A61374AD960914200DC8B
:105A800015E7FA22D200DA6011E75D68002D00DC2C
:105A900042E7D968002900DA40E71E682E4A013142
:105AA000D9601E61914200DC39E7FA22D2002E4C07
:105AB000DA60E023E35C022B00D036E7E123E35C0D
:105AC000581E42425041DE22A25C632A5AD8063058
:105AD0002B4982008A180225565F0027D55FAE4207
:105AE00005DBC825AD00558096252D011580800069
:105AF000091802200A5ED543ED17154022780132BD
:105B0000D2B22270012B00D198E0023B59424B41A6
:105B10005B4200271D400126164000D07CE0144F58
:105B20003B78002B00D167E72D05002000F088FFAF
:105B30002B0DB0252D021D430E492B0A0B704D7005
:105B40000D4B022218683E7001F03AFBF1E6C046A8
:105B50004CFCFF1F24FCFF1FCF07000050FCFF1F61
:105B600038FCFF1F64FCFF1FD8000020D00000207D
:105B700004FCFF1FD4000020F4FCFF1F9C05002044
:105B8000880600209C2A78D90630554982008A1858
:105B90000225565F0027D55FAE4205DBC825AD0064
:105BA000558096252D01158080000D5EEA43D217A1
:105BB00015402278A3E7E76EB8464A4F3B78002BA2
:105BC00000D11AE7002000F03BFF40460201B0235D
:105BD000120D1B02134344491A0A0A704B70AFE7B7
:105BE0001A7A0F218A4301210A431A72CBE61A7AE4
:105BF0000F218A4301210A431A721AE71A7A0F21E8
:105C00008A4301210A431A72A4E61A7A0F218A43B1
:105C100001210A431A72FFE6324D2B78002B00D186
:105C20008AE63F05002000F00BFF3B0DC027BF01B7
:105C30001F432D493B0A0B704F70D3E62F1C0025E4
:105C400069E71A7A0F210A4010210A431A725EE6A8
:105C50001A7A0F210A4010210A431A723BE61A7A77
:105C60000F210A4010210A431A7294E61A7A0F2172
:105C70000A4010210A431A7211E622780630D5062E
:105C800017D5174985004D190227EE5FB04600274A
:105C9000EE5FB04505DBC826B6006E80962636015D
:105CA0002E80800009180220095ECD43ED170D40BB
:105CB00025E70B4985004D190227EE5FB046002706
:105CC000EE5FB04505DBC826B6006E80962636012D
:105CD0002E8080000D5EE943C9170D400FE7C046D6
:105CE0008806002004FCFF1FD400002038B50420E3
:105CF000152100F0DDFE054D0024601D295D80B2F8
:105D0000013400F0D5FE042CF7D138BDD0000020BE
:105D1000802038B54000152100F0CAFE054D002452
:105D2000A01CFF30295D80B2013400F0C1FEE82CD8
:105D3000F6D138BD9C050020802038B580001321A5
:105D400000F0B6FE054D0024054B295DE01880B239
:105D5000013400F0ADFE202CF6D138BD88060020BD
:105D60000102000070B5802082B000236A46400026
:105D70006946137000F0C8FE6A461378152B11D0DF
:105D800080204000152100F093FE0F4D0024A01C40
:105D9000FF30295D80B2013400F08AFEE82CF6D194
:105DA00002B070BD084D00240026A01CFF306B46D9
:105DB00080B269461E7000F0A7FE6A4613782B5524
:105DC0000134E82CF1D1EBE79C05002070B582B0DE
:105DD00000236846037080206946800000F094FE2E
:105DE00069460B78132B11D080208000132100F01E
:105DF0005FFE254D0024254A295DA01880B201349C
:105E000000F056FE202CF6D102B070BD1E4D0024CD
:105E100000261E4B6A46E01880B26946167000F0F4
:105E200073FE684603782B550134202CF1D11A21DA
:105E30006A5E18202B5E00219A4206DBC8239B0075
:105E40006B8396231B012B8301211E23EA5E1C20FA
:105E50002B5E9A4215DBC8239B00EB8396231B0124
:105E6000AB8380208000132100F022FE002407492C
:105E7000601880B2295D013400F01AFE202CF6D1A2
:105E8000C2E70029C0D0ECE788060020010200002C
:105E900070B582B000236A4604206946137000F092
:105EA00033FE6A461378152B0FD00420152100F01D
:105EB000FFFD104D0024601D295D80B2013400F00B
:105EC000F7FD042CF7D102B070BD0A4D0024002666
:105ED000601D6B4680B269461E7000F015FE6A4672
:105EE00013782B550134042CF2D1281CFDF784FFC4
:105EF000E9E7C046D000002070B51C4D1C49061CC7
:105F0000281CFDF789FF80204000152100F0D0FDFE
:105F10000024A01CFF30295D80B2013400F0C8FDD0
:105F2000E82CF6D1012E00D070BD124D80235B0409
:105F30002B606B60AB60EB602B616B61C8229623BA
:105F400092001B0180206A832B83EA83AB8380004D
:105F5000132100F0ADFD0024074B295DE01880B24D
:105F6000013400F0A5FD202CF6D1DDE79C050020D2
:105F7000D00000208806002001020000F0B54D4648
:105F800044465F465646F0B485B000F0A9FC504C3C
:105F90006D46201CFDF75AF84E4E4F4F301C391CF1
:105FA000FEF7B2F84D4B4E481968FCF78BF94D4B94
:105FB000802252041A605A609A60DA601A615A614B
:105FC000C82196228900120159831A83D9839A83A2
:105FD000FFF75EFFFFF7C6FEFFF7F8FE201C311C3F
:105FE0003A1CFDF711F8391C321C201CFFF788F809
:105FF0003D4B0F35986801F089FA002000F000F958
:106000003A496846102201F0BFFA01204042684434
:10601000FF21814688462B784246E31848331A719F
:10602000FFF784FB013D462001F096FA4D45F2D181
:106030000025E56425656565A565FFF777FB2C49B7
:106040000123E022A354C8682A4B984232DD012381
:106050005B42CB600223A354E123E554264900228E
:10606000DC23DD20254D884693469A46814604E090
:10607000201C311C3A1CFFF73DFA2B68012BF7D18D
:1060800059464246296012684146496813125046F3
:1060900023544A460B12A35443469B684046C068AB
:1060A0001A12DE23E2540212DF230020E25400F031
:1060B000A7F8DDE7124AD168994205DD01235B426A
:1060C0000120D360FFF718FF0122E023E254C5E767
:1060D000D80000209C050020D000002000FCFF1FFD
:1060E000CC00002088060020F4FCFF1FBC750000D7
:1060F00050FCFF1FCF0700008C05002078FCFF1F1D
:1061000038FCFF1F1C4BF0B5002B00D1F0BD002761
:1061100003250126D81902684168002A26D10029E2
:1061200004D18268002AF1D00C37F3E78068002898
:10613000FAD0141C0C43254208D1032806D910CAF2
:10614000043810C10028F4D10C37E3E7264207D108
:10615000012805D9148802380C8002320231E6E7A2
:10616000147801380C7001320131E0E780688A420E
:10617000DDD10C37CEE7C046DC7800007047C04662
:106180007047C04638B5FFF7F9FF00F04FFB184BDA
:10619000181C002805D0854681B00020C04300901F
:1061A00001B0144B144AD21A08D1FFF7ABFFFFF726
:1061B000E7FF00201149FFF7E1FEFEE70325012478
:1061C0000020291C194006D1032A04D902C3043A2D
:1061D000002AF6D1E9E7211C194005D1012A03D98B
:1061E0001980023A0233F3E71870013A0133EFE7FE
:1061F000000C002008FCFF1FBC06002080FCFF1FD5
:10620000F8B51E4C051C22780820D2B2002A00D016
:10621000F8BD012323702378002B07D10020002D27
:10622000F6D02378012BFCD00020F1E72378032B54
:1062300014D0134B13491A70134B1A70134B1A8056
:106240005A809A80DA8000230B70114E0122306848
:1062500000F00AF9306800F0F1F8DFE70A4B08496E
:106260001E780C4F0878BE5DB04308701878074957
:10627000400042521B7803490B70E6E7AAFCFF1F5F
:10628000A8FCFF1FACFCFF1FA9FCFF1FA8060020F5
:10629000B0060020AC78000010B50223032801D915
:1062A000181C10BD064B1A78064B1C5C09231442BF
:1062B000F6D0054B4000C35A1B010B800023EFE7CB
:1062C000A8FCFF1FAC780000A806002070B5234D85
:1062D0002B78042B39D02B78214C2178032B18D024
:1062E000204B214E4900C918306800F0D9F82378B6
:1062F0000133DBB223702378042B1DD023781B4994
:1063000030680B70012200F0AFF8306800F096F8AA
:1063100070BD154B49001868124BC91800F0C0F841
:106320002278134B13481978825C0A431A70FCF7E1
:1063300049F800232B70EBE70D4B00260F22267047
:106340001A70FCF73FF82E70E2E7074B186800F070
:10635000BBF800232B70FCF74FF8D9E7AAFCFF1F0E
:10636000A9FCFF1FA8060020B0060020ACFCFF1F00
:10637000A8FCFF1FAC780000054A08B50023137085
:10638000044A0020137000F009F8034B186008BDA0
:10639000A8FCFF1FAAFCFF1FB00600201D4B1E4AD1
:1063A00030B51E495860136000201D4A187098705F
:1063B0008D58802424052C438C501A4AC32189000F
:1063C000555880242D022D0A24062C43545014685D
:1063D0008021090221431160134A1449146A0C40B8
:1063E0001462546A0C405462114A546B0C4054635A
:1063F000D46A2140D1620F4A57219160D1680F249D
:10640000A143D1604021106251620B4A181CD36035
:1064100030BDC046B4FCFF1FB0FCFF1F007004403D
:106420003C10000000E100E000900440FFF8FFFE97
:1064300000A0044000B00340F4FCFF1F094B10B55E
:10644000196A08220C0601D5101C10BD5A6A482191
:106450008A435A621A6A40218A431A6242781A6051
:106460000022F1E700B0034030B59623012A01D0A5
:10647000181C30BD084B1C6A08232506F8D402708E
:106480000A788223032AF3D8044B9A5C40231343EF
:1064900043700023ECE7C04600B00340B078000032
:1064A00030B502780023002A0AD0064D1A1D92004A
:1064B00054595A00545201330278DBB29A42F5D84B
:1064C000002030BD00B003400B4B1B205A6A510620
:1064D00000D57047DA6C996C002089185A6C8918BD
:1064E0001A6C8918DA6B89189A6B89188022490806
:1064F00012020A43DA62ECE700B0034008B5054B2C
:1065000001221B689A705868FFF7E0FE024B1B6976
:1065100008BDC046B0FCFF1F00B00340F0B54746C1
:1065200080B4051C82B00B1C171C002905D13980D2
:10653000002002B004BC9046F0BD234C1A1C206819
:10654000291C002300F040FC082834D01F4A0025F5
:1065500000269046206800F03FFB206800F086FC93
:10656000002811D1206800F089FCB0421ED02068BC
:1065700000F084FC061C206800F02EFB206800253B
:1065800000F074FC0028EDD0206800F077FC69462C
:106590003880206800F008FD6A461388002B0CD173
:1065A000FA23DB009D4206D00020C2E70135ADB2E0
:1065B0004545CFD9E8E70C20BBE708201A07B8D437
:1065C00015205A07B5D4EBE7B4060020CF0700002A
:1065D000F0B5474680B4051C84B00B1C171C00297D
:1065E00005D13980002004B004BC9046F0BD2A4C8F
:1065F0001A1C2068291C012300F042FC082842D004
:10660000264A002500269046206800F0E5FA20681A
:1066100000F088FC002811D1206800F08BFCB0420B
:106620002CD0206800F086FC061C206800F0D4FA0C
:106630002068002500F076FC0028EDD0206800F0EE
:1066400079FC02AE3880311C206800F0ADFC338844
:10665000002B1AD1FA23DB009D4214D01D1C03E04D
:10666000013DADB2002D0ED02068694600F0A2FCBD
:106670006A461378012BF3D10020B4E70135ADB29F
:106680004545C1D9DAE70C20ADE708201A07AAD49E
:1066900015205A07A7D4DDE7B4060020CF07000075
:1066A00030B50F4B20219A78FA248A439A709A7851
:1066B00010218A4383B09A70E4000A4D03E0013C44
:1066C000A4B2002C0AD02868694600F073FC6A4620
:1066D0001378012BF3D1002003B030BD0C20FBE771
:1066E00000600640B406002008B5054B7F221B68F9
:1066F00002400021181C00F01FFCC0B208BDC046BB
:10670000B406002008B5002000F01AFB014B186009
:1067100008BDC046B40600200A4B0B4A4021106059
:10672000586908435861186888431860074B08493E
:10673000986901408020400001439961054B101C7D
:106740009A62704740F00F40BCFCFF1F00A004405D
:10675000FFF8FFFEF4FCFF1F014B40229A607047D8
:1067600040F00FF8014B40225A60704740F00FF89C
:10677000124B134A10B51360124A18601249906800
:106780000140802040000143916090680F49014022
:106790000F48014391600F4AC72189005458802057
:1067A0002402240AC00520435050106880210906A5
:1067B00001431160084A181C536110BDC4FCFF1F3F
:1067C000C0FCFF1F00A00440FFF8FFFEFFFFF0FE2B
:1067D00000000B0100E100E0F4FCFF1F08B5074BCF
:1067E00080221868064B52049968114205D09968B6
:1067F00000680A439A60FBF701FE08BDC0FCFF1F5A
:1068000000A00440024B18694007C00F7047C04603
:1068100040F00F4008B5FFF7E1FF00F05FFC08BD56
:1068200008B5FBF7C3FD08BDFFBE7047214B224AE8
:106830002249D150224B8822002152019950214AED
:10684000C02189029950204AC0219858C9000143AB
:1068500099501E4B9A78110704D5997808220A435B
:10686000D2B29A70164B174A802149029950184AA1
:106870001849985801408020400401439950164916
:1068800006230B704B78402213404B70CB781F22AD
:106890001340A0221343CB70104B80221A70102299
:1068A0008B791A42FCD00C490C228B791A42FCD10C
:1068B0007047C046080D000000E000E00020000026
:1068C00000700440441000003810000000D0074061
:1068D00004100000FFFFFFFC00400640005006408F
:1068E00070B53D4B1F215A793C488A435A711A7939
:1068F00007218A431A713A4B73211A78C7248A43B5
:1069000050210A431A705A7863218A4340210A436E
:106910005A709A7819218A439A70324B00221A7061
:10692000314B0221DA68A40002400A43DA601A6996
:10693000062602400A431A611A6B02400A431A6390
:106940002A4A15592D042D0C1551294C6569B5435A
:106950006561284CA56A28400143A1625868264910
:106960000140C020800001435960C1239B00D058E2
:1069700022490140D150002000F0CCFB002000F063
:10698000AFFDFFF7F9FC00F04DFB002000F038F8F8
:106990000020FFF7EDFE002000F096FC002000F044
:1069A000E1FC002000F012FB002000F055F8002070
:1069B000FFF7B2FE002000F0FBFC002000F0ACFC72
:1069C000002000F057FB00F03FFBFFF79BFE00F0BC
:1069D000EDF862B670BDC04600F00740FDFFFFFE57
:1069E00000D0074000E007400090044000E100E0D4
:1069F00040F00F4000A00440FFF8FFFEFFFF00FF43
:106A00000A4B0B4A202110605869084358611868E6
:106A100001431960074B0849586901408020400034
:106A200001435961054B101C1A61704700F00F407B
:106A3000CCFCFF1F00900440FFF8FFFEF4FCFF1F9A
:106A4000014B20229A60704700F00FF8014B202282
:106A50005A60704700F00FF80A4B0B4A8021106013
:106A6000586908435861186888431860074B0849FB
:106A7000D8690140802040000143D961054B101CBA
:106A80005A62704740F00F40D0FCFF1F00A0044046
:106A9000FFF8FFFEF4FCFF1F014B80229A60704755
:106AA00040F00FF8014B80225A60704740F00FF819
:106AB00070B5041C40055023400F82B018430E1CD3
:106AC00000F046F8051E1AD16A46147056706846E2
:106AD0000221002200F056F8051E10D1FF236A465D
:106AE0001370002000F038FD684601210022642365
:106AF00000F05EF80028F4D100F032F802E000F077
:106B00002FF8281C02B070BD30B583B06B461870EA
:106B10004305580F502318430D1C00F019F8041EAC
:106B200010D168460121012200F02CF8041E09D181
:106B3000281C0121002200F015F8041E02D100F0EB
:106B40000FF802E000F00CF8201C03B030BDC04686
:106B500008B5FFF7C9FD002800D01B2008BDC046BE
:106B60000020704710B582B0141C6A46FFF730FD54
:106B7000002801D1002C01D002B010BDFFF790FD1C
:106B8000FAE7C04630B583B0151C6A46FFF7C6FC6D
:106B9000041E08D102239D4302D1FFF781FD041C8E
:106BA000201C03B030BDFFF77BFDF9E77047C046FE
:106BB00030B583B0151C6A46FFF7B0FC041E08D13F
:106BC000002D02D0201C03B030BDFFF769FD041C6E
:106BD000F8E7FFF765FDF5E770B5584B0222D97865
:106BE0000A4226D0D978DC781225AC43C9B20C43CE
:106BF000DC709C7820252C401CD09E7810243442D8
:106C000027D102894189013A92B201310281418141
:106C1000002A34D0012A56D0C3685A1CC260474AA1
:106C200012791A700389002B03D14278022313438F
:106C3000437070BD10220A42FBD0048204810478A4
:106C400001218C43817004709978914399700422DA
:106C500011E001260E421ED09A78AA439A709A78C3
:106C6000A2439A7000230382038103780622B34370
:106C7000134303700822838813438380D9E7027883
:106C800001218A4302709A780821AA439A709A785F
:106C90008A439A70C0E701780A420DD0028A002A1E
:106CA00016D0013A0282428A013242824269511C64
:106CB000416112781A71BCE782791A710278022355
:106CC00013430370B5E7997808220A439A70A3E743
:106CD0000289002A0FD004244D0716D5012A28D096
:106CE0009A7808218A439A70144B10219A788A4323
:106CF0009A701B799DE78278B1430170012A11D007
:106D0000427801231343437093E79A782243D2B227
:106D10009A70C17901220A43D2B21A7103781C43D6
:106D2000047086E79A78AA439A709A78A2439A7078
:106D3000E6E7997808220A439A70D5E70060064092
:106D40001A4B202270B51A7010229A7101229A7083
:106D5000002298615A811A815A821A829A800021EF
:106D60001348144A5970855840242C438450124AC1
:106D70005020917090710220D0701048104D06691B
:106D800080242E40A40026430661C66835402C436B
:106D9000C460517191712921517090788021014313
:106DA0009170084A181C936370BDC046D4FCFF1F45
:106DB00000700440341000000060064000A0044051
:106DC000FFF8FFFEF4FCFF1FF0B5002A35D08578F0
:106DD000012D05D006780824F50709D5201CF0BD43
:106DE000214CE6780824B706F8D406783542F5D168
:106DF000058A002DF2D101244161837000211A4BD4
:106E00002643028206704182997810220A439A70C2
:106E10009A789978970612D420220A43D2B29A70AF
:106E2000037899060FD410221A4014D11D0704D5F7
:106E300002210B4303700C4B1A710024CEE704228D
:106E40000A439A70ECE70622134303708279064BDB
:106E500000241A71C2E7062293430370C279024BE1
:106E600000241A71BAE7C046006006404378012248
:106E7000191C91434170101C18407047408A70479C
:106E8000F0B5041C002A12D08120002B00D1F0BDE7
:106E9000257809202E07FAD4A678012E09D00820DB
:106EA000EE07F4D4208900280DD00820EFE7002059
:106EB000EDE71B48C078844667460820BF06E6D445
:106EC0002E42E4D1EEE70126A3703543144B228114
:106ED0002570E1606081997810220A439A709A784F
:106EE000997897060ED504220A439A70237899065A
:106EF0000DD4DA06DBD5062293432370E279084BE2
:106F00001A71C4E720220A43D2B29A70EEE7062231
:106F10001343A279237001231A43014B1A71B6E778
:106F20000060064043780222191C91439B07417080
:106F3000D80F70474089704730B504780823E507BB
:106F400001D5181C30BD012916D0002908D002290E
:106F500025D130239C4308231C4304700023F0E711
:106F600089237F2AEDD818239C4320231C435200F9
:106F7000827104700023E4E70A4989238A42E0D839
:106F800006238271D2091A4010235B421A43282338
:106F90009C4310231C43C27104700023D1E78D234E
:106FA000CFE7C046FF03000083880B800023838067
:106FB00000207047044B0122DB7800205B0953401E
:106FC000012213400B707047006006400A4B0B4AC9
:106FD0002021106058690843586118688843186078
:106FE000074B08495869014080204000014359611E
:106FF000054B101C1A62704740F00F40F0FCFF1F59
:1070000000A00440FFF8FFFEF4FCFF1F014B20220C
:107010009A60704740F00FF8014B20225A60704789
:1070200040F00FF8064B08225968114359609968DF
:10703000914399605969034A0A405A617047C046B2
:1070400000F00F40E7ECFFFF074B80225968D200A9
:107050000A435A609968054A0A409A605969044A85
:107060000A405A617047C04640F00F40FFFBFFFFE7
:10707000FFD3FFFF114B124A10B51360114A18607D
:107080001149506801408020400001435160506820
:107090000E4901400E4801435160C7200D4A80004F
:1070A0001458802124020906240A0C431450106845
:1070B00001431160084A181C536310BD34FDFF1FC3
:1070C00030FDFF1F00A00440FFF8FFFEFFFFF0FEB1
:1070D00000000B0100E100E0F4FCFF1F08B5074BC6
:1070E00080221868064B52045968114205D059682D
:1070F00000680A435A60FBF78BF908BD30FDFF1F9B
:1071000000A00440024B18698007C00F7047C046BA
:1071100040F00F401F4B204A30B5136000221A6028
:1071200098619A809A819A60DA819A821A61002124
:107130001A481B4A997585588024E4032C438450CF
:10714000184AC22080001558174C2C4080252D0469
:107150002C43145014688020C00020431060134A50
:10716000134CD569C020254080000543D561114AE4
:1071700015682C40204310600F4A1E20107010200C
:107180005070917010784021014311700B4A181C07
:10719000136030BD3CFDFF1F38FDFF1F0070044031
:1071A0003410000000E100E0FFFF00FF0090044009
:1071B000FFF8FFFE00A0044000600740F4FCFF1F42
:1071C00070B5838A82B0041C002B03D00823181CDE
:1071D00002B070BD6D46EFF3108072B62870124891
:1071E00005780135EDB20570012D17D0A28200227D
:1071F000E281A27D216101218A43A2750B4A2021EF
:107200001478214311700278013AD2B20270002A38
:10721000DDD1074A107880F31088D8E76D462E78C4
:10722000034D2E70E2E7C046C8FCFF1F0060074018
:10723000BA06002038B5224B1C68224BDD78EDB22F
:107240006AB2002A19DB20232B4210D0E189A28ADE
:1072500091420DD223695A1C22611A78194B5A7136
:10726000E389A28A01339BB2E3819A421ED038BDE2
:10727000144A117899431170F9E7A289002AE2D0E3
:10728000A268511CA16059791170A288A1890132AC
:1072900092B2A2809142D6D11A787F210A401A7008
:1072A0000023A381A069FBF787F8CCE7A27D002328
:1072B000A38201231343A375A069FBF779F8D6E7EE
:1072C00038FDFF1F00600740094B0A4A18600A4951
:1072D000506901405161094A0949906A0140802082
:1072E000400001439162074A181C93617047C046F1
:1072F00058FDFF1F40F00F40FFFBFFFF00A00440C0
:10730000FFF8FFFEF4FCFF1F024B18694005C00F99
:107310007047C04640F00FF8094A0A4B516918609F
:10732000102081435161084A0849106901408020BA
:10733000400001431161064A181C13637047C046A0
:1073400000F00F405CFDFF1F00900440FFF8FFFEBF
:10735000F4FCFF1F024B1869C006C00F7047C046FF
:1073600000F00FF8094A0A4B516918600820814360
:107370005161084A0849D06801408020400001431B
:10738000D160064A181CD3617047C04600F00F4018
:1073900060FDFF1F00900440FFF8FFFEF4FCFF1F9C
:1073A000024B18690007C00F7047C04600F00FF885
:1073B000094B0A4A18600A49506901405161094A5B
:1073C0000949106B01408020400001431163074AC6
:1073D000181CD3627047C04664FDFF1F00F00F40C9
:1073E000FFEFFFFF00900440FFF8FFFEF4FCFF1FDB
:1073F000024B1869C004C00F7047C04600F00FF878
:1074000008B5FAF7DBFF08BD1B4A70B55368002BBF
:1074100005D01A7AD86001321A72181C70BD17494B
:10742000174CC86001200872164880250160164874
:107430006D042658354325501448C4240360436026
:10744000C3604361124BA400836080235B000B6028
:1074500008234B600F4B104D1E59354080263602D5
:1074600035431D511D688024A4022C431C60402319
:10747000036051600B1CD0E7F4FCFF1F6CFDFF1F85
:107480000070044068FDFF1F3C10000000800340B6
:10749000B15D000000E100E0FF00FFFF044B982118
:1074A0001A688A43416800200A431A607047C04640
:1074B0000080034008B5084B80221868074B196804
:1074C0000A4208D00168C90505D51968C0680A4391
:1074D0001A6000F027F808BD68FDFF1F0080034018
:1074E00038B5084C084DA060002300202371AC6023
:1074F000FFF78AFF2060002801D0201C38BDA8605B
:10750000FCE7C0467CFDFF1FF4FCFF1F08B50379B4
:10751000002B04D1012303710068FFF7BFFF002097
:1075200008BDC04608B5034B9B689868FFF768FF25
:1075300008BDC046F4FCFF1FC046C046C0467047A9
:107540000020C046C046C046C046C046013009289B
:10755000F7D9C0467047C04638B5051E12D0E024A2
:10756000FF34013CA4B2FFF7EBFF002CF9D1072454
:10757000013CA4B2FFF7E0FF002CF9D1013DADB210
:10758000002DECD138BDC04610B50023934203D086
:10759000CC5CC4540133F9E710BD031C821893423C
:1075A00002D019700133FAE77047000000000000B4
:1075B00005000000070000000C00000004090E0395
:1075C000050A0F00060B0C0107080D02E028000059
:1075D0003A290000E02800004A2900005A2900004A
:1075E0006A290000F62800007A29000054290000CA
:1075F000442900007E29000054290000642900006D
:107600007429000000290000542900001C2A0000F1
:10761000202A00002E2A00003E2A00004E2A0000E8
:10762000522A00000C2A0000CE290000222C000063
:107630001A2C0000122C00000A2C0000042C000060
:10764000FE2B0000F82B0000F22B0000EC2B0000BA
:10765000E62B0000E02B0000DA2B00008A2A000055
:10766000D42B0000CC2B0000C42B0000BC2B00004E
:10767000B62B0000B02B0000AA2B0000A42B0000AA
:107680009E2B0000982B0000922B00008C2B0000FA
:10769000AC2A0000862B00007E2B0000762B000019
:1076A0006E2B0000682B0000622B00005C2B00009A
:1076B000562B0000502B00004A2B0000442B0000EA
:1076C0003E2B0000CA2A0000382B0000302B00009F
:1076D000282B0000202B00001A2B0000142B000088
:1076E0000E2B0000082B0000022B0000FC2A0000DB
:1076F000F62A0000F02A0000E82A0000462F0000C9
:10770000402F00003A2F0000342F0000302F0000DF
:107710002C2F0000282F0000242F0000202F000015
:107720001C2F0000182F00001E2E0000562F0000F6
:10773000142F00000E2F0000082F0000022F000061
:10774000FE2E0000FA2E0000F62E0000F22E0000A1
:10775000EE2E0000EA2E0000E62E0000362E00007D
:10776000502F0000E22E0000DC2E0000D62E00007C
:10777000D02E0000CC2E0000C82E0000C42E000029
:10778000C02E0000BC2E0000B82E0000B42E000059
:107790004E2E00004A2F0000AE2E0000A62E000044
:1077A0009E2E0000962E0000902E00008A2E0000D3
:1077B000842E0000782E0000722E00007E2E000025
:1077C0006C2E0000662E00005C2F0000304400008C
:1077D000CA4400003044000048440000D84400007F
:1077E000E6440000B8440000FA44000006450000EA
:1077F0000C4500001245000006450000C244000090
:10780000F0440000C24400000645000002480000A9
:1078100002480000FC46000020470000CE46000061
:10782000B6470000684700007E4700005846000049
:10783000264700005247000032480000584600002A
:10784000BA470000184E0000184E0000984E000085
:10785000944E0000904E00008C4E0000184E000028
:10786000844E000001030701030B01050701050D0C
:1078700001090B01090D02030702030B02060702AF
:10788000060E020A0B020A0E04050704050D040683
:107890000704060E040C0D040C0E08090B08090D54
:1078A000080A0B080A0E080C0D080C0E0102040849
:1078B0004342504BF8B5C046F8BC08BC9E467047E2
:0C78C000F8B5C046F8BC08BC9E467047F6
:0478CC00E9200000AF
:0478D000C1200000D3
:0878D400FFFFFFFF01000000AF
:1078DC00D478000000FCFF1F08000000000000002E
:0878EC00000000000000000094
:040000030000618513
:00000001FF
