:10000000000C0020791800003D220000452200006D
:100010004522000045220000452200004522000044
:100020004522000045220000452200004522000034
:100030004522000045220000452200004522000024
:100040004522000045220000452200004522000014
:100050004522000045220000452200004522000004
:100060001D1D000045220000192700004522000048
:10007000452200004522000045220000FD1C000032
:1000800045220000652800004522000045220000AE
:1000900045220000452200004522000045220000C4
:1000A00045220000452200004522000045220000B4
:1000B00045220000452200004522000035220000B4
:10040000FFFFFFFFFFFFFFFFFFFFFFFF7EFBFFFF81
:1004100010B5064C2378002B07D1054B002B02D0DA
:10042000044800E000BF0123237010BD04FCFF1F3F
:1004300000000000C829000008B5084B002B03D0BD
:100440000748084900E000BF07480368002B03D0B5
:10045000064B002B00D0984708BDC04600000000A6
:10046000C829000008FCFF1F04FCFF1F000000005B
:10047000002941D010B4041C4C40A44601230022A2
:10048000002900D54942002800D5404288422CD39B
:1004900001242407A14204D2814202D209011B0196
:1004A000F8E7E400A14204D2814202D249005B0095
:1004B000F8E7884201D3401A1A434C08A04202D3FD
:1004C000001B5C0822438C08A04202D3001B9C083E
:1004D0002243CC08A04202D3001BDC0822430028A0
:1004E00003D01B0901D00909E3E7101C6446002C66
:1004F00000D5404210BC7047002806D003DB002026
:10050000C043400801E08020000607B4024802A171
:100510004018029003BDC046190000000029EBD02E
:1005200003B5FFF7A7FF0EBC4243891A1847C04620
:100530007047C0469E2110B5C905041C00F0CAFCD6
:10054000002803D1201C00F019FC10BD9E21C90514
:10055000201C00F09DFA00F011FC80231B06C0183F
:10056000F3E7C046F8B543024400C50F4E02480009
:10057000240E2A1C9B09000EC90FB6098D425BD0C0
:10058000221A002A00DC89E000281DD1002E00D0AC
:1005900075E0580704D00F221A40042A00D0043313
:1005A0008021C90419402A1C00293AD00134FF2CAB
:1005B00000D17FE09B015B0A5B02E4B2E405580ACC
:1005C000D20720431043F8BDFF2CE2D08021C9049C
:1005D0000E431B2A00DD2DE1311C2020D140821A60
:1005E0009640721E96410E439B1B5801D1D59B012C
:1005F0009F09381C00F078FC421F974094425BDC56
:10060000141B1F231B1B3A1C9F40611C3B1CCA4030
:100610005F1EBB4113430024BBE7131EB9D1002367
:100620000022DB08FF2C04D1002B43D08020C00324
:1006300003435B025B0ABFE7211A002940DD002863
:1006400023D0FF2CA5D08020C00406431B2900DD49
:10065000EEE0301C2027C840791A8E40711E8E4172
:1006600006439B19590100D493E70134FF2C55D060
:10067000714901221A400B405B08134389E7013A94
:10068000002AB1D0FF2CA4D183E7002E00D180E74F
:1006900001390029E5D0FF2CD8D17AE7002A1BD1F7
:1006A000621CD2B2012A4BDD9F1B7A0123D5F71AB7
:1006B0000D1C9EE700237FE75F4BA41A3B4068E7D1
:1006C000002946D1611CC8B2012829DDFF2924D0A8
:1006D000F3185B080C1C5CE7002C13D0FF2818D023
:1006E0008024E404524223431B2A4DDD0123F31AE4
:1006F000041C0D1C79E7002F00D07AE700230022AC
:1007000000248EE7002B3BD0D243002AEFD0FF28F5
:10071000EAD1331CFF240D1C3BE7FF24002380E7B4
:10072000002C5CD1002B00D180E0002E00D130E7FE
:100730009B19580100D42CE73F4A0124134028E7B5
:10074000002C15D1002B40D1002E63D0331C0D1C82
:100750001FE7002C21D1002B54D0C943002904D01D
:10076000FF284CD01B2958DD01239B19041C79E775
:10077000002B19D1002E48D0331C0D1CFF2408E794
:10078000331C041C0D1C04E71C1C2025D440AA1A91
:1007900093405A1E93412343A9E7FF282FD080247A
:1007A000E40449422343DDE7FF24002E00D1F0E6B4
:1007B0008022DB08D203134204D0F608164201D18E
:1007C000331C0D1CDB00FF24E3E6002E00D1E0E625
:1007D0009A1B500100D420E7F31A0D1CD9E6002B18
:1007E0000DD0FF24002E00D1D3E68022DB08D203F7
:1007F0001342E7D0F6081642E4D1331CE2E7331C7B
:10080000FF24C6E6331C041CC3E6802300229B049D
:10081000FF2406E7231C002203E71C1C2027CC40F2
:10082000791A8B40591E8B4123439EE7331CB0E657
:10083000012616E70126D7E6FFFFFFFBF0B55F466E
:1008400056464D464446F0B44402460083B00F1C61
:10085000640A360EC50F002E41D0FF2E22D0802311
:100860001B0400201C43E4007F3E82468046391C66
:100870004B007F02C90F7F0A1B0E8B463BD0FF2B1C
:1008800034D0802212041743FF007F3B00215A46D8
:100890006A40019252460A430F2A63D87A4892006E
:1008A00082589746002C3FD1082202239246984650
:1008B000DDE70195404602282AD1019A012515401D
:1008C000FF2300246402DB05600AED071843284378
:1008D00003B03CBC90469946A246AB46F0BD002C06
:1008E00027D10420012282469046C0E7391C4A1EC7
:1008F00091410231CBE70121002FC8D0381C00F014
:10090000F3FA431F9F4076235B421B1A0021BEE788
:10091000032800D1AEE001284FD101984246104093
:10092000C5B200230024CDE70C2303209A4680465D
:100930009DE7201C00F0D8FA7626431F9C407642A3
:100940000023361A9A46984691E780240025E4034E
:10095000FF23B7E75B463C1C01938846AAE73C1C93
:100960008846A7E7250C24043A0C240C3F04F6180B
:100970003F0C211C231C794353436F435543FB1801
:100980000A0C9B18B1469F4202D980225202AD1830
:1009900009041A04090C521894011B0C611E8C41A5
:1009A000920EED181443AD012C43230105D501220D
:1009B00063080120144081441C434B467F33002BC5
:1009C0002DDD600704D00F222240042A00D0043419
:1009D000220103D52D4B1C404B468033FE2B17DDE7
:1009E000019B01251D400024FF236BE78020C003ED
:1009F000044208D0074206D1041C3C436402640A46
:100A00005D46FF235EE704436402640AFF2359E75F
:100A10000198A4010125640ADBB2054052E77E2358
:100A20005B424A469B1A1B2B05DD019B01251D409D
:100A30000024002346E7221CDA404B469E339C40AC
:100A4000231C5C1EA3411343580704D00F221A40F5
:100A5000042A00D004335A0105D5019B01251D400D
:100A6000002401232EE701989C010125640A05401A
:100A7000002327E78027FF03019B3C4364020125F5
:100A80001D40640AFF231DE780290000FFFFFFF7D8
:100A9000F8B5C20F430244004D024800240E161C54
:100AA0009B09000EC90FAD09FF2800D183E0012783
:100AB00079408A425CD0221A002A00DC8EE00028AD
:100AC0001ED1002D00D07AE0580704D00F221A4022
:100AD000042A00D004338021C90401221940324085
:100AE00000293AD00134FF2C00D183E09B015B0A3E
:100AF0005B02E4B2E405580AD20720431043F8BD74
:100B0000FF2CE1D08021C9040D431B2A00DD31E117
:100B1000291C2020D140821A95406A1E95410D4320
:100B20005B1B5801D0D59B019F09381C00F0DCF9F4
:100B3000421F974094425FDC141B1F231B1B3A1C6F
:100B40009F40611C3B1CCA405F1EBB4113430024F5
:100B5000BAE7131EB8D100230022DB08FF2C04D112
:100B6000002B47D08020C00303435B025B0ABFE732
:100B7000211A002944DD002827D0FF2CA4D0802092
:100B8000C00405431B2900DDF2E0281C2027C840D3
:100B9000791A8D40691E8D4105435B19590100D4B6
:100BA00092E70134FF2C59D0734901221A400B40BF
:100BB0005B08134388E7002D00D07AE777E7013A16
:100BC000002AADD0FF2CA0D17EE7002D00D17BE71D
:100BD00001390029E1D0FF2CD4D175E7002A1BD1BF
:100BE000621CD2B2012A4BDD5F1B7A0123D5EF1ABA
:100BF0000E1C9AE700237BE75F4BA41A3B4063E798
:100C0000002946D1611CC8B2012829DDFF2924D062
:100C1000EB185B080C1C57E7002C13D0FF2818D0EA
:100C20008024E404524223431B2A4DDD0123EB1AA6
:100C3000041C0E1C75E7002F00D076E7002300226D
:100C400000248AE7002B3BD0D243002AEFD0FF28B4
:100C5000EAD12B1CFF240E1C36E7FF2400237CE77F
:100C6000002C5CD1002B00D180E0002D00D12BE7BF
:100C70005B19580100D427E73F4A0124134023E7BA
:100C8000002C15D1002B40D1002D63D02B1C0E1C45
:100C90001AE7002C21D1002B54D0C943002904D0DD
:100CA000FF284CD01B2958DD01235B19041C75E774
:100CB000002B19D1002D48D02B1C0E1CFF2403E75C
:100CC0002B1C041C0E1CFFE61C1C2026D440B21A50
:100CD00093405A1E93412343A9E7FF282FD0802435
:100CE000E40449422343DDE7FF24002D00D1EBE675
:100CF0008022DB08D203134204D0ED08154201D153
:100D00002B1C0E1CDB00FF24DEE6002D00D1DBE6F1
:100D10005A1B500100D41CE7EB1A0E1CD4E6002B22
:100D20000DD0FF24002D00D1CEE68022DB08D203B7
:100D30001342E7D0ED081542E4D12B1CE2E72B1C4F
:100D4000FF24C1E62B1C041CBEE6802300229B046A
:100D5000FF2402E7231C0022FFE61C1C2027CC40B6
:100D6000791A8B40591E8B4123439EE72B1CABE61F
:100D7000012512E70125D3E6FFFFFFFB4302590AD5
:100D80004300C20F1B0E00207E2B0DDD9D2B0CDCC3
:100D9000802000040143952B0ADC9620C31AD94019
:100DA0004842002A00D1081C7047034BD018FBE7CB
:100DB000963B9940F4E7C046FFFFFF7F70B5041EE5
:100DC0003CD0C60F00D04442201C00F08DF89E237A
:100DD000251C1B1A962B0CDC083884406402640A1C
:100DE000DBB2321C6402DB05600AD20718431043F1
:100DF00070BD992B0ADD0522121A211CD1400A1C54
:100E0000011C1B318D40691E8D411543052801DDF4
:100E1000421F9540164C2C406A0704D00F22154003
:100E2000042D00D0043461010CD59F23181AFF282B
:100E30001AD0A401640AC3B2321CD3E700220023F3
:100E40000024CFE7E408FF2B04D06402640ADBB27D
:100E5000321CC7E7002C04D08020C0030443640286
:100E6000640A321CFF23BDE7321CFF230024B9E7CC
:100E7000FFFFFFFB8446081C6146FFE71FB500F03B
:100E8000C3F8002801D40021C8421FBD10B500F0EE
:100E900049F84042013010BD10B500F0B5F8002807
:100EA00001DB002010BD012010BDC04610B500F0D0
:100EB000ABF8002801DD002010BD012010BDC046A8
:100EC00010B500F059F8002801DC002010BD012009
:100ED00010BDC04610B500F04FF8002801DA002020
:100EE00010BD012010BDC0461C2101231B049842E7
:100EF00001D3000C10391B0A984201D3000A0839AB
:100F00001B09984201D30009043902A2105C401861
:100F10007047C04604030202010101010000000005
:100F2000000000004A02430270B55C0A550A430003
:100F30004A001B0EC60F120EC90FFF2B05D0FF2A49
:100F400008D0012093420BD070BD0120002CFBD1B2
:100F5000FF2AF6D10120002DF6D101209342F3D1D2
:100F6000AC42F1D18E4205D0002BEDD1201C441EA5
:100F7000A041E9E70020E7E74A024302F0B55C0A36
:100F8000550A43004A001B0EC60F120EC90FFF2B55
:100F900031D0FF2A34D0002B16D160426041844604
:100FA000002A14D0002820D18E4217D1934215DC9C
:100FB00004DBAC4212D80020AC4212D27042704125
:100FC0004042012318430CE0002AEDD194466F42C1
:100FD0006F416046002805D1002FE5D07042012303
:100FE0001843F0BD0020002FFBD148424841404249
:100FF00001231843F5E7002CCBD002204042F0E754
:10100000002DC8D0F9E7C0464A024302F0B55C0A99
:10101000550A43004A001B0EC60F120EC90FFF2BC4
:1010200027D0FF2A29D0002B10D0002A15D19446B2
:101030006F426F416046002815D00020002F04D178
:1010400048424841404201231843F0BD604260419C
:101050008446002AECD00028F2D18E4211D0704292
:1010600001231843F1E7002FF7D070420123184302
:10107000EBE70220002CE8D1D3E70220002DE4D1D9
:10108000D1E79342EBDC04DBAC42E8D80020AC4271
:10109000DBD270427041404201231843D5E7C0467D
:1010A00008B5002001F0CEF90122014B1A7008BDED
:1010B00000FCFF1F38B5051C0C1C164B1B78002BC1
:1010C00027D0002001F0B8F9012D11D12405230DFE
:1010D000C024A4011C43230A0F490B704C7000224A
:1010E0000C4B1A700D4B1868022201F0DBFA10E06D
:1010F0002405230DB02424021C43230A06490B7047
:101100004C700022034B1A70044B1868022201F045
:10111000C9FA38BD00FCFF1F20FDFF1FB0FCFF1FF8
:101120007047C04608B5FFF7BBFF08BD7047C04613
:1011300008B500F0DFF908BD70B582B000246D4637
:101140000635084E07E0E0B2291C00F023FCA3009E
:101150002A889A510134032CF5DD0122024B1A60D2
:1011600002B070BD28FDFF1F20FCFF1F7047C04666
:1011700008B5034B186A01F035FA00F0B5FA08BD5E
:10118000B0FCFF1F0022014B1A60704734FCFF1FA8
:101190000022014B1A60704724FCFF1F002383616B
:1011A00043614360037743777047C046002901D10C
:1011B000002343607047C0467047C0467047C04632
:1011C00008B54843FFF7FAFD8521C905FFF736FB4F
:1011D000FE218905FFF7C6F9FFF7ACF908BDC04647
:1011E0000A4A83189B049B145B431B13084A5A4307
:1011F000921308498A1A53431B1480225201D31AAE
:10120000420401D5584200E0181C704700E0FFFF7F
:10121000BC0D0000BC4D000008B5400CFFF7E0FF1E
:10122000400408BD80107047002802DAE020000664
:1012300000E001487047C046FFFFFF1F002803DAA7
:10124000044B181A401003E0C0231B06C0184010BE
:101250007047C046FFFFFFBF10B54A43D3B2191C09
:10126000FF394C1EA1410A4201D00133DBB21212F8
:1012700091000C582412FF21C91A614301329200D7
:10128000105800124343C81810BDC04630B585B091
:10129000041C0D1CFFF7C0FF0090201CFFF7C2FFCD
:1012A0000190201CFFF7CAFF0290201CFFF7BCFF33
:1012B0000390684603212A1CFFF7CEFF05B030BD1E
:1012C000F0B5474680B488B0041C037F002B01D0E2
:1012D000013B0377637F002B01D0013B63772078CC
:1012E000FA21C900FFF76CFF626885186560E6782F
:1012F0003606AE19A6600023002102E0E2189177BD
:1013000001330B2BFADDE3689D4201D2642323777E
:101310002269964201D264236377E5602661A7784B
:10132000281C391CFFF7B2FF049000239846059350
:101330000693281C391CFFF7A9FF40420790301C78
:10134000391CFFF7A3FF0090434601930293301C22
:10135000391CFFF79BFF40420390667804A80321E5
:10136000321CFFF779FF3649FFF782F8051CA061B0
:1013700068460321321CFFF76FFF3149FFF778F809
:1013800080221201AB18A361801860618022520193
:10139000934201DDA26103E0002B01DA0023A36187
:1013A00080235B01984203DD80235B01636103E0DE
:1013B000002801DA00236361A569AB005B195B00BB
:1013C0005B191E133703DF1B3F11301C0C300C213F
:1013D000FFF7A4F8FFB26118FB438B77301C0D3088
:1013E0000C21FFF79BF861188F7763699F00FF1846
:1013F0007F00FB181E133703DB1B1F11FF23DB1BB2
:101400009846301C0C300C21FFF788F863189A7F3F
:101410004346934200DA131C61188B77301C0D3061
:101420000C21FFF77BF863189A7FBA4200DA3A1C66
:101430006418A277281C08B004BC9046F0BDC046D2
:10144000FCFF0300F0B5474680B4264B1A68013212
:101450001A60254B1A7809321A70244B586901F02A
:1014600043F80024224D214F13E02B191B7F002B42
:1014700004D01E4A906901F00BF802E0B86901F04F
:101480000DF81A4EF06900F0C9FEF06900F0CCFECC
:101490000134012CE9DD0024154F134E134B9846FF
:1014A00016E03B1B0B339A7F33789A4204D90F4BDB
:1014B000986900F0F3FF03E04246906900F0E8FF0E
:1014C0000A4DE86900F0AAFEE86900F0ADFE0134BB
:1014D0000B2CE6DD054B586901F00CF804BC904676
:1014E000F0BDC0463CFCFF1F01FCFF1FB0FCFF1F0E
:1014F0003CFDFF1F10B5124B1A6801321A60114AE9
:101500001368013313600122134002D0012B0CD069
:1015100012E00D4C201C0D49FFF7D2FEA1690C4BC7
:1015200019600020FFF7C6FD06E0074B5969094B1B
:1015300019600120FFF7BEFDFFF784FF10BDC04614
:1015400028FCFF1F2CFCFF1F3CFDFF1F24FDFF1F7D
:1015500038FCFF1F30FCFF1F0012C0B27047C046AE
:10156000C0B2704708B5FFF7F7FF072318405023B4
:10157000184308BD70B5061C0D1CFFF7F1FF164C93
:1015800020706570154D00232B60301CFFF7EAFFBB
:10159000021C134E706A002100F0E6FD706A211CE7
:1015A0000222012300F0E0FC01232B600B4C0C4EC7
:1015B000094D0AE0706A291C0122012300F0D4FCC5
:1015C0000A2001F0CFF9FFF73DFF2368012BF1D08E
:1015D0000022024B1A6070BD68FDFF1F34FCFF1F24
:1015E000B0FCFF1FF8B50F1C161C002406E0451CBC
:1015F000ADB2395DFFF7BEFF0134281CB442F6DB03
:10160000F8BDC04630B583B0051CFFF7A9FF01AC9B
:101610002070281CFFF7A6FF021C134D686A0021EA
:1016200000F0A2FD0122114B1A60686A211C0123FF
:1016300000F09AFC0D4A1368012BFCD0FFF702FF63
:1016400001220B4B1A60084B586A6946033101238B
:1016500000F00AFD064A1368012BFCD0FFF7F2FEEA
:101660006B46D87803B030BDB0FCFF1F34FCFF1FC1
:1016700024FCFF1FF0B5474680B48846171C0024A1
:1016800008E043461E19451CADB2FFF7BBFF3070A2
:101690000134281CBC42F4DB04BC9046F0BDC046BB
:1016A00008B500201021FFF765FF01200249012243
:1016B000FFF798FF08BDC04624FDFF1F10B50020AE
:1016C000FFF7A0FF102809D1064C0120211C0122A0
:1016D000FFF7D0FF201CFFF771FD01E0FFF7E0FFEF
:1016E00010BDC04624FDFF1F08B5C1B20248034A21
:1016F000FFF75CFD08BDC0463CFDFF1F24FDFF1F3A
:1017000070B500F0FBFD1948FFF748FD184819496E
:10171000FFF752FDFFF7D2FF174B986801F0D6F89C
:10172000012000F051F900F00BF9002000F018F949
:10173000FFF788FEFFF786FE104A11480B49151C7B
:1017400000241368012BFCD1C6683312DB438B7075
:1017500086683312DB434B7046683312DB43CB7031
:101760000668F3431B120B702C60EAE73CFDFF1F79
:1017700038FDFF1F24FDFF1FB0FCFF1F20FCFF1FD3
:1017800028FDFF1F10B50F4B0F4AD21A18D012E0D8
:101790000B4204D1032A02D901C3043A0EE02342CA
:1017A00005D1012A03D918800233023A06E01870E5
:1017B0000133013A02E0032101240020002AE7D18D
:1017C00010BDC04604FCFF1F7CFDFF1F30B58842E2
:1017D00022D0002A1CD11FE00B4207D1034205D1C1
:1017E000032A03D910C910C0043A13E00D4209D1ED
:1017F000054207D1012A05D90C8804800230023144
:10180000023A07E00C78047001300131013A01E03E
:1018100003230125002ADFD130BDC046F8B5134BA4
:10182000002B22D000241E1C1F1C1D1C09E063007D
:101830001B199B000D4AD31858689A68FFF7C6FF1A
:10184000013463001B199B0099590029EFD16300F3
:101850001B199B00FB185B68002BE8D163001B1968
:101860009B00EB189B68002BE1D1F8BDEC29000030
:101870007047C0467047C04608B5FFF7F9FF00F053
:10188000E3FC0A4B181C002805D0854681B00020D7
:10189000C043009001B0FFF775FFFFF7BFFFFFF7F0
:1018A000E9FF00200249FFF72BFFFEE7000C0020B4
:1018B00040FCFF1F034B00221A805A809A80DA8076
:1018C0007047C0466CFDFF1F10B5164B1B78002BF0
:1018D00027D0144B1B78032B09D00024124B1C700B
:1018E000124B1C70FFF7E6FF114B1C7010E00F4B02
:1018F0001A78D2B20F49885C0B4A11788143117073
:101900001978490000200C4A88521A78084B1A703E
:101910000A4C20680649012200F062F9206800F0B4
:1019200049F910BD6AFCFF1F68FCFF1F69FCFF1F1F
:101930006CFCFF1FC02900006CFDFF1F74FDFF1F22
:1019400008B5064B1B78002B06D10222034B1A70F8
:10195000FFF7BAFF002000E0082008BD6AFCFF1F67
:1019600010B5041C0A4B1B78002B0CD10122084B2C
:101970001A70FFF7A9FF002C07D0054A1378012B36
:10198000FCD0002002E0082000E0002010BDC0468E
:101990006AFCFF1F03280CD8084B1B5C084A12780E
:1019A0001A4208D04000074BC35A1B010B8000208D
:1019B00002E0022000E009207047C046C029000074
:1019C00068FCFF1F6CFDFF1F38B5041C134B1B7810
:1019D000002B1CD10422114B1A70114D286800F005
:1019E0002DF9286800F056F9002C12D00C4C206814
:1019F00000F024F90028FAD0094B186800F062F9C9
:101A0000002808D00022054B1A701B2004E0082093
:101A100002E0002000E0002038BDC0466AFCFF1F45
:101A200074FDFF1F10B52B4B1B78042B09D12A4BDB
:101A3000186800F047F90022264B1A70FFF796FB52
:101A400046E0244B1B78032B2CD0244C21784900F2
:101A5000234BC918204B186800F0DEF823780133B7
:101A6000DBB223702378042B0FD100221B4B1A709A
:101A70000F221C4B1A70FFF75FFB164B1B78012BD4
:101A800003D10022134B1A7022E0144B1B78164925
:101A90000B70114C2068012200F0A2F8206800F0C1
:101AA00089F815E00D4C217849000D4BC9180A4BF7
:101AB000186800F0B1F82378DBB20C4AD25C094B0D
:101AC00019780A431A70FFF737FB0022014B1A708E
:101AD00010BDC0466AFCFF1F74FDFF1F69FCFF1F9D
:101AE0006CFDFF1F68FCFF1F6CFCFF1FC02900007E
:101AF00008B50023044A1370044A1370002000F054
:101B000009F8034B186008BD68FCFF1F6AFCFF1F43
:101B100074FDFF1F30B51D4B58601D4A1360002037
:101B2000187098701B491C4A8D58802424052C433A
:101B30008C501A4AC321890055582D022D0A802441
:101B400024062C435450146880210902214311605B
:101B5000134A546B13490C405463D46A0C40D4624A
:101B6000114A146A0C401462546A214051620F4AAF
:101B700057219160D1680F24A143D16010624021A8
:101B800051620B4AD360181C30BDC04674FCFF1F65
:101B900070FCFF1F007004403C10000000E100E0FA
:101BA00000A00440FFF8FFFE0090044000B0034096
:101BB000B0FCFF1F094B1B6A1A060CD4074B5A6A6C
:101BC00048218A435A621A6A40218A431A6242783B
:101BD0001A60002000E008207047C04600B00340B3
:101BE00010B5012A0ED10A4B1B6A1C060CD40270D8
:101BF0000B78032B0AD8074AD25C40231343437067
:101C0000002004E0962002E0082000E0822010BDC1
:101C100000B00340C429000030B50023064D06E0A3
:101C20005A001C1DA40064598C520133DBB20278A7
:101C30009A42F5D8002030BD00B0034082B0031CAA
:101C40006A46EFF3108072B6D07110490A780132FB
:101C5000D2B20A70012A03D16A46D1790C4A1170B6
:101C6000997800229A70094A1378013BDBB213700D
:101C7000002B03D1064B187880F31088002901D07F
:101C8000012000E0002002B07047C046A0FCFF1F0A
:101C900078FDFF1F0A4B1B6A1A060ED4084B1A6AFE
:101CA00040218A431A625F221A605A6AC0218A431D
:101CB00080210A435A62002000E008207047C04695
:101CC00000B003400C4B5B6A5A0612D40A4BDA6C24
:101CD000996C89185A6C51181A6C5118DA6B511892
:101CE0009A6B51184908802212020A43DA620020D6
:101CF00000E01B207047C04600B0034008B5054B0C
:101D00001B6801229A705868FFF78CFE024B1B6912
:101D100008BDC04670FCFF1F00B0034010B5644B07
:101D20001C68644BDA78D2B2D9781220814311430F
:101D3000D9709B78990600D4A0E05E4B9B78D906B9
:101D40006FD5D30713D55B4B9A7820218A439A70BD
:101D50009A7810218A439A70002323822381237862
:101D60000122934306221343237008239AE0237829
:101D700099074DD5228A002A09D0013A2282636947
:101D80005A1C62611A784B4B1A7100238AE022892F
:101D9000002A25D0590714D5012A05D1454B997839
:101DA00008220A439A7004E0424B9A7808218A4339
:101DB0009A70404B9A7810218A439A701B790023BD
:101DC00070E03C4B997804221143C9B29970E079D4
:101DD00001210143197123781A432270002361E025
:101DE000012293432370A378012B08D1314B9A78B9
:101DF00020218A439A709A7810218A439A706278D7
:101E0000012313436370A069FFF7BCF9002349E085
:101E1000A279284B1A7122780223134323700023DE
:101E200040E02389013B9BB22381002B07D0012B8B
:101E300012D1204B997808220A439A700CE023783B
:101E40000122934323701B4B9A7820218A439A7076
:101E50009A7808218A439A70E3685A1CE260154A0E
:101E600012791A702389002B19D162780223134347
:101E70006370A069FFF78CF9002313E0D30610D537
:101E80000023238223810123A37022789A432270A6
:101E9000084B9A7810218A439A70042302E00023A9
:101EA00000E00023002B02D0A2881343A38010BDC2
:101EB0007CFCFF1F0060064070B5224B9861224AEF
:101EC000136020221A70A0229A7101229A700022B7
:101ED00000211A811A8259709A801C481C4A855820
:101EE00040242C4384501B4A917050209071022052
:101EF000D07019480669194D2E408024A40026434D
:101F00000661C66835402C43C4601548C224A4004D
:101F10000559FF26B54305510568802464002C430C
:101F20000460517191712721517090788021014393
:101F3000917090784021014391700A4A5362181CB5
:101F400070BDC04680FCFF1F7CFCFF1F007004407A
:101F5000341000000060064000A00440FFF8FFFEBF
:101F600000E100E0B0FCFF1F30B583B0041C002A84
:101F700065D0807801280AD13848C078850660D4B9
:101F80002078C5075FD4208A00285ED105E020783C
:101F9000C5075CD4208A00285BD16D46EFF3108022
:101FA00072B6E8712E4D28780130C0B22870012831
:101FB00003D16846C5792B48057025780120284350
:101FC000207061612282A370244B997810220A4309
:101FD0009A709B789A0605D5204B997804220A437B
:101FE0009A7004E01D4B997820220A439A70237856
:101FF0009D0606D5062213432370A279174B1A714A
:1020000010E0DA0606D5062293432370E279134BDB
:102010001A7107E01D0705D5022213432370002221
:102020000E4B1A710E4A1378013BDBB21370002B72
:1020300011D10C4B187880F3108800200CE00020A0
:102040000AE0082008E0082006E0082004E0082054
:1020500002E0082000E0002003B030BD0060064030
:10206000A0FCFF1F78FDFF1F70B582B0041C002A82
:1020700061D0002B61D00078050760D4A578012DD0
:1020800009D1364DED78AE065BD4C5075BD4208907
:1020900000285AD104E0C60759D42089002858D115
:1020A0006D46EFF3108072B6E8712D4D287801303F
:1020B000C0B22870012803D16846C5792948057047
:1020C0002578012028432070E1602281A370234BF2
:1020D000997810220A439A709B789A0605D51F4B6F
:1020E000997804220A439A7004E01C4B99782022C4
:1020F0000A439A7023789D0608D50622134323705D
:10210000A27901231A43154B1A7107E0DE0605D5A3
:10211000062293432370E279104B1A71104A137808
:10212000013BDBB21370002B15D10E4B187880F3F6
:102130001088002010E000200EE081200CE0092033
:102140000AE0082008E0082006E0082004E0082053
:1021500002E0082000E0002002B070BD00600640F0
:10216000A0FCFF1F78FDFF1F10B50378DC072AD401
:1021700001290FD0002902D002291DD025E07F2A95
:1021800025D85200827118229343202213430370F2
:1021900000201FE010498A421BD88271D209062113
:1021A0000A40102149420A43C27128229343102257
:1021B0001343037000200DE03022934308221343A1
:1021C0000370002006E0082004E08D2002E0892052
:1021D00000E0892010BDC046FF0300000A4A1060DD
:1021E0000A4B5869402108435861186888431860B1
:1021F000074B9869074901408020400001439961DD
:10220000054BDA61101C70479CFCFF1F40F00F402B
:1022100000A00440FFF8FFFEB0FCFF1F4022014B6E
:102220009A60704740F00FF84022014B5A607047A7
:1022300040F00FF808B500F0BFF908BD08B5FEF78B
:102240006FFF08BDFFBE7047214B224A2249D15083
:10225000224B0021882252019950C0218902204A34
:102260009950204A9858C021C900014399501E4BEB
:102270009B781A0704D51C4B997808220A439A7058
:10228000164B80214902164A9950184A9858184905
:1022900001408020400401439950164B06221A70D9
:1022A000597840220A405A70D9781F220A40A0214A
:1022B0000A43DA708022104B1A700E4910228B7973
:1022C0001342FCD00B490C228B791342FCD170478E
:1022D000080D000000E000E0000000000070044075
:1022E000441000003810000000D007400410000027
:1022F000FFFFFFFC004006400050064038B5344B5D
:102300005A791F218A435A711A7907218A431A710F
:10231000304B1A7873218A4350210A431A705A7835
:1023200063218A4340210A435A709A7819218A43CB
:102330009A700022284B1A70284BD968284801400F
:1023400002221143D9601969014011431961196BC7
:102350000140114319632349C724A4000D592D04DA
:102360002D0C0D51204C6569954365611F4CA56A84
:1023700028400243A26258681D4A0240C0208000E3
:1023800002435A60C1239B00C8581A4A0240CA50EF
:10239000002000F031F9002000F080FAFFF7A8FBE0
:1023A00000F0AEF8002000F027F8002000F07CF8E4
:1023B000002000F04DF80020FFF710FF002000F093
:1023C000C7F80020FFF778FD00F0ACF862B638BD22
:1023D00000F0074000D0074000E0074000900440B4
:1023E000FDFFFFFE00E100E040F00F4000A00440D0
:1023F000FFF8FFFEFFFF00FF0A4A10600A4B586912
:10240000202108435861186801431960074B586937
:10241000074901408020400001435961054B1A6182
:10242000101C7047A4FCFF1F00F00F4000900440F8
:10243000FFF8FFFEB0FCFF1F2022014B9A6070479F
:1024400000F00FF82022014B5A60704700F00FF89F
:102450000A4A10600A4B586980210843586118687D
:1024600088431860074BD869074901408020400025
:102470000143D961054B9A61101C7047A8FCFF1FEE
:1024800040F00F4000A00440FFF8FFFEB0FCFF1F2B
:102490008022014B9A60704740F00FF88022014B78
:1024A0005A60704740F00FF80A4A10600A4B5869AA
:1024B000202108435861186888431860074B586901
:1024C000074901408020400001435961054B5A6192
:1024D000101C7047ACFCFF1F40F00F4000A00440F0
:1024E000FFF8FFFEB0FCFF1F2022014B9A607047EF
:1024F00040F00FF82022014B5A60704740F00FF86F
:10250000064B5968082211435960996891439960B4
:102510005969034A0A405A617047C04600F00F40AB
:10252000E7EFFFFF074B59688022D2000A435A6049
:102530009968054A0A409A605969044A0A405A61F2
:102540007047C04640F00F40FFFBFFFFFBFBFFFF63
:1025500010B5114B1860114A1360114A50681149A7
:102560000140802040000143516050680E49014005
:102570000E48014351600E4AC720800014582402BF
:10258000240A802109060C4314501068014311608D
:10259000084A1362181C10BDDCFCFF1FD8FCFF1F8B
:1025A00000A00440FFF8FFFEFFFFF0FE00000B015B
:1025B00000E100E0B0FCFF1F08B5084B1A68084BAB
:1025C0005B68D90108D5064B58688021490401434E
:1025D00059601068FEF7CCFD08BDC046D8FCFF1F4F
:1025E00000A00440034B1B699A0701D5012000E0BD
:1025F0000020704740F00F4030B51F4B98611F4AD4
:10260000136000221A6000219A809A819A60DA8110
:102610009A821A6199751A481A4A85588024E403E7
:102620002C438450184AC22080001558174C2C4067
:1026300080252D042C43145014688020C0002043B2
:102640001060134AD569134C2540C0208000054313
:10265000D561114A15682C40204310600F4A1E2096
:10266000107010205070917010784021014311704B
:102670000B4A1360181C30BDE4FCFF1FE0FCFF1F79
:10268000007004403410000000E100E0FFFF00FF94
:1026900000900440FFF8FFFE00A0044000600740E7
:1026A000B0FCFF1F30B583B0041C838A002B28D1F7
:1026B0006D46EFF3108072B6E871144D2878013042
:1026C000C0B22870012803D16846C579104805704A
:1026D0002161A2820022E281A27D01218A43A275AA
:1026E0000C4A107820210143117008490A78013AF8
:1026F000D2B20A70002A05D1054A107880F31088FA
:1027000000E00823181C03B030BDC046A0FCFF1F2A
:1027100078FDFF1F0060074038B5224B1C68224B34
:10272000DD78EDB26BB2002B19DAA389002B16D03D
:10273000A3685A1CA2601C4A52791A70A3880133FC
:102740009BB2A380A289934209D1174B19787F22AB
:102750000A401A700023A381A069FEF7E7FCAB06CC
:102760001FD5E289A38A9A4216D223695A1C226194
:102770001A780D4B5A71E38901339BB2E381A28A27
:1027800093420ED10023A382A27D01231343A3759C
:10279000A069FEF7C7FC04E0034B1A7820218A43A6
:1027A0001A7038BDE0FCFF1F0060074008B5FEF757
:1027B000BFFC08BD30B5021C1B4B586800282DD14A
:1027C0001A48C26001230372194B1860194A1A4B48
:1027D000D458802149042143D150184B00221A605B
:1027E0005A60DA605A61164A9A608022520002608A
:1027F00008224260134AC42189005558124C2C40CB
:1028000080252D022C4354501468802189022143D5
:10281000116040221A60044B586003E0C260037AE2
:102820000133037230BDC046B0FCFF1F04FDFF1F23
:1028300000FDFF1F007004403C10000000800340BA
:10284000B15D000000E100E0FF00FFFF044B1A68EB
:1028500098218A4341680A431A6000207047C046A5
:102860000080034008B50B4B1B680B4A1268110629
:1028700001D4002201E08022520019680A4207D0E8
:10288000054A1068802101431160D86800F02AF8D9
:1028900008BDC04600FDFF1F0080034010B5094C75
:1028A000A06000232371084B9C600020FFF782FF8B
:1028B0002060002803D10022034B9A6000E0014809
:1028C00010BDC04614FDFF1FB0FCFF1F08B5037903
:1028D000002B04D1012303710068FFF7B7FF00202C
:1028E00008BDC04608B5034B9B689868FFF75EFFBC
:1028F00008BDC046B0FCFF1FC046C046C04670477A
:102900000020C046C046C046C046C0460130092827
:10291000F7D9C0467047C04610B5041C03E0FFF766
:10292000EFFF643CA4B2642CF9D803E0FFF7E4FFA6
:102930000A3CA4B20A2CF9D810BDC04638B5041C14
:10294000064D04E0281CFFF7E7FF054BE418AC42F6
:10295000F8D8A0B2FFF7E0FF38BDC04660EA00003B
:10296000A015FFFF38B5041C044D04E0281CFFF738
:10297000E5FF013CA4B2002CF8D138BD64BB0000D7
:10298000640900005E0900005E09000054090000AF
:10299000B4080000B40800004A090000540900000F
:1029A000B40800004A090000B408000054090000FF
:1029B000B2080000B2080000B2080000EC090000F4
:1029C00001020408504B4342F8B5C046F8BC08BCAD
:1029D0009E467047F8B5C046F8BC08BC9E46704796
:0429E00039040000B6
:0429E40011040000DA
:0429E80001030000E7
:1029EC00E829000000FCFF1F0400000000000000AC
:0829FC000000000000000000D3
:040000030000187968
:00000001FF
