:10000000000C002079370000593E0000613E0000DE
:10001000613E0000613E0000613E0000613E000064
:10002000613E0000613E0000613E0000613E000054
:10003000613E0000613E0000613E0000613E000044
:10004000613E0000613E0000613E0000613E000034
:10005000613E0000613E0000613E0000613E000024
:1000600019420000613E000031490000613E00007D
:10007000613E0000613E0000613E0000FD3B00006B
:10008000613E00007D4A0000613E0000613E0000CC
:10009000613E0000613E0000613E0000613E0000E4
:1000A000613E0000613E0000613E0000613E0000D4
:1000B000613E0000613E0000613E0000513E0000D4
:10040000FFFFFFFFFFFFFFFFFFFFFFFF7EFBFFFF81
:1004100010B5064C2378002B07D1054B002B02D0DA
:10042000044800E000BF0123237010BD04FCFF1F3F
:10043000000000007062000008B5084B002B03D0DC
:100440000748084900E000BF07480368002B03D0B5
:10045000064B002B00D0984708BDC04600000000A6
:100460007062000008FCFF1F04FCFF1F000000007A
:10047000002934D00123002210B488422CD3012457
:100480002407A14204D2814202D209011B01F8E7EC
:10049000E400A14204D2814202D249005B00F8E7A5
:1004A000884201D3401A1A434C08A04202D3001BD1
:1004B0005C0822438C08A04202D3001B9C08224304
:1004C000CC08A04202D3001BDC082243002803D042
:1004D0001B0901D00909E3E7101C10BC7047002874
:1004E00001D00020C04307B4024802A14018029086
:1004F00003BDC046D90000000029F0D003B5FFF7C6
:10050000B9FF0EBC4243891A1847C046002941D0A2
:1005100010B4041C4C40A44601230022002900D53D
:100520004942002800D5404288422CD301242407A8
:10053000A14204D2814202D209011B01F8E7E40082
:10054000A14204D2814202D249005B00F8E788420E
:1005500001D3401A1A434C08A04202D3001B5C0886
:1005600022438C08A04202D3001B9C082243CC08E3
:10057000A04202D3001BDC082243002803D01B0941
:1005800001D00909E3E7101C6446002C00D5404265
:1005900010BC7047002806D003DB0020C043400891
:1005A00001E08020000607B4024802A14018029032
:1005B00003BDC046190000000029EBD003B5FFF7CA
:1005C000A7FF0EBC4243891A1847C0467047C04671
:1005D0008446101C62468C46191C634600E0C046E7
:1005E0001FB501F04DFB002801D40021C8421FBDFA
:1005F00010B501F07DFA4042013010BD10B501F098
:100600003FFB002801DB002010BD012010BDC046CB
:1006100010B501F035FB002801DD002010BD0120E0
:1006200010BDC04610B501F0ADFA002801DC002075
:1006300010BD012010BDC04610B501F0A3FA00287E
:1006400001DA002010BD012010BDC046F8B54302FC
:100650004400C50F4E024800240E2A1C9B09000EC0
:10066000C90FB6098D425BD0221A002A00DC89E04E
:1006700000281DD1002E00D075E0580704D00F22AD
:100680001A40042A00D004338021C90419402A1CCE
:1006900000293AD00134FF2C00D17FE09B015B0A96
:1006A0005B02E4B2E405580AD20720431043F8BDC8
:1006B000FF2CE2D08021C9040E431B2A00DD2DE16E
:1006C000311C2020D140821A9640721E96410E4362
:1006D0009B1B5801D1D59B019F09381C02F062FA7F
:1006E000421F974094425BDC141B1F231B1B3A1CC8
:1006F0009F40611C3B1CCA405F1EBB41134300244A
:10070000BBE7131EB9D100230022DB08FF2C04D164
:10071000002B43D08020C00303435B025B0ABFE78A
:10072000211A002940DD002823D0FF2CA5D08020ED
:10073000C00406431B2900DDEEE0301C2027C84022
:10074000791A8E40711E8E4106439B19590100D4BF
:1007500093E70134FF2C55D0714901221A400B4018
:100760005B08134389E7013A002AB1D0FF2CA4D1DA
:1007700083E7002E00D180E701390029E5D0FF2C66
:10078000D8D17AE7002A1BD1621CD2B2012A4BDDF4
:100790009F1B7A0123D5F71A0D1C9EE700237FE7E4
:1007A0005F4BA41A3B4068E7002946D1611CC8B2E0
:1007B000012829DDFF2924D0F3185B080C1C5CE715
:1007C000002C13D0FF2818D08024E4045242234385
:1007D0001B2A4DDD0123F31A041C0D1C79E7002FA1
:1007E00000D07AE70023002200248EE7002B3BD0C4
:1007F000D243002AEFD0FF28EAD1331CFF240D1C7E
:100800003BE7FF24002380E7002C5CD1002B00D1C4
:1008100080E0002E00D130E79B19580100D42CE76E
:100820003F4A0124134028E7002C15D1002B40D16A
:10083000002E63D0331C0D1C1FE7002C21D1002B90
:1008400054D0C943002904D0FF284CD01B2958DDBF
:1008500001239B19041C79E7002B19D1002E48D0E5
:10086000331C0D1CFF2408E7331C041C0D1C04E77B
:100870001C1C2025D440AA1A93405A1E934123439E
:10088000A9E7FF282FD08024E40449422343DDE771
:10089000FF24002E00D1F0E68022DB08D2031342B1
:1008A00004D0F608164201D1331C0D1CDB00FF24D6
:1008B000E3E6002E00D1E0E69A1B500100D420E7C9
:1008C000F31A0D1CD9E6002B0DD0FF24002E00D109
:1008D000D3E68022DB08D2031342E7D0F6081642A3
:1008E000E4D1331CE2E7331CFF24C6E6331C041CAE
:1008F000C3E6802300229B04FF2406E7231C00227A
:1009000003E71C1C2027CC40791A8B40591E8B41D1
:1009100023439EE7331CB0E6012616E70126D7E6FF
:10092000FFFFFFFBF0B55F4656464D464446F0B428
:100930004402460083B00F1C640A360EC50F002E19
:1009400041D0FF2E22D080231B0400201C43E40052
:100950007F3E82468046391C4B007F02C90F7F0ACA
:100960001B0E8B463BD0FF2B34D080221204174342
:10097000FF007F3B00215A466A40019252460A43DB
:100980000F2A63D87A48920082589746002C3FD1AC
:100990000822022392469846DDE701954046022848
:1009A0002AD1019A01251540FF2300246402DB05AA
:1009B000600AED071843284303B03CBC90469946B3
:1009C000A246AB46F0BD002C27D10420012282466E
:1009D0009046C0E7391C4A1E91410231CBE7012104
:1009E000002FC8D0381C02F0DDF8431F9F4076234B
:1009F0005B421B1A0021BEE7032800D1AEE00128AC
:100A00004FD1019842461040C5B200230024CDE7E3
:100A10000C2303209A4680469DE7201C02F0C2F872
:100A20007626431F9C4076420023361A9A46984603
:100A300091E780240025E403FF23B7E75B463C1CD5
:100A400001938846AAE73C1C8846A7E7250C2404A6
:100A50003A0C240C3F04F6183F0C211C231C79434C
:100A600053436F435543FB180A0C9B18B1469F42F2
:100A700002D980225202AD1809041A04090C521836
:100A800094011B0C611E8C41920EED181443AD01B4
:100A90002C43230105D50122630801201440814421
:100AA0001C434B467F33002B2DDD600704D00F2203
:100AB0002240042A00D00434220103D52D4B1C40CF
:100AC0004B468033FE2B17DD019B01251D40002482
:100AD000FF236BE78020C003044208D0074206D101
:100AE000041C3C436402640A5D46FF235EE7044342
:100AF0006402640AFF2359E70198A4010125640AEE
:100B0000DBB2054052E77E235B424A469B1A1B2B11
:100B100005DD019B01251D400024002346E7221C22
:100B2000DA404B469E339C40231C5C1EA34113437A
:100B3000580704D00F221A40042A00D004335A0167
:100B400005D5019B01251D40002401232EE70198B6
:100B50009C010125640A0540002327E78027FF0345
:100B6000019B3C43640201251D40640AFF231DE7ED
:100B7000D05F0000FFFFFFF7F8B5C20F430244004B
:100B80004D024800240E161C9B09000EC90FAD092A
:100B9000FF2800D183E0012779408A425CD0221AE5
:100BA000002A00DC8EE000281ED1002D00D07AE063
:100BB000580704D00F221A40042A00D004338021A1
:100BC000C90401221940324000293AD00134FF2CD7
:100BD00000D183E09B015B0A5B02E4B2E405580AA2
:100BE000D20720431043F8BDFF2CE1D08021C90477
:100BF0000D431B2A00DD31E1291C2020D140821A3F
:100C000095406A1E95410D435B1B5801D0D59B0151
:100C10009F09381C01F0C6FF421F974094425FDCD9
:100C2000141B1F231B1B3A1C9F40611C3B1CCA400A
:100C30005F1EBB4113430024BAE7131EB8D1002343
:100C40000022DB08FF2C04D1002B47D08020C003FA
:100C500003435B025B0ABFE7211A002944DD002839
:100C600027D0FF2CA4D08020C00405431B2900DD21
:100C7000F2E0281C2027C840791A8D40691E8D415A
:100C800005435B19590100D492E70134FF2C59D078
:100C9000734901221A400B405B08134388E7002D7B
:100CA00000D07AE777E7013A002AADD0FF2CA0D137
:100CB0007EE7002D00D17BE701390029E1D0FF2C30
:100CC000D4D175E7002A1BD1621CD2B2012A4BDDB8
:100CD0005F1B7A0123D5EF1A0E1C9AE700237BE7EE
:100CE0005F4BA41A3B4063E7002946D1611CC8B2A0
:100CF000012829DDFF2924D0EB185B080C1C57E7DD
:100D0000002C13D0FF2818D08024E404524223433F
:100D10001B2A4DDD0123EB1A041C0E1C75E7002F66
:100D200000D076E70023002200248AE7002B3BD086
:100D3000D243002AEFD0FF28EAD12B1CFF240E1C3F
:100D400036E7FF2400237CE7002C5CD1002B00D188
:100D500080E0002D00D12BE75B19580100D427E774
:100D60003F4A0124134023E7002C15D1002B40D12A
:100D7000002D63D02B1C0E1C1AE7002C21D1002B58
:100D800054D0C943002904D0FF284CD01B2958DD7A
:100D900001235B19041C75E7002B19D1002D48D0E5
:100DA0002B1C0E1CFF2403E72B1C041C0E1CFFE64F
:100DB0001C1C2026D440B21A93405A1E9341234350
:100DC000A9E7FF282FD08024E40449422343DDE72C
:100DD000FF24002D00D1EBE68022DB08D203134272
:100DE00004D0ED08154201D12B1C0E1CDB00FF24A2
:100DF000DEE6002D00D1DBE65A1B500100D41CE7D3
:100E0000EB1A0E1CD4E6002B0DD0FF24002D00D1D0
:100E1000CEE68022DB08D2031342E7D0ED0815426C
:100E2000E4D12B1CE2E72B1CFF24C1E62B1C041C85
:100E3000BEE6802300229B04FF2402E7231C00223D
:100E4000FFE61C1C2027CC40791A8B40591E8B4191
:100E500023439EE72B1CABE6012512E70125D3E6D1
:100E6000FFFFFFFBF8B55F46564644464D46F0B4DB
:100E70000C034D00CE0F610A440F2143C400180338
:100E800080465800400D8246D80F84464046400AAE
:100E9000530F0343D0006D0D371C83465246664501
:100EA00000D1A4E0AF1A002F00DC09E1002A3BD1F9
:100EB000184300D0EAE0630700D187E00F23234006
:100EC000042B00D182E0221DA242A441644280236F
:100ED00009191B040B40371C141C002B00D17CE0AB
:100EE000CE4B01359D4200D105E1CD4BE4081940C0
:100EF0004807490204430B0B002000211B031A0B77
:100F00000B0D6D051B0513436A08C64DFF071D40F9
:100F100015436D006D08291C3943201C3CBC9046CC
:100F20009946A246AB46F8BDBC488542C3D0802056
:100F300000040343382F00DDF0E01F2F00DD24E123
:100F40002020C01B1A1C814682405846F8400243AC
:100F5000944658464A469040421E9041FB406246A5
:100F600002431F1CA21A9442A4416442C91B091BDC
:100F7000141C0B029FD549024F0A002F00D1C8E074
:100F8000381C01F00FFE021C083A1F2A00DDB5E0F4
:100F90002821091A201C9740C840074394409542D5
:100FA00000DDB2E0551B691C1F2900DDDCE01F22BB
:100FB000551B3B1C221CAB40CA40AC40651EAC41DB
:100FC0001343CF401C43391C002574E780231B04C6
:100FD0000B40371C002B00D082E7904B4807E408F9
:100FE0000443C9089D4248D009030B0B84E7AA1AA1
:100FF0009446002A00DC98E05046002852D08748EA
:10100000854200D157E78020000403436246382A16
:1010100000DDFCE01F2A00DD4AE120226046101AB4
:101020001A1C82408246914658466246D0404A4643
:1010300002439046584652469040421E90414246D6
:1010400002436046C3401219A242A44164425918A7
:101050000919141C080200D42DE7704B01359D427C
:1010600000D122E16E4B60081940012323401C1C73
:101070000443CB071C4349081DE7231C0B433AD00C
:1010800080231B030B431B031B0B35E7013F002F82
:1010900065D15846221A9442A4416442C91A091BD8
:1010A000141C66E75846184300D104E70122524257
:1010B00094446046002800D0C5E058460219C3E7B2
:1010C000002F73D1681C4005400D012800DCDEE0D4
:1010D0005A46A21A9442BF41C81A7F42C71B38021F
:1010E00000D489E05A46141BA3459241591A524232
:1010F0008F1A664641E700230024FDE6271C2838A6
:1011000087400024954200DC4CE74549AD1A394040
:10111000D1E6201C01F046FD203034E75A461A4340
:10112000531E9A41D2B200271CE7002A00D0DCE00F
:10113000681C4205520D012A00DC8DE0374DA842A3
:1011400000D1F3E05D462A19A242A4416442591835
:101150000919CC07520814434908051CABE62F486F
:10116000854200D0E6E6A6E62B1C1F3B3A1CDA407F
:10117000131C20296CD03F22551BAF403C43601EFE
:1011800084411C430021002595E6381C20381A1C98
:10119000C240101C202F5DD04022D71BBB405A46B6
:1011A0001A43531E9A4102430027DBE6002D3BD031
:1011B0001A4DAA4500D193E080252D047F42294392
:1011C000382F00DDACE01F2F00DD29E12025ED1BCD
:1011D000081C261CA840FE40AC400643651EAC41DE
:1011E0003443F9405D462C1BA34592415B1A5242A1
:1011F000991A55466646BCE6131C3B43141C002B4B
:1012000000D0BAE60027002100250024E5E65A4672
:101210001A43531E9A41D2B2002314E7FF0700007D
:10122000FFFF7FFFFFFF0F800D1C254358D0FF43BA
:10123000002F51D1041BA3459241591A5242891AD9
:101240005546664695E69648854200D0DEE632E68B
:10125000002793E70023A2E7081C2043002D00D0BD
:10126000C4E0002800D1F7E05846184300D122E638
:1012700058460219A242A441644259180919141C83
:101280000A0200D417E6874B0125194013E6081C13
:101290002043002D39D1002871D15946194303D07C
:1012A000191C5C46664606E600270021002494E6E9
:1012B000604620381A1CC24060469146202800D162
:1012C000ACE04022121A93405A461A43531E9A41E8
:1012D0004B461A430023B6E6714DAA4500D06FE78E
:1012E000191C5C4655466646E5E5002D22D10D1CCD
:1012F000254377D0D543002D71D15C445C459241A4
:101300005918524289185546A4E600284DD159462D
:10131000194300D194E0191C5C466646604DCAE54D
:101320000C43611E8C41E4B200215BE7051C0021E7
:10133000002452E65A4DAA4554D05542802210044A
:101340000143382D00DD81E01F2D00DD92E02022D9
:10135000501B0A1C84468240201CE84002439046F1
:1013600062469440601E844142461443E9405C4416
:101370005C459241CB185242991855466AE6584648
:10138000184300D197E55846271ABC429241C81A23
:101390005242801A020266D55846041BA345924168
:1013A000591A5242891A664685E55846184333D081
:1013B0004807E40804438020C9080003014208D01C
:1013C000DD08054205D15946CA085C071443291CAB
:1013D0006646630FC9001943E400314D6BE5304A9E
:1013E0009245AED1191C5C46554664E5002836D0BE
:1013F0005846184310D080254807E408C9082D0333
:1014000004432942E5D0D8082842E2D15D46EA08E3
:101410005C071443011CDCE7214D4CE5002353E736
:101420003D1C203D0A1CEA40151C202F34D04026CC
:10143000F71BB9400C43611E8C412C430021D1E6BF
:1014400080210027C903164D0024C6E50C43611E08
:101450008C41E4B200218AE7191C5C462BE5191C7B
:101460005C460F4D27E5031C3B4300D11CE7011CE4
:101470003C1C20E52020404240190A1CC2409046F6
:10148000202D0BD04020451BA9400C43611E8C41F0
:1014900045462C4300216AE70021CBE70021F4E711
:1014A000FF070000FFFF7FFFF0B5564644465F464A
:1014B0004D46F0B41F1C0B031B0B98464B0087B026
:1014C000041C81465B0DC80F161C9A460090002B29
:1014D00051D06A4B9A4531D08022414652030A438B
:1014E000630FD2001A43664B90460025E2009146F6
:1014F0009A44002402953B031B0B9B46FD0F7B0087
:10150000311C5B0D019560D05C4A934254D0802120
:10151000584649030143720FC9001143584A8B468C
:101520009B18F1000020009A04436A4003920F2C9C
:1015300000D9ADE0534EA4003459A74640460443B9
:101540006ED1002102250824884689460295D2E7FB
:10155000009C0298C34649460194022864D003289F
:1015600000D1ABE2012800D038E2019A0024024009
:101570000025A14660E0434623434AD04046002868
:1015800000D1C0E101F00EFB031E272B00DDB3E10B
:1015900028210D1A211C083B4246E9409A400D1CA7
:1015A0001543221C9A40A8469146374B00251B1A2A
:1015B0009A46002402959EE75A4616430320002EC1
:1015C000B1D1B34600210220ADE75A4632431BD0C9
:1015D0005B46002B00D18AE1584601F0E3FA272848
:1015E00000DD7DE12822171A011C321C08395B46F8
:1015F000FA408B40171C1F43331C8B40BB46191C01
:10160000214B1B1A00208EE70027BB46002101203A
:1016100089E70020012504248046814602956AE777
:1016200003250C24029566E7019C0394039D012287
:101630002A400024114DA146002000212403260B3E
:101640000C0D2405114B34432D0523402B435B0027
:101650005B08D207191C4846114307B03CBC9046B2
:101660009946A246AB46F0BD002280242403914651
:10167000024DE1E700240025A146DDE7FF07000059
:1016800001FCFFFF106000000DFCFFFFFFFF0F805B
:101690005546ED1A0495D84500D953E100D14EE1E5
:1016A000049C0025013C4E4604944746A9465846F2
:1016B00003020C0E1C430902250C23041B0C009191
:1016C000381C291C0193FEF7D3FE01998346414340
:1016D000381C8A46291CFEF70FFF330C09041943F6
:1016E0008A450CD95B460919013B8C4200D947E178
:1016F0008A4500D844E102225242934409195346D4
:10170000CB1A181C291C9846FEF7B2FE071C01983C
:10171000291C784382464046FEF7EEFE36040B0451
:10172000360C33439A4509D91B197A1E9C4200D9BD
:1017300024E19A4500D821E1023F1B195E4632049C
:101740001743380CBB46009E009F51463F0C3204A5
:101750005B1A5946BA46120C0F043F0C904651468C
:101760007A434F434146414356467043CF19160CC6
:10177000BE19B14202D980277F02C019310C120470
:101780003604120C4018B618834200D2C4E000D1CF
:10179000BEE0191A4846861BB145BF417F42CF1BA8
:1017A000A74200D113E1291C381CFEF761FE019904
:1017B00002904143381C8946291CFEF79DFE330CDC
:1017C0000904194389450CD9029B0919013B8C4234
:1017D00000D9FFE0894500D8FCE0029F0919023FCB
:1017E00002974F46CF1B381C291C0597FEF740FE79
:1017F000071C0198291C784381460598FEF77CFE5A
:1018000036040904360C0E43B14509D936197B1E3E
:10181000B44200D9E0E0B14500D8DDE0023F36191E
:10182000029D4946761A290439430B0457460A0C8F
:101830001B0C40464546584355437B437A43EB18BF
:10184000070CDB199D4202D980256D0252191D0C2F
:1018500000041B04000C52191B18964235D300D10A
:10186000FCE001231943049E994FF519002D00DC7B
:10187000A1E0480709D00F230B40042B05D00B1D16
:101880008B42894149428B44191C5A46D20107D5E3
:10189000904B5C46049E80271C40FF00A346F51930
:1018A0008D4B9D427ADD039C0122224000248B4D0A
:1018B000A146C1E680242403474627424CD13C433D
:1018C0002403240B009A854DB6E63619481EB4420F
:1018D0005ED9011C9642C4D1009E9E42C1D1C2E78E
:1018E000031C283B311C99408B46002188E6301CA4
:1018F00001F058F9203072E6283B211C9940002263
:101900008846914651E6201C01F04CF920303BE618
:101910000021B14500D33DE7009F5A46B944B9457F
:10192000BF417F423F19FB18013A9C421ED29842A8
:1019300000D97EE000D1B5E0191A93462AE789451F
:1019400000D8ADE64846464642467708D3074608E3
:10195000C0071E438146AAE65846204212D10443DE
:1019600024032A1C240B89465C4D65E6A342E3D17F
:10197000009F4F45DBD9211A93460BE7171CDDE684
:101980009B46BCE63C432403240B009A534D53E68C
:10199000B24259D800D18AE0011C62E75F46C9080B
:1019A0007B07039E0B437C026D0501229946240BA5
:1019B0006D0D324040E64A4B049FDB1B382B10DD97
:1019C000039C0122224000240025A14634E6012187
:1019D000494248E7029304E71F1C21E7019C039456
:1019E00041E71F2B40DC3F48049F0C1C3A18584627
:1019F0009140DC40904020430A1C511E8A41011C4A
:101A000011435A46DA40131C480709D00F220A40F6
:101A1000042A05D00A1D8A42894149425B18111CDB
:101A20001A0234D5039C0122224000240125A1463C
:101A300002E6009F02214942B9448B44B9458941DD
:101A400049420919CB18A4E6009D881E6900A942E5
:101A5000AD416D422C19361900913AE7002B00D0A8
:101A600033E70024009437E71F4A049C5D46121BAD
:101A7000D5402A1C202B1FD01C4E5F46A3199F4027
:101A80003B1C19434B1E994111430023BCE75A07E5
:101A9000C9080A43039F91465B0201221C0B3A408E
:101AA0000025C9E54E45C4D89346002172E6009F43
:101AB0009F42C9D3011C0FE70023E2E780242403DF
:101AC0005F463C432403240B019A8946034DB3E54A
:101AD000FF030000FFFFFFFEFE070000FF070000FE
:101AE00002FCFFFF1E040000E2FBFFFF3E040000BB
:101AF000F0B55F4656464D464446F0B40D1C041CF6
:101B00008046E80F814618030F03000B3F0B83B09C
:101B100084461B48009749005E00DF0F490D92463E
:101B2000760DBB4681420CD01548864210D001206C
:101B3000B14215D003B03CBC90469946A246AB4694
:101B4000F0BD009F01202743F4D10D488642EED11D
:101B5000604602430120002AECD10120B142E9D1C4
:101B6000009B6345E6D1D045E4D1D94506D0002994
:101B7000E0D11C43201C441EA041DBE70020D9E734
:101B8000FF070000F0B55F4656464D464446F0B4A8
:101B9000CD0FDE0FAC461D032D0BB146374E0F03A4
:101BA0004C00AB465D0080463F0B640D92466D0DC8
:101BB000B44232D0314EB54235D0002C0ED138432C
:101BC00041424141081C002D0BD0002919D1CC45C0
:101BD0002DD0654668420123184318E0002DF6D148
:101BE000281C59460A4353425341002806D1002B72
:101BF000EDD0634658420123184308E00020002B33
:101C000005D14A46504250414042012318433CBC52
:101C100090469946A246AB46F0BD3E1C0643C9D04D
:101C200002204042F3E75E461643C6D0F8E7AC42D6
:101C300007DC0BDA61464842484140420123184321
:101C4000E5E76646704201231843E0E75F450AD89E
:101C50000ED000205F45DAD26546684268414042B6
:101C600001231843D3E76246504201231843CEE7CD
:101C7000D045F8D80020D045EED3C8E7FF070000D4
:101C8000F0B556464D4644465F46F0B40D1C83B051
:101C9000041C0190E80F814618030F03000B3F0B53
:101CA00084463548009749005E00DF0F490D924693
:101CB000760DB846814234D02F48864236D000296E
:101CC00018D0002E1FD1341C67463A43534253416B
:101CD000002C1FD00020002B05D14246504250411D
:101CE00040420123184303B03CBC90469946A246AB
:101CF000AB46F0BD0098044360426041041C002ED6
:101D0000E2D00028E9D1C14515D04F4678420123E1
:101D10001843E8E7002BF6D04B46584201231843FE
:101D2000E1E7009F02202743DDD1C5E76746022097
:101D30001743D8D1C3E7B14204DD4A4650420123DC
:101D40001843D0E7B14207DB00986045E4D80AD0D9
:101D5000009F00206745C6D24F46784278414042F6
:101D600001231843BFE7019A5245D5D8019A0020B4
:101D70005245F1D3B7E7C046FF070000F0B556461D
:101D800044465F464D46F0B41F1C0B031B0B9A469E
:101D90004B0087B0041C80465B0DC80F161C0293D5
:101DA0008146002B68D0694B0299994232D080223B
:101DB000534652031A43D200630F1A439246644AB1
:101DC000E000891880460291002400253B031B0B8C
:101DD0009B467800FB0F321C400D039300D175E049
:101DE0005A4B984269D08022594652030A43730FD6
:101DF000D2001A43564B9346C018F20000230399B1
:101E00004E4671401C430F2C00D9A9E0514EA4004E
:101E10003459A74653461C4300D087E00025AA4604
:101E2000A84608240225D1E74946022D6CD0032D8F
:101E300000D117E2012D00D058E10D40EDB2002491
:101E4000A9460023A0460020002125030A0D1C05F9
:101E50002D0B1205404B2A43134023435B004C4695
:101E60005B08E207191C4046114307B03CBC904692
:101E70009946A246AB46F0BD5346234350D0534645
:101E8000002B00D184E1504600F08CFE031E272B6E
:101E900000DD76E128210D1A211C083B5246E9405D
:101EA0009A400D1C1543221C9A40AA4690462B4B83
:101EB00000241B1A0293002588E75B461E43032378
:101EC000002E9CD1B3460022022398E75B463343A1
:101ED00021D05846002800D14EE100F063FE2728AB
:101EE00000DD42E128210F1A021C311C083A5B4632
:101EF000F94093400F1C1F43331C9340BB461A1CF0
:101F0000164B181A00237AE701230B400024994648
:101F1000A0460E4B97E70027BB46002201236EE741
:101F2000002104248A46884601254FE70C24032516
:101F30004CE700258024A9462403A846034B82E7EA
:101F4000DA46904603991D1C6FE7C046FF07000064
:101F500001FCFFFF50600000FFFF0F800DFCFFFF42
:101F6000029F160C381804904046070C0004000C21
:101F70001204120C031C5343041C3D1C74435543B0
:101F800098463B1C73436419A44644460293230CB1
:101F900063449D4204D9029D802464022D19029558
:101FA0001D0C039545462C041B04240C1C19059498
:101FB0005C46230C051C58432404240C8446381C1E
:101FC000604365435F438146CC44280C6044BB4674
:101FD000814502D980277F02BB442D04070C2D0CBC
:101FE000000440195546BC462F04E3448446280C9F
:101FF0003D0C2F1C5743B8462F1C77434243B9462C
:1020000047463F0C9144BA46D14446434A4502D91B
:1020100080225202B6184F463A0CB6183A04474688
:102020003F043F0CB8462F1C67435D43444358436D
:1020300065190190380C2D184244B846AC4204D9B9
:10204000019880235B02C0180190039C029F201C12
:102050006044C0196045A44147466442A4462B042D
:102060003C049946240C4C44A046D8448018C246EF
:10207000E24490429241574652429146F219E2455B
:10208000BF417F424B46BC46D845BF41D4187F4232
:1020900063461F432D0C7F19B24292414C45AD411E
:1020A00052426D421543019E7D19AB19E20D5B0250
:1020B000059F134342023A439A46531E9A41C30D69
:1020C000101C18436402204380465046C0010DD5C1
:1020D000454601225646049C6B082A401A43F307E2
:1020E00001341A43760804949046B246049E634F26
:1020F000F319002B61DD404640070BD00F22444608
:102100002240042A06D042460432424580414042E1
:10211000824490465546ED0107D5594B5646049FDB
:1021200080201E40C000B2463B18564A934200DD54
:10213000EAE644465546E2086807104301226C026D
:102140005B050A408046240B5B0D91467BE6DA4630
:1021500090461D1C69E680242403574627421CD163
:102160003C432403240B484B6DE6031C283B311CE5
:1021700099408B460022C3E6301C00F013FD20304E
:10218000ADE6283B211C994000228A4690468EE607
:10219000201C00F007FD203078E65846204207D189
:1021A000044303992403240B89469046364B4AE6A0
:1021B0003C432403240B344B45E6344B049E9B1BC9
:1021C000382B06DD01230B4000249946A04600234E
:1021D00039E61F2B25DC049C2D4D464660195246DE
:1021E00044468640DC4082405746301C2243DF4054
:1021F000441EA04102433B1C540709D00F2010404D
:10220000042805D0101D9042924152429B18021C96
:102210001D021AD501230B4000249946A046012334
:1022200011E61C48049C5546001BC540281C202B69
:1022300016D0194E5746A21997403A1C43461A43E6
:10224000531E9A4102430023D6E758075B02D20887
:102250001C0B01230B401043994680460023F2E5F6
:102260000022EBE780242403504601230443194055
:102270002403240B8946044BE5E5C046FF03000018
:10228000FFFFFFFEFE070000FF07000002FCFFFF4C
:102290001E040000E2FBFFFF3E040000F8B55F46AD
:1022A000564644464D46F0B40C034D00CF0F610A2C
:1022B000440F2143C4001803DE0F8046B44646464F
:1022C0005800760A530F3343D600D14A6D0DBA46F3
:1022D000400DB346904200D1F5E0624601267240BF
:1022E0009446674500D1ABE02F1A002F00DC11E1C6
:1022F00000283ED15846184300D0F1E0600700D1D5
:1023000097E00F232340042B00D122E1221DA2429B
:10231000A4416442802309191B04012750460B4045
:102320000740141C002B00D179E0B94B01359D42C8
:1023300000D10BE1B74BE4081940480749020443B8
:102340000B0B002000211B031A0B0B0D6D051B0549
:1023500013436A08B04DFF071D4015436D006D081B
:10236000291C3943201C3CBC90469946A246AB46EA
:10237000F8BDA7488542C1D0802000040343382F10
:1023800000DDFDE01F2F00DD31E12020C01B1A1C05
:102390005E468240FE40324394465A468240101CBC
:1023A000421E9041FB40624602431F1CA21A944207
:1023B000A4416442C91B091B141C0A029ED5490290
:1023C0004F0A002F00D1D6E0381C00F0EBFB021CB6
:1023D000083A1F2A00DDC3E02821231C091A974070
:1023E000CB401F439440954200DDC0E0551B691C63
:1023F0001F2900DDEAE01F22551B3B1C221CAB40BD
:10240000CA40AC40651EAC411343CF401C43391C4D
:10241000002573E780217E4D0027C90300247C4BF3
:102420004807E4080443C9089D4250D009030B0B38
:1024300087E780231B04012752460B40174071E7B2
:102440002A1A9446002A00DCA1E0002854D07048E3
:10245000854200D152E780200004034360463828BB
:1024600000DD0EE11F2800DD57E162462020801AC2
:102470001E1C8640B1465E46D6404A4632435E4602
:1024800086409046301C421E9041424602436046C0
:10249000C3401219A242A441644259180919141CDC
:1024A000080200D42AE75A4B01359D4200D131E1A0
:1024B000584B60081940012323401C1C0443CB07E0
:1024C0001C4349081AE71E4300D00AE705E7231C0E
:1024D0000B433BD080231B030B431B031B0B30E739
:1024E000013F002F6DD15E46A21B9442A44164427D
:1024F000C91A091B141C60E75846184300D1FDE6B1
:1025000001267642B4446046002800D0D0E05E4602
:102510003219BFE7002F00D080E0681C4005400D55
:10252000012800DCE8E05A46A21A9442BF41C81ACA
:102530007F42C71B3E0200D498E05846041BA345C7
:102540009241591A52428F1AE2463AE70023002478
:10255000F7E680231B04012756460B403740E1E68F
:10256000271C283887400024954200DC3EE7294993
:10257000AD1A3940C2E6201C00F014FB203026E7DB
:102580005A461A43531E9A41D2B200270EE7002A38
:1025900000D0DEE0681C4605760D012E00DC90E0E0
:1025A0001B4DA84200D1F5E05E463219A242A4417B
:1025B000644259180919CC07520814434908051CEC
:1025C0009CE61348854200D0D9E697E62B1C1F3BBA
:1025D0003E1CDE40331C20296FD03F22551BAF40EC
:1025E0003C43601E84411C430021002586E6381CC4
:1025F00020381E1CC640301C202F60D04022D71B24
:10260000BB405A461A43531E9A4102430027CDE667
:10261000FF070000FFFF7FFFFFFF0F80002D37D077
:10262000B64DA84200D18FE080252D047F4229437A
:10263000382F00DDA8E01F2F00DD24E12025ED1B51
:102640000E1CAE40B046261CFE404246AC4016432F
:10265000651EAC413443F9405A46141BA3459241D0
:102660005B1A5242991A051CE246A6E6131C3B432C
:10267000141C002B00D0A4E6002700210025002414
:10268000CDE65A461A43531E9A41D2B2002300E7C0
:102690000D1C254358D0FF43002F51D15A46141B1F
:1026A000A3459241591A5242891A051CE24684E612
:1026B0009248854200D0D1E620E6002790E700232B
:1026C0009FE7081C2043002D00D0C2E0002800D165
:1026D000EFE05846184300D110E658460219A242CE
:1026E000A441644259180919141C0A0200D405E6D1
:1026F000834B0125194001E6081C2043002D38D1E9
:1027000000286FD15946194303D0191C5C46E24694
:10271000F4E500270021002481E6604620381A1CD9
:10272000C2406646101C202E00D1AAE04022921B17
:1027300093405A461A43531E9A4102430023A8E687
:102740006E4DA84200D073E7191C5C46051CE2469A
:10275000D4E5002D22D10D1C254376D0D543002D84
:1027600070D15C445C459241591852428918051C4D
:1027700096E600284CD15946194300D14AE6191C67
:102780005C46E2465D4DB9E50C43611E8C41E4B206
:10279000002161E7051C0021002440E6574DA842B6
:1027A00053D05542802216043143382D7BDC1F2D37
:1027B00000DD8CE02022561B0A1CB446B240261CC9
:1027C000EE403243904662469440661EB441424613
:1027D0001443E9405C445C459241CB18524299183D
:1027E000051C5DE65846184300D187E55E46A71BE9
:1027F000BC429241C81A5242801A060260D558461D
:10280000041BA3459241591A5242891AE24675E5C2
:102810005846184333D04807E40804438020C908C9
:102820000003014208D0DD08054205D15946CA0817
:102830005C071443291CE246630FC9001943E400F6
:102840002E4D5BE52D4A9042AFD1191C5C46051C0C
:1028500054E5002830D05846184310D0802548074A
:10286000E408C9082D0304432942E5D0D8082842CA
:10287000E2D15D46EA085C071443011CDCE71F4D0A
:102880003CE5002355E73D1C203D0E1CEE40351C69
:10289000202F2ED04026F71BB9400C43611E8C41DF
:1028A0002C430021D8E60C43611E8C41E4B2002188
:1028B00090E7191C5C4621E5191C5C460F4D1DE58F
:1028C000031C3B4300D124E7011C3C1C16E52026D9
:1028D000764276190A1CF2409046202D0BD04026F5
:1028E000751BA9400C43611E8C4145462C430021B9
:1028F00070E70021D1E70021F4E7C046FF070000A0
:10290000FFFF7FFF70B50B1C124C09030E0B590023
:10291000021C490DDD0F0020A14211DD0E4881424D
:102920000FDC8020400306430C48401A1F280BDDB3
:102930000B4A521AD640321C5042002D00D1101CB6
:1029400070BD084BE818FBE7074BC240C9188E4022
:102950003243F1E7FE0300001D04000033040000D1
:1029600013040000FFFFFF7FEDFBFFFFF8B5041E1F
:1029700031D0C70F00D04442201C00F013F9184D8D
:102980002D1A0A2819DD0B38844024036D05240B09
:102990006D0D3A1C0026002000210B0D2403240B92
:1029A0001B0523430F4C2D051C402C436400640879
:1029B000D307211C301C1943F8BD061C1536231CF7
:1029C000B3401E1C0B23181AC44024036D05240BAE
:1029D0006D0D3A1CDFE70022002500240026DAE70F
:1029E0001E040000FFFF0F8043001B0E5A1C410213
:1029F000D2B270B54C0AC50F012A17DDE022920051
:102A00006407090B9818002200231E0D221C3405B0
:102A10000C431B4940054008214001434900490837
:102A2000ED070B1C2B43101C191C70BD002B15D17E
:102A3000002C1CD0201C00F0B5F80A281ADC0B2151
:102A4000091A231CCB40191C031C15339C400D4B49
:102A50000903181A4005090B400DD4E7002C03D0D8
:102A60006407090B0848CEE707480021CBE70020A0
:102A70000021C8E7011C0B398C40211C0024E6E72B
:102A8000FFFF0F8089030000FF070000F0B54B0037
:102A90000D03420F5B0D6D0A15435A1C5205CC0FF6
:102AA000C600520D012A27DD394FDA19FE2A1ADC39
:102AB000002A35DD8001ED00431E98412843760F42
:102AC0003043430704D00F230340042B00D00430CD
:102AD0008021C904014027D00132FF2A1DD0830183
:102AE0005B0AD1B201E0FF2100235802C905400A68
:102AF000E40708432043F0BD002B06D1354311D134
:102B00000021002043025B0AEFE72E43EBD0802038
:102B1000ED0080042843FF22D3E7FF210023E4E7F0
:102B200017320DDA05200022C008D1B2FF2AE9D100
:102B30000028D9D08023DB0303435B025B0AD4E780
:102B40008022144912041543C91A1F290DDC124AA8
:102B5000371C9B18281C9F4098403B1C5A1E9341D1
:102B60001843CE4030430022ABE70C4F2A1CFF1A1B
:102B7000FA40171C202909D0094A98188540281CBA
:102B80003043461EB041384300229AE70020F7E761
:102B900080FCFFFF9E03000082FCFFFF7E0300001D
:102BA000A2FCFFFF1C2101231B04984201D3000C4F
:102BB00010391B0A984201D3000A08391B099842B0
:102BC00001D30009043902A2105C40187047C046C6
:102BD00004030202010101010000000000000000E6
:102BE0007047C04608B500F023FB08BD7047C046DB
:102BF00008B500F09DFC08BD70B582B000246D469C
:102C00000635084E07E0E0B2291C00F043FEA300A1
:102C10002A889A510134032CF5DD0122024B1A60F7
:102C200002B070BD20FDFF1F20FCFF1F7047C04693
:102C300008B5034B186A01F0E1FD00F0CFFC08BDB8
:102C4000A8FCFF1F7047C0467047C0460160704730
:102C5000044B02685343044A9B1803605B00580C02
:102C60007047C046FD430300C39E26007047C04620
:102C70007047C0464843800101307047404300021E
:102C80000130704700230360094B8360C360094B28
:102C90000361436100238361C36103624362064BA6
:102CA0008362C362054B03638023DB054363704784
:102CB00000002041560EC93FCDCC4C3EC3F51C410F
:102CC00008B50023C36183618360202283542122DD
:102CD00083544363036303223823C2548430FFF7D1
:102CE000D1FF08BDF0B55F4656464D464446F0B4A8
:102CF00093B0061C8A46036B9B4643699946181C91
:102D0000FFF772FE01F09CFF0690079133690A936A
:102D1000181C4946FDF730FFFFF766FE029003914D
:102D200001F03AFF0090019106980799009A019BE3
:102D3000FFF724F8041C0D1C736B0B93181CFFF792
:102D400053FE049005910A98FFF74EFE01F078FFBC
:102D50000C900D91049805990C9A0D9BFFF70EF8B5
:102D6000021C0B1C201C291CFFF798FA041C0D1CCC
:102D70005846FFF739FE221C2B1CFEF7FFFF089078
:102D80000991F36A0F93736A0E930F98191CFDF75C
:102D9000C9FD011C0E98FDF7C5FDFFF725FE10903B
:102DA0001191B36A9846376A181C391CFDF7BAFDB1
:102DB000011C381CFDF7B6FDFFF716FE021C0B1CAC
:102DC00000980199FEF7DAFF021C0B1C109811996C
:102DD000FEF748F8041C0D1C0298039901F030FF1F
:102DE00002900391201C291C029A039BFEF7C6FF48
:102DF000021C0B1C08980999FFF750FA041C0D1CC3
:102E000000980199021C0B1CFEF7B8FF021C0B1C5A
:102E100004980599FFF742FA089009914046FFF798
:102E2000E3FD089A099BFEF7A9FF021C0B1C201C5E
:102E3000291CFEF739FBFFF729FE0490B0615846C4
:102E40000B99FDF76FFD8346009801990C9A0D9B35
:102E5000FEF794FF069A079BFFF720FA041C0D1C4F
:102E60005846FFF7C1FD221C2B1CFEF787FF06907A
:102E700007910B984146FDF755FD011C381CFDF7E5
:102E800051FD011C381CFDF74DFD8046009801994D
:102E9000109A119BFEF772FF041C0D1C4046FFF7B1
:102EA000A3FD221C2B1CFDF7DDFF021C0B1C02984E
:102EB0000399FEF763FF021C0B1C06980799FDF7A8
:102EC000D1FF041C0D1C0F98FFF78EFD021C0B1C7C
:102ED00008980999FEF752FF021C0B1C201C291CA4
:102EE000FEF7E2FAFFF7D2FD041CF06104985146A8
:102EF000FDF718FD011C381CFDF7A8FB051C30620E
:102F0000201C5146FDF70EFD011C0E98FDF79EFB9F
:102F1000041C70625046291CFDF704FD011C0A9830
:102F2000FDF794FB30615046211CFDF7FBFC011CB2
:102F30004846FDF78BFB706113B03CBC9046994648
:102F4000A246AB46F0BDC04602223823C2547047A9
:102F500008B5002903D100238360FFF7F5FF08BD02
:102F6000F0B5474680B4041C0F1C550F061C1036E4
:102F70009B08191C1031301CA822520000F0F8F9EF
:102F8000237AAB4210D0002D04D13979201C0C30AB
:102F9000FFF75CFE2572201C0C30FFF759FE800302
:102FA000F0231B06C0186060E188301C00F0E6F9D1
:102FB000A06904BC9046F0BD10B5041C081C00F0CC
:102FC0000DFA0314606B0012584310BDF0B547466C
:102FD00080B488B0041C2023C35C002B02D0013BCA
:102FE000202283542123E35C002B02D0013B2122C9
:102FF000A3543823E55C032D41D08020FA21C90079
:10300000FFF738FE060BE07843B2002B07DBFA210E
:10301000C900FFF72FFE060B0136002106E08038BD
:10302000FA21C900FFF726FE010B0131022D18D14C
:10303000002906D104223823E25480235B04636311
:103040001DE07748FDF714FA616B40186063744B1C
:10305000984214DD80235B04636304223823E25426
:103060000DE06F48311CFDF703FA626B101A6063C4
:10307000002804DC03223823E25400236363208801
:10308000FFF7FCFDA368C518A56027793E06AE19B9
:1030900026610023002103E0E21820329170013301
:1030A0000B2BF9DDE1688D420AD264222123E25420
:1030B000226B002A02D064222023E2543F062763B9
:1030C000236B984200D9181C181A206304D1002BD6
:1030D00002D064222023E254E5606661201C843023
:1030E0005049FFF7FFFDE178A06800F0AFF90490C8
:1030F000201CA168FFF760FF0590E378201C3C309E
:10310000211CA268FFF72CFF06908423E358079345
:10311000E178206900F09AF90090201C2169FFF7FE
:103120004BFF0190E378201C6030211C2269FFF7DF
:1031300017FF02908823E3580393A27804A8032181
:1031400000F06CF93849FDF7E1F9E061A2786846D2
:10315000032100F063F93449FDF7D8F9E1698022D1
:1031600012018B18E3618018A061304A934201DD9F
:10317000E26103E0002B01DA0023E3612B4B98426C
:1031800001DDA36103E0002801DA0023A361E56902
:10319000AB005B195B005B191E133703DF1B3F118C
:1031A000301C0C300C21FDF707FAFFB261182031FA
:1031B000FB438B70301C0D300C21FDF7FDF96118BD
:1031C00020318F70A3699F00FF187F00FB181E132A
:1031D0003703DB1B1F11FF23DB1B9846301C0C3011
:1031E0000C21FDF7E9F9631820339A78434693429E
:1031F00000DA131C611820318B70301C0D300C214B
:10320000FDF7DAF9631820339A78BA4200DA3A1CEB
:10321000611820318A70281C08B004BC9046F0BDAB
:10322000FFFFFF006F12833AFCFF0300FF0F000057
:1032300008B5002000F016FF0122014B1A7008BDEE
:1032400001FCFF1F38B5051C0C1C164B1B78002B0E
:1032500027D0002000F000FF012D11D12405230DFF
:10326000C024A4011C43230A0F490B704C70002298
:103270000C4B1A700D4B1868022201F01FFB10E076
:103280002405230DB02424021C43230A06490B7095
:103290004C700022034B1A70044B1868022201F094
:1032A0000DFB38BD01FCFF1F1CFDFF1FA8FCFF1F0D
:1032B00010B582B06C460023E371073480B2211C44
:1032C00000F038FF207802B010BDC04608B500F00D
:1032D000FBFE08BDF0B5474680B48846171C0024A5
:1032E00008E043461E19451CADB2FFF7E1FF307000
:1032F0000134281CBC42F4DB04BC9046F0BDC0463F
:10330000F8B50F1C161C002406E0451CADB2395D53
:10331000FFF7DCFF0134281CB442F6DBF8BDC046E1
:10332000C8239B00438096231B0103807047C0463F
:103330000023038080235B004380704738B500245E
:103340000A4D04E0A0004019FFF7F2FF0134052CFC
:10335000F8DD0024054D05E0A01D80004019FFF7B1
:10336000DFFF0134012CF7DD38BDC046F0FDFF1F43
:1033700009020180120242607047C04670B5C268FF
:103380000D038368ED1A141446686643AD1B05618E
:1033900001882D144D435219C26061435B1883604C
:1033A00070BDC0460A4A83189B049B145B431B13E1
:1033B000084A5A43921308498A1A53431B1480221D
:1033C0005201D31A420401D5584200E0181C70473C
:1033D00000E0FFFFBC0D0000BC4D000008B5400C34
:1033E000FFF7E0FF400408BD80107047002802DAB4
:1033F000E020000600E001487047C046FFFFFF1FC5
:10340000002803DA044B181A401003E0C0231B06FF
:10341000C01840107047C046FFFFFFBF10B54A43B9
:10342000D3B2591EC9B2FD2901D80133DBB2121241
:1034300091000C582412FF21C91A614301329200F5
:10344000105800124343C81810BDC04630B585B0AF
:10345000041C0D1CFFF7C2FF0090201CFFF7C4FFE7
:103460000190201CFFF7CCFF0290201CFFF7BEFF4D
:103470000390684603212A1CFFF7D0FF05B030BD3A
:10348000F0B5474680B4264B1A6801321A60254BC6
:103490001A7809321A70244B586901F031F9002466
:1034A000224D214F14E02B1920331B78002B04D020
:1034B0001D4A906900F0FCFD02E0B86900F0FEFDD5
:1034C000194EF06900F0B8FCF06900F0BBFC013463
:1034D000012CE8DD0024154F124E134B984616E0E0
:1034E0003B1B2B339A7833789A4204D90E4B986958
:1034F00000F0E4FD03E04246906900F0D9FD0A4D7A
:10350000E86900F099FCE86900F09CFC01340B2CA0
:10351000E6DD054B586901F0F9F804BC9046F0BDB2
:1035200034FCFF1F00FCFF1FA8FCFF1F34FDFF1F22
:1035300010B5124B1A6801321A60114A1368013330
:1035400013600122134002D0012B0CD012E00D4C6D
:10355000201C0D49FFF73AFDE1690C4B1960012071
:10356000FFF770FE06E0074B9969094B19600020D0
:10357000FFF768FEFFF784FF10BDC04624FCFF1F65
:1035800028FCFF1F34FDFF1F18FDFF1F30FCFF1F2D
:103590002CFCFF1F08B500201021FFF797FE01202B
:1035A00002490122FFF7ACFE08BDC04618FDFF1F0F
:1035B00010B50020FFF77CFE102809D1064C012031
:1035C000211C0122FFF786FE201CFFF751FB01E0C2
:1035D000FFF7E0FF10BDC04618FDFF1F08B5C1B2E0
:1035E0000248034AFFF7B4FC08BDC04634FDFF1F84
:1035F00018FDFF1FF8B500F08FFC1B48FFF760FBBC
:103600001A481B49FFF732FBFFF798FEFFF7D0FF80
:10361000184B986801F066FA012000F055F900F0A7
:103620000FF9002000F01CF9FFF72AFFFFF728FF31
:10363000114A12480C49124E151C00241368012B24
:10364000FCD1C7683B12DB43CB7087683B12DB437E
:103650008B7047683B12DB430B710768F31BDB1170
:103660000B802C60EAE7C04634FDFF1F30FDFF1FD2
:1036700018FDFF1FA8FCFF1F20FCFF1F20FDFF1FE0
:10368000FFFF000010B50F4B0F4AD21A18D012E0FE
:103690000B4204D1032A02D901C3043A0EE02342AB
:1036A00005D1012A03D918800233023A06E01870C6
:1036B0000133013A02E0032101240020002AE7D16E
:1036C00010BDC04604FCFF1F24FEFF1F30B588421A
:1036D00022D0002A1CD11FE00B4207D1034205D1A2
:1036E000032A03D910C910C0043A13E00D4209D1CE
:1036F000054207D1012A05D90C8804800230023125
:10370000023A07E00C78047001300131013A01E01F
:1037100003230125002ADFD130BDC046F8B5134B85
:10372000002B22D000241E1C1F1C1D1C09E063005E
:103730001B199B000D4AD31858689A68FFF7C6FFFB
:10374000013463001B199B0099590029EFD16300D4
:103750001B199B00FB185B68002BE8D163001B1949
:103760009B00EB189B68002BE1D1F8BD9462000030
:103770007047C0467047C04608B5FFF7F9FF00F034
:1037800071FB0A4B181C002805D0854681B000202B
:10379000C043009001B0FFF775FFFFF7BFFFFFF7D1
:1037A000E9FF00200249FFF725FFFEE7000C00209B
:1037B00038FCFF1F034B00221A805A809A80DA805F
:1037C0007047C04610FEFF1F10B5164B1B78002B2C
:1037D00027D0144B1B78032B09D00024124B1C70EC
:1037E000124B1C70FFF7E6FF114B1C7010E00F4BE3
:1037F0001A78D2B20F49885C0B4A11788143117054
:103800001978490000200C4A88521A78084B1A701F
:103810000A4C20680649012200F062F9206800F095
:1038200049F910BD62FCFF1F60FCFF1F61FCFF1F18
:1038300064FCFF1F9060000010FEFF1F18FEFF1FBA
:1038400008B5064B1B78002B06D10222034B1A70D9
:10385000FFF7BAFF002000E0082008BD62FCFF1F50
:1038600010B5041C0A4B1B78002B0CD10122084B0D
:103870001A70FFF7A9FF002C07D0054A1378012B17
:10388000FCD0002002E0082000E0002010BDC0466F
:1038900062FCFF1F03280CD8084B1B5C084A1278F7
:1038A0001A4208D04000074BC35A1B010B8000206E
:1038B00002E0022000E009207047C046906000004E
:1038C00060FCFF1F10FEFF1F38B5041C134B1B7854
:1038D000002B1CD10422114B1A70114D286800F0E6
:1038E0002DF9286800F056F9002C12D00C4C2068F5
:1038F00000F024F90028FAD0094B186800F062F9AA
:10390000002808D00022054B1A701B2004E0082074
:1039100002E0002000E0002038BDC04662FCFF1F2E
:1039200018FEFF1F10B52B4B1B78042B09D12A4B17
:10393000186800F047F90022264B1A70FFF776F955
:1039400046E0244B1B78032B2CD0244C21784900D3
:10395000234BC918204B186800F0DEF82378013398
:10396000DBB223702378042B0FD100221B4B1A707B
:103970000F221C4B1A70FFF73FF9164B1B78012BD7
:1039800003D10022134B1A7022E0144B1B78164906
:103990000B70114C2068012200F0A2F8206800F0A2
:1039A00089F815E00D4C217849000D4BC9180A4BD8
:1039B000186800F0B1F82378DBB20C4AD25C094BEE
:1039C00019780A431A70FFF717F90022014B1A7091
:1039D00010BDC04662FCFF1F18FEFF1F61FCFF1FE9
:1039E00010FEFF1F60FCFF1F64FCFF1F90600000C3
:1039F00008B50023044A1370044A1370002000F035
:103A000009F8034B186008BD60FCFF1F62FCFF1F34
:103A100018FEFF1F30B51D4B58601D4A1360002073
:103A2000187098701B491C4A8D58802424052C431B
:103A30008C501A4AC321890055582D022D0A802422
:103A400024062C435450146880210902214311603C
:103A5000134A546B13490C405463D46A0C40D4622B
:103A6000114A146A0C401462546A214051620F4A90
:103A700057219160D1680F24A143D1601062402189
:103A800051620B4AD360181C30BDC0466CFCFF1F4E
:103A900068FCFF1F007004403C10000000E100E0E3
:103AA00000A00440FFF8FFFE0090044000B0034077
:103AB000A8FCFF1F094B1B6A1A060CD4074B5A6A55
:103AC00048218A435A621A6A40218A431A6242781C
:103AD0001A60002000E008207047C04600B0034094
:103AE00010B5012A0ED10A4B1B6A1C060CD40270B9
:103AF0000B78032B0AD8074AD25C40231343437048
:103B0000002004E0962002E0082000E0822010BDA2
:103B100000B003409460000030B50023064D06E07D
:103B20005A001C1DA40064598C520133DBB2027888
:103B30009A42F5D8002030BD00B0034082B0031C8B
:103B40006A46EFF3108072B6D07110490A780132DC
:103B5000D2B20A70012A03D16A46D1790C4A117097
:103B6000997800229A70094A1378013BDBB21370EE
:103B7000002B03D1064B187880F31088002901D060
:103B8000012000E0002002B07047C0467CFCFF1F0F
:103B900022FEFF1F0A4B1B6A1A060ED4084B1A6A34
:103BA00040218A431A625F221A605A6AC0218A43FE
:103BB00080210A435A62002000E008207047C04676
:103BC00000B003400C4B5B6A5A0612D40A4BDA6C05
:103BD000996C89185A6C51181A6C5118DA6B511873
:103BE0009A6B51184908802212020A43DA620020B7
:103BF00000E01B207047C04600B0034008B5054BED
:103C00001B6801229A705868FFF78CFE024B1B69F3
:103C100008BDC04668FCFF1F00B00340F0B583B08C
:103C2000071C0C1C161C002903D100231380002044
:103C30003BE06B46EFF3108072B6D8711C4D2B78C9
:103C40000133DBB22B70012B03D16B46DA79194BB0
:103C50001A70194B1868391C221C002300F0F2FB63
:103C600008280CD1124A1378013BDBB21370002BE9
:103C70001AD1104B187880F310880C2015E00F4BE8
:103C80001C800F4B197820220A431A70084A1378B7
:103C9000013BDBB21370002B03D1064B187880F385
:103CA00010883480002000E00C2003B0F0BDC04636
:103CB0007CFCFF1F22FEFF1F1CFEFF1F74FCFF1F6A
:103CC00076FCFF1FF0B583B0071C0C1C161C0029E6
:103CD00003D100231380002039E06B46EFF31080FE
:103CE00072B6D8711B4D2B780133DBB22B70012BD0
:103CF00003D16B46DA79184B1A70184B1868391CC7
:103D0000221C012300F020FC08280CD1114A137852
:103D1000013BDBB21370002B18D10F4B187880F3E6
:103D200010880C2013E00E4B197820220A431A70D9
:103D3000084A1378013BDBB21370002B03D1064B0A
:103D4000187880F310883480002000E00C2003B045
:103D5000F0BDC0467CFCFF1F22FEFF1F1CFEFF1FA4
:103D600076FCFF1F084B1B782020184009D1074B19
:103D70009A7820218A439A709A7810218A439A70FF
:103D800000E00C207047C04676FCFF1F0060064034
:103D900008B5054B1B687F220240181C002100F06B
:103DA00055FCC0B208BDC0461CFEFF1F08B500226E
:103DB000034B1A80002000F0EBFA024B186008BD9C
:103DC00074FCFF1F1CFEFF1F08B5044B1A7820214E
:103DD0008A431A70FEF738FF08BDC04676FCFF1F05
:103DE00008B5044B1A7820218A431A70FEF72AFF7F
:103DF00008BDC04676FCFF1F0A4A10600A4B58698E
:103E0000402108435861186888431860074B986937
:103E1000074901408020400001439961054BDA6168
:103E2000101C704778FCFF1F40F00F4000A00440BA
:103E3000FFF8FFFEA8FCFF1F4022014B9A6070476D
:103E400040F00FF84022014B5A60704740F00FF8E5
:103E500008B500F0BDFC08BD08B5FEF7C1FE08BD01
:103E6000FFBE7047214B224A2249D150224B0021EC
:103E7000882252019950C0218902204A9950204A33
:103E80009858C021C900014399501E4B9B781A07CE
:103E900004D51C4B997808220A439A70164B80214E
:103EA0004902164A9950184A9858184901408020EA
:103EB000400401439950164B06221A70597840224B
:103EC0000A405A70D9781F220A40A0210A43DA70AA
:103ED0008022104B1A700E4910228B791342FCD0AD
:103EE0000B490C228B791342FCD17047080D00005E
:103EF00000E000E0000000000070044044100000FA
:103F00003810000000D0074004100000FFFFFFFC45
:103F1000004006400050064038B5354B5A791F2105
:103F20008A435A711A7907218A431A71314B1A78D8
:103F300073218A4350210A431A705A7863218A43B5
:103F400040210A435A709A7819218A439A700022B4
:103F5000294B1A70294BD968294801400222114384
:103F6000D9601969014011431961196B014011436E
:103F700019632449C724A4000D592D042D0C0D519B
:103F8000214C656995436561204CA56A2840024330
:103F9000A26258681E4A0240C020800002435A6054
:103FA000C1239B00C8581B4A0240CA50002000F0A1
:103FB0002FFC002000F07EFDFFF71AFD00F0ACFBA7
:103FC000002000F029F8002000F07AFB002000F02B
:103FD0004FF80020FFF710FF002000F0C5FB00F0B5
:103FE000ADFBFFF7E3FE00F001F962B638BDC04655
:103FF00000F0074000D0074000E007400090044078
:10400000FDFFFFFE00E100E040F00F4000A0044093
:10401000FFF8FFFEFFFF00FF0A4A10600A4B5869D5
:10402000202108435861186801431960074B5869FB
:10403000074901408020400001435961054B1A6146
:10404000101C704780FCFF1F00F00F4000900440E0
:10405000FFF8FFFEA8FCFF1F2022014B9A6070476B
:1040600000F00FF82022014B5A60704700F00FF863
:104070000A4A10600A4B5869802108435861186841
:1040800088431860074BD8690749014080204000E9
:104090000143D961054B9A61101C704784FCFF1FD6
:1040A00040F00F4000A00440FFF8FFFEA8FCFF1FF7
:1040B0008022014B9A60704740F00FF88022014B3C
:1040C0005A60704740F00FF870B582B0051C0E1CA6
:1040D0004005400F5023184300F058F8041E03D049
:1040E00000F05CF8201C22E001A805704670022157
:1040F000002200F065F8041E03D000F04FF8201CE9
:1041000015E0FF2201AB1A70002000F037FD01A876
:1041100001210022642300F06BF8041EF4D1002872
:1041200003D000F03BF8201C01E000F037F802B0AB
:1041300070BDC04630B583B00D1C6B46D8714305C9
:10414000580F5023184300F021F8041E03D000F04C
:1041500025F8201C18E0684607300121012200F0F4
:104160002FF8041E03D000F019F8201C0CE0281CC6
:104170000121002200F014F8041E03D000F00EF814
:10418000201C01E000F00AF803B030BD08B5FFF7CD
:10419000FFFD002800D01B2008BDC046002070474E
:1041A00010B582B0141C6A460632FFF78BFD00285A
:1041B00003D1002C01D1FFF7D5FD02B010BDC046E0
:1041C00030B583B0151C6A460632FFF727FD041E82
:1041D00002D0FFF7C7FD06E0002D01D0022D02D16D
:1041E000FFF7C0FD041C201C03B030BD7047C04663
:1041F00030B583B0151C6A460632FFF70FFD041E6A
:1042000002D0FFF7AFFD04E0002D02D1FFF7AAFDB9
:10421000041C201C03B030BD10B55B4B1B685B4A0F
:10422000D178C9B2D0781224A0430843D0709278D4
:10423000900600D497E0554A9278D00668D5CA0710
:1042400012D5524A917820208143917091781020A4
:104250008143917000229A819A801A7801218A43C1
:1042600006210A431A708DE01A78900748D599897B
:1042700000290BD001399981DA890132DA811A6972
:10428000511C19611278414B1A717BE09988002901
:1042900023D0500713D5012905D13C4B997808222A
:1042A0000A439A7004E0394B9A7808218A439A703D
:1042B000364B9A7810218A439A701B7962E0334A10
:1042C000907804210843C0B29070DC78012020432C
:1042D00010711A781143197054E001218A431A7041
:1042E0005A78012A08D1294A917820208143917077
:1042F00091781020814391705869FFF765FD41E086
:104300009978224A1171197802220A431A7039E009
:104310009A88013A92B29A80D9880131D980002ACC
:1043200007D0012A12D1194A9078082101439170CF
:104330000CE01A7801218A431A70144A91782020DF
:104340008143917091780820814391709A68511C43
:1043500099600E49097911709A88002A12D158691A
:10436000FFF73EFD0EE0CA060CD500229A819A8026
:1043700001225A70197891431970044B9A781021D0
:104380008A439A7010BDC04688FCFF1F006006403B
:1043900070B5234B5861234A136020221A701022F3
:1043A0009A7001225A7000220020DA809A80DA8105
:1043B0009A811D491D4A8D5840242C438C501C4A1B
:1043C0009070502191710221D1701A490E691A4DD5
:1043D0002E408024A40026430E61CE6835402C4335
:1043E000CC601649C224A4000D59FF26B54380268F
:1043F00035430D510D68802464002C430C605071CE
:1044000090712C21517090788021014391709078A7
:104410004021014391700A4A5362181C70BDC04686
:104420008CFCFF1F88FCFF1F00700440341000004C
:104430000060064000A00440FFF8FFFE00E100E03D
:10444000A8FCFF1F30B583B0041C002A67D0407859
:1044500001280AD13948C078850662D42078C5077A
:1044600061D4A089002860D105E02078C5075ED41A
:10447000A08900285DD16D46EFF3108072B6E87117
:104480002F4D28780130C0B22870012803D168462A
:10449000C5792C48057025780120284320702161BA
:1044A0000021E181A2816370244B997810220A4394
:1044B0009A709B789A0605D5204B997804220A4376
:1044C0009A7004E01D4B997820220A439A70237851
:1044D0009D0606D5062213432370A278174B1A7146
:1044E00010E0DA0606D5062293432370E278134BD8
:1044F0001A7107E01D0705D502221343237000221D
:104500000E4B1A710E4A1378013BDBB21370002B6D
:1045100011D10C4B187880F3108800200CE000209B
:104520000AE0082008E0082006E0082004E008204F
:1045300002E0082000E0002003B030BD006006402B
:104540007CFCFF1F22FEFF1F70B582B0041C002AF6
:1045500063D0002B63D00078050762D46578012D05
:1045600009D1374DED78AE065DD4C5075DD4A0887E
:1045700000285CD104E0C6075BD4A08800285AD18B
:104580006D46EFF3108072B6E8712E4D2878013039
:10459000C0B22870012803D16846C5792A48057041
:1045A0002578012028432070A1600021E180A280AD
:1045B0006370234B997810220A439A709B789A066D
:1045C00005D51F4B997804220A439A7004E01C4BCE
:1045D000997820220A439A7023789D0608D50622EE
:1045E00013432370A27801231A43154B1A7107E075
:1045F000DE0605D5062293432370E278104B1A712C
:10460000104A1378013BDBB21370002B15D10E4B0F
:10461000187880F31088002010E000200EE0812040
:104620000CE009200AE0082008E0082006E0082045
:1046300004E0082002E0082000E0002002B070BD85
:10464000006006407CFCFF1F22FEFF1F10B50378B0
:10465000DC072AD401290FD0002902D002291DD05D
:1046600025E07F2A25D85200827018229343202209
:104670001343037000201FE010498A421BD8827048
:10468000D20906210A40102149420A43C270282259
:10469000934310221343037000200DE03022934314
:1046A000082213430370002006E0082004E08D2058
:1046B00002E0892000E0892010BDC046FF03000011
:1046C0000A4A10600A4B586920210843586118684B
:1046D00088431860074B5869074901408020400013
:1046E00001435961054B5A61101C7047A4FCFF1F20
:1046F00040F00F4000A00440FFF8FFFEA8FCFF1FA1
:104700002022014B9A60704740F00FF82022014BA5
:104710005A60704740F00FF8064B59680822114361
:1047200059609968914399605969034A0A405A61EE
:104730007047C04600F00F40E7EFFFFF074B596896
:104740008022D2000A435A609968054A0A409A605A
:104750005969044A0A405A617047C04640F00F4008
:10476000FFFBFFFFFBFBFFFF10B5114B1860114A69
:104770001360114A506811490140802040000143F4
:10478000516050680E4901400E48014351600E4A85
:10479000C720800014582402240A802109060C43F3
:1047A0001450106801431160084A1362181C10BDB0
:1047B000D4FCFF1FD0FCFF1F00A00440FFF8FFFE49
:1047C000FFFFF0FE00000B0100E100E0A8FCFF1F6E
:1047D00008B5084B1A68084B5B68D90108D5064B29
:1047E000586880214904014359601068FEF720FA97
:1047F00008BDC046D0FCFF1F00A00440034B1B694E
:104800009A0701D5012000E00020704740F00F40DA
:1048100030B51F4B98611F4A136000221A600021B7
:104820009A809A819A60DA819A821A6199751A48F7
:104830001A4A85588024E4032C438450184AC22025
:1048400080001558174C2C4080252D042C43145003
:1048500014688020C00020431060134AD569134CAF
:104860002540C02080000543D561114A15682C40C1
:10487000204310600F4A1E2010701020507091705D
:1048800010784021014311700B4A1360181C30BD91
:10489000DCFCFF1FD8FCFF1F007004403410000038
:1048A00000E100E0FFFF00FF00900440FFF8FFFE82
:1048B00000A0044000600740A8FCFF1F30B583B093
:1048C000041C838A002B28D16D46EFF3108072B64A
:1048D000E871144D28780130C0B22870012803D146
:1048E0006846C579104805702161A2820022E281E4
:1048F000A27D01218A43A2750C4A10782021014330
:10490000117008490A78013AD2B20A70002A05D11A
:10491000054A107880F3108800E00823181C03B0C3
:1049200030BDC0467CFCFF1F22FEFF1F0060074019
:1049300038B5224B1C68224BDD78EDB26BB2002BF0
:1049400019DAA389002B16D0A3685A1CA2601C4A4E
:1049500052791A70A38801339BB2A380A289934233
:1049600009D1174B19787F220A401A700023A381BE
:10497000A069FEF73BF9AB061FD5E289A38A9A42EC
:1049800016D223695A1C22611A780D4B5A71E38999
:1049900001339BB2E381A28A93420ED10023A3820A
:1049A000A27D01231343A375A069FEF71BF904E060
:1049B000034B1A7820218A431A7038BDD8FCFF1F98
:1049C0000060074008B5FEF713F908BD30B5021CBA
:1049D0001B4B586800282DD11A48C260012303726E
:1049E000194B1860194A1A4BD458802149042143A5
:1049F000D150184B00221A605A60DA605A61164A88
:104A00009A6080225200026008224260134AC42148
:104A100089005558124C2C4080252D022C435450AF
:104A20001468802189022143116040221A60044BDE
:104A3000586003E0C260037A0133037230BDC046A0
:104A4000A8FCFF1FFCFCFF1FF8FCFF1F00700440C8
:104A50003C10000000800340B15D000000E100E078
:104A6000FF00FFFF044B1A6898218A4341680A43FC
:104A70001A6000207047C0460080034008B50B4B09
:104A80001B680B4A1268110601D4002201E0802243
:104A9000520019680A4207D0054A10688021014374
:104AA0001160D86800F02AF808BDC046F8FCFF1F66
:104AB0000080034010B5094CA06000232371084B0F
:104AC0009C600020FFF782FF2060002803D10022B5
:104AD000034B9A6000E0014810BDC0460CFDFF1F6B
:104AE000A8FCFF1F08B50379002B04D10123037133
:104AF0000068FFF7B7FF002008BDC04608B5034BAC
:104B00009B689868FFF75EFF08BDC046A8FCFF1FC2
:104B1000C046C046C04670470020C046C046C0469A
:104B2000C046C04601300928F7D9C0467047C04684
:104B300010B5041C03E0FFF7EFFF643CA4B2642C43
:104B4000F9D803E0FFF7E4FF0A3CA4B20A2CF9D835
:104B500010BDC04638B5041C064D04E0281CFFF704
:104B6000E7FF054BE418AC42F8D8A0B2FFF7E0FF2E
:104B700038BDC04660EA0000A015FFFF38B5041C30
:104B8000044D04E0281CFFF7E5FF013CA4B2002C13
:104B9000F8D138BD64BB000010B5021C26480B1CC0
:104BA000490086B0490881421EDD2448814205DD66
:104BB000101C191CFDF772FB06B010BD101C191C4F
:104BC00002AA00F095F80323184001281DD00228FE
:104BD00011D0002824D0012402980399049A059B3F
:104BE000009400F0FDFFE7E7101C191C114B104A60
:104BF00000F0BAFAE0E7049A059B0298039900F0E6
:104C0000B3FA80231B06C918D6E7049A059B0090C7
:104C10000298039900F0E4FF80231B06C918CBE734
:104C200002980399049A059B00F09EFAC4E7C046D7
:104C30000000000000000000FB21E93FFFFFEF7FC4
:104C400010B5021C28480B1C490086B04908814257
:104C50001FDD2648814205DD101C191CFDF71EFBD7
:104C600006B010BD101C191C02AA00F041F8032365
:104C70001840012822D0022814D0002825D0049AF8
:104C8000059B0298039900F06FFA80231B06C91850
:104C9000E6E700210091101C191C124B104A00F08D
:104CA0009FFFDDE70124049A059B02980399009475
:104CB00000F096FF80231B06C918D1E7049A059BD4
:104CC0000298039900F050FACAE701240298039968
:104CD000049A059B009400F083FFC1E7C046C046DC
:104CE0000000000000000000FB21E93FFFFFEF7F14
:104CF000F0B556464D4644465F46F0B44B005E085C
:104D0000A34B91B0041C0D1C91468A469E4200DCC8
:104D100086E0A04B9E4223DC002900DCCEE1291C6A
:104D20008C4B8B4AFDF7BAFA9B4B041C0D1C9E4220
:104D300000D18FE0884A894BFDF7B0FA021C0B1CAA
:104D400049460A604B60201C291CFDF7A7FA824ADD
:104D5000824BFDF7A3FA4A469060D160012067E0DC
:104D60008E4B9E4200DC91E08D4B9E4267DC8D496C
:104D70003315C9180B05F51A8B46291C041CFDF7C1
:104D8000C1FDFDF7F3FD021C0B1C201C291C0A921F
:104D90000B93FDF783FA724A724BFCF7EFFF0F1C7F
:104DA000061CFDF7AFFDFDF7E1FD041C0D1C221CE8
:104DB0002B1C301C391C0C940D95FDF76FFA684ABA
:104DC000684BFCF7DBFF684A684B0E900F91FBF7CE
:104DD0000FFC002800D192E1634A644B201C291C7F
:104DE000FBF706FC431E984102231B1A0222009285
:104DF0006D4A0AA8019249465A4600F0D9FA52462D
:104E0000002A15DA4C466468802109066318494671
:104E1000CA68802424064B601319CB60404207E027
:104E2000111C14605560504A504B8A60CB600020C2
:104E300011B03CBC90469946A246AB46F0BD221C40
:104E40002B1CFDF72BFA4A469060D1601060516030
:104E50000020EDE7464A474BFDF720FA464A474B0C
:104E6000041C0D1CFDF71AFA021C0B1C49460A60B3
:104E70004B60201C291CFDF711FA3F4A3F4BFDF700
:104E80000DFA4A469060D1600120D1E700F054FF4E
:104E90003B4A3C4B041C0D1CFCF770FF3A4A3B4B51
:104EA000FBF7E0FFFDF72EFD8346FDF75FFD294B85
:104EB000274A04900591FCF761FF021C0B1C201C83
:104EC000291CFDF7EBF9244A244B02900391049826
:104ED0000599FCF753FF5B460690079102980399EA
:104EE0001F2B65DC5A46013A304B9200D358B3422F
:104EF0005ED0069A079BFDF7D1F90D1C0F1C041C10
:104F000049460C604D60804642463B1C029803991E
:104F1000FDF7C4F9069A079BFDF7C0F94A46041C41
:104F20000D1C9460D5605446031C5846002C00DBD1
:104F30007EE744461460802212064C46BF1889184A
:104F40006760A360E160404272E7C046C046C04669
:104F500000004054FB21F93F3163621A61B4D03D37
:104F60000000000000007041000000000000000090
:104F70000000601A61B4D03D7370032E8A19A33B00
:104F800083C8C96D305FE43F000000000000E03FCF
:104F9000FB21E93F7BD90240FB21F93FFB2139414D
:104FA000FFFFEF7FEAFBFFFF186100009860000041
:104FB000069A079BFDF772F94B00041C0D1C4A462C
:104FC00036155B0D80460F1C14605560F31A102BCC
:104FD0009ADD584B564A04980599FCF7CFFE041CFD
:104FE0000D1C221C2B1C02980399FDF757F9089001
:104FF0000991089A099B02980399FDF74FF9221C21
:105000002B1CFDF74BF94C4A4C4B041C0D1C04980F
:105010000599FCF7B3FE221C2B1CFDF73FF9069007
:105020000791069A079B08980999FDF737F94B46AF
:105030000D1C041C1C605D604B005B0D0F1C80464A
:105040000899099AF31A02910392312B00DC5BE76D
:105050003B4A3C4B04980599FCF790FE041C0D1C40
:10506000221C2B1C02980399FDF718F9029003915A
:10507000029A039B08980999FDF710F9221C2B1C32
:10508000FDF70CF9304A314B041C0D1C04980599AE
:10509000FCF774FE221C2B1CFDF700F9069007910B
:1050A000069A079B02980399FDF7F8F84A46041CF4
:1050B0000D1C80460F1C1460556025E7291C244AEE
:1050C000244BFBF7CFFE264B041C0D1C9E4218D030
:1050D000214A224BFBF7C6FE021C0B1C49460A6004
:1050E0004B60201C291CFDF7D9F81B4A1B4BFBF712
:1050F000B9FE4A469060D1600120404298E6032301
:1051000074E60C4B0A4AFBF7ADFE0B4A0B4B041C32
:105110000D1CFBF7A7FE021C0B1C49460A604B60E6
:10512000201C291CFDF7BAF8034A044BDFE7C046F0
:105130000000601A61B4D03D7370032E8A19A33B3E
:105140000000002E8A19A33BC14920259A837B3990
:1051500000004054FB21F93F3163621A61B4D03D35
:10516000FB21F93FC046C046F0B5474680B488B041
:10517000029203934B005B089846894B061C0F1C58
:10518000984563DCFDF7BEFB002800D1DDE0321C52
:105190003B1C301C391CFCF7F1FD6E4B6C4A041CA7
:1051A0000D1CFCF7EBFD6C4A6C4BFBF75BFE221C05
:1051B0002B1CFCF7E3FD6A4A6A4BFDF76FF8221CD3
:1051C0002B1CFCF7DBFD684A684BFBF74BFE221CEF
:1051D0002B1CFCF7D3FD664A664BFDF75FF8221CDB
:1051E0002B1CFCF7CBFD644A644BFBF73BFE221CF7
:1051F0002B1CFCF7C3FD04900591614A614B201CF8
:10520000291CFCF7BBFD049A059B00900191201C12
:10521000291CFCF7B3FD029A039B041C0D1C301CD7
:10522000391CFCF7ABFD021C0B1C201C291CFDF7D4
:1052300035F8021C0B1C00980199FDF72FF8021C91
:105240000B1C51485149FDF729F871E0321C3B1CF9
:10525000FCF794FD3F4B3E4A041C0D1CFCF78EFDF1
:105260003D4A3E4BFBF7FEFD221C2B1CFCF786FD46
:105270003B4A3C4BFDF712F8221C2B1CFCF77EFD31
:10528000394A3A4BFBF7EEFD221C2B1CFCF776FD4E
:10529000374A384BFDF702F8221C2B1CFCF76EFD39
:1052A000354A364BFBF7DEFD2B1C221CFCF766FD56
:1052B0003C4B0490059198459FDD3B4B98453BDC6A
:1052C0003A4900220B1C43442F4830490092019375
:1052D000FCF7E4FF06900791294A2A4B201C291C61
:1052E000FCF74CFD009A019BFCF7D8FF049A059B44
:1052F00000900191201C291CFCF740FD029A039BA1
:10530000041C0D1C301C391CFCF738FD021C0B1C46
:10531000201C291CFCF7C2FF021C0B1C00980199E1
:10532000FCF7BCFF021C0B1C06980799FCF7B6FFA4
:1053300008B004BC9046F0BD154A164B0692079380
:105340001549164A00910192C6E70F480F49EFE749
:10535000D43888BEE9FAA8BDC4B1B4BD9EEE213EE2
:10536000AD529C804F7E923E9015CB19A001FA3E23
:105370007751C1166CC1563F4C5555555555A53FF3
:10538000000000000000E03F000000000000F03FCF
:10539000000000000000E73F000000000000D23FD6
:1053A000FFFF3F3E3233D33F0000E93F0000E0FF04
:1053B000F0B556464D4644465F46F0B48E4C8246A4
:1053C000A544A89D10938D4B141CAA00109DD25883
:1053D0000E91013DE01E18210C920695FBF796F800
:1053E000C343DB171840C3435A00D318DB001B1913
:1053F0000F90441B0C980B932F1817D4A998A50055
:10540000E71926AE4519013707E02868FDF7AEFA1F
:10541000013403C60435BC4208D0002CF5DA01344F
:105420006C496B48043503C6BC42F6D10C9C002C79
:1054300000DAADE30C9B109C0133DB00E4009EAD71
:10544000A34699462B1C5B44E93B002076ACFF3B0E
:1054500080460D940493069D002D00DAACE104987B
:105460000026071C47445B4D594C50468319186869
:1054700059683A687B68FCF781FC021C0B1C201CF5
:10548000291CFBF7EFFC0836041C0D1C083F5E4589
:10549000EBD10D9908220B1C434490441C605D60C5
:1054A000C845D8D10C9D11ACAB000894E4181194F8
:1054B0000A950A9C0D9DE300EB181E685F68002C9E
:1054C00038DD231C013BDB00ED1812A8A300A84621
:1054D000C418554681460495A2463F4A3F4B301CAE
:1054E000391CFCF74BFCFDF70DFAFDF73FFA3C4A7F
:1054F0003C4B041C0D1CFCF741FC021C0B1C301C1B
:10550000391CFCF7CBFEFDF7FDF94946043189460D
:10551000043901C1201C4446291C22686368FBF73A
:10552000A1FC08256D42061C0F1CA844D145D4D10E
:1055300004988246301C391C0B9A00F0B9FC2A4AA8
:105540002A4B041C0D1CFCF719FC00F0F9FB284A3F
:10555000284BFCF713FC021C0B1C201C291CFCF71D
:105560009DFE041C0D1CFDF7CDF98146FDF7FEF9EB
:10557000021C0B1C201C291CFCF790FE0B9C061C1B
:105580000F1C002C00DCF9E00A9A12AD013A9200DF
:10559000AB581821091B181C0841814488401B1A6C
:1055A000AB5017252D1B2B410993099D002D50DD74
:1055B0000A9C0125A944002C00DC08E1A10012ABE3
:1055C0008022591800240E48550423E0C046C046E6
:1055D0000000000000000000000000000000703E1D
:1055E0000000000000007041000000000000C03F0B
:1055F000000000000000204084FDFFFF206200004A
:10560000FFFFFF00002A02D0AA1A1A600124043307
:105610008B4208D01A68002CF4D0821A1A60043326
:1056200001248B42F6D10B9D002D0EDD012D00D102
:10563000AFE0022D09D10A9B12AA013B9B00D25870
:1056400012AD02929202920AEA50099D022D00D1F7
:105650007BE0301C391CCB4BC94AFAF7C9FF002844
:1056600000D1B6E00A980C9C013884420CDC810021
:1056700012AD119C6B1800221D68043B2A43A34203
:10568000FAD1002A00D067E20C9B12A8013B9B00D4
:10569000C358002B00D079E20C9B0122023B9B00F7
:1056A000C318043B596801320029FAD00A9B0A9CAE
:1056B0000133A4180A94A34200DDFAE60F9DA99CC9
:1056C0005A199200A418069DA1460D9CEA18DB0009
:1056D000E318109D0A9C04932B19D20026A8DB0026
:1056E00026AD80185D198046099549460868FDF782
:1056F0003DF9069C424610605160002C22DB474673
:105700000026A04D9E4C50468319186859683A6887
:105710007B68FCF733FB021C0B1C201C291CFBF7CD
:10572000A1FB0836041C0D1C083F5E45EBD1049913
:10573000082330C1099C0422984404919144A04557
:10574000D3D1B6E68F4D8E4CF1E7321C3B1C8E4810
:105750008E49FCF7A3FD061C0F1C002C00D178E736
:105760000B9A8948894900F0A3FB021C0B1C301CD2
:10577000391CFCF793FD061C0F1C6AE70B9C002CE0
:1057800011D10A9B12A8013B9B00C558ED15099544
:105790000BE70A9B12A8013B9B00C05812A94202CA
:1057A000520ACA5051E77A4A7A4BFAF745FF002865
:1057B00005D1002409944CE7724D714C69E602242E
:1057C00009940A9C0125A944002C00DDF6E600247A
:1057D00029E70B9D4C466A42301C391C0F9400F09F
:1057E00067FB6D4A6D4B041C0D1CFAF725FF002862
:1057F00000D1D3E16A4A6B4B201C291CFCF7BEFA8E
:10580000FDF780F8061C0A988700301CFDF7AEF8FB
:10581000614A624BFCF7B2FA021C0B1C201C291CCB
:10582000FCF73CFDFDF76EF80A9A0B9C90460122AE
:105830009044454612A91834AB00C8510B94CE5081
:10584000514852490B9A00F033FB4346041C0D1C8F
:10585000002B5CDB0D999E00DB0012A89B460F1C01
:1058600086195F443068FDF781F8221C2B1CFCF779
:1058700085FA4B4A4B4B38607960201C291CFCF799
:105880007DFA089A043E041C0D1C083F9642E9D19B
:105890000D9B45461C1C5C440C9A04940135002069
:1058A0004EA9444606958346894692460A94504638
:1058B000002860DB3C49049F8846324D304C00266E
:1058C00004E00823984408375E4511DC424610681E
:1058D00051683A687B68FCF751FA021C0B1C201CCB
:1058E000291CFBF7BFFA0136041C0D1CB245E8DA8F
:1058F0005846C3004B441C605D60049C0121069D1A
:10590000083C8B440494AB45D1D10A9A9046A89C9C
:10591000022C4BDC002C00DDDFE020D14346002BC5
:1059200000DA5AE1DC004EAD2C194CAE0025002304
:10593000281C191C22686368FBF794FA083C051CB4
:105940000B1CB442F4D1099C191C002C02D08020FD
:10595000000619180E9C2A1C0B1C226063600F9C09
:10596000072020409F239B009D443CBC90469946C5
:10597000A246AB46F0BD034D014CB9E7C046C04658
:105980000000000000000000000000000000F03FE8
:10599000000000000000E03F000000000000704137
:1059A000000000000000703E30620000A89D032D42
:1059B000D5D14046002800DC0AE140464EADC0008B
:1059C00083462B1C5B441E685F684346013BA94627
:1059D000DB004B444CAC04930A949A4601E0261C2D
:1059E0002F1C55462C686D68321C201C291C3B1C42
:1059F00006940795FBF736FA041C0D1C221C2B1C81
:105A000006980799FCF74AFC321C3B1CFBF72AFA64
:105A100052469060D160082040420A998244146046
:105A200055608A45DBD1424600270026012A3ADD2F
:105A30004B46049D5B441E685F68A84601E0261C37
:105A40002F1C45462C686D68321C201C291C3B1CF1
:105A500004940595FBF706FA041C0D1C221C2B1C54
:105A600004980599FCF71AFC321C3B1CFBF7FAF969
:105A700042469060D16008204042804414605560E6
:105A8000C145DCD14C464D465C4408350027002614
:105A9000381C311C22686368FBF7E4F9083C071CDA
:105AA0000E1CAC42F4D1099C002C00D181E00E9C6C
:105AB0004E984D4620606D68802000062B184946A0
:105AC00063604846CB688022120680689B18B6182F
:105AD000A060E3602761666141E74246002500243B
:105AE000002A10DBD3004EA8C6184CAF00250024B6
:105AF000281C211C32687368FBF7B4F9083E051CAA
:105B00000C1CBE42F4D1099A211C002A02D0802329
:105B10001B06E1180E980B1C2A1C026043604E986D
:105B20004F992A1C231CFCF7B9FB4246002A07DDCB
:105B300050ACD50065190CCCFBF794F9AC42FAD106
:105B4000099C002C02D080252D0649190E9C021CB0
:105B50000B1CA260E36002E70B9D804612A843582D
:105B60004C46183D0F940B95002B00D068E642463A
:105B7000013A9300C318291C00E0013A043B5D6818
:105B80001839002DF9D090460B9159E601228DE588
:105B9000109D76ACED00AB460D9483E40A98291C69
:105BA0008600201CFCF7AEFE0A9A12A98851904686
:105BB00046E60E9C4E984F993A1C20606160331C5B
:105BC00049468868C96822616361A060E160C6E6F1
:105BD0004EA900270026894665E700250023B2E686
:105BE000F0B589B004920593514B4A00061C0F1C76
:105BF00052089A4206DCFCF785FE391C031C301C57
:105C0000002B64D0321C3B1C301C391CFCF7B6F84E
:105C1000321C3B1C041C0D1CFCF7B0F8374B364AF9
:105C200002900391201C291CFCF7A8F8344A354B3C
:105C3000FCF734FB221C2B1CFCF7A0F8324A334B38
:105C4000FBF710F9221C2B1CFCF798F8304A314B5B
:105C5000FCF724FB221C2B1CFCF790F82E4A2F4B40
:105C6000FBF700F90E9B06900791002B31D02C4AD0
:105C70002C4B04980599FCF781F8069A079B009035
:105C8000019102980399FCF779F8021C0B1C00980B
:105C90000199FCF703FB221C2B1CFCF76FF8049AFC
:105CA000059BFCF7FBFA204A204B041C0D1C0298B4
:105CB0000399FCF763F8021C0B1C201C291CFBF742
:105CC000D1F8021C0B1C301C391CFCF7E7FA09B098
:105CD000F0BD069A079B201C291CFCF74FF8124ABE
:105CE000124BFCF7DBFA029A039BFCF747F8321CD5
:105CF0003B1CFBF7B7F8EAE77CD5CF5A3AD9E53D2C
:105D0000EB9C2B8AE6E55A3E7DFEB157E31DC73E6C
:105D1000D561C119A0012A3FA6F810111111813FC8
:105D2000000000000000E03F495555555555C53F5E
:105D3000FFFF3F3EC046C0464B0059087047C04673
:105D4000F0B556464D4644465F46F0B4524A4F00C1
:105D50007F0D83B0BE18041C0D1C89468A46804600
:105D60000197132E2ADC002E56DB4C4F021C3741C4
:105D70003B1C0B4003439C46BB4667460B1C002F55
:105D800013D0424B404AFBF76DF8414A414BFAF7BA
:105D900049FC002807D0002D4EDB53465F46BB432D
:105DA0000022994690464B464246101C191C03B0EF
:105DB0003CBC90469946A246AB46F0BD332E0BDD67
:105DC0000B1C8021021CC9008E42EED1291CFBF75E
:105DD00049F8021C0B1CE8E7019F314ABB1801225D
:105DE0005242DA4093465F46021C0B1C0742DCD04D
:105DF000264B254AFBF736F8254A264BFAF712FCC4
:105E00000028D0D0002D1DDB42465B469A439046C9
:105E1000D1464B464246C8E71C4B1B4AFBF722F8CB
