:10000000000C0020DD3C00006D4400007544000041
:1000100075440000754400007544000075440000FC
:1000200075440000754400007544000075440000EC
:1000300075440000754400007544000075440000DC
:1000400075440000754400007544000075440000CC
:1000500075440000754400007544000075440000BC
:100060008148000075440000494F000075440000BD
:10007000754400007544000075440000CD41000047
:1000800075440000215100007544000075440000D3
:10009000754400007544000075440000754400007C
:1000A000754400007544000075440000754400006C
:1000B00075440000754400005D4400006544000084
:10040000FFFFFFFFFFFFFFFFFFFFFFFF7EFBFFFF81
:1004100010B5064C2378002B07D1054B002B02D0DA
:10042000044800E000BF0123237010BD08FCFF1F3B
:1004300000000000E868000008B5084B002B03D05E
:100440000748084900E000BF07480368002B03D0B5
:10045000064B002B00D0984708BDC04600000000A6
:10046000E86800000CFCFF1F08FCFF1F00000000F4
:10047000002934D00123002210B488422CD3012457
:100480002407A14204D2814202D209011B01F8E7EC
:10049000E400A14204D2814202D249005B00F8E7A5
:1004A000884201D3401A1A434C08A04202D3001BD1
:1004B0005C0822438C08A04202D3001B9C08224304
:1004C000CC08A04202D3001BDC082243002803D042
:1004D0001B0901D00909E3E7101C10BC7047002874
:1004E00001D00020C04307B4024802A14018029086
:1004F00003BDC046D90000000029F0D003B5FFF7C6
:10050000B9FF0EBC4243891A1847C046002941D0A2
:1005100010B4041C4C40A44601230022002900D53D
:100520004942002800D5404288422CD301242407A8
:10053000A14204D2814202D209011B01F8E7E40082
:10054000A14204D2814202D249005B00F8E788420E
:1005500001D3401A1A434C08A04202D3001B5C0886
:1005600022438C08A04202D3001B9C082243CC08E3
:10057000A04202D3001BDC082243002803D01B0941
:1005800001D00909E3E7101C6446002C00D5404265
:1005900010BC7047002806D003DB0020C043400891
:1005A00001E08020000607B4024802A14018029032
:1005B00003BDC046190000000029EBD003B5FFF7CA
:1005C000A7FF0EBC4243891A1847C0467047C04671
:1005D0008446101C62468C46191C634600E0C046E7
:1005E0001FB501F0C3FA002801D40021C8421FBD85
:1005F00010B501F0F3F94042013010BD10B501F023
:10060000B5FA002801DB002010BD012010BDC04656
:1006100010B501F0ABFA002801DD002010BD01206B
:1006200010BDC04610B501F023FA002801DC0020FF
:1006300010BD012010BDC04610B501F019FA002808
:1006400001DA002010BD012010BDC0468446081C00
:100650006146FFE71FB500F037FB002801D40021F9
:10066000C8421FBD10B500F0BDFA4042013010BDB8
:1006700010B500F029FB002801DB002010BD01208F
:1006800010BDC04610B500F01FFB002801DD0020A2
:1006900010BD012010BDC04610B500F0CDFA0028F5
:1006A00001DC002010BD012010BDC04610B500F0D7
:1006B000C3FA002801DA002010BD012010BDC04699
:1006C000F8B543024400C50F4E024800240E2A1C10
:1006D0009B09000EC90FB6098D425BD0221A002A71
:1006E00000DC89E000281DD1002E00D075E05807FD
:1006F00004D00F221A40042A00D004338021C904F8
:1007000019402A1C00293AD00134FF2C00D17FE087
:100710009B015B0A5B02E4B2E405580AD20720435E
:100720001043F8BDFF2CE2D08021C9040E431B2AE0
:1007300000DD2DE1311C2020D140821A9640721E2E
:1007400096410E439B1B5801D1D59B019F09381C34
:1007500002F09EF9421F974094425BDC141B1F235A
:100760001B1B3A1C9F40611C3B1CCA405F1EBB41C7
:1007700013430024BBE7131EB9D100230022DB087A
:10078000FF2C04D1002B43D08020C00303435B0225
:100790005B0ABFE7211A002940DD002823D0FF2C87
:1007A000A5D08020C00406431B2900DDEEE0301CEC
:1007B0002027C840791A8E40711E8E4106439B192E
:1007C000590100D493E70134FF2C55D0714901221F
:1007D0001A400B405B08134389E7013A002AB1D065
:1007E000FF2CA4D183E7002E00D180E70139002936
:1007F000E5D0FF2CD8D17AE7002A1BD1621CD2B2F7
:10080000012A4BDD9F1B7A0123D5F71A0D1C9EE7A9
:1008100000237FE75F4BA41A3B4068E7002946D1DD
:10082000611CC8B2012829DDFF2924D0F3185B0818
:100830000C1C5CE7002C13D0FF2818D08024E404A3
:10084000524223431B2A4DDD0123F31A041C0D1CC5
:1008500079E7002F00D07AE70023002200248EE7FA
:10086000002B3BD0D243002AEFD0FF28EAD1331C23
:10087000FF240D1C3BE7FF24002380E7002C5CD104
:10088000002B00D180E0002E00D130E79B195801E9
:1008900000D42CE73F4A0124134028E7002C15D14F
:1008A000002B40D1002E63D0331C0D1C1FE7002C01
:1008B00021D1002B54D0C943002904D0FF284CD0AB
:1008C0001B2958DD01239B19041C79E7002B19D142
:1008D000002E48D0331C0D1CFF2408E7331C041CD9
:1008E0000D1C04E71C1C2025D440AA1A93405A1E54
:1008F00093412343A9E7FF282FD08024E4044942F1
:100900002343DDE7FF24002E00D1F0E68022DB0840
:10091000D203134204D0F608164201D1331C0D1C39
:10092000DB00FF24E3E6002E00D1E0E69A1B500135
:1009300000D420E7F31A0D1CD9E6002B0DD0FF24BC
:10094000002E00D1D3E68022DB08D2031342E7D089
:10095000F6081642E4D1331CE2E7331CFF24C6E656
:10096000331C041CC3E6802300229B04FF2406E7FB
:10097000231C002203E71C1C2027CC40791A8B4043
:10098000591E8B4123439EE7331CB0E6012616E730
:100990000126D7E6FFFFFFFBF0B55F4656464D4602
:1009A0004446F0B446024500C00F85B00F1C760ADD
:1009B0002D0E804641D0FF2D26D080242404002116
:1009C0002643F6007F3D89468B46F90F7C0278006E
:1009D000640A000E00918A463CD0FF2834D0802360
:1009E0001B041C430023E4007F380193009F43460F
:1009F000019A7B4049469C4611430F2900D971E07A
:100A0000764F89007F58BF46002E3ED10822022330
:100A100091469B46D9E75A46341CC2460192019939
:100A2000022937D0032900D1CFE0012900D0ABE063
:100A300053460B400022002632E0002E19D104213B
:100A4000012289469346C0E7221C531E9A41023276
:100A50000192CBE701270197002CC7D0201C02F0A0
:100A600017F8431F9C4076235B420021181A01911E
:100A7000BCE7301C02F00CF87625431F9E406D4207
:100A800000232D1A99469B469FE70C230321994684
:100A90008B469AE7D446012367463B40FF22002657
:100AA0007602D205700ADB071043184305B03CBC40
:100AB00090469946A246AB46F0BD80260023F60339
:100AC000FF22EDE700220026EAE78020C00306426D
:100AD0003BD0044239D1061C26437602760A009B9D
:100AE000FF22DDE7281A039076016401A64239D37C
:100AF000361B1A2201230120311C5B0076000029DD
:100B000001DBB44201D8361B0343013A002AF3DC6F
:100B1000741EA641341C1C43039A7F32002A27DD31
:100B2000630704D00F232340042B00D00434270193
:100B300003D52B4B039A1C408032FE2A0BDD012388
:100B400061460B40FF220026AAE706437602760A9A
:100B50004346FF22A4E7A40101236746660AD2B2F6
:100B60003B409DE7039F1B22013F03970023C2E701
:100B70007E23039F5B42DB1B1B2B07DD01236146AA
:100B80000B40002200268BE7D446C5E7221CDA4042
:100B9000039B9E339C40231C5C1EA34113435A07B6
:100BA00004D00F221A40042A00D004335F0105D577
:100BB000012361460B400122002671E79E01624637
:100BC00001231340760A00226AE78026F6032643B3
:100BD0007602760A5346FF2262E7C046406600006E
:100BE000FFFFFFF74A02430270B55C0A550A430053
:100BF0004A001B0EC60F120EC90FFF2B05D0FF2A8D
:100C000008D0012093420BD070BD0120002CFBD1F5
:100C1000FF2AF6D10120002DF6D101209342F3D115
:100C2000AC42F1D18E4205D0002BEDD1201C441EE8
:100C3000A041E9E70020E7E74A024302F0B55C0A79
:100C4000550A43004A001B0EC60F120EC90FFF2B98
:100C500031D0FF2A34D0002B16D160426041844647
:100C6000002A14D0002820D18E4217D1934215DCDF
:100C700004DBAC4212D80020AC4212D27042704168
:100C80004042012318430CE0002AEDD194466F4204
:100C90006F416046002805D1002FE5D07042012346
:100CA0001843F0BD0020002FFBD14842484140428C
:100CB00001231843F5E7002CCBD002204042F0E797
:100CC000002DC8D0F9E7C0464A024302F0B55C0ADD
:100CD000550A43004A001B0EC60F120EC90FFF2B08
:100CE00027D0FF2A29D0002B10D0002A15D19446F6
:100CF0006F426F416046002815D00020002F04D1BC
:100D000048424841404201231843F0BD60426041DF
:100D10008446002AECD00028F2D18E4211D07042D5
:100D200001231843F1E7002FF7D070420123184345
:100D3000EBE70220002CE8D1D3E70220002DE4D11C
:100D4000D1E79342EBDC04DBAC42E8D80020AC42B4
:100D5000DBD270427041404201231843D5E7C046C0
:100D6000F0B55F4656464D464446F0B44402460050
:100D700083B00F1C640A360EC50F002E41D0FF2E23
:100D800022D080231B0400201C43E4007F3E8246C7
:100D90008046391C4B007F02C90F7F0A1B0E8B4611
:100DA0003BD0FF2B34D0802212041743FF007F3B3F
:100DB00000215A466A40019252460A430F2A63D8DC
:100DC0007A48920082589746002C3FD1082202238D
:100DD00092469846DDE70195404602282AD1019ABD
:100DE00001251540FF2300246402DB05600AED079E
:100DF0001843284303B03CBC90469946A246AB46F4
:100E0000F0BD002C27D10420012282469046C0E785
:100E1000391C4A1E91410231CBE70121002FC8D075
:100E2000381C01F035FE431F9F4076235B421B1A9E
:100E30000021BEE7032800D1AEE001284FD1019880
:100E400042461040C5B200230024CDE70C23032006
:100E50009A4680469DE7201C01F01AFE7626431F25
:100E60009C4076420023361A9A46984691E78024A1
:100E70000025E403FF23B7E75B463C1C019388464B
:100E8000AAE73C1C8846A7E7250C24043A0C240C4E
:100E90003F04F6183F0C211C231C794353436F4336
:100EA0005543FB180A0C9B18B1469F4202D9802279
:100EB0005202AD1809041A04090C521894011B0CB3
:100EC000611E8C41920EED181443AD012C43230199
:100ED00005D5012263080120144081441C434B4680
:100EE0007F33002B2DDD600704D00F222240042A1F
:100EF00000D00434220103D52D4B1C404B468033D7
:100F0000FE2B17DD019B01251D400024FF236BE70D
:100F10008020C003044208D0074206D1041C3C4391
:100F20006402640A5D46FF235EE704436402640AC8
:100F3000FF2359E70198A4010125640ADBB20540AB
:100F400052E77E235B424A469B1A1B2B05DD019B21
:100F500001251D400024002346E7221CDA404B46B1
:100F60009E339C40231C5C1EA3411343580704D0AE
:100F70000F221A40042A00D004335A0105D5019BE0
:100F800001251D40002401232EE701989C01012525
:100F9000640A0540002327E78027FF03019B3C43A9
:100FA000640201251D40640AFF231DE780660000DE
:100FB000FFFFFFF7F8B5C20F430244004D0248009F
:100FC000240E161C9B09000EC90FAD09FF2800D185
:100FD00083E0012779408A425CD0221A002A00DC93
:100FE0008EE000281ED1002D00D07AE0580704D0F2
:100FF0000F221A40042A00D004338021C9040122A0
:101000001940324000293AD00134FF2C00D183E04E
:101010009B015B0A5B02E4B2E405580AD207204355
:101020001043F8BDFF2CE1D08021C9040D431B2AD9
:1010300000DD31E1291C2020D140821A95406A1E32
:1010400095410D435B1B5801D0D59B019F09381C6E
:1010500001F01EFD421F974094425FDC141B1F23CA
:101060001B1B3A1C9F40611C3B1CCA405F1EBB41BE
:1010700013430024BAE7131EB8D100230022DB0873
:10108000FF2C04D1002B47D08020C00303435B0218
:101090005B0ABFE7211A002944DD002827D0FF2C76
:1010A000A4D08020C00405431B2900DDF2E0281CE9
:1010B0002027C840791A8D40691E8D4105435B1970
:1010C000590100D492E70134FF2C59D07349012211
:1010D0001A400B405B08134388E7002D00D07AE7E5
:1010E00077E7013A002AADD0FF2CA0D17EE7002D92
:1010F00000D17BE701390029E1D0FF2CD4D175E77D
:10110000002A1BD1621CD2B2012A4BDD5F1B7A017F
:1011100023D5EF1A0E1C9AE700237BE75F4BA41A36
:101120003B4063E7002946D1611CC8B2012829DD94
:10113000FF2924D0EB185B080C1C57E7002C13D0B8
:10114000FF2818D08024E404524223431B2A4DDD9B
:101150000123EB1A041C0E1C75E7002F00D076E764
:101160000023002200248AE7002B3BD0D243002A30
:10117000EFD0FF28EAD12B1CFF240E1C36E7FF24FA
:1011800000237CE7002C5CD1002B00D180E0002DF7
:1011900000D12BE75B19580100D427E73F4A01240F
:1011A000134023E7002C15D1002B40D1002D63D034
:1011B0002B1C0E1C1AE7002C21D1002B54D0C94344
:1011C000002904D0FF284CD01B2958DD01235B19CE
:1011D000041C75E7002B19D1002D48D02B1C0E1CC8
:1011E000FF2403E72B1C041C0E1CFFE61C1C2026FE
:1011F000D440B21A93405A1E93412343A9E7FF28D3
:101200002FD08024E40449422343DDE7FF24002D4E
:1012100000D1EBE68022DB08D203134204D0ED08B4
:10122000154201D12B1C0E1CDB00FF24DEE6002D35
:1012300000D1DBE65A1B500100D41CE7EB1A0E1C50
:10124000D4E6002B0DD0FF24002D00D1CEE6802265
:10125000DB08D2031342E7D0ED081542E4D12B1C82
:10126000E2E72B1CFF24C1E62B1C041CBEE68023F6
:1012700000229B04FF2402E7231C0022FFE61C1C23
:101280002027CC40791A8B40591E8B4123439EE77F
:101290002B1CABE6012512E70125D3E6FFFFFFFB80
:1012A0004302590A4300C20F1B0E00207E2B0DDDA6
:1012B0009D2B0CDC802000040143952B0ADC96203A
:1012C000C31AD9404842002A00D1081C7047034B7A
:1012D000D018FBE7963B9940F4E7C046FFFFFF7F3D
:1012E00070B5041E3CD0C60F00D04442201C01F053
:1012F000CFFB9E23251C1B1A962B0CDC0838844040
:101300006402640ADBB2321C6402DB05600AD207A5
:101310001843104370BD992B0ADD0522121A211CB7
:10132000D1400A1C011C1B318D40691E8D411543A3
:10133000052801DD421F9540164C2C406A0704D059
:101340000F221540042D00D0043461010CD59F23D9
:10135000181AFF281AD0A401640AC3B2321CD3E7BA
:10136000002200230024CFE7E408FF2B04D064020E
:10137000640ADBB2321CC7E7002C04D08020C00313
:1013800004436402640A321CFF23BDE7321CFF23BE
:101390000024B9E7FFFFFFFBF8B55F465646444619
:1013A0004D46F0B40C034D00CE0F610A440F2143AB
:1013B000C400180380465800400D8246D80F84466A
:1013C0004046400A530F0343D0006D0D371C83463F
:1013D0005246664500D1A4E0AF1A002F00DC09E1B7
:1013E000002A3BD1184300D0EAE0630700D187E030
:1013F0000F232340042B00D182E0221DA242A441EE
:101400006442802309191B040B40371C141C002B59
:1014100000D17CE0CE4B01359D4200D105E1CD4BA2
:10142000E40819404807490204430B0B002000213F
:101430001B031A0B0B0D6D051B0513436A08C64DE4
:10144000FF071D4015436D006D08291C3943201C02
:101450003CBC90469946A246AB46F8BDBC48854286
:10146000C3D0802000040343382F00DDF0E01F2F9D
:1014700000DD24E12020C01B1A1C81468240584612
:10148000F8400243944658464A469040421E9041D6
:10149000FB40624602431F1CA21A9442A4416442CC
:1014A000C91B091B141C0B029FD549024F0A002FB0
:1014B00000D1C8E0381C01F0EBFA021C083A1F2AE0
:1014C00000DDB5E02821091A201C9740C8400743D9
:1014D0009440954200DDB2E0551B691C1F2900DDD8
:1014E000DCE01F22551B3B1C221CAB40CA40AC4019
:1014F000651EAC411343CF401C43391C002574E7E3
:1015000080231B040B40371C002B00D082E7904B3C
:101510004807E4080443C9089D4248D009030B0B5F
:1015200084E7AA1A9446002A00DC98E05046002876
:1015300052D08748854200D157E7802000040343FA
:101540006246382A00DDFCE01F2A00DD4AE1202245
:101550006046101A1A1C82408246914658466246DE
:10156000D0404A4602439046584652469040421E5A
:101570009041424602436046C3401219A242A44130
:10158000644259180919141C080200D42DE7704B45
:1015900001359D4200D122E16E4B600819400123C4
:1015A00023401C1C0443CB071C4349081DE7231C94
:1015B0000B433AD080231B030B431B031B0B35E764
:1015C000013F002F65D15846221A9442A44164423B
:1015D000C91A091B141C66E75846184300D104E7D2
:1015E0000122524294446046002800D0C5E058468B
:1015F0000219C3E7002F73D1681C4005400D012874
:1016000000DCDEE05A46A21A9442BF41C81A7F426B
:10161000C71B380200D489E05A46141BA3459241E7
:10162000591A52428F1A664641E700230024FDE60C
:10163000271C283887400024954200DC4CE74549A8
:10164000AD1A3940D1E6201C01F022FA203034E7EF
:101650005A461A43531E9A41D2B200271CE7002A69
:1016600000D0DCE0681C4205520D012A00DC8DE050
:10167000374DA84200D1F3E05D462A19A242A441A9
:10168000644259180919CC07520814434908051C2B
:10169000ABE62F48854200D0E6E6A6E62B1C1F3BB2
:1016A0003A1CDA40131C20296CD03F22551BAF4056
:1016B0003C43601E84411C430021002595E6381CF4
:1016C00020381A1CC240101C202F5DD04022D71B8E
:1016D000BB405A461A43531E9A4102430027DBE699
:1016E000002D3BD01A4DAA4500D193E080252D0452
:1016F0007F422943382F00DDACE01F2F00DD29E1B8
:101700002025ED1B081C261CA840FE40AC400643CB
:10171000651EAC413443F9405D462C1BA345924104
:101720005B1A5242991A55466646BCE6131C3B4367
:10173000141C002B00D0BAE600270021002500244D
:10174000E5E65A461A43531E9A41D2B2002314E7E3
:10175000FF070000FFFF7FFFFFFF0F800D1C2543E9
:1017600058D0FF43002F51D1041BA3459241591A71
:101770005242891A5546664695E69648854200D0FB
:10178000DEE632E6002793E70023A2E7081C2043A9
:10179000002D00D0C4E0002800D1F7E058461843DF
:1017A00000D122E658460219A242A44164425918C7
:1017B0000919141C0A0200D417E6874B01251940A9
:1017C00013E6081C2043002D39D1002871D1594659
:1017D000194303D0191C5C46664606E60027002123
:1017E000002494E6604620381A1CC24060469146A8
:1017F000202800D1ACE04022121A93405A461A43E6
:10180000531E9A414B461A430023B6E6714DAA4532
:1018100000D06FE7191C5C4655466646E5E5002D8D
:1018200022D10D1C254377D0D543002D71D15C44C6
:101830005C4592415918524289185546A4E6002841
:101840004DD15946194300D194E0191C5C466646B7
:10185000604DCAE50C43611E8C41E4B200215BE798
:10186000051C0021002452E65A4DAA4554D0554289
:10187000802210040143382D00DD81E01F2D00DDA2
:1018800092E02022501B0A1C84468240201CE84023
:101890000243904662469440601E8441424614438F
:1018A000E9405C445C459241CB1852429918554638
:1018B0006AE65846184300D197E55846271ABC42B5
:1018C0009241C81A5242801A020266D55846041B39
:1018D000A3459241591A5242891A664685E55846EF
:1018E000184333D04807E40804438020C9080003A4
:1018F000014208D0DD08054205D15946CA085C07F7
:101900001443291C6646630FC9001943E400314D96
:101910006BE5304A9245AED1191C5C46554664E5EC
:10192000002836D05846184310D080254807E408D0
:10193000C9082D0304432942E5D0D8082842E2D142
:101940005D46EA085C071443011CDCE7214D4CE5C9
:10195000002353E73D1C203D0A1CEA40151C202FA4
:1019600034D04026F71BB9400C43611E8C412C43F8
:101970000021D1E680210027C903164D0024C6E5C9
:101980000C43611E8C41E4B200218AE7191C5C46BD
:101990002BE5191C5C460F4D27E5031C3B4300D18A
:1019A0001CE7011C3C1C20E52020404240190A1C79
:1019B000C2409046202D0BD04020451BA9400C432F
:1019C000611E8C4145462C4300216AE70021CBE78C
:1019D0000021F4E7FF070000FFFF7FFFF0B55F463F
:1019E00056464D464446F0B40D1C041C8046E80F94
:1019F000814618030F03000B3F0B83B084461B483E
:101A0000009749005E00DF0F490D9246760DBB46F8
:101A100081420CD01548864210D00120B14215D029
:101A200003B03CBC90469946A246AB46F0BD009F31
:101A300001202743F4D10D488642EED1604602438F
:101A40000120002AECD10120B142E9D1009B63457D
:101A5000E6D1D045E4D1D94506D00029E0D11C43D8
:101A6000201C441EA041DBE70020D9E7FF0700004F
:101A7000F0B55F4656464D464446F0B4CD0FDE0FF6
:101A8000AC461D032D0BB146374E0F034C00AB4641
:101A90005D0080463F0B640D92466D0DB44232D01E
:101AA000314EB54235D0002C0ED138434142414130
:101AB000081C002D0BD0002919D1CC452DD065462E
:101AC00068420123184318E0002DF6D1281C59461E
:101AD0000A4353425341002806D1002BEDD0634600
:101AE00058420123184308E00020002B05D14A4644
:101AF000504250414042012318433CBC9046994615
:101B0000A246AB46F0BD3E1C0643C9D0022040426F
:101B1000F3E75E461643C6D0F8E7AC4207DC0BDAC3
:101B2000614648424841404201231843E5E7664682
:101B3000704201231843E0E75F450AD80ED0002029
:101B40005F45DAD265466842684140420123184346
:101B5000D3E76246504201231843CEE7D045F8D878
:101B60000020D045EED3C8E7FF070000F0B5564689
:101B70004D4644465F46F0B40D1C83B0041C0190F2
:101B8000E80F814618030F03000B3F0B84463548CE
:101B9000009749005E00DF0F490D9246760DB8466A
:101BA000814234D02F48864236D0002918D0002EEA
:101BB0001FD1341C67463A4353425341002C1FD077
:101BC0000020002B05D142465042504140420123A3
:101BD000184303B03CBC90469946A246AB46F0BDC4
:101BE0000098044360426041041C002EE2D00028AB
:101BF000E9D1C14515D04F46784201231843E8E7A3
:101C0000002BF6D04B46584201231843E1E7009FD2
:101C100002202743DDD1C5E7674602201743D8D10C
:101C2000C3E7B14204DD4A46504201231843D0E7DE
:101C3000B14207DB00986045E4D80AD0009F00203D
:101C40006745C6D24F467842784140420123184347
:101C5000BFE7019A5245D5D8019A00205245F1D3E9
:101C6000B7E7C046FF070000F0B5564644465F465A
:101C70004D46F0B41F1C0B031B0B9A464B0087B05C
:101C8000041C80465B0DC80F161C02938146002B76
:101C900068D0694B0299994232D080225346520350
:101CA0001A43D200630F1A439246644AE00089182F
:101CB00080460291002400253B031B0B9B467800C5
:101CC000FB0F321C400D039300D175E05A4B984234
:101CD00069D08022594652030A43730FD2001A4337
:101CE000564B9346C018F200002303994E467140AC
:101CF0001C430F2C00D9A9E0514EA4003459A7462B
:101D000053461C4300D087E00025AA46A846082475
:101D10000225D1E74946022D6CD0032D00D117E2F0
:101D2000012D00D058E10D40EDB20024A94600235A
:101D3000A0460020002125030A0D1C052D0B1205CD
:101D4000404B2A43134023435B004C465B08E207A9
:101D5000191C4046114307B03CBC90469946A24628
:101D6000AB46F0BD5346234350D05346002B00D121
:101D700084E1504600F08CFE031E272B00DD76E147
:101D800028210D1A211C083B5246E9409A400D1C9F
:101D90001543221C9A40AA4690462B4B00241B1A3E
:101DA0000293002588E75B461E430323002E9CD147
:101DB000B3460022022398E75B46334321D05846BE
:101DC000002800D14EE100F063FE272800DD42E14B
:101DD00028210F1A021C311C083A5B46F940934037
:101DE0000F1C1F43331C9340BB461A1C164B181A7A
:101DF00000237AE701230B4000249946A0460E4BAE
:101E000097E70027BB46002201236EE70021042448
:101E10008A46884601254FE70C2403254CE7002518
:101E20008024A9462403A846034B82E7DA4690465D
:101E300003991D1C6FE7C046FF07000001FCFFFF70
:101E4000C0660000FFFF0F800DFCFFFF029F160C15
:101E5000381804904046070C0004000C1204120CC1
:101E6000031C5343041C3D1C7443554398463B1CC0
:101E700073436419A44644460293230C63449D4271
:101E800004D9029D802464022D1902951D0C03952E
:101E900045462C041B04240C1C1905945C46230C99
:101EA000051C58432404240C8446381C60436543B5
:101EB0005F438146CC44280C6044BB46814502D92F
:101EC00080277F02BB442D04070C2D0C0004401911
:101ED0005546BC462F04E3448446280C3D0C2F1C79
:101EE0005743B8462F1C77434243B94647463F0CF9
:101EF0009144BA46D14446434A4502D9802252020F
:101F0000B6184F463A0CB6183A0447463F043F0C01
:101F1000B8462F1C67435D434443584365190190FD
:101F2000380C2D184244B846AC4204D9019880239D
:101F30005B02C0180190039C029F201C6044C019E2
:101F40006045A44147466442A4462B043C0499469C
:101F5000240C4C44A046D8448018C246E244904227
:101F60009241574652429146F219E245BF417F42A3
:101F70004B46BC46D845BF41D4187F4263461F43F9
:101F80002D0C7F19B24292414C45AD4152426D42F7
:101F90001543019E7D19AB19E20D5B02059F1343AA
:101FA00042023A439A46531E9A41C30D101C1843ED
:101FB0006402204380465046C0010DD545460122AB
:101FC0005646049C6B082A401A43F30701341A430F
:101FD000760804949046B246049E634FF319002B92
:101FE00061DD404640070BD00F2244462240042AC0
:101FF00006D04246043242458041404282449046E7
:102000005546ED0107D5594B5646049F80201E408A
:10201000C000B2463B18564A934200DDEAE6444609
:102020005546E2086807104301226C025B050A402E
:102030008046240B5B0D91467BE6DA4690461D1CDC
:1020400069E680242403574627421CD13C432403DD
:10205000240B484B6DE6031C283B311C99408B46F2
:102060000022C3E6301C00F013FD2030ADE6283B13
:10207000211C994000228A4690468EE6201C00F0E2
:1020800007FD203078E65846204207D104430399E3
:102090002403240B89469046364B4AE63C432403EE
:1020A000240B344B45E6344B049E9B1B382B06DD3A
:1020B00001230B4000249946A046002339E61F2B3C
:1020C00025DC049C2D4D4646601952464446864008
:1020D000DC4082405746301C2243DF40441EA04172
:1020E00002433B1C540709D00F201040042805D0A0
:1020F000101D9042924152429B18021C1D021AD59B
:1021000001230B4000249946A046012311E61C48F8
:10211000049C5546001BC540281C202B16D0194E88
:102120005746A21997403A1C43461A43531E9A41F8
:1021300002430023D6E758075B02D2081C0B012399
:102140000B401043994680460023F2E50022EBE75E
:102150008024240350460123044319402403240B04
:102160008946044BE5E5C046FF030000FFFFFFFE84
:10217000FE070000FF07000002FCFFFF1E04000036
:10218000E2FBFFFF3E040000F8B55F4656464446BA
:102190004D46F0B40C034D00CF0F610A440F2143AC
:1021A000C4001803DE0F8046B44646465800760A3F
:1021B000530F3343D600D14A6D0DBA46400DB34696
:1021C000904200D1F5E06246012672409446674590
:1021D00000D1ABE02F1A002F00DC11E100283ED126
:1021E0005846184300D0F1E0600700D197E00F2374
:1021F0002340042B00D122E1221DA242A4416442CB
:10220000802309191B04012750460B400740141C6A
:10221000002B00D179E0B94B01359D4200D10BE193
:10222000B74BE40819404807490204430B0B002050
:1022300000211B031A0B0B0D6D051B0513436A08C8
:10224000B04DFF071D4015436D006D08291C394333
:10225000201C3CBC90469946A246AB46F8BDA74818
:102260008542C1D0802000040343382F00DDFDE00B
:102270001F2F00DD31E12020C01B1A1C5E4682406A
:10228000FE40324394465A468240101C421E904102
:10229000FB40624602431F1CA21A9442A4416442BE
:1022A000C91B091B141C0A029ED549024F0A002FA4
:1022B00000D1D6E0381C00F0EBFB021C083A1F2AC4
:1022C00000DDC3E02821231C091A9740CB401F439F
:1022D0009440954200DDC0E0551B691C1F2900DDBC
:1022E000EAE01F22551B3B1C221CAB40CA40AC40FD
:1022F000651EAC411343CF401C43391C002573E7D6
:1023000080217E4D0027C90300247C4B4807E40848
:102310000443C9089D4250D009030B0B87E7802373
:102320001B04012752460B40174071E72A1A9446B6
:10233000002A00DCA1E0002854D07048854200D17A
:1023400052E78020000403436046382800DD0EE198
:102350001F2800DD57E162462020801A1E1C86409F
:10236000B1465E46D6404A4632435E468640904677
:10237000301C421E9041424602436046C34012193F
:10238000A242A441644259180919141C080200D43D
:102390002AE75A4B01359D4200D131E1584B600884
:1023A0001940012323401C1C0443CB071C4349084C
:1023B0001AE71E4300D00AE705E7231C0B433BD076
:1023C00080231B030B431B031B0B30E7013F002F34
:1023D0006DD15E46A21B9442A4416442C91A091BF6
:1023E000141C60E75846184300D1FDE601267642EA
:1023F000B4446046002800D0D0E05E463219BFE702
:10240000002F00D080E0681C4005400D012800DC52
:10241000E8E05A46A21A9442BF41C81A7F42C71B3D
:102420003E0200D498E05846041BA3459241591A35
:1024300052428F1AE2463AE700230024F7E680234F
:102440001B04012756460B403740E1E6271C28387D
:1024500087400024954200DC3EE72949AD1A394007
:10246000C2E6201C00F014FB203026E75A461A432F
:10247000531E9A41D2B200270EE7002A00D0DEE0B8
:10248000681C4605760D012E00DC90E01B4DA8422D
:1024900000D1F5E05E463219A242A44164425918C7
:1024A0000919CC07520814434908051C9CE6134837
:1024B000854200D0D9E697E62B1C1F3B3E1CDE4030
:1024C000331C20296FD03F22551BAF403C43601E78
:1024D00084411C430021002586E6381C20381E1C40
:1024E000C640301C202F60D04022D71BBB405A462C
:1024F0001A43531E9A4102430027CDE6FF0700000E
:10250000FFFF7FFFFFFF0F80002D37D0B64DA842A1
:1025100000D18FE080252D047F422943382F00DD34
:10252000A8E01F2F00DD24E12025ED1B0E1CAE408E
:10253000B046261CFE404246AC401643651EAC41E8
:102540003443F9405A46141BA34592415B1A524248
:10255000991A051CE246A6E6131C3B43141C002BEB
:1025600000D0A4E60027002100250024CDE65A462D
:102570001A43531E9A41D2B2002300E70D1C254393
:1025800058D0FF43002F51D15A46141BA345924106
:10259000591A5242891A051CE24684E6924885423D
:1025A00000D0D1E620E6002790E700239FE7081C33
:1025B0002043002D00D0C2E0002800D1EFE05846B3
:1025C000184300D110E658460219A242A4416442C1
:1025D00059180919141C0A0200D405E6834B012579
:1025E000194001E6081C2043002D38D100286FD186
:1025F0005946194303D0191C5C46E246F4E500270E
:102600000021002481E6604620381A1CC24066463C
:10261000101C202E00D1AAE04022921B93405A4663
:102620001A43531E9A4102430023A8E66E4DA84266
:1026300000D073E7191C5C46051CE246D4E5002D6A
:1026400022D10D1C254376D0D543002D70D15C449A
:102650005C459241591852428918051C96E600289B
:102660004CD15946194300D14AE6191C5C46E24652
:102670005D4DB9E50C43611E8C41E4B2002161E778
:10268000051C0021002440E6574DA84253D0554276
:10269000802216043143382D7BDC1F2D00DD8CE0B9
:1026A0002022561B0A1CB446B240261CEE40324380
:1026B000904662469440661EB44142461443E94047
:1026C0005C445C459241CB1852429918051C5DE66A
:1026D0005846184300D187E55E46A71BBC4292418D
:1026E000C81A5242801A060260D55846041BA345F8
:1026F0009241591A5242891AE24675E558461843E2
:1027000033D04807E40804438020C908000301428D
:1027100008D0DD08054205D15946CA085C071443B4
:10272000291CE246630FC9001943E4002E4D5BE506
:102730002D4A9042AFD1191C5C46051C54E5002877
:1027400030D05846184310D080254807E408C908FF
:102750002D0304432942E5D0D8082842E2D15D4642
:10276000EA085C071443011CDCE71F4D3CE500232D
:1027700055E73D1C203D0E1CEE40351C202F2ED071
:102780004026F71BB9400C43611E8C412C430021AD
:10279000D8E60C43611E8C41E4B2002190E7191C7D
:1027A0005C4621E5191C5C460F4D1DE5031C3B43AF
:1027B00000D124E7011C3C1C16E520267642761940
:1027C0000A1CF2409046202D0BD04026751BA940D4
:1027D0000C43611E8C4145462C43002170E70021CB
:1027E000D1E70021F4E7C046FF070000FFFF7FFFAD
:1027F00070B50B1C124C09030E0B5900021C490D3D
:10280000DD0F0020A14211DD0E4881420FDC802047
:10281000400306430C48401A1F280BDD0B4A521A8E
:10282000D640321C5042002D00D1101C70BD084B08
:10283000E818FBE7074BC240C9188E403243F1E766
:10284000FE0300001D040000330400001304000018
:10285000FFFFFF7FEDFBFFFFF8B5041E31D0C70F70
:1028600000D04442201C00F013F9184D2D1A0A28FC
:1028700019DD0B38844024036D05240B6D0D3A1CC3
:102880000026002000210B0D2403240B1B052343ED
:102890000F4C2D051C402C4364006408D307211CF9
:1028A000301C1943F8BD061C1536231CB3401E1CF2
:1028B0000B23181AC44024036D05240B6D0D3A1C1C
:1028C000DFE70022002500240026DAE71E040000CE
:1028D000FFFF0F8043001B0E5A1C4102D2B270B59D
:1028E0004C0AC50F012A17DDE02292006407090B8C
:1028F0009818002200231E0D221C34050C431B498E
:10290000400540082140014349004908ED070B1CE0
:102910002B43101C191C70BD002B15D1002C1CD092
:10292000201C00F0B5F80A281ADC0B21091A231C18
:10293000CB40191C031C15339C400D4B0903181A7E
:102940004005090B400DD4E7002C03D06407090BA8
:102950000848CEE707480021CBE700200021C8E760
:10296000011C0B398C40211C0024E6E7FFFF0F807F
:1029700089030000FF070000F0B54B000D03420F74
:102980005B0D6D0A15435A1C5205CC0FC600520D43
:10299000012A27DD394FDA19FE2A1ADC002A35DD33
:1029A0008001ED00431E98412843760F30434307D2
:1029B00004D00F230340042B00D004308021C9042D
:1029C000014027D00132FF2A1DD083015B0AD1B21A
:1029D00001E0FF2100235802C905400AE40708432B
:1029E0002043F0BD002B06D1354311D1002100203A
:1029F00043025B0AEFE72E43EBD08020ED0080041A
:102A00002843FF22D3E7FF210023E4E717320DDA42
:102A100005200022C008D1B2FF2AE9D10028D9D070
:102A20008023DB0303435B025B0AD4E78022144963
:102A300012041543C91A1F290DDC124A371C9B18B2
:102A4000281C9F4098403B1C5A1E93411843CE407F
:102A500030430022ABE70C4F2A1CFF1AFA40171C28
:102A6000202909D0094A98188540281C3043461E61
:102A7000B041384300229AE70020F7E780FCFFFFCF
:102A80009E03000082FCFFFF7E030000A2FCFFFF0C
:102A90001C2101231B04984201D3000C10391B0A8E
:102AA000984201D3000A08391B09984201D3000952
:102AB000043902A2105C40187047C04604030202A9
:102AC0000101010100000000000000007047C04645
:102AD00008B500F029FD08BD7047C04608B500F0F4
:102AE000CDFF08BD70B50B4E82B03368022B0ED0FF
:102AF000094D0024E0B2694601F0C4F969460A882C
:102B0000A3000134EA50062CF4D10123336002B053
:102B100070BDC04624FCFF1F44FDFF1F7047C04628
:102B200008B5034B186A02F077F901F027F808BDE1
:102B3000B8FCFF1F7047C0467047C04608B501206B
:102B400001F014F808BDC046A0235B00C35830B59F
:102B5000092B19DD104A934217DCA4214900425881
:102B600001324250022A0BDD9C22520085589A24E1
:102B7000640005519E24640004598450022242508E
:102B80004C3292008018436030BDA42252000021D4
:102B900081500022F4E7C046B80B0000F0B50023D6
:102BA0004746202280B4C36183618360835421221D
:102BB00083540321782243670367041C81540A224B
:102BC0000280C434C42283506360234BFE26E36436
:102BD000224BB605236500236365A3652366204B5E
:102BE000E665A3611F4B266163666661051CC088AC
:102BF000FEF776FB1C49FDF7CFFE8046A888FEF75E
:102C00006FFB1949FDF7C8FE011CFDF759FD311C8A
:102C1000FDF756FD071C391C4046FEF7A1F8134985
:102C2000FDF74EFD4146051CA060301CFEF7C2F9C1
:102C3000011C381CFEF794F80C49FDF741FD011CFE
:102C4000E060281CFDF7A8FE311CFDF739FDE061AE
:102C500004BC9046F0BDC046560EC9BF560EC93FD3
:102C600090A0983EBFBF7F3F00FF7F47666606404B
:102C7000F0B5474680B4051C002959D1FF226F23C7
:102C8000C254022278238160C254C423C150041C60
:102C9000294BC434E364294BFE2623650023636576
:102CA000A3652366264BB605A3616160E6652661D0
:102CB00066610088FEF714FBEC218905FEF750F8E9
:102CC0002049FEF74DF82049FDF7FAFC6066E888D8
:102CD000FEF706FB1D49FDF75FFE8046A888FEF75C
:102CE000FFFA1A49FDF758FE011CFDF7E9FC311CFB
:102CF000FDF7E6FC071C391C4046FEF731F8144985
:102D0000FDF7DEFC4146051CA060301CFEF752F9C1
:102D1000011C381CFEF724F80D49FDF7D1FC011CFD
:102D2000E060281CFDF738FE311CFDF7C9FCE061AE
:102D300004BC9046F0BDC046560EC9BF560EC93FF2
:102D400090A0983E6F12833A77BE7F3F00FF7F4787
:102D5000666606407047C0467047C046F8B5041C1A
:102D600008880D1CFEF7BCFAEC218905FDF7F8FF79
:102D70001D49FDF7F5FF1D49FDF7A2FC6066E888D7
:102D8000FEF7AEFA1A49FDF707FE071CA888FEF702
:102D9000A7FA1749FDF700FE011CFDF791FCFE2183
:102DA0008905FDF78DFC061C311C381CFDF7D8FF8A
:102DB0001049FDF785FC051CA060FE20391C80052C
:102DC000FEF7F8F8311CFDF7CBFF0A49FDF778FC58
:102DD000011CE060281CFDF7DFFDFE218905FDF7E1
:102DE0006FFCE061F8BDC0466F12833A77BE7F3F4B
:102DF00000FF7F4766660640F0B55F4656464D4683
:102E00004446F0B4C36C026D8BB0061C8846101C9F
:102E1000191C99460092FEF7CDF800993062484699
:102E2000FEF7C8F8041C70624846FFF753FD02F035
:102E300037FAFFF7A1FD824670630098FFF74AFD5D
:102E400002F02EFAFFF798FD0290B063201CFFF706
:102E500041FD041C0D1C02F0CFF9FFF78DFD071C8E
:102E6000391CB062FDF77CFF291C8346F062201CF0
:102E700002F016FAFFF780FD326E0390111C3063EA
:102E8000101C0492FDF76CFFF36D041C191C3064D8
:102E9000181C0593FDF764FF3269F063111C019261
:102EA000FDF75EFF73690690191C7064201C08937F
:102EB000FDF756FFF469B26959460790B064201CCB
:102EC0000992FEF777F8391C83460298FDF748FF10
:102ED000211C051C5046FDF743FF011C281CFEF772
:102EE00069F8011C0998FDF73BFF0699051C381C81
:102EF000FDF736FF011C0798FDF7E2FB011C039864
:102F0000FDF72EFF011C281CFEF754F85946051C3E
:102F10000198FDF725FF011C281CFDF73DFD051C50
:102F200070650999201CFDF71BFF391C0190504664
:102F3000FDF716FF0299FEF73DF8011C0198FDF719
:102F40000FFF211C82460698FDF70AFF0799041C13
:102F5000381CFDF705FF011C201CFDF7B1FB011C0F
:102F60000398FDF7FDFE011C5046FDF7A9FB5946ED
:102F7000041C0898FDF7F4FE011C201CFDF70CFD55
:102F8000776E041C391CB0650598FDF7E9FE4146D3
:102F90008246281CFDF7E4FE011C5046FDF790FB1D
:102FA000391C051CF0650498FDF7DAFE4146071C44
:102FB000201CFDF7D5FE011C381CFDF781FB291CE8
:102FC000041C30664046FDF7CBFE011C4846FDF769
:102FD00077FB211C051CF0644046FDF7C1FE011C77
:102FE0000098FDF76DFB3949041C3065281CFDF77E
:102FF000B7FEFEF755F935493060201CFDF7B0FEED
:10300000FEF74EF932497060281CFDF7A9FEFEF765
:1030100047F92F49B066071C201CFDF7A1FEFEF7FB
:103020003FF92C498046F066281CFDF735FB002847
:103030000AD0281C2849FDF7BDFF2649051CFDF7CD
:103040002BFB0028F5D1F564201C2249FDF724FB59
:1030500000280AD0201C2049FDF7ACFF1D49041CA4
:10306000FDF71AFB0028F5D13465281C1B49FDF734
:10307000FFFA00280AD0281C1749FDF721FB174941
:10308000051CFDF7F5FA0028F5D1F564201C13495D
:10309000FDF7EEFA00280AD0201C0F49FDF710FBBF
:1030A0000E49041CFDF7E4FA0028F5D134654246C8
:1030B0003B04DF1B13049B1AB766F3660BB03CBCE2
:1030C00090469946A246AB46F0BDC04600FF7F47FA
:1030D0001BFA2246560E4940560EC940560E49C0AC
:1030E000F0B544465F4656464D46F0B4A022520025
:1030F0008358D249013383508FB0041C00228B4285
:1031000004DCA4235B00C258531E9A41A2235B0037
:10311000E2502023E25C002A01D0013AE25421234C
:10312000E25C002A01D0013AE2546F23E25C002AFB
:1031300001D0013AE2547825635D032B0FD0A288B9
:10314000110A7F2900D863E1022B00D1C8E1626F28
:1031500083200001101A6067002800DC68E12388E2
:10316000A0689B005B43E288DB0001331B1812055B
:10317000E1689A18A36022618B4202D26421212265
:10318000A154201CE360C430AD49FFF735FEA1888F
:10319000A068090A00F00AFA0690A06800F0E8F9B1
:1031A000626F0014131258430790A188261CA3686D
:1031B000271C8C368908A8227C371031301C52001D
:1031C0005D0F00F0BBF93B7A9D4200D176E1002D06
:1031D00000D11BE18823E3589A4A9B4853431B18AC
:1031E000882259003D72490CA350F022890312062F
:1031F00089188023E150301C090C00F0A5F99623B2
:103200005B00E35820690893A1880AAD090A00F021
:10321000CDF90A90061C206900F0AAF9616F00142C
:103220000B12584322696860A188520FB0231B1902
:103230009046271C8908A822181CA037103152007C
:10324000994600F07BF93B7A984500D134E140463D
:10325000002800D126E1AC23E3587A4A4146534383
:10326000794A39729B185900AC22A350490CF023BB
:1032700089031B06C9187960090C484600F064F9F7
:1032800098235B00E358AB60002E03DD60690028E3
:1032900000DA16E16188FF23C90940310A1C9A430C
:1032A000531E891AFF3B49005B186661934200DA9E
:1032B000131C1A12D1B20091009893218900605416
:1032C000D9B2932088468000211840464870FF20DC
:1032D0004146CE43011C11408F0081461840EB59F6
:1032E0003A1D82469346D817AA58000EC018D31725
:1032F0001B0E9A18F6B201910012514612124A435F
:10330000704352498018FDF701F906AAD359051CEC
:10331000D8175946000EC01853580012DA17120E6B
:10332000D3181B125246534370434849C018FDF747
:10333000EDF880231B01C718ED18454BE761A56127
:103340009F4200DC88E0082000210722E36104900E
:1033500003910292CB461F1C3D4B9D4200DD98E03D
:10336000002D00DAA0E0EB001D132A039B1A281C95
:103370001B11093009219A46FDF71EF9FF2350461B
:10338000181A0590281C89460A300921FDF714F9FE
:103390000D1C201C00212422243003F049F9201C9C
:1033A00000212422483003F043F9029B039808339C
:1033B0009B00E3185860049B594608339B00E318B0
:1033C00059604B461133059A9B001135E318AD0047
:1033D0005A60651953466B606C220023A354019810
:1033E0006D22A3546E22A3542418231C68331E712B
:1033F0000099012902D8693442462271381C0FB065
:103400003CBC90469946A246AB46F0BDE388E3E655
:10341000022B76D0FA21C9005143491302310D48DD
:10342000FDF726F8626F101A6067002800DD96E647
:1034300078230322E2540023636790E6307500008E
:10344000CDCC4C3DFD430300C39E2600FCFF030092
:10345000FF0F0000FFFFFF00002F36DBFB001913FA
:103460000A039B1A081C1B118A46093009219B4636
:10347000FDF7A2F85B464A465046D21A02910A303E
:1034800009210392FDF798F8244B04919D4200DC3A
:1034900066E700200721FF22A361082505908946E1
:1034A000924676E7E388D8E60023FF21A361012551
:1034B000059199469A466CE77968DDE68023E158E4
:1034C00099E664222023E254E4E60022002301204E
:1034D000FF21E361049003910292934600273BE7AA
:1034E0000F48FA211218C9005143491302310D48FF
:1034F000FCF7BEFF616F0B4B4018984207DC60671A
:103500002DE60423635580235B04636727E680234D
:103510005B0463670423635521E6C046FF0F000088
:103520000080FFFFFFFFFF0008B5002001F0B6F8A4
:10353000014B01221A7008BD04FCFF1F0902120290
:10354000018042607047C046C26870B54668141476
:10355000664383680D03ED1AAD1B018805612D14C8
:103560004D43614352195B18C260836070BDC04611
:103570000B4A400C83189B049B145B43094A1B13A2
:103580005A43094992138A1A534380221B14520149
:103590004004D31A002800DA5B4258047047C04642
:1035A00000E0FFFFBC0D0000BC4D000030B5214C19
:1035B000430C1A199204921452431F4C1213544391
:1035C0001E4DA4132C1B624380241214640185B089
:1035D0005B04A21A002B00DA5242520483100092BC
:1035E000019300281EDBC0231B06C0184010144B9B
:1035F000029003934B005918CBB25A1ED2B2FD2A47
:1036000001D80133DBB2091289006C466258FF20F1
:103610001212C01A504301AA525812125343C01832
:1036200005B030BD074B181A4010E02302901B066E
:10363000DFE7C04600E0FFFFBC0D0000BC4D00000E
:10364000FFFFFF1FFFFFFFBFE24B70B51A68E24D9F
:1036500001321A602B68E14CFF2207331340606986
:103660002B6001F059FBDE4E2B68B26EA0699A42C6
:1036700000DCA9E101F03EF8E06900F0B7FEE06986
:1036800000F0BAFE726E2B68A0699A4200DCEEE18F
:1036900001F030F8E06900F0A9FEE06900F0ACFE4E
:1036A000326E2B68A0699A4200DCDDE101F022F85D
:1036B000E06900F09BFEE06900F09EFEF26D2B6871
:1036C000A0699A4200DCCCE101F014F8E06900F056
:1036D0008DFEE06900F090FEB26D2B68A0699A4201
:1036E00000DCBBE101F006F8E06900F07FFEE06974
:1036F00000F082FE726D2B68A0699A4200DCAAE19C
:1037000000F0F8FFE06900F071FEE06900F074FE7F
:10371000326D2B68A0699A4200DC99E100F0EAFF63
:10372000E06900F063FEE06900F066FEF26C2B6871
:10373000A0699A4200DC88E100F0DCFFE06900F05B
:1037400055FEE06900F058FEB26C2B68A0699A4201
:1037500000DC77E100F0CEFFE06900F047FEE069B1
:1037600000F04AFE6F23F35C2A68A069934200DCF4
:1037700065E100F0BFFFE06900F038FEE06900F0AD
:103780003BFE2023F35CA069002B00D154E100F044
:10379000ABFFE06900F02AFEE06900F02DFE212376
:1037A000F35CA069002B00D143E100F09DFFE069CC
:1037B00000F01CFEE06900F01FFE736A2A68A06931
:1037C000934200DC32E100F095FFE06900F00EFE6C
:1037D000E06900F011FE6C23F35C2A68A069934253
:1037E00000DC20E100F086FFE06900F0FFFDE06909
:1037F00000F002FE6D23F35C2A68A069934200DCAE
:103800000EE100F077FFE06900F0F0FDE06900F004
:10381000F3FD6E23F35C2A68A069934200DCFCE0B0
:1038200000F068FFE06900F0E1FDE06900F0E4FD10
:10383000B36A2A68A069934200DCEBE000F05AFF0B
:10384000E06900F0D3FDE06900F0D6FDF36A2A6874
:10385000A069934200DCDAE000F04CFFE06900F080
:10386000C5FDE06900F0C8FD336B2A68A06993428A
:1038700000DCC9E000F03EFFE06900F0B7FDE06960
:1038800000F0BAFD736B2A68A069934200DCB8E0CF
:1038900000F030FFE06900F0A9FDE06900F0ACFD48
:1038A000B36B2A68A069934200DCA7E000F022FF16
:1038B000E06900F09BFDE06900F09EFDF36B2A6873
:1038C000A069934200DC96E000F014FFE06900F08C
:1038D0008DFDE06900F090FD336C2A68A069934289
:1038E00000DC85E000F006FFE06900F07FFDE069A4
:1038F00000F082FD736C2A68A069934200DC74E0DA
:1039000000F0F8FEE06900F071FDE06900F074FD80
:10391000E06A00F015FFA06A00F094FDA06A00F0D4
:1039200097FDE06A00F00CFFA06A00F08BFDA06A32
:1039300000F08EFDE06A00F003FFA06A00F082FD57
:10394000A06A00F085FDE06A00F0FAFEA06A00F0CF
:1039500079FDA06A00F07CFD6E23F35C2A68E06AC2
:1039600093423FDD00F0F2FEA06A00F06BFDA06A1A
:1039700000F06EFD6D23F35C2A68E06A934226DD59
:1039800000F0E4FEA06A00F05DFDA06A00F060FDBA
:103990006C23F25C2B68E06A9A4200DD6AE000F07A
:1039A000CFFEA06A00F04EFDA06A00F051FDE06A73
:1039B00000F0C6FEA06A00F045FDA06A00F048FDD8
:1039C000606901F0AFF970BD00F08EFE54E600F0C2
:1039D000B7FED7E738FCFF1F00FCFF1FB8FCFF1F36
:1039E00060FDFF1F00F0ACFEBEE700F07DFE89E742
:1039F00000F07AFE78E700F077FE67E700F074FEEB
:103A000056E700F071FE45E700F06EFE34E700F087
:103A10006BFE23E700F068FE12E700F065FE01E7A9
:103A200000F062FEEFE600F05FFEDDE600F05CFE17
:103A3000CBE600F05FFEBAE600F05CFEA9E600F01F
:103A400053FE98E600F050FE86E600F04DFE75E667
:103A500000F04AFE64E600F047FE53E600F044FE44
:103A600042E600F041FE31E600F03EFE20E600F0C6
:103A70003BFE0FE600F06AFE93E7C04638B51F4BE9
:103A80001A6801321A601E4A136801331360DA079C
:103A900008D51C4B1C4C1D682378002B25D1FFF743
:103AA000D3FD38BD194C1A49201CFFF719FB154BE3
:103AB000E269A5691A60144C164B1D602378002B2F
:103AC000EDD02D05002000F0E3FD2B0DC025AD014C
:103AD0001D4311492B0A0B70002323700F4B022248
:103AE00018684D7001F0F6F9D9E72D05002000F0B7
:103AF000CFFD2B0DB0252D02EAE7C04628FCFF1FA5
:103B00002CFCFF1F34FCFF1F04FCFF1F60FDFF1F88
:103B10003CFDFF1F30FCFF1F40FDFF1FB8FCFF1FD7
:103B200010B582B06A46002400206946147000F087
:103B30003FFE6A461378102B0AD01021002000F0B7
:103B40000BFE094B0120197800F006FE02B010BDF3
:103B500069460120147000F02BFE6A461378024873
:103B60000370FFF7F9F8F1E73CFDFF1F08B50248C5
:103B7000FEF7EAFF08BDC04660FDFF1F08B5C1B2F1
:103B8000024A0348FFF774F808BDC0463CFDFF1F1A
:103B900060FDFF1FF8B54F464646C0B400F0C6FCB6
:103BA000264D281CFEF7FAFF25482649FFF7D2F8D4
:103BB000254B802252041A605A609A60DA601A61BA
:103BC0005A61C82196228900120159831A83D98328
:103BD0009A83FFF7A5FF1D4B2F1C986801F0CCFAC4
:103BE000012000F069F900F0B7F8002000F0FCF8BF
:103BF000FFF72AFDFFF728FD15490022154C164E48
:103C000089469046C4372368012BFCD13168B268DD
:103C1000CB437168AB80D3436B800B11F1684A468C
:103C2000EB80531ADB114246381C291C2B80226082
:103C3000FFF794F8002000F0D7F8E4E760FDFF1FDD
:103C40005CFDFF1F3CFDFF1FB0FFFF1FB8FCFF1F07
:103C5000FFFF000024FCFF1F44FDFF1F1C4BF0B5BD
:103C6000002B00D1F0BD002703250126D8190268DA
:103C70004168002A26D1002904D18268002AF1D0A7
:103C80000C37F3E780680028FAD0141C0C43254257
:103C900008D1032806D910CA043810C10028F4D16D
:103CA0000C37E3E7264207D1012805D914880238EA
:103CB0000C8002320231E6E7147801380C700132D0
:103CC0000131E0E780688A42DDD10C37CEE7C0469B
:103CD000106900007047C0467047C04638B5FFF70E
:103CE000F9FF00F0C9FB184B181C002805D08546C9
:103CF00081B00020C043009001B0144B144AD21A86
:103D000008D1FFF7ABFFFFF7E7FF00201149FFF7EE
:103D100041FFFEE7032501240020291C194006D19C
:103D2000032A04D902C3043A002AF6D1E9E7211C88
:103D3000194005D1012A03D91980023A0233F3E769
:103D40001870013A0133EFE7000C002008FCFF1F58
:103D5000E8FFFF1F3CFCFF1F38B51C4B08201A78FA
:103D6000D2B2002A00D038BD022119701978002083
:103D70000029F8D01B78032B17D0154B15491A7062
:103D8000154B1A70154B1A805A809A80DA801A8166
:103D90005A8100230B70124C0122206800F08CF92C
:103DA000206800F073F90020DDE70B4B08491C7810
:103DB0000C4D08782C5DA043087018780749400026
:103DC00042521B7803490B70E5E7C04666FCFF1FB3
:103DD00064FCFF1F68FCFF1F65FCFF1FD0FFFF1F77
:103DE000DCFFFF1F00670000F8B51F4C051C23789F
:103DF0000820DBB2002B00D0F8BD0122227022780F
:103E0000002A07D10020002DF6D02378012BFCD00A
:103E10000020F1E72278032A15D0144A14491370C0
:103E2000144A0B701370144A138053809380D3800C
:103E300013815381114E0122306800F03DF9306842
:103E400000F024F9DEE70B4A084916780C4F087891
:103E5000BE5DB043087010780749400043521378A4
:103E600003490B70E6E7C04666FCFF1F64FCFF1FBA
:103E700068FCFF1F65FCFF1FD0FFFF1FDCFFFF1F5B
:103E80000067000010B50223052801D9181C10BDD9
:103E9000064B1A78064B1C5C09231442F6D0054BDE
:103EA0004000C35A1B010B800023EFE764FCFF1F97
:103EB00000670000D0FFFF1F70B5114C061C227870
:103EC0000820002A00D070BD0E4D042328682370FE
:103ED00000F022F9286800F049F9002E0DD028687A
:103EE00000F01AF90028FAD0286800F055F90028E7
:103EF00003D0002323701B20E5E70020E3E7C04642
:103F000066FCFF1FDCFFFF1FF8B5254D2B78042B47
:103F10003CD02B78234C2178032B24D0224B234EEA
:103F20004900C918306800F0E3F823780133DBB2A8
:103F300023702378062B0AD023781D4930680B7034
:103F4000012200F0B9F8306800F0A0F8F8BD194B74
:103F50003F22002727701A70FEF7C4FD2B78012B33
:103F6000EAD12F70F2E7114B490018680E4BC918BF
:103F700000F0BEF822780F4B0F481978825C0A4394
:103F80001A70FEF7AFFD00232B70DFE7074B1868B0
:103F900000F002F900232B70FEF7C0FDD6E7C04603
:103FA00066FCFF1F65FCFF1FD0FFFF1FDCFFFF1F2C
:103FB00068FCFF1F64FCFF1F00670000054A08B58E
:103FC00000231370044A0020137000F009F8034B1B
:103FD000186008BD64FCFF1F66FCFF1FDCFFFF1FAD
:103FE000204A214B30B521491A600024204B14701F
:103FF0009470CD585060802000052843C8501D4B58
:10400000C32189005D5880202D022D0A0006284317
:10401000585018688021090201431960164B17494E
:10402000586B08405863D86A0840D8621448056A3B
:104030000D400562456A0D404562986A08409862E5
:104040009868014099600F4B57219960D9680F20FB
:104050008143D96040211C6259620B4B101CDA600D
:1040600030BDC04674FCFF1F70FCFF1F0070044091
:104070003C10000000E100E000A00440FFF8FFFE5B
:104080000090044000B00340B8FCFF1F094B10B57E
:10409000196A08220C0601D5101C10BD5A6A482165
:1040A0008A435A621A6A40218A431A6242781A6025
:1040B0000022F1E700B0034030B59623012A01D079
:1040C000181C30BD084B1C6A08232506F8D4027062
:1040D0000A788223052AF3D8044B9A5C40231343C1
:1040E00043700023ECE7C04600B0034008670000BF
:1040F00030B502780023002A0AD0064D1A1D92001E
:1041000054595A00545201330278DBB29A42F5D81E
:10411000002030BD00B00340124B82B06946021C43
:10412000EFF3108072B6087019780131C9B21970B6
:10413000012911D00020917890701A78013AD2B2FA
:104140001A70002A03D1084B187880F310884B1E90
:104150009941C8B202B070476946087802490870B0
:10416000E8E7C04688FCFF1FE6FFFF1F094B8022DF
:10417000196A08200A4200D07047196A402081431A
:1041800019625F211960596AC02081430A435A624B
:104190000020F1E700B003400B4B1B205A6A510688
:1041A00000D57047DA6C996C002089185A6C891810
:1041B0001A6C8918DA6B89189A6B89188022490859
:1041C00012020A43DA62ECE700B0034008B5054B7F
:1041D00001221B689A705868FFF796FE024B1B6914
:1041E00008BDC04670FCFF1F00B00340F0B5071CBF
:1041F00083B00C1C161C002925D01E4D6B46EFF316
:10420000108072B618702B780133DBB22B70012B43
:104210002AD0194B391C1868221C002300F038FCE6
:10422000082815D0154B20221C80154B19780A43FD
:104230001A702B78013BDBB22B70002B03D1114B92
:10424000187880F3108834800023181C03B0F0BD68
:104250002A780C23013AD2B22A70002AF5D1094AF1
:10426000107880F31088F0E76B461A78054B1A70C7
:10427000CFE7C04688FCFF1FE0FFFF1F7CFCFF1F4D
:104280007EFCFF1FE6FFFF1FF0B5071C83B00C1C70
:10429000161C002923D01D4D6B46EFF3108072B61B
:1042A00018702B780133DBB22B70012B28D0184B00
:1042B000391C1868221C012300F060FC082813D068
:1042C000144B202219780A431A702B78013BDBB279
:1042D0002B70002B03D1104B187880F3108834809A
:1042E0000023181C03B0F0BD2A780C23013AD2B287
:1042F0002A70002AF5D1084A107880F31088F0E778
:104300006B461A78044B1A70D1E7C04688FCFF1F31
:10431000E0FFFF1F7EFCFF1FE6FFFF1F074A202371
:104320001078184001D00C207047054A91789943C5
:104330009170937810218B439370F5E77EFCFF1FFB
:104340000060064008B5054B7F221B680240002133
:10435000181C00F089FCC0B208BDC046E0FFFF1F7A
:1043600008B5044B002200201A8000F037FB024BF6
:10437000186008BD7CFCFF1FE0FFFF1F08B5044B61
:1043800020211A788A431A70FEF7D6FB08BDC04672
:104390007EFCFF1F08B5044B20211A788A431A704F
:1043A000FEF7C8FB08BDC0467EFCFF1F0A4B0B4A48
:1043B00040211060586908435861186888431860A4
:1043C000074B0849986901408020400001439961EA
:1043D000054B101CDA61704740F00F4080FCFF1F56
:1043E00000A00440FFF8FFFEB8FCFF1F014B402275
:1043F0009A60704740F00FF8014B40225A607047B6
:1044000040F00FF80A4B0B4A10211060586908431E
:104410005861186888431860074B084918690140BB
:104420008020400001431961054B101C9A627047BF
:1044300000F00F4084FCFF1F00900440FFF8FFFED7
:10444000B8FCFF1F014B10229A60704700F00FF874
:10445000014B10225A60704700F00FF808B500F0C9
:10446000C7FC08BD08B500F0EDFD08BD08B5FEF7B6
:104470002DFB08BDFFBE7047214B224A2249D15077
:10448000224B8822002152019950214AC0218902E1
:104490009950204AC0219858C900014399501E4B99
:1044A0009A78110704D5997808220A43D2B29A70F3
:1044B000164B174A802149029950184A18499858B2
:1044C00001408020400401439950164906230B7097
:1044D0004B78402213404B70CB781F221340A02210
:1044E0001343CB70104B80221A7010228B791A4222
:1044F000FCD00C490C228B791A42FCD17047C04683
:10450000080D000000E000E0000000000070044022
:10451000441000003810000000D0074004100000D4
:10452000FFFFFFFC004006400050064070B53C4BCA
:104530001F215A793B488A435A711A7907218A43C5
:104540001A71394B73211A78C7248A4350210A43C0
:104550001A705A7863218A4340210A435A709A7824
:1045600019218A439A70314B00221A70304B022273
:10457000D968A40001401143D96019690140114371
:104580001961196B0140114319632A490D592D0412
:104590002D0C0D51284C294D666935406561284C1C
:1045A000A56A28401043A0622648446994434461A8
:1045B0005868254A0240C020800002435A60C12347
:1045C0009B00C858214A0240CA50002000F02CFC31
:1045D000002000F0BBFDFFF7F1FC00F0A9FB00207C
:1045E00000F036F8002000F077FB002000F05CF8C7
:1045F0000020FFF7DBFE002000F0C2FB00F0AAFB6A
:10460000FFF7AEFE00F026F90020FFF7FBFE0020CA
:1046100000F076F8002000F0E1FC62B670BDC04604
:1046200000F00740FDFFFFFE00D0074000E007401C
:104630000090044000E100E000F00F40FFEFFFFFBA
:1046400000A0044040F00F40FFF8FFFEFFFF00FF16
:104650000A4B0B4A202110605869084358611868BA
:1046600001431960074B0849586901408020400008
:1046700001435961054B101C1A61704700F00F404F
:104680008CFCFF1F00900440FFF8FFFEB8FCFF1FEA
:10469000014B20229A60704700F00FF8014B202256
:1046A0005A60704700F00FF80A4B0B4A80211060E7
:1046B000586908435861186888431860074B0849CF
:1046C000D8690140802040000143D961054B101C8E
:1046D0009A61704740F00F4090FCFF1F00A004401B
:1046E000FFF8FFFEB8FCFF1F014B80229A60704765
:1046F00040F00FF8014B80225A60704740F00FF8ED
:104700000A4B0B4A08211060586908435861186821
:1047100088431860074B0849D86801408020400052
:104720000143D960054B101CDA62704700F00F405E
:1047300094FCFF1F00900440FFF8FFFEB8FCFF1F31
:10474000014B08229A60704700F00FF8014B0822D5
:104750005A60704700F00FF870B5041C40055023F4
:10476000400F82B018430E1C00F046F8051E1AD107
:104770006A461470567068460221002200F056F80E
:10478000051E10D1FF236A461370002000F01AFDA9
:10479000684601210022642300F05EF80028F4D16D
:1047A00000F032F802E000F02FF8281C02B070BDD3
:1047B00030B583B06B4618704305580F502318432B
:1047C0000D1C00F019F8041E10D1684601210122C9
:1047D00000F02CF8041E09D1281C0121002200F051
:1047E00015F8041E02D100F00FF802E000F00CF8FA
:1047F000201C03B030BDC04608B5FFF7A3FD00285C
:1048000000D01B2008BDC0460020704710B582B004
:10481000141C6A46FFF738FD002801D1002C01D096
:1048200002B010BDFFF77AFDFAE7C04630B583B09D
:10483000151C6A46FFF7DAFC041E08D102239D43CB
:1048400002D1FFF76BFD041C201C03B030BDFFF745
:1048500065FDF9E77047C04630B583B0151C6A4660
:10486000FFF7C4FC041E08D1002D02D0201C03B0A9
:1048700030BDFFF753FD041CF8E7FFF74FFDF5E7E8
:1048800070B5544B12241A68534BD978D878C9B2F2
:10489000A0430843D87098782024204022D09D78E7
:1048A000102028422CD001250D4251D111788E07BD
:1048B0005DD59689002E00D06FE09688002E5DD0E1
:1048C00004204C0700D473E0012E00D17DE09A78DB
:1048D00008218A439A70404B10219A788A439A7033
:1048E0001B7970BD10240C42FBD090819080107811
:1048F00001218843517010709A78A2439A70F0E7B2
:104900009188D088013989B201309180D080002906
:1049100017D1117801208143117099780820A143A3
:1049200099709978814399709368591C91602A49CC
:10493000097919709388002BD3D15069FFF72AFDAC
:10494000CFE70129F0D19878082101439970EBE76E
:104950009978A14399709978814399700023938144
:10496000938013780621AB430B431370B9E791781A
:104970001971117802230B431370B2E7A943117028
:104980005178012905D19978A1439970997881438B
:1049900099705069FFF7F2FCA3E7D189013E01311C
:1049A000D18111699681481C10610A781A7198E7C3
:1049B00099780143C9B29970D47801212143C9B2D1
:1049C00019711378184310708BE7997808220A43FD
:1049D0009A7080E798FCFF1F00600640234B244A32
:1049E00070B5136020221A7010229A7001225A703A
:1049F0000022DA809A80DA819A811E491E4A402478
:104A00008D5858612C438C501C4A002050219070C6
:104A100091710221D1701A491A4D0E6980242E40DD
:104A2000A40026430E61CE6835402C43CC60164965
:104A3000C224A4000D59FF26B543802635430D51ED
:104A40000D68802464002C430C602C2150719071FF
:104A500051709078802101439170907840210143FA
:104A600091700A4A181C536270BDC0469CFCFF1F1F
:104A700098FCFF1F007004403410000000600640E6
:104A800000A00440FFF8FFFE00E100E0B8FCFF1FBB
:104A9000F0B5041C83B0002A09D04078012808D062
:104AA00020780825C6070CD5281C03B0F0BD0025CA
:104AB000FAE72F4DEE780825B706F5D42678304270
:104AC000F2D1A589002D01D00825EDE76F46EFF35F
:104AD000108072B63870274806780136F6B2067034
:104AE000012E2ED027780126216163700021204BF2
:104AF0003E43A2812670E181997810220A439A7080
:104B00009A78910618D4997820220A43D2B29A70E2
:104B100023789A0619D5062213432370A278144BE2
:104B20001A710378013BDBB20370002BBFD1124B2B
:104B3000187880F31088B7E7997804220A439A70AE
:104B4000E6E73F780C4E3770CCE710221A4006D0CB
:104B5000062293432370E278054B1A71E1E71E07A2
:104B6000DFD502210B432370014B1A71D9E7C046F0
:104B70000060064088FCFF1FE6FFFF1FF0B5051C24
:104B800083B0002A14D08124002B02D1201C03B052
:104B9000F0BD007809240607F8D46E78012E09D0FC
:104BA0000824C607F2D4AC88002C0DD00824EDE709
:104BB0000024EBE7294CE478A44667460824BF06A6
:104BC000E4D40642E2D1EEE76F46EFF3108072B60E
:104BD0003870234806780136F6B20670012E39D0B7
:104BE0002F780126A9606B7000211C4B3E43AA80E0
:104BF0002E70E980997810220A439A709A7891066B
:104C000019D5997804220A439A702B789A0618D5F8
:104C100006221343AA782B7001231A430F4B1A71F3
:104C20000378013BDBB20370002BC1D10D4B187828
:104C300080F31088AAE7997820220A43D2B29A70AA
:104C4000E3E7DE06ECD5062293432B70EA78034BAC
:104C50001A71E5E73F78034E3770C1E70060064000
:104C600088FCFF1FE6FFFF1F30B504780823E50727
:104C700001D5181C30BD012916D0002908D0022901
:104C800025D130239C4308231C4304700023F0E704
:104C900089237F2AEDD818239C4320231C435200EC
:104CA000827004700023E4E70A4989238A42E0D82D
:104CB00006238270D2091A4010235B421A4328232C
:104CC0009C4310231C43C27004700023D1E78D2342
:104CD000CFE7C046FF0300000A4B0B4A20211060BB
:104CE000586908435861186888431860074B084999
:104CF000586901408020400001435961054B101C58
:104D00005A61704740F00F40B4FCFF1F00A0044000
:104D1000FFF8FFFEB8FCFF1F014B20229A6070478E
:104D200040F00FF8014B20225A60704740F00FF816
:104D3000064B08225968114359609968914399605C
:104D40005969034A0A405A617047C04600F00F4053
:104D5000E7EFFFFF074B80225968D2000A435A60F1
:104D60009968054A0A409A605969044A0A405A619A
:104D70007047C04640F00F40FFFBFFFFFBFBFFFF0B
:104D8000124B134A10B51360124A18601249106B87
:104D900001408020400001431163106B0F49014026
:104DA0000F48014311630F4AC721890054580E4828
:104DB0002040802424042043505010688021C905DD
:104DC00001431160094A181C136210BDF0FCFF1F5B
:104DD000ECFCFF1F00900440FFF8FFFEFFFFF0FE19
:104DE00000000B0100E100E0FFFF00FFB8FCFF1F27
:104DF00008B5074B80221868064B5204196B114204
:104E000005D0196B00680A431A63FDF789FE08BDD7
:104E1000ECFCFF1F00900440024B1869C004C00F57
:104E20007047C04600F00F401F4B204A30B513605A
:104E300000221A6098619A809A819A60DA819A8237
:104E40001A6100211A481B4A997585588024E40389
:104E50002C438450184AC22080001558174C2C400F
:104E600080252D042C43145014688020C00020435A
:104E70001060134A134CD569C020254080000543BB
:104E8000D561114A15682C40204310600F4A1E203E
:104E900010701020507091701078402101431170F3
:104EA0000B4A181C136030BDF8FCFF1FF4FCFF1FF9
:104EB000007004403410000000E100E0FFFF00FF3C
:104EC00000900440FFF8FFFE00A00440006007408F
:104ED000B8FCFF1F70B5838A82B0041C002B03D07E
:104EE0000823181C02B070BD6D46EFF3108072B637
:104EF0002870124805780135EDB20570012D17D0E4
:104F0000A2820022E281A27D216101218A43A27551
:104F10000B4A20211478214311700278013AD2B251
:104F20000270002ADDD1074A107880F31088D8E794
:104F30006D462E78034D2E70E2E7C04688FCFF1FB9
:104F400000600740E6FFFF1F38B5224B1C68224B6C
:104F5000DD78EDB26AB2002A19DB20232B4210D093
:104F6000E189A28A91420DD223695A1C22611A78E2
:104F7000194B5A71E389A28A01339BB2E3819A42A9
:104F80001ED038BD144A117899431170F9E7A289EF
:104F9000002AE2D0A268511CA16059791170A28840
:104FA000A189013292B2A2809142D6D11A787F2192
:104FB0000A401A700023A381A069FDF78DFDCCE79C
:104FC000A27D0023A38201231343A375A069FDF7EB
:104FD0007FFDD6E7F4FCFF1F00600740124B134A29
:104FE00010B51360124A18601249506801408020C1
:104FF00040000143516050680F4901408520400442
:1050000001435160C7200D4A8000145880212402BA
:105010000906240A0C431450106801431160084A21
:10502000181C136310BDC04618FDFF1F14FDFF1FA1
:1050300000A00440FFF8FFFEFFFFF0FE00E100E0EB
:10504000B8FCFF1F08B5074B80221868064B5204B6
:105050005968114205D0596800680A435A60FDF743
:105060006DFD08BD14FDFF1F00A0044008B5FDF74D
:1050700035FD08BD1B4A70B55368002B05D01A7A60
:10508000D86001321A72181C70BD1749174CC860DD
:105090000120087216488025016016486D042658C4
:1050A000354325501448C42403604360C360436102
:1050B000124BA400836080235B000B6008234B60CD
:1050C0000F4B104D1E5935408026360235431D5179
:1050D0001D688024A4022C431C604023036051609F
:1050E0000B1CD0E7B8FCFF1F20FDFF1F0070044021
:1050F0001CFDFF1F3C10000000800340B15D00005C
:1051000000E100E0FF00FFFF044B98211A688A438A
:10511000416800200A431A607047C046008003407F
:1051200008B5084B80221868074B19680A4208D056
:105130000168C90505D51968C0680A431A6000F0FE
:1051400027F808BD1CFDFF1F0080034038B5084C40
:10515000084DA060002300202371AC60FFF78AFF98
:105160002060002801D0201C38BDA860FCE7C046A4
:1051700030FDFF1FB8FCFF1F08B50379002B04D1D9
:10518000012303710068FFF7BFFF002008BDC04680
:1051900008B5034B9B689868FFF768FF08BDC046D9
:1051A000B8FCFF1FC046C046C04670470020C0463E
:1051B000C046C046C046C04601300928F7D9C0469F
:1051C0007047C04638B5051E12D0E024FF34013CBC
:1051D000A4B2FFF7EBFF002CF9D10724013CA4B2E5
:1051E000FFF7E0FF002CF9D1013DADB2002DECD16D
:1051F00038BDC0460000000010B5021C26480B1C3C
:10520000490086B0490881421EDD2448814205DDFF
:10521000101C191CFCF7B8FF06B010BD101C191C9F
:1052200002AA00F095F80323184001281DD0022897
:1052300011D0002824D0012402980399049A059BD8
:10524000009400F0FDFFE7E7101C191C114B104AF9
:1052500000F0BAFAE0E7049A059B0298039900F07F
:10526000B3FA80231B06C918D6E7049A059B009061
:105270000298039900F0E4FF80231B06C918CBE7CE
:1052800002980399049A059B00F09EFAC4E7C04671
:105290000000000000000000FB21E93FFFFFEF7F5E
:1052A00010B5021C28480B1C490086B049088142F1
:1052B0001FDD2648814205DD101C191CFCF764FF28
:1052C00006B010BD101C191C02AA00F041F80323FF
:1052D0001840012822D0022814D0002825D0049A92
:1052E000059B0298039900F06FFA80231B06C918EA
:1052F000E6E700210091101C191C124B104A00F027
:105300009FFFDDE70124049A059B0298039900940E
:1053100000F096FF80231B06C918D1E7049A059B6D
:105320000298039900F050FACAE701240298039901
:10533000049A059B009400F083FFC1E7C046C04675
:105340000000000000000000FB21E93FFFFFEF7FAD
:10535000F0B556464D4644465F46F0B44B005E08F5
:10536000A34B91B0041C0D1C91468A469E4200DC62
:1053700086E0A04B9E4223DC002900DCCEE1291C04
:105380008C4B8B4AFCF700FF9B4B041C0D1C9E4270
:1053900000D18FE0884A894BFCF7F6FE021C0B1CFB
:1053A00049460A604B60201C291CFCF7EDFE824A2E
:1053B000824BFCF7E9FE4A469060D160012067E02D
:1053C0008E4B9E4200DC91E08D4B9E4267DC8D4906
:1053D0003315C9180B05F51A8B46291C041CFDF75B
:1053E00007FAFDF739FA021C0B1C201C291C0A9233
:1053F0000B93FCF7C9FE724A724BFCF735FC0F1C8D
:10540000061CFDF7F5F9FDF727FA041C0D1C221CFC
:105410002B1C301C391C0C940D95FCF7B5FE684A0A
:10542000684BFCF721FC684A684B0E900F91FBF724
:10543000DFF8002800D192E1634A644B201C291C4C
:10544000FBF7D6F8431E984102231B1A0222009252
:105450006D4A0AA8019249465A4600F0D9FA5246C6
:10546000002A15DA4C46646880210906631849460B
:10547000CA68802424064B601319CB60404207E0C1
:10548000111C14605560504A504B8A60CB6000205C
:1054900011B03CBC90469946A246AB46F0BD221CDA
:1054A0002B1CFCF771FE4A469060D1601060516081
:1054B0000020EDE7464A474BFCF766FE464A474B5D
:1054C000041C0D1CFCF760FE021C0B1C49460A6004
:1054D0004B60201C291CFCF757FE3F4A3F4BFCF752
:1054E00053FE4A469060D1600120D1E700F054FF9E
:1054F0003B4A3C4B041C0D1CFCF7B6FB3A4A3B4BA9
:10550000FBF74AFFFDF774F98346FDF7A5F9294B30
:10551000274A04900591FCF7A7FB021C0B1C201CDA
:10552000291CFCF731FE244A244B02900391049875
:105530000599FCF799FB5B46069007910298039941
:105540001F2B65DC5A46013A304B9200D358B342C8
:105550005ED0069A079BFCF717FE0D1C0F1C041C5F
:1055600049460C604D60804642463B1C02980399B8
:10557000FCF70AFE069A079BFCF706FE4A46041C47
:105580000D1C9460D5605446031C5846002C00DB6B
:105590007EE744461460802212064C46BF188918E4
:1055A0006760A360E160404272E7C046C046C04603
:1055B00000004054FB21F93F3163621A61B4D03DD1
:1055C000000000000000704100000000000000002A
:1055D0000000601A61B4D03D7370032E8A19A33B9A
:1055E00083C8C96D305FE43F000000000000E03F69
:1055F000FB21E93F7BD90240FB21F93FFB213941E7
:10560000FFFFEF7FEAFBFFFF9067000010670000DD
:10561000069A079BFCF7B8FD4B00041C0D1C4A467C
:1056200036155B0D80460F1C14605560F31A102B65
:105630009ADD584B564A04980599FCF715FB041C53
:105640000D1C221C2B1C02980399FCF79DFD089051
:105650000991089A099B02980399FCF795FD221C71
:105660002B1CFCF791FD4C4A4C4B041C0D1C049860
:105670000599FCF7F9FA221C2B1CFCF785FD069016
:105680000791069A079B08980999FCF77DFD4B4600
:105690000D1C041C1C605D604B005B0D0F1C8046E4
:1056A0000899099AF31A02910392312B00DC5BE707
:1056B0003B4A3C4B04980599FCF7D6FA041C0D1C98
:1056C000221C2B1C02980399FCF75EFD02900391AB
:1056D000029A039B08980999FCF756FD221C2B1C83
:1056E000FCF752FD304A314B041C0D1C04980599FF
:1056F000FCF7BAFA221C2B1CFCF746FD069007911A
:10570000069A079B02980399FCF73EFD4A46041C43
:105710000D1C80460F1C1460556025E7291C244A87
:10572000244BFBF739FE264B041C0D1C9E4218D05F
:10573000214A224BFBF730FE021C0B1C49460A6033
:105740004B60201C291CFCF71FFD1B4A1B4BFBF761
:1057500023FE4A469060D1600120404298E6032330
:1057600074E60C4B0A4AFBF717FE0B4A0B4B041C62
:105770000D1CFBF711FE021C0B1C49460A604B6016
:10578000201C291CFCF700FD034A044BDFE7C04640
:105790000000601A61B4D03D7370032E8A19A33BD8
:1057A0000000002E8A19A33BC14920259A837B392A
:1057B00000004054FB21F93F3163621A61B4D03DCF
:1057C000FB21F93FC046C046F0B5474680B488B0DB
:1057D000029203934B005B089846894B061C0F1CF2
:1057E000984563DCFDF704F8002800D1DDE0321CA9
:1057F0003B1C301C391CFCF737FA6E4B6C4A041CFE
:105800000D1CFCF731FA6C4A6C4BFBF7C5FD221CF2
:105810002B1CFCF729FA6A4A6A4BFCF7B5FC221CE0
:105820002B1CFCF721FA684A684BFBF7B5FD221CDC
:105830002B1CFCF719FA664A664BFCF7A5FC221CE8
:105840002B1CFCF711FA644A644BFBF7A5FD221CE4
:105850002B1CFCF709FA04900591614A614B201C4E
:10586000291CFCF701FA049A059B00900191201C69
:10587000291CFCF7F9F9029A039B041C0D1C301C2F
:10588000391CFCF7F1F9021C0B1C201C291CFCF72D
:105890007BFC021C0B1C00980199FCF775FC021C98
:1058A0000B1C51485149FCF76FFC71E0321C3B1C4A
:1058B000FCF7DAF93F4B3E4A041C0D1CFCF7D4F907
:1058C0003D4A3E4BFBF768FD221C2B1CFCF7CCF934
:1058D0003B4A3C4BFCF758FC221C2B1CFCF7C4F940
:1058E000394A3A4BFBF758FD221C2B1CFCF7BCF93C
:1058F000374A384BFCF748FC221C2B1CFCF7B4F948
:10590000354A364BFBF748FD2B1C221CFCF7ACF943
:105910003C4B0490059198459FDD3B4B98453BDC03
:105920003A4900220B1C43442F483049009201930E
:10593000FCF72AFC06900791294A2A4B201C291CB7
:10594000FCF792F9009A019BFCF71EFC049A059B58
:1059500000900191201C291CFCF786F9029A039BF8
:10596000041C0D1C301C391CFCF77EF9021C0B1C9E
:10597000201C291CFCF708FC021C0B1C0098019938
:10598000FCF702FC021C0B1C06980799FCF7FCFBB9
:1059900008B004BC9046F0BD154A164B069207931A
:1059A0001549164A00910192C6E70F480F49EFE7E3
:1059B000D43888BEE9FAA8BDC4B1B4BD9EEE213E7C
:1059C000AD529C804F7E923E9015CB19A001FA3EBD
:1059D0007751C1166CC1563F4C5555555555A53F8D
:1059E000000000000000E03F000000000000F03F69
:1059F000000000000000E73F000000000000D23F70
:105A0000FFFF3F3E3233D33F0000E93F0000E0FF9D
:105A1000F0B556464D4644465F46F0B48E4C82463D
:105A2000A544A89D10938D4B141CAA00109DD2581C
:105A30000E91013DE01E18210C920695FAF766FDC5
:105A4000C343DB171840C3435A00D318DB001B19AC
:105A50000F90441B0C980B932F1817D4A998A500EE
:105A6000E71926AE4519013707E02868FCF7F4FE70
:105A7000013403C60435BC4208D0002CF5DA0134E9
:105A80006C496B48043503C6BC42F6D10C9C002C13
:105A900000DAADE30C9B109C0133DB00E4009EAD0B
:105AA000A34699462B1C5B44E93B002076ACFF3BA8
:105AB00080460D940493069D002D00DAACE1049815
:105AC0000026071C47445B4D594C50468319186803
:105AD00059683A687B68FCF7C7F8021C0B1C201C4D
:105AE000291CFBF759FC0836041C0D1C083F5E45B9
:105AF000EBD10D9908220B1C434490441C605D605F
:105B0000C845D8D10C9D11ACAB000894E418119491
:105B10000A950A9C0D9DE300EB181E685F68002C37
:105B200038DD231C013BDB00ED1812A8A300A846BA
:105B3000C418554681460495A2463F4A3F4B301C47
:105B4000391CFCF791F8FCF753FEFCF785FE3C4A44
:105B50003C4B041C0D1CFCF787F8021C0B1C301C72
:105B6000391CFCF711FBFCF743FE4946043189461A
:105B7000043901C1201C4446291C22686368FBF7D4
:105B80000BFC08256D42061C0F1CA844D145D4D13E
:105B900004988246301C391C0B9A00F0B9FC2A4A42
:105BA0002A4B041C0D1CFCF75FF800F0F9FB284A97
:105BB000284BFCF759F8021C0B1C201C291CFCF775
:105BC000E3FA041C0D1CFCF713FE8146FCF744FEAF
:105BD000021C0B1C201C291CFCF7D6FA0B9C061C73
:105BE0000F1C002C00DCF9E00A9A12AD013A920079
:105BF000AB581821091B181C0841814488401B1A06
:105C0000AB5017252D1B2B410993099D002D50DD0D
:105C10000A9C0125A944002C00DC08E1A10012AB7C
:105C20008022591800240E48550423E0C046C0467F
:105C30000000000000000000000000000000703EB6
:105C40000000000000007041000000000000C03FA4
:105C5000000000000000204084FDFFFF9868000065
:105C6000FFFFFF00002A02D0AA1A1A6001240433A1
:105C70008B4208D01A68002CF4D0821A1A600433C0
:105C800001248B42F6D10B9D002D0EDD012D00D19C
:105C9000AFE0022D09D10A9B12AA013B9B00D2580A
:105CA00012AD02929202920AEA50099D022D00D191
:105CB0007BE0301C391CCB4BC94AFAF799FC002811
:105CC00000D1B6E00A980C9C013884420CDC8100BB
:105CD00012AD119C6B1800221D68043B2A43A3429D
:105CE000FAD1002A00D067E20C9B12A8013B9B006E
:105CF000C358002B00D079E20C9B0122023B9B0091
:105D0000C318043B596801320029FAD00A9B0A9C47
:105D10000133A4180A94A34200DDFAE60F9DA99C62
:105D20005A199200A418069DA1460D9CEA18DB00A2
:105D3000E318109D0A9C04932B19D20026A8DB00BF
:105D400026AD80185D198046099549460868FCF71C
:105D500083FD069C424610605160002C22DB4746C2
:105D60000026A04D9E4C50468319186859683A6821
:105D70007B68FBF779FF021C0B1C201C291CFBF71E
:105D80000BFB0836041C0D1C083F5E45EBD1049943
:105D9000082330C1099C0422984404919144A045F1
:105DA000D3D1B6E68F4D8E4CF1E7321C3B1C8E48AA
:105DB0008E49FCF7E9F9061C0F1C002C00D178E78E
:105DC0000B9A8948894900F0A3FB021C0B1C301C6C
:105DD000391CFCF7D9F9061C0F1C6AE70B9C002C38
:105DE00011D10A9B12A8013B9B00C558ED150995DE
:105DF0000BE70A9B12A8013B9B00C05812A9420264
:105E0000520ACA5051E77A4A7A4BFAF715FC002831
:105E100005D1002409944CE7724D714C69E60224C7
