:10040000FFFFFFFFFFFFFFFFFFFFFFFF7EFBFFFF81
:10200000000C002009500000055C0000115C00007D
:10201000115C0000115C0000115C0000115C00000C
:10202000115C0000115C0000115C0000115C0000FC
:10203000115C0000115C0000115C0000115C0000EC
:10204000115C0000115C0000115C0000115C0000DC
:10205000115C0000115C0000115C0000115C0000CC
:10206000115C0000115C0000115C0000115C0000BC
:10207000115C0000115C0000115C0000B95600000A
:10208000115C0000896F0000115C0000115C000011
:10209000115C0000115C0000115C0000115C00008C
:1020A000115C0000115C0000115C0000115C00007C
:1020B000115C0000115C0000115C0000F95B000085
:1024100010B5064C2378002B07D1054B002B02D0BA
:10242000044800E000BF0123237010BD04FCFF1F1F
:10243000000000009871000008B5084B002B03D085
:102440000748084900E000BF07480368002B03D095
:10245000064B002B00D0984708BDC0460000000086
:102460009871000008FCFF1F04FCFF1F0000000023
:10247000002934D00123002210B488422CD3012437
:102480002407A14204D2814202D209011B01F8E7CC
:10249000E400A14204D2814202D249005B00F8E785
:1024A000884201D3401A1A434C08A04202D3001BB1
:1024B0005C0822438C08A04202D3001B9C082243E4
:1024C000CC08A04202D3001BDC082243002803D022
:1024D0001B0901D00909E3E7101C10BC7047002854
:1024E00001D00020C04307B4024802A14018029066
:1024F00003BDC046D90000000029F0D003B5FFF7A6
:10250000B9FF0EBC4243891A1847C046002941D082
:1025100010B4041C4C40A44601230022002900D51D
:102520004942002800D5404288422CD30124240788
:10253000A14204D2814202D209011B01F8E7E40062
:10254000A14204D2814202D249005B00F8E78842EE
:1025500001D3401A1A434C08A04202D3001B5C0866
:1025600022438C08A04202D3001B9C082243CC08C3
:10257000A04202D3001BDC082243002803D01B0921
:1025800001D00909E3E7101C6446002C00D5404245
:1025900010BC7047002806D003DB0020C043400871
:1025A00001E08020000607B4024802A14018029012
:1025B00003BDC046190000000029EBD003B5FFF7AA
:1025C000A7FF0EBC4243891A1847C0467047C04651
:1025D0001C2101231B04984201D3000C10391B0A53
:1025E000984201D3000A08391B09984201D3000917
:1025F000043902A2105C40187047C046040302026E
:102600000101010100000000000000009C460304DD
:10261000F0B51B0C17043F0C150C1E1C041C000C01
:102620007E436B4347434543FB18300C18188742E1
:1026300002D980235B02ED18030CED1863465C435E
:102640004A433604360CA118000480194919F0BD1C
:1026500080B584B000AF78607B6800229A727B6896
:1026600000221A617B680022DA617B6800225A61CD
:102670007B6800221A667B6800225A667B6800220B
:10268000DA637B6800225A647B6800225A657B68A3
:102690000022DA657B6800221A657B6800221A64D2
:1026A0007B6800229A647B6800225A657B6800225E
:1026B0009A657B680022DA657B680022DA667B68AF
:1026C00000221A677B6800225A677B6800229A61A1
:1026D0007B680022DA677B6800229A670023FB6030
:1026E00008E07B68FA68223292000021D150FB6832
:1026F0000133FB60FB68072BF3DD0023BB6009E0BF
:1027000079682023BA688A18D31800221A70BB6827
:102710000133BB60BB68032BF2DDBD4604B080BD56
:1027200080B582B000AF78607A687B68101C191C95
:1027300001F0B0FA031C7A68101C191C01F0AAFA07
:10274000031C181CBD4602B080BDC04690B59DB0AC
:1027500000AFF860B9607A601A1CBB1C1A807B68F5
:102760005B045B0C7B60BA68FB68D31ABB667B4B6F
:102770007B6683233B667B6E181CFFF7D1FF031C2F
:10278000FB653B6E181CFFF7CBFF031CBB65BB6DE5
:102790005B427B65FA6DBB6D101C191C01F058FA89
:1027A000031C80225202101C191C01F07FFB031C29
:1027B0003B657B685B0080225202101C191C01F0F3
:1027C00047FA041C3A6E7B6E101C191C01F040FA8B
:1027D000031C201C191C01F05DFA021C7B6E101CEE
:1027E000191C01F0F9F9031CFB64FB6C181CFFF7C2
:1027F00097FF021C7B6D101C191C01F0EDF9021CE7
:102800003B6D101C191C01F045FA031CBB64544BB2
:102810007B6400233B643B6C181CFFF781FF031CA7
:10282000FB637B6C181CFFF77BFF031CBB63BB6B5C
:102830005B427B63FA6BBB6B101C191C01F008FA3E
:10284000031C80225202101C191C01F02FFB031CD8
:102850003B637B685B0080225202101C191C01F054
:10286000F7F9041C7A6C3B6C101C191C01F0F0F990
:10287000031C201C191C01F00DFA021C3B6C101CDF
:10288000191C01F0A9F9031CFB62FB6A181CFFF775
:1028900047FF021C7B6B101C191C01F09DF9021CE8
:1028A0003B6B101C191C01F0F5F9031CBB623B1CAF
:1028B0001C33BA6C1A607B685B001A1C3B1C1C330F
:1028C0005A607B685B001A1C3B1C14331A603B1C6B
:1028D0001433BA6A5A60BB6CFB668022D219136843
:1028E0001B78012B0DD18022D21913685B883A1C0A
:1028F0001C32101C01211A1C01F096F8031CFB6607
:102900001BE08022D21913681B78022B0DD1802284
:10291000D21913685B883A1C1432101C01211A1C4E
:1029200001F082F8031CFB6607E08022D2191368CD
:102930001B78022B01D9BB6AFB66BB6EFA6E534350
:10294000002B00DA01335B107B627B6ADA0BFB68D9
:10295000D318181CBD461DB090BDC046CCCC00009D
:1029600070FD0000B0B590B000AF786239623B1CDA
:102970001E331A803B1C1E331B883A6A5343BB63C9
:102980003B1C3E33BA6B1A803B1C3E331B88002B2A
:102990000CD03B1C3E331A88294B9A4206D03B1C74
:1029A0003E333A1C3E32128801321A80BB6B1B1434
:1029B0007B637B6B9B007A6AD3181B683B610023A7
:1029C0007B613B1C3E331B881D4AD31ABB60DB175F
:1029D000FB6038697969BA68FB68FFF717FE021C6B
:1029E0000B1CBA62FB627B6B01339B007A6AD318C3
:1029F0001B683B6000237B603B1C3E331B889BB203
:102A00001C1C00231D1C38687968221C2B1CFFF736
:102A1000FDFD031C0C1CB96AFA6A5B185441BB62C9
:102A2000FC62FB6A1B04BA6A120C1343BB62FB6AAA
:102A30001B0CFB62BB6A181CBD4610B0B0BDC04683
:102A4000FFFF000090B58FB002AFF860B9607A6008
:102A50001A1CBB1C1A80F868B9687A68BB1C1B88F2
:102A60003C6C00947C6C0194FFF770FE031C802288
:102A70001202D31AFB623B6C1B78002B3ED17B68A1
:102A8000BB623B6C5B88204AD31A1B127B627A6A5A
:102A9000BB6A5343BB62BB6A181C3021FFF7E8FCDA
:102AA000031CBB62F868B968BA6ABB1C1B883C6C23
:102AB00000947C6C0194FFF749FE031C80221202F3
:102AC000D31A3B623B6AFA6A53433B623B6ADB0BB5
:102AD0003B623B1C14333A6A1A603B1C1433FA6A9B
:102AE0005A603B6C5B883A1C1432101C01211A1C82
:102AF000FFF738FF031CFB61FB6900E0FB6A181C51
:102B0000BD460DB090BDC046FFFF000090B58FB030
:102B100002AFF860B9607A601A1CBB1C1A80F868B2
:102B2000B9687A68BB1C1B883C6C00947C6C01946F
:102B3000FFF70CFE031CFB623B6C1B78002B53D190
:102B40007B68BB62BB6A80221202D31ABB623B6CF9
:102B50005B88284AD31A1B127B627A6ABB6A53438A
:102B6000BB62BB6A181C3021FFF782FC031CBB62EE
:102B7000BB6A5B045B0C80221202D31ABB62802307
:102B80001902BA6ABB1C1B88386C0090786C0190E3
:102B90000020FFF7DBFD031C3B62FB6A8022120270
:102BA000D31AFB613B6AFA6953433B623B6ADB0B16
:102BB0003B623A6AFB6AD3183B623B1C1033FA6AE9
:102BC0001A603B1C10333A6A5A603B6C5B88094AB6
:102BD000D31A3A1C1032101C01211A1C00F090FF6D
:102BE000031CBB61BB6900E0FB6A181CBD460DB04D
:102BF00090BDC046FFFF000090B58FB002AFF860F7
:102C0000B9607A601A1CBB1C1A80F868B9687A68C7
:102C1000BB1C1B883C6C00947C6C0194FFF796FDF8
:102C2000031CBB628023D9017A68BB1C1B88386CEB
:102C30000090786C01900020FFF788FD031C7B62F8
:102C40003B6C1B78022B52D97B683B623B6C5B88E8
:102C5000FB623B6C1B78032B02D980235B02FB6277
:102C60003B6A80221202D31A3B62FA6A3B6A5343E0
:102C70003B623B6A181CC0239901FFF7F9FB031C58
:102C80003B623B6A5B045B0C80221202D31A3B62FC
:102C9000F868B9683A6ABB1C1B883C6C00947C6C71
:102CA0000194FFF753FD031CFB61FB697A6A5343F0
:102CB000FB61FB699B0BFB613B1C1033BA6A1A601A
:102CC0003B1C1033FA695A603B6C1B78032B0CD108
:102CD0003B6C5B883A1C1032101C01211A1C00F05E
:102CE0000FFF031CBB61BB6902E0FB6900E0BB6A2C
:102CF000181CBD460DB090BD80B582B000AF7860A5
:102D00007B681B12DB031B12181CBD4602B080BD82
:102D100080B584B000AF786039607B68DB69022BD6
:102D200016D002DC012B0ED01CE0032B02D0042BAA
:102D300013D017E07A682F230021D1547A6830230A
:102D40000021D1540EE07A6823231E21D15409E0DA
:102D50007A6822231E21D15404E07A6820231E21A0
:102D6000D154C0467B683A68DA617B68DB69042B22
:102D700000D98FE09A00494BD3181B689F467B68A7
:102D800000225A657B6800229A657B680022DA651A
:102D900080E07B68802212025A657B6880221202E2
:102DA0009A657B680022DA657B681A6E7B68DA6454
:102DB0007B685A6E7B681A657A6821231E21D1547C
:102DC0007B680022DA6665E07B68802212025A6521
:102DD0007B68D96F7A688023D1507B6800229A651E
:102DE0007B680022DA657B681A6E7B685A647B68B0
:102DF0005A6E7B689A647B6800225A674AE07B6857
:102E000000225A657B6800229A657B680022DA6599
:102E10007B681A6E7B68DA637B685A6E7B681A641B
:102E20007B6800221A677B68DA6F7B689A677B6829
:102E3000DA6B80231B029A4205D17B68181C0221A1
:102E4000FFF766FF26E025E07B689B88181CFFF7EC
:102E500053FF031CFB607B68FA681A667B68FA689C
:102E60005A667B68D96F7A688023D1507B6880224C
:102E700012025A657B68802212029A657B680022E2
:102E8000DA657A682F23FF21D1547A683023FF2135
:102E9000D154C046BD4604B080BDC046607100003C
:102EA00080B582B000AF78607B689B7A012B08D137
:102EB0007B68181C0121FFF72BFF7A688423072108
:102EC000D150BD4602B080BD80B584B000AFF8607F
:102ED0007A603B1C0B330A1C1A703B1C0B331B78AB
:102EE000002B10D0FB689B7A002B20D1FB68181CAC
:102EF0000121FFF70DFFFB6801229A72FA68842313
:102F00000721D15013E07B681B78002B0CD0FB68A5
:102F1000DB69002B08D0FB68DB69042B04D0FB685D
:102F2000181C0421FFF7F4FEFB6800229A72BD46CC
:102F300004B080BD80B582B000AF786039603B6876
:102F400000229A70BD4602B080BDC04680B582B0F6
:102F500000AF7860BD4602B080BDC04680B582B08B
:102F600000AF786039603B68002B01D0C82301E0D6
:102F7000FA23DB007A68121253431B120133181C28
:102F8000BD4602B080BDC046F0B59BB002AFF86050
:102F9000B9607A60FB681B891A1C3B1C1033101C3B
:102FA00004211A1C00F048FCFA688423D358002B33
:102FB0002CDDFA688423D358591EFA688423D15033
:102FC000FA688423D258FB689B89191CFB6822325B
:102FD0009200D1500023FB650CE0FB68DA6FFB68C0
:102FE000F96D22318900CB58D218FB68DA67FB6D86
:102FF0000133FB65FB6D072BEFDDFB68DB6F002BFF
:1030000000DA0733DB101A1CFB68DA670023BB65A4
:1030100018E0F9682023BA6D8A18D3181B78002BA2
:103020000DD0F9682023BA6D8A18D3181B78013B9C
:10303000DAB2F8682023B96D4118CB181A70BB6D4D
:103040000133BB65BB6D032BE3DDBB689B78002BB5
:1030500030D000237B6509E0F96820237A6D8A1857
:10306000D31800221A707B6D01337B657B6D032BB7
:10307000F2DDFB68DB69022B0DD002DC012B05D0F1
:1030800018E0032B0CD0042B0FD013E0FA68232395
:103090000121D1540EE0FA6822230121D15409E024
:1030A000FA6821230121D15404E0FA682023012188
:1030B000D154C046FB68DB69042B00D9D2E19A00E9
:1030C000E34BD3181B689F46FB68802212029A6666
:1030D000FB681B881A1CBB685B78101C191CFFF767
:1030E0003DFF031C7B6480231802796CFFF70EFA06
:1030F000031C3B64FB681A6E3B6CD218FB681A66B3
:10310000FB681A6EFB68DB6BD31ADA03FB68DB6BB8
:1031100080210902CB1A101C191CFFF7F7F9031CB8
:103120001A1CFB685A65FB681B6C1C1CFB68196C3D
:10313000FB685B6D80221202D31A1A1CFB681D8982
:10314000FB68186E80231B023E1C1036009601900F
:10315000081C191C2B1CFFF775FC031CE3181A1C18
:10316000FB685A66FB685A6DFB68D96FFB689B6FFA
:10317000CB1A5343002B01DAB64A9B18DB131A1CF7
:10318000FB689B6FD118FA688023D150FB681A6ED8
:10319000B04B9A420DDDFB68802212021A66FB6872
:1031A000802212025A66FB68181C0221FFF7B0FD4C
:1031B00058E157E1FB68D96FFA688023D150FB686A
:1031C0009B88181CFFF798FD031CFB63FB68FA6BD8
:1031D0009A66FB685B881A1CBB685B78101C191C1C
:1031E000FFF7BCFE031CBB63FB6B9B4A9B18181CC0
:1031F000B96BFFF78BF9031C7B63FB681A6E7B6B63
:10320000D218FB681A66FB685A6CFB6B9A421DDD8C
:10321000FB681A6EFB6BD31A3B63FB681A6EFB6B81
:10322000D31ADA03FB6B80210902CB1A101C191C7C
:10323000FFF76CF9031C1A1CFB689A65FB689B6D11
:1032400080221202D21AFB689A6506E0FB6880228F
:1032500012029A65FB68FA6B1A66FB685B6F5A1C70
:10326000FB685A67FB685B6FDB03181CB96BFFF7E1
:103270004DF9031C1A1CFB689A65FB689B6D802244
:103280001202D31A1A1CFB681C89FB68186EF96BB2
:1032900080231B023D1C103500950190081C191C51
:1032A000231CFFF733FC031C1A1CFB685A66FB68DF
:1032B0001A6EFB6B9A4204DDFB685A6FBB6B9A4235
:1032C0002DDBFB68FA6B1A66FB68FA6B5A66BB6803
:1032D0001B78002B03D0BB681B78022B0FD1FB6837
:1032E000181C0421FFF714FDFB68DB69002B05D1D6
:1032F000FB68181C0121FFF70BFD10E00FE0FB68D5
:103300001B6E002B05D1FB68181C0021FFF700FD88
:1033100005E0FB68181C0321FFF7FAFCA2E0A1E01E
:10332000FB68D96FFA688023D150FB689B88181C12
:10333000FFF7E2FC031CFB62FB68FA6A9A66FB6813
:103340001B6EFA6AD31A181C0521FFF7DFF8031C5D
:10335000BB62FB681A6EBB6AD218FB681A66FB6810
:103360001A6EFB685A667DE0FB6800229A66FB686D
:10337000DB881A1CBB685B78101C191CFFF7EEFD7C
:10338000031C7B62FB68DB6C5B42181C796AFFF7ED
:10339000BDF8031C3B62FB681A6E3B6AD218FB68DF
:1033A0001A66FB68DB6E5A1CFB68DA66FB681B6EEC
:1033B000002B02DAFB6800221A66FB68DB6EDB0377
:1033C000181C796AFFF7A2F8031C1A1CFB68DA655F
:1033D000FB681B6D002B18DDFB68196DFB68DB6D4E
:1033E00080221202D31A1A1CFB681C89FB681B6E10
:1033F000381C1030009001930020231CFFF7FCFBC9
:10340000031C1A1CFB685A6602E0FB6800225A661D
:10341000FB68DA6E7B6A9A4219DBFB6800221A6647
:10342000FB6800225A66BB681B78022B09D1FB6837
:103430009B7A002B05D0FB68181C0121FFF768FC64
:1034400005E0FB68181C0021FFF762FC0AE009E0B8
:1034500074710000FF7F00000080FFFFFB68002206
:103460009A66C04600233B6509E0F96828233A6D57
:103470008A18D31800221A703B6D01333B653B6DEF
:103480000C2BF2DDFB68DB69002B00D195E00023FB
:10349000FB64FB68DB69022B10D002DC012B05D03A
:1034A00025E0032B15D0042B17D020E0FB685A6DC4
:1034B000131C5B009B18DB11FB6418E0FB689A6D22
:1034C000131C5B009B18DB11C02292009B18FB644D
:1034D0000DE0C023DB00FB6409E0FB68DA6D131C20
:1034E0005B009B18DB11714A9B18FB64C046FB68AC
:1034F0009B6B1B12FB61FB6C1B12BB61FA69BB6906
:103500009A4210D0FB69BB6409E0F9682823BA6CC1
:103510008A18D318FF221A70BB6C0133BB64BA6CD3
:10352000BB699A42F1DDFB689B6BDAB2F86828232D
:10353000F9694118CB181A70F9682823FA698A18B2
:10354000D3181B78DB43DAB2F8682823F9694118ED
:10355000CB181A70BA69FB699A4209D0BB69591C29
:10356000FB6CDAB2F86828234118CB181A700EE009
:10357000FB69591CF8682823FA698218D3181B784C
:10358000DB43DAB2F86828234118CB181A70FA68BE
:103590002E23D15CFA682F23D154FA682E23D15CF4
:1035A000FA683023D154FA682E23D15CFA683123AB
:1035B000D154FB68FA6C9A6302E0FB6800229A63BC
:1035C0003B4B1B68002B10D0FB689A69131C9B00B7
:1035D0009A18FB685B6ED318181C0621FEF796FF3D
:1035E000031C1A1CFB689A6103E0FB685A6EFB68B7
:1035F0009A61FA688023D258131C1B039B1A01D5C9
:103600002C4A9B181B147B61FB681A6E7B681B6835
:103610007969CB1A5343002B01DA274A9B18DB1335
:103620001A1CFB681A61FB689A697B685B68796998
:10363000CB1A5343002B01DA1F4A9B18DB131A1CC9
:10364000FB685A61FB681A697B681B68D218FB68C3
:103650001A61FB685A697B685B68D218FB685A611B
:10366000FB681B69002B03DAFB6800221A6107E084
:10367000FB681A69114B9A4202DDFB680F4A1A6116
:10368000FB685B69002B03DAFB6800225A6107E0E4
:10369000FB685A69094B9A4202DDFB68074A5A6186
:1036A000FB681B69181CBD4619B0F0BDFF0900007E
:1036B00020FCFF1FFFFF0000FF7F0000FF0F000046
:1036C00080B500AFBD4680BD80B500AF00F0DCFF27
:1036D000BD4680BD80B582B000AF00237B6010E0A6
:1036E0007B68DAB2BB1C101C191C01F03DFDBB1C31
:1036F0001B88191C074B7A689200D1507B680133F4
:103700007B607B68052BEBDD034B01221A60BD4615
:1037100002B080BD58FEFF1F24FCFF1F80B500AF24
:10372000BD4680BD80B582B000AF7860054B1B6997
:10373000181C02F04FFA031C181C01F065F9BD4675
:1037400002B080BD40FDFF1F80B584B000AF78603F
:103750003B1C0F3300221A707B689AB23B1C0F335C
:10376000101C191C02F096FC3B1C0F331B78181C14
:10377000BD4604B080BDC04680B582B000AF0A1C13
:10378000BB1D011C19807B1D1A70BB1D1A887B1D77
:103790001B78101C191C02F009FCBD4602B080BD4C
:1037A00090B587B000AFB9607A603B1C0E33021C45
:1037B0001A8000237B6111E07B69BA68D4183B1C36
:1037C0000E331B883A1C0E32591C1180181CFFF74F
:1037D000BBFF031C23707B6901337B617A697B68C3
:1037E0009A42E9DBBD4607B090BDC04680B586B0C1
:1037F00000AFB9607A603B1C0E33021C1A800023B4
:103800007B6111E03B1C0E331B883A1C0E32591CA5
:1038100011807A69B9688A181278181C111CFFF790
:10382000ABFF7B6901337B617A697B689A42E9DB94
:10383000BD4606B080BDC04680B58AB000AFF86016
:103840007A603B1C0B330A1C1A703B1C0B331B7831
:10385000FA6853433B623B6A1B0C1B04FB61FB6928
:10386000BB61FB693A6AD31A5A00FB69D318013B62
:10387000FF3B7B61BA697B69934200DA131C3B61B1
:103880003B6A1B041B0C7B627B6A0F4A9B187B62A2
:103890007B6A5B007B627B6A002B02DA00237B621F
:1038A00005E07A6A094B9A4201DD084B7B623B6A6C
:1038B0001B0CDAB27B681A707B6A9AB27B685A80FA
:1038C000BD460AB080BDC04600E0FFFFFFFF00001C
:1038D00080B582B000AF78607B68DA68084B9A42A6
:1038E00009DD7B68DB68002B05DB7B680122524227
:1038F000DA60012300E00023181CBD4602B080BD41
:10390000CF07000080B582B000AF78607B681B7A7B
:103910001B071B0FDBB2012B06D17B681A7A0F2124
:103920008A431A72012300E00023181CBD4602B02E
:1039300080BDC04680B582B000AF78607B681B7ADE
:103940001B061B0FDBB2012B06D17B68197A0F22F5
:103950000A401A72012300E00023181CBD4602B081
:1039600080BDC04680B582B000AF786039607B68AA
:10397000002B05D03B681B685A1C3B681A6004E0AA
:103980003B681B685A1E3B681A603B681B68012B2A
:1039900011DC3B681B69022B06D13B681A7A0F21A8
:1039A0008A4301210A431A723B6801221A603B686C
:1039B00001225A6014E03B681B681E2B10DD3B6837
:1039C0001B691E2B06D13B68197A0F220A40102171
:1039D0000A431A723B681F221A603B6800225A6031
:1039E0003B685B68002B09DD3B68DB68002B08DB6C
:1039F0003B68DB685A1C3B68DA6002E03B680022E7
:103A0000DA603B681A683B681A613B68DA68054B04
:103A10009A4203DD3B68FA22D200DA60BD4602B06A
:103A200080BDC046CF070000B0B590B000AF78624F
:103A30003962FA61FB693A6A5343BB633B1C3E330C
:103A4000BA6B1A803B1C3E331B88002B0CD03B1CEE
:103A50003E331A88294B9A4206D03B1C3E333A1C0F
:103A60003E32128801321A80BB6B1B147B637B6B66
:103A70009B007A6AD3181B683B61DB177B613B1C98
:103A80003E331B881D4AD31ABB60DB17FB603869C5
:103A90007969BA68FB68FEF7B9FD021C0B1CBA62B3
:103AA000FB627B6B01339B007A6AD3181B683B6017
:103AB000DB177B603B1C3E331B889BB21C1C002326
:103AC0001D1C38687968221C2B1CFEF79FFD031C07
:103AD0000C1CB96AFA6A5B185441BB62FC62FB6A4F
:103AE0001B04BA6A120C1343BB62FB6A1B14FB6211
:103AF000BB6A181CBD4610B0B0BDC046FFFF000039
:103B0000B0B590B000AF78623962FA61FB693A6A89
:103B10005343BB633B1C3E33BA6B1A803B1C3E33A2
:103B20001B88002B0CD03B1C3E331A88294B9A4231
:103B300006D03B1C3E333A1C3E32128801321A80BA
:103B4000BB6B1B147B637B6B9B007A6AD3181B686F
:103B50003B6100237B613B1C3E331B881D4AD31A0B
:103B6000BB60DB17FB6038697969BA68FB68FEF7F0
:103B70004DFD021C0B1CBA62FB627B6B01339B0088
:103B80007A6AD3181B683B6000237B603B1C3E3382
:103B90001B889BB21C1C00231D1C38687968221CE2
:103BA0002B1CFEF733FD031C0C1CB96AFA6A5B1868
:103BB0005441BB62FC62FB6A1B04BA6A120C1343D9
:103BC000BB62FB6A1B0CFB62BB6A181CBD4610B0D3
:103BD000B0BDC046FFFF000080B586B000AF786082
:103BE00039607B687B613B683B617A693B69D318CC
:103BF000FB607A693B69534006D47A69FB6853409D
:103C000002D580231B0600E0FB68181CBD4606B0E9
:103C100080BDC04680B586B000AF786039607B68F3
:103C20007B613B683B617A693B69D31AFB607A69C7
:103C30003B69534006D57A69FB68534002D580231F
:103C40001B0600E0FB68181CBD4606B080BDC046E0
:103C500080B584B000AF786039607A683B68101C2A
:103C6000191CFFF7D7FF031CFB6080231B06FA68B3
:103C70009A4207D17B68002B01DB054B01E08023D2
:103C80001B0600E0FB68181CBD4604B080BDC046A2
:103C9000FFFFFF7FF0B591B000AFF862B962FB6A39
:103CA0003B62DB177B62BB6ABB61DB17FB61386A77
:103CB000796ABA69FB69FEF7A9FC031C0C1CBB639B
:103CC000FC63FB6BDB133B61FB6BDB177B613B69CD
:103CD0007B63FB6B002B0FDA7B6B013302D08023FD
:103CE0001B0633E0B96BFA6B01235B42DC175B18F0
:103CF0005441BB63FC6305E07B6B002B02D0802347
:103D00001B0623E0FB6B1B04BA6B120CBA60B9688C
:103D10001943B960FB6B1B14FB60BB683B63BA6B58
:103D200080231B02111C19403960FA6B0023111CFF
:103D3000194079607A6853043968CD0B1D437A685D
:103D4000D6132A1C3B6BD3183B633B6B181CBD4638
:103D500011B0F0BDB0B58EB000AF786139613B698C
:103D6000002B02D180231B069CE07B69D9175B18CE
:103D70004B407B633B69DA179B1853403B6300233E
:103D8000FB621123BB623B6B1B0D1B0522D03B6BFF
:103D90005B0C0133FB61786BF969FEF769FB031C6F
:103DA000FB62FB6ABB600023FB603B6B3B60002354
:103DB0007B60B868F9683A687B68FEF727FC021CEC
:103DC0000B1CD903540C0C435D0C231C7A6BD31AC7
:103DD0007B6306E005E03B6B1B093B63BB6A043B6E
:103DE000BB623A6B0F23134002D1BB6A032BF2DC98
:103DF0003CE0786BFEF7ECFB031C7B627A6ABB6AE3
:103E00009A4201DDBB6A7B627A6B7B6A111C994026
:103E10000B1C7B63BA6A7B6AD31ABB62786B396B03
:103E2000FEF726FB031CBB617B6B181C396BFEF78E
:103E300063FB0B1C7B63BA69BB6A111C99400B1CAA
:103E4000FA6AD318FB6201235A42BB6A111CD9409B
:103E50000B1CDB43BA69134002D080231B0621E010
:103E60007B6B5B007B63BB6A013BBB627B6B002BA4
:103E700002D0BB6A002BBCDAFB6A0133FB62FB6A2F
:103E80005B083B627A693B6953400AD580231B0675
:103E90003A6A9A4202D180231B0603E03B6A5B42E6
:103EA0003B623B6A181CBD460EB0B0BD80B584B005
:103EB00000AF786039607A683B68101C191CFFF706
:103EC00049FF031CFB6080231B06FA689A420FD14E
:103ED0007B68DB0FDAB23B68DB43DB0FDBB25340BE
:103EE000DBB2002B01D0054B03E080231B0600E072
:103EF000FB68181CBD4604B080BDC046FFFFFF7FB5
:103F000080B500AF002002F05BFE031C1A1C124BB0
:103F1000101C191CFFF726FD002002F08DFF031C6A
:103F20001A1C0E4B101C191CFFF71CFD002002F080
:103F300007FF031C1A1C0A4B101C191CFFF712FD6B
:103F4000002002F03BFF031C1A1C064B101C191C1E
:103F5000FFF708FDBD4680BD64FCFF1F50FCFF1F3E
:103F60003CFCFF1F28FCFF1F80B500AFE24B1B7815
:103F70000933DAB2E04B1A70E04B9B69181C02F06F
:103F800063FEDF4B1A7BDC4B1B789A4205D9DB4B77
:103F9000DB69181C01F0FEFF04E0D84BDB69181C3C
:103FA00001F0ECFFD54B1B6A181C01F091FDD34BBF
:103FB0001B6A181C01F098FDD14B5A7CCE4B1B7824
:103FC0009A4205D9CD4BDB69181C01F0E3FF04E0F0
:103FD000CA4BDB69181C01F0D1FFC84B1B6A181CC7
:103FE00001F076FDC54B1B6A181C01F07DFDC44B2A
:103FF0001A7CC14B1B789A4205D9C04BDB69181C4F
:1040000001F0C8FF04E0BD4BDB69181C01F0B6FFEE
:10401000BA4B1B6A181C01F05BFDB84B1B6A181CDD
:1040200001F062FDB64BDA7BB34B1B789A4205D99F
:10403000B24BDB69181C01F0ADFF04E0AF4BDB694C
:10404000181C01F09BFFAD4B1B6A181C01F040FDD2
:10405000AA4B1B6A181C01F047FDA94B9A7BA64B83
:104060001B789A4205D9A54BDB69181C01F092FF19
:1040700004E0A24BDB69181C01F080FF9F4B1B6A18
:10408000181C01F025FD9D4B1B6A181C01F02CFD2E
:104090009B4B5A7B984B1B789A4205D9974BDB690F
:1040A000181C01F077FF04E0944BDB69181C01F049
:1040B00065FF924B1B6A181C01F00AFD8F4B1B6AAF
:1040C000181C01F011FD8E4B9A7C8B4B1B789A4289
:1040D00005D98A4BDB69181C01F05CFF04E0874BB3
:1040E000DB69181C01F04AFF844B1B6A181C01F0A5
:1040F000EFFC824B1B6A181C01F0F6FC804B1A790E
:104100007D4B1B789A4205D97C4BDB69181C01F06A
:1041100041FF04E0794BDB69181C01F02FFF774B5E
:104120001B6A181C01F0D4FC744B1B6A181C01F0AC
:10413000DBFC734B5A79704B1B789A4205D96F4B55
:10414000DB69181C01F026FF04E06C4BDB69181CCE
:1041500001F014FF694B1B6A181C01F0B9FC674B96
:104160001B6A181C01F0C0FC654B9A79624B1B78E6
:104170009A4205D9614BDB69181C01F00BFF04E082
:104180005E4BDB69181C01F0F9FE5C4B1B6A181CC6
:1041900001F09EFC594B1B6A181C01F0A5FC584B02
:1041A000DA79554B1B789A4205D9544BDB69181CB8
:1041B00001F0F0FE04E0514BDB69181C01F0DEFE5B
:1041C0004E4B1B6A181C01F083FC4C4B1B6A181CDD
:1041D00001F08AFC4A4B1A7A474B1B789A4205D960
:1041E000464BDB69181C01F0D5FE04E0434BDB694C
:1041F000181C01F0C3FE414B1B6A181C01F068FC3F
:104200003E4B1B6A181C01F06FFC3D4B5A7A3A4B2F
:104210001B789A4205D9394BDB69181C01F0BAFEAC
:1042200004E0364BDB69181C01F0A8FE334B1B6A17
:10423000181C01F04DFC314B1B6A181C01F054FC9A
:104240002F4B9A7A2C4B1B789A4205D92B4BDB6962
:10425000181C01F09FFE04E0284BDB69181C01F0DC
:104260008DFE264B1B6A181C01F032FC234B1B6A87
:10427000181C01F039FC224BDA7A1F4B1B789A424A
:1042800005D91E4BDB69181C01F084FE04E01B4BB2
:10429000DB69181C01F072FE184B1B6A181C01F038
:1042A00017FC164B1B6A181C01F01EFC154A222332
:1042B000D35C002B05D0114BDB69181C01F05EFEAE
:1042C00004E00E4BDB69181C01F064FE0B4B1B6A0B
:1042D000181C01F0FDFB094B1B6A181C01F004FCC3
:1042E000084A2123D35C002B0ED0044BDB69181C39
:1042F00001F044FE0DE0C04600FCFF1F40FDFF1F23
:104300007CFCFF1FA4FDFF1F5A4BDB69181C01F04A
:1043100041FE584B1B6A181C01F0DAFB554B1B6A17
:10432000181C01F0E1FB544A2023D35C002B05D07C
:10433000504BDB69181C01F021FE04E04D4BDB699A
:10434000181C01F027FE4B4B1B6A181C01F0C0FB28
:10435000484B1B6A181C01F0C7FB484BDA78484BE6
:104360001B789A4205D9434BDB69181C01F012FEF9
:1043700004E0404BDB69181C01F000FE3D4B1B6A5A
:10438000181C01F0A5FB3B4B1B6A181C01F0ACFB91
:104390003A4B9A783A4B1B789A4205D9354BDB69F0
:1043A000181C01F0F7FD04E0324BDB69181C01F02A
:1043B000E5FD304B1B6A181C01F08AFB2D4B1B6A74
:1043C000181C01F091FB2D4B5A782D4B1B789A420B
:1043D00005D9284BDB69181C01F0DCFD04E0254BF6
:1043E000DB69181C01F0CAFD224B1B6A181C01F086
:1043F0006FFB204B1B6A181C01F076FB1F4B1A78D1
:104400001F4B1B789A4205D91A4BDB69181C01F027
:10441000C1FD04E0174BDB69181C01F0AFFD154B23
:104420001B6A181C01F054FB124B1B6A181C01F08C
:104430005BFB114A2323D35C002B05D00D4BDB69BA
:10444000181C01F09BFD04E00A4BDB69181C01F00D
:10445000A1FD084B1B6A181C01F03AFB054B1B6AB7
:10446000181C01F041FB034B9B69181C02F0F8FB80
:10447000BD4680BD40FDFF1FA4FDFF1F7CFCFF1F4C
:1044800000FCFF1F80B500AF034B034A1268802178
:104490000A431A60BD4680BD00F00F4080B500AFF2
:1044A000034B034A126880218A431A60BD4680BDCF
:1044B00000F00F4080B500AF034B034A12680121A2
:1044C0000A431A60BD4680BD40F00F4080B500AF82
:1044D000034B034A126801218A431A60BD4680BD1E
:1044E00040F00F4080B500AF0A4B80225200DA61E5
:1044F000094B802252001A60084B084A52698021F9
:104500000A435A61064B064A526901210A435A611D
:10451000BD4680BD0090044000A0044000F00F4064
:1045200040F00F4080B584B000AF021CFB1D1A7034
:104530003B1C0F3380221A701BE0FB1D3A1C0F320C
:104540001B7812781340DBB23A1C0F3212789A4271
:1045500002D1FFF797FF01E0FFF7A0FFFFF7AAFFE7
:10456000FFF7B4FF3B1C0F333A1C0F32127852088E
:104570001A703B1C0F331B78002BDED1BD4604B0F4
:1045800080BDC04680B588B000AF7860396000203B
:1045900001F0ACFC0023FB610023BB6100237B61C5
:1045A00000233B617B68012B27D10023FB60FB6963
:1045B000002B01D0002301E080235B01FA68134344
:1045C000FB60BB69002B01D0002301E080239B012D
:1045D000FA681343FB603B681B051B0DFA68134325
:1045E000FB60FB681B0ADAB23B1C08331A70FB68DD
:1045F000DAB23B1C08335A7027E080231B02FB60B1
:104600007B69002B01D0002301E080235B01FA6865
:104610001343FB603B69002B01D0002301E08023A2
:104620009B01FA681343FB603B681B051B0DFA688E
:104630001343FB60FB681B0ADAB23B1C08331A7099
:10464000FB68DAB23B1C08335A703B1C08331B78FA
:10465000181CFFF767FF3B1C08335B78181CFFF73B
:1046600061FF002001F04EFC002002F0A9FA031CBB
:104670001A1C044B101C191CFFF774F9BD4608B036
:1046800080BDC04664FCFF1F80B582B000AFFFF75D
:1046900037FC4E4B1B685A1C4C4B1A604C4B1B682A
:1046A0005A1C4B4B1A604A4B1A680123134003D023
:1046B000012B00D17AE084E0464B181CFFF722F969
:1046C000031C002B06D0444B01221A60434B181CDC
:1046D000FEF7E6FB4149424A424B081C111C1A1CDA
:1046E000FEF752FC3D4B1A693F4B1A603E4B1B686C
:1046F0000020191CFFF746FF00237B6020E03749AC
:1047000028237A688A18D3181A7838497B68CB1816
:104710001A70374A7B68D3181A7834497B68CB18EB
:104720001B789A4209D22D4928237A688A18D3180F
:104730001A782F497B68CB181A707B6801337B602D
:104740007B680C2BDBDD00233B602BE0274A3B68BA
:10475000D3181A7826493B68CB181B789A420AD995
:10476000234A3B68D3181B780133DAB220493B68EF
:10477000CB181A7013E01D4A3B68D3181A781C49ED
:104780003B68CB181B789A4209D2194A3B68D31868
:104790001B78013BDAB216493B68CB181A703B68AC
:1047A00001333B603B68132BD0DD0AE00B4B5A69A9
:1047B000104B1A600F4B1B680120191CFFF7E2FE1B
:1047C000C046FFF7D1FBBD4602B080BDA4FCFF1F71
:1047D00078FCFF1F64FCFF1FB0FCFF1FA4FDFF1F40
:1047E000A0FDFF1F50FEFF1FA8FCFF1F90FCFF1F36
:1047F0007CFCFF1FACFCFF1F80B582B000AF78606F
:104800007B68012B0DD0022B15D0002B1DD1104B36
:104810000022DA730E4B00229A730D4BFF225A735B
:1048200013E00B4B0022DA73094BFF229A73084BFB
:1048300000225A7309E0064BFF22DA73044B002270
:104840009A73034B00225A73C046BD4602B080BD26
:1048500090FCFF1F80B582B000AF78607B68002BB2
:1048600004D0012B09D001330ED014E00B4BFF22F2
:104870001A740A4B00225A740DE0084B00221A7475
:10488000064BFF225A7406E0044B00221A74034BB5
:1048900000225A74C046BD4602B080BD90FCFF1F86
:1048A00080B582B000AF78607B68002B0BD0012B05
:1048B00002D001330ED014E00B4BFF221A740A4BC6
:1048C00000225A740DE0084B00221A74064BFF2296
:1048D0005A7406E0044B00221A74034B00225A74E7
:1048E000C046BD4602B080BD90FCFF1F80B582B0BF
:1048F00000AF00201021FEF73FFF03237B60054A35
:104900007B680120111C1A1CFEF770FFBD4602B027
:1049100080BDC046A0FDFF1F80B584B000AF202041
:10492000FEF712FF031CFB60FB68102B0BD1082362
:10493000BB60094ABB682120111C1A1CFEF730FF1E
:10494000054B7B6005E0044B72225A60024B8622C5
:104950001A60BD4604B080BD50FEFF1F90B583B005
:1049600000AFFC1D0020FEF7EFFE031C2370FB1DB3
:104970001B78102B0DD103233B60084A3B680120B4
:10498000111C1A1CFEF70CFF044B181CFEF7DEFA74
:1049900001E0FFF7ABFFBD4603B090BDA0FDFF1FD8
:1049A00080B500AF154B1B68002B04D1144B5B780E
:1049B000181CFFF775FF114B1B68012B17D1114B0A
:1049C0001B68181CFA239900FDF796FD0B1C1A1C96
:1049D0009023FF339A4205D8094B9B78181CFFF7A8
:1049E00039FF04E001235B42181CFFF733FF044B3F
:1049F0001B78181CFFF700FFBD4680BDB8FCFF1FE9
:104A0000A0FDFF1F78FCFF1F80B582B000AF78606B
:104A10000B4B1B68012B00D10FE07B685A1E134320
:104A2000DB0FDBB21A1C0749074B081C111C1A1CB0
:104A3000FEF74AFA054B01221A60BD4602B080BD5E
:104A4000BCFCFF1FA4FDFF1FA0FDFF1FB4FCFF1F48
:104A500080B588B000AF01F05FF9FFF743FDBF4BB1
:104A6000181CFDF7F5FDBE4ABE4B101C191CFEF7C5
:104A700061FAFFF751FFFFF771FF0023FB6107E0C9
:104A8000B94AFB69D318FF221A70FB690133FB6135
:104A9000FB69112BF4DDB54B5B68181C02F0CAFAF8
:104AA000012000F091FB002000F03AFB0023BB61E5
:104AB0001DE000237B6111E0BA697B699A4205D150
:104AC000AB4A7B69D318FF221A7004E0A84A7B69BD
:104AD000D31800221A707B6901337B617B690C2B30
:104AE000EADD282002F020FBBB690133BB61BB6912
:104AF0000C2BDEDD00233B6107E09B4A3B69D318AA
:104B000000221A703B6901333B613B69112BF4DDD4
:104B10008C2002F009FBFFF727FA01237B60FFF7E7
:104B20003FFFFFF721FA3B1C0F3300221A70914B15
:104B3000181CFEF7E7FE031C002B11D001237B603D
:104B4000884B1B780133181C0321FDF735FD0B1C26
:104B5000DAB2844B1A703B1C0F3301221A7025E025
:104B6000844B181CFEF7B4FE031C002B1ED07D4B9B
:104B70001B780233181C0321FDF71EFD0B1CDAB253
:104B8000784B1A703B1C0F3301221A7001237B6093
:104B9000794B1B68002B05D0012B07D1764B0022E7
:104BA0001A6003E0744B01221A60C046734B181C54
:104BB000FEF7A8FE031C002B2AD001237B606E4B5E
:104BC0001B68002B02D0012B0FD01DE0654B5B78DA
:104BD0005A1C6B4B134004D5013B02225242134333
:104BE0000133DAB25F4B5A700EE05E4B9B785A1C71
:104BF000634B134004D5013B02225242134301335D
:104C0000DAB2584B9A70C0463B1C0F3301221A701F
:104C10005C4B181CFEF776FE031C002B0CD05A4B85
:104C200001221A604D4A4F4B101C01211A1CFEF73D
:104C30004BF9564B01221A60524B181CFEF77AFEB4
:104C4000031C002B09D0504B00221A60434A454BED
:104C5000101C00211A1CFEF737F90023BB604A4BD9
:104C60001B68002B01DD8023BB60484B1B68002BB9
:104C700001DDFF23BB60464B1B68002B05DD424B6B
:104C80001B68002B01D0FF23BB60414B00221A6040
:104C90003E4B00221A60BB68DAB2334B9A74324B37
:104CA0009A7C334B9B7C9A4203D92F4B9A7C304B96
:104CB0009A74384B1B68012B05D1364B00221A60C1
:104CC000002000F02DFA344B1B689BB2DB439AB2F4
:104CD000224B1A80304B5B689BB2DB439AB21F4B6E
:104CE0005A802D4B9B689BB2DB439AB21B4B9A8038
:104CF000294BDB689BB2DB439AB2184BDA80264B18
:104D00001B699BB2DB439AB2144B1A81224B5B693D
:104D10009BB2DB439AB2114B9A81FFF741FE002010
:104D200001F04EFF031C1A1C1C4B101C191CFEF733
:104D300019FE3B1C0F331B78012B0DD1184B1B6840
:104D4000092B09DDFFF7D2FD3B1C0F3300221A703F
:104D5000134B00221A60EAE6E9E6C046A4FDFF1FF5
:104D600070FEFF1FA0FDFF1F90FCFF1F40FDFF1FF7
:104D70007CFCFF1F3CFCFF1FB8FCFF1F28FCFF1F33
:104D80000100008050FCFF1FBCFCFF1FB4FCFF1F94
:104D9000B0FCFF1F24FCFF1F58FEFF1F64FCFF1F19
:104DA000A4FCFF1F80B582B000AF78603960BD46BB
:104DB00002B080BD80B58AB000AFF860B9607A609B
:104DC0007B687B6204233B620323FB610223BB619C
:104DD00001237B6101233B61FA68BB689A4202D0E0
:104DE0007B68002B00D14DE049E0FB69BA681340B5
:104DF00018D1FB69FA68134014D13A6A7B6A9A4267
:104E000010D8FB68BA6812681A603B6AFA68D3184F
:104E1000FB603B6ABA68D318BB603B6A7A6AD31AF4
:104E20007B622CE07B69BA68134018D17B69FA6811
:104E3000134014D1BA697B6A9A4210D8FB68BA68E9
:104E400012881A80BB69FA68D318FB60BB69BA681C
:104E5000D318BB60BB697A6AD31A7B620FE0FB6828
:104E6000BA6812781A703B69FA68D318FB603B691C
:104E7000BA68D318BB603B697A6AD31A7B627B6AD3
:104E8000002BB2D1BD460AB080BDC04690B583B0FC
:104E900000AF2D4B002B00D153E000237B6032E0AC
:104EA00029497A68131C5B009B189B00CB18586833
:104EB00025497A68131C5B009B189B005958224CAB
:104EC0007A68131C5B009B189B00E31808331B686F
:104ED0001A1CFFF76FFF1C497A68131C5B009B18B4
:104EE0009B00CB18596818487A68131C5B009B1804
:104EF0009B00C31808331B68081C191CFFF752FFDE
:104F00007B6801337B6010497A68131C5B009B1837
:104F10009B005B58002BC3D10B497A68131C5B00C4
:104F20009B189B00CB185B68002BB9D106497A68A7
:104F3000131C5B009B189B00CB1808331B68002BCD
:104F4000AED1BD4603B090BDBC71000080B588B045
:104F500000AF274A274BD31AFB61264BBB610423C2
:104F60007B6103233B610223FB600123BB600123C0
:104F70007B60FB69002B00D136E032E03B69BA6907
:104F800013400FD17A69FB699A420BD8BB690022A2
:104F90001A607B69BA69D318BB617B69FA69D31A55
:104FA000FB611EE0BB68BA6913400FD1FA68FB6968
:104FB0009A420BD8BB6900221A80FB68BA69D318E1
:104FC000BB61FB68FA69D31AFB610AE0BB69002286
:104FD0001A707B68BA69D318BB617B68FA69D31A07
:104FE000FB61FB69002BC9D1BD4608B080BDC0463E
:104FF000ACFEFF1F04FCFF1F80B500AFBD4680BDA7
:1050000080B500AFBD4680BD80B582B000AF0E4B0D
:105010007B60FFF7F1FF00F001FE7B68181C0028A1
:1050200005D0854681B00020C043009001B0FFF755
:105030008DFFFFF72BFFFFF7E3FF044B0020191C48
:10504000FFF706FDFEE7C046000C0020C0FCFF1F76
:1050500080B500AF094B00221A80084B00225A800D
:10506000064B00229A80054B0022DA80034B002277
:105070001A81024B00225A81BD4680BD94FEFF1F5B
:1050800080B500AF1F4B1B78DBB2002B38D01D4B17
:105090001B78DBB2032B0BD01B4B00221A701B4B6F
:1050A00000221A70FFF7D4FF194B00221A701AE081
:1050B000164B1B78DBB2174AD35CDB43DBB2124AD8
:1050C0001278D2B21340DAB20F4B1A700F4B1B7822
:1050D000DBB21A1C104B52000021D1520B4B1B7833
:1050E000DAB20B4B1A700D4B1A68094B101C191CC5
:1050F000012200F0DDF9094B1B68181C00F0B6F91D
:10510000BD4680BDE9FCFF1FF4FCFF1FE8FCFF1F4C
:10511000ECFCFF1F8871000094FEFF1FA0FEFF1F24
:1051200080B582B000AF021CFB1D1A700D4B1B78BE
:10513000DBB2002B01D008230FE00A4B01221A70CA
:10514000FFF79EFFFB1D1B78002B05D0C046054BCB
:105150001B78DBB2012BFAD00023181CBD4602B02D
:1051600080BDC046E9FCFF1F80B582B000AF021CC5
:105170003960FB1D1A70FB1D1B78052B01D902231A
:1051800017E0FB1D1B780D4AD35C0D4A1278D2B292
:105190001340DBB2002B01D109230AE0FB1D1A7872
:1051A000084B5200D35A9BB21B019AB23B681A803B
:1051B0000023181CBD4602B080BDC04688710000A7
:1051C000F4FCFF1F94FEFF1F80B582B000AF021CED
:1051D000FB1D1A701A4B1B78DBB2002B01D0082381
:1051E00029E0174B04221A70164B1B68181C00F09C
:1051F000C5F9144B1B68181C00F002FAFB1D1B7844
:10520000002B01D1002316E0C0460E4B1B68181C72
:1052100000F0B4F9031C002BF7D00A4B1B68181CD4
:1052200000F012FA031C002B04D0054B00221A7068
:105230001B2300E00023181CBD4602B080BDC04601
:10524000E9FCFF1FA0FEFF1F80B582B000AF7860B1
:10525000354B1B78DBB2042B0AD1344B1B68181C6E
:1052600000F0F2F9304B00221A70FEF757FA58E0BE
:105270002D4B1B78DBB2032B36D02C4B1A682C4BF2
:105280001B78DBB259002B4BCB18101C191C00F0FB
:1052900045F9274B1B78DBB20133DAB2244B1A7085
:1052A000234B1B78DBB2062B0BD1214B00221A704B
:1052B000214B3F221A70FEF70DFA1B4B00221A7089
:1052C0002FE01B4B1B78DAB21C4B1A70174B1A6875
:1052D0001A4B101C191C012200F0EAF8134B1B6832
:1052E000181C00F0C3F81CE0104B1A68104B1B7818
:1052F000DBB259000F4BCB18101C191C00F00EF933
:105300000B4B1B78DBB20E4AD25C0B4B1B78DBB22B
:105310001343DAB2084B1A70FEF7DCF9024B002295
:105320001A70BD4602B080BDE9FCFF1FA0FEFF1F42
:10533000E8FCFF1F94FEFF1FF4FCFF1FECFCFF1FA7
:105340008871000080B500AF064B00221A70064B32
:1053500000221A70002000F00BF8021C034B1A60A8
:10536000BD4680BDF4FCFF1FE9FCFF1FA0FEFF1F30
:1053700080B584B000AF7860324BFB60FB687A6820
:105380005A60314BFA681A60FB6800221A70FB6899
:1053900000229A702D4A2D492D4BCB5880210905AA
:1053A00019432B4BD1502B4A2A49C3239B00CB587E
:1053B0001B021B0A802109061943C3239B00D150FD
:1053C000244B244A1268802109020A431A60224BA6
:1053D000214A516B214A0A405A631F4B1E4A916869
:1053E0001E4A0A409A601E4B1D4A116A1B4A0A4017
:1053F0001A621B4B1A4A516A184A0A405A62164BE3
:10540000154AD16A154A0A40DA62154B144A116BE3
:10541000124A0A401A63134B57229A60114B114AE1
:10542000D2680F218A43DA600E4B00221A620D4BBC
:1054300040225A620C4BFA689A60FB68181CBD4601
:1054400004B080BDF8FCFF1F00FDFF1F007004408A
:105450003C10000000E100E000A00440FFF8FFFE67
:105460000090044000B0034040FDFF1F80B582B0B3
:1054700000AF78600D4B1A6A8023134001D00823D7
:1054800010E00A4B094A526A48218A435A62074B84
:10549000064A126A40218A431A62044B7A6852789B
:1054A0001A600023181CBD4602B080BD00B0034046
:1054B00080B586B000AFF860B960FB1D1A70FB685C
:1054C0007B61FB1D1B78012B03D8FB1D1B78002B78
:1054D00001D196231AE00F4B1A6A8023134001D0A2
:1054E000082313E07B69FA1D12781A70BB681B78D9
:1054F000052B01D9822309E0BB681B78064AD35CDF
:1055000040221343DAB27B695A700023181CBD464F
:1055100006B080BD00B003409071000080B584B03B
:1055200000AF786039603B68BB603B1C0F330022E2
:105530001A7015E03B1C0F331B785B00BA68D31858
:105540000D4A391C0F310978043189008A5892B20A
:105550001A803B1C0F331A783B1C0F3301321A7030
:105560007B681B783A1C0F3212789A42E2D30023F0
:10557000181CBD4604B080BD00B0034080B584B0A7
:1055800000AF78607B68FB603B1C0A33EFF3108050
:1055900072B61870184B1B78DBB20133DBB2164AB7
:1055A000191C1170012B04D13B1C0A331A78134BC0
:1055B0001A703B1C0B33FA6892781A70FB68002251
:1055C0009A700D4B1B78DBB2013BDBB20A4A191C07
:1055D0001170002B03D1094B187880F310883B1C05
:1055E0000B331B78002B01D0012300E00023181C93
:1055F000BD4604B080BDC04610FDFF1FAAFEFF1FC0
:1056000080B582B000AF78600E4B1A6A80231340D9
:1056100001D0082311E00B4B0A4A126A40218A4349
:105620001A62084B5F221A60064B064A526AC02172
:105630008A4380210A435A620023181CBD4602B0E7
:1056400080BDC04600B0034080B584B000AF786034
:10565000184B5A6A4023134001D01B2325E0154BF9
:10566000DB6CFB60134B9B6CFA68D318FB60114B2F
:105670005B6CFA68D318FB600E4B1B6CFA68D3188E
:10568000FB600C4BDB6BFA68D318FB60094B9B6B20
:10569000FA68D318FB60FB685B0880221202134390
:1056A000FB60044BFA68DA620023181CBD4604B0A4
:1056B00080BDC04600B0034080B582B000AF084B4B
:1056C0001B687B607B6801229A707B685B68181C92
:1056D000FFF7BAFD034B1B69BD4602B080BDC04653
:1056E00000FDFF1F00B0034090B587B000AFF86029
:1056F0007A603B1C0A330A1C1A803B1C16330022BA
:105700001A803B1C0A331B88002B04D17B680022C3
:105710001A80002381E0434B19683C1C1234FA685C
:105720003B1C0A331B88081C111C1A1C002300F0A8
:10573000CFFF031C23803B1C12331B88082B01D195
:105740000C236AE03B1C143300221A802DE0354BF9
:105750001B68181C00F0D6FD324B1B68181C01F0AA
:1057600061F8031C002B00D025E02E4B1B68181C91
:1057700001F072F8031C3A1C163212889A420DD0BE
:105780003B1C1433012252421A80264B1B683C1CDE
:105790001634181C01F060F8031C23803B1C1433E2
:1057A0001A883B1C143301321A803B1C14331A88AC
:1057B0001D4B9A42CBD91B4B1B68181C01F04CF8AF
:1057C000031C1A1C7B681A80164B1A683B1C10338A
:1057D000101C191C01F09CF93B1C10331B88002B7A
:1057E00011D03B1C10331B881A1C0823134001D016
:1057F000082312E03B1C10331B881A1C042313409F
:1058000001D0152309E03B1C14331A88FA23DB006E
:105810009A4201D10C2300E00023181CBD4607B0BA
:1058200090BDC046A4FEFF1FCF07000090B589B011
:1058300000AFF8607A603B1C0A330A1C1A803B1CDC
:105840001E3300221A803B1C0A331B88002B04D114
:105850007B6800221A800023A2E0534B19683C1C8D
:105860001A34FA683B1C0A331B88081C111C1A1CCA
:10587000012300F0FBFF031C23803B1C1A331B8811
:10588000082B01D10C238BE03B1C1C3300221A8017
:105890002DE0454B1B68181C00F034FD424B1B6883
:1058A000181C01F08DF8031C002B00D025E03E4BA6
:1058B0001B68181C01F0A2F8031C3A1C1E32128847
:1058C0009A420DD03B1C1C33012252421A80364BA7
:1058D0001B683C1C1E34181C01F090F8031C23802C
:1058E0003B1C1C331A883B1C1C3301321A803B1CA6
:1058F0001C331A882D4B9A42CBD92B4B1B68181C92
:1059000001F07CF8031C1A1C7B681A80264B1A686D
:105910003B1C1833101C191C01F0FAF83B1C1833FF
:105920001B88002B11D03B1C18331B881A1C082322
:10593000134001D0082333E03B1C18331B881A1C8A
:105940000423134001D015232AE03B1C1C331A8882
:10595000FA23DB009A4201D10C2321E03B1C1C33CB
:1059600000221A8015E0104B1A683B1C1733101CDC
:10597000191C01F0E1F83B1C17331B78012B01D1F6
:1059800000230DE03B1C1C331A883B1C1C330132E6
:105990001A803B1C1C331A88044B9A42E3D90C230F
:1059A000181CBD4609B090BDA4FEFF1FCF07000024
:1059B00080B582B000AF184B174A9278D2B220213E
:1059C0008A43D2B29A70144B134A9278D2B2102101
:1059D0008A43D2B29A70BB1DFA22D2001A8011E01B
:1059E0000E4B1A687B1D101C191C01F0A5F87B1DBD
:1059F0001B78012B01D1002309E0BB1D1A88BB1DB8
:105A0000013A1A80BB1D1B88002BE9D10C23181CFE
:105A1000BD4602B080BDC04600600640A4FEFF1F28
:105A200080B582B000AF021CFB1D1A70094B1A68CA
:105A3000FB1D1B7899B27F230B409BB2101C0021E9
:105A40001A1C00F0E5FF031CDBB2181CBD4602B0B7
:105A500080BDC046A4FEFF1F80B500AF002000F04F
:105A6000C5FD021C014B1A60BD4680BDA4FEFF1F90
:105A700080B584B000AF7860104BFB60FB687A683B
:105A80001A600F4B0E4A526940210A435A610C4B6F
:105A90000B4A126840218A431A600A4B094A9169ED
:105AA000094A0A40802149000A439A61074BFA6873
:105AB0001A62FB68181CBD4604B080BD04FDFF1FC0
:105AC00040F00F4000A00440FFF8FFFE40FDFF1F24
:105AD00080B582B000AF7860024B40229A60BD462C
:105AE00002B080BD40F00FF880B582B000AF7860A2
:105AF000024B40225A60BD4602B080BD40F00FF814
:105B000080B584B000AF78601A4BFB60FB687A68A0
:105B10001A60194BFA681A60184B184A5168184AEB
:105B20000A40802149000A435A60144B134A5168C5
:105B3000144A0A4014490A435A60144A1349C723B5
:105B40009B00CB581B021B0A802109061943C7235F
:105B50009B00D1500D4B0D4A1268802109060A4363
:105B60001A600B4BFA681A61FB68181CBD4604B03A
:105B700080BDC04608FDFF1F0CFDFF1F00A00440B4
:105B8000FFF8FFFEFFFFF0FE00000B0100E100E068
:105B900040FDFF1F80B582B000AF0C4B1B687B60DF
:105BA0000B4B5A6880235B0413400BD0084B084A08
:105BB0005268802149040A435A607B681B68181C9C
:105BC000FDF7B0FDBD4602B080BDC0460CFDFF1F15
:105BD00000A0044080B582B000AF7860054B1A6920
:105BE0000223134001D0012300E00023181CBD460E
:105BF00002B080BD40F00F4080B500AFFFF7CAFF94
:105C0000BD4680BD80B500AFFDF75AFDBD4680BDE5
:105C100080B500AFFFBEBD4680BDC04680B500AFB9
:105C2000324A3349334BD150334A88235B01002138
:105C3000D150314A314BC0218902D1502E4A2E49D0
:105C40002F4BCB58C021C90019432D4BD1502D4BA0
:105C50009B78DBB21A1C0823134007D0294B294A32
:105C60009278D2B208210A43D2B29A70224A234BC8
:105C700080214902D150204A1F49234BC958234B48
:105C80000B408021490419431F4BD150204B062261
:105C90001A701F4B1E4A5278D1B240220A40D2B22B
:105CA0005A701B4B1A4AD278D2B2D2B2111C1F22A0
:105CB0000A40D2B2602149420A43D2B2D2B2DA706B
:105CC000144B80221A70C046114B9B79DBB21A1C10
:105CD00010231340F8D0C0460D4B9B79DBB21A1C41
:105CE0000C231340F8D1BD4680BDC04600E000E063
:105CF00000200000080D0000007004404410000067
:105D00003810000000D0074004100000FFFFFFFC27
:105D1000004006400050064080B500AF514B514A4C
:105D20005279D2B21F218A43D2B25A714D4B4D4A99
:105D30001279D2B207218A43D2B21A714A4B4A4A27
:105D40001278D2B2D2B273218A43D2B250210A431E
:105D5000D2B2D2B21A70444B434A5278D2B2D2B2C3
:105D600063218A43D2B240210A43D2B2D2B25A70DE
:105D70003D4B3D4A9278D2B219218A43D2B29A70F1
:105D80003A4B00221A703A4B394AD168394A0A40D4
:105D900002210A43DA60364B354A1169354A0A4016
:105DA00002210A431A61324B314A116B314A0A40CF
:105DB00002210A431A63304A2F49C7239B00CB585C
:105DC0001B04190CC7239B00D1502C4B2B4A526942
:105DD00002218A435A612A4B294A916A254A0A407C
:105DE00002210A439A62224B214A5168254A0A40FD
:105DF000C02189000A435A601F4A1F49C1239B00E2
:105E0000C958214B1940C1239B00D150002001F0FB
:105E1000E9F8FFF797FA00F02FFF002000F036F8BE
:105E20000020FFF76DFE002000F05EFF002000F074
:105E3000DBFE002000F072F80020FFF719FE0020C2
:105E400000F0D0FF002000F08FFF00F02FFF0020B7
:105E500000F08CFEFFF700FE00F00CFA62B6BD46C3
:105E600080BDC04600F0074000D0074000E007407A
:105E700000900440FDFFFFFE00E100E040F00F4015
:105E800000A00440FFF8FFFEFFFF00FF80B584B0D4
:105E900000AF7860104BFB60FB687A681A600F4BAC
:105EA0000E4A526920210A435A610C4B0B4A126870
:105EB00020210A431A600A4B094A5169094A0A40DB
:105EC000802149000A435A61074BFA68DA60FB688F
:105ED000181CBD4604B080BD14FDFF1F00F00F402C
:105EE00000900440FFF8FFFE40FDFF1F80B582B028
:105EF00000AF7860024B20229A60BD4602B080BDA0
:105F000000F00FF880B582B000AF7860024B20221D
:105F10005A60BD4602B080BD00F00FF880B584B075
:105F200000AF7860104BFB60FB687A681A600F4B1B
:105F30000E4A526980210A435A610C4B0B4A12687F
:105F400080218A431A600A4B094AD169094A0A40EA
:105F5000802149000A43DA61074BFA68DA61FB687D
:105F6000181CBD4604B080BD18FDFF1F40F00F4057
:105F700000A00440FFF8FFFE40FDFF1F80B582B087
:105F800000AF7860024B80229A60BD4602B080BDAF
:105F900040F00FF880B582B000AF7860024B8022ED
:105FA0005A60BD4602B080BD40F00FF890B585B094
:105FB00000AF0A1CBB1D011C19807B1D1A70BB1D84
:105FC0001B881B0A9BB2DBB21A1C07231340DBB2EF
:105FD00050221343DBB2DBB23C1C0F34181C00F020
:105FE000B7F8031C23703B1C0F331B78002B05D024
:105FF00000F0C4F83B1C0F331B7846E0BB1D1B8828
:10600000DAB23B1C0C331A703B1C0C337A1D12782D
:106010005A703C1C0F343B1C0C33181C022100220C
:1060200000F0EAF8031C23703B1C0F331B78002B95
:1060300005D000F0A3F83B1C0F331B7825E03B1C78
:106040000C33FF221A70002001F06EF83C1C0F3454
:106050003B1C0C33181C01210022642300F00EF9B4
:10606000031C23703B1C0F331B78002BEBD13B1C14
:106070000F331B78002B05D000F080F83B1C0F334A
:106080001B7802E000F07AF8031C181CBD4605B02E
:1060900090BDC04690B585B000AF021C3960BB1DF5
:1060A0001A80BB1D1B88DAB23B1C0E331A70BB1D55
:1060B0001B881B0A9BB2DBB21A1C07231340DBB2FE
:1060C00050221343DBB2DBB23C1C0F34181C00F02F
:1060D0003FF8031C23703B1C0F331B78002B05D0AB
:1060E00000F04CF83B1C0F331B782DE03C1C0F34A8
:1060F0003B1C0E33181C0121012200F07DF8031C0B
:1061000023703B1C0F331B78002B05D000F036F8B2
:106110003B1C0F331B7817E03C1C0F343B68181CEA
:106120000121002200F030F8031C23703B1C0F33C8
:106130001B78002B05D000F021F83B1C0F331B7897
:1061400002E000F01BF8031C181CBD4605B090BD12
:1061500080B582B000AF021CFB1D1A70FB1D1B78BE
:10616000181CFFF75DFC031C002B01D01B2300E073
:106170000023181CBD4602B080BDC04680B500AFEC
:106180000023181CBD4680BD90B585B000AF786077
:10619000BB1C19807B1C1A703B1C0F3300221A7029
:1061A0003C1C0F347968BB1C1A883B1C0C33081C40
:1061B000111C1A1CFFF73AFB031C23703B1C0F3306
:1061C0001B78002B00D010E07B1C1B78002B0BD120
:1061D0003C1C0F34FFF7ECFB031C23703B1C0F33FC
:1061E0001B78002B00D000E0C0463B1C0F331B780F
:1061F000181CBD4605B090BD90B585B000AF786065
:10620000BB1C19807B1C1A703B1C0F3300221A70B8
:106210003C1C0F347968BB1C1A883B1C0C33081CCF
:10622000111C1A1CFFF760FA031C23703B1C0F3370
:106230001B78002B02D0FFF7BBFB14E07B1C1B7804
:10624000002B03D07B1C1B78022B0BD13C1C0F3482
:10625000FFF7AEFB031C23703B1C0F331B78002B96
:1062600000D000E0C0463B1C0F331B78181CBD4615
:1062700005B090BD80B500AFBD4680BD90B587B07C
:1062800000AFF860081C111C1A1C3B1C0A33188054
:106290003B1C09331970BB1D1A803B1C17330022AD
:1062A0001A703C1C1734F9683B1C0A331A883B1CD3
:1062B0001433081C111C1A1CFFF716FA031C237058
:1062C0003B1C17331B78002B02D0FFF771FB11E04A
:1062D0003B1C09331B78002B0BD13C1C1734FFF7F8
:1062E00067FB031C23703B1C17331B78002B00D06B
:1062F00000E0C0463B1C17331B78181CBD4607B096
:1063000090BDC04690B585B000AF78607B68BB603B
:106310003B1C0E3300221A80B34BDB78DBB21A1C15
:106320000223134000D15BE1AF4BDB78DCB2AE4B14
:10633000AD4AD278D2B2D2B212218A43D1B2E2B2FD
:106340000A43D2B2D2B2DA70A74B9B78DBB21A1CE6
:106350002023134000D111E1A34B9B78DBB21A1C20
:106360001023134000D1C0E0221C012313402CD085
:106370009D4B9D4A9278D2B220218A43D2B29A7024
:10638000994B994A9278D2B210218A43D2B29A702C
:10639000BB6800221A82BB6800221A81BB681B7886
:1063A00001229343DAB2BB681A70BB681B780622DD
:1063B0001343DAB2BB681A703B1C0E333A1C0E3220
:1063C000128808210A431A80FCE0BB681B781A1C5B
:1063D0000223134000D17CE0BB681B8A002B14D041
:1063E000BB681B8A013B9AB2BB681A82BB685B8A96
:1063F00001339AB2BB685A827B49BB685B69581CFF
:10640000BA6850611B780B71DCE0BB681B89002BFC
:106410003CD0BB681B781A1C042313401FD0BB68F8
:106420001B89012B08D1704B6F4A9278D2B2082198
:106430000A43D2B29A7007E06B4B6B4A9278D2B2A1
:1064400008218A43D2B29A70674B674A9278D2B2D7
:1064500010218A43D2B29A70634B1B79B2E0624B2F
:10646000614A9278D2B204210A43D2B29A705E4B4A
:10647000BA68D27901210A43D2B21A71BB681B787B
:1064800004221343DAB2BB681A709BE0BB681B7826
:1064900001229343DAB2BB681A70BB689B78012B68
:1064A0000FD1514B504A9278D2B220218A43D2B2B6
:1064B0009A704D4B4C4A9278D2B210218A43D2B294
:1064C0009A70BB685B7801221343DAB2BB685A70DA
:1064D00078E0454BBA6892791A71BB681B78022242
:1064E0001343DAB2BB681A706CE0BB681B89013BCE
:1064F0009AB2BB681A81BB685B8901339AB2BB68E8
:106500005A81BB681B89002B0CD0BB681B89012BEF
:106510001FD1354B344A9278D2B208210A43D2B205
:106520009A7016E0BB681B7801229343DAB2BB680D
:106530001A702D4B2C4A9278D2B220218A43D2B2C3
:106540009A70294B284A9278D2B208218A43D2B253
:106550009A70BB68DB68591CBA68D160224A12790C
:10656000D2B21A70BB681B89002B2BD1BB685B7839
:1065700002221343DAB2BB685A7023E0221C1023B4
:1065800013401FD0BB6800221A82BB6800221A8108
:10659000BB6801229A70BB681B7801229343DAB270
:1065A000BB681A70104B104A9278D2B210218A43FD
:1065B000D2B29A703B1C0E333A1C0E321288042160
:1065C0000A431A803B1C0E331B88002B08D0BB6883
:1065D0009A883B1C0E331B8813439AB2BB689A807F
:1065E000BD4605B090BDC0460060064080B584B091
:1065F00000AF78602F4BFB60FB687A689A61FB689C
:1066000020221A70FB6810229A71FB6801229A708E
:10661000FB6800225A81FB6800221A81FB68002275
:106620005A82FB6800221A82FB6800225A70FB68BB
:1066300000229A80204A2049204BCB584021194300
:106640001E4BD1501E4B00229A701D4B50229A7146
:106650001B4B0222DA701B4B1A4A11691A4A0A4074
:10666000802189000A431A61164B164AD168164ADE
:106670000A40802189000A43DA60114B00225A71D6
:106680000F4B00229A710E4B3A225A700C4B0C4A57
:106690009278D2B2D2B2802149420A43D2B2D2B267
:1066A0009A700A4BFA681A63FB68181CBD4604B05E
:1066B00080BDC0461CFDFF1F007004403410000068
:1066C0000060064000A00440FFF8FFFE40FDFF1FF1
:1066D00080B586B000AFF860B960111C1A1CBB1DF4
:1066E00019807B1D1A70FB687B61BB1D1B88002B0A
:1066F00001D1002390E07B699B78012B12D1484B9C
:10670000DB78DBB21A1C2023134009D17B691B788C
:106710001A1C0123134003D17B691B8A002B0DD067
:10672000082379E07B691B781A1C0123134003D1ED
:106730007B691B8A002B01D008236DE07B691B78E5
:1067400001221343DAB27B691A707B69BA685A6115
:106750007B6900225A827B69BA1D12881A827B6982
:106760007A1D12789A702E4B2D4A9278D2B2D2B2FC
:1067700010210A43D2B2D2B29A70294B9B78DBB275
:106780001A1C2023134008D0254B254A9278D2B2F8
:1067900004210A43D2B29A7009E0214B204A927830
:1067A000D2B2D2B220210A43D2B2D2B29A707B695D
:1067B0001B781A1C202313400BD07B691B78062200
:1067C0001343DAB27B691A70154B7A6992791A71A0
:1067D00021E07B691B781A1C102313400BD07B69C6
:1067E0001B7806229343DAB27B691A700C4B7A69E4
:1067F000D2791A710FE07B691B781A1C08231340A9
:1068000009D07B691B7802221343DAB27B691A70C4
:10681000034B00221A710023181CBD4606B080BD30
:106820000060064080B584B000AF78603B1C0F3339
:106830007A6852781A707B685B7801229343DAB2E7
:106840007B685A703B1C0F331A7801231340DBB26C
:10685000181CBD4604B080BD80B582B000AF786022
:106860007B685B8A181CBD4602B080BD80B586B0CF
:1068700000AFF860B960111C1A1CBB1D19807B1D8C
:106880001A70FB687B61BB1D1B88002B01D10023A4
:1068900090E07B1D1B78002B01D181238AE07B696E
:1068A0001B781A1C0823134001D0092382E07B695E
:1068B0009B78012B12D1414BDB78DBB21A1C2023D1
:1068C000134009D17B691B781A1C0123134003D1A3
:1068D0007B691B89002B0DD008236BE07B691B783B
:1068E0001A1C0123134003D17B691B89002B01D0A3
:1068F00008235FE07B691B7801221343DAB27B69CE
:106900001A707B69BA68DA607B6900225A817B69F8
:10691000BA1D12881A817B697A1D12789A70274BEA
:10692000264A9278D2B2D2B210210A43D2B2D2B25F
:106930009A70224B9B78DBB21A1C2023134008D09C
:106940001E4B1E4A9278D2B204210A43D2B29A70E8
:1069500009E01A4B194A9278D2B2D2B220210A43E6
:10696000D2B2D2B29A707B691B781A1C20231340D2
:106970000ED07B691B7806221343DAB27B691A704A
:106980000E4B7A69927901210A43D2B21A7110E052
:106990007B691B781A1C102313400AD07B691B7873
:1069A00006229343DAB27B691A70044B7A69D27972
:1069B0001A710023181CBD4606B080BD0060064059
:1069C00080B584B000AF78603B1C0F337A68527892
:1069D0001A707B685B7802229343DAB27B685A7044
:1069E0003B1C0F331A780223134001D0012300E02F
:1069F0000023181CBD4604B080BDC04680B582B0DF
:106A000000AF78607B685B89181CBD4602B080BD12
:106A100080B584B000AF7860FB1C19703B1C1A80F5
:106A20007B68FB60FB681B781A1C0123134001D0B4
:106A3000082366E0FB1C1B78012B1FD0022B4ED0D5
:106A4000002B5BD13B1C1B887F2B01D9892358E08D
:106A50003B1C1B88DBB2DB18DAB2FB689A71FB685F
:106A60001B7818229343DAB2FB681A70FB681B7814
:106A700020221343DAB2FB681A7041E03B1C1A88EB
:106A8000224B9A4201D989233BE03B1C1B88DAB296
:106A9000FB689A713B1C1B88DB099BB2DAB2FB686E
:106AA000DA71FB68DA7906231340DAB2FB68DA712F
:106AB000FB68DB79102252421343DAB2FB68DA71C9
:106AC000FB681B7828229343DAB2FB681A70FB68D4
:106AD0001B7810221343DAB2FB681A7010E0FB68CF
:106AE0001B7830229343DAB2FB681A70FB681B787C
:106AF00008221343DAB2FB681A7001E08D2300E02C
:106B00000023181CBD4604B080BDC046FF03000032
:106B100080B584B000AF786039607B68FB60FB684B
:106B20009A883B681A80FB6800229A800023181C10
:106B3000BD4604B080BDC04680B584B000AF78606B
:106B400039607B68FB60084BDB78DBB21A1C2023C2
:106B500013405A425341DBB2DAB23B681A70002349
:106B6000181CBD4604B080BD0060064080B584B0EE
:106B700000AF78600D4BFB60FB687A681A600C4BC5
:106B80000B4A526940218A435A610A4B094A91696A
:106B9000094A0A40802149000A439A61074BFA6872
:106BA000DA62FB68181CBD4604B080BD38FDFF1FCB
:106BB00000F00F4000900440FFF8FFFE40FDFF1F73
:106BC00080B584B000AF7860064B1A69402313404B
:106BD000FB60FB685A1E9341DBB2181CBD4604B033
:106BE00080BDC04600F00FF880B584B000AF78607B
:106BF000104BFB60FB687A681A600F4B0E4A5269B3
:106C000020210A435A610C4B0B4A126820218A4307
:106C10001A600A4B094A5169094A0A408021490011
:106C20000A435A61074BFA689A61FB68181CBD4613
:106C300004B080BD3CFDFF1F40F00F4000A00440A9
:106C4000FFF8FFFE40FDFF1F80B582B000AF786007
:106C5000024B20229A60BD4602B080BD40F00FF882
:106C600080B582B000AF7860024B20225A60BD46EA
:106C700002B080BD40F00FF880B500AF094B094A63
:106C8000526808210A435A60064B064A9268082156
:106C90008A439A60034B034A5169034A0A405A6186
:106CA000BD4680BD00F00F40E7ECFFFF80B500AFB0
:106CB0000A4B0A4A52688021C9000A435A60074BAE
:106CC000064A9168064A0A409A60044B034A516991
:106CD000044A0A405A61BD4680BDC04640F00F409C
:106CE000FFFBFFFFFBD3FFFF80B584B000AF7860F0
:106CF0000D4BFB60FB687A681A600C4B0B4A5169BC
:106D00000B4A0A405A610B4B0A4A916A0A4A0A40E6
:106D1000802149000A439A62084BFA685A61FB686D
:106D2000181CBD4604B080BD74FDFF1F40F00F402D
:106D3000FFFBFFFF00A00440FFF8FFFE40FDFF1F28
:106D400080B584B000AF7860064B1A698023DB0001
:106D50001340FB60FB685A1E9341DBB2181CBD4612
:106D600004B080BD40F00FF880B584B000AF78600B
:106D70000D4BFB60FB687A681A600C4B0B4A52693A
:106D800010218A435A610A4B094A1169094A0A408B
:106D9000802149000A431A61074BFA689A62FB682E
:106DA000181CBD4604B080BD78FDFF1F00F00F40E9
:106DB00000900440FFF8FFFE40FDFF1F80B584B047
:106DC00000AF7860064B1A6910231340FB60FB6824
:106DD0005A1E9341DBB2181CBD4604B080BDC046AC
:106DE00000F00FF880B584B000AF78600D4BFB6009
:106DF000FB687A681A600C4B0B4A526908218A4377
:106E00005A610A4B094AD168094A0A40802149005F
:106E10000A43DA60074BFA685A62FB68181CBD46E1
:106E200004B080BD7CFDFF1F00F00F4000900440C7
:106E3000FFF8FFFE40FDFF1F80B584B000AF786013
:106E4000064B1A6908231340FB60FB685A1E9341E6
:106E5000DBB2181CBD4604B080BDC04600F00FF880
:106E600080B582B000AF7860FCF72EFCBD4602B062
:106E700080BDC04680B584B000AF78602D4B1B68E4
:106E8000002B45D12C4BFB60FB687A68DA60FB680D
:106E900001221A72294BFA681A60294A2849294B9B
:106EA000CB58802149041943264BD150264B002250
:106EB0001A60254B00225A60234B0022DA60224BD5
:106EC00000225A61204B214A9A60FB6880225200BE
:106ED0001A60FB6808225A601D4A1D49C4239B00A2
:106EE000C9581C4B0B40802109021943C4239B0045
:106EF000D150174B164A1268802189020A431A6042
:106F0000114B40221A600B4BFA681A60FB680CE0C8
:106F1000084B1B68FB60FB687A68DA60FB681B7AC9
:106F20000133DAB2FB681A72FB68181CBD4604B064
:106F300080BDC04640FDFF1F80FDFF1F90FDFF1F6D
:106F4000007004403C10000000800340B15D000070
:106F500000E100E0FF00FFFF80B584B000AF786083
:106F60007B68FB60074B074A12689821101C884316
:106F7000011CFA6852680A431A600023181CBD46B7
:106F800004B080BD0080034080B582B000AF134BD9
:106F90001B683B6000237B60114B1A688023134001
:106FA00004D07B688022520013437B603B681A68E0
:106FB0007B6813407B607A6880235B0013400AD0B3
:106FC000074B074A126880210A431A603B68DB6856
:106FD000181C00F047F8BD4602B080BD90FDFF1FB1
:106FE0000080034080B584B000AF78600F4BFB6039
:106FF000FB687A689A60FB6800221A710C4BFA6889
:107000005A600020FFF736FF021CFB681A60FB681D
:107010001B68002B04D1064B00225A60002300E0BD
:10702000FB68181CBD4604B080BDC04694FDFF1F20
:1070300040FDFF1F80B584B000AF78607B68FB60C7
:10704000FB681B79002B07D1FB6801221A71FB68D2
:107050001B68181CFFF780FF0023181CBD4604B0F6
:1070600080BDC04680B584B000AF7860054B5B68DA
:10707000FB60FB689B68181CFFF7F2FEBD4604B07E
:1070800080BDC04640FDFF1FC046C046C046704799
:107090000020C046C046C046C046C0460130092850
:1070A000F7D9C0467047C04680B582B000AF021C19
:1070B000BB1D1A8006E0FFF7EBFFBB1DBA1D12884F
:1070C000643A1A80BB1D1B88642BF4D806E0FFF7D6
:1070D000DBFFBB1DBA1D12880A3A1A80BB1D1B8834
:1070E0000A2BF4D8BD4602B080BDC04680B582B040
:1070F00000AF786007E00A4B181CFFF7D5FF7B68EC
:10710000084A9B187B607A68054B9A42F3D87B68E3
:107110009BB2181CFFF7C8FFBD4602B080BDC04639
:1071200060EA0000A015FFFF80B584B000AF021C2C
:10713000BB1D1A80094BFB6008E0FB68181CFFF7B9
:10714000D5FFBB1D1A88BB1D013A1A80BB1D1B88C9
:10715000002BF2D1BD4604B080BDC04664BB000028
:107160007E2D0000FE2D0000C82D0000482E0000DE
:10717000922D00005C340000C8300000B4310000E3
:1071800020330000683300000102040810200000D2
:10719000504443424B400000F8B5C046F8BC08BC20
:1071A0009E467047F8B5C046F8BC08BC9E4670477E
:0471B000392400007E
:0471B40011240000A2
:0471B80003000000D0
:1071BC00B871000000FCFF1F04000000000000007C
:0871CC000000000000000000BB
:0400000300005009A0
:00000001FF
