:10000000000C0020DD220000D92E0000E52E0000AB
:10001000E52E0000E52E0000E52E0000E52E000094
:10002000E52E0000E52E0000E52E0000E52E000084
:10003000E52E0000E52E0000E52E0000E52E000074
:10004000E52E0000E52E0000E52E0000E52E000064
:10005000E52E0000E52E0000E52E0000E52E000054
:10006000E52E0000E52E00006D410000E52E0000A9
:10007000E52E0000E52E0000E52E00008D29000091
:10008000E52E0000F9440000E52E0000E52E0000FA
:10009000E52E0000E52E0000E52E0000E52E000014
:1000A000E52E0000E52E0000E52E0000E52E000004
:1000B000E52E0000E52E0000E52E0000CD2E00000C
:10040000FFFFFFFFFFFFFFFFFFFFFFFF7EFBFFFF81
:1004100010B5064C2378002B07D1054B002B02D0DA
:10042000044800E000BF0123237010BD04FCFF1F3F
:10043000000000000847000008B5084B002B03D05F
:100440000748084900E000BF07480368002B03D0B5
:10045000064B002B00D0984708BDC04600000000A6
:100460000847000008FCFF1F04FCFF1F00000000FD
:10047000002934D00123002210B488422CD3012457
:100480002407A14204D2814202D209011B01F8E7EC
:10049000E400A14204D2814202D249005B00F8E7A5
:1004A000884201D3401A1A434C08A04202D3001BD1
:1004B0005C0822438C08A04202D3001B9C08224304
:1004C000CC08A04202D3001BDC082243002803D042
:1004D0001B0901D00909E3E7101C10BC7047002874
:1004E00001D00020C04307B4024802A14018029086
:1004F00003BDC046D90000000029F0D003B5FFF7C6
:10050000B9FF0EBC4243891A1847C046002941D0A2
:1005100010B4041C4C40A44601230022002900D53D
:100520004942002800D5404288422CD301242407A8
:10053000A14204D2814202D209011B01F8E7E40082
:10054000A14204D2814202D249005B00F8E788420E
:1005500001D3401A1A434C08A04202D3001B5C0886
:1005600022438C08A04202D3001B9C082243CC08E3
:10057000A04202D3001BDC082243002803D01B0941
:1005800001D00909E3E7101C6446002C00D5404265
:1005900010BC7047002806D003DB0020C043400891
:1005A00001E08020000607B4024802A14018029032
:1005B00003BDC046190000000029EBD003B5FFF7CA
:1005C000A7FF0EBC4243891A1847C0467047C04671
:1005D0001C2101231B04984201D3000C10391B0A73
:1005E000984201D3000A08391B09984201D3000937
:1005F000043902A2105C40187047C046040302028E
:100600000101010100000000000000009C460304FD
:10061000F0B51B0C17043F0C150C1E1C041C000C21
:100620007E436B4347434543FB18300C1818874201
:1006300002D980235B02ED18030CED1863465C437E
:100640004A433604360CA118000480194919F0BD3C
:1006500080B584B000AF78607B6800229A727B68B6
:100660000022DA607B6800225A617B6800221A61EE
:100670007B6800229A657B680022DA647B6800222E
:100680001A657B6800225A650023FB6008E07A68DF
:10069000FB68D318183300221A70FB680133FB6023
:1006A000FB68032BF3DDBD4604B080BD80B582B08E
:1006B00000AF78607A687B68101C191C00F058FE47
:1006C000031C7A68101C191C00F052FE031C181C35
:1006D000BD4602B080BDC04690B58FB000AFF86097
:1006E000B9607A601A1CBB1C1A807B685B045B0CC7
:1006F0007B60BA68FB68D31A7B632F4B3B63832311
:10070000FB623B6B181CFFF7D1FF031CBB62FB6A4B
:10071000181CFFF7CBFF031C7B627B6A5B423B62CA
:10072000BA6A7B6A101C191C00F000FE031C8022B0
:100730005202101C191C00F027FF031CFB617B6890
:100740005B0080225202101C191C00F0EFFD041CFB
:10075000FA6A3B6B101C191C00F0E8FD031C201CFE
:10076000191C00F005FE021C3B6B101C191C00F04C
:10077000A1FD031CBB61BB69181CFFF797FF021C9E
:100780003B6A101C191C00F095FD021CFB69101C33
:10079000191C00F0EDFD031C7B617B6B7A695343F0
:1007A000002B01DA054A9B181B141A1CFB68D3188E
:1007B000181CBD460FB090BDCCCC0000FFFF000060
:1007C00080B584B000AFF860B9607A601A1CBB1CB9
:1007D0001A80BB1C1B881BB2002B22DB7B681B040E
:1007E0007B60BB1C1B8880221202D31A01D5134ADE
:1007F0009B181B1380225202101C191C00F05AFD7A
:10080000031C7A68101C191C00F0B2FD031C7B60ED
:10081000F868B9687A68BB1C1B88FFF75DFF031C8A
:1008200007E0F868B9687A68BB1C1B88FFF754FFBB
:10083000031C181CBD4604B080BDC046FF0F00005D
:1008400080B582B000AF786039607B685B69022B4D
:1008500015D002DC012B0ED019E0032B02D0042BA3
:1008600011D014E07A6827230021D1547A68282314
:100870000021D1540BE07B681E22DA7607E07B680A
:100880001E229A7603E07B681E221A76C0467B6899
:100890003A685A617B685B69042B5ED89A00304BDA
:1008A000D3181B689F467B680022DA647B680022AD
:1008B0001A657B6800225A654FE07B68802212022D
:1008C000DA647B68802212021A657B6800225A650E
:1008D0007B689A6D7B685A647B68DA6D7B689A6482
:1008E0007B681E225A7638E07B6880221202DA6426
:1008F0007B6800221A657B6800225A657B689A6DC6
:100900007B68DA637B68DA6D7B681A6425E07B6854
:100910000022DA647B6800221A657B6800225A652F
:100920007B689A6D7B685A637B68DA6D7B689A6333
:1009300013E07B6880221202DA647B688022120254
:100940001A657B6800225A657A682723FF21D154F3
:100950007A682823FF21D154C046BD4602B080BD2D
:10096000D046000080B584B000AFF8607A603B1CD0
:100970000B330A1C1A703B1C0B331B78002B0CD05A
:10098000FB689B7A002B1CD1FB68181C0121FFF728
:1009900057FFFB6801229A7213E07B681B78002BDB
:1009A0000CD0FB685B69002B08D0FB685B69042BEB
:1009B00004D0FB68181C0421FFF742FFFB680022EB
:1009C0009A72BD4604B080BD80B582B000AF786039
:1009D00039607B6800225A70BD4602B080BDC046B7
:1009E00080B582B000AF7860BD4602B080BDC04621
:1009F00080B582B000AF786039603B68002B01D0D1
:100A0000C82301E0FA23DB007A68121253431B1259
:100A10000133181CBD4602B080BDC04680B582B00F
:100A200000AF78607B681B12DB031B12181CBD46ED
:100A300002B080BD90B591B000AF786039600023FE
:100A4000FB6315E07A68FB6BD31818331B78002B17
:100A50000BD07A68FB6BD31818331B78013BDAB2E2
:100A60007968FB6BCB1818331A70FB6B0133FB638F
:100A7000FB6B032BE6DD7A686523D35C002B1CD06F
:100A80007B685B69022B0CD002DC012B05D014E0E3
:100A9000032B0AD0042B0CD00FE07B681E22DA76E1
:100AA0000BE07B681E229A7607E07B681E225A764E
:100AB00003E07B681E221A76C0467B685B69042BC4
:100AC00000D968E19A00DB4BD3181B689F467B680E
:100AD000802212021A667B681B881A1C3B685B78AE
:100AE000101C191CFFF784FF031CFB6280231802F3
:100AF000F96AFFF70BFD031CBB627B689A6DBB6A4A
:100B0000D2187B689A657B689B6DDA037B685B6BA8
:100B100080210902CB1A101C191CFFF7F7FC031CDB
:100B20001A1C7B68DA647B68986B7B68DB6C8022BC
:100B30001202D31A1A1C7B681B8980210902FFF755
:100B40003FFE031C80221202D31A1A1C7B68DA654E
:100B50007B689A6DB84B9A420DDD7B688022120249
:100B60009A657B6880221202DA657B68181C022174
:100B7000FFF766FE0FE10EE17B689B88181CFFF70C
:100B80004DFF031C7B627B687A6A1A667B6AAB4AFC
:100B90009C187B685B881A1C3B685B78101C191CCE
:100BA000FFF726FF031C201C191CFFF7AFFC031CDA
:100BB0003B627B689A6D3B6AD2187B689A657B685A
:100BC000DA6B7B6A9A421DDD7B689A6D7B6AD31A69
:100BD000FB617B689A6D7B6AD31ADA037B6A80219A
:100BE0000902CB1A101C191CFFF790FC031C1A1CDD
:100BF0007B681A657B681B6D80221202D21A7B68A3
:100C00001A6506E07B68802212021A657B687A6AA0
:100C10009A657B681B6D80221202D31A1A1C7B68AE
:100C20001B89786A80210902FFF756FD031C1A1CF4
:100C30007B68DA657B689A6D7B6A9A4223DC7B6805
:100C40007A6A9A657B687A6ADA653B681B78002B5A
:100C500003D03B681B78022B05D17B68181C04214C
:100C6000FFF7EEFD0FE07B689B6D002B05D17B68E5
:100C7000181C0021FFF7E4FD05E07B68181C032128
:100C8000FFF7DEFD87E086E07B689B88181CFFF796
:100C9000C5FE031CBB617B68BA691A667B689B88CA
:100CA000181CFFF7BBFE021C7B689B6DD31A181C37
:100CB0000521FFF72BFC031C7B617B689A6D7B6928
:100CC000D2187B689A657B689A6D7B68DA6562E00A
:100CD0007B6800221A667B685B6C5C427B68DB8801
:100CE0001A1C3B685B78101C191CFFF781FE031C63
:100CF000201C191CFFF70AFC031C3B617B689A6DE2
:100D00003B69D2187B689A657B685A6C7B689B6DDF
:100D1000D31ADA037B685B6C101C191CFFF7F6FB17
:100D2000031C1A1C7B685A657B68996C7B685B6D39
:100D300080221202D31A1A1C7B681B890020FFF73D
:100D4000CBFC031C1A1C7B68DA657B689B6D002B4F
:100D500002DD3B69002B19D17B6800229A657B6814
:100D60000022DA653B681B78022B09D17B689B7AED
:100D7000002B05D07B68181C0121FFF761FD05E001
:100D80007B68181C0021FFF75BFD04E003E07B6833
:100D900000221A66C0460023BB6309E0796820235D
:100DA000BA6B8A18D31800221A70BB6B0133BB636D
:100DB000BB6B0C2BF2DD7B685B69002B00D172E012
:100DC00000237B637B68DA6C131C5B009B18DB11D0
:100DD0000133FF337A6BD3187B637B681A6D131C66
:100DE0005B009B18DB117A6BD3187B637B685B69B4
:100DF000032B02D1124B7B630AE07B685B69042BF7
:100E000006D17B685B6D9B00DB110E4A9B187B63F0
:100E10007B681A6B7B6B9A4202DD7B6800221A6347
:100E20007B681B6B1B12FB607B6B1B12BB60FB6840
:100E30003B6313E0E4460000FF7F00000080FFFFFB
:100E4000FF080000FF090000796820233A6B8A1828
:100E5000D318FF221A703B6B01333B633A6BBB68BC
:100E60009A42F1DB7B681B6BDAB278682023F96861
:100E70004118CB181A707B6BDAB278682023B968F6
:100E80004118CB181A707A682823D15C7A68262317
:100E9000D1547A682823D15C7A682723D1547B689F
:100EA0007A6B1A6302E07B6800221A637B689A6D92
:100EB000131C1B039B1A01D50B4A9B18DB131A1C2E
:100EC0007B68DA607B68DA6D131C1B039B1A01D503
:100ED000054A9B18DB131A1C7B681A617B68DB6868
:100EE000181CBD4611B090BDFF7F000080B500AF5B
:100EF000BD4680BD80B582B000AF786000F04CF890
:100F0000BD4602B080BDC04680B582B000AF7860FB
:100F1000BD4602B080BDC04680B500AF00F01CFEEB
:100F2000BD4680BD80B582B000AF00237B6010E07D
:100F30007B68DAB2BB1C101C191C01F07FFABB1CC9
:100F40001B88191C074B7A689200D1507B680133CB
:100F50007B607B68052BEBDD034B01221A60BD46ED
:100F600002B080BD24FEFF1F20FCFF1F80B500AF34
:100F7000BD4680BD80B582B000AF7860054B5B692F
:100F8000181C01F091FF031C181C00F019FFBD464E
:100F900002B080BD30FDFF1F80B500AF002002F021
:100FA0001DF9024B01221A70BD4680BD00FCFF1FD7
:100FB00080B584B000AF78603960384B1B78DBB205
:100FC000002B00D167E0002002F0FCF87B68012BC9
:100FD00030D10023FB600023002B01D0002301E06F
:100FE00080235B01FA681343FB600023002B01D0D0
:100FF000002301E080239B01FA681343FB603B68F8
:101000001B051B0DFA681343FB60FB681B0ADAB271
:10101000234B1A70FB68DAB2214B5A701F4B002227
:101020001A70204B1A681E4B101C191C022203F068
:1010300049F830E080231B02FB600023002B01D025
:10104000002301E080235B01FA681343FB60002367
:10105000002B01D0002301E080239B01FA68134399
:10106000FB603B681B051B0DFA681343FB60FB68C4
:101070001B0ADAB20A4B1A70FB68DAB2084B5A70D4
:10108000064B00221A70074B1A68054B101C191CDE
:10109000022203F017F8BD4604B080BD00FCFF1F1C
:1010A000B8FDFF1F30FDFF1F80B584B000AF786032
:1010B0003B1C0F3300221A707B689AB23B1C0F3323
:1010C000101C191C02F052F93B1C0F331B78181C22
:1010D000BD4604B080BDC04680B582B000AF0A1CDA
:1010E000BB1D011C19807B1D1A70BB1D1A887B1D3E
:1010F0001B78101C191C02F0C5F8BD4602B080BD5B
:1011000090B587B000AFB9607A603B1C0E33021C0B
:101110001A8000237B6111E07B69BA68D4183B1CFC
:101120000E331B883A1C0E32591C1180181CFFF715
:10113000BBFF031C23707B6901337B617A697B6889
:101140009A42E9DBBD4607B090BDC04680B586B087
:1011500000AFB9607A603B1C0E33021C1A8000237A
:101160007B6111E03B1C0E331B883A1C0E32591C6C
:1011700011807A69B9688A181278181C111CFFF757
:10118000ABFF7B6901337B617A697B689A42E9DB5B
:10119000BD4606B080BDC04680B582B000AF786065
:1011A0007B681B7A1B071B0FDBB2012B06D17B6808
:1011B0001A7A0F218A431A72012300E00023181CB7
:1011C000BD4602B080BDC04680B582B000AF786039
:1011D0007B681B7A1B061B0FDBB2012B06D17B68D9
:1011E000197A0F220A401A72012300E00023181C0A
:1011F000BD4602B080BDC04680B582B000AF786009
:1012000039607B68002B05D03B681B685A1C3B6823
:101210001A6004E03B681B685A1E3B681A603B6812
:101220001B68012B11DC3B681B69022B06D13B6854
:101230001A7A0F218A4301210A431A723B6801225C
:101240001A603B6801225A6014E03B681B681E2B41
:1012500010DD3B681B691E2B06D13B68197A0F22F3
:101260000A4010210A431A723B681F221A603B6829
:1012700000225A603B685B68002B05DD3B68DB6839
:101280005A1C3B68DA6002E03B680022DA603B6887
:101290001A683B681A613B68DA68054B9A4203DDBD
:1012A0003B68FA22D200DA60BD4602B080BDC0467B
:1012B000CF07000080B586B000AF786039607B68EA
:1012C0007B613B683B617A693B69D318FB607A6953
:1012D0003B69534006D47A69FB68534002D58023AA
:1012E0001B0600E0FB68181CBD4606B080BDC0466A
:1012F00080B586B000AF786039607B687B613B6801
:101300003B617A693B69D31AFB607A693B69534058
:1013100006D57A69FB68534002D580231B0600E09E
:10132000FB68181CBD4606B080BDC04680B584B0C1
:1013300000AF786039607A683B68101C191CFFF7B1
:10134000D7FF031CFB6080231B06FA689A4207D173
:101350007B68002B01DB054B01E080231B0600E0CE
:10136000FB68181CBD4604B080BDC046FFFFFF7F70
:10137000F0B591B000AFF862B962FB6A3B62DB176F
:101380007B62BB6ABB61DB17FB61386A796ABA6949
:10139000FB69FFF73BF9031C0C1CBB63FC63FB6B95
:1013A000DB133B61FB6BDB177B613B697B63FB6B97
:1013B000002B0FDA7B6B013302D080231B0633E056
:1013C000B96BFA6B01235B42DC175B185441BB63BA
:1013D000FC6305E07B6B002B02D080231B0623E01F
:1013E000FB6B1B04BA6B120CBA60B9681943B96085
:1013F000FB6B1B14FB60BB683B63BA6B80231B0257
:10140000111C19403960FA6B0023111C19407960D6
:101410007A6853043968CD0B1D437A68D6132A1CA9
:101420003B6BD3183B633B6B181CBD4611B0F0BD42
:10143000B0B58EB000AF786139613B69002B02D145
:1014400080231B069CE07B69D9175B184B407B63AC
:101450003B69DA179B1853403B630023FB6211235F
:10146000BB623B6B1B0D1B0522D03B6B5B0C01333E
:10147000FB61786BF969FEF7FBFF031CFB62FB6AFB
:10148000BB600023FB603B6B3B6000237B60B86864
:10149000F9683A687B68FFF7B9F8021C0B1CD9039E
:1014A000540C0C435D0C231C7A6BD31A7B6306E04F
:1014B00005E03B6B1B093B63BB6A043BBB623A6BB9
:1014C0000F23134002D1BB6A032BF2DC3CE0786BA4
:1014D000FFF77EF8031C7B627A6ABB6A9A4201DDE1
:1014E000BB6A7B627A6B7B6A111C99400B1C7B6325
:1014F000BA6A7B6AD31ABB62786B396BFEF7B8FFA6
:10150000031CBB617B6B181C396BFEF7F5FF0B1CD2
:101510007B63BA69BB6A111C99400B1CFA6AD31829
:10152000FB6201235A42BB6A111CD9400B1CDB43EE
:10153000BA69134002D080231B0621E07B6B5B005D
:101540007B63BB6A013BBB627B6B002B02D0BB6A37
:10155000002BBCDAFB6A0133FB62FB6A5B083B626F
:101560007A693B6953400AD580231B063A6A9A423E
:1015700002D180231B0603E03B6A5B423B623B6A6D
:10158000181CBD460EB0B0BD80B584B000AF786009
:1015900039607A683B68101C191CFFF749FF031C6F
:1015A000FB6080231B06FA689A420FD17B68DB0F31
:1015B000DAB23B68DB43DB0FDBB25340DBB2002B1C
:1015C00001D0054B03E080231B0600E0FB68181CDC
:1015D000BD4604B080BDC046FFFFFF7F80B500AFB1
:1015E000002002F059FC031C1A1C124B101C191C81
:1015F000FFF702FE002002F0D7FE031C1A1C0E4B60
:10160000101C191CFFF7F8FD002002F051FE031C0E
:101610001A1C0A4B101C191CFFF7EEFD002002F0EB
:1016200085FE031C1A1C064B101C191CFFF7E4FD59
:10163000BD4680BD60FCFF1F4CFCFF1F38FCFF1F38
:1016400024FCFF1F80B500AFE14B1B780933DAB2F1
:10165000DF4B1A70DF4BDB69181C02F061FCDE4BBC
:101660001A7BDB4B1B789A4205D9DA4B1B6A181C94
:1016700001F0FCFD04E0D74B1B6A181C01F0EAFDE9
:10168000D44B5B6A181C01F08DFBD24B5B6A181CB3
:1016900001F094FBD04B5A7CCD4B1B789A4205D974
:1016A000CC4B1B6A181C01F0E1FD04E0C94B1B6A1E
:1016B000181C01F0CFFDC74B5B6A181C01F072FBD0
:1016C000C44B5B6A181C01F079FBC34B1A7CC04BFE
:1016D0001B789A4205D9BF4B1B6A181C01F0C6FD46
:1016E00004E0BC4B1B6A181C01F0B4FDB94B5B6AEB
:1016F000181C01F057FBB74B5B6A181C01F05EFB2E
:10170000B54BDA7BB24B1B789A4205D9B14B1B6AB9
:10171000181C01F0ABFD04E0AE4B1B6A181C01F075
:1017200099FDAC4B5B6A181C01F03CFBA94B5B6A52
:10173000181C01F043FBA84B9A7BA54B1B789A42DF
:1017400005D9A44B1B6A181C01F090FD04E0A14BC5
:101750001B6A181C01F07EFD9E4B5B6A181C01F091
:1017600021FB9C4B5B6A181C01F028FB9A4B5A7BAF
:10177000974B1B789A4205D9964B1B6A181C01F0AF
:1017800075FD04E0934B1B6A181C01F063FD914B3F
:101790005B6A181C01F006FB8E4B5B6A181C01F09B
:1017A0000DFB8D4B9A7C8A4B1B789A4205D9894B4D
:1017B0001B6A181C01F05AFD04E0864B1B6A181CBA
:1017C00001F048FD834B5B6A181C01F0EBFA814B7A
:1017D0005B6A181C01F0F2FA7F4B1A797C4B1B787C
:1017E0009A4205D97B4B1B6A181C01F03FFD04E0AF
:1017F000784B1B6A181C01F02DFD764B5B6A181C98
:1018000001F0D0FA734B5B6A181C01F0D7FA724BE7
:101810005A796F4B1B789A4205D96E4B1B6A181C7C
:1018200001F024FD04E06B4B1B6A181C01F012FD53
:10183000684B5B6A181C01F0B5FA664B5B6A181CB2
:1018400001F0BCFA644B9A79614B1B789A4205D936
:10185000604B1B6A181C01F009FD04E05D4B1B6A1C
:10186000181C01F0F7FC5B4B5B6A181C01F09AFA3C
:10187000584B5B6A181C01F0A1FA574BDA79544BAC
:101880001B789A4205D9534B1B6A181C01F0EEFCD9
:1018900004E0504B1B6A181C01F0DCFC4D4B5B6AEA
:1018A000181C01F07FFA4B4B5B6A181C01F086FA9A
:1018B000494B1A7A464B1B789A4205D9454B1B6A0D
:1018C000181C01F0D3FC04E0424B1B6A181C01F009
:1018D000C1FC404B5B6A181C01F064FA3D4B5B6A2B
:1018E000181C01F06BFA3C4B5A7A394B1B789A4220
:1018F00005D9384B1B6A181C01F0B8FC04E0354BC5
:101900001B6A181C01F0A6FC324B5B6A181C01F024
:1019100049FA304B5B6A181C01F050FA2E4B9A7A48
:101920002B4B1B789A4205D92A4B1B6A181C01F0D5
:101930009DFC04E0274B1B6A181C01F08BFC254B17
:101940005B6A181C01F02EFA224B5B6A181C01F02E
:1019500035FA214BDA7A1E4B1B789A4205D91D4B7A
:101960001B6A181C01F082FC04E01A4B1B6A181C4D
:1019700001F070FC174B5B6A181C01F013FA154B51
:101980005B6A181C01F01AFA144B9B7E002B05D0E1
:10199000104B1B6A181C01F05DFC04E00D4B1B6A28
:1019A000181C01F063FC0B4B5B6A181C01F0FAF980
:1019B000084B5B6A181C01F001FA084B5B7E002B98
:1019C0000ED0044B1B6A181C01F044FC0DE0C0460D
:1019D00001FCFF1F30FDFF1F78FCFF1FBCFDFF1F38
:1019E000594B1B6A181C01F041FC574B5B6A181CD1
:1019F00001F0D8F9544B5B6A181C01F0DFF9534B26
:101A00001B7E002B05D0504B1B6A181C01F022FCDA
:101A100004E04D4B1B6A181C01F028FC4A4B5B6A22
:101A2000181C01F0BFF9484B5B6A181C01F0C6F99D
:101A3000474BDA78474B1B789A4205D9424B1B6AD1
:101A4000181C01F013FC04E03F4B1B6A181C01F04A
:101A500001FC3D4B5B6A181C01F0A4F93A4B5B6A30
:101A6000181C01F0ABF93A4B9A783A4B1B789A4222
:101A700005D9354B1B6A181C01F0F8FB04E0324B0A
:101A80001B6A181C01F0E6FB2F4B5B6A181C01F067
:101A900089F92D4B5B6A181C01F090F92C4B5A7890
:101AA0002C4B1B789A4205D9274B1B6A181C01F056
:101AB000DDFB04E0244B1B6A181C01F0CBFB224B1E
:101AC0005B6A181C01F06EF91F4B5B6A181C01F071
:101AD00075F91F4B1A781F4B1B789A4205D91A4B80
:101AE0001B6A181C01F0C2FB04E0174B1B6A181C90
:101AF00001F0B0FB144B5B6A181C01F053F9124B58
:101B00005B6A181C01F05AF9104BDB7E002B05D0E4
:101B10000D4B1B6A181C01F09DFB04E00A4B1B6A6D
:101B2000181C01F0A3FB084B5B6A181C01F03AF982
:101B3000054B5B6A181C01F041F9034BDB69181C6B
:101B400002F0FAF9BD4680BD30FDFF1FBCFDFF1F4E
:101B500078FCFF1F01FCFF1F80B582B000AFFFF7CC
:101B60003DFD464B1B685A1C444B1A60444B1B6896
:101B70005A1C434B1A60424B1A680123134002D08F
:101B8000012B6AD074E03F4A3F4B101C191CFEF732
:101B900051FF3C4BDA683D4B1A603C4B1B68002000
:101BA000191CFFF705FA00237B6020E0354920234C
:101BB0007A688A18D3181A7835497B68CB181A7056
:101BC000344A7B68D3181A7831497B68CB181B7864
:101BD0009A4209D22B4920237A688A18D3181A7896
:101BE0002C497B68CB181A707B6801337B607B685B
:101BF0000C2BDBDD00233B602BE0254A3B68D31830
:101C00001A7824493B68CB181B789A420AD9214A92
:101C10003B68D3181B780133DAB21E493B68CB18F6
:101C20001A7013E01A4A3B68D3181A7819493B68AE
:101C3000CB181B789A4209D2164A3B68D3181B78F6
:101C4000013BDAB213493B68CB181A703B68013389
:101C50003B603B68132BD0DD0AE00A4B1A690E4B40
:101C60001A600D4B1B680120191CFFF7A1F9C04633
:101C7000FFF7E8FCBD4602B080BDC046A0FCFF1FD8
:101C800074FCFF1FBCFDFF1FB4FDFF1FA4FCFF1F62
:101C90008CFCFF1F78FCFF1FA8FCFF1F80B582B0E3
:101CA00000AF78607B68012B0DD0022B15D0002B84
:101CB0001DD1104B0022DA730E4B00229A730D4B8C
:101CC000FF225A7313E00B4B0022DA73094BFF22F9
:101CD0009A73084B00225A7309E0064BFF22DA730D
:101CE000044B00229A73034B00225A73C046BD4630
:101CF00002B080BD8CFCFF1F80B582B000AF786061
:101D00007B68002B08D0012B0DD1084BFF221A74E1
:101D1000064B00225A7406E0044B00221A74034B4F
:101D2000FF225A74C046BD4602B080BD8CFCFF1F26
:101D300080B582B000AF00201021FFF7CDF902235B
:101D40007B60054A7B680120111C1A1CFFF7FEF915
:101D5000BD4602B080BDC046B4FDFF1F90B583B044
:101D600000AFFC1D0020FFF79FF9031C2370FB1D33
:101D70001B78102B0DD102233B60084A3B680120E1
:101D8000111C1A1CFFF7BCF9044B181CFEF728FEA7
:101D900001E0FFF7CDFFBD4603B090BDB4FDFF1FCE
:101DA00080B500AF054B5B78181CFFF7A5FF034B10
:101DB0001B78181CFFF772FFBD4680BDB4FDFF1FE6
:101DC00080B582B000AF78600D4B1B68012B00D14D
:101DD00012E07B685A1E1343DB0FDBB21A1C094961
:101DE000094B081C111C1A1CFEF7BCFD7B68002B5C
:101DF00002D1064BFF229A74BD4602B080BDC04698
:101E0000ACFCFF1FBCFDFF1FB4FDFF1F78FCFF1FD4
:101E100080B586B000AF01F0E9F8894B181CFEF7D9
:101E200017FC884A884B101C191CFEF7CDFDFFF7E4
:101E300095FF00237B6107E0844A7B69D318FF226A
:101E40001A707B6901337B617B69112BF4DD804B58
:101E50009B68181C02F0A6FB012000F01FFB00206D
:101E600000F0C8FA00233B611DE00023FB6011E095
:101E70003A69FB689A4205D1764AFB68D318FF227B
:101E80001A7004E0734AFB68D31800221A70FB68CA
:101E90000133FB60FB680C2BEADD282002F0FCFB21
:101EA0003B6901333B613B690C2BDEDD0023BB60EA
:101EB00007E0664ABB68D31800221A70BB6801337A
:101EC000BB60BB68112BF4DD8C2002F0E5FBFFF753
:101ED000B9FB01237B60FFF763FFFFF7B3FBFB1C3C
:101EE00000221A705C4B181CFFF756F9031C002BDC
:101EF0000FD001237B60544B1B780133181C032146
:101F0000FEF75AFB0B1CDAB24F4B1A70FB1C012276
:101F10001A70524B181CFFF73FF9031C002B12D00C
:101F200001237B60484B5B785A1C4D4B134004D512
:101F3000013B0222524213430133DAB2424B5A7040
:101F4000FB1C01221A70474B181CFFF725F9031CD4
:101F5000002B0FD0444B01221A60394A3A4B101C17
:101F600001211A1CFEF7FEFC384BFF229A74394BF4
:101F7000FF229A743B4B181CFFF726F9031C002B19
:101F80000CD0394B00221A60304B00229A742C4A34
:101F90002D4B101C00211A1CFEF7E4FC334B1B6870
:101FA000012B05D1314B00221A60002000F022FAEB
:101FB0002F4B1B681B129BB2DB439AB2204B1A803B
:101FC0002B4B5B681B129BB2DB439AB21C4B5A80B3
:101FD000274B9B681B129BB2DB439AB2184B9A802B
:101FE000234BDB681B129BB2DB439AB2144BDA80A3
:101FF0001F4B1B691B129BB2DB439AB2104B1A8119
:102000001B4B5B691B12DBB2DB43DAB20C4BDA729F
:102010007B68012B01D1FFF7C3FEFB1C1B78012B52
:102020000CD1144B1B68092B08DDFFF781FEFB1C4C
:1020300000221A700F4B00221A6053E752E7C04685
:10204000BCFDFF1F3CFEFF1FB4FDFF1F8CFCFF1FEC
:1020500030FDFF1F78FCFF1F38FCFF1F24FCFF1F13
:10206000010000804CFCFF1FACFCFF1F20FCFF1F89
:1020700024FEFF1FA0FCFF1F80B582B000AF786078
:102080003960BD4602B080BD80B58AB000AFF8604F
:10209000B9607A607B687B6204233B620323FB6147
:1020A0000223BB6101237B6101233B61FA68BB68AA
:1020B0009A4202D07B68002B00D14DE049E0FB69D9
:1020C000BA68134018D1FB69FA68134014D13A6A10
:1020D0007B6A9A4210D8FB68BA6812681A603B6A39
:1020E000FA68D318FB603B6ABA68D318BB603B6AD6
:1020F0007A6AD31A7B622CE07B69BA68134018D1E4
:102100007B69FA68134014D1BA697B6A9A4210D885
:10211000FB68BA6812881A80BB69FA68D318FB603A
:10212000BB69BA68D318BB60BB697A6AD31A7B6291
:102130000FE0FB68BA6812781A703B69FA68D31826
:10214000FB603B69BA68D318BB603B697A6AD31AF3
:102150007B627B6A002BB2D1BD460AB080BDC0460F
:1021600090B583B000AF2D4B002B00D153E000237E
:102170007B6032E029497A68131C5B009B189B0046
:10218000CB18586825497A68131C5B009B189B0084
:102190005958224C7A68131C5B009B189B00E3186B
:1021A00008331B681A1CFFF76FFF1C497A68131C61
:1021B0005B009B189B00CB18596818487A68131C61
:1021C0005B009B189B00C31808331B68081C191C74
:1021D000FFF752FF7B6801337B6010497A68131C5C
:1021E0005B009B189B005B58002BC3D10B497A689E
:1021F000131C5B009B189B00CB185B68002BB9D1AC
:1022000006497A68131C5B009B189B00CB180833A7
:102210001B68002BAED1BD4603B090BD2C4700001B
:1022200080B588B000AF274A274BD31AFB61264BF5
:10223000BB6104237B6103233B610223FB60012319
:10224000BB6001237B60FB69002B00D136E032E0EC
:102250003B69BA6913400FD17A69FB699A420BD87E
:10226000BB6900221A607B69BA69D318BB617B69BC
:10227000FA69D31AFB611EE0BB68BA6913400FD13B
:10228000FA68FB699A420BD8BB6900221A80FB6886
:10229000BA69D318BB61FB68FA69D31AFB610AE01B
:1022A000BB6900221A707B68BA69D318BB617B686E
:1022B000FA69D31AFB61FB69002BC9D1BD4608B08E
:1022C00080BDC04678FEFF1F04FCFF1F80B500AF35
:1022D000BD4680BD80B500AFBD4680BD80B582B033
:1022E00000AF0E4B7B60FFF7F1FF00F001FE7B6853
:1022F000181C002805D0854681B00020C0430090FE
:1023000001B0FFF78DFFFFF72BFFFFF7E3FF044B53
:102310000020191CFFF77CFDFEE7C046000C0020E2
:10232000B0FCFF1F80B500AF094B00221A80084B9C
:1023300000225A80064B00229A80054B0022DA8048
:10234000034B00221A81024B00225A81BD4680BDF8
:1023500060FEFF1F80B500AF1F4B1B78DBB2002B68
:1023600038D01D4B1B78DBB2032B0BD01B4B00224C
:102370001A701B4B00221A70FFF7D4FF194B002272
:102380001A701AE0164B1B78DBB2174AD35CDB439A
:10239000DBB2124A1278D2B21340DAB20F4B1A7083
:1023A0000F4B1B78DBB21A1C104B52000021D1528C
:1023B0000B4B1B78DAB20B4B1A700D4B1A68094B9A
:1023C000101C191C012200F0DDF9094B1B68181CB8
:1023D00000F0B6F9BD4680BDD9FCFF1FE4FCFF1F2D
:1023E000D8FCFF1FDCFCFF1FF846000060FEFF1F4B
:1023F0006CFEFF1F80B582B000AF021CFB1D1A707F
:102400000D4B1B78DBB2002B01D008230FE00A4BE9
:1024100001221A70FFF79EFFFB1D1B78002B05D0D1
:10242000C046054B1B78DBB2012BFAD00023181CE9
:10243000BD4602B080BDC046D9FCFF1F80B582B04A
:1024400000AF021C3960FB1D1A70FB1D1B78052BA9
:1024500001D9022317E0FB1D1B780D4AD35C0D4AFE
:102460001278D2B21340DBB2002B01D109230AE06B
:10247000FB1D1A78084B5200D35A9BB21B019AB22B
:102480003B681A800023181CBD4602B080BDC046C0
:10249000F8460000E4FCFF1F60FEFF1F80B582B01D
:1024A00000AF021CFB1D1A701A4B1B78DBB2002B0D
:1024B00001D0082329E0174B04221A70164B1B6821
:1024C000181C00F0C5F9144B1B68181C00F002FA28
:1024D000FB1D1B78002B01D1002316E0C0460E4BDC
:1024E0001B68181C00F0B4F9031C002BF7D00A4B32
:1024F0001B68181C00F012FA031C002B04D0054BBB
:1025000000221A701B2300E00023181CBD4602B0F5
:1025100080BDC046D9FCFF1F6CFEFF1F80B582B096
:1025200000AF7860354B1B78DBB2042B0AD1344BFB
:102530001B68181C00F0F2F9304B00221A70FEF7ED
:1025400015FD58E02D4B1B78DBB2032B36D02C4BFE
:102550001A682C4B1B78DBB259002B4BCB18101C84
:10256000191C00F045F9274B1B78DBB20133DAB2B6
:10257000244B1A70234B1B78DBB2062B0BD1214B5B
:1025800000221A70214B3F221A70FEF7CBFC1B4B26
:1025900000221A702FE01B4B1B78DAB21C4B1A700A
:1025A000174B1A681A4B101C191C012200F0EAF88C
:1025B000134B1B68181C00F0C3F81CE0104B1A6882
:1025C000104B1B78DBB259000F4BCB18101C191C99
:1025D00000F00EF90B4B1B78DBB20E4AD25C0B4BB2
:1025E0001B78DBB21343DAB2084B1A70FEF79AFC81
:1025F000024B00221A70BD4602B080BDD9FCFF1FFD
:102600006CFEFF1FD8FCFF1F60FEFF1FE4FCFF1FD6
:10261000DCFCFF1FF846000080B500AF064B00222F
:102620001A70064B00221A70002000F00BF8021CF2
:10263000034B1A60BD4680BDE4FCFF1FD9FCFF1FA1
:102640006CFEFF1F80B584B000AF7860324BFB603A
:10265000FB687A685A60314BFA681A60FB6800229E
:102660001A70FB6800229A702D4A2D492D4BCB58C9
:102670008021090519432B4BD1502B4A2A49C323EA
:102680009B00CB581B021B0A802109061943C32358
:102690009B00D150244B244A1268802109020A432E
:1026A0001A60224B214A516B214A0A405A631F4B40
:1026B0001E4A91681E4A0A409A601E4B1D4A116AC2
:1026C0001B4A0A401A621B4B1A4A516A184A0A40AE
:1026D0005A62164B154AD16A154A0A40DA62154BFE
:1026E000144A116B124A0A401A63134B57229A601C
:1026F000114B114AD2680F218A43DA600E4B002237
:102700001A620D4B40225A620C4BFA68DA60FB6881
:10271000181CBD4604B080BDE8FCFF1FF0FCFF1F85
:10272000007004403C10000000E100E000A0044004
:10273000FFF8FFFE0090044000B0034030FDFF1F93
:1027400080B582B000AF78600D4B1A6A80231340C9
:1027500001D0082310E00A4B094A526A48218A43F3
:102760005A62074B064A126A40218A431A62044B96
:102770007A6852781A600023181CBD4602B080BDEA
:1027800000B0034080B586B000AFF860B960FB1DB3
:102790001A70FB687B61FB1D1B78012B03D8FB1DA6
:1027A0001B78002B01D196231AE00F4B1A6A802365
:1027B000134001D0082313E07B69FA1D12781A70C8
:1027C000BB681B78052B01D9822309E0BB681B7805
:1027D000064AD35C40221343DAB27B695A70002365
:1027E000181CBD4606B080BD00B003400047000085
:1027F00080B584B000AF786039603B68BB603B1C3B
:102800000F3300221A7015E03B1C0F331B785B005E
:10281000BA68D3180D4A391C0F3109780431890080
:102820008A5892B21A803B1C0F331A783B1C0F3324
:1028300001321A707B681B783A1C0F3212789A4268
:10284000E2D30023181CBD4604B080BD00B0034095
:1028500080B584B000AF78607B68FB603B1C0A33B6
:10286000EFF3108072B61870184B1B78DBB201338F
:10287000DBB2164A191C1170012B04D13B1C0A3320
:102880001A78134B1A703B1C0B33FA6892781A7043
:10289000FB6800229A700D4B1B78DBB2013BDBB268
:1028A0000A4A191C1170002B03D1094B187880F3C8
:1028B00010883B1C0B331B78002B01D0012300E058
:1028C0000023181CBD4604B080BDC04600FDFF1F9C
:1028D00076FEFF1F80B582B000AF78600E4B1A6A9B
:1028E0008023134001D0082311E00B4B0A4A126ADF
:1028F00040218A431A62084B5F221A60064B064A3F
:10290000526AC0218A4380210A435A620023181C5C
:10291000BD4602B080BDC04600B0034080B584B063
:1029200000AF7860184B5A6A4023134001D01B2334
:1029300025E0154BDB6CFB60134B9B6CFA68D318DE
:10294000FB60114B5B6CFA68D318FB600E4B1B6C81
:10295000FA68D318FB600C4BDB6BFA68D318FB608A
:10296000094B9B6BFA68D318FB60FB685B088022FD
:1029700012021343FB60044BFA68DA620023181C4E
:10298000BD4604B080BDC04600B0034080B582B0F3
:1029900000AF084B1B687B607B6801229A707B68E4
:1029A0005B68181CFFF7BAFD034B1B69BD4602B0FC
:1029B00080BDC046F0FCFF1F00B0034090B587B05B
:1029C00000AFF8607A603B1C0A330A1C1A803B1C7B
:1029D000163300221A803B1C0A331B88002B04D1BB
:1029E0007B6800221A80002381E0434B19683C1C5D
:1029F0001234FA683B1C0A331B88081C111C1A1C71
:102A0000002300F0D1FF031C23803B1C12331B88E2
:102A1000082B01D10C236AE03B1C143300221A80DE
:102A20002DE0354B1B68181C00F0D8FD324B1B689D
:102A3000181C01F063F8031C002B00D025E02E4B7E
:102A40001B68181C01F074F8031C3A1C163212881B
:102A50009A420DD03B1C1433012252421A80264B5D
:102A60001B683C1C1634181C01F062F8031C238000
:102A70003B1C14331A883B1C143301321A803B1C54
:102A800014331A881D4B9A42CBD91B4B1B68181C58
:102A900001F04EF8031C1A1C7B681A80164B1A684A
:102AA0003B1C1033101C191C01F09EF93B1C103309
:102AB0001B88002B11D03B1C10331B881A1C0823C9
:102AC000134001D0082312E03B1C10331B881A1C52
:102AD0000423134001D0152309E03B1C14331A884A
:102AE000FA23DB009A4201D10C2300E00023181CDA
:102AF000BD4607B090BDC04670FEFF1FCF07000067
:102B000090B589B000AFF8607A603B1C0A330A1CAC
:102B10001A803B1C1E3300221A803B1C0A331B8880
:102B2000002B04D17B6800221A800023A2E0534BC3
:102B300019683C1C1A34FA683B1C0A331B88081CB1
:102B4000111C1A1C012300F0FDFF031C23803B1CF9
:102B50001A331B88082B01D10C238BE03B1C1C3340
:102B600000221A802DE0454B1B68181C00F036FD32
:102B7000424B1B68181C01F08FF8031C002B00D07F
:102B800025E03E4B1B68181C01F0A4F8031C3A1CFE
:102B90001E3212889A420DD03B1C1C330122524235
:102BA0001A80364B1B683C1C1E34181C01F092F82E
:102BB000031C23803B1C1C331A883B1C1C33013232
:102BC0001A803B1C1C331A882D4B9A42CBD92B4BB5
:102BD0001B68181C01F07EF8031C1A1C7B681A8005
:102BE000264B1A683B1C1833101C191C01F0FCF80A
:102BF0003B1C18331B88002B11D03B1C18331B883F
:102C00001A1C0823134001D0082333E03B1C18335F
:102C10001B881A1C0423134001D015232AE03B1CF7
:102C20001C331A88FA23DB009A4201D10C2321E0DD
:102C30003B1C1C3300221A8015E0104B1A683B1C09
:102C40001733101C191C01F0E3F83B1C17331B78D9
:102C5000012B01D100230DE03B1C1C331A883B1CC7
:102C60001C3301321A803B1C1C331A88044B9A42D5
:102C7000E3D90C23181CBD4609B090BD70FEFF1FA0
:102C8000CF07000080B582B000AF184B174A92788A
:102C9000D2B220218A43D2B29A70144B134A92784E
:102CA000D2B210218A43D2B29A70BB1DFA22D2004E
:102CB0001A8011E00E4B1A687B1D101C191C01F0C4
:102CC000A7F87B1D1B78012B01D1002309E0BB1D58
:102CD0001A88BB1D013A1A80BB1D1B88002BE9D145
:102CE0000C23181CBD4602B080BDC04600600640E3
:102CF00070FEFF1F80B582B000AF021CFB1D1A7072
:102D0000094B1A68FB1D1B7899B27F230B409BB2BD
:102D1000101C00211A1C00F0E7FF031CDBB2181C7A
:102D2000BD4602B080BDC04670FEFF1F80B500AF3B
:102D3000002000F0C7FD021C014B1A60BD4680BD9B
:102D400070FEFF1F80B584B000AF7860104BFB6051
:102D5000FB687A681A600F4B0E4A526940210A4399
:102D60005A610C4B0B4A126840218A431A600A4B85
:102D7000094A9169094A0A40802149000A439A6137
:102D8000074BFA685A62FB68181CBD4604B080BD48
:102D9000F4FCFF1F40F00F4000A00440FFF8FFFECE
:102DA00030FDFF1F80B582B000AF7860024B40223B
:102DB0009A60BD4602B080BD40F00FF880B582B089
:102DC00000AF7860024B40225A60BD4602B080BD21
:102DD00040F00FF880B584B000AF78601A4BFB600C
:102DE000FB687A681A60194BFA681A60184B184A1F
:102DF0005168184A0A40802149000A435A60144B1E
:102E0000134A5168144A0A4014490A435A60144A42
:102E10001349C7239B00CB581B021B0A80210906BC
:102E20001943C7239B00D1500D4B0D4A12688021D6
:102E300009060A431A600B4BFA685A61FB68181CB2
:102E4000BD4604B080BDC046F8FCFF1FFCFCFF1F60
:102E500000A00440FFF8FFFEFFFFF0FE00000B01A2
:102E600000E100E030FDFF1F80B582B000AF0C4BE9
:102E70001B687B600B4B5A6880235B0413400BD0AC
:102E8000084B084A5268802149040A435A607B680B
:102E90001B68181CFEF76EF8BD4602B080BDC04628
:102EA000FCFCFF1F00A0044080B582B000AF78603A
:102EB000054B1A690223134001D0012300E00023CF
:102EC000181CBD4602B080BD40F00F4080B500AF79
:102ED000FFF7CAFFBD4680BD80B500AFFEF706F81C
:102EE000BD4680BD80B500AFFFBEBD4680BDC046BB
:102EF00080B500AF324A3349334BD150334A88232F
:102F00005B010021D150314A314BC0218902D1509F
:102F10002E4A2E492F4BCB58C021C90019432D4BA7
:102F2000D1502D4B9B78DBB21A1C0823134007D0DD
:102F3000294B294A9278D2B208210A43D2B29A7018
:102F4000224A234B80214902D150204A1F49234B5A
:102F5000C958234B0B408021490419431F4BD150C2
:102F6000204B06221A701F4B1E4A5278D1B24022C3
:102F70000A40D2B25A701B4B1A4AD278D2B2D2B29D
:102F8000111C1F220A40D2B2602149420A43D2B228
:102F9000D2B2DA70144B80221A70C046114B9B7962
:102FA000DBB21A1C10231340F8D0C0460D4B9B799E
:102FB000DBB21A1C0C231340F8D1BD4680BDC046BD
:102FC00000E000E000000000080D00000070044078
:102FD000441000003810000000D00740041000002A
:102FE000FFFFFFFC004006400050064080B500AFE8
:102FF000524B524A5279D2B21F218A43D2B25A71ED
:103000004E4B4E4A1279D2B207218A43D2B21A717C
:103010004B4B4B4A1278D2B2D2B273218A43D2B20E
:1030200050210A43D2B2D2B21A70454B444A527868
:10303000D2B2D2B263218A43D2B240210A43D2B281
:10304000D2B25A703E4B3E4A9278D2B219218A438C
:10305000D2B29A703B4B00221A703B4B3A4AD1686D
:103060003A4A0A4002210A43DA60374B364A11696C
:10307000364A0A4002210A431A61334B324A116B25
:10308000324A0A4002210A431A63314A3049C723AF
:103090009B00CB581B04190CC7239B00D1502D4B10
:1030A0002C4A526902218A435A612B4B2A4A916A5F
:1030B000264A0A4002210A439A62234B224A516857
:1030C000264A0A40C02189000A435A60204A204902
:1030D000C1239B00C958224B1940C1239B00D150EA
:1030E000002000F06DFF002001F034FAFFF794FAA1
:1030F00000F02EFF002000F035F80020FFF76AFEF8
:10310000002001F0A9F8002000F0DAFE002000F015
:1031100071F80020FFF716FE002001F01BF90020D7
:1031200001F0DAF800F02EFFFFF700FE00F00EFAD3
:10313000002000F087FE62B6BD4680BD00F007406B
:1031400000D0074000E0074000900440FDFFFFFE74
:1031500000E100E040F00F4000A00440FFF8FFFE57
:10316000FFFF00FF80B584B000AF7860104BFB60BC
:10317000FB687A681A600F4B0E4A526920210A4395
:103180005A610C4B0B4A126820210A431A600A4B01
:10319000094A5169094A0A40802149000A435A6193
:1031A000074BFA681A61FB68181CBD4604B080BD65
:1031B00004FDFF1F00F00F4000900440FFF8FFFEE9
:1031C00030FDFF1F80B582B000AF7860024B202237
:1031D0009A60BD4602B080BD00F00FF880B582B0A5
:1031E00000AF7860024B20225A60BD4602B080BD1D
:1031F00000F00FF880B584B000AF7860104BFB6032
:10320000FB687A681A600F4B0E4A526980210A43A4
:103210005A610C4B0B4A126880218A431A600A4B90
:10322000094AD169094A0A40802149000A43DA6102
:10323000074BFA681A62FB68181CBD4604B080BDD3
:1032400008FDFF1F40F00F4000A00440FFF8FFFE04
:1032500030FDFF1F80B582B000AF7860024B802246
:103260009A60BD4602B080BD40F00FF880B582B0D4
:1032700000AF7860024B80225A60BD4602B080BD2C
:1032800040F00FF890B585B000AF0A1CBB1D011CC3
:1032900019807B1D1A70BB1D1B881B0A9BB2DBB2F9
:1032A0001A1C07231340DBB250221343DBB2DBB2FC
:1032B0003C1C0F34181C00F0B7F8031C23703B1C97
:1032C0000F331B78002B05D000F0C4F83B1C0F33E4
:1032D0001B7846E0BB1D1B88DAB23B1C0C331A700E
:1032E0003B1C0C337A1D12785A703C1C0F343B1C6B
:1032F0000C33181C0221002200F0EAF8031C237092
:103300003B1C0F331B78002B05D000F0A3F83B1CAF
:103310000F331B7825E03B1C0C33FF221A70002072
:1033200001F0BAF93C1C0F343B1C0C33181C012172
:103330000022642300F00EF9031C23703B1C0F33A2
:103340001B78002BEBD13B1C0F331B78002B05D0D7
:1033500000F080F83B1C0F331B7802E000F07AF895
:10336000031C181CBD4605B090BDC04690B585B085
:1033700000AF021C3960BB1D1A80BB1D1B88DAB26E
:103380003B1C0E331A70BB1D1B881B0A9BB2DBB2A1
:103390001A1C07231340DBB250221343DBB2DBB20B
:1033A0003C1C0F34181C00F03FF8031C23703B1C1E
:1033B0000F331B78002B05D000F04CF83B1C0F336B
:1033C0001B782DE03C1C0F343B1C0E33181C0121D4
:1033D000012200F07DF8031C23703B1C0F331B7887
:1033E000002B05D000F036F83B1C0F331B7817E09C
:1033F0003C1C0F343B68181C0121002200F030F8FF
:10340000031C23703B1C0F331B78002B05D000F0EE
:1034100021F83B1C0F331B7802E000F01BF8031C63
:10342000181CBD4605B090BD80B582B000AF021C2F
:10343000FB1D1A70FB1D1B78181CFFF75BFC031C9F
:10344000002B01D01B2300E00023181CBD4602B056
:1034500080BDC04680B500AF0023181CBD4680BDAE
:1034600090B585B000AF7860BB1C19807B1C1A70CA
:103470003B1C0F3300221A703C1C0F347968BB1CB4
:103480001A883B1C0C33081C111C1A1CFFF738FB54
:10349000031C23703B1C0F331B78002B00D010E063
:1034A0007B1C1B78002B0BD13C1C0F34FFF7EAFB75
:1034B000031C23703B1C0F331B78002B00D000E053
:1034C000C0463B1C0F331B78181CBD4605B090BD91
:1034D00090B585B000AF7860BB1C19807B1C1A705A
:1034E0003B1C0F3300221A703C1C0F347968BB1C44
:1034F0001A883B1C0C33081C111C1A1CFFF75EFABF
:10350000031C23703B1C0F331B78002B02D0FFF7EA
:10351000B9FB14E07B1C1B78002B03D07B1C1B78B1
:10352000022B0BD13C1C0F34FFF7ACFB031C2370A8
:103530003B1C0F331B78002B00D000E0C0463B1C27
:103540000F331B78181CBD4605B090BD80B500AF89
:10355000BD4680BD90B587B000AFF860081C111C57
:103560001A1C3B1C0A3318803B1C09331970BB1D05
:103570001A803B1C173300221A703C1C1734F96860
:103580003B1C0A331A883B1C1433081C111C1A1CE0
:10359000FFF714FA031C23703B1C17331B78002B16
:1035A00002D0FFF76FFB11E03B1C09331B78002BA7
:1035B0000BD13C1C1734FFF765FB031C23703B1C2D
:1035C00017331B78002B00D000E0C0463B1C17339C
:1035D0001B78181CBD4607B090BDC04690B585B09D
:1035E00000AF78607B68BB603B1C0E3300221A8002
:1035F000B34BDB78DBB21A1C0223134000D15BE132
:10360000AF4BDB78DCB2AE4BAD4AD278D2B2D2B29D
:1036100012218A43D1B2E2B20A43D2B2D2B2DA70F4
:10362000A74B9B78DBB21A1C2023134000D111E179
:10363000A34B9B78DBB21A1C1023134000D1C0E0CF
:10364000221C012313402CD09D4B9D4A9278D2B26C
:1036500020218A43D2B29A70994B994A9278D2B279
:1036600010218A43D2B29A70BB6800221A82BB68CA
:1036700000221A81BB681B7801229343DAB2BB682F
:103680001A70BB681B7806221343DAB2BB681A7043
:103690003B1C0E333A1C0E32128808210A431A8052
:1036A000FCE0BB681B781A1C0223134000D17CE0AD
:1036B000BB681B8A002B14D0BB681B8A013B9AB2E3
:1036C000BB681A82BB685B8A01339AB2BB685A82B4
:1036D0007B49BB685B69581CBA6850611B780B71E9
:1036E000DCE0BB681B89002B3CD0BB681B781A1C34
:1036F000042313401FD0BB681B89012B08D1704BDA
:103700006F4A9278D2B208210A43D2B29A7007E087
:103710006B4B6B4A9278D2B208218A43D2B29A702C
:10372000674B674A9278D2B210218A43D2B29A701C
:10373000634B1B79B2E0624B614A9278D2B20421AA
:103740000A43D2B29A705E4BBA68D27901210A4319
:10375000D2B21A71BB681B7804221343DAB2BB6879
:103760001A709BE0BB681B7801229343DAB2BB68F6
:103770001A70BB689B78012B0FD1514B504A92783D
:10378000D2B220218A43D2B29A704D4B4C4A9278E1
:10379000D2B210218A43D2B29A70BB685B78012200
:1037A0001343DAB2BB685A7078E0454BBA68927935
:1037B0001A71BB681B7802221343DAB2BB681A7015
:1037C0006CE0BB681B89013B9AB2BB681A81BB687D
:1037D0005B8901339AB2BB685A81BB681B89002B95
:1037E0000CD0BB681B89012B1FD1354B344A927812
:1037F000D2B208210A43D2B29A7016E0BB681B7895
:1038000001229343DAB2BB681A702D4B2C4A92788E
:10381000D2B220218A43D2B29A70294B284A927898
:10382000D2B208218A43D2B29A70BB68DB68591CB5
:10383000BA68D160224A1279D2B21A70BB681B8969
:10384000002B2BD1BB685B7802221343DAB2BB6832
:103850005A7023E0221C102313401FD0BB680022A3
:103860001A82BB6800221A81BB6801229A70BB6869
:103870001B7801229343DAB2BB681A70104B104ACE
:103880009278D2B210218A43D2B29A703B1C0E3386
:103890003A1C0E32128804210A431A803B1C0E3354
:1038A0001B88002B08D0BB689A883B1C0E331B88F2
:1038B00013439AB2BB689A80BD4605B090BDC0461E
:1038C0000060064080B584B000AF78602F4BFB608D
:1038D000FB687A689A61FB6820221A70FB681022E4
:1038E0009A71FB6801229A70FB6800225A81FB687A
:1038F00000221A81FB6800225A82FB6800221A8289
:10390000FB6800225A70FB6800229A80204A2049F6
:10391000204BCB58402119431E4BD1501E4B002247
:103920009A701D4B50229A711B4B0222DA701B4B6E
:103930001A4A11691A4A0A40802189000A431A6109
:10394000164B164AD168164A0A40802189000A435C
:10395000DA60114B00225A710F4B00229A710E4B04
:103960002D225A700C4B0C4A9278D2B2D2B28021DE
:1039700049420A43D2B2D2B29A700A4BFA681A6329
:10398000FB68181CBD4604B080BDC0460CFDFF1F7F
:1039900000700440341000000060064000A00440A5
:1039A000FFF8FFFE30FDFF1F80B586B000AFF86066
:1039B000B960111C1A1CBB1D19807B1D1A70FB6895
:1039C0007B61BB1D1B88002B01D1002390E07B692C
:1039D0009B78012B12D1484BDB78DBB21A1C2023D9
:1039E000134009D17B691B781A1C0123134003D1B2
:1039F0007B691B8A002B0DD0082379E07B691B783B
:103A00001A1C0123134003D17B691B8A002B01D0B0
:103A100008236DE07B691B7801221343DAB27B69CE
:103A20001A707B69BA685A617B6900225A827B6985
:103A3000BA1D12881A827B697A1D12789A702E4BF1
:103A40002D4A9278D2B2D2B210210A43D2B2D2B267
:103A50009A70294B9B78DBB21A1C2023134008D0A4
:103A6000254B254A9278D2B204210A43D2B29A70E9
:103A700009E0214B204A9278D2B2D2B220210A43E7
:103A8000D2B2D2B29A707B691B781A1C20231340E1
:103A90000BD07B691B7806221343DAB27B691A705C
:103AA000154B7A6992791A7121E07B691B781A1C8F
:103AB000102313400BD07B691B7806229343DAB2A4
:103AC0007B691A700C4B7A69D2791A710FE07B69A5
:103AD0001B781A1C0823134009D07B691B7802222B
:103AE0001343DAB27B691A70034B00221A71002368
:103AF000181CBD4606B080BD0060064080B584B08D
:103B000000AF78603B1C0F337A6852781A707B687C
:103B10005B7801229343DAB27B685A703B1C0F3307
:103B20001A7801231340DBB2181CBD4604B080BDD7
:103B300080B582B000AF78607B685B8A181CBD4698
:103B400002B080BD80B586B000AFF860B960111CCE
:103B50001A1CBB1D19807B1D1A70FB687B61BB1D85
:103B60001B88002B01D1002390E07B1D1B78002BCC
:103B700001D181238AE07B691B781A1C082313403A
:103B800001D0092382E07B699B78012B12D1414B44
:103B9000DB78DBB21A1C2023134009D17B691B7828
:103BA0001A1C0123134003D17B691B89002B0DD004
:103BB00008236BE07B691B781A1C0123134003D197
:103BC0007B691B89002B01D008235FE07B691B7890
:103BD00001221343DAB27B691A707B69BA68DA6032
:103BE0007B6900225A817B69BA1D12881A817B6920
:103BF0007A1D12789A70274B264A9278D2B2D2B2A6
:103C000010210A43D2B2D2B29A70224B9B78DBB217
:103C10001A1C2023134008D01E4B1E4A9278D2B2A1
:103C200004210A43D2B29A7009E01A4B194A9278D9
:103C3000D2B2D2B220210A43D2B2D2B29A707B69F8
:103C40001B781A1C202313400ED07B691B78062298
:103C50001343DAB27B691A700E4B7A6992790121AB
:103C60000A43D2B21A7110E07B691B781A1C102328
:103C700013400AD07B691B7806229343DAB27B6932
:103C80001A70044B7A69D2791A710023181CBD4648
:103C900006B080BD0060064080B584B000AF78609B
:103CA0003B1C0F337A6852781A707B685B7802226B
:103CB0009343DAB27B685A703B1C0F331A780223A5
:103CC000134001D0012300E00023181CBD4604B0BE
:103CD00080BDC04680B582B000AF78607B685B89EC
:103CE000181CBD4602B080BD80B584B000AF7860BE
:103CF000FB1C19703B1C1A807B68FB60FB681B78FF
:103D00001A1C0123134001D0082366E0FB1C1B781A
:103D1000012B1FD0022B4ED0002B5BD13B1C1B88EC
:103D20007F2B01D9892358E03B1C1B88DBB2DB18B1
:103D3000DAB2FB689A71FB681B7818229343DAB2F7
:103D4000FB681A70FB681B7820221343DAB2FB6809
:103D50001A7041E03B1C1A88224B9A4201D98923F0
:103D60003BE03B1C1B88DAB2FB689A713B1C1B884A
:103D7000DB099BB2DAB2FB68DA71FB68DA790623F9
:103D80001340DAB2FB68DA71FB68DB791022524229
:103D90001343DAB2FB68DA71FB681B78282293437D
:103DA000DAB2FB681A70FB681B7810221343DAB290
:103DB000FB681A7010E0FB681B7830229343DAB27C
:103DC000FB681A70FB681B7808221343DAB2FB68A1
:103DD0001A7001E08D2300E00023181CBD4604B0DA
:103DE00080BDC046FF03000080B584B000AF78609E
:103DF00039607B68FB60FB689A883B681A80FB68C7
:103E000000229A800023181CBD4604B080BDC04625
:103E100080B584B000AF786039607B68FB60084B88
:103E2000DB78DBB21A1C202313405A425341DBB229
:103E3000DAB23B681A700023181CBD4604B080BD7E
:103E40000060064080B584B000AF78600D4BFB6029
:103E5000FB687A681A600C4B0B4A526940218A430E
:103E60005A610A4B094A9169094A0A40802149006E
:103E70000A439A61074BFA685A63FB68181CBD46EF
:103E800004B080BD28FDFF1F00F00F4000900440EB
:103E9000FFF8FFFE30FDFF1F80B584B000AF7860F3
:103EA000064B1A6940231340FB60FB685A1E93417E
:103EB000DBB2181CBD4604B080BDC04600F00FF850
:103EC00080B584B000AF7860104BFB60FB687A6807
:103ED0001A600F4B0E4A526920210A435A610C4B5B
:103EE0000B4A126820218A431A600A4B094A516919
:103EF000094A0A40802149000A435A61074BFA687F
:103F0000DA61FB68181CBD4604B080BD2CFDFF1FA4
:103F100040F00F4000A00440FFF8FFFE30FDFF1FFF
:103F200080B582B000AF7860024B20229A60BD4617
:103F300002B080BD40F00FF880B582B000AF78606D
:103F4000024B20225A60BD4602B080BD40F00FF8FF
:103F500080B500AF094B094A526808210A435A60EC
:103F6000064B064A926808218A439A60034B034A2B
:103F70005169034A0A405A61BD4680BD00F00F40B6
:103F8000E7ECFFFF80B500AF0A4B0A4A5268802178
:103F9000C9000A435A60074B064A9168064A0A401C
:103FA0009A60044B034A5169044A0A405A61BD466B
:103FB00080BDC04640F00F40FFFBFFFFFBD3FFFF7B
:103FC00080B584B000AF7860334BFB60FB687A68E3
:103FD0009A61324BFA681A60FB6800221A60FB682B
:103FE00000229A80FB6800229A81FB6800229A6076
:103FF000FB680022DA81FB6800229A82FB680022BB
:104000001A61FB6800229A75254A2549254BCB5831
:104010008021C9031943234BD150234A2249C2238B
:104020009B00C958214B0B40802109041943C2232E
:104030009B00D1501C4B1C4A12688021C9000A43C6
:104040001A601B4B1A4AD1691A4A0A40C0218900DA
:104050000A43DA61184B184A1168164A0A40C0210F
:1040600089000A431A60154B1E221A70134B102246
:104070005A70124B27229A70104B104A1278D2B203
:1040800040210A43D2B21A700D4BFA681A60FB68DD
:10409000181CBD4604B080BD68FDFF1F84FDFF1FD6
:1040A000007004403410000000E100E0FFFF00FF5A
:1040B00000900440FFF8FFFE00A0044000600740AD
:1040C00030FDFF1F80B586B000AFF860B960BB1D42
:1040D0001A80FB689B8A002B01D008233CE03B1C24
:1040E0001733EFF3108072B618701D4B1B78DBB2DC
:1040F0000133DBB21A4A191C1170012B04D13B1C8D
:1041000017331A78174B1A70FB68BA681A61FB6884
:10411000BA1D12889A82FB680022DA81FB689B7DB7
:1041200001229343DAB2FB689A750F4B0E4A12785C
:10413000D2B220210A43D2B21A70094B1B78DBB2EB
:10414000013BDBB2064A191C1170002B03D1054B51
:10415000187880F310880023181CBD4606B080BD77
:1041600000FDFF1F76FEFF1F0060074080B582B094
:1041700000AF374B1B687B60364AFB1CD2781A7045
:10418000FB1C1B785BB2002B28DA7B689B89002B19
:1041900024D07B689B68591C7A6891602D4A5279BB
:1041A000D2B21A707B689B8801339AB27B689A807E
:1041B0007B689A887B689B899A420FD1254B254A58
:1041C0001278D1B27F220A40D2B21A707B680022E4
:1041D0009A817B689B69181CFCF796FEFB1C1A7879
:1041E0002023134031D07B68DA897B689B8A9A420E
:1041F00023D218497B681B69581C7A6810611B78A8
:104200004B717B68DB8901339AB27B68DA817B680A
:10421000DA897B689B8A9A4217D17B6800229A824E
:104220007B689B7D01221343DAB27B689A757B68B9
:104230009B69181CFCF75EFE07E0064B054A1278E6
:10424000D2B220218A43D2B21A70BD4602B080BDDC
:1042500084FDFF1F0060074080B584B000AF786028
:104260000D4BFB60FB687A681A600C4B0B4A516976
:104270000B4A0A405A610B4B0A4A916A0A4A0A40A1
:10428000802149000A439A62084BFA689A61FB68E8
:10429000181CBD4604B080BD88FDFF1F40F00F40D4
:1042A000FFFBFFFF00A00440FFF8FFFE30FDFF1FF3
:1042B00080B584B000AF7860064B1A698023DB00BC
:1042C0001340FB60FB685A1E9341DBB2181CBD46CD
:1042D00004B080BD40F00FF880B584B000AF7860C6
:1042E0000D4BFB60FB687A681A600C4B0B4A5269F5
:1042F00010218A435A610A4B094A1169094A0A4046
:10430000802149000A431A61074BFA68DA62FB68A8
:10431000181CBD4604B080BD8CFDFF1F00F00F408F
:1043200000900440FFF8FFFE30FDFF1F80B584B011
:1043300000AF7860064B1A6910231340FB60FB68DE
:104340005A1E9341DBB2181CBD4604B080BDC04666
:1043500000F00FF880B584B000AF78600D4BFB60C3
:10436000FB687A681A600C4B0B4A526908218A4331
:104370005A610A4B094AD168094A0A40802149001A
:104380000A43DA60074BFA689A62FB68181CBD465C
:1043900004B080BD90FDFF1F00F00F40009004406E
:1043A000FFF8FFFE30FDFF1F80B584B000AF7860DE
:1043B000064B1A6908231340FB60FB685A1E9341A1
:1043C000DBB2181CBD4604B080BDC04600F00FF83B
:1043D00080B582B000AF7860FCF79EFDBD4602B0AC
:1043E00080BDC04680B584B000AF78602D4B5B685F
:1043F000002B45D12C4BFB60FB687A68DA60FB68C8
:1044000001221A72294BFA681A60294A2849294B55
:10441000CB58802149041943264BD150264B00220A
:104420001A60254B00225A60234B0022DA60224B8F
:1044300000225A61204B214A9A60FB688022520078
:104440001A60FB6808225A601D4A1D49C4239B005C
:10445000C9581C4B0B40802109021943C4239B00FF
:10446000D150174B164A1268802189020A431A60FC
:10447000114B40221A600B4BFA685A60FB680CE043
:10448000084B5B68FB60FB687A68DA60FB681B7A44
:104490000133DAB2FB681A72FB68181CBD4604B01F
:1044A00080BDC04630FDFF1F94FDFF1FA4FDFF1F10
:1044B000007004403C10000000800340B15D00002B
:1044C00000E100E0FF00FFFF80B584B000AF78603E
:1044D0007B68FB60074B074A12689821101C8843D1
:1044E000011CFA6852680A431A600023181CBD4672
:1044F00004B080BD0080034080B582B000AF134B94
:104500001B683B6000237B60114B1A6880231340BB
:1045100004D07B688022520013437B603B681A689A
:104520007B6813407B607A6880235B0013400AD06D
:10453000074B074A126880210A431A603B68DB6810
:10454000181C00F047F8BD4602B080BDA4FDFF1F57
:104550000080034080B584B000AF78600F4BFB60F3
:10456000FB687A689A60FB6800221A710C4BFA6843
:104570009A600020FFF736FF021CFB681A60FB6898
:104580001B68002B04D1064B00229A60002300E038
:10459000FB68181CBD4604B080BDC046A8FDFF1FC7
:1045A00030FDFF1F80B584B000AF78607B68FB6092
:1045B000FB681B79002B07D1FB6801221A71FB688D
:1045C0001B68181CFFF780FF0023181CBD4604B0B1
:1045D00080BDC04680B584B000AF7860054B9B6855
:1045E000FB60FB689B68181CFFF7F2FEBD4604B039
:1045F00080BDC04630FDFF1FC046C046C046704764
:104600000020C046C046C046C046C046013009280A
:10461000F7D9C0467047C04680B582B000AF021CD3
:10462000BB1D1A8006E0FFF7EBFFBB1DBA1D128809
:10463000643A1A80BB1D1B88642BF4D806E0FFF790
:10464000DBFFBB1DBA1D12880A3A1A80BB1D1B88EE
:104650000A2BF4D8BD4602B080BDC04680B582B0FA
:1046600000AF786007E00A4B181CFFF7D5FF7B68A6
:10467000084A9B187B607A68054B9A42F3D87B689E
:104680009BB2181CFFF7C8FFBD4602B080BDC046F4
:1046900060EA0000A015FFFF80B584B000AF021CE7
:1046A000BB1D1A80094BFB6008E0FB68181CFFF774
:1046B000D5FFBB1D1A88BB1D013A1A80BB1D1B8884
:1046C000002BF2D1BD4604B080BDC04664BB0000E3
:1046D000A60800000E090000E808000032090000EA
:1046E000BA0800008E0D0000CE0A0000780B000012
:1046F000880C0000D00C000001020408102000000B
:10470000504443424B400000F8B5C046F8BC08BCDA
:104710009E467047F8B5C046F8BC08BC9E46704738
:044720003904000058
:04472400110400007C
:044728000103000089
:10472C002847000000FCFF1F0400000000000000F0
:08473C00000000000000000075
:04000003000022DDFA
:00000001FF
