:10040000FFFFFFFFFFFFFFFFFFFFFFFF7EFBFFFF81
:10200000000C0020A94500001D4D0000254D0000DA
:10201000254D0000254D0000254D0000254D0000F8
:10202000254D0000254D0000254D0000254D0000E8
:10203000254D0000254D0000254D0000254D0000D8
:10204000254D0000254D0000254D0000254D0000C8
:10205000254D0000254D0000254D0000254D0000B8
:10206000254D0000254D0000254D0000254D0000A8
:10207000254D0000254D0000254D0000014A0000BF
:10208000254D000049570000254D0000254D00005A
:10209000254D0000254D0000254D0000254D000078
:1020A000254D0000254D0000254D0000254D000068
:1020B000254D0000254D0000254D0000154D000068
:1024100010B5064C2378002B07D1054B002B02D0BA
:10242000044800E000BF0123237010BD5CFCFF1FC7
:1024300000000000C858000008B5084B002B03D06E
:102440000748084900E000BF07480368002B03D095
:10245000064B002B00D0984708BDC0460000000086
:10246000C858000060FCFF1F5CFCFF1F000000005C
:10247000002934D00123002210B488422CD3012437
:102480002407A14204D2814202D209011B01F8E7CC
:10249000E400A14204D2814202D249005B00F8E785
:1024A000884201D3401A1A434C08A04202D3001BB1
:1024B0005C0822438C08A04202D3001B9C082243E4
:1024C000CC08A04202D3001BDC082243002803D022
:1024D0001B0901D00909E3E7101C10BC7047002854
:1024E00001D00020C04307B4024802A14018029066
:1024F00003BDC046D90000000029F0D003B5FFF7A6
:10250000B9FF0EBC4243891A1847C046002941D082
:1025100010B4041C4C40A44601230022002900D51D
:102520004942002800D5404288422CD30124240788
:10253000A14204D2814202D209011B01F8E7E40062
:10254000A14204D2814202D249005B00F8E78842EE
:1025500001D3401A1A434C08A04202D3001B5C0866
:1025600022438C08A04202D3001B9C082243CC08C3
:10257000A04202D3001BDC082243002803D01B0921
:1025800001D00909E3E7101C6446002C00D5404245
:1025900010BC7047002806D003DB0020C043400871
:1025A00001E08020000607B4024802A14018029012
:1025B00003BDC046190000000029EBD003B5FFF7AA
:1025C000A7FF0EBC4243891A1847C0467047C04651
:1025D0001C2101231B04984201D3000C10391B0A53
:1025E000984201D3000A08391B09984201D3000917
:1025F000043902A2105C40187047C046040302026E
:102600000101010100000000000000009C460304DD
:10261000F0B51B0C17043F0C150C1E1C041C000C01
:102620007E436B4347434543FB18300C18188742E1
:1026300002D980235B02ED18030CED1863465C435E
:102640004A433604360CA118000480194919F0BD1C
:10265000F0B522229446C36923224F46464690464F
:102660002F22C0B49146394C20271E260022384D17
:10267000042B03D89B00E3589F46C655042955D820
:1026800089006B589F460323C36183882F221B1246
:10269000DB010366436680231B02436583650023D9
:1026A000C365FF238354302283540CBC9046994663
:1026B000F0BD0423016E426EC36180231B0243659B
:1026C0008365C164002302651E212122C3658154F4
:1026D000C366EAE70023C36143658365C365E4E736
:1026E000416E8423C2500164C16F036E81678021F3
:1026F00042658265C265C363026709028B4222D1CB
:1027000002210123B6E70223C36180231B02016E6D
:10271000426E436500238365C365416482644367F9
:10272000C3E783898367C3670429A9D9C161BCE76B
:102730004346C654A2E76346C6549FE74B46C2547D
:102740003023C2549AE70123C361AEE72C5800003E
:10275000405800007047C04638B500258423C55056
:1027600080231B02041C85720561C56145610566F5
:102770004566C56345644565C5650565056485644D
:102780008565C566056745678561C3678367002101
:1027900020228C3003F042F82023E5542123E55415
:1027A0002223E5542323E55438BDC046F0B55F46E7
:1027B00056464D464446F0B4091A061C4E4885B0AC
:1027C0008846011C141C00F0ABFD011C4A4800F0B7
:1027D000A7FD8321051C832000F0A2FD011C83209E
:1027E00000F09EFD071C391C281C00F087FD011C11
:1027F0008020400200F024FE64048146240C8020E6
:10280000211C400200F07AFD3B498246832000F003
:1028100075FD011C504600F083FD374900F064FD52
:10282000051C291C00F07CFD011C281C00F078FD13
:10283000794200F059FD494600F072FD00218146C1
:10284000002000F06DFD011C002000F069FD051C5A
:102850002A48011C00F064FD011C284800F060FDBE
:10286000071C391C281C00F049FD011C8020400277
:1028700000F0E6FD00218346204800F03FFD011CEA
:10288000504600F04DFD002100F02EFD051C291CD6
:1028900000F046FD011C281C00F042FD794200F0CA
:1028A00023FD594600F03CFD4A4600920E9A0194E1
:1028B000137802940390012B11D0022B15D000D86D
:1028C000484642464243D00F82185010C00B801930
:1028D00005B03CBC90469946A246AB46F0BD528836
:1028E0006846012100F0A0FCEBE70E9B02A85A8885
:1028F000012100F099FCE4E7CCCC000070FD000061
:10290000F0B583B0141C1F1C089A099B0092019318
:10291000221C3B1CFFF74AFF089A80252D021378E2
:102920002E1A301C002B01D003B0F0BD538818487C
:102930003021C01A00126043FFF79AFD089B021C69
:102940000093099B00200193291C3B1CFFF72EFFDD
:10295000089A281A704357880E4B7A1E92B2C00B01
:102960009A4201D80137BFB2094A0021D21BD317BE
:10297000FFF74CFE0023041C0D1C301C00213A1CE8
:10298000FFF744FE001969410B04000C1843CBE724
:10299000FFFF0000FDFF0000F0B5837A57464E466A
:1029A0004546E0B4012B04D01CBC90469946A24693
:1029B000F0BD016E8024C369466E01222402A1424B
:1029C0003FD120218A462221894623218846314C45
:1029D0002F218C461E2500213027042B04D89B0074
:1029E000E3589F465346C554022A1BD1C261802238
:1029F0000023120242658365C365426486644367AF
:102A000007228823C250CFE76346C154C155EBE784
:102A10004B46C554E8E74346C554E5E783898367D9
:102A2000C367E1E78423C15080231B02C363C36FE4
:102A3000416583678165131CC165066401670222D5
:102A4000CBE7042B08D8144A9B00D3589F46002399
:102A50002F22835430228354002384228350C16365
:102A6000C16F43658365C36503670123066481679E
:102A7000C361C5E71E222223C254EDE71E22232391
:102A8000C254E9E71E222023C254E5E78389C367C5
:102A9000E2E7C0465458000068580000F0B55746B9
:102AA0004E464546E0B4041C002907D0837A002B2B
:102AB00011D01CBC90469946A246F0BD1378002B5D
:102AC00006D0C1690423994302D00421FFF7C0FD59
:102AD0000023A372EDE7016EC369466E80200122D8
:102AE0000002814241D120218A46222189462321A8
:102AF000884632482F218C461E2500213027042B82
:102B000004D89B00C3589F465346E554022A1DD162
:102B1000E2618022002312026265A365E3656264BC
:102B2000A66463670123A37207228823E250C0E7EB
:102B30006346E154E155E9E74B46E554E6E7434691
:102B4000E554E3E7A389A367E367DFE78423E15064
:102B500080231B02E363E36F6165A367A165131C18
:102B6000E165266421670222C9E7042B08D8144ACC
:102B70009B00D3589F4600232F22A3543022A354F6
:102B800000238422A350E163E16F6365A365E365DD
:102B9000236701232664A167E361C3E71E22222382
:102BA000E254EDE71E222323E254E9E71E2220230C
:102BB000E254E5E7A389E367E2E7C0467C580000FA
:102BC0009058000000238B707047C046F0B5564601
:102BD0004D4644465F46F0B48BB0041C0E1C151CD9
:102BE000008904AA042100F00BFB8822A358002BC3
:102BF00000DC99E1591EA1502133A2899B00E31802
:102C00005A609023E0588C23E3580721C01894237E
:102C1000E358C0189823E358C0189C23E358C01801
:102C2000A023E358C018A423E358C018FFF76EFC94
:102C3000E0672023E25C002A01D0013AE25421231C
:102C4000E25C002A01D0013AE2542223E25C002A2D
:102C500001D0013AE2542323E25C002A01D0013A78
:102C6000E254B378002B0FD000232362E369022BD8
:102C700000D147E200DC51E2032B00D121E2042B1A
:102C800002D101222023E254A16F636D06910790C7
:102C90005A0006A8012100F0C7FAE7698023E05036
:102CA000042F00D98AE0C34ABB00D3589F460023B3
:102CB000A3667378E288002B00D04BE2BE480A215D
:102CC00000F0B2FA8046E26C41465042FFF71EFC2B
:102CD000E16E236E8A4601218A44C7185246276650
:102CE000E266002F00DA53E253464146D803FFF76D
:102CF0000DFC216DE0658946002900DC21E280237E
:102D00001B021B1A9B4604A9238900915A46494677
:102D1000019700209A46FFF749FD04AA80210290FE
:102D20000092C9015346019700205A46FFF73EFD25
:102D300069460B7C03900298022B29D9488A032B01
:102D400001D080204002802212025946531AC0212D
:102D500058438901FFF78CFB802342041B0204A91E
:102D6000520C9A1A00915346494601970020FFF7EA
:102D70001DFD039A029B5043694608930B7C800B10
:102D80000990032B04D14A8A08A8012100F07AFA9D
:102D9000E26E60669246D04500DD08E100232366BE
:102DA00063663378201C022B00D085E1A37A002BC8
:102DB00000D181E10121FFF74BFCE769231C0022D0
:102DC00028331A705A709A70DA701A715A719A719F
:102DD000DA711A725A729A72DA721A73002F5AD111
:102DE0000023A363754B1B68002B00D18FE0A36900
:102DF000626E9800C31898180621FFF787FB071C1E
:102E00008023E2582E6811038A1AD117090C8918F9
:102E100009146A68236E8D1B5D438B1A7B43E81788
:102E2000D917400C490C4019CB18C013DB133018CC
:102E3000D318A76120616361002800DA70E0604A5E
:102E4000904266DC002B68DB5D4A934200DD6261E4
:102E50000BB03CBC90469946A246AB46F0BDA0885C
:102E6000266E0012C001A0660521801BFFF74EFBF5
:102E7000361826666666231C002228331A705A709C
:102E80009A70DA701A715A719A71DA711A725A72EA
:102E90009A72DA721A73022F00D129E100DC43E141
:102EA000032F00D111E1042F00D046E1E36D454925
:102EB0005A00D318DB11C91888460F12A26B91462D
:102EC0001612BE4200D10AE1BE4208DC301C283096
:102ED000BA1B012120180132494202F09FFCA619B9
:102EE0004A46D3432836E7193370293743463B70A7
:102EF0002E23E35C2F22A3543022A3543122A35467
:102F00002E4B41461B68A163002B00D06FE7676E14
:102F100076E72261101C002B96DA0023636197E7A5
:102F20000022226100208DE7E06F82E6221C002350
:102F30002832A366137053709370D370137153715A
:102F40009371D371137253729372D372137347E7F1
:102F500080231B02A36673782288002B00D0FFE039
:102F60000A21154800F060F9011C80200002FFF7DB
:102F7000CDFA216E80264718E16B3602781A276653
:102F8000711AC003FFF7C2FA226C04A9904660656B
:102F9000321A2389009101974046311CFFF7B0FC9B
:102FA000094B226E404460669A4200DDAEE0E7695C
:102FB00004E7C046A458000000FCFF1F78FCFF1F78
:102FC000FF0F0000FF090000FF7F0000A788628854
:102FD0003F12FF01A7667378002B00D0B4E06E4863
:102FE0000A2100F021F982466C4B5146F818FFF790
:102FF0008DFA216E626C091889462166BA4201DC9D
:103000002766B946606F514601306067C003FFF71D
:103010007DFA80231B0298461B1A029304A9238978
:103020004A46A065009101924146381C029A0393DA
:10303000FFF7BCFB69460B7C8346002B29D1029924
:103040004246531A6A46508A5549081A0012584394
:103050003021FFF70DFA42044346520C9A1A04A994
:103060004B46009101934146039B0020FFF79EFBD6
:103070005A4641468B1A4343DB0B5B440993089243
:103080006B465A8A464908A88A1A012100F0FAF8C4
:103090008346236E5A466266BB4203DD616F51452B
:1030A00000DA84E727666766337802229343201CA0
:1030B000002B5BD0002F66D10021FFF7C9FAE7692A
:1030C0007CE601222123E254DEE5A26BC023DB0073
:1030D0000627984691461612BE4200D0F4E6E7193C
:1030E000D3B23A1C2832D943293711703B70FFE61E
:1030F000A36D5A00D318C022DB119200D21890465B
:103100001712DBE601222223E254BDE5266666663D
:10311000201C0221FFF79CFAE7694FE6012B00D043
:10312000B2E52322A354AFE5012F06D1636D5F0002
:10313000FB18D9118846DF13C0E600231F1C9846F0
:10314000BCE60023636626E616480A2100F06CF808
:10315000824649E713480A2100F066F88046B2E546
:103160000A21104800F060F8011CFEE60421FFF778
:103170006FFAE769002F00D07DE6201C0121FFF7E0
:1031800067FAE7691AE60321FFF762FAE76915E6CD
:10319000002323660027A7E500FCFF1F0080FFFF38
:1031A000FFFF00002CFCFF1F7047C04608B500F071
:1031B000DDFD08BD70B582B06D46094E00240635B0
:1031C000E0B2291C01F07CFA2A88A3000134F250F5
:1031D000062CF5D1034B01221A6002B070BDC04627
:1031E000B0FEFF1F80FCFF1F7047C04608B5034BB1
:1031F000186901F087FD00F033FF08BD94FDFF1F43
:10320000414307480B04DB0B1B180648834200DDD3
:10321000031C090C1170D943C9170B405380704728
:1032200000C0FFFFFFFF0000F0B5474680B40F1C51
:103230005743BEB2721E114B92B280469A4201D8D9
:103240000136B6B23F144346BF000D4AD859921B0F
:10325000D317C117FFF7DAF94744041C78680D1C2F
:10326000321C0023C117FFF7D1F9001969410B0483
:10327000000C184304BC9046F0BDC046FDFF0000A2
:10328000FFFF0000F0B5474680B40F1C5743BEB2A5
:10329000721E134B92B282B080469A4201D8013618
:1032A000B6B23F14BF004346DB590E4A0193921B4E
:1032B000D31701980021FFF7A9F94744041C0D1CFE
:1032C0007868321C00230021FFF7A0F9001969413A
:1032D0000B04000C184302B004BC9046F0BDC0467D
:1032E000FDFF0000FFFF00004318414001D458409B
:1032F00001D4181C704780200006FBE7031C401A0D
:10330000594004D480221206904203D07047021C18
:103310005A40F7D5D80F014BC018F7E7FFFFFF7FE2
:103320000A1C08B5C117D317FFF770F9CB13002992
:103330000DDA01330DD101225242D31780185941C1
:1033400003040A04000CDB0F1043181808BD002BFF
:10335000F6D080200006F9E7F8B556464D465F46A0
:103360004446F0B48246894600293DD0CB17C217A7
:10337000CE1885185E405540330D0027002B44D1F0
:103380000F23334257D1360933424ED136093342E7
:103390004DD1360933424CD136090124002D2BD0B2
:1033A00001235B42984605E04D00013C002D23D0EF
:1033B000002C21DB281CFFF70BF9231E834200DDC4
:1033C000031C9D40311C281CE41AFFF751F8311CE6
:1033D0008346281CFFF790F85B46A340FF1843463E
:1033E000E3405A469A43DFD0802000063CBC90461A
:1033F0009946A246AB46F8BD01374B46524653406C
:103400007808002BF2DA4042F0E7710C0131281CF9
:10341000FFF72EF80021321C0023071CFFF7F6F8F7
:10342000C903400C08432D1AAAE70D24B6E7092466
:10343000B4E70524B2E7002DDED01124B0E7C04682
:1034400038B5041C0D1CFFF787FF8022120690423E
:1034500000D038BD6C40FCD40048FAE7FFFFFF7F86
:1034600008B5002002F046F8904B1A68002866D094
:1034700001321A60012A66DD1E2A00DD7FE05968EC
:10348000002900DC84E0D968002965DB1A68013175
:103490001A61874AD960914202DDFA22D200DA60CD
:1034A000002002F0EFF8834B1A6800285CD001324C
:1034B0001A60012A5CDD1E2A00DC83E01A691E2ADC
:1034C00000D1ECE01F221A6000225A601F22002166
:1034D000D9601A61002002F089F8774B1A68002839
:1034E00065D001321A60012A65DD1E2A00DC7DE00C
:1034F0001A691E2A00D1C4E01F221A6000225A60F5
:103500001F220021D9601A61002002F095F86B4B50
:103510001A68002840D001321A60012A40DD1E2AB4
:1035200000DC77E01A691E2A00D1A3E01F221A608E
:1035300000225A601F220021D9601A6108BD013A99
:103540001A60012A98DC1969022977D0D96801220A
:103550001A605A60002999DA1A61002002F092F884
:10356000544B1A680028A2D1013A1A60012AA2DC41
:103570001969022969D001221A605A6026E01A6985
:103580001E2A00D184E01F221A6000225A601F22E6
:103590000021D9601A61E0E7013A1A60012ABEDC15
:1035A0001969022958D001221A605A6036E0013A9E
:1035B0001A60012A99DC1969022954D001221A6083
:1035C0005A6017E05968002900DC80E7D9680029B3
:1035D00000DA7EE71A6801311A61354AD9609142F2
:1035E00000DC77E7FA22D200DA6073E75968002935
:1035F00000DC86E7D968002900DA84E71A6801311F
:103600001A612B4AD960914200DC7DE7FA22D20090
:10361000DA6079E75968002900DC8CE7D96800296D
:1036200000DA8AE71A6801311A61214AD9609142A9
:1036300000DC83E7FA22D200DA607FE71A7A0F21F2
:103640008A4301210A431A7280E71A7A0F218A43BA
:1036500001210A431A728EE71A7A0F218A43012147
:103660000A431A729FE71A7A0F218A4301210A43FB
:103670001A72A3E71A7A0F210A4010210A431A721C
:1036800054E71A7A0F210A4010210A431A7233E7CD
:103690001A7A0F210A4010210A431A7273E71A7A24
:1036A0000F210A4010210A431A720BE7ECFCFF1F9E
:1036B000CF070000D4FCFF1FA4FCFF1FB8FCFF1FB6
:1036C000F8B5C74DC74C2B78A06909332B7001F0B2
:1036D00039FFC54E2B78327BE0699A4200D83AE137
:1036E00001F056FC206A01F0B9FA206A01F0BCFA38
:1036F000727C2B78E0699A4200D86BE101F048FCBB
:10370000206A01F0ABFA206A01F0AEFA327C2B7825
:10371000E0699A4200D85AE101F03AFC206A01F0CF
:103720009DFA206A01F0A0FAF27B2B78E0699A42B8
:1037300000D849E101F02CFC206A01F08FFA206AE0
:1037400001F092FAB27B2B78E0699A4200D838E116
:1037500001F01EFC206A01F081FA206A01F084FA6F
:10376000727B2B78E0699A4200D827E101F010FCC7
:10377000206A01F073FA206A01F076FAB27C2B78A5
:10378000E0699A4200D816E101F002FC206A01F0DB
:1037900065FA206A01F068FA32792B78E0699A427A
:1037A00000D805E101F0F4FB206A01F057FA206A25
:1037B00001F05AFA72792B78E0699A4200D8F4E065
:1037C00001F0E6FB206A01F049FA206A01F04CFAA8
:1037D000B2792B78E0699A4200D8E3E001F0D8FB97
:1037E000206A01F03BFA206A01F03EFAF2792B7868
:1037F000E0699A4200D8D2E001F0CAFB206A01F0E9
:103800002DFA206A01F030FA327A2B78E0699A4278
:1038100000D8C1E001F0BCFB206A01F01FFA206A69
:1038200001F022FA727A2B78E0699A4200D8B0E06F
:1038300001F0AEFB206A01F011FA206A01F014FADF
:10384000B27A2B78E0699A4200D89FE001F0A0FBA1
:10385000206A01F003FA206A01F006FAF27A2B7866
:10386000E0699A4200D88EE001F092FB206A01F0F4
:10387000F5F9206A01F0F8F95C4F2223FB5CE0695E
:10388000002B00D17CE001F07DFB206A01F0E6F91D
:10389000206A01F0E9F92123FB5CE069002B00D1EB
:1038A0006BE001F06FFB206A01F0D8F9206A01F0AB
:1038B000DBF92023FB5CE069002B5BD001F062FBAD
:1038C000206A01F0CBF9206A01F0CEF9F2782B786A
:1038D000E0699A424BD901F05BFB206A01F0BEF926
:1038E000206A01F0C1F9B2782B78E0699A423BD99D
:1038F00001F04EFB206A01F0B1F9206A01F0B4F941
:1039000072782B78E0699A422BD901F041FB206A4A
:1039100001F0A4F9206A01F0A7F932782B78E06968
:103920009A421BD901F034FB206A01F097F9206A12
:1039300001F09AF92323FB5CE069002B4DD101F0E3
:1039400027FB206A01F08AF9206A01F08DF9A0694D
:1039500001F0FEFDF8BD01F015FBC3E601F012FB1E
:10396000E2E701F00FFBD2E701F00CFBC2E701F048
:1039700009FBB2E701F00CFBA2E701F009FB92E7BB
:1039800001F006FB81E701F0FDFA6FE701F0FAFABA
:103990005EE701F0F7FA4DE701F0F4FA3CE701F0D9
:1039A000F1FA2BE701F0EEFA1AE701F0EBFA09E77A
:1039B00001F0E8FAF8E601F0E5FAE7E601F0E2FAEC
:1039C000D6E601F0DFFAC5E601F0DCFAB4E601F074
:1039D000D9FAA3E601F0D6FA92E601F0D3FAB0E7FD
:1039E00058FCFF1F94FDFF1F04FDFF1FF8FDFF1F84
:1039F00038B50C1C051C2405002001F097FA240D95
:103A0000012D00D19DE1B0231B0223431A0ADBB232
:103A10007F21101C8843011E802900D144E1CF4939
:103A200080240868A0430860CD4901200C68044345
:103A30000C600C6884430C60C84980240868A0436B
:103A40000860C74901200C6804430C600C6884437B
:103A50000C60910600D521E1C04980240868A0438C
:103A60000860BF4901200C6804430C600C68844363
:103A70000C60BA49D00600D52CE108688024A04328
:103A80000860B74901200C6804430C600C6884434B
:103A90000C60110700D517E1B04980240868A043E5
:103AA0000860AF4901200C6804430C600C68844333
:103AB0000C60AA49500700D501E108688024A043A2
:103AC0000860A74901200C6804430C600C6884431B
:103AD0000C60910700D5ECE0A04980240868A04361
:103AE00008609F4901200C6804430C600C68844303
:103AF0000C60104200D017E1984A80201168814381
:103B00001160974A012110680843106010688843CB
:103B100010607F22181C9043021E802A00D1FEE014
:103B20008E4A80201168814311608D4A01211068FE
:103B300008431060106888431060884A590600D511
:103B4000E8E01168802081431160854A01211068F6
:103B5000084310601068884310609A0600D5D3E0CF
:103B60007E4A80201168814311607D4A01211068DE
:103B700008431060106888431060784AD80600D562
:103B8000BDE01168802081431160754A01211068F1
:103B900008431060106888431060704A190700D508
:103BA000A8E011688020814311606D4A01211068EE
:103BB000084310601068884310605A0700D593E0EE
:103BC000664A8020116881431160654A01211068AE
:103BD00008431060106888431060604A980700D559
:103BE0007DE011688020814311605D4A01211068E9
:103BF00008431060106888431060194248D1574B41
:103C000080211A688A431A60554B012219680020E6
:103C10001143196019689143196001F08DF9002072
:103C200001F068FC4F4B1A68002816D001321A6068
:103C3000012A16DD1E2A1FDC5868002824DDD968F9
:103C4000002917DB1A6801311A61474AD96091428D
:103C500002DDFA22D200DA6038BD013A1A60012A88
:103C6000E8DC1969022965D0D96801221A605A6016
:103C70000029E7DA1A61EFE71A691E2A67D01F22C6
:103C80001A6000225A601F220021D9601A61E3E7FE
:103C9000324B802219680A431A60B5E72F49802009
:103CA0000C6820430860DCE62C480468214301606E
:103CB000BAE62A4980200C682043086011E70C68A6
:103CC000802020430860FCE6244980200C682043C3
:103CD0000860E6E60C68802020430860D1E61068A2
:103CE00080210143116080E71C4A80211068014354
:103CF00011606AE7106880210143116055E7106880
:103D000080210143116040E7144A8021106801437B
:103D100011602AE7106880210143116015E70F49FF
:103D2000086802430A6000E70C4A802110680143DA
:103D30001160E6E61A7A0F218A4301210A431A72BA
:103D400092E7C0239B0123431A0ADBB260E61A7A8A
:103D50000F210A4010210A431A7290E700F00F4029
:103D600040F00F40ECFCFF1FCF07000010B5FFF73D
:103D700077FB504B1A6801321A604F4A13680133BF
:103D80001360DA0709D54D4B012059694C4B196076
:103D9000FFF72EFEFFF794FC10BD4A4A117A0B077D
:103DA0001B0F012B7BD0454C474A4849201CFEF78E
:103DB0000DFF2169464B00201960FFF719FE454AA7
:103DC0002823E15C1078444B1970884200D21170AE
:103DD0002921615C59705078884200D251702A21A3
:103DE000615C99709078884200D291702B21615C5F
:103DF000D970D078884200D2D1702C21615C1971C1
:103E00001079884200D211712D21615C597150796D
:103E1000884200D251712E21615C9971907988425B
:103E200000D291712F21615CD971D079884200D282
:103E3000D1713021615C1972107A884200D21172FE
:103E40003121615C5972507A884200D2517232211C
:103E5000615C9972907A884200D291723321615CE0
:103E6000D972D07A884200D2D1723421615C197340
:103E7000107B884211D31C1C143406E001311170F0
:103E800001330132A34200D184E7187811788842C7
:103E9000F4D8F5D201391170F2E71173EBE70F2076
:103EA0008143064C11720D4A201C1360FEF774FD0D
:103EB0007AE7C04698FCFF1FA0FCFF1FF8FDFF1F1C
:103EC000CCFCFF1FECFCFF1FA8FEFF1FF4FDFF1F33
:103ED000E8FCFF1F04FDFF1F84FCFF1F9CFCFF1F6D
:103EE00070B582B000236A4620206946137001F045
:103EF00081F86A461378102B05D00C4B862172226C
:103F000006C302B070BD094E00240025201C2130DC
:103F10006B4680B269461D7001F06CF86A461378F2
:103F200033550134082CF1D1EBE7C046A8FEFF1F42
:103F300030B583B06A46002400206946147001F051
:103F400059F86A461378102B12D01021002001F086
:103F500025F8164C0120217801F020F86178022024
:103F600001F01CF8A178032001F018F803B030BD6F
:103F700069460120147001F03DF86A460B4D137834
:103F800069462B700220147001F034F86A461378E9
:103F900069466B700320147001F02CF86A461378A0
:103FA000281CAB70FEF7D6FBE0E7C046F4FDFF1F10
:103FB00008B5274B1B68002B1FD0012B0ED0254ABC
:103FC0001378012B26D0002B2BD0022B05D1224BAE
:103FD000FF22DA7300229A735A7308BD1F4BFA212D
:103FE00018688900FEF788FA9023FF33994223D995
:103FF000194B00221A745A74E1E7164A51780029C5
:1040000015D00129DCD11449FF204B7413780874B2
:10401000012BD8D1104B0022FF21DA7399735A7308
:10402000DBE70D4AD3739373FF235373D5E70A4B32
:104030001974FF215974C3E7064A9378002BE2D024
:10404000012BBDD1044B00211974FF215974B7E72E
:104050007CFCFF1FF4FDFF1F84FCFF1FA0FCFF1F63
:1040600008B5074B1B68012B09D0411E0843C10F3F
:10407000044A0548FEF712FD044B01221A6008BDF0
:1040800000FDFF1FF4FDFF1FF8FDFF1FD0FCFF1F09
:10409000F0B55F4656464D464446F0B483B000F056
:1040A0009DFED84A80235B00D361D74AD74D136069
:1040B000D74B80225969281C0A435A61D54B0122EB
:1040C000596900260A435A61FEF746FBD248D34994
:1040D000FEF778FDFFF704FFFFF72AFF01214942B1
:1040E0001222CF4801F09AFBCE4B0024586801F011
:1040F00057FB012000F0FEFA002000F093FAFF27A2
:10410000002E00D1CEE1C8480470012E00D103E298
:104110004470022E00D1FAE18470032E00D1F0E148
:10412000C470042E00D1E6E1BF480471052E00D111
:10413000DBE1BD4A5471062E00D1D0E19471072E07
:1041400000D1C6E1B84AD471082E00D1BBE1B6480F
:104150000472092E00D1B0E1B34A54720A2E00D184
:10416000A6E1B14884720B2E00D190E1AE4AD47220
:104170000C2E00D184E1AC4801360473282001F0F4
:1041800035FB0D2EBCD1A64800230360436083603D
:10419000C36003828C2001F029FBFFF791FAFFF73F
:1041A00007FFFFF78DFAA14AA14BA248A249A34EEF
:1041B000A34C00279246984681468B4651460B7A7F
:1041C0001A07120F012A00D187E0CA689D4B9A4254
:1041D00016DD924A012040425146C8601078032102
:1041E0000230FEF7E9F98D4B974819700368002BF0
:1041F00000D13AE10127012B02D1002303600127FE
:104200009248037A1A07120F012A78D0904A137A3B
:104210001A07120F0192012A00D182E08C490B7A11
:104220001A09012A00D191E043461A684846D3177B
:104230009B1A0068DB0FDB01002800DDFF235946D5
:104240000968002902DD002A00D0FF230022584619
:10425000494602600A60724A73489374827C9A42AB
:1042600000D283747B490B68012B00D1C3E0326814
:104270007068D343B168F2682B80C3436B803069A8
:10428000CB43AB807169D343EB80C3432B81CB43DA
:10429000AB81FFF78DFE002001F02CF92368002888
:1042A00060D001332360012B60DD1E2B66DD2069A9
:1042B0001E2800D1D2E01F232360002363601F2348
:1042C0000022E2602361012F6AD051460B7A002759
:1042D0001A07120F012A00D077E70F2293434F4AA3
:1042E0000B72107803210130FEF766F94B4B5748EB
:1042F0001970037A01271A07120F012A86D10F219C
:104300008B43514903720B68002B6DD0012B64D095
:104310004F4A0127137A1A07120F0192012A00D07F
:104320007CE7111C4A480F229343424603721160F6
:10433000281C0121394AFEF7B1FB019B444948463C
:1043400003600B7A1A09012A00D06DE70F2213408F
:104350000B72424600231360281C00212F4AFEF7EF
:104360009DFB61E7013B2360012B9EDC2269022A51
:1043700000D17EE001232360636002E061680029D0
:104380009EDDE268002A9DDB23682E480132E26050
:104390002361824297DDFA23DB00E360012F94D191
:1043A0002D490968092900DC08E71021002000F0E8
:1043B000F5FD1A4A0120117800F0F0FD174B02209C
:1043C000597800F0EBFD154800278178032000F0B4
:1043D000E5FD214900230B60F0E6104901278A78AA
:1043E000013213408B7011E70C48012743780133E9
:1043F0001A4042700AE7002300200B6000F012F917
:1044000035E7C0460090044000A00440F8FDFF1FBF
:1044100000F00F4040F00F40C8FEFF1FF4FDFF1FEB
:1044200084FCFF1F94FDFF1F04FDFF1FA4FCFF1F62
:1044300000FDFF1FD0FCFF1F9CFCFF1FB0FEFF1FF5
:10444000ECFCFF1FCF0700007CFCFF1FB8FCFF1F28
:10445000D4FCFF1F80FCFF1F98FCFF1F237A0F2254
:10446000134010221343237225E701210160012725
:10447000C6E6237A0F22934301221343237279E77E
:10448000284AFF232820137301F0B0F97BE6254B5F
:10449000DF72181C04730136282001F0A7F9002EE2
:1044A00000D030E61F490F704E708E700B1C36E046
:1044B0001C498F72CC72081CECE71A4B5F729C721D
:1044C000DC72181CE6E717490F724C728C72CC72C2
:1044D00051E6144BDF711C725C729C7246E6114906
:1044E0008F71CC710C724C723BE60E4B5F719C71FC
:1044F000DC711C7230E60B490F714C718C71CC7100
:1045000025E6084BDF701C715C719C711AE6054949
:104510008F70CC700C710CE6024B5F709C70DC707D
:1045200002E6C04604FDFF1F1C4BF0B5002B00D176
:10453000F0BD002703250126D81902684168002A2A
:1045400026D1002904D18268002AF1D00C37F3E784
:1045500080680028FAD0141C0C43254208D1032897
:1045600006D910CA043810C10028F4D10C37E3E78B
:10457000264207D1012805D9148802380C8002325E
:104580000231E6E7147801380C7001320131E0E7BE
:1045900080688A42DDD10C37CEE7C046445900001E
:1045A0007047C0467047C04638B5FFF7F9FF00F0C6
:1045B000BBFB184B181C002805D0854681B0002095
:1045C000C043009001B0144B144AD21A08D1FFF72F
:1045D000ABFFFFF7E7FF00201149FFF759FDFEE7AA
:1045E000032501240020291C194006D1032A04D9DF
:1045F00002C3043A002AF6D1E9E7211C194005D18B
:10460000012A03D91980023A0233F3E71870013AFC
:104610000133EFE7000C00205CFCFF1F04FFFF1FCD
:1046200018FDFF1FF8B51F4C051C23780820DBB2CE
:10463000002B00D0F8BD012222702278002A07D179
:104640000020002DF6D02378012BFCD00020F1E7CC
:104650002278032A15D0144A14491370144A0B7097
:104660001370144A138053809380D3801381538135
:10467000114E0122306800F039F9306800F020F95D
:10468000DEE70B4A084916780C4F0878BE5DB04348
:1046900008701078074940004352137803490B70A3
:1046A000E6E7C04642FDFF1F40FDFF1F44FDFF1F20
:1046B00041FDFF1FECFEFF1FF8FEFF1FB858000072
:1046C00010B50223052801D9181C10BD064B1A7815
:1046D000064B1C5C09231442F6D0054B4000C35A1C
:1046E0001B010B800023EFE740FDFF1FB8580000BF
:1046F000ECFEFF1F70B5114C061C22780820002A22
:1047000000D070BD0E4D04232868237000F01EF900
:10471000286800F045F9002E0DD0286800F016F941
:104720000028FAD0286800F051F9002803D00023AF
:1047300023701B20E5E70020E3E7C04642FDFF1F92
:10474000F8FEFF1F70B5234D2B78042B39D02B7842
:10475000214C2178032B18D0204B214E4900C91839
:10476000306800F0DFF823780133DBB22370237860
:10477000062B1DD023781B4930680B70012200F0F6
:10478000B5F8306800F09CF870BD154B490018680A
:10479000124BC91800F0C6F82278134B1348197849
:1047A000825C0A431A70FEF705FD00232B70EBE7CD
:1047B0000D4B00263F2226701A70FEF7FBFC2E7070
:1047C000E2E7074B186800F001F900232B70FEF7B1
:1047D0000BFDD9E742FDFF1F41FDFF1FECFEFF1F50
:1047E000F8FEFF1F44FDFF1F40FDFF1FB8580000EB
:1047F000054A08B500231370044A0020137000F026
:1048000009F8034B186008BD40FDFF1F42FDFF1F64
:10481000F8FEFF1F204B214A30B5214913600024C8
:10482000204A1C709C708D585860802000052843D9
:1048300088501D4AC3218900555880202D022D0A19
:104840000006284350501068802109020143174890
:104850001160426B16490A40426382680A408260D6
:10486000144A156A0D401562556A0D405562C56AB5
:104870000D40C562106B014011630F4A57219160D2
:10488000D1680F208143D1604021146251620B4AEC
:10489000181C936030BDC04650FDFF1F4CFDFF1F2C
:1048A000007004403C10000000E100E000A0044063
:1048B000FFF8FFFE0090044000B0034094FDFF1F8E
:1048C000094B10B5196A08220C0601D5101C10BD41
:1048D0005A6A48218A435A621A6A40218A431A62F4
:1048E00042781A600022F1E700B0034030B5962309
:1048F000012A01D0181C30BD084B1C6A082325066C
:10490000F8D402700A788223052AF3D8044B9A5C03
:104910004023134343700023ECE7C04600B003403C
:10492000C058000030B502780023002A0AD0064D96
:104930001A1D920054595A00545201330278DBB2C6
:104940009A42F5D8002030BD00B00340124B82B02F
:104950006946021CEFF3108072B6087019780131B5
:10496000C9B21970012911D00020917890701A787D
:10497000013AD2B21A70002A03D1084B187880F39A
:1049800010884B1E9941C8B202B07047694608783A
:1049900002490870E8E7C04664FDFF1F02FFFF1FE1
:1049A000094B8022196A08200A4200D07047196A10
:1049B0004020814319625F211960596AC0208143F8
:1049C0000A435A620020F1E700B003400B4B1B2062
:1049D0005A6A510600D57047DA6C996C0020891824
:1049E0005A6C89181A6C8918DA6B89189A6B8918AD
:1049F0008022490812020A43DA62ECE700B0034061
:104A000008B5054B01221B689A705868FFF79AFE9B
:104A1000024B1B6908BDC0464CFDFF1F00B00340A0
:104A2000F0B5474680B4051C82B00B1C171C00294A
:104A300005D13980002002B004BC9046F0BD234C63
:104A40001A1C2068291C002300F034FC082834D0EC
:104A50001F4A002500269046206800F033FB20689E
:104A600000F07AFC002811D1206800F07DFCB042F3
:104A70001ED0206800F078FC061C206800F022FBA5
:104A80002068002500F068FC0028EDD0206800F0C8
:104A90006BFC69463880206800F0FCFC6A4613888D
:104AA000002B0CD1FA23DB009D4206D00020C2E788
:104AB0000135ADB24545CFD9E8E70C20BBE708206A
:104AC0001A07B8D415205A07B5D4EBE7FCFEFF1F30
:104AD000CF070000F0B5474680B4051C84B00B1C1E
:104AE000171C002905D13980002004B004BC904671
:104AF000F0BD2A4C1A1C2068291C012300F036FC4A
:104B0000082842D0264A002500269046206800F05A
:104B1000D9FA206800F07CFC002811D1206800F050
:104B20007FFCB0422CD0206800F07AFC061C206884
:104B300000F0C8FA2068002500F06AFC0028EDD0DB
:104B4000206800F06DFC02AE3880311C206800F057
:104B5000A1FC3388002B1AD1FA23DB009D4214D02C
:104B60001D1C03E0013DADB2002D0ED0206869464A
:104B700000F096FC6A461378012BF3D10020B4E7CD
:104B80000135ADB24545C1D9DAE70C20ADE70820C3
:104B90001A07AAD415205A07A7D4DDE7FCFEFF1F89
:104BA000CF07000030B50F4B20219A78FA248A43B2
:104BB0009A709A7810218A4383B09A70E4000A4D63
:104BC00003E0013CA4B2002C0AD02868694600F03A
:104BD00067FC6A461378012BF3D1002003B030BD87
:104BE0000C20FBE700600640FCFEFF1F08B5054BEC
:104BF0007F221B6802400021181C00F013FCC0B289
:104C000008BDC046FCFEFF1F08B5002000F00EFBEB
:104C1000014B186008BDC046FCFEFF1F0A4B0B4A43
:104C2000402110605869084358611868884318602B
:104C3000074B084998690140802040000143996171
:104C4000054B101C1A62704740F00F4058FDFF1FC3
:104C500000A00440FFF8FFFE94FDFF1F014B40221F
:104C60009A60704740F00FF8014B40225A6070473D
:104C700040F00FF8114B124A10B51360114A18603A
:104C80001149506801408020400001435160506844
:104C90000E4901400E4801435160C7200D4A800073
:104CA0001458802124020906240A0C431450106869
:104CB00001431160084A181C136110BD60FDFF1FFD
:104CC0005CFDFF1F00A00440FFF8FFFEFFFFF0FEA9
:104CD00000000B0100E100E094FDFF1F08B5074B49
:104CE00080221868064B52045968114205D0596851
:104CF00000680A435A60FEF779FA08BD5CFDFF1FA1
:104D000000A00440024B18698007C00F7047C046DE
:104D100040F00F4008B5FFF7E1FF08BD08B5FEF70A
:104D200043FA08BDFFBE7047214B224A2249D150A9
:104D3000224B8822002152019950214AC021890228
:104D40009950204AC0219858C900014399501E4BE0
:104D50009A78110704D5997808220A43D2B29A703A
:104D6000164B174A802149029950184A18499858F9
:104D700001408020400401439950164906230B70DE
:104D80004B78402213404B70CB781F221340A02257
:104D90001343CB70104B80221A7010228B791A4269
:104DA000FCD00C490C228B791A42FCD17047C046CA
:104DB000080D000000E000E000200000007004404A
:104DC000441000003810000000D00740041000001C
:104DD000FFFFFFFC004006400050064038B5394B4D
:104DE0001F215A7938488A435A711A7907218A4310
:104DF0001A71364B73211A78C7248A4350210A430B
:104E00001A705A7863218A4340210A435A709A786B
:104E100019218A439A702E4B00221A702D4B0222C0
:104E2000D968A40001401143D960196901401143B8
:104E30001961196B01401143196327490D592D045C
:104E40002D0C0D51254C656995436561244CA56A6F
:104E500028400243A2625868224A0240C0208000D3
:104E600002435A60C1239B00C8581F4A0240CA50DF
:104E7000002000F07FFCFFF7BBFC00F06FFB002080
:104E800000F034F80020FFF7F5FE002000F08EFB64
:104E9000002000F037FB002000F054F80020FFF75E
:104EA000BDFE002000F0D0FB002000F0A7FB00F0CA
:104EB00067FB002000F000FBFFF7A6FE00F0ECF817
:104EC00062B638BD00F00740FDFFFFFE00D007408E
:104ED00000E007400090044000E100E040F00F4097
:104EE00000A00440FFF8FFFEFFFF00FF0A4B0B4A43
:104EF00020211060586908435861186801431960FF
:104F0000074B08495869014080204000014359611E
:104F1000054B101CDA60704700F00F4068FDFF1F62
:104F200000900440FFF8FFFE94FDFF1F014B20227C
:104F30009A60704700F00FF8014B20225A607047CA
:104F400000F00FF80A4B0B4A8021106058690843A3
:104F50005861186888431860074B0849D8690140B0
:104F6000802040000143D961054B101CDA61704775
:104F700040F00F406CFDFF1F00A00440FFF8FFFE53
:104F800094FDFF1F014B80229A60704740F00FF89C
:104F9000014B80225A60704740F00FF870B5041C36
:104FA00040055023400F82B018430E1C00F046F815
:104FB000051E1AD16A4614705670684602210022F6
:104FC00000F056F8051E10D1FF236A46137000202A
:104FD00000F00CFC684601210022642300F05EF81A
:104FE0000028F4D100F032F802E000F02FF8281C7D
:104FF00002B070BD30B583B06B4618704305580FD2
:10500000502318430D1C00F019F8041E10D16846F7
:105010000121012200F02CF8041E09D1281C0121D5
:10502000002200F015F8041E02D100F00FF802E093
:1050300000F00CF8201C03B030BDC04608B5FFF7E7
:10504000D5FD002800D01B2008BDC04600207047B9
:1050500010B582B0141C6A46FFF73CFD002801D150
:10506000002C01D002B010BDFFF79CFDFAE7C0464E
:1050700030B583B0151C6A46FFF7D2FC041E08D178
:1050800002239D4302D1FFF78DFD041C201C03B0B9
:1050900030BDFFF787FDF9E77047C04630B583B0F4
:1050A000151C6A46FFF7BCFC041E08D1002D02D077
:1050B000201C03B030BDFFF775FD041CF8E7FFF7B7
:1050C00071FDF5E770B5584B0222D9780A4226D017
:1050D000D978DC781225AC43C9B20C43DC709C78DB
:1050E00020252C401CD09E781024344227D10289E0
:1050F0004189013A92B2013102814181002A34D0C2
:10510000012A56D0C3685A1CC260474A12791A70E5
:105110000389002B03D1427802231343437070BDEF
:1051200010220A42FBD004820481047801218C43BE
:1051300081700470997891439970042211E00126DE
:105140000E421ED09A78AA439A709A78A2439A7017
:1051500000230382038103780622B34313430370C1
:105160000822838813438380D9E7027801218A4388
:1051700002709A780821AA439A709A788A439A70A2
:10518000C0E701780A420DD0028A002A16D0013AFF
:105190000282428A013242824269511C4161127884
:1051A0001A71BCE782791A710278022313430370E3
:1051B000B5E7997808220A439A70A3E70289002A82
:1051C0000FD004244D0716D5012A28D09A7808213B
:1051D0008A439A70144B10219A788A439A701B79EB
:1051E0009DE78278B1430170012A11D042780123F2
:1051F0001343437093E79A782243D2B29A70C179ED
:1052000001220A43D2B21A7103781C43047086E764
:105210009A78AA439A709A78A2439A70E6E79978A6
:1052200008220A439A70D5E7006006401A4B2022F4
:1052300070B51A7010229A7101229A70002298613A
:105240005A811A815A821A829A8000211348144A7C
:105250005970855840242C438450124A5020917034
:1052600090710220D0701048104D066980242E40A5
:10527000A40026430661C66835402C43C4605171C2
:1052800091713A2151709078802101439170084AC0
:10529000181C136370BDC04670FDFF1F00700440F2
:1052A000341000000060064000A00440FFF8FFFE3C
:1052B00094FDFF1FF0B5002A35D08578012D05D06B
:1052C00006780824F50709D5201CF0BD214CE678A6
:1052D0000824B706F8D406783542F5D1058A002DA2
:1052E000F2D101244161837000211A4B26430282CE
:1052F00006704182997810220A439A709A789978B8
:10530000970612D420220A43D2B29A7003789906E3
:105310000FD410221A4014D11D0704D502210B43CB
:1053200003700C4B1A710024CEE704220A439A70D2
:10533000ECE70622134303708279064B00241A71AE
:10534000C2E7062293430370C279024B00241A710C
:10535000BAE7C0460060064043780122191C914319
:105360004170101C18407047408A7047F0B5041C0B
:10537000002A12D08120002B00D1F0BD2578092011
:105380002E07FAD4A678012E09D00820EE07F4D40F
:10539000208900280DD00820EFE70020EDE71B480A
:1053A000C078844667460820BF06E6D42E42E4D182
:1053B000EEE70126A3703543144B22812570E1608E
:1053C0006081997810220A439A709A7899789706A2
:1053D0000ED504220A439A70237899060DD4DA0672
:1053E000DBD5062293432370E279084B1A71C4E798
:1053F00020220A43D2B29A70EEE706221343A27922
:10540000237001231A43014B1A71B6E7006006406E
:1054100043780222191C91439B074170D80F7047B3
:105420004089704730B504780823E50701D5181C7A
:1054300030BD012916D0002908D0022925D13023FA
:105440009C4308231C4304700023F0E789237F2A30
:10545000EDD818239C4320231C4352008271047012
:105460000023E4E70A4989238A42E0D806238271AF
:10547000D2091A4010235B421A4328239C4310236D
:105480001C43C27104700023D1E78D23CFE7C046CF
:10549000FF03000083880B80002383800020704777
:1054A000044B0122DB7800205B09534001221340AA
:1054B0000B70704700600640094A0A4B516918603A
:1054C000402081435161084A084990690140802089
:1054D000400001439161064A181CD3627047C046E0
:1054E00000F00F408CFDFF1F00900440FFF8FFFE0E
:1054F00094FDFF1F024B18694006C00F7047C0465D
:1055000000F00FF80A4B0B4A20211060586908433D
:105510005861186888431860074B0849586901406A
:105520008020400001435961054B101C9A6170476F
:1055300040F00F4090FDFF1F00A00440FFF8FFFE69
:1055400094FDFF1F014B20229A60704740F00FF836
:10555000014B20225A60704740F00FF8064B08229A
:105560005968114359609968914399605969034A90
:105570000A405A617047C04600F00F40E7ECFFFF59
:10558000074B80225968D2000A435A609968054A3D
:105590000A409A605969044A0A405A617047C046F5
:1055A00040F00F40FFFBFFFFFBD3FFFF094B0A4A10
:1055B00018600A49506901405161094A0949906AD5
:1055C00001408020400001439162074A181C53614A
:1055D0007047C046C8FDFF1F40F00F40FFFBFFFFB4
:1055E00000A00440FFF8FFFE94FDFF1F024B186966
:1055F0004005C00F7047C04640F00FF8094A0A4BFB
:1056000051691860102081435161084A08491069A6
:1056100001408020400001431161064A181C93623A
:105620007047C04600F00F40CCFDFF1F00900440C3
:10563000FFF8FFFE94FDFF1F024B1869C006C00F64
:105640007047C04600F00FF8094A0A4B51691860CC
:10565000082081435161084A0849D06801408020F0
:1056600040000143D160064A181C53627047C0468F
:1056700000F00F40D0FDFF1F00900440FFF8FFFE38
:1056800094FDFF1F024B18690007C00F7047C0460A
:1056900000F00FF808B5FDF789FD08BD1B4A70B58D
:1056A0001368002B05D01A7AD86001321A72181CC0
:1056B00070BD1749174CC860012008721648802534
:1056C000016016486D042658354325501448C424FB
:1056D00003604360C3604361124BA4008360802376
:1056E0005B000B6008234B600F4B104D1E5935407B
:1056F0008026360235431D511D688024A4022C43A8
:105700001C604023036011600B1CD0E794FDFF1F59
:10571000D8FDFF1F00700440D4FDFF1F3C100000A7
:1057200000800340B15D000000E100E0FF00FFFFEA
:10573000044B98211A688A43416800200A431A6082
:105740007047C0460080034008B5084B80221868A7
:10575000074B19680A4208D00168C90505D51968C0
:10576000C0680A431A6000F027F808BDD4FDFF1F87
:105770000080034038B5084C084DA060002300208D
:1057800023716C60FFF78AFF2060002801D0201C85
:1057900038BD6860FCE7C046E8FDFF1F94FDFF1FB1
:1057A00008B50379002B04D1012303710068FFF7CA
:1057B000BFFF002008BDC04608B5034B5B68986872
:1057C000FFF768FF08BDC04694FDFF1FC046C046F6
:1057D000C04670470020C046C046C046C046C046CE
:1057E00001300928F7D9C0467047C04638B5051EB4
:1057F00012D0E024FF34013CA4B2FFF7EBFF002CF1
:10580000F9D10724013CA4B2FFF7E0FF002CF9D145
:10581000013DADB2002DECD138BDC046031C82184D
:10582000934202D019700133FAE770472227000033
:1058300030270000362700003C2700007A260000B1
:10584000D4260000E026000006270000862600007F
:10585000B22600001C2A0000162A0000102A0000B0
:10586000082A0000E42900008C2A00007C2A00009D
:10587000742A00004E2A0000842A0000442B0000F5
:105880003E2B0000382B0000302B0000082B0000BE
:10589000B42B0000A42B00009C2B0000762B0000F2
:1058A000AC2B00002C2F0000502F0000CC2F00004C
:1058B0005E2E0000AE2C0000010204081020000043
:1058C000504443424B400000F8B5C046F8BC08BC09
:1058D0009E467047F8B5C046F8BC08BC9E46704767
:0458E0003924000067
:0458E400112400008B
:1058E80001000000370000009D0000005801000082
:1058F800B102000030050000CD090000531200007D
:10590800122200002A3F0000EE740000010000008F
:1059180019000000320000004B0000008A0000005F
:105928000A010000F6010000AA030000D0060000EA
:0C593800A20C0000621700000300000039
:10594400E858000000FCFF1F5C000000000000009D
:0859540000000000000000004B
:04000003000045A90B
:00000001FF
